{
    "contractName": "Bridge",
    "abi": [
        {
            "anonymous": false,
            "inputs": [
                {
                    "indexed": false,
                    "internalType": "bytes8",
                    "name": "originChainID",
                    "type": "bytes8"
                },
                {
                    "indexed": true,
                    "internalType": "bytes8",
                    "name": "destinationChainID",
                    "type": "bytes8"
                },
                {
                    "indexed": true,
                    "internalType": "bytes32",
                    "name": "resourceID",
                    "type": "bytes32"
                },
                {
                    "indexed": true,
                    "internalType": "uint64",
                    "name": "depositNonce",
                    "type": "uint64"
                },
                {
                    "indexed": false,
                    "internalType": "address",
                    "name": "depositor",
                    "type": "address"
                },
                {
                    "indexed": false,
                    "internalType": "address",
                    "name": "recipientAddress",
                    "type": "address"
                },
                {
                    "indexed": false,
                    "internalType": "address",
                    "name": "tokenAddress",
                    "type": "address"
                },
                {
                    "indexed": false,
                    "internalType": "uint256",
                    "name": "amount",
                    "type": "uint256"
                },
                {
                    "indexed": false,
                    "internalType": "bytes32",
                    "name": "dataHash",
                    "type": "bytes32"
                }
            ],
            "name": "Deposit",
            "type": "event"
        },
        {
            "anonymous": false,
            "inputs": [
                {
                    "indexed": false,
                    "internalType": "bytes8",
                    "name": "originChainID",
                    "type": "bytes8"
                },
                {
                    "indexed": false,
                    "internalType": "bytes8",
                    "name": "destinationChainID",
                    "type": "bytes8"
                },
                {
                    "indexed": false,
                    "internalType": "uint64",
                    "name": "depositNonce",
                    "type": "uint64"
                },
                {
                    "indexed": false,
                    "internalType": "bytes32",
                    "name": "resourceID",
                    "type": "bytes32"
                },
                {
                    "indexed": false,
                    "internalType": "address",
                    "name": "recipientAddress",
                    "type": "address"
                },
                {
                    "indexed": false,
                    "internalType": "uint256",
                    "name": "amount",
                    "type": "uint256"
                }
            ],
            "name": "ExtraFeeSupplied",
            "type": "event"
        },
        {
            "anonymous": false,
            "inputs": [
                {
                    "indexed": true,
                    "internalType": "address",
                    "name": "previousOwner",
                    "type": "address"
                },
                {
                    "indexed": true,
                    "internalType": "address",
                    "name": "newOwner",
                    "type": "address"
                }
            ],
            "name": "OwnershipTransferred",
            "type": "event"
        },
        {
            "anonymous": false,
            "inputs": [
                {
                    "indexed": false,
                    "internalType": "address",
                    "name": "account",
                    "type": "address"
                }
            ],
            "name": "Paused",
            "type": "event"
        },
        {
            "anonymous": false,
            "inputs": [
                {
                    "indexed": true,
                    "internalType": "bytes8",
                    "name": "originChainID",
                    "type": "bytes8"
                },
                {
                    "indexed": true,
                    "internalType": "bytes8",
                    "name": "destinationChainID",
                    "type": "bytes8"
                },
                {
                    "indexed": true,
                    "internalType": "address",
                    "name": "recipientAddress",
                    "type": "address"
                },
                {
                    "indexed": false,
                    "internalType": "uint256",
                    "name": "amount",
                    "type": "uint256"
                },
                {
                    "indexed": false,
                    "internalType": "uint64",
                    "name": "depositNonce",
                    "type": "uint64"
                },
                {
                    "indexed": false,
                    "internalType": "enum Bridge.ProposalStatus",
                    "name": "status",
                    "type": "uint8"
                },
                {
                    "indexed": false,
                    "internalType": "bytes32",
                    "name": "resourceID",
                    "type": "bytes32"
                },
                {
                    "indexed": false,
                    "internalType": "bytes32",
                    "name": "dataHash",
                    "type": "bytes32"
                }
            ],
            "name": "ProposalEvent",
            "type": "event"
        },
        {
            "anonymous": false,
            "inputs": [
                {
                    "indexed": false,
                    "internalType": "address",
                    "name": "account",
                    "type": "address"
                }
            ],
            "name": "Unpaused",
            "type": "event"
        },
        {
            "inputs": [],
            "name": "_backendSrvAddress",
            "outputs": [
                {
                    "internalType": "address",
                    "name": "",
                    "type": "address"
                }
            ],
            "stateMutability": "view",
            "type": "function"
        },
        {
            "inputs": [],
            "name": "_chainID",
            "outputs": [
                {
                    "internalType": "bytes8",
                    "name": "",
                    "type": "bytes8"
                }
            ],
            "stateMutability": "view",
            "type": "function"
        },
        {
            "inputs": [
                {
                    "internalType": "bytes8",
                    "name": "",
                    "type": "bytes8"
                }
            ],
            "name": "_depositCounts",
            "outputs": [
                {
                    "internalType": "uint64",
                    "name": "",
                    "type": "uint64"
                }
            ],
            "stateMutability": "view",
            "type": "function"
        },
        {
            "inputs": [
                {
                    "internalType": "uint64",
                    "name": "",
                    "type": "uint64"
                },
                {
                    "internalType": "bytes8",
                    "name": "",
                    "type": "bytes8"
                }
            ],
            "name": "_depositRecords",
            "outputs": [
                {
                    "internalType": "bytes",
                    "name": "",
                    "type": "bytes"
                }
            ],
            "stateMutability": "view",
            "type": "function"
        },
        {
            "inputs": [
                {
                    "internalType": "bytes32",
                    "name": "",
                    "type": "bytes32"
                },
                {
                    "internalType": "bytes32",
                    "name": "",
                    "type": "bytes32"
                }
            ],
            "name": "_executedProposals",
            "outputs": [
                {
                    "internalType": "bool",
                    "name": "",
                    "type": "bool"
                }
            ],
            "stateMutability": "view",
            "type": "function"
        },
        {
            "inputs": [],
            "name": "_fee",
            "outputs": [
                {
                    "internalType": "uint256",
                    "name": "",
                    "type": "uint256"
                }
            ],
            "stateMutability": "view",
            "type": "function"
        },
        {
            "inputs": [],
            "name": "_nativeResourceID",
            "outputs": [
                {
                    "internalType": "bytes32",
                    "name": "",
                    "type": "bytes32"
                }
            ],
            "stateMutability": "view",
            "type": "function"
        },
        {
            "inputs": [
                {
                    "internalType": "bytes32",
                    "name": "",
                    "type": "bytes32"
                }
            ],
            "name": "_resourceIDToHandlerAddress",
            "outputs": [
                {
                    "internalType": "address",
                    "name": "",
                    "type": "address"
                }
            ],
            "stateMutability": "view",
            "type": "function"
        },
        {
            "inputs": [
                {
                    "internalType": "bytes32",
                    "name": "resourceIDOwner",
                    "type": "bytes32"
                },
                {
                    "internalType": "bytes32",
                    "name": "resourceIDSpender",
                    "type": "bytes32"
                },
                {
                    "internalType": "uint256",
                    "name": "amountOrTokenID",
                    "type": "uint256"
                }
            ],
            "name": "adminApprove",
            "outputs": [],
            "stateMutability": "nonpayable",
            "type": "function"
        },
        {
            "inputs": [
                {
                    "internalType": "uint256",
                    "name": "newFee",
                    "type": "uint256"
                }
            ],
            "name": "adminChangeFee",
            "outputs": [],
            "stateMutability": "nonpayable",
            "type": "function"
        },
        {
            "inputs": [
                {
                    "internalType": "address payable",
                    "name": "recipient",
                    "type": "address"
                },
                {
                    "internalType": "uint256",
                    "name": "amount",
                    "type": "uint256"
                }
            ],
            "name": "adminCollectFees",
            "outputs": [],
            "stateMutability": "nonpayable",
            "type": "function"
        },
        {
            "inputs": [],
            "name": "adminPauseTransfers",
            "outputs": [],
            "stateMutability": "nonpayable",
            "type": "function"
        },
        {
            "inputs": [
                {
                    "internalType": "address",
                    "name": "newBackendSrv",
                    "type": "address"
                }
            ],
            "name": "adminSetBackendSrv",
            "outputs": [],
            "stateMutability": "nonpayable",
            "type": "function"
        },
        {
            "inputs": [
                {
                    "internalType": "address",
                    "name": "handlerAddress",
                    "type": "address"
                },
                {
                    "internalType": "address",
                    "name": "tokenAddress",
                    "type": "address"
                }
            ],
            "name": "adminSetBurnable",
            "outputs": [],
            "stateMutability": "nonpayable",
            "type": "function"
        },
        {
            "inputs": [
                {
                    "internalType": "bytes32",
                    "name": "resourceID",
                    "type": "bytes32"
                }
            ],
            "name": "adminSetNativeResourceID",
            "outputs": [],
            "stateMutability": "nonpayable",
            "type": "function"
        },
        {
            "inputs": [
                {
                    "internalType": "address",
                    "name": "handlerAddress",
                    "type": "address"
                },
                {
                    "internalType": "bytes32",
                    "name": "resourceID",
                    "type": "bytes32"
                },
                {
                    "internalType": "address",
                    "name": "tokenAddress",
                    "type": "address"
                }
            ],
            "name": "adminSetResource",
            "outputs": [],
            "stateMutability": "nonpayable",
            "type": "function"
        },
        {
            "inputs": [],
            "name": "adminUnpauseTransfers",
            "outputs": [],
            "stateMutability": "nonpayable",
            "type": "function"
        },
        {
            "inputs": [
                {
                    "internalType": "address",
                    "name": "handlerAddress",
                    "type": "address"
                },
                {
                    "internalType": "address",
                    "name": "tokenAddress",
                    "type": "address"
                },
                {
                    "internalType": "address",
                    "name": "recipient",
                    "type": "address"
                },
                {
                    "internalType": "uint256",
                    "name": "amountOrTokenID",
                    "type": "uint256"
                }
            ],
            "name": "adminWithdraw",
            "outputs": [],
            "stateMutability": "nonpayable",
            "type": "function"
        },
        {
            "inputs": [
                {
                    "internalType": "bytes8",
                    "name": "destinationChainID",
                    "type": "bytes8"
                },
                {
                    "internalType": "bytes32",
                    "name": "resourceID",
                    "type": "bytes32"
                },
                {
                    "internalType": "uint256",
                    "name": "amount",
                    "type": "uint256"
                },
                {
                    "internalType": "address",
                    "name": "recipientAddress",
                    "type": "address"
                },
                {
                    "internalType": "uint256",
                    "name": "amountToLA",
                    "type": "uint256"
                },
                {
                    "internalType": "bytes",
                    "name": "params",
                    "type": "bytes"
                }
            ],
            "name": "deposit",
            "outputs": [],
            "stateMutability": "payable",
            "type": "function"
        },
        {
            "inputs": [],
            "name": "depositFunds",
            "outputs": [],
            "stateMutability": "payable",
            "type": "function"
        },
        {
            "inputs": [
                {
                    "internalType": "bytes8",
                    "name": "originChainID",
                    "type": "bytes8"
                },
                {
                    "internalType": "bytes8",
                    "name": "destinationChainID",
                    "type": "bytes8"
                },
                {
                    "internalType": "uint64",
                    "name": "depositNonce",
                    "type": "uint64"
                },
                {
                    "internalType": "bytes32",
                    "name": "resourceID",
                    "type": "bytes32"
                },
                {
                    "internalType": "address payable",
                    "name": "recipientAddress",
                    "type": "address"
                },
                {
                    "internalType": "uint256",
                    "name": "amount",
                    "type": "uint256"
                },
                {
                    "internalType": "bytes",
                    "name": "params",
                    "type": "bytes"
                }
            ],
            "name": "executeProposal",
            "outputs": [],
            "stateMutability": "nonpayable",
            "type": "function"
        },
        {
            "inputs": [
                {
                    "internalType": "address",
                    "name": "",
                    "type": "address"
                }
            ],
            "name": "handlers",
            "outputs": [
                {
                    "internalType": "bool",
                    "name": "",
                    "type": "bool"
                }
            ],
            "stateMutability": "view",
            "type": "function"
        },
        {
            "inputs": [
                {
                    "internalType": "bytes8",
                    "name": "chainID",
                    "type": "bytes8"
                },
                {
                    "internalType": "uint256",
                    "name": "fee",
                    "type": "uint256"
                },
                {
                    "internalType": "address",
                    "name": "initBackendSrvAddress",
                    "type": "address"
                }
            ],
            "name": "initialize",
            "outputs": [],
            "stateMutability": "nonpayable",
            "type": "function"
        },
        {
            "inputs": [
                {
                    "internalType": "bytes8",
                    "name": "destinationChainID",
                    "type": "bytes8"
                },
                {
                    "internalType": "bytes32",
                    "name": "resourceID",
                    "type": "bytes32"
                },
                {
                    "internalType": "uint256",
                    "name": "amount",
                    "type": "uint256"
                },
                {
                    "internalType": "address",
                    "name": "recipientAddress",
                    "type": "address"
                }
            ],
            "name": "internalDeposit",
            "outputs": [],
            "stateMutability": "nonpayable",
            "type": "function"
        },
        {
            "inputs": [
                {
                    "internalType": "address",
                    "name": "owner",
                    "type": "address"
                }
            ],
            "name": "ownableInit",
            "outputs": [],
            "stateMutability": "nonpayable",
            "type": "function"
        },
        {
            "inputs": [],
            "name": "owner",
            "outputs": [
                {
                    "internalType": "address",
                    "name": "",
                    "type": "address"
                }
            ],
            "stateMutability": "view",
            "type": "function"
        },
        {
            "inputs": [],
            "name": "paused",
            "outputs": [
                {
                    "internalType": "bool",
                    "name": "",
                    "type": "bool"
                }
            ],
            "stateMutability": "view",
            "type": "function"
        },
        {
            "inputs": [],
            "name": "renounceOwnership",
            "outputs": [],
            "stateMutability": "nonpayable",
            "type": "function"
        },
        {
            "inputs": [
                {
                    "internalType": "address",
                    "name": "_handler",
                    "type": "address"
                },
                {
                    "internalType": "bool",
                    "name": "value",
                    "type": "bool"
                }
            ],
            "name": "setHandler",
            "outputs": [],
            "stateMutability": "nonpayable",
            "type": "function"
        },
        {
            "inputs": [
                {
                    "internalType": "uint256",
                    "name": "a",
                    "type": "uint256"
                },
                {
                    "internalType": "uint256",
                    "name": "b",
                    "type": "uint256"
                }
            ],
            "name": "sub",
            "outputs": [
                {
                    "internalType": "uint256",
                    "name": "",
                    "type": "uint256"
                }
            ],
            "stateMutability": "pure",
            "type": "function"
        },
        {
            "inputs": [
                {
                    "internalType": "address",
                    "name": "newOwner",
                    "type": "address"
                }
            ],
            "name": "transferOwnership",
            "outputs": [],
            "stateMutability": "nonpayable",
            "type": "function"
        }
    ],
    "bytecode": "608060405234801561001057600080fd5b50612265806100206000396000f3fe6080604052600436106101d85760003560e01c806391c404ac11610102578063beab713111610095578063e4e21fce11610064578063e4e21fce14610526578063ea439b2b14610539578063f2fde38b14610559578063ffaac0eb14610579576101d8565b8063beab7131146104c7578063c5b37c22146104e9578063cb10f215146104fe578063e2c41dbc1461051e576101d8565b8063a21b952e116100d1578063a21b952e14610438578063a2b5b6541461045a578063a48ace381461047a578063b67d77c5146104a7576101d8565b806391c404ac146103b857806392c6ecf2146103d85780639c1650e0146103f85780639cb7de4b14610418576101d8565b80637f5d6a5e1161017a5780638d225943116101495780638d225943146103435780638da5cb5b146103635780638e0747be146103785780638ece6f2714610398576101d8565b80637f5d6a5e146102cc57806380ae1c28146102ee57806384db809f146103035780638c0c263114610323576101d8565b80635c975abb116101b65780635c975abb14610262578063715018a614610277578063780cf0041461028c5780637a7eed77146102ac576101d8565b806306f3640b146101dd578063174e300b146101ff5780631a21c0bc14610235575b600080fd5b3480156101e957600080fd5b506101fd6101f83660046118cf565b61058e565b005b34801561020b57600080fd5b5061021f61021a366004611a97565b6105f8565b60405161022c91906121c2565b60405180910390f35b34801561024157600080fd5b506102556102503660046118cf565b610613565b60405161022c9190611d12565b34801561026e57600080fd5b50610255610628565b34801561028357600080fd5b506101fd610632565b34801561029857600080fd5b506101fd6102a7366004611971565b6106c0565b3480156102b857600080fd5b506101fd6102c736600461190e565b61076a565b3480156102d857600080fd5b506102e16107f9565b60405161022c9190611cda565b3480156102fa57600080fd5b506101fd610808565b34801561030f57600080fd5b506102e161031e366004611a33565b610851565b34801561032f57600080fd5b506101fd61033e366004611939565b61086c565b34801561034f57600080fd5b506101fd61035e366004611b7f565b610910565b34801561036f57600080fd5b506102e1610b89565b34801561038457600080fd5b506101fd610393366004611a6c565b610b9d565b3480156103a457600080fd5b506101fd6103b3366004611ab3565b610cb2565b3480156103c457600080fd5b506101fd6103d3366004611a33565b610eba565b3480156103e457600080fd5b506101fd6103f3366004611c1a565b610f20565b34801561040457600080fd5b50610255610413366004611a4b565b610f6e565b34801561042457600080fd5b506101fd6104333660046119c1565b610f8e565b34801561044457600080fd5b5061044d610ff8565b60405161022c9190611d1d565b34801561046657600080fd5b506101fd610475366004611a33565b610ffe565b34801561048657600080fd5b5061049a610495366004611c39565b611042565b60405161022c9190611ebc565b3480156104b357600080fd5b5061044d6104c2366004611a4b565b6110e6565b3480156104d357600080fd5b506104dc611131565b60405161022c9190611e1d565b3480156104f557600080fd5b5061044d611141565b34801561050a57600080fd5b506101fd6105193660046119f2565b611147565b6101fd61120f565b6101fd610534366004611afc565b61124e565b34801561054557600080fd5b506101fd6105543660046118cf565b61151b565b34801561056557600080fd5b506101fd6105743660046118cf565b611593565b34801561058557600080fd5b506101fd61164b565b610596611692565b6001600160a01b03166105a7610b89565b6001600160a01b0316146105d65760405162461bcd60e51b81526004016105cd906120bd565b60405180910390fd5b600280546001600160a01b0319166001600160a01b0392909216919091179055565b6004602052600090815260409020546001600160401b031681565b60086020526000908152604090205460ff1681565b60005460ff165b90565b61063a611692565b6001600160a01b031661064b610b89565b6001600160a01b0316146106715760405162461bcd60e51b81526004016105cd906120bd565b600080546040516101009091046001600160a01b0316907f8be0079c531659141344cd1fd0a4f28419497f9722a3daafe3b4186f6b6457e0908390a360008054610100600160a81b0319169055565b6106c8611692565b6001600160a01b03166106d9610b89565b6001600160a01b0316146106ff5760405162461bcd60e51b81526004016105cd906120bd565b604051636ce5768960e11b815284906001600160a01b0382169063d9caed129061073190879087908790600401611cee565b600060405180830381600087803b15801561074b57600080fd5b505af115801561075f573d6000803e3d6000fd5b505050505050505050565b610772611692565b6001600160a01b0316610783610b89565b6001600160a01b0316146107a95760405162461bcd60e51b81526004016105cd906120bd565b60004782106107b857476107ba565b815b6040519091506001600160a01b0384169082156108fc029083906000818181858888f193505050501580156107f3573d6000803e3d6000fd5b50505050565b6002546001600160a01b031681565b610810611692565b6001600160a01b0316610821610b89565b6001600160a01b0316146108475760405162461bcd60e51b81526004016105cd906120bd565b61084f611696565b565b6005602052600090815260409020546001600160a01b031681565b610874611692565b6001600160a01b0316610885610b89565b6001600160a01b0316146108ab5760405162461bcd60e51b81526004016105cd906120bd565b6040516307b7ed9960e01b815282906001600160a01b038216906307b7ed99906108d9908590600401611cda565b600060405180830381600087803b1580156108f357600080fd5b505af1158015610907573d6000803e3d6000fd5b50505050505050565b6109186116e5565b61092061170f565b60608385604051602001610935929190611d26565b60405160208183030381529060405290506000878a8a60405160200161095d939291906121d6565b6040516020818303038152906040528051906020012090506000878360405160200161098a929190611dfc565b60408051601f19818403018152918152815160209283012060008581526007845282812082825290935291205490915060ff16156109da5760405162461bcd60e51b81526004016105cd9061214f565b6000546001600160c01b03198b8116600160b01b90920460c01b1614610a125760405162461bcd60e51b81526004016105cd90612124565b60008281526007602090815260408083208484529091529020805460ff19166001179055600354881415610a7c576040516001600160a01b0388169087156108fc029088906000818181858888f19350505050158015610a76573d6000803e3d6000fd5b50610b1c565b6000888152600560205260409020546001600160a01b031680610ab15760405162461bcd60e51b81526004016105cd90611fab565b60405163728e218f60e01b815281906001600160a01b0382169063728e218f90610ae7908d908d908d908d908d90600401611d3d565b600060405180830381600087803b158015610b0157600080fd5b505af1158015610b15573d6000803e3d6000fd5b5050505050505b866001600160a01b03168a6001600160c01b0319168c6001600160c01b0319167f9686dcabd0450cad86a88df15a9d35b08b35d1b08a19008df37cf8538c467516898d60038e88604051610b74959493929190612186565b60405180910390a45050505050505050505050565b60005461010090046001600160a01b031690565b610ba5611692565b6001600160a01b0316610bb6610b89565b6001600160a01b031614610bdc5760405162461bcd60e51b81526004016105cd906120bd565b6000838152600560205260409020546001600160a01b031680610c115760405162461bcd60e51b81526004016105cd90612041565b6000838152600560205260409020546001600160a01b031680610c465760405162461bcd60e51b81526004016105cd90611f2d565b60405163bf1ed1eb60e01b815282906001600160a01b0382169063bf1ed1eb90610c7890899086908990600401611d76565b600060405180830381600087803b158015610c9257600080fd5b505af1158015610ca6573d6000803e3d6000fd5b50505050505050505050565b610cba61170f565b3360009081526008602052604090205460ff16610ce95760405162461bcd60e51b81526004016105cd90611fe0565b6001600160c01b03198416600090815260046020908152604091829020805467ffffffffffffffff19811660016001600160401b0392831601918216179091559151606091610d3c918691869101611d26565b604051602081830303815290604052905060008582604051602001610d62929190611dfc565b60408051601f1981840301815291815281516020928301206001600160401b0386166000908152600684528281206001600160c01b03198c1682528452919091208451919350610db7929091908501906117c2565b5060008681526005602052604080822054905163029e8fed60e61b81526001600160a01b039091169190829063a7a3fb4090610df7908b90600401611d1d565b60206040518083038186803b158015610e0f57600080fd5b505afa158015610e23573d6000803e3d6000fd5b505050506040513d601f19601f82011682018060405250810190610e4791906118f2565b9050846001600160401b0316888a6001600160c01b0319167f370525803ffa9a7c0e6adb3868e393dca45d8b42b2f62fd1f23ecfe99f6ce8fc600060169054906101000a900460c01b338b878e8b604051610ea796959493929190611e32565b60405180910390a4505050505050505050565b610ec2611692565b6001600160a01b0316610ed3610b89565b6001600160a01b031614610ef95760405162461bcd60e51b81526004016105cd906120bd565b806001541415610f1b5760405162461bcd60e51b81526004016105cd906120ed565b600155565b6000805467ffffffffffffffff60b01b1916600160b01b60c086901c021790556001829055600280546001600160a01b0319166001600160a01b038316179055610f693361151b565b505050565b600760209081526000928352604080842090915290825290205460ff1681565b610f96611692565b6001600160a01b0316610fa7610b89565b6001600160a01b031614610fcd5760405162461bcd60e51b81526004016105cd906120bd565b6001600160a01b03919091166000908152600860205260409020805460ff1916911515919091179055565b60035481565b611006611692565b6001600160a01b0316611017610b89565b6001600160a01b03161461103d5760405162461bcd60e51b81526004016105cd906120bd565b600355565b60066020908152600092835260408084208252918352918190208054825160026001831615610100026000190190921691909104601f8101859004850282018501909352828152929091908301828280156110de5780601f106110b3576101008083540402835291602001916110de565b820191906000526020600020905b8154815290600101906020018083116110c157829003601f168201915b505050505081565b600061112883836040518060400160405280601e81526020017f536166654d6174683a207375627472616374696f6e206f766572666c6f770000815250611732565b90505b92915050565b600054600160b01b900460c01b81565b60015481565b61114f611692565b6001600160a01b0316611160610b89565b6001600160a01b0316146111865760405162461bcd60e51b81526004016105cd906120bd565b6000828152600560205260409081902080546001600160a01b0319166001600160a01b0386169081179091559051635c7d1b9b60e11b815284919063b8fa3736906111d79086908690600401611d26565b600060405180830381600087803b1580156111f157600080fd5b505af1158015611205573d6000803e3d6000fd5b5050505050505050565b611217611692565b6001600160a01b0316611228610b89565b6001600160a01b03161461084f5760405162461bcd60e51b81526004016105cd906120bd565b61125661170f565b6001600160c01b03198716600090815260046020908152604091829020805467ffffffffffffffff19811660016001600160401b03928316019182161790915591516060916112a9918991899101611d26565b6040516020818303038152906040529050600088826040516020016112cf929190611dfc565b60408051601f1981840301815291815281516020928301206001600160401b0386166000908152600684528281206001600160c01b03198f1682528452919091208451919350611324929091908501906117c2565b50600354600090898801908b141561136357600154810134101561135a5760405162461bcd60e51b81526004016105cd90612086565b6000915061144a565b6001543410156113855760405162461bcd60e51b81526004016105cd90611efd565b60008b8152600560205260409020546001600160a01b0316806113ba5760405162461bcd60e51b81526004016105cd90611fab565b806001600160a01b03166375cd9cce8d8f89338f888f8f6040518963ffffffff1660e01b81526004016113f4989796959493929190611d95565b602060405180830381600087803b15801561140e57600080fd5b505af1158015611422573d6000803e3d6000fd5b505050506040513d601f19601f8201168201806040525081019061144691906118f2565b9250505b87156114a1577f525223e7c9e63747e47dd4558940766054da3d0378f4006848d2a201545f55a4600060169054906101000a900460c01b8d878e8d8d60405161149896959493929190611e73565b60405180910390a15b60008a9050856001600160401b03168c8e6001600160c01b0319167f370525803ffa9a7c0e6adb3868e393dca45d8b42b2f62fd1f23ecfe99f6ce8fc600060169054906101000a900460c01b338f89888c60405161150496959493929190611e32565b60405180910390a450505050505050505050505050565b600054600160a81b900460ff161561153257600080fd5b6000805460ff60a81b196001600160a01b0384166101008102610100600160a81b03199093169290921716600160a81b1782556040519091907f8be0079c531659141344cd1fd0a4f28419497f9722a3daafe3b4186f6b6457e0908290a350565b61159b611692565b6001600160a01b03166115ac610b89565b6001600160a01b0316146115d25760405162461bcd60e51b81526004016105cd906120bd565b6001600160a01b0381166115e557600080fd5b600080546040516001600160a01b038085169361010090930416917f8be0079c531659141344cd1fd0a4f28419497f9722a3daafe3b4186f6b6457e091a3600080546001600160a01b0390921661010002610100600160a81b0319909216919091179055565b611653611692565b6001600160a01b0316611664610b89565b6001600160a01b03161461168a5760405162461bcd60e51b81526004016105cd906120bd565b61084f61175e565b3390565b61169e61170f565b6000805460ff191660011790556040517f62e78cea01bee320cd4e420270b5ea74000d11b0c9f74754ebdbfc544b05a258906116db903390611cda565b60405180910390a1565b6002546001600160a01b0316331461084f5760405162461bcd60e51b81526004016105cd90611f74565b60005460ff161561084f5760405162461bcd60e51b81526004016105cd90612017565b600081848411156117565760405162461bcd60e51b81526004016105cd9190611ebc565b505050900390565b6117666117a0565b6000805460ff191690556040517f5db9ee0a495bf2e6ff9c91a7834c1ba4fdd244a5e8aa4e537bd38aeae4b073aa906116db903390611cda565b60005460ff1661084f5760405162461bcd60e51b81526004016105cd90611ecf565b828054600181600116156101000203166002900490600052602060002090601f016020900481019282601f1061180357805160ff1916838001178555611830565b82800160010185558215611830579182015b82811115611830578251825591602001919060010190611815565b5061183c929150611840565b5090565b61062f91905b8082111561183c5760008155600101611846565b80356001600160c01b03198116811461112b57600080fd5b60008083601f840112611883578182fd5b5081356001600160401b03811115611899578182fd5b6020830191508360208285010111156118b157600080fd5b9250929050565b80356001600160401b038116811461112b57600080fd5b6000602082840312156118e0578081fd5b81356118eb81612201565b9392505050565b600060208284031215611903578081fd5b81516118eb81612201565b60008060408385031215611920578081fd5b823561192b81612201565b946020939093013593505050565b6000806040838503121561194b578182fd5b823561195681612201565b9150602083013561196681612201565b809150509250929050565b60008060008060808587031215611986578182fd5b843561199181612201565b935060208501356119a181612201565b925060408501356119b181612201565b9396929550929360600135925050565b600080604083850312156119d3578182fd5b82356119de81612201565b915060208301358015158114611966578182fd5b600080600060608486031215611a06578283fd5b8335611a1181612201565b9250602084013591506040840135611a2881612201565b809150509250925092565b600060208284031215611a44578081fd5b5035919050565b60008060408385031215611a5d578182fd5b50508035926020909101359150565b600080600060608486031215611a80578283fd5b505081359360208301359350604090920135919050565b600060208284031215611aa8578081fd5b81356118eb81612219565b60008060008060808587031215611ac8578384fd5b8435611ad381612219565b935060208501359250604085013591506060850135611af181612201565b939692955090935050565b600080600080600080600060c0888a031215611b16578283fd5b8735611b2181612219565b965060208801359550604088013594506060880135611b3f81612201565b93506080880135925060a08801356001600160401b03811115611b60578283fd5b611b6c8a828b01611872565b989b979a50959850939692959293505050565b60008060008060008060008060e0898b031215611b9a578182fd5b611ba48a8a61185a565b9750611bb38a60208b0161185a565b9650611bc28a60408b016118b8565b9550606089013594506080890135611bd981612201565b935060a0890135925060c08901356001600160401b03811115611bfa578283fd5b611c068b828c01611872565b999c989b5096995094979396929594505050565b600080600060608486031215611c2e578081fd5b8335611a1181612219565b60008060408385031215611c4b578182fd5b611c5584846118b8565b9150602083013561196681612219565b60008284528282602086013780602084860101526020601f19601f85011685010190509392505050565b60008151808452815b81811015611cb457602081850181015186830182015201611c98565b81811115611cc55782602083870101525b50601f01601f19169290920160200192915050565b6001600160a01b0391909116815260200190565b6001600160a01b039384168152919092166020820152604081019190915260600190565b901515815260200190565b90815260200190565b9182526001600160a01b0316602082015260400190565b600086825260018060a01b038616602083015284604083015260806060830152611d6b608083018486611c65565b979650505050505050565b9283526001600160a01b03919091166020830152604082015260600190565b8881526001600160c01b0319881660208201526001600160401b03871660408201526001600160a01b0386811660608301528516608082015260a0810184905260e060c08201819052600090611dee9083018486611c65565b9a9950505050505050505050565b600083825260406020830152611e156040830184611c8f565b949350505050565b6001600160c01b031991909116815260200190565b6001600160c01b03199690961686526001600160a01b039485166020870152928416604086015292166060840152608083019190915260a082015260c00190565b6001600160c01b031996871681529490951660208501526001600160401b0392909216604084015260608301526001600160a01b0316608082015260a081019190915260c00190565b6000602082526111286020830184611c8f565b60208082526014908201527314185d5cd8589b194e881b9bdd081c185d5cd95960621b604082015260600190565b602080825260169082015275125b98dbdc9c9958dd08199959481cdd5c1c1b1a595960521b604082015260600190565b60208082526027908201527f7265736f7572636549445370656e646572206e6f74206d617070656420746f206040820152663430b7323632b960c91b606082015260800190565b6020808252601f908201527f73656e646572206973206e6f742061206261636b656e64207365727669636500604082015260600190565b6020808252818101527f7265736f757263654944206e6f74206d617070656420746f2068616e646c6572604082015260600190565b60208082526017908201527f73656e646572206973206e6f7420612068616e646c6572000000000000000000604082015260600190565b60208082526010908201526f14185d5cd8589b194e881c185d5cd95960821b604082015260600190565b60208082526025908201527f7265736f7572636549444f776e6572206e6f74206d617070656420746f20686160408201526437323632b960d91b606082015260800190565b6020808252601d908201527f496e636f7272656374206665652f616d6f756e7420737570706c696564000000604082015260600190565b60208082526016908201527539b2b73232b91039b437bab6321031329037bbb732b960511b604082015260600190565b6020808252601f908201527f43757272656e742066656520697320657175616c20746f206e65772066656500604082015260600190565b60208082526011908201527010da185a5b925108125b98dbdc9c9958dd607a1b604082015260600190565b60208082526019908201527f70726f706f73616c20616c726561647920657865637574656400000000000000604082015260600190565b8581526001600160401b038516602082015260a08101600585106121a657fe5b8460408301528360608301528260808301529695505050505050565b6001600160401b0391909116815260200190565b6001600160401b039390931683526001600160c01b0319918216602084015216604082015260600190565b6001600160a01b038116811461221657600080fd5b50565b6001600160c01b03198116811461221657600080fdfea2646970667358221220eff56f97aa401b42ebce87c182ab586032281aef843cd39838c2ee49700a8f2064736f6c63430006040033",
    "sourcePath": "c:/Users/Punit/Desktop/LaToken/ethereum-crosschain-contract/contracts/Bridge.sol",
    "compiler": {
        "name": "solc",
        "version": "0.6.4+commit.1dca32f3"
    },
    "functionHashes": {
        "_backendSrvAddress()": "7f5d6a5e",
        "_chainID()": "beab7131",
        "_depositCounts(bytes8)": "174e300b",
        "_depositRecords(uint64,bytes8)": "a48ace38",
        "_executedProposals(bytes32,bytes32)": "9c1650e0",
        "_fee()": "c5b37c22",
        "_nativeResourceID()": "a21b952e",
        "_resourceIDToHandlerAddress(bytes32)": "84db809f",
        "adminApprove(bytes32,bytes32,uint256)": "8e0747be",
        "adminChangeFee(uint256)": "91c404ac",
        "adminCollectFees(address,uint256)": "7a7eed77",
        "adminPauseTransfers()": "80ae1c28",
        "adminSetBackendSrv(address)": "06f3640b",
        "adminSetBurnable(address,address)": "8c0c2631",
        "adminSetNativeResourceID(bytes32)": "a2b5b654",
        "adminSetResource(address,bytes32,address)": "cb10f215",
        "adminUnpauseTransfers()": "ffaac0eb",
        "adminWithdraw(address,address,address,uint256)": "780cf004",
        "deposit(bytes8,bytes32,uint256,address,uint256,bytes)": "e4e21fce",
        "depositFunds()": "e2c41dbc",
        "executeProposal(bytes8,bytes8,uint64,bytes32,address,uint256,bytes)": "8d225943",
        "handlers(address)": "1a21c0bc",
        "initialize(bytes8,uint256,address)": "92c6ecf2",
        "internalDeposit(bytes8,bytes32,uint256,address)": "8ece6f27",
        "ownableInit(address)": "ea439b2b",
        "owner()": "8da5cb5b",
        "paused()": "5c975abb",
        "renounceOwnership()": "715018a6",
        "setHandler(address,bool)": "9cb7de4b",
        "sub(uint256,uint256)": "b67d77c5",
        "transferOwnership(address)": "f2fde38b"
    },
    "gasEstimates": {
        "creation": {
            "codeDepositCost": "1761000",
            "executionCost": "1855",
            "totalCost": "1762855"
        },
        "external": {
            "_backendSrvAddress()": "1116",
            "_chainID()": "1123",
            "_depositCounts(bytes8)": "1360",
            "_depositRecords(uint64,bytes8)": "infinite",
            "_executedProposals(bytes32,bytes32)": "1368",
            "_fee()": "1095",
            "_nativeResourceID()": "1073",
            "_resourceIDToHandlerAddress(bytes32)": "1303",
            "adminApprove(bytes32,bytes32,uint256)": "infinite",
            "adminChangeFee(uint256)": "22037",
            "adminCollectFees(address,uint256)": "infinite",
            "adminPauseTransfers()": "infinite",
            "adminSetBackendSrv(address)": "22153",
            "adminSetBurnable(address,address)": "infinite",
            "adminSetNativeResourceID(bytes32)": "21232",
            "adminSetResource(address,bytes32,address)": "infinite",
            "adminUnpauseTransfers()": "infinite",
            "adminWithdraw(address,address,address,uint256)": "infinite",
            "deposit(bytes8,bytes32,uint256,address,uint256,bytes)": "infinite",
            "depositFunds()": "1306",
            "executeProposal(bytes8,bytes8,uint64,bytes32,address,uint256,bytes)": "infinite",
            "handlers(address)": "1349",
            "initialize(bytes8,uint256,address)": "infinite",
            "internalDeposit(bytes8,bytes32,uint256,address)": "infinite",
            "ownableInit(address)": "23641",
            "owner()": "1148",
            "paused()": "1087",
            "renounceOwnership()": "24342",
            "setHandler(address,bool)": "22341",
            "sub(uint256,uint256)": "infinite",
            "transferOwnership(address)": "24605"
        },
        "internal": {
            "_onlyBackendSrv()": "infinite"
        }
    }
}