{
    "contractName": "AaveHandler",
    "abi": [
        {
            "inputs": [
                {
                    "internalType": "address",
                    "name": "bridgeAddress",
                    "type": "address"
                }
            ],
            "stateMutability": "nonpayable",
            "type": "constructor"
        },
        {
            "anonymous": false,
            "inputs": [
                {
                    "indexed": true,
                    "internalType": "address",
                    "name": "recipientAddress",
                    "type": "address"
                },
                {
                    "indexed": false,
                    "internalType": "uint256",
                    "name": "amount",
                    "type": "uint256"
                },
                {
                    "indexed": true,
                    "internalType": "bytes32",
                    "name": "resourceID",
                    "type": "bytes32"
                }
            ],
            "name": "AAVEDepositDone",
            "type": "event"
        },
        {
            "anonymous": false,
            "inputs": [
                {
                    "indexed": true,
                    "internalType": "address",
                    "name": "previousOwner",
                    "type": "address"
                },
                {
                    "indexed": true,
                    "internalType": "address",
                    "name": "newOwner",
                    "type": "address"
                }
            ],
            "name": "OwnershipTransferred",
            "type": "event"
        },
        {
            "inputs": [],
            "name": "AAVE_MUMBAI_LP_ADDR",
            "outputs": [
                {
                    "internalType": "address",
                    "name": "",
                    "type": "address"
                }
            ],
            "stateMutability": "view",
            "type": "function"
        },
        {
            "inputs": [],
            "name": "AAVE_POLYGON_LP_ADDR",
            "outputs": [
                {
                    "internalType": "address",
                    "name": "",
                    "type": "address"
                }
            ],
            "stateMutability": "view",
            "type": "function"
        },
        {
            "inputs": [],
            "name": "LACHAIN_ID",
            "outputs": [
                {
                    "internalType": "bytes8",
                    "name": "",
                    "type": "bytes8"
                }
            ],
            "stateMutability": "view",
            "type": "function"
        },
        {
            "inputs": [],
            "name": "LACHAIN_TESTNET_ID",
            "outputs": [
                {
                    "internalType": "bytes8",
                    "name": "",
                    "type": "bytes8"
                }
            ],
            "stateMutability": "view",
            "type": "function"
        },
        {
            "inputs": [],
            "name": "_bridgeAddress",
            "outputs": [
                {
                    "internalType": "address",
                    "name": "",
                    "type": "address"
                }
            ],
            "stateMutability": "view",
            "type": "function"
        },
        {
            "inputs": [
                {
                    "internalType": "address",
                    "name": "",
                    "type": "address"
                }
            ],
            "name": "_burnList",
            "outputs": [
                {
                    "internalType": "bool",
                    "name": "",
                    "type": "bool"
                }
            ],
            "stateMutability": "view",
            "type": "function"
        },
        {
            "inputs": [
                {
                    "internalType": "address",
                    "name": "",
                    "type": "address"
                }
            ],
            "name": "_contractWhitelist",
            "outputs": [
                {
                    "internalType": "bool",
                    "name": "",
                    "type": "bool"
                }
            ],
            "stateMutability": "view",
            "type": "function"
        },
        {
            "inputs": [
                {
                    "internalType": "bytes8",
                    "name": "",
                    "type": "bytes8"
                },
                {
                    "internalType": "uint64",
                    "name": "",
                    "type": "uint64"
                }
            ],
            "name": "_depositRecords",
            "outputs": [
                {
                    "internalType": "address",
                    "name": "_tokenAddress",
                    "type": "address"
                },
                {
                    "internalType": "bytes8",
                    "name": "_destinationChainID",
                    "type": "bytes8"
                },
                {
                    "internalType": "bytes32",
                    "name": "_resourceID",
                    "type": "bytes32"
                },
                {
                    "internalType": "address",
                    "name": "_destinationRecipientAddress",
                    "type": "address"
                },
                {
                    "internalType": "address",
                    "name": "_depositer",
                    "type": "address"
                },
                {
                    "internalType": "uint256",
                    "name": "_amount",
                    "type": "uint256"
                }
            ],
            "stateMutability": "view",
            "type": "function"
        },
        {
            "inputs": [
                {
                    "internalType": "bytes32",
                    "name": "",
                    "type": "bytes32"
                }
            ],
            "name": "_resourceIDToTokenContractAddress",
            "outputs": [
                {
                    "internalType": "address",
                    "name": "",
                    "type": "address"
                }
            ],
            "stateMutability": "view",
            "type": "function"
        },
        {
            "inputs": [
                {
                    "internalType": "address",
                    "name": "",
                    "type": "address"
                }
            ],
            "name": "_tokenContractAddressToResourceID",
            "outputs": [
                {
                    "internalType": "bytes32",
                    "name": "",
                    "type": "bytes32"
                }
            ],
            "stateMutability": "view",
            "type": "function"
        },
        {
            "inputs": [
                {
                    "internalType": "bytes32",
                    "name": "",
                    "type": "bytes32"
                }
            ],
            "name": "aaveTokenResources",
            "outputs": [
                {
                    "internalType": "bytes32",
                    "name": "",
                    "type": "bytes32"
                }
            ],
            "stateMutability": "view",
            "type": "function"
        },
        {
            "inputs": [
                {
                    "internalType": "address",
                    "name": "newBridgeAddress",
                    "type": "address"
                }
            ],
            "name": "adminChangeBridgeAddress",
            "outputs": [],
            "stateMutability": "nonpayable",
            "type": "function"
        },
        {
            "inputs": [],
            "name": "amTokenHandler",
            "outputs": [
                {
                    "internalType": "address",
                    "name": "",
                    "type": "address"
                }
            ],
            "stateMutability": "view",
            "type": "function"
        },
        {
            "inputs": [
                {
                    "internalType": "bytes32",
                    "name": "resourceID",
                    "type": "bytes32"
                },
                {
                    "internalType": "address",
                    "name": "spender",
                    "type": "address"
                },
                {
                    "internalType": "uint256",
                    "name": "amountOrTokenID",
                    "type": "uint256"
                }
            ],
            "name": "approve",
            "outputs": [],
            "stateMutability": "nonpayable",
            "type": "function"
        },
        {
            "inputs": [
                {
                    "internalType": "bytes32",
                    "name": "resourceID",
                    "type": "bytes32"
                },
                {
                    "internalType": "bytes8",
                    "name": "destinationChainID",
                    "type": "bytes8"
                },
                {
                    "internalType": "uint64",
                    "name": "depositNonce",
                    "type": "uint64"
                },
                {
                    "internalType": "address",
                    "name": "depositer",
                    "type": "address"
                },
                {
                    "internalType": "address",
                    "name": "recipientAddress",
                    "type": "address"
                },
                {
                    "internalType": "uint256",
                    "name": "amount",
                    "type": "uint256"
                },
                {
                    "internalType": "bytes",
                    "name": "params",
                    "type": "bytes"
                }
            ],
            "name": "deposit",
            "outputs": [
                {
                    "internalType": "address",
                    "name": "",
                    "type": "address"
                }
            ],
            "stateMutability": "nonpayable",
            "type": "function"
        },
        {
            "inputs": [
                {
                    "internalType": "bytes32",
                    "name": "resourceID",
                    "type": "bytes32"
                },
                {
                    "internalType": "address",
                    "name": "recipientAddress",
                    "type": "address"
                },
                {
                    "internalType": "uint256",
                    "name": "amount",
                    "type": "uint256"
                },
                {
                    "internalType": "bytes",
                    "name": "params",
                    "type": "bytes"
                }
            ],
            "name": "executeProposal",
            "outputs": [],
            "stateMutability": "nonpayable",
            "type": "function"
        },
        {
            "inputs": [
                {
                    "internalType": "address",
                    "name": "tokenAddress",
                    "type": "address"
                },
                {
                    "internalType": "address",
                    "name": "owner",
                    "type": "address"
                },
                {
                    "internalType": "uint256",
                    "name": "amount",
                    "type": "uint256"
                }
            ],
            "name": "fundERC20",
            "outputs": [],
            "stateMutability": "nonpayable",
            "type": "function"
        },
        {
            "inputs": [
                {
                    "internalType": "bytes32",
                    "name": "resourceID",
                    "type": "bytes32"
                }
            ],
            "name": "getAddressFromResourceId",
            "outputs": [
                {
                    "internalType": "address",
                    "name": "",
                    "type": "address"
                }
            ],
            "stateMutability": "view",
            "type": "function"
        },
        {
            "inputs": [
                {
                    "internalType": "uint64",
                    "name": "depositNonce",
                    "type": "uint64"
                },
                {
                    "internalType": "bytes8",
                    "name": "destId",
                    "type": "bytes8"
                }
            ],
            "name": "getDepositRecord",
            "outputs": [
                {
                    "components": [
                        {
                            "internalType": "address",
                            "name": "_tokenAddress",
                            "type": "address"
                        },
                        {
                            "internalType": "bytes8",
                            "name": "_destinationChainID",
                            "type": "bytes8"
                        },
                        {
                            "internalType": "bytes32",
                            "name": "_resourceID",
                            "type": "bytes32"
                        },
                        {
                            "internalType": "address",
                            "name": "_destinationRecipientAddress",
                            "type": "address"
                        },
                        {
                            "internalType": "address",
                            "name": "_depositer",
                            "type": "address"
                        },
                        {
                            "internalType": "uint256",
                            "name": "_amount",
                            "type": "uint256"
                        }
                    ],
                    "internalType": "struct AaveHandler.DepositRecord",
                    "name": "",
                    "type": "tuple"
                }
            ],
            "stateMutability": "view",
            "type": "function"
        },
        {
            "inputs": [],
            "name": "owner",
            "outputs": [
                {
                    "internalType": "address",
                    "name": "",
                    "type": "address"
                }
            ],
            "stateMutability": "view",
            "type": "function"
        },
        {
            "inputs": [],
            "name": "renounceOwnership",
            "outputs": [],
            "stateMutability": "nonpayable",
            "type": "function"
        },
        {
            "inputs": [
                {
                    "internalType": "bytes32",
                    "name": "aaveTokenResourceId",
                    "type": "bytes32"
                },
                {
                    "internalType": "bytes32",
                    "name": "amTokenResourceId",
                    "type": "bytes32"
                }
            ],
            "name": "setAaveTokenResources",
            "outputs": [],
            "stateMutability": "nonpayable",
            "type": "function"
        },
        {
            "inputs": [
                {
                    "internalType": "address",
                    "name": "_amTokenHandler",
                    "type": "address"
                }
            ],
            "name": "setAmTokenHandler",
            "outputs": [],
            "stateMutability": "nonpayable",
            "type": "function"
        },
        {
            "inputs": [
                {
                    "internalType": "address",
                    "name": "contractAddress",
                    "type": "address"
                }
            ],
            "name": "setBurnable",
            "outputs": [],
            "stateMutability": "nonpayable",
            "type": "function"
        },
        {
            "inputs": [
                {
                    "internalType": "bytes32",
                    "name": "resourceID",
                    "type": "bytes32"
                },
                {
                    "internalType": "address",
                    "name": "contractAddress",
                    "type": "address"
                }
            ],
            "name": "setResource",
            "outputs": [],
            "stateMutability": "nonpayable",
            "type": "function"
        },
        {
            "inputs": [
                {
                    "internalType": "address",
                    "name": "newOwner",
                    "type": "address"
                }
            ],
            "name": "transferOwnership",
            "outputs": [],
            "stateMutability": "nonpayable",
            "type": "function"
        },
        {
            "inputs": [
                {
                    "internalType": "address",
                    "name": "tokenAddress",
                    "type": "address"
                },
                {
                    "internalType": "address",
                    "name": "recipient",
                    "type": "address"
                },
                {
                    "internalType": "uint256",
                    "name": "amount",
                    "type": "uint256"
                }
            ],
            "name": "withdraw",
            "outputs": [],
            "stateMutability": "nonpayable",
            "type": "function"
        }
    ],
    "bytecode": "608060405234801561001057600080fd5b506040516117a03803806117a083398101604081905261002f916100b9565b60006100426001600160e01b036100b516565b600580546001600160a01b0319166001600160a01b038316908117909155604051919250906000907f8be0079c531659141344cd1fd0a4f28419497f9722a3daafe3b4186f6b6457e0908290a350600080546001600160a01b0319166001600160a01b03929092169190911790556100e7565b3390565b6000602082840312156100ca578081fd5b81516001600160a01b03811681146100e0578182fd5b9392505050565b6116aa806100f66000396000f3fe608060405234801561001057600080fd5b50600436106101a95760003560e01c806378f6a94c116100f9578063b8fa373611610097578063d9caed1211610071578063d9caed1214610374578063dcde9b0214610387578063ec87b6c31461038f578063f2fde38b146103a2576101a9565b8063b8fa37361461033b578063bf1ed1eb1461034e578063c8ba6c8714610361576101a9565b80638da5cb5b116100d35780638da5cb5b1461030557806395601f091461030d578063a7a3fb4014610320578063b5dbbf7e14610333576101a9565b806378f6a94c146102ad5780637f79bea8146102d257806385aaf11a146102e5576101a9565b806334143cd7116101665780636a70d081116101405780636a70d0811461025f578063715018a61461027f578063728e218f1461028757806375cd9cce1461029a576101a9565b806334143cd7146102175780633c7c66111461023757806361af68841461024a576101a9565b806307b7ed99146101ae5780630a6d55d8146101c3578063292f3a68146101ec578063297d7c8a146101ff578063318c136e14610207578063338825661461020f575b600080fd5b6101c16101bc36600461101a565b6103b5565b005b6101d66101d136600461109c565b6103c9565b6040516101e391906112fe565b60405180910390f35b6101c16101fa36600461101a565b6103e4565b6101d661044e565b6101d661045d565b6101d661046c565b61022a610225366004611299565b610484565b6040516101e391906115f0565b6101c161024536600461101a565b61051f565b610252610580565b6040516101e391906113d5565b61027261026d36600461101a565b610588565b6040516101e391906113c1565b6101c161059d565b6101c1610295366004611118565b610626565b6101d66102a83660046111a1565b6108b3565b6102c06102bb36600461124c565b610ab4565b6040516101e396959493929190611336565b6102726102e036600461101a565b610b05565b6102f86102f336600461109c565b610b1a565b6040516101e391906113cc565b6101d6610b2c565b6101c161031b36600461103c565b610b3b565b6101d661032e36600461109c565b610b4e565b6101d6610b69565b6101c16103493660046110b4565b610b81565b6101c161035c3660046110e3565b610b97565b6102f861036f36600461101a565b610b9c565b6101c161038236600461103c565b610bae565b610252610bc1565b6101c161039d366004611180565b610bcc565b6101c16103b036600461101a565b610c1d565b6103bd610cde565b6103c681610d0a565b50565b6001602052600090815260409020546001600160a01b031681565b6103ec610d66565b6001600160a01b03166103fd610b2c565b6001600160a01b03161461042c5760405162461bcd60e51b815260040161042390611573565b60405180910390fd5b600080546001600160a01b0319166001600160a01b0392909216919091179055565b6006546001600160a01b031681565b6000546001600160a01b031681565b738dff5e27ea6b7ac08ebfdf9eb090f32ee9a30fcf81565b61048c610f6f565b506001600160c01b0319808216600090815260076020908152604080832067ffffffffffffffff87168452825291829020825160c0808201855282546001600160a01b038082168452600160a01b90910490911b90951692810192909252600181015492820192909252600282015483166060820152600382015490921660808301526004015460a08201525b92915050565b610527610d66565b6001600160a01b0316610538610b2c565b6001600160a01b03161461055e5760405162461bcd60e51b815260040161042390611573565b600680546001600160a01b0319166001600160a01b0392909216919091179055565b601960c01b81565b60046020526000908152604090205460ff1681565b6105a5610d66565b6001600160a01b03166105b6610b2c565b6001600160a01b0316146105dc5760405162461bcd60e51b815260040161042390611573565b6005546040516000916001600160a01b0316907f8be0079c531659141344cd1fd0a4f28419497f9722a3daafe3b4186f6b6457e0908390a3600580546001600160a01b0319169055565b61062e610cde565b600085815260016020526040908190205490516370a0823160e01b81526001600160a01b0390911690849082906370a082319061066f9030906004016112fe565b60206040518083038186803b15801561068757600080fd5b505afa15801561069b573d6000803e3d6000fd5b505050506040513d601f19601f820116820180604052508101906106bf9190611281565b10156106dd5760405162461bcd60e51b8152600401610423906114cc565b60405163095ea7b360e01b81526001600160a01b0382169063095ea7b39061071f90739198f13b08e299d85e096929fa9781a1e3d5d82790889060040161137b565b602060405180830381600087803b15801561073957600080fd5b505af115801561074d573d6000803e3d6000fd5b505050506040513d601f19601f82011682018060405250810190610771919061107c565b5060065460405163e8eda9df60e01b8152739198f13b08e299d85e096929fa9781a1e3d5d8279163e8eda9df916107bb91859189916001600160a01b031690600090600401611394565b600060405180830381600087803b1580156107d557600080fd5b505af11580156107e9573d6000803e3d6000fd5b5050600080548982526008602052604091829020549151638ece6f2760e01b81526001600160a01b039091169350638ece6f2792506108379163574c413160c01b9189908b906004016113ea565b600060405180830381600087803b15801561085157600080fd5b505af1158015610865573d6000803e3d6000fd5b5050505085856001600160a01b03167f698a295ff36ec63d21f46f551e6d36a1a9c019a6b0e0e6aa706ac0c739631ab3866040516108a391906113cc565b60405180910390a3505050505050565b60006108bd610cde565b6000898152600160209081526040808320546001600160a01b031680845260039092529091205460ff166109035760405162461bcd60e51b8152600401610423906115a8565b6001600160a01b03811660009081526004602052604090205460ff16156109345761092f818887610d6a565b610940565b61094081883088610dd2565b6040518060c00160405280826001600160a01b031681526020018a6001600160c01b03191681526020018b8152602001876001600160a01b03168152602001886001600160a01b0316815260200186815250600760008b6001600160c01b0319166001600160c01b031916815260200190815260200160002060008a67ffffffffffffffff1667ffffffffffffffff16815260200190815260200160002060008201518160000160006101000a8154816001600160a01b0302191690836001600160a01b0316021790555060208201518160000160146101000a81548167ffffffffffffffff021916908360c01c02179055506040820151816001015560608201518160020160006101000a8154816001600160a01b0302191690836001600160a01b0316021790555060808201518160030160006101000a8154816001600160a01b0302191690836001600160a01b0316021790555060a082015181600401559050508091505098975050505050505050565b6007602090815260009283526040808420909152908252902080546001820154600283015460038401546004909401546001600160a01b0380851695600160a01b90950460c01b9492811692169086565b60036020526000908152604090205460ff1681565b60086020526000908152604090205481565b6005546001600160a01b031690565b82610b4881843085610de6565b50505050565b6000908152600160205260409020546001600160a01b031690565b739198f13b08e299d85e096929fa9781a1e3d5d82781565b610b89610cde565b610b938282610e3e565b5050565b505050565b60026020526000908152604090205481565b610bb6610cde565b610b97838383610e8d565b63574c413160c01b81565b610bd4610d66565b6001600160a01b0316610be5610b2c565b6001600160a01b031614610c0b5760405162461bcd60e51b815260040161042390611573565b60009182526008602052604090912055565b610c25610d66565b6001600160a01b0316610c36610b2c565b6001600160a01b031614610c5c5760405162461bcd60e51b815260040161042390611573565b6001600160a01b038116610c825760405162461bcd60e51b815260040161042390611486565b6005546040516001600160a01b038084169216907f8be0079c531659141344cd1fd0a4f28419497f9722a3daafe3b4186f6b6457e090600090a3600580546001600160a01b0319166001600160a01b0392909216919091179055565b6000546001600160a01b03163314610d085760405162461bcd60e51b81526004016104239061144f565b565b6001600160a01b03811660009081526003602052604090205460ff16610d425760405162461bcd60e51b815260040161042390611503565b6001600160a01b03166000908152600460205260409020805460ff19166001179055565b3390565b60405163079cc67960e41b815283906001600160a01b038216906379cc679090610d9a908690869060040161137b565b600060405180830381600087803b158015610db457600080fd5b505af1158015610dc8573d6000803e3d6000fd5b5050505050505050565b83610ddf81858585610de6565b5050505050565b610b48846323b872dd60e01b858585604051602401610e0793929190611312565b60408051601f198184030181529190526020810180516001600160e01b03166001600160e01b031990931692909217909152610e99565b600082815260016020818152604080842080546001600160a01b039096166001600160a01b0319909616861790559383526002815283832094909455600390935220805460ff19169091179055565b82610b48818484610f50565b60006060836001600160a01b031683604051610eb591906112c5565b6000604051808303816000865af19150503d8060008114610ef2576040519150601f19603f3d011682016040523d82523d6000602084013e610ef7565b606091505b509150915081610f195760405162461bcd60e51b815260040161042390611547565b805115610b485780806020019051810190610f34919061107c565b610b485760405162461bcd60e51b81526004016104239061141a565b610b978363a9059cbb60e01b8484604051602401610e0792919061137b565b6040805160c081018252600080825260208201819052918101829052606081018290526080810182905260a081019190915290565b80356001600160a01b038116811461051957600080fd5b60008083601f840112610fcc578182fd5b50813567ffffffffffffffff811115610fe3578182fd5b602083019150836020828501011115610ffb57600080fd5b9250929050565b803567ffffffffffffffff8116811461051957600080fd5b60006020828403121561102b578081fd5b6110358383610fa4565b9392505050565b600080600060608486031215611050578182fd5b833561105b81611649565b9250602084013561106b81611649565b929592945050506040919091013590565b60006020828403121561108d578081fd5b81518015158114611035578182fd5b6000602082840312156110ad578081fd5b5035919050565b600080604083850312156110c6578182fd5b8235915060208301356110d881611649565b809150509250929050565b6000806000606084860312156110f7578283fd5b833592506111088560208601610fa4565b9150604084013590509250925092565b60008060008060006080868803121561112f578081fd5b85359450602086013561114181611649565b935060408601359250606086013567ffffffffffffffff811115611163578182fd5b61116f88828901610fbb565b969995985093965092949392505050565b60008060408385031215611192578182fd5b50508035926020909101359150565b60008060008060008060008060e0898b0312156111bc578283fd5b8835975060208901356111ce8161165e565b9650604089013567ffffffffffffffff80821682146111eb578485fd5b90965060608a0135906111fd82611649565b90955060808a01359061120f82611649565b90945060a08a0135935060c08a0135908082111561122b578384fd5b506112388b828c01610fbb565b999c989b5096995094979396929594505050565b6000806040838503121561125e578182fd5b82356112698161165e565b91506112788460208501611002565b90509250929050565b600060208284031215611292578081fd5b5051919050565b600080604083850312156112ab578182fd5b6112b58484611002565b915060208301356110d88161165e565b60008251815b818110156112e557602081860181015185830152016112cb565b818111156112f35782828501525b509190910192915050565b6001600160a01b0391909116815260200190565b6001600160a01b039384168152919092166020820152604081019190915260600190565b6001600160a01b0396871681526001600160c01b031995909516602086015260408501939093529084166060840152909216608082015260a081019190915260c00190565b6001600160a01b03929092168252602082015260400190565b6001600160a01b03948516815260208101939093529216604082015261ffff909116606082015260800190565b901515815260200190565b90815260200190565b6001600160c01b031991909116815260200190565b6001600160c01b0319949094168452602084019290925260408301526001600160a01b0316606082015260800190565b6020808252818101527f45524332303a206f7065726174696f6e20646964206e6f742073756363656564604082015260600190565b6020808252601e908201527f73656e646572206d7573742062652062726964676520636f6e74726163740000604082015260600190565b60208082526026908201527f4f776e61626c653a206e6577206f776e657220697320746865207a65726f206160408201526564647265737360d01b606082015260800190565b6020808252601c908201527f4e6f7420656e6f75676820616d6f756e7420746f206465706f73697400000000604082015260600190565b60208082526024908201527f70726f766964656420636f6e7472616374206973206e6f742077686974656c696040820152631cdd195960e21b606082015260800190565b602080825260129082015271115490cc8c0e8818d85b1b0819985a5b195960721b604082015260600190565b6020808252818101527f4f776e61626c653a2063616c6c6572206973206e6f7420746865206f776e6572604082015260600190565b60208082526028908201527f70726f766964656420746f6b656e41646472657373206973206e6f74207768696040820152671d195b1a5cdd195960c21b606082015260800190565b81516001600160a01b0390811682526020808401516001600160c01b03191690830152604080840151908301526060808401518216908301526080808401519091169082015260a0918201519181019190915260c00190565b6001600160a01b03811681146103c657600080fd5b6001600160c01b0319811681146103c657600080fdfea26469706673582212207a3590f0d8eb285b4cc9fd278f7b4b58be7a7e5aaead25e6854b1245bce933af64736f6c63430006040033",
    "sourcePath": "c:/Users/Punit/Desktop/LaToken/ethereum-crosschain-contract/contracts/handlers/AaveHandler.sol",
    "compiler": {
        "name": "solc",
        "version": "0.6.4+commit.1dca32f3"
    },
    "functionHashes": {
        "AAVE_MUMBAI_LP_ADDR()": "b5dbbf7e",
        "AAVE_POLYGON_LP_ADDR()": "33882566",
        "LACHAIN_ID()": "61af6884",
        "LACHAIN_TESTNET_ID()": "dcde9b02",
        "_bridgeAddress()": "318c136e",
        "_burnList(address)": "6a70d081",
        "_contractWhitelist(address)": "7f79bea8",
        "_depositRecords(bytes8,uint64)": "78f6a94c",
        "_resourceIDToTokenContractAddress(bytes32)": "0a6d55d8",
        "_tokenContractAddressToResourceID(address)": "c8ba6c87",
        "aaveTokenResources(bytes32)": "85aaf11a",
        "adminChangeBridgeAddress(address)": "292f3a68",
        "amTokenHandler()": "297d7c8a",
        "approve(bytes32,address,uint256)": "bf1ed1eb",
        "deposit(bytes32,bytes8,uint64,address,address,uint256,bytes)": "75cd9cce",
        "executeProposal(bytes32,address,uint256,bytes)": "728e218f",
        "fundERC20(address,address,uint256)": "95601f09",
        "getAddressFromResourceId(bytes32)": "a7a3fb40",
        "getDepositRecord(uint64,bytes8)": "34143cd7",
        "owner()": "8da5cb5b",
        "renounceOwnership()": "715018a6",
        "setAaveTokenResources(bytes32,bytes32)": "ec87b6c3",
        "setAmTokenHandler(address)": "3c7c6611",
        "setBurnable(address)": "07b7ed99",
        "setResource(bytes32,address)": "b8fa3736",
        "transferOwnership(address)": "f2fde38b",
        "withdraw(address,address,uint256)": "d9caed12"
    },
    "gasEstimates": {
        "creation": {
            "codeDepositCost": "1160400",
            "executionCost": "infinite",
            "totalCost": "infinite"
        },
        "external": {
            "AAVE_MUMBAI_LP_ADDR()": "363",
            "AAVE_POLYGON_LP_ADDR()": "386",
            "LACHAIN_ID()": "351",
            "LACHAIN_TESTNET_ID()": "327",
            "_bridgeAddress()": "1182",
            "_burnList(address)": "1314",
            "_contractWhitelist(address)": "1337",
            "_depositRecords(bytes8,uint64)": "4955",
            "_resourceIDToTokenContractAddress(bytes32)": "1259",
            "_tokenContractAddressToResourceID(address)": "1346",
            "aaveTokenResources(bytes32)": "1261",
            "adminChangeBridgeAddress(address)": "22174",
            "amTokenHandler()": "1160",
            "approve(bytes32,address,uint256)": "426",
            "deposit(bytes32,bytes8,uint64,address,address,uint256,bytes)": "infinite",
            "executeProposal(bytes32,address,uint256,bytes)": "infinite",
            "fundERC20(address,address,uint256)": "infinite",
            "getAddressFromResourceId(bytes32)": "1302",
            "getDepositRecord(uint64,bytes8)": "infinite",
            "owner()": "1115",
            "renounceOwnership()": "24319",
            "setAaveTokenResources(bytes32,bytes32)": "21334",
            "setAmTokenHandler(address)": "22174",
            "setBurnable(address)": "23042",
            "setResource(bytes32,address)": "63164",
            "transferOwnership(address)": "24605",
            "withdraw(address,address,uint256)": "infinite"
        }
    }
}