{
    "contractName": "AmTokenHandler",
    "abi": [
        {
            "inputs": [
                {
                    "internalType": "address",
                    "name": "bridgeAddress",
                    "type": "address"
                }
            ],
            "stateMutability": "nonpayable",
            "type": "constructor"
        },
        {
            "anonymous": false,
            "inputs": [
                {
                    "indexed": true,
                    "internalType": "address",
                    "name": "recipientAddress",
                    "type": "address"
                },
                {
                    "indexed": false,
                    "internalType": "uint256",
                    "name": "amount",
                    "type": "uint256"
                },
                {
                    "indexed": true,
                    "internalType": "bytes32",
                    "name": "resourceID",
                    "type": "bytes32"
                }
            ],
            "name": "AAVEWithdrawDone",
            "type": "event"
        },
        {
            "anonymous": false,
            "inputs": [
                {
                    "indexed": true,
                    "internalType": "address",
                    "name": "previousOwner",
                    "type": "address"
                },
                {
                    "indexed": true,
                    "internalType": "address",
                    "name": "newOwner",
                    "type": "address"
                }
            ],
            "name": "OwnershipTransferred",
            "type": "event"
        },
        {
            "inputs": [],
            "name": "AAVE_MUMBAI_LP_ADDR",
            "outputs": [
                {
                    "internalType": "address",
                    "name": "",
                    "type": "address"
                }
            ],
            "stateMutability": "view",
            "type": "function"
        },
        {
            "inputs": [],
            "name": "AAVE_POLYGON_LP_ADDR",
            "outputs": [
                {
                    "internalType": "address",
                    "name": "",
                    "type": "address"
                }
            ],
            "stateMutability": "view",
            "type": "function"
        },
        {
            "inputs": [],
            "name": "LACHAIN_ID",
            "outputs": [
                {
                    "internalType": "bytes8",
                    "name": "",
                    "type": "bytes8"
                }
            ],
            "stateMutability": "view",
            "type": "function"
        },
        {
            "inputs": [],
            "name": "LACHAIN_TESTNET_ID",
            "outputs": [
                {
                    "internalType": "bytes8",
                    "name": "",
                    "type": "bytes8"
                }
            ],
            "stateMutability": "view",
            "type": "function"
        },
        {
            "inputs": [],
            "name": "_bridgeAddress",
            "outputs": [
                {
                    "internalType": "address",
                    "name": "",
                    "type": "address"
                }
            ],
            "stateMutability": "view",
            "type": "function"
        },
        {
            "inputs": [
                {
                    "internalType": "address",
                    "name": "",
                    "type": "address"
                }
            ],
            "name": "_burnList",
            "outputs": [
                {
                    "internalType": "bool",
                    "name": "",
                    "type": "bool"
                }
            ],
            "stateMutability": "view",
            "type": "function"
        },
        {
            "inputs": [
                {
                    "internalType": "address",
                    "name": "",
                    "type": "address"
                }
            ],
            "name": "_contractWhitelist",
            "outputs": [
                {
                    "internalType": "bool",
                    "name": "",
                    "type": "bool"
                }
            ],
            "stateMutability": "view",
            "type": "function"
        },
        {
            "inputs": [
                {
                    "internalType": "bytes8",
                    "name": "",
                    "type": "bytes8"
                },
                {
                    "internalType": "uint64",
                    "name": "",
                    "type": "uint64"
                }
            ],
            "name": "_depositRecords",
            "outputs": [
                {
                    "internalType": "address",
                    "name": "_tokenAddress",
                    "type": "address"
                },
                {
                    "internalType": "bytes8",
                    "name": "_destinationChainID",
                    "type": "bytes8"
                },
                {
                    "internalType": "bytes32",
                    "name": "_resourceID",
                    "type": "bytes32"
                },
                {
                    "internalType": "address",
                    "name": "_destinationRecipientAddress",
                    "type": "address"
                },
                {
                    "internalType": "address",
                    "name": "_depositer",
                    "type": "address"
                },
                {
                    "internalType": "uint256",
                    "name": "_amount",
                    "type": "uint256"
                }
            ],
            "stateMutability": "view",
            "type": "function"
        },
        {
            "inputs": [
                {
                    "internalType": "bytes32",
                    "name": "",
                    "type": "bytes32"
                }
            ],
            "name": "_resourceIDToTokenContractAddress",
            "outputs": [
                {
                    "internalType": "address",
                    "name": "",
                    "type": "address"
                }
            ],
            "stateMutability": "view",
            "type": "function"
        },
        {
            "inputs": [
                {
                    "internalType": "address",
                    "name": "",
                    "type": "address"
                }
            ],
            "name": "_tokenContractAddressToResourceID",
            "outputs": [
                {
                    "internalType": "bytes32",
                    "name": "",
                    "type": "bytes32"
                }
            ],
            "stateMutability": "view",
            "type": "function"
        },
        {
            "inputs": [],
            "name": "aaveTokenHandler",
            "outputs": [
                {
                    "internalType": "address",
                    "name": "",
                    "type": "address"
                }
            ],
            "stateMutability": "view",
            "type": "function"
        },
        {
            "inputs": [
                {
                    "internalType": "address",
                    "name": "newBridgeAddress",
                    "type": "address"
                }
            ],
            "name": "adminChangeBridgeAddress",
            "outputs": [],
            "stateMutability": "nonpayable",
            "type": "function"
        },
        {
            "inputs": [
                {
                    "internalType": "bytes32",
                    "name": "",
                    "type": "bytes32"
                }
            ],
            "name": "amTokenResources",
            "outputs": [
                {
                    "internalType": "bytes32",
                    "name": "",
                    "type": "bytes32"
                }
            ],
            "stateMutability": "view",
            "type": "function"
        },
        {
            "inputs": [
                {
                    "internalType": "bytes32",
                    "name": "resourceID",
                    "type": "bytes32"
                },
                {
                    "internalType": "address",
                    "name": "spender",
                    "type": "address"
                },
                {
                    "internalType": "uint256",
                    "name": "amountOrTokenID",
                    "type": "uint256"
                }
            ],
            "name": "approve",
            "outputs": [],
            "stateMutability": "nonpayable",
            "type": "function"
        },
        {
            "inputs": [
                {
                    "internalType": "bytes32",
                    "name": "resourceID",
                    "type": "bytes32"
                },
                {
                    "internalType": "bytes8",
                    "name": "destinationChainID",
                    "type": "bytes8"
                },
                {
                    "internalType": "uint64",
                    "name": "depositNonce",
                    "type": "uint64"
                },
                {
                    "internalType": "address",
                    "name": "depositer",
                    "type": "address"
                },
                {
                    "internalType": "address",
                    "name": "recipientAddress",
                    "type": "address"
                },
                {
                    "internalType": "uint256",
                    "name": "amount",
                    "type": "uint256"
                },
                {
                    "internalType": "bytes",
                    "name": "params",
                    "type": "bytes"
                }
            ],
            "name": "deposit",
            "outputs": [
                {
                    "internalType": "address",
                    "name": "",
                    "type": "address"
                }
            ],
            "stateMutability": "nonpayable",
            "type": "function"
        },
        {
            "inputs": [
                {
                    "internalType": "bytes32",
                    "name": "resourceID",
                    "type": "bytes32"
                },
                {
                    "internalType": "address",
                    "name": "recipientAddress",
                    "type": "address"
                },
                {
                    "internalType": "uint256",
                    "name": "amount",
                    "type": "uint256"
                },
                {
                    "internalType": "bytes",
                    "name": "params",
                    "type": "bytes"
                }
            ],
            "name": "executeProposal",
            "outputs": [],
            "stateMutability": "nonpayable",
            "type": "function"
        },
        {
            "inputs": [
                {
                    "internalType": "address",
                    "name": "tokenAddress",
                    "type": "address"
                },
                {
                    "internalType": "address",
                    "name": "owner",
                    "type": "address"
                },
                {
                    "internalType": "uint256",
                    "name": "amount",
                    "type": "uint256"
                }
            ],
            "name": "fundERC20",
            "outputs": [],
            "stateMutability": "nonpayable",
            "type": "function"
        },
        {
            "inputs": [
                {
                    "internalType": "bytes32",
                    "name": "resourceID",
                    "type": "bytes32"
                }
            ],
            "name": "getAddressFromResourceId",
            "outputs": [
                {
                    "internalType": "address",
                    "name": "",
                    "type": "address"
                }
            ],
            "stateMutability": "view",
            "type": "function"
        },
        {
            "inputs": [
                {
                    "internalType": "uint64",
                    "name": "depositNonce",
                    "type": "uint64"
                },
                {
                    "internalType": "bytes8",
                    "name": "destId",
                    "type": "bytes8"
                }
            ],
            "name": "getDepositRecord",
            "outputs": [
                {
                    "components": [
                        {
                            "internalType": "address",
                            "name": "_tokenAddress",
                            "type": "address"
                        },
                        {
                            "internalType": "bytes8",
                            "name": "_destinationChainID",
                            "type": "bytes8"
                        },
                        {
                            "internalType": "bytes32",
                            "name": "_resourceID",
                            "type": "bytes32"
                        },
                        {
                            "internalType": "address",
                            "name": "_destinationRecipientAddress",
                            "type": "address"
                        },
                        {
                            "internalType": "address",
                            "name": "_depositer",
                            "type": "address"
                        },
                        {
                            "internalType": "uint256",
                            "name": "_amount",
                            "type": "uint256"
                        }
                    ],
                    "internalType": "struct AmTokenHandler.DepositRecord",
                    "name": "",
                    "type": "tuple"
                }
            ],
            "stateMutability": "view",
            "type": "function"
        },
        {
            "inputs": [],
            "name": "owner",
            "outputs": [
                {
                    "internalType": "address",
                    "name": "",
                    "type": "address"
                }
            ],
            "stateMutability": "view",
            "type": "function"
        },
        {
            "inputs": [],
            "name": "renounceOwnership",
            "outputs": [],
            "stateMutability": "nonpayable",
            "type": "function"
        },
        {
            "inputs": [
                {
                    "internalType": "address",
                    "name": "_aaveTokenHandler",
                    "type": "address"
                }
            ],
            "name": "setAaveTokenHandler",
            "outputs": [],
            "stateMutability": "nonpayable",
            "type": "function"
        },
        {
            "inputs": [
                {
                    "internalType": "bytes32",
                    "name": "aaveTokenResourceId",
                    "type": "bytes32"
                },
                {
                    "internalType": "bytes32",
                    "name": "amTokenResourceId",
                    "type": "bytes32"
                }
            ],
            "name": "setAmTokenResources",
            "outputs": [],
            "stateMutability": "nonpayable",
            "type": "function"
        },
        {
            "inputs": [
                {
                    "internalType": "address",
                    "name": "contractAddress",
                    "type": "address"
                }
            ],
            "name": "setBurnable",
            "outputs": [],
            "stateMutability": "nonpayable",
            "type": "function"
        },
        {
            "inputs": [
                {
                    "internalType": "bytes32",
                    "name": "resourceID",
                    "type": "bytes32"
                },
                {
                    "internalType": "address",
                    "name": "contractAddress",
                    "type": "address"
                }
            ],
            "name": "setResource",
            "outputs": [],
            "stateMutability": "nonpayable",
            "type": "function"
        },
        {
            "inputs": [
                {
                    "internalType": "address",
                    "name": "newOwner",
                    "type": "address"
                }
            ],
            "name": "transferOwnership",
            "outputs": [],
            "stateMutability": "nonpayable",
            "type": "function"
        },
        {
            "inputs": [
                {
                    "internalType": "address",
                    "name": "tokenAddress",
                    "type": "address"
                },
                {
                    "internalType": "address",
                    "name": "recipient",
                    "type": "address"
                },
                {
                    "internalType": "uint256",
                    "name": "amount",
                    "type": "uint256"
                }
            ],
            "name": "withdraw",
            "outputs": [],
            "stateMutability": "nonpayable",
            "type": "function"
        }
    ],
    "bytecode": "608060405234801561001057600080fd5b506040516117bb3803806117bb83398101604081905261002f916100b9565b60006100426001600160e01b036100b516565b600580546001600160a01b0319166001600160a01b038316908117909155604051919250906000907f8be0079c531659141344cd1fd0a4f28419497f9722a3daafe3b4186f6b6457e0908290a350600080546001600160a01b0319166001600160a01b03929092169190911790556100e7565b3390565b6000602082840312156100ca578081fd5b81516001600160a01b03811681146100e0578182fd5b9392505050565b6116c5806100f66000396000f3fe608060405234801561001057600080fd5b50600436106101a95760003560e01c80637f79bea8116100f9578063c8ba6c8711610097578063dcde9b0211610071578063dcde9b021461037f578063dfdfd76f14610387578063f10d91011461038f578063f2fde38b146103a2576101a9565b8063c8ba6c8714610339578063cd4187e114610359578063d9caed121461036c576101a9565b8063a7a3fb40116100d3578063a7a3fb40146102f8578063b5dbbf7e1461030b578063b8fa373614610313578063bf1ed1eb14610326576101a9565b80637f79bea8146102ca5780638da5cb5b146102dd57806395601f09146102e5576101a9565b80633cd8e38c11610166578063715018a611610140578063715018a614610277578063728e218f1461027f57806375cd9cce1461029257806378f6a94c146102a5576101a9565b80633cd8e38c1461022f57806361af6884146102425780636a70d08114610257576101a9565b806307b7ed99146101ae5780630a6d55d8146101c3578063292f3a68146101ec578063318c136e146101ff578063338825661461020757806334143cd71461020f575b600080fd5b6101c16101bc36600461103f565b6103b5565b005b6101d66101d13660046110c1565b6103c9565b6040516101e39190611323565b60405180910390f35b6101c16101fa36600461103f565b6103e4565b6101d661044e565b6101d661045d565b61022261021d3660046112be565b610475565b6040516101e3919061160b565b6101c161023d36600461103f565b610510565b61024a610571565b6040516101e391906113f0565b61026a61026536600461103f565b610579565b6040516101e391906113dc565b6101c161058e565b6101c161028d36600461113d565b610617565b6101d66102a03660046111c6565b6108c9565b6102b86102b3366004611271565b610aca565b6040516101e39695949392919061135b565b61026a6102d836600461103f565b610b1b565b6101d6610b30565b6101c16102f3366004611061565b610b3f565b6101d66103063660046110c1565b610b52565b6101d6610b6d565b6101c16103213660046110d9565b610b85565b6101c1610334366004611108565b610b9b565b61034c61034736600461103f565b610ba0565b6040516101e391906113e7565b6101c16103673660046111a5565b610bb2565b6101c161037a366004611061565b610c03565b61024a610c16565b6101d6610c21565b61034c61039d3660046110c1565b610c30565b6101c16103b036600461103f565b610c42565b6103bd610d03565b6103c681610d2f565b50565b6001602052600090815260409020546001600160a01b031681565b6103ec610d8b565b6001600160a01b03166103fd610b30565b6001600160a01b03161461042c5760405162461bcd60e51b81526004016104239061158e565b60405180910390fd5b600080546001600160a01b0319166001600160a01b0392909216919091179055565b6000546001600160a01b031681565b738dff5e27ea6b7ac08ebfdf9eb090f32ee9a30fcf81565b61047d610f94565b506001600160c01b0319808216600090815260076020908152604080832067ffffffffffffffff87168452825291829020825160c0808201855282546001600160a01b038082168452600160a01b90910490911b90951692810192909252600181015492820192909252600282015483166060820152600382015490921660808301526004015460a08201525b92915050565b610518610d8b565b6001600160a01b0316610529610b30565b6001600160a01b03161461054f5760405162461bcd60e51b81526004016104239061158e565b600680546001600160a01b0319166001600160a01b0392909216919091179055565b601960c01b81565b60046020526000908152604090205460ff1681565b610596610d8b565b6001600160a01b03166105a7610b30565b6001600160a01b0316146105cd5760405162461bcd60e51b81526004016104239061158e565b6005546040516000916001600160a01b0316907f8be0079c531659141344cd1fd0a4f28419497f9722a3daafe3b4186f6b6457e0908390a3600580546001600160a01b0319169055565b61061f610d03565b600085815260016020526040908190205490516370a0823160e01b81526001600160a01b0390911690849082906370a0823190610660903090600401611323565b60206040518083038186803b15801561067857600080fd5b505afa15801561068c573d6000803e3d6000fd5b505050506040513d601f19601f820116820180604052508101906106b091906112a6565b10156106ce5760405162461bcd60e51b8152600401610423906114e7565b60405163095ea7b360e01b81526001600160a01b0382169063095ea7b39061071090739198f13b08e299d85e096929fa9781a1e3d5d8279088906004016113a0565b602060405180830381600087803b15801561072a57600080fd5b505af115801561073e573d6000803e3d6000fd5b505050506040513d601f19601f8201168201806040525081019061076291906110a1565b50600654604051631a4ca37b60e21b8152600091739198f13b08e299d85e096929fa9781a1e3d5d827916369328dec916107ae9186918a916001600160a01b03909116906004016113b9565b602060405180830381600087803b1580156107c857600080fd5b505af11580156107dc573d6000803e3d6000fd5b505050506040513d601f19601f8201168201806040525081019061080091906112a6565b600080548982526008602052604091829020549151638ece6f2760e01b81529293506001600160a01b031691638ece6f279161084c9163574c413160c01b919086908c90600401611405565b600060405180830381600087803b15801561086657600080fd5b505af115801561087a573d6000803e3d6000fd5b5050505086866001600160a01b03167f04145427a3ba453ebcbe30a1dd826d3f5286b4a30ab93fb1a5b77b755a3229f8836040516108b891906113e7565b60405180910390a350505050505050565b60006108d3610d03565b6000898152600160209081526040808320546001600160a01b031680845260039092529091205460ff166109195760405162461bcd60e51b8152600401610423906115c3565b6001600160a01b03811660009081526004602052604090205460ff161561094a57610945818887610d8f565b610956565b61095681883088610df7565b6040518060c00160405280826001600160a01b031681526020018a6001600160c01b03191681526020018b8152602001876001600160a01b03168152602001886001600160a01b0316815260200186815250600760008b6001600160c01b0319166001600160c01b031916815260200190815260200160002060008a67ffffffffffffffff1667ffffffffffffffff16815260200190815260200160002060008201518160000160006101000a8154816001600160a01b0302191690836001600160a01b0316021790555060208201518160000160146101000a81548167ffffffffffffffff021916908360c01c02179055506040820151816001015560608201518160020160006101000a8154816001600160a01b0302191690836001600160a01b0316021790555060808201518160030160006101000a8154816001600160a01b0302191690836001600160a01b0316021790555060a082015181600401559050508091505098975050505050505050565b6007602090815260009283526040808420909152908252902080546001820154600283015460038401546004909401546001600160a01b0380851695600160a01b90950460c01b9492811692169086565b60036020526000908152604090205460ff1681565b6005546001600160a01b031690565b82610b4c81843085610e0b565b50505050565b6000908152600160205260409020546001600160a01b031690565b739198f13b08e299d85e096929fa9781a1e3d5d82781565b610b8d610d03565b610b978282610e63565b5050565b505050565b60026020526000908152604090205481565b610bba610d8b565b6001600160a01b0316610bcb610b30565b6001600160a01b031614610bf15760405162461bcd60e51b81526004016104239061158e565b60009182526008602052604090912055565b610c0b610d03565b610b9b838383610eb2565b63574c413160c01b81565b6006546001600160a01b031681565b60086020526000908152604090205481565b610c4a610d8b565b6001600160a01b0316610c5b610b30565b6001600160a01b031614610c815760405162461bcd60e51b81526004016104239061158e565b6001600160a01b038116610ca75760405162461bcd60e51b8152600401610423906114a1565b6005546040516001600160a01b038084169216907f8be0079c531659141344cd1fd0a4f28419497f9722a3daafe3b4186f6b6457e090600090a3600580546001600160a01b0319166001600160a01b0392909216919091179055565b6000546001600160a01b03163314610d2d5760405162461bcd60e51b81526004016104239061146a565b565b6001600160a01b03811660009081526003602052604090205460ff16610d675760405162461bcd60e51b81526004016104239061151e565b6001600160a01b03166000908152600460205260409020805460ff19166001179055565b3390565b60405163079cc67960e41b815283906001600160a01b038216906379cc679090610dbf90869086906004016113a0565b600060405180830381600087803b158015610dd957600080fd5b505af1158015610ded573d6000803e3d6000fd5b5050505050505050565b83610e0481858585610e0b565b5050505050565b610b4c846323b872dd60e01b858585604051602401610e2c93929190611337565b60408051601f198184030181529190526020810180516001600160e01b03166001600160e01b031990931692909217909152610ebe565b600082815260016020818152604080842080546001600160a01b039096166001600160a01b0319909616861790559383526002815283832094909455600390935220805460ff19169091179055565b82610b4c818484610f75565b60006060836001600160a01b031683604051610eda91906112ea565b6000604051808303816000865af19150503d8060008114610f17576040519150601f19603f3d011682016040523d82523d6000602084013e610f1c565b606091505b509150915081610f3e5760405162461bcd60e51b815260040161042390611562565b805115610b4c5780806020019051810190610f5991906110a1565b610b4c5760405162461bcd60e51b815260040161042390611435565b610b9b8363a9059cbb60e01b8484604051602401610e2c9291906113a0565b6040805160c081018252600080825260208201819052918101829052606081018290526080810182905260a081019190915290565b80356001600160a01b038116811461050a57600080fd5b60008083601f840112610ff1578182fd5b50813567ffffffffffffffff811115611008578182fd5b60208301915083602082850101111561102057600080fd5b9250929050565b803567ffffffffffffffff8116811461050a57600080fd5b600060208284031215611050578081fd5b61105a8383610fc9565b9392505050565b600080600060608486031215611075578182fd5b833561108081611664565b9250602084013561109081611664565b929592945050506040919091013590565b6000602082840312156110b2578081fd5b8151801515811461105a578182fd5b6000602082840312156110d2578081fd5b5035919050565b600080604083850312156110eb578182fd5b8235915060208301356110fd81611664565b809150509250929050565b60008060006060848603121561111c578283fd5b8335925061112d8560208601610fc9565b9150604084013590509250925092565b600080600080600060808688031215611154578081fd5b85359450602086013561116681611664565b935060408601359250606086013567ffffffffffffffff811115611188578182fd5b61119488828901610fe0565b969995985093965092949392505050565b600080604083850312156111b7578182fd5b50508035926020909101359150565b60008060008060008060008060e0898b0312156111e1578283fd5b8835975060208901356111f381611679565b9650604089013567ffffffffffffffff8082168214611210578485fd5b90965060608a01359061122282611664565b90955060808a01359061123482611664565b90945060a08a0135935060c08a01359080821115611250578384fd5b5061125d8b828c01610fe0565b999c989b5096995094979396929594505050565b60008060408385031215611283578182fd5b823561128e81611679565b915061129d8460208501611027565b90509250929050565b6000602082840312156112b7578081fd5b5051919050565b600080604083850312156112d0578182fd5b6112da8484611027565b915060208301356110fd81611679565b60008251815b8181101561130a57602081860181015185830152016112f0565b818111156113185782828501525b509190910192915050565b6001600160a01b0391909116815260200190565b6001600160a01b039384168152919092166020820152604081019190915260600190565b6001600160a01b0396871681526001600160c01b031995909516602086015260408501939093529084166060840152909216608082015260a081019190915260c00190565b6001600160a01b03929092168252602082015260400190565b6001600160a01b0393841681526020810192909252909116604082015260600190565b901515815260200190565b90815260200190565b6001600160c01b031991909116815260200190565b6001600160c01b0319949094168452602084019290925260408301526001600160a01b0316606082015260800190565b6020808252818101527f45524332303a206f7065726174696f6e20646964206e6f742073756363656564604082015260600190565b6020808252601e908201527f73656e646572206d7573742062652062726964676520636f6e74726163740000604082015260600190565b60208082526026908201527f4f776e61626c653a206e6577206f776e657220697320746865207a65726f206160408201526564647265737360d01b606082015260800190565b6020808252601c908201527f4e6f7420656e6f75676820616d6f756e7420746f206465706f73697400000000604082015260600190565b60208082526024908201527f70726f766964656420636f6e7472616374206973206e6f742077686974656c696040820152631cdd195960e21b606082015260800190565b602080825260129082015271115490cc8c0e8818d85b1b0819985a5b195960721b604082015260600190565b6020808252818101527f4f776e61626c653a2063616c6c6572206973206e6f7420746865206f776e6572604082015260600190565b60208082526028908201527f70726f766964656420746f6b656e41646472657373206973206e6f74207768696040820152671d195b1a5cdd195960c21b606082015260800190565b81516001600160a01b0390811682526020808401516001600160c01b03191690830152604080840151908301526060808401518216908301526080808401519091169082015260a0918201519181019190915260c00190565b6001600160a01b03811681146103c657600080fd5b6001600160c01b0319811681146103c657600080fdfea2646970667358221220b1324d53a6d0e8023cd473bafe2fcdbd3883d572b8f2fe564a58de676d8fc0e964736f6c63430006040033",
    "sourcePath": "c:/Users/Punit/Desktop/LaToken/ethereum-crosschain-contract/contracts/handlers/AmTokenHandler.sol",
    "compiler": {
        "name": "solc",
        "version": "0.6.4+commit.1dca32f3"
    },
    "functionHashes": {
        "AAVE_MUMBAI_LP_ADDR()": "b5dbbf7e",
        "AAVE_POLYGON_LP_ADDR()": "33882566",
        "LACHAIN_ID()": "61af6884",
        "LACHAIN_TESTNET_ID()": "dcde9b02",
        "_bridgeAddress()": "318c136e",
        "_burnList(address)": "6a70d081",
        "_contractWhitelist(address)": "7f79bea8",
        "_depositRecords(bytes8,uint64)": "78f6a94c",
        "_resourceIDToTokenContractAddress(bytes32)": "0a6d55d8",
        "_tokenContractAddressToResourceID(address)": "c8ba6c87",
        "aaveTokenHandler()": "dfdfd76f",
        "adminChangeBridgeAddress(address)": "292f3a68",
        "amTokenResources(bytes32)": "f10d9101",
        "approve(bytes32,address,uint256)": "bf1ed1eb",
        "deposit(bytes32,bytes8,uint64,address,address,uint256,bytes)": "75cd9cce",
        "executeProposal(bytes32,address,uint256,bytes)": "728e218f",
        "fundERC20(address,address,uint256)": "95601f09",
        "getAddressFromResourceId(bytes32)": "a7a3fb40",
        "getDepositRecord(uint64,bytes8)": "34143cd7",
        "owner()": "8da5cb5b",
        "renounceOwnership()": "715018a6",
        "setAaveTokenHandler(address)": "3cd8e38c",
        "setAmTokenResources(bytes32,bytes32)": "cd4187e1",
        "setBurnable(address)": "07b7ed99",
        "setResource(bytes32,address)": "b8fa3736",
        "transferOwnership(address)": "f2fde38b",
        "withdraw(address,address,uint256)": "d9caed12"
    },
    "gasEstimates": {
        "creation": {
            "codeDepositCost": "1165800",
            "executionCost": "infinite",
            "totalCost": "infinite"
        },
        "external": {
            "AAVE_MUMBAI_LP_ADDR()": "319",
            "AAVE_POLYGON_LP_ADDR()": "364",
            "LACHAIN_ID()": "329",
            "LACHAIN_TESTNET_ID()": "305",
            "_bridgeAddress()": "1160",
            "_burnList(address)": "1359",
            "_contractWhitelist(address)": "1315",
            "_depositRecords(bytes8,uint64)": "5020",
            "_resourceIDToTokenContractAddress(bytes32)": "1259",
            "_tokenContractAddressToResourceID(address)": "1302",
            "aaveTokenHandler()": "1136",
            "adminChangeBridgeAddress(address)": "22174",
            "amTokenResources(bytes32)": "1259",
            "approve(bytes32,address,uint256)": "470",
            "deposit(bytes32,bytes8,uint64,address,address,uint256,bytes)": "infinite",
            "executeProposal(bytes32,address,uint256,bytes)": "infinite",
            "fundERC20(address,address,uint256)": "infinite",
            "getAddressFromResourceId(bytes32)": "1258",
            "getDepositRecord(uint64,bytes8)": "infinite",
            "owner()": "1138",
            "renounceOwnership()": "24297",
            "setAaveTokenHandler(address)": "22152",
            "setAmTokenResources(bytes32,bytes32)": "21313",
            "setBurnable(address)": "23042",
            "setResource(bytes32,address)": "63208",
            "transferOwnership(address)": "24605",
            "withdraw(address,address,uint256)": "infinite"
        }
    }
}