{
    "contractName": "ERC20Handler",
    "abi": [
        {
            "anonymous": false,
            "inputs": [
                {
                    "indexed": true,
                    "internalType": "address",
                    "name": "previousOwner",
                    "type": "address"
                },
                {
                    "indexed": true,
                    "internalType": "address",
                    "name": "newOwner",
                    "type": "address"
                }
            ],
            "name": "OwnershipTransferred",
            "type": "event"
        },
        {
            "inputs": [],
            "name": "_bridgeAddress",
            "outputs": [
                {
                    "internalType": "address",
                    "name": "",
                    "type": "address"
                }
            ],
            "stateMutability": "view",
            "type": "function"
        },
        {
            "inputs": [
                {
                    "internalType": "address",
                    "name": "",
                    "type": "address"
                }
            ],
            "name": "_burnList",
            "outputs": [
                {
                    "internalType": "bool",
                    "name": "",
                    "type": "bool"
                }
            ],
            "stateMutability": "view",
            "type": "function"
        },
        {
            "inputs": [
                {
                    "internalType": "address",
                    "name": "",
                    "type": "address"
                }
            ],
            "name": "_contractWhitelist",
            "outputs": [
                {
                    "internalType": "bool",
                    "name": "",
                    "type": "bool"
                }
            ],
            "stateMutability": "view",
            "type": "function"
        },
        {
            "inputs": [
                {
                    "internalType": "bytes8",
                    "name": "",
                    "type": "bytes8"
                },
                {
                    "internalType": "uint64",
                    "name": "",
                    "type": "uint64"
                }
            ],
            "name": "_depositRecords",
            "outputs": [
                {
                    "internalType": "address",
                    "name": "_tokenAddress",
                    "type": "address"
                },
                {
                    "internalType": "bytes8",
                    "name": "_destinationChainID",
                    "type": "bytes8"
                },
                {
                    "internalType": "bytes32",
                    "name": "_resourceID",
                    "type": "bytes32"
                },
                {
                    "internalType": "address",
                    "name": "_destinationRecipientAddress",
                    "type": "address"
                },
                {
                    "internalType": "address",
                    "name": "_depositer",
                    "type": "address"
                },
                {
                    "internalType": "uint256",
                    "name": "_amount",
                    "type": "uint256"
                }
            ],
            "stateMutability": "view",
            "type": "function"
        },
        {
            "inputs": [],
            "name": "_isInitialised",
            "outputs": [
                {
                    "internalType": "bool",
                    "name": "",
                    "type": "bool"
                }
            ],
            "stateMutability": "view",
            "type": "function"
        },
        {
            "inputs": [
                {
                    "internalType": "bytes32",
                    "name": "",
                    "type": "bytes32"
                }
            ],
            "name": "_resourceIDToTokenContractAddress",
            "outputs": [
                {
                    "internalType": "address",
                    "name": "",
                    "type": "address"
                }
            ],
            "stateMutability": "view",
            "type": "function"
        },
        {
            "inputs": [
                {
                    "internalType": "address",
                    "name": "",
                    "type": "address"
                }
            ],
            "name": "_tokenContractAddressToResourceID",
            "outputs": [
                {
                    "internalType": "bytes32",
                    "name": "",
                    "type": "bytes32"
                }
            ],
            "stateMutability": "view",
            "type": "function"
        },
        {
            "inputs": [
                {
                    "internalType": "address",
                    "name": "newBridgeAddress",
                    "type": "address"
                }
            ],
            "name": "adminChangeBridgeAddress",
            "outputs": [],
            "stateMutability": "nonpayable",
            "type": "function"
        },
        {
            "inputs": [
                {
                    "internalType": "bytes32",
                    "name": "resourceID",
                    "type": "bytes32"
                },
                {
                    "internalType": "address",
                    "name": "spender",
                    "type": "address"
                },
                {
                    "internalType": "uint256",
                    "name": "amount",
                    "type": "uint256"
                }
            ],
            "name": "approve",
            "outputs": [],
            "stateMutability": "nonpayable",
            "type": "function"
        },
        {
            "inputs": [
                {
                    "internalType": "bytes32",
                    "name": "resourceID",
                    "type": "bytes32"
                },
                {
                    "internalType": "bytes8",
                    "name": "destinationChainID",
                    "type": "bytes8"
                },
                {
                    "internalType": "uint64",
                    "name": "depositNonce",
                    "type": "uint64"
                },
                {
                    "internalType": "address",
                    "name": "depositer",
                    "type": "address"
                },
                {
                    "internalType": "address",
                    "name": "recipientAddress",
                    "type": "address"
                },
                {
                    "internalType": "uint256",
                    "name": "amount",
                    "type": "uint256"
                },
                {
                    "internalType": "bytes",
                    "name": "params",
                    "type": "bytes"
                }
            ],
            "name": "deposit",
            "outputs": [
                {
                    "internalType": "address",
                    "name": "",
                    "type": "address"
                }
            ],
            "stateMutability": "nonpayable",
            "type": "function"
        },
        {
            "inputs": [
                {
                    "internalType": "bytes32",
                    "name": "resourceID",
                    "type": "bytes32"
                },
                {
                    "internalType": "address",
                    "name": "recipientAddress",
                    "type": "address"
                },
                {
                    "internalType": "uint256",
                    "name": "amount",
                    "type": "uint256"
                },
                {
                    "internalType": "bytes",
                    "name": "params",
                    "type": "bytes"
                }
            ],
            "name": "executeProposal",
            "outputs": [],
            "stateMutability": "nonpayable",
            "type": "function"
        },
        {
            "inputs": [
                {
                    "internalType": "address",
                    "name": "tokenAddress",
                    "type": "address"
                },
                {
                    "internalType": "address",
                    "name": "owner",
                    "type": "address"
                },
                {
                    "internalType": "uint256",
                    "name": "amount",
                    "type": "uint256"
                }
            ],
            "name": "fundERC20",
            "outputs": [],
            "stateMutability": "nonpayable",
            "type": "function"
        },
        {
            "inputs": [
                {
                    "internalType": "bytes32",
                    "name": "resourceID",
                    "type": "bytes32"
                }
            ],
            "name": "getAddressFromResourceId",
            "outputs": [
                {
                    "internalType": "address",
                    "name": "",
                    "type": "address"
                }
            ],
            "stateMutability": "view",
            "type": "function"
        },
        {
            "inputs": [
                {
                    "internalType": "uint64",
                    "name": "depositNonce",
                    "type": "uint64"
                },
                {
                    "internalType": "bytes8",
                    "name": "destId",
                    "type": "bytes8"
                }
            ],
            "name": "getDepositRecord",
            "outputs": [
                {
                    "components": [
                        {
                            "internalType": "address",
                            "name": "_tokenAddress",
                            "type": "address"
                        },
                        {
                            "internalType": "bytes8",
                            "name": "_destinationChainID",
                            "type": "bytes8"
                        },
                        {
                            "internalType": "bytes32",
                            "name": "_resourceID",
                            "type": "bytes32"
                        },
                        {
                            "internalType": "address",
                            "name": "_destinationRecipientAddress",
                            "type": "address"
                        },
                        {
                            "internalType": "address",
                            "name": "_depositer",
                            "type": "address"
                        },
                        {
                            "internalType": "uint256",
                            "name": "_amount",
                            "type": "uint256"
                        }
                    ],
                    "internalType": "struct ERC20Handler.DepositRecord",
                    "name": "",
                    "type": "tuple"
                }
            ],
            "stateMutability": "view",
            "type": "function"
        },
        {
            "inputs": [
                {
                    "internalType": "address",
                    "name": "bridgeAddress",
                    "type": "address"
                }
            ],
            "name": "initialize",
            "outputs": [],
            "stateMutability": "nonpayable",
            "type": "function"
        },
        {
            "inputs": [
                {
                    "internalType": "address",
                    "name": "owner",
                    "type": "address"
                }
            ],
            "name": "ownableInit",
            "outputs": [],
            "stateMutability": "nonpayable",
            "type": "function"
        },
        {
            "inputs": [],
            "name": "owner",
            "outputs": [
                {
                    "internalType": "address",
                    "name": "",
                    "type": "address"
                }
            ],
            "stateMutability": "view",
            "type": "function"
        },
        {
            "inputs": [],
            "name": "renounceOwnership",
            "outputs": [],
            "stateMutability": "nonpayable",
            "type": "function"
        },
        {
            "inputs": [
                {
                    "internalType": "address",
                    "name": "contractAddress",
                    "type": "address"
                }
            ],
            "name": "setBurnable",
            "outputs": [],
            "stateMutability": "nonpayable",
            "type": "function"
        },
        {
            "inputs": [
                {
                    "internalType": "bytes32",
                    "name": "resourceID",
                    "type": "bytes32"
                },
                {
                    "internalType": "address",
                    "name": "contractAddress",
                    "type": "address"
                }
            ],
            "name": "setResource",
            "outputs": [],
            "stateMutability": "nonpayable",
            "type": "function"
        },
        {
            "inputs": [
                {
                    "internalType": "address",
                    "name": "newOwner",
                    "type": "address"
                }
            ],
            "name": "transferOwnership",
            "outputs": [],
            "stateMutability": "nonpayable",
            "type": "function"
        },
        {
            "inputs": [
                {
                    "internalType": "address",
                    "name": "tokenAddress",
                    "type": "address"
                },
                {
                    "internalType": "address",
                    "name": "recipient",
                    "type": "address"
                },
                {
                    "internalType": "uint256",
                    "name": "amount",
                    "type": "uint256"
                }
            ],
            "name": "withdraw",
            "outputs": [],
            "stateMutability": "nonpayable",
            "type": "function"
        }
    ],
    "bytecode": "60806040526005805460ff60a01b1916905534801561001d57600080fd5b5061143e8061002d6000396000f3fe608060405234801561001057600080fd5b50600436106101425760003560e01c80638da5cb5b116100b8578063c4d66de81161007c578063c4d66de81461029a578063c8ba6c87146102ad578063d9caed12146102cd578063dd2e8ec3146102e0578063ea439b2b146102e8578063f2fde38b146102fb57610142565b80638da5cb5b1461024657806395601f091461024e578063a7a3fb4014610261578063b8fa373614610274578063bf1ed1eb1461028757610142565b80636a70d0811161010a5780636a70d081146101c0578063715018a6146101e0578063728e218f146101e857806375cd9cce146101fb57806378f6a94c1461020e5780637f79bea81461023357610142565b806307b7ed99146101475780630a6d55d81461015c578063292f3a6814610185578063318c136e1461019857806334143cd7146101a0575b600080fd5b61015a610155366004610ead565b61030e565b005b61016f61016a366004610f2f565b610322565b60405161017c9190611158565b60405180910390f35b61015a610193366004610ead565b61033d565b61016f6103bd565b6101b36101ae3660046110f3565b6103cc565b60405161017c9190611384565b6101d36101ce366004610ead565b61047d565b60405161017c91906111ee565b61015a610492565b61015a6101f6366004610fab565b61051b565b61016f610209366004611013565b6105c3565b61022161021c3660046110be565b6107da565b60405161017c96959493929190611190565b6101d3610241366004610ead565b61082b565b61016f610840565b61015a61025c366004610ecf565b61084f565b61016f61026f366004610f2f565b610862565b61015a610282366004610f47565b61087d565b61015a610295366004610f76565b610893565b61015a6102a8366004610ead565b610902565b6102c06102bb366004610ead565b610950565b60405161017c91906111f9565b61015a6102db366004610ecf565b610962565b6101d3610990565b61015a6102f6366004610ead565b6109a0565b61015a610309366004610ead565b610a11565b610316610abf565b61031f81610aeb565b50565b6001602052600090815260409020546001600160a01b031681565b610345610b47565b6001600160a01b0316610356610840565b6001600160a01b0316146103855760405162461bcd60e51b815260040161037c9061130c565b60405180910390fd5b600554600160a01b900460ff1661039b57600080fd5b600080546001600160a01b0319166001600160a01b0392909216919091179055565b6000546001600160a01b031681565b6103d4610e02565b600554600160a01b900460ff166103ea57600080fd5b506001600160c01b0319808216600090815260066020908152604080832067ffffffffffffffff87168452825291829020825160c0808201855282546001600160a01b038082168452600160a01b90910490911b90951692810192909252600181015492820192909252600282015483166060820152600382015490921660808301526004015460a08201525b92915050565b60046020526000908152604090205460ff1681565b61049a610b47565b6001600160a01b03166104ab610840565b6001600160a01b0316146104d15760405162461bcd60e51b815260040161037c9061130c565b6005546040516000916001600160a01b0316907f8be0079c531659141344cd1fd0a4f28419497f9722a3daafe3b4186f6b6457e0908390a3600580546001600160a01b0319169055565b610523610abf565b600554600160a01b900460ff1661053957600080fd5b6000858152600160209081526040808320546001600160a01b031680845260039092529091205460ff1661057f5760405162461bcd60e51b815260040161037c9061133c565b6001600160a01b03811660009081526004602052604090205460ff16156105b0576105ab818686610b4b565b6105bb565b6105bb818686610bb3565b505050505050565b60006105cd610abf565b600554600160a01b900460ff166105e357600080fd5b6000898152600160209081526040808320546001600160a01b031680845260039092529091205460ff166106295760405162461bcd60e51b815260040161037c9061133c565b6001600160a01b03811660009081526004602052604090205460ff161561065a57610655818887610bbf565b610666565b61066681883088610bef565b6040518060c00160405280826001600160a01b031681526020018a6001600160c01b03191681526020018b8152602001876001600160a01b03168152602001886001600160a01b0316815260200186815250600660008b6001600160c01b0319166001600160c01b031916815260200190815260200160002060008a67ffffffffffffffff1667ffffffffffffffff16815260200190815260200160002060008201518160000160006101000a8154816001600160a01b0302191690836001600160a01b0316021790555060208201518160000160146101000a81548167ffffffffffffffff021916908360c01c02179055506040820151816001015560608201518160020160006101000a8154816001600160a01b0302191690836001600160a01b0316021790555060808201518160030160006101000a8154816001600160a01b0302191690836001600160a01b0316021790555060a082015181600401559050508091505098975050505050505050565b6006602090815260009283526040808420909152908252902080546001820154600283015460038401546004909401546001600160a01b0380851695600160a01b90950460c01b9492811692169086565b60036020526000908152604090205460ff1681565b6005546001600160a01b031690565b8261085c81843085610c03565b50505050565b6000908152600160205260409020546001600160a01b031690565b610885610abf565b61088f8282610c5b565b5050565b61089b610abf565b600554600160a01b900460ff166108b157600080fd5b6000838152600160209081526040808320546001600160a01b031680845260039092529091205460ff166108f75760405162461bcd60e51b815260040161037c9061133c565b61085c818484610caa565b600554600160a01b900460ff161561092c5760405162461bcd60e51b815260040161037c906112de565b600080546001600160a01b0319166001600160a01b03831617905561031f336109a0565b60026020526000908152604090205481565b61096a610abf565b600554600160a01b900460ff1661098057600080fd5b61098b838383610bb3565b505050565b600554600160a01b900460ff1681565b600554600160a01b900460ff16156109b757600080fd5b6005805460ff60a01b196001600160a01b0384166001600160a01b0319909216821716600160a01b179091556040516000907f8be0079c531659141344cd1fd0a4f28419497f9722a3daafe3b4186f6b6457e0908290a350565b610a19610b47565b6001600160a01b0316610a2a610840565b6001600160a01b031614610a505760405162461bcd60e51b815260040161037c9061130c565b6001600160a01b038116610a6357600080fd5b6005546040516001600160a01b038084169216907f8be0079c531659141344cd1fd0a4f28419497f9722a3daafe3b4186f6b6457e090600090a3600580546001600160a01b0319166001600160a01b0392909216919091179055565b6000546001600160a01b03163314610ae95760405162461bcd60e51b815260040161037c90611237565b565b6001600160a01b03811660009081526003602052604090205460ff16610b235760405162461bcd60e51b815260040161037c9061126e565b6001600160a01b03166000908152600460205260409020805460ff19166001179055565b3390565b6040516340c10f1960e01b815283906001600160a01b038216906340c10f1990610b7b90869086906004016111d5565b600060405180830381600087803b158015610b9557600080fd5b505af1158015610ba9573d6000803e3d6000fd5b5050505050505050565b8261085c818484610d2c565b60405163079cc67960e41b815283906001600160a01b038216906379cc679090610b7b90869086906004016111d5565b83610bfc81858585610c03565b5050505050565b61085c846323b872dd60e01b858585604051602401610c249392919061116c565b60408051601f198184030181529190526020810180516001600160e01b03166001600160e01b031990931692909217909152610d4b565b600082815260016020818152604080842080546001600160a01b039096166001600160a01b0319909616861790559383526002815283832094909455600390935220805460ff19169091179055565b60405163095ea7b360e01b815283906001600160a01b0382169063095ea7b390610cda90869086906004016111d5565b602060405180830381600087803b158015610cf457600080fd5b505af1158015610d08573d6000803e3d6000fd5b505050506040513d601f19601f82011682018060405250810190610bfc9190610f0f565b61098b8363a9059cbb60e01b8484604051602401610c249291906111d5565b60006060836001600160a01b031683604051610d67919061111f565b6000604051808303816000865af19150503d8060008114610da4576040519150601f19603f3d011682016040523d82523d6000602084013e610da9565b606091505b509150915081610dcb5760405162461bcd60e51b815260040161037c906112b2565b80511561085c5780806020019051810190610de69190610f0f565b61085c5760405162461bcd60e51b815260040161037c90611202565b6040805160c081018252600080825260208201819052918101829052606081018290526080810182905260a081019190915290565b80356001600160a01b038116811461047757600080fd5b60008083601f840112610e5f578182fd5b50813567ffffffffffffffff811115610e76578182fd5b602083019150836020828501011115610e8e57600080fd5b9250929050565b803567ffffffffffffffff8116811461047757600080fd5b600060208284031215610ebe578081fd5b610ec88383610e37565b9392505050565b600080600060608486031215610ee3578182fd5b8335610eee816113dd565b92506020840135610efe816113dd565b929592945050506040919091013590565b600060208284031215610f20578081fd5b81518015158114610ec8578182fd5b600060208284031215610f40578081fd5b5035919050565b60008060408385031215610f59578182fd5b823591506020830135610f6b816113dd565b809150509250929050565b600080600060608486031215610f8a578283fd5b83359250610f9b8560208601610e37565b9150604084013590509250925092565b600080600080600060808688031215610fc2578081fd5b853594506020860135610fd4816113dd565b935060408601359250606086013567ffffffffffffffff811115610ff6578182fd5b61100288828901610e4e565b969995985093965092949392505050565b60008060008060008060008060e0898b03121561102e578283fd5b883597506020890135611040816113f2565b9650604089013567ffffffffffffffff808216821461105d578485fd5b90965060608a01359061106f826113dd565b90955060808a013590611081826113dd565b90945060a08a0135935060c08a0135908082111561109d578384fd5b506110aa8b828c01610e4e565b999c989b5096995094979396929594505050565b600080604083850312156110d0578182fd5b82356110db816113f2565b91506110ea8460208501610e95565b90509250929050565b60008060408385031215611105578182fd5b61110f8484610e95565b91506020830135610f6b816113f2565b60008251815b8181101561113f5760208186018101518583015201611125565b8181111561114d5782828501525b509190910192915050565b6001600160a01b0391909116815260200190565b6001600160a01b039384168152919092166020820152604081019190915260600190565b6001600160a01b0396871681526001600160c01b031995909516602086015260408501939093529084166060840152909216608082015260a081019190915260c00190565b6001600160a01b03929092168252602082015260400190565b901515815260200190565b90815260200190565b6020808252818101527f45524332303a206f7065726174696f6e20646964206e6f742073756363656564604082015260600190565b6020808252601e908201527f73656e646572206d7573742062652062726964676520636f6e74726163740000604082015260600190565b60208082526024908201527f70726f766964656420636f6e7472616374206973206e6f742077686974656c696040820152631cdd195960e21b606082015260800190565b602080825260129082015271115490cc8c0e8818d85b1b0819985a5b195960721b604082015260600190565b602080825260149082015273416c726561647920496e697469616c697365642160601b604082015260600190565b60208082526016908201527539b2b73232b91039b437bab6321031329037bbb732b960511b604082015260600190565b60208082526028908201527f70726f766964656420746f6b656e41646472657373206973206e6f74207768696040820152671d195b1a5cdd195960c21b606082015260800190565b81516001600160a01b0390811682526020808401516001600160c01b03191690830152604080840151908301526060808401518216908301526080808401519091169082015260a0918201519181019190915260c00190565b6001600160a01b038116811461031f57600080fd5b6001600160c01b03198116811461031f57600080fdfea26469706673582212204074be7c16bfa554428aca10ae49c641cb29c776ea5af63df3a24790894e9e7664736f6c63430006040033",
    "sourcePath": "c:/Users/Punit/Desktop/LaToken/ethereum-crosschain-contract/contracts/handlers/ERC20Handler.sol",
    "compiler": {
        "name": "solc",
        "version": "0.6.4+commit.1dca32f3"
    },
    "functionHashes": {
        "_bridgeAddress()": "318c136e",
        "_burnList(address)": "6a70d081",
        "_contractWhitelist(address)": "7f79bea8",
        "_depositRecords(bytes8,uint64)": "78f6a94c",
        "_isInitialised()": "dd2e8ec3",
        "_resourceIDToTokenContractAddress(bytes32)": "0a6d55d8",
        "_tokenContractAddressToResourceID(address)": "c8ba6c87",
        "adminChangeBridgeAddress(address)": "292f3a68",
        "approve(bytes32,address,uint256)": "bf1ed1eb",
        "deposit(bytes32,bytes8,uint64,address,address,uint256,bytes)": "75cd9cce",
        "executeProposal(bytes32,address,uint256,bytes)": "728e218f",
        "fundERC20(address,address,uint256)": "95601f09",
        "getAddressFromResourceId(bytes32)": "a7a3fb40",
        "getDepositRecord(uint64,bytes8)": "34143cd7",
        "initialize(address)": "c4d66de8",
        "ownableInit(address)": "ea439b2b",
        "owner()": "8da5cb5b",
        "renounceOwnership()": "715018a6",
        "setBurnable(address)": "07b7ed99",
        "setResource(bytes32,address)": "b8fa3736",
        "transferOwnership(address)": "f2fde38b",
        "withdraw(address,address,uint256)": "d9caed12"
    },
    "gasEstimates": {
        "creation": {
            "codeDepositCost": "1036400",
            "executionCost": "21898",
            "totalCost": "1058298"
        },
        "external": {
            "_bridgeAddress()": "1160",
            "_burnList(address)": "1292",
            "_contractWhitelist(address)": "1402",
            "_depositRecords(bytes8,uint64)": "5020",
            "_isInitialised()": "1145",
            "_resourceIDToTokenContractAddress(bytes32)": "1259",
            "_tokenContractAddressToResourceID(address)": "1301",
            "adminChangeBridgeAddress(address)": "23014",
            "approve(bytes32,address,uint256)": "infinite",
            "deposit(bytes32,bytes8,uint64,address,address,uint256,bytes)": "infinite",
            "executeProposal(bytes32,address,uint256,bytes)": "infinite",
            "fundERC20(address,address,uint256)": "infinite",
            "getAddressFromResourceId(bytes32)": "1280",
            "getDepositRecord(uint64,bytes8)": "infinite",
            "initialize(address)": "45316",
            "ownableInit(address)": "23679",
            "owner()": "1093",
            "renounceOwnership()": "24297",
            "setBurnable(address)": "23042",
            "setResource(bytes32,address)": "63208",
            "transferOwnership(address)": "24627",
            "withdraw(address,address,uint256)": "infinite"
        }
    }
}