{
	"ethereum-crosschain-contract/contracts/utils/Pausable.sol": {
		"Pausable": {
			"abi": [
				{
					"anonymous": false,
					"inputs": [
						{
							"indexed": false,
							"internalType": "address",
							"name": "account",
							"type": "address"
						}
					],
					"name": "Paused",
					"type": "event"
				},
				{
					"anonymous": false,
					"inputs": [
						{
							"indexed": false,
							"internalType": "address",
							"name": "account",
							"type": "address"
						}
					],
					"name": "Unpaused",
					"type": "event"
				},
				{
					"inputs": [],
					"name": "paused",
					"outputs": [
						{
							"internalType": "bool",
							"name": "",
							"type": "bool"
						}
					],
					"stateMutability": "view",
					"type": "function"
				}
			],
			"devdoc": {
				"details": "Contract module which allows children to implement an emergency stop mechanism that can be triggered by an authorized account. * This is a stripped down version of Open zeppelin's Pausable contract. https://github.com/OpenZeppelin/openzeppelin-contracts/blob/master/contracts/utils/EnumerableSet.sol ",
				"methods": {
					"paused()": {
						"details": "Returns true if the contract is paused, and false otherwise."
					}
				}
			},
			"evm": {
				"assembly": "    /* \"ethereum-crosschain-contract/contracts/utils/Pausable.sol\":388:2030  contract Pausable {... */\n  mstore(0x40, 0x80)\n  callvalue\n    /* \"--CODEGEN--\":5:14   */\n  dup1\n    /* \"--CODEGEN--\":2:4   */\n  iszero\n  tag_1\n  jumpi\n    /* \"--CODEGEN--\":27:28   */\n  0x00\n    /* \"--CODEGEN--\":24:25   */\n  dup1\n    /* \"--CODEGEN--\":17:29   */\n  revert\n    /* \"--CODEGEN--\":2:4   */\ntag_1:\n    /* \"ethereum-crosschain-contract/contracts/utils/Pausable.sol\":388:2030  contract Pausable {... */\n  pop\n  dataSize(sub_0)\n  dup1\n  dataOffset(sub_0)\n  0x00\n  codecopy\n  0x00\n  return\nstop\n\nsub_0: assembly {\n        /* \"ethereum-crosschain-contract/contracts/utils/Pausable.sol\":388:2030  contract Pausable {... */\n      mstore(0x40, 0x80)\n      callvalue\n        /* \"--CODEGEN--\":5:14   */\n      dup1\n        /* \"--CODEGEN--\":2:4   */\n      iszero\n      tag_1\n      jumpi\n        /* \"--CODEGEN--\":27:28   */\n      0x00\n        /* \"--CODEGEN--\":24:25   */\n      dup1\n        /* \"--CODEGEN--\":17:29   */\n      revert\n        /* \"--CODEGEN--\":2:4   */\n    tag_1:\n        /* \"ethereum-crosschain-contract/contracts/utils/Pausable.sol\":388:2030  contract Pausable {... */\n      pop\n      jumpi(tag_2, lt(calldatasize, 0x04))\n      shr(0xe0, calldataload(0x00))\n      dup1\n      0x5c975abb\n      eq\n      tag_3\n      jumpi\n    tag_2:\n        /* \"--CODEGEN--\":12:13   */\n      0x00\n        /* \"--CODEGEN--\":9:10   */\n      dup1\n        /* \"--CODEGEN--\":2:14   */\n      revert\n        /* \"ethereum-crosschain-contract/contracts/utils/Pausable.sol\":755:831  function paused() public view returns (bool) {... */\n    tag_3:\n      tag_4\n      tag_5\n      jump\t// in\n    tag_4:\n      0x40\n      dup1\n      mload\n      swap2\n      iszero\n      iszero\n      dup3\n      mstore\n      mload\n      swap1\n      dup2\n      swap1\n      sub\n      0x20\n      add\n      swap1\n      return\n    tag_5:\n        /* \"ethereum-crosschain-contract/contracts/utils/Pausable.sol\":794:798  bool */\n      0x00\n        /* \"ethereum-crosschain-contract/contracts/utils/Pausable.sol\":817:824  _paused */\n      sload\n      0xff\n      and\n        /* \"ethereum-crosschain-contract/contracts/utils/Pausable.sol\":755:831  function paused() public view returns (bool) {... */\n      swap1\n      jump\t// out\n\n    auxdata: 0xa26469706673582212204d9fcedb9d26d295884468c8cda084fb47cee45ab71b5caed1708987f78488ff64736f6c63430006040033\n}\n",
				"bytecode": {
					"linkReferences": {},
					"object": "6080604052348015600f57600080fd5b5060868061001e6000396000f3fe6080604052348015600f57600080fd5b506004361060285760003560e01c80635c975abb14602d575b600080fd5b60336047565b604080519115158252519081900360200190f35b60005460ff169056fea26469706673582212204d9fcedb9d26d295884468c8cda084fb47cee45ab71b5caed1708987f78488ff64736f6c63430006040033",
					"opcodes": "PUSH1 0x80 PUSH1 0x40 MSTORE CALLVALUE DUP1 ISZERO PUSH1 0xF JUMPI PUSH1 0x0 DUP1 REVERT JUMPDEST POP PUSH1 0x86 DUP1 PUSH2 0x1E PUSH1 0x0 CODECOPY PUSH1 0x0 RETURN INVALID PUSH1 0x80 PUSH1 0x40 MSTORE CALLVALUE DUP1 ISZERO PUSH1 0xF JUMPI PUSH1 0x0 DUP1 REVERT JUMPDEST POP PUSH1 0x4 CALLDATASIZE LT PUSH1 0x28 JUMPI PUSH1 0x0 CALLDATALOAD PUSH1 0xE0 SHR DUP1 PUSH4 0x5C975ABB EQ PUSH1 0x2D JUMPI JUMPDEST PUSH1 0x0 DUP1 REVERT JUMPDEST PUSH1 0x33 PUSH1 0x47 JUMP JUMPDEST PUSH1 0x40 DUP1 MLOAD SWAP2 ISZERO ISZERO DUP3 MSTORE MLOAD SWAP1 DUP2 SWAP1 SUB PUSH1 0x20 ADD SWAP1 RETURN JUMPDEST PUSH1 0x0 SLOAD PUSH1 0xFF AND SWAP1 JUMP INVALID LOG2 PUSH5 0x6970667358 0x22 SLT KECCAK256 0x4D SWAP16 0xCE 0xDB SWAP14 0x26 0xD2 SWAP6 DUP9 DIFFICULTY PUSH9 0xC8CDA084FB47CEE45A 0xB7 SHL 0x5C 0xAE 0xD1 PUSH17 0x8987F78488FF64736F6C63430006040033 "
				},
				"gasEstimates": {
					"creation": {
						"codeDepositCost": "26800",
						"executionCost": "81",
						"totalCost": "26881"
					},
					"external": {
						"paused()": "988"
					},
					"internal": {
						"_pause()": "infinite",
						"_unpause()": "infinite",
						"_whenNotPaused()": "infinite",
						"_whenPaused()": "infinite"
					}
				},
				"methodIdentifiers": {
					"paused()": "5c975abb"
				}
			},
			"storageLayout": {
				"storage": [
					{
						"astId": 1981,
						"contract": "ethereum-crosschain-contract/contracts/utils/Pausable.sol:Pausable",
						"label": "_paused",
						"offset": 0,
						"slot": "0",
						"type": "t_bool"
					}
				],
				"types": {
					"t_bool": {
						"encoding": "inplace",
						"label": "bool",
						"numberOfBytes": "1"
					}
				}
			},
			"userdoc": {
				"methods": {}
			}
		}
	}
}