{
	"ethereum-crosschain-contract/contracts/utils/SafeMath.sol": {
		"SafeMathContract": {
			"abi": [
				{
					"inputs": [
						{
							"internalType": "uint256",
							"name": "a",
							"type": "uint256"
						},
						{
							"internalType": "uint256",
							"name": "b",
							"type": "uint256"
						}
					],
					"name": "sub",
					"outputs": [
						{
							"internalType": "uint256",
							"name": "",
							"type": "uint256"
						}
					],
					"stateMutability": "pure",
					"type": "function"
				}
			],
			"devdoc": {
				"details": "Wrappers over Solidity's arithmetic operations with added overflow checks. * note that this is a stripped down version of open zeppelin's safemath https://github.com/OpenZeppelin/openzeppelin-contracts/blob/master/contracts/math/SafeMath.sol",
				"methods": {
					"sub(uint256,uint256)": {
						"details": "Returns the subtraction of two unsigned integers, reverting on overflow (when the result is negative).     * Counterpart to Solidity's `-` operator.     * Requirements: - Subtraction cannot overflow."
					}
				}
			},
			"evm": {
				"assembly": "    /* \"ethereum-crosschain-contract/contracts/utils/SafeMath.sol\":327:1226  contract SafeMathContract {... */\n  mstore(0x40, 0x80)\n  callvalue\n    /* \"--CODEGEN--\":5:14   */\n  dup1\n    /* \"--CODEGEN--\":2:4   */\n  iszero\n  tag_1\n  jumpi\n    /* \"--CODEGEN--\":27:28   */\n  0x00\n    /* \"--CODEGEN--\":24:25   */\n  dup1\n    /* \"--CODEGEN--\":17:29   */\n  revert\n    /* \"--CODEGEN--\":2:4   */\ntag_1:\n    /* \"ethereum-crosschain-contract/contracts/utils/SafeMath.sol\":327:1226  contract SafeMathContract {... */\n  pop\n  dataSize(sub_0)\n  dup1\n  dataOffset(sub_0)\n  0x00\n  codecopy\n  0x00\n  return\nstop\n\nsub_0: assembly {\n        /* \"ethereum-crosschain-contract/contracts/utils/SafeMath.sol\":327:1226  contract SafeMathContract {... */\n      mstore(0x40, 0x80)\n      callvalue\n        /* \"--CODEGEN--\":5:14   */\n      dup1\n        /* \"--CODEGEN--\":2:4   */\n      iszero\n      tag_1\n      jumpi\n        /* \"--CODEGEN--\":27:28   */\n      0x00\n        /* \"--CODEGEN--\":24:25   */\n      dup1\n        /* \"--CODEGEN--\":17:29   */\n      revert\n        /* \"--CODEGEN--\":2:4   */\n    tag_1:\n        /* \"ethereum-crosschain-contract/contracts/utils/SafeMath.sol\":327:1226  contract SafeMathContract {... */\n      pop\n      jumpi(tag_2, lt(calldatasize, 0x04))\n      shr(0xe0, calldataload(0x00))\n      dup1\n      0xb67d77c5\n      eq\n      tag_3\n      jumpi\n    tag_2:\n        /* \"--CODEGEN--\":12:13   */\n      0x00\n        /* \"--CODEGEN--\":9:10   */\n      dup1\n        /* \"--CODEGEN--\":2:14   */\n      revert\n        /* \"ethereum-crosschain-contract/contracts/utils/SafeMath.sol\":618:751  function sub(uint256 a, uint256 b) public pure returns (uint256) {... */\n    tag_3:\n      tag_4\n      0x04\n      dup1\n      calldatasize\n      sub\n        /* \"--CODEGEN--\":15:17   */\n      0x40\n        /* \"--CODEGEN--\":10:13   */\n      dup2\n        /* \"--CODEGEN--\":7:18   */\n      lt\n        /* \"--CODEGEN--\":4:6   */\n      iszero\n      tag_5\n      jumpi\n        /* \"--CODEGEN--\":31:32   */\n      0x00\n        /* \"--CODEGEN--\":28:29   */\n      dup1\n        /* \"--CODEGEN--\":21:33   */\n      revert\n        /* \"--CODEGEN--\":4:6   */\n    tag_5:\n        /* \"ethereum-crosschain-contract/contracts/utils/SafeMath.sol\":618:751  function sub(uint256 a, uint256 b) public pure returns (uint256) {... */\n      dup2\n      add\n      swap1\n      dup1\n      dup1\n      calldataload\n      swap1\n      0x20\n      add\n      swap1\n      swap3\n      swap2\n      swap1\n      dup1\n      calldataload\n      swap1\n      0x20\n      add\n      swap1\n      swap3\n      swap2\n      swap1\n      pop\n      pop\n      pop\n      tag_6\n      jump\t// in\n    tag_4:\n      mload(0x40)\n      dup1\n      dup3\n      dup2\n      mstore\n      0x20\n      add\n      swap2\n      pop\n      pop\n      mload(0x40)\n      dup1\n      swap2\n      sub\n      swap1\n      return\n    tag_6:\n        /* \"ethereum-crosschain-contract/contracts/utils/SafeMath.sol\":674:681  uint256 */\n      0x00\n        /* \"ethereum-crosschain-contract/contracts/utils/SafeMath.sol\":700:744  _sub(a, b, \"SafeMath: subtraction overflow\") */\n      tag_8\n        /* \"ethereum-crosschain-contract/contracts/utils/SafeMath.sol\":705:706  a */\n      dup4\n        /* \"ethereum-crosschain-contract/contracts/utils/SafeMath.sol\":708:709  b */\n      dup4\n        /* \"ethereum-crosschain-contract/contracts/utils/SafeMath.sol\":700:744  _sub(a, b, \"SafeMath: subtraction overflow\") */\n      mload(0x40)\n      dup1\n      0x40\n      add\n      0x40\n      mstore\n      dup1\n      0x1e\n      dup2\n      mstore\n      0x20\n      add\n      0x536166654d6174683a207375627472616374696f6e206f766572666c6f770000\n      dup2\n      mstore\n      pop\n        /* \"ethereum-crosschain-contract/contracts/utils/SafeMath.sol\":700:704  _sub */\n      tag_9\n        /* \"ethereum-crosschain-contract/contracts/utils/SafeMath.sol\":700:744  _sub(a, b, \"SafeMath: subtraction overflow\") */\n      jump\t// in\n    tag_8:\n        /* \"ethereum-crosschain-contract/contracts/utils/SafeMath.sol\":693:744  return _sub(a, b, \"SafeMath: subtraction overflow\") */\n      swap1\n      pop\n        /* \"ethereum-crosschain-contract/contracts/utils/SafeMath.sol\":618:751  function sub(uint256 a, uint256 b) public pure returns (uint256) {... */\n      swap3\n      swap2\n      pop\n      pop\n      jump\t// out\n        /* \"ethereum-crosschain-contract/contracts/utils/SafeMath.sol\":1035:1223  function _sub(uint256 a, uint256 b, string memory errorMessage) internal pure returns (uint256) {... */\n    tag_9:\n        /* \"ethereum-crosschain-contract/contracts/utils/SafeMath.sol\":1122:1129  uint256 */\n      0x00\n        /* \"ethereum-crosschain-contract/contracts/utils/SafeMath.sol\":1154:1155  a */\n      dup4\n        /* \"ethereum-crosschain-contract/contracts/utils/SafeMath.sol\":1149:1150  b */\n      dup4\n        /* \"ethereum-crosschain-contract/contracts/utils/SafeMath.sol\":1149:1155  b <= a */\n      gt\n      iszero\n        /* \"ethereum-crosschain-contract/contracts/utils/SafeMath.sol\":1157:1169  errorMessage */\n      dup3\n        /* \"ethereum-crosschain-contract/contracts/utils/SafeMath.sol\":1141:1170  require(b <= a, errorMessage) */\n      swap1\n      tag_11\n      jumpi\n      mload(0x40)\n      0x08c379a000000000000000000000000000000000000000000000000000000000\n      dup2\n      mstore\n      0x04\n      add\n      dup1\n      dup1\n      0x20\n      add\n      dup3\n      dup2\n      sub\n      dup3\n      mstore\n      dup4\n      dup2\n      dup2\n      mload\n      dup2\n      mstore\n      0x20\n      add\n      swap2\n      pop\n      dup1\n      mload\n      swap1\n      0x20\n      add\n      swap1\n      dup1\n      dup4\n      dup4\n        /* \"--CODEGEN--\":23:24   */\n      0x00\n        /* \"--CODEGEN--\":8:108   */\n    tag_12:\n        /* \"--CODEGEN--\":33:36   */\n      dup4\n        /* \"--CODEGEN--\":30:31   */\n      dup2\n        /* \"--CODEGEN--\":27:37   */\n      lt\n        /* \"--CODEGEN--\":8:108   */\n      iszero\n      tag_14\n      jumpi\n        /* \"--CODEGEN--\":99:100   */\n      dup1\n        /* \"--CODEGEN--\":94:97   */\n      dup3\n        /* \"--CODEGEN--\":90:101   */\n      add\n        /* \"--CODEGEN--\":84:102   */\n      mload\n        /* \"--CODEGEN--\":80:81   */\n      dup2\n        /* \"--CODEGEN--\":75:78   */\n      dup5\n        /* \"--CODEGEN--\":71:82   */\n      add\n        /* \"--CODEGEN--\":64:103   */\n      mstore\n        /* \"--CODEGEN--\":52:54   */\n      0x20\n        /* \"--CODEGEN--\":49:50   */\n      dup2\n        /* \"--CODEGEN--\":45:55   */\n      add\n        /* \"--CODEGEN--\":40:55   */\n      swap1\n      pop\n        /* \"--CODEGEN--\":8:108   */\n      jump(tag_12)\n    tag_14:\n        /* \"--CODEGEN--\":12:26   */\n      pop\n        /* \"ethereum-crosschain-contract/contracts/utils/SafeMath.sol\":1141:1170  require(b <= a, errorMessage) */\n      pop\n      pop\n      pop\n      swap1\n      pop\n      swap1\n      dup2\n      add\n      swap1\n      0x1f\n      and\n      dup1\n      iszero\n      tag_15\n      jumpi\n      dup1\n      dup3\n      sub\n      dup1\n      mload\n      0x01\n      dup4\n      0x20\n      sub\n      0x0100\n      exp\n      sub\n      not\n      and\n      dup2\n      mstore\n      0x20\n      add\n      swap2\n      pop\n    tag_15:\n      pop\n      swap3\n      pop\n      pop\n      pop\n      mload(0x40)\n      dup1\n      swap2\n      sub\n      swap1\n      revert\n    tag_11:\n      pop\n        /* \"ethereum-crosschain-contract/contracts/utils/SafeMath.sol\":1180:1189  uint256 c */\n      0x00\n        /* \"ethereum-crosschain-contract/contracts/utils/SafeMath.sol\":1196:1197  b */\n      dup4\n        /* \"ethereum-crosschain-contract/contracts/utils/SafeMath.sol\":1192:1193  a */\n      dup6\n        /* \"ethereum-crosschain-contract/contracts/utils/SafeMath.sol\":1192:1197  a - b */\n      sub\n        /* \"ethereum-crosschain-contract/contracts/utils/SafeMath.sol\":1180:1197  uint256 c = a - b */\n      swap1\n      pop\n        /* \"ethereum-crosschain-contract/contracts/utils/SafeMath.sol\":1215:1216  c */\n      dup1\n        /* \"ethereum-crosschain-contract/contracts/utils/SafeMath.sol\":1208:1216  return c */\n      swap2\n      pop\n      pop\n        /* \"ethereum-crosschain-contract/contracts/utils/SafeMath.sol\":1035:1223  function _sub(uint256 a, uint256 b, string memory errorMessage) internal pure returns (uint256) {... */\n      swap4\n      swap3\n      pop\n      pop\n      pop\n      jump\t// out\n\n    auxdata: 0xa2646970667358221220ee7b657048a4c753b4ed4b8efef1243437f4f24b89a96d76ac7809f1bd95274464736f6c63430006040033\n}\n",
				"bytecode": {
					"linkReferences": {},
					"object": "608060405234801561001057600080fd5b506101bc806100206000396000f3fe608060405234801561001057600080fd5b506004361061002b5760003560e01c8063b67d77c514610030575b600080fd5b6100666004803603604081101561004657600080fd5b81019080803590602001909291908035906020019092919050505061007c565b6040518082815260200191505060405180910390f35b60006100be83836040518060400160405280601e81526020017f536166654d6174683a207375627472616374696f6e206f766572666c6f7700008152506100c6565b905092915050565b6000838311158290610173576040517f08c379a00000000000000000000000000000000000000000000000000000000081526004018080602001828103825283818151815260200191508051906020019080838360005b8381101561013857808201518184015260208101905061011d565b50505050905090810190601f1680156101655780820380516001836020036101000a031916815260200191505b509250505060405180910390fd5b506000838503905080915050939250505056fea2646970667358221220ee7b657048a4c753b4ed4b8efef1243437f4f24b89a96d76ac7809f1bd95274464736f6c63430006040033",
					"opcodes": "PUSH1 0x80 PUSH1 0x40 MSTORE CALLVALUE DUP1 ISZERO PUSH2 0x10 JUMPI PUSH1 0x0 DUP1 REVERT JUMPDEST POP PUSH2 0x1BC DUP1 PUSH2 0x20 PUSH1 0x0 CODECOPY PUSH1 0x0 RETURN INVALID PUSH1 0x80 PUSH1 0x40 MSTORE CALLVALUE DUP1 ISZERO PUSH2 0x10 JUMPI PUSH1 0x0 DUP1 REVERT JUMPDEST POP PUSH1 0x4 CALLDATASIZE LT PUSH2 0x2B JUMPI PUSH1 0x0 CALLDATALOAD PUSH1 0xE0 SHR DUP1 PUSH4 0xB67D77C5 EQ PUSH2 0x30 JUMPI JUMPDEST PUSH1 0x0 DUP1 REVERT JUMPDEST PUSH2 0x66 PUSH1 0x4 DUP1 CALLDATASIZE SUB PUSH1 0x40 DUP2 LT ISZERO PUSH2 0x46 JUMPI PUSH1 0x0 DUP1 REVERT JUMPDEST DUP2 ADD SWAP1 DUP1 DUP1 CALLDATALOAD SWAP1 PUSH1 0x20 ADD SWAP1 SWAP3 SWAP2 SWAP1 DUP1 CALLDATALOAD SWAP1 PUSH1 0x20 ADD SWAP1 SWAP3 SWAP2 SWAP1 POP POP POP PUSH2 0x7C JUMP JUMPDEST PUSH1 0x40 MLOAD DUP1 DUP3 DUP2 MSTORE PUSH1 0x20 ADD SWAP2 POP POP PUSH1 0x40 MLOAD DUP1 SWAP2 SUB SWAP1 RETURN JUMPDEST PUSH1 0x0 PUSH2 0xBE DUP4 DUP4 PUSH1 0x40 MLOAD DUP1 PUSH1 0x40 ADD PUSH1 0x40 MSTORE DUP1 PUSH1 0x1E DUP2 MSTORE PUSH1 0x20 ADD PUSH32 0x536166654D6174683A207375627472616374696F6E206F766572666C6F770000 DUP2 MSTORE POP PUSH2 0xC6 JUMP JUMPDEST SWAP1 POP SWAP3 SWAP2 POP POP JUMP JUMPDEST PUSH1 0x0 DUP4 DUP4 GT ISZERO DUP3 SWAP1 PUSH2 0x173 JUMPI PUSH1 0x40 MLOAD PUSH32 0x8C379A000000000000000000000000000000000000000000000000000000000 DUP2 MSTORE PUSH1 0x4 ADD DUP1 DUP1 PUSH1 0x20 ADD DUP3 DUP2 SUB DUP3 MSTORE DUP4 DUP2 DUP2 MLOAD DUP2 MSTORE PUSH1 0x20 ADD SWAP2 POP DUP1 MLOAD SWAP1 PUSH1 0x20 ADD SWAP1 DUP1 DUP4 DUP4 PUSH1 0x0 JUMPDEST DUP4 DUP2 LT ISZERO PUSH2 0x138 JUMPI DUP1 DUP3 ADD MLOAD DUP2 DUP5 ADD MSTORE PUSH1 0x20 DUP2 ADD SWAP1 POP PUSH2 0x11D JUMP JUMPDEST POP POP POP POP SWAP1 POP SWAP1 DUP2 ADD SWAP1 PUSH1 0x1F AND DUP1 ISZERO PUSH2 0x165 JUMPI DUP1 DUP3 SUB DUP1 MLOAD PUSH1 0x1 DUP4 PUSH1 0x20 SUB PUSH2 0x100 EXP SUB NOT AND DUP2 MSTORE PUSH1 0x20 ADD SWAP2 POP JUMPDEST POP SWAP3 POP POP POP PUSH1 0x40 MLOAD DUP1 SWAP2 SUB SWAP1 REVERT JUMPDEST POP PUSH1 0x0 DUP4 DUP6 SUB SWAP1 POP DUP1 SWAP2 POP POP SWAP4 SWAP3 POP POP POP JUMP INVALID LOG2 PUSH5 0x6970667358 0x22 SLT KECCAK256 0xEE PUSH28 0x657048A4C753B4ED4B8EFEF1243437F4F24B89A96D76AC7809F1BD95 0x27 DIFFICULTY PUSH5 0x736F6C6343 STOP MOD DIV STOP CALLER "
				},
				"gasEstimates": {
					"creation": {
						"codeDepositCost": "88800",
						"executionCost": "135",
						"totalCost": "88935"
					},
					"external": {
						"sub(uint256,uint256)": "infinite"
					},
					"internal": {
						"_sub(uint256,uint256,string memory)": "infinite"
					}
				},
				"methodIdentifiers": {
					"sub(uint256,uint256)": "b67d77c5"
				}
			},
			"storageLayout": {
				"storage": [],
				"types": null
			},
			"userdoc": {
				"methods": {}
			}
		}
	}
}