{
	"ethereum-crosschain-contract/contracts/Bridge.sol": {
		"Bridge": {
			"abi": [
				{
					"anonymous": false,
					"inputs": [
						{
							"indexed": false,
							"internalType": "bytes8",
							"name": "originChainID",
							"type": "bytes8"
						},
						{
							"indexed": true,
							"internalType": "bytes8",
							"name": "destinationChainID",
							"type": "bytes8"
						},
						{
							"indexed": true,
							"internalType": "bytes32",
							"name": "resourceID",
							"type": "bytes32"
						},
						{
							"indexed": true,
							"internalType": "uint64",
							"name": "depositNonce",
							"type": "uint64"
						},
						{
							"indexed": false,
							"internalType": "address",
							"name": "depositor",
							"type": "address"
						},
						{
							"indexed": false,
							"internalType": "address",
							"name": "recipientAddress",
							"type": "address"
						},
						{
							"indexed": false,
							"internalType": "address",
							"name": "tokenAddress",
							"type": "address"
						},
						{
							"indexed": false,
							"internalType": "uint256",
							"name": "amount",
							"type": "uint256"
						},
						{
							"indexed": false,
							"internalType": "bytes32",
							"name": "dataHash",
							"type": "bytes32"
						}
					],
					"name": "Deposit",
					"type": "event"
				},
				{
					"anonymous": false,
					"inputs": [
						{
							"indexed": false,
							"internalType": "bytes8",
							"name": "originChainID",
							"type": "bytes8"
						},
						{
							"indexed": false,
							"internalType": "bytes8",
							"name": "destinationChainID",
							"type": "bytes8"
						},
						{
							"indexed": false,
							"internalType": "uint64",
							"name": "depositNonce",
							"type": "uint64"
						},
						{
							"indexed": false,
							"internalType": "bytes32",
							"name": "resourceID",
							"type": "bytes32"
						},
						{
							"indexed": false,
							"internalType": "address",
							"name": "recipientAddress",
							"type": "address"
						},
						{
							"indexed": false,
							"internalType": "uint256",
							"name": "amount",
							"type": "uint256"
						}
					],
					"name": "ExtraFeeSupplied",
					"type": "event"
				},
				{
					"anonymous": false,
					"inputs": [
						{
							"indexed": true,
							"internalType": "address",
							"name": "previousOwner",
							"type": "address"
						},
						{
							"indexed": true,
							"internalType": "address",
							"name": "newOwner",
							"type": "address"
						}
					],
					"name": "OwnershipTransferred",
					"type": "event"
				},
				{
					"anonymous": false,
					"inputs": [
						{
							"indexed": false,
							"internalType": "address",
							"name": "account",
							"type": "address"
						}
					],
					"name": "Paused",
					"type": "event"
				},
				{
					"anonymous": false,
					"inputs": [
						{
							"indexed": true,
							"internalType": "bytes8",
							"name": "originChainID",
							"type": "bytes8"
						},
						{
							"indexed": true,
							"internalType": "bytes8",
							"name": "destinationChainID",
							"type": "bytes8"
						},
						{
							"indexed": true,
							"internalType": "address",
							"name": "recipientAddress",
							"type": "address"
						},
						{
							"indexed": false,
							"internalType": "uint256",
							"name": "amount",
							"type": "uint256"
						},
						{
							"indexed": false,
							"internalType": "uint64",
							"name": "depositNonce",
							"type": "uint64"
						},
						{
							"indexed": false,
							"internalType": "enum Bridge.ProposalStatus",
							"name": "status",
							"type": "uint8"
						},
						{
							"indexed": false,
							"internalType": "bytes32",
							"name": "resourceID",
							"type": "bytes32"
						},
						{
							"indexed": false,
							"internalType": "bytes32",
							"name": "dataHash",
							"type": "bytes32"
						}
					],
					"name": "ProposalEvent",
					"type": "event"
				},
				{
					"anonymous": false,
					"inputs": [
						{
							"indexed": false,
							"internalType": "address",
							"name": "account",
							"type": "address"
						}
					],
					"name": "Unpaused",
					"type": "event"
				},
				{
					"inputs": [],
					"name": "_backendSrvAddress",
					"outputs": [
						{
							"internalType": "address",
							"name": "",
							"type": "address"
						}
					],
					"stateMutability": "view",
					"type": "function"
				},
				{
					"inputs": [],
					"name": "_chainID",
					"outputs": [
						{
							"internalType": "bytes8",
							"name": "",
							"type": "bytes8"
						}
					],
					"stateMutability": "view",
					"type": "function"
				},
				{
					"inputs": [
						{
							"internalType": "bytes8",
							"name": "",
							"type": "bytes8"
						}
					],
					"name": "_depositCounts",
					"outputs": [
						{
							"internalType": "uint64",
							"name": "",
							"type": "uint64"
						}
					],
					"stateMutability": "view",
					"type": "function"
				},
				{
					"inputs": [
						{
							"internalType": "uint64",
							"name": "",
							"type": "uint64"
						},
						{
							"internalType": "bytes8",
							"name": "",
							"type": "bytes8"
						}
					],
					"name": "_depositRecords",
					"outputs": [
						{
							"internalType": "bytes",
							"name": "",
							"type": "bytes"
						}
					],
					"stateMutability": "view",
					"type": "function"
				},
				{
					"inputs": [
						{
							"internalType": "bytes32",
							"name": "",
							"type": "bytes32"
						},
						{
							"internalType": "bytes32",
							"name": "",
							"type": "bytes32"
						}
					],
					"name": "_executedProposals",
					"outputs": [
						{
							"internalType": "bool",
							"name": "",
							"type": "bool"
						}
					],
					"stateMutability": "view",
					"type": "function"
				},
				{
					"inputs": [],
					"name": "_fee",
					"outputs": [
						{
							"internalType": "uint256",
							"name": "",
							"type": "uint256"
						}
					],
					"stateMutability": "view",
					"type": "function"
				},
				{
					"inputs": [],
					"name": "_isInitialised",
					"outputs": [
						{
							"internalType": "bool",
							"name": "",
							"type": "bool"
						}
					],
					"stateMutability": "view",
					"type": "function"
				},
				{
					"inputs": [],
					"name": "_nativeResourceID",
					"outputs": [
						{
							"internalType": "bytes32",
							"name": "",
							"type": "bytes32"
						}
					],
					"stateMutability": "view",
					"type": "function"
				},
				{
					"inputs": [
						{
							"internalType": "bytes32",
							"name": "",
							"type": "bytes32"
						}
					],
					"name": "_resourceIDToHandlerAddress",
					"outputs": [
						{
							"internalType": "address",
							"name": "",
							"type": "address"
						}
					],
					"stateMutability": "view",
					"type": "function"
				},
				{
					"inputs": [
						{
							"internalType": "address payable",
							"name": "recipient",
							"type": "address"
						},
						{
							"internalType": "uint256",
							"name": "amount",
							"type": "uint256"
						}
					],
					"name": "adminCollectFees",
					"outputs": [],
					"stateMutability": "nonpayable",
					"type": "function"
				},
				{
					"inputs": [],
					"name": "adminPauseTransfers",
					"outputs": [],
					"stateMutability": "nonpayable",
					"type": "function"
				},
				{
					"inputs": [],
					"name": "adminUnpauseTransfers",
					"outputs": [],
					"stateMutability": "nonpayable",
					"type": "function"
				},
				{
					"inputs": [
						{
							"internalType": "address",
							"name": "handlerAddress",
							"type": "address"
						},
						{
							"internalType": "address",
							"name": "tokenAddress",
							"type": "address"
						},
						{
							"internalType": "address",
							"name": "recipient",
							"type": "address"
						},
						{
							"internalType": "uint256",
							"name": "amountOrTokenID",
							"type": "uint256"
						}
					],
					"name": "adminWithdraw",
					"outputs": [],
					"stateMutability": "nonpayable",
					"type": "function"
				},
				{
					"inputs": [
						{
							"internalType": "bytes32",
							"name": "resourceIDOwner",
							"type": "bytes32"
						},
						{
							"internalType": "bytes32",
							"name": "resourceIDSpender",
							"type": "bytes32"
						},
						{
							"internalType": "uint256",
							"name": "amountOrTokenID",
							"type": "uint256"
						}
					],
					"name": "approveSpending",
					"outputs": [],
					"stateMutability": "nonpayable",
					"type": "function"
				},
				{
					"inputs": [
						{
							"internalType": "uint256",
							"name": "newFee",
							"type": "uint256"
						}
					],
					"name": "changeFee",
					"outputs": [],
					"stateMutability": "nonpayable",
					"type": "function"
				},
				{
					"inputs": [
						{
							"internalType": "bytes8",
							"name": "destinationChainID",
							"type": "bytes8"
						},
						{
							"internalType": "bytes32",
							"name": "resourceID",
							"type": "bytes32"
						},
						{
							"internalType": "uint256",
							"name": "amount",
							"type": "uint256"
						},
						{
							"internalType": "address",
							"name": "recipientAddress",
							"type": "address"
						},
						{
							"internalType": "uint256",
							"name": "amountToLA",
							"type": "uint256"
						},
						{
							"internalType": "bytes",
							"name": "params",
							"type": "bytes"
						}
					],
					"name": "deposit",
					"outputs": [],
					"stateMutability": "payable",
					"type": "function"
				},
				{
					"inputs": [],
					"name": "depositFunds",
					"outputs": [],
					"stateMutability": "payable",
					"type": "function"
				},
				{
					"inputs": [
						{
							"internalType": "bytes8",
							"name": "originChainID",
							"type": "bytes8"
						},
						{
							"internalType": "bytes8",
							"name": "destinationChainID",
							"type": "bytes8"
						},
						{
							"internalType": "uint64",
							"name": "depositNonce",
							"type": "uint64"
						},
						{
							"internalType": "bytes32",
							"name": "resourceID",
							"type": "bytes32"
						},
						{
							"internalType": "address payable",
							"name": "recipientAddress",
							"type": "address"
						},
						{
							"internalType": "uint256",
							"name": "amount",
							"type": "uint256"
						},
						{
							"internalType": "bytes",
							"name": "params",
							"type": "bytes"
						}
					],
					"name": "executeProposal",
					"outputs": [],
					"stateMutability": "nonpayable",
					"type": "function"
				},
				{
					"inputs": [
						{
							"internalType": "address",
							"name": "",
							"type": "address"
						}
					],
					"name": "handlers",
					"outputs": [
						{
							"internalType": "bool",
							"name": "",
							"type": "bool"
						}
					],
					"stateMutability": "view",
					"type": "function"
				},
				{
					"inputs": [
						{
							"internalType": "bytes8",
							"name": "chainID",
							"type": "bytes8"
						},
						{
							"internalType": "uint256",
							"name": "fee",
							"type": "uint256"
						},
						{
							"internalType": "address",
							"name": "initBackendSrvAddress",
							"type": "address"
						}
					],
					"name": "initialize",
					"outputs": [],
					"stateMutability": "nonpayable",
					"type": "function"
				},
				{
					"inputs": [
						{
							"internalType": "bytes8",
							"name": "destinationChainID",
							"type": "bytes8"
						},
						{
							"internalType": "bytes32",
							"name": "resourceID",
							"type": "bytes32"
						},
						{
							"internalType": "uint256",
							"name": "amount",
							"type": "uint256"
						},
						{
							"internalType": "address",
							"name": "recipientAddress",
							"type": "address"
						}
					],
					"name": "internalDeposit",
					"outputs": [],
					"stateMutability": "nonpayable",
					"type": "function"
				},
				{
					"inputs": [
						{
							"internalType": "address",
							"name": "owner",
							"type": "address"
						}
					],
					"name": "ownableInit",
					"outputs": [],
					"stateMutability": "nonpayable",
					"type": "function"
				},
				{
					"inputs": [],
					"name": "owner",
					"outputs": [
						{
							"internalType": "address",
							"name": "",
							"type": "address"
						}
					],
					"stateMutability": "view",
					"type": "function"
				},
				{
					"inputs": [],
					"name": "paused",
					"outputs": [
						{
							"internalType": "bool",
							"name": "",
							"type": "bool"
						}
					],
					"stateMutability": "view",
					"type": "function"
				},
				{
					"inputs": [],
					"name": "renounceOwnership",
					"outputs": [],
					"stateMutability": "nonpayable",
					"type": "function"
				},
				{
					"inputs": [
						{
							"internalType": "address",
							"name": "newBackendSrv",
							"type": "address"
						}
					],
					"name": "setBackendSrv",
					"outputs": [],
					"stateMutability": "nonpayable",
					"type": "function"
				},
				{
					"inputs": [
						{
							"internalType": "address",
							"name": "handlerAddress",
							"type": "address"
						},
						{
							"internalType": "address",
							"name": "tokenAddress",
							"type": "address"
						}
					],
					"name": "setBurnable",
					"outputs": [],
					"stateMutability": "nonpayable",
					"type": "function"
				},
				{
					"inputs": [
						{
							"internalType": "address",
							"name": "_handler",
							"type": "address"
						},
						{
							"internalType": "bool",
							"name": "value",
							"type": "bool"
						}
					],
					"name": "setHandler",
					"outputs": [],
					"stateMutability": "nonpayable",
					"type": "function"
				},
				{
					"inputs": [
						{
							"internalType": "bytes32",
							"name": "resourceID",
							"type": "bytes32"
						}
					],
					"name": "setNativeResourceID",
					"outputs": [],
					"stateMutability": "nonpayable",
					"type": "function"
				},
				{
					"inputs": [
						{
							"internalType": "address",
							"name": "handlerAddress",
							"type": "address"
						},
						{
							"internalType": "bytes32",
							"name": "resourceID",
							"type": "bytes32"
						},
						{
							"internalType": "address",
							"name": "tokenAddress",
							"type": "address"
						}
					],
					"name": "setResource",
					"outputs": [],
					"stateMutability": "nonpayable",
					"type": "function"
				},
				{
					"inputs": [
						{
							"internalType": "uint256",
							"name": "a",
							"type": "uint256"
						},
						{
							"internalType": "uint256",
							"name": "b",
							"type": "uint256"
						}
					],
					"name": "sub",
					"outputs": [
						{
							"internalType": "uint256",
							"name": "",
							"type": "uint256"
						}
					],
					"stateMutability": "pure",
					"type": "function"
				},
				{
					"inputs": [
						{
							"internalType": "address",
							"name": "newOwner",
							"type": "address"
						}
					],
					"name": "transferOwnership",
					"outputs": [],
					"stateMutability": "nonpayable",
					"type": "function"
				}
			],
			"devdoc": {
				"methods": {
					"adminCollectFees(address,uint256)": {
						"details": "can only be called by owner",
						"params": {
							"amount": "will be trasnfered to owner if contract balace is higher or equal to amount"
						}
					},
					"adminWithdraw(address,address,address,uint256)": {
						"params": {
							"amountOrTokenID": "Either the amount of ERC20 tokens or the ERC721 token ID to withdraw.",
							"handlerAddress": "Address of handler to withdraw from.",
							"recipient": "Address to withdraw tokens to.",
							"tokenAddress": "Address of token to withdraw."
						}
					},
					"approveSpending(bytes32,bytes32,uint256)": {
						"params": {
							"amountOrTokenID": "Either the amount of ERC20 tokens or the ERC721 token ID to approve.",
							"resourceIDOwner": "ID of owner handler.",
							"resourceIDSpender": "ID of spender handler."
						}
					},
					"changeFee(uint256)": {
						"params": {
							"newFee": "Value {_fee} will be updated to."
						}
					},
					"deposit(bytes8,bytes32,uint256,address,uint256,bytes)": {
						"params": {
							"amountToLA": "to be converted to LA with bridge swap.",
							"destinationChainID": "ID of chain deposit will be bridged to.",
							"resourceID": "ResourceID used to find address of handler to be used for deposit."
						}
					},
					"depositFunds()": {
						"details": "to be called by admin"
					},
					"executeProposal(bytes8,bytes8,uint64,bytes32,address,uint256,bytes)": {
						"params": {
							"depositNonce": "ID of deposited generated by origin Bridge contract.",
							"destinationChainID": "ID of chain where proposal is executed.",
							"resourceID": "ResourceID to be used when making deposits."
						}
					},
					"initialize(bytes8,uint256,address)": {
						"params": {
							"chainID": "ID of chain the Bridge contract exists on."
						}
					},
					"ownableInit(address)": {
						"details": "Initializes the contract setting the deployer as the initial owner."
					},
					"owner()": {
						"details": "Returns the address of the current owner."
					},
					"paused()": {
						"details": "Returns true if the contract is paused, and false otherwise."
					},
					"renounceOwnership()": {
						"details": "Leaves the contract without owner. It will not be possible to call `onlyOwner` functions anymore. Can only be called by the current owner.     * NOTE: Renouncing ownership will leave the contract without an owner, thereby removing any functionality that is only available to the owner."
					},
					"setBackendSrv(address)": {
						"params": {
							"newBackendSrv": "Address of new backend srv."
						}
					},
					"setBurnable(address,address)": {
						"params": {
							"handlerAddress": "Address of handler resource will be set for.",
							"tokenAddress": "Address of contract to be called when a deposit is made and a deposited is executed."
						}
					},
					"setNativeResourceID(bytes32)": {
						"details": "can only be called through admin address",
						"params": {
							"resourceID": "resourceID for native token"
						}
					},
					"setResource(address,bytes32,address)": {
						"params": {
							"handlerAddress": "Address of handler resource will be set for.",
							"resourceID": "ResourceID to be used when making deposits.",
							"tokenAddress": "Address of contract to be called when a deposit is made and a deposited is executed."
						}
					},
					"sub(uint256,uint256)": {
						"details": "Returns the subtraction of two unsigned integers, reverting on overflow (when the result is negative).     * Counterpart to Solidity's `-` operator.     * Requirements: - Subtraction cannot overflow."
					},
					"transferOwnership(address)": {
						"details": "Transfers ownership of the contract to a new account (`newOwner`). Can only be called by the current owner."
					}
				},
				"title": "Facilitates deposits, creation and votiing of deposit proposals, and deposit executions."
			},
			"evm": {
				"assembly": "    /* \"ethereum-crosschain-contract/contracts/Bridge.sol\":386:13644  contract Bridge is Pausable, SafeMathContract, UpgradableOwnable {... */\n  mstore(0x40, 0x80)\n  callvalue\n    /* \"--CODEGEN--\":5:14   */\n  dup1\n    /* \"--CODEGEN--\":2:4   */\n  iszero\n  tag_1\n  jumpi\n    /* \"--CODEGEN--\":27:28   */\n  0x00\n    /* \"--CODEGEN--\":24:25   */\n  dup1\n    /* \"--CODEGEN--\":17:29   */\n  revert\n    /* \"--CODEGEN--\":2:4   */\ntag_1:\n    /* \"ethereum-crosschain-contract/contracts/Bridge.sol\":386:13644  contract Bridge is Pausable, SafeMathContract, UpgradableOwnable {... */\n  pop\n  dataSize(sub_0)\n  dup1\n  dataOffset(sub_0)\n  0x00\n  codecopy\n  0x00\n  return\nstop\n\nsub_0: assembly {\n        /* \"ethereum-crosschain-contract/contracts/Bridge.sol\":386:13644  contract Bridge is Pausable, SafeMathContract, UpgradableOwnable {... */\n      mstore(0x40, 0x80)\n      jumpi(tag_1, lt(calldatasize, 0x04))\n      shr(0xe0, calldataload(0x00))\n      dup1\n      0x9c1650e0\n      gt\n      tag_34\n      jumpi\n      dup1\n      0xdd2e8ec3\n      gt\n      tag_35\n      jumpi\n      dup1\n      0xe4e21fce\n      gt\n      tag_36\n      jumpi\n      dup1\n      0xe4e21fce\n      eq\n      tag_30\n      jumpi\n      dup1\n      0xea439b2b\n      eq\n      tag_31\n      jumpi\n      dup1\n      0xf2fde38b\n      eq\n      tag_32\n      jumpi\n      dup1\n      0xffaac0eb\n      eq\n      tag_33\n      jumpi\n      jump(tag_1)\n    tag_36:\n      dup1\n      0xdd2e8ec3\n      eq\n      tag_26\n      jumpi\n      dup1\n      0xde771b31\n      eq\n      tag_27\n      jumpi\n      dup1\n      0xdf0fc133\n      eq\n      tag_28\n      jumpi\n      dup1\n      0xe2c41dbc\n      eq\n      tag_29\n      jumpi\n      jump(tag_1)\n    tag_35:\n      dup1\n      0xa737be4f\n      gt\n      tag_37\n      jumpi\n      dup1\n      0xa737be4f\n      eq\n      tag_22\n      jumpi\n      dup1\n      0xb67d77c5\n      eq\n      tag_23\n      jumpi\n      dup1\n      0xbeab7131\n      eq\n      tag_24\n      jumpi\n      dup1\n      0xc5b37c22\n      eq\n      tag_25\n      jumpi\n      jump(tag_1)\n    tag_37:\n      dup1\n      0x9c1650e0\n      eq\n      tag_18\n      jumpi\n      dup1\n      0x9cb7de4b\n      eq\n      tag_19\n      jumpi\n      dup1\n      0xa21b952e\n      eq\n      tag_20\n      jumpi\n      dup1\n      0xa48ace38\n      eq\n      tag_21\n      jumpi\n      jump(tag_1)\n    tag_34:\n      dup1\n      0x7a7eed77\n      gt\n      tag_38\n      jumpi\n      dup1\n      0x8d225943\n      gt\n      tag_39\n      jumpi\n      dup1\n      0x8d225943\n      eq\n      tag_14\n      jumpi\n      dup1\n      0x8da5cb5b\n      eq\n      tag_15\n      jumpi\n      dup1\n      0x8ece6f27\n      eq\n      tag_16\n      jumpi\n      dup1\n      0x92c6ecf2\n      eq\n      tag_17\n      jumpi\n      jump(tag_1)\n    tag_39:\n      dup1\n      0x7a7eed77\n      eq\n      tag_10\n      jumpi\n      dup1\n      0x7f5d6a5e\n      eq\n      tag_11\n      jumpi\n      dup1\n      0x80ae1c28\n      eq\n      tag_12\n      jumpi\n      dup1\n      0x84db809f\n      eq\n      tag_13\n      jumpi\n      jump(tag_1)\n    tag_38:\n      dup1\n      0x5c975abb\n      gt\n      tag_40\n      jumpi\n      dup1\n      0x5c975abb\n      eq\n      tag_6\n      jumpi\n      dup1\n      0x6a1db1bf\n      eq\n      tag_7\n      jumpi\n      dup1\n      0x715018a6\n      eq\n      tag_8\n      jumpi\n      dup1\n      0x780cf004\n      eq\n      tag_9\n      jumpi\n      jump(tag_1)\n    tag_40:\n      dup1\n      0x0bf6096f\n      eq\n      tag_2\n      jumpi\n      dup1\n      0x174e300b\n      eq\n      tag_3\n      jumpi\n      dup1\n      0x1a21c0bc\n      eq\n      tag_4\n      jumpi\n      dup1\n      0x21016ed8\n      eq\n      tag_5\n      jumpi\n    tag_1:\n        /* \"--CODEGEN--\":12:13   */\n      0x00\n        /* \"--CODEGEN--\":9:10   */\n      dup1\n        /* \"--CODEGEN--\":2:14   */\n      revert\n        /* \"ethereum-crosschain-contract/contracts/Bridge.sol\":3172:3293  function setBackendSrv(address newBackendSrv) external onlyBackendSrv {... */\n    tag_2:\n      callvalue\n        /* \"--CODEGEN--\":5:14   */\n      dup1\n        /* \"--CODEGEN--\":2:4   */\n      iszero\n      tag_41\n      jumpi\n        /* \"--CODEGEN--\":27:28   */\n      0x00\n        /* \"--CODEGEN--\":24:25   */\n      dup1\n        /* \"--CODEGEN--\":17:29   */\n      revert\n        /* \"--CODEGEN--\":2:4   */\n    tag_41:\n        /* \"ethereum-crosschain-contract/contracts/Bridge.sol\":3172:3293  function setBackendSrv(address newBackendSrv) external onlyBackendSrv {... */\n      pop\n      tag_42\n      0x04\n      dup1\n      calldatasize\n      sub\n      dup2\n      add\n      swap1\n      tag_43\n      swap2\n      swap1\n      jump(tag_44)\n    tag_43:\n      tag_45\n      jump\t// in\n    tag_42:\n      stop\n        /* \"ethereum-crosschain-contract/contracts/Bridge.sol\":756:803  mapping(bytes8 => uint64) public _depositCounts */\n    tag_3:\n      callvalue\n        /* \"--CODEGEN--\":5:14   */\n      dup1\n        /* \"--CODEGEN--\":2:4   */\n      iszero\n      tag_46\n      jumpi\n        /* \"--CODEGEN--\":27:28   */\n      0x00\n        /* \"--CODEGEN--\":24:25   */\n      dup1\n        /* \"--CODEGEN--\":17:29   */\n      revert\n        /* \"--CODEGEN--\":2:4   */\n    tag_46:\n        /* \"ethereum-crosschain-contract/contracts/Bridge.sol\":756:803  mapping(bytes8 => uint64) public _depositCounts */\n      pop\n      tag_47\n      0x04\n      dup1\n      calldatasize\n      sub\n      dup2\n      add\n      swap1\n      tag_48\n      swap2\n      swap1\n      jump(tag_49)\n    tag_48:\n      tag_50\n      jump\t// in\n    tag_47:\n      mload(0x40)\n      tag_51\n      swap2\n      swap1\n      jump(tag_52)\n    tag_51:\n      mload(0x40)\n      dup1\n      swap2\n      sub\n      swap1\n      return\n        /* \"ethereum-crosschain-contract/contracts/Bridge.sol\":1175:1215  mapping(address => bool) public handlers */\n    tag_4:\n      callvalue\n        /* \"--CODEGEN--\":5:14   */\n      dup1\n        /* \"--CODEGEN--\":2:4   */\n      iszero\n      tag_53\n      jumpi\n        /* \"--CODEGEN--\":27:28   */\n      0x00\n        /* \"--CODEGEN--\":24:25   */\n      dup1\n        /* \"--CODEGEN--\":17:29   */\n      revert\n        /* \"--CODEGEN--\":2:4   */\n    tag_53:\n        /* \"ethereum-crosschain-contract/contracts/Bridge.sol\":1175:1215  mapping(address => bool) public handlers */\n      pop\n      tag_54\n      0x04\n      dup1\n      calldatasize\n      sub\n      dup2\n      add\n      swap1\n      tag_55\n      swap2\n      swap1\n      jump(tag_44)\n    tag_55:\n      tag_56\n      jump\t// in\n    tag_54:\n      mload(0x40)\n      tag_57\n      swap2\n      swap1\n      jump(tag_58)\n    tag_57:\n      mload(0x40)\n      dup1\n      swap2\n      sub\n      swap1\n      return\n        /* \"ethereum-crosschain-contract/contracts/Bridge.sol\":4914:5034  function setNativeResourceID(bytes32 resourceID) external onlyBackendSrv {... */\n    tag_5:\n      callvalue\n        /* \"--CODEGEN--\":5:14   */\n      dup1\n        /* \"--CODEGEN--\":2:4   */\n      iszero\n      tag_59\n      jumpi\n        /* \"--CODEGEN--\":27:28   */\n      0x00\n        /* \"--CODEGEN--\":24:25   */\n      dup1\n        /* \"--CODEGEN--\":17:29   */\n      revert\n        /* \"--CODEGEN--\":2:4   */\n    tag_59:\n        /* \"ethereum-crosschain-contract/contracts/Bridge.sol\":4914:5034  function setNativeResourceID(bytes32 resourceID) external onlyBackendSrv {... */\n      pop\n      tag_60\n      0x04\n      dup1\n      calldatasize\n      sub\n      dup2\n      add\n      swap1\n      tag_61\n      swap2\n      swap1\n      jump(tag_62)\n    tag_61:\n      tag_63\n      jump\t// in\n    tag_60:\n      stop\n        /* \"ethereum-crosschain-contract/contracts/utils/Pausable.sol\":755:831  function paused() public view returns (bool) {... */\n    tag_6:\n      callvalue\n        /* \"--CODEGEN--\":5:14   */\n      dup1\n        /* \"--CODEGEN--\":2:4   */\n      iszero\n      tag_64\n      jumpi\n        /* \"--CODEGEN--\":27:28   */\n      0x00\n        /* \"--CODEGEN--\":24:25   */\n      dup1\n        /* \"--CODEGEN--\":17:29   */\n      revert\n        /* \"--CODEGEN--\":2:4   */\n    tag_64:\n        /* \"ethereum-crosschain-contract/contracts/utils/Pausable.sol\":755:831  function paused() public view returns (bool) {... */\n      pop\n      tag_65\n      tag_66\n      jump\t// in\n    tag_65:\n      mload(0x40)\n      tag_67\n      swap2\n      swap1\n      jump(tag_58)\n    tag_67:\n      mload(0x40)\n      dup1\n      swap2\n      sub\n      swap1\n      return\n        /* \"ethereum-crosschain-contract/contracts/Bridge.sol\":5799:5956  function changeFee(uint256 newFee) external onlyBackendSrv {... */\n    tag_7:\n      callvalue\n        /* \"--CODEGEN--\":5:14   */\n      dup1\n        /* \"--CODEGEN--\":2:4   */\n      iszero\n      tag_68\n      jumpi\n        /* \"--CODEGEN--\":27:28   */\n      0x00\n        /* \"--CODEGEN--\":24:25   */\n      dup1\n        /* \"--CODEGEN--\":17:29   */\n      revert\n        /* \"--CODEGEN--\":2:4   */\n    tag_68:\n        /* \"ethereum-crosschain-contract/contracts/Bridge.sol\":5799:5956  function changeFee(uint256 newFee) external onlyBackendSrv {... */\n      pop\n      tag_69\n      0x04\n      dup1\n      calldatasize\n      sub\n      dup2\n      add\n      swap1\n      tag_70\n      swap2\n      swap1\n      jump(tag_71)\n    tag_70:\n      tag_72\n      jump\t// in\n    tag_69:\n      stop\n        /* \"ethereum-crosschain-contract/contracts/utils/UpgradableOwnable.sol\":1890:2035  function renounceOwnership() public virtual onlyOwner {... */\n    tag_8:\n      callvalue\n        /* \"--CODEGEN--\":5:14   */\n      dup1\n        /* \"--CODEGEN--\":2:4   */\n      iszero\n      tag_73\n      jumpi\n        /* \"--CODEGEN--\":27:28   */\n      0x00\n        /* \"--CODEGEN--\":24:25   */\n      dup1\n        /* \"--CODEGEN--\":17:29   */\n      revert\n        /* \"--CODEGEN--\":2:4   */\n    tag_73:\n        /* \"ethereum-crosschain-contract/contracts/utils/UpgradableOwnable.sol\":1890:2035  function renounceOwnership() public virtual onlyOwner {... */\n      pop\n      tag_74\n      tag_75\n      jump\t// in\n    tag_74:\n      stop\n        /* \"ethereum-crosschain-contract/contracts/Bridge.sol\":6324:6628  function adminWithdraw(... */\n    tag_9:\n      callvalue\n        /* \"--CODEGEN--\":5:14   */\n      dup1\n        /* \"--CODEGEN--\":2:4   */\n      iszero\n      tag_76\n      jumpi\n        /* \"--CODEGEN--\":27:28   */\n      0x00\n        /* \"--CODEGEN--\":24:25   */\n      dup1\n        /* \"--CODEGEN--\":17:29   */\n      revert\n        /* \"--CODEGEN--\":2:4   */\n    tag_76:\n        /* \"ethereum-crosschain-contract/contracts/Bridge.sol\":6324:6628  function adminWithdraw(... */\n      pop\n      tag_77\n      0x04\n      dup1\n      calldatasize\n      sub\n      dup2\n      add\n      swap1\n      tag_78\n      swap2\n      swap1\n      jump(tag_79)\n    tag_78:\n      tag_80\n      jump\t// in\n    tag_77:\n      stop\n        /* \"ethereum-crosschain-contract/contracts/Bridge.sol\":13211:13476  function adminCollectFees(address payable recipient, uint256 amount) external onlyOwner {... */\n    tag_10:\n      callvalue\n        /* \"--CODEGEN--\":5:14   */\n      dup1\n        /* \"--CODEGEN--\":2:4   */\n      iszero\n      tag_81\n      jumpi\n        /* \"--CODEGEN--\":27:28   */\n      0x00\n        /* \"--CODEGEN--\":24:25   */\n      dup1\n        /* \"--CODEGEN--\":17:29   */\n      revert\n        /* \"--CODEGEN--\":2:4   */\n    tag_81:\n        /* \"ethereum-crosschain-contract/contracts/Bridge.sol\":13211:13476  function adminCollectFees(address payable recipient, uint256 amount) external onlyOwner {... */\n      pop\n      tag_82\n      0x04\n      dup1\n      calldatasize\n      sub\n      dup2\n      add\n      swap1\n      tag_83\n      swap2\n      swap1\n      jump(tag_84)\n    tag_83:\n      tag_85\n      jump\t// in\n    tag_82:\n      stop\n        /* \"ethereum-crosschain-contract/contracts/Bridge.sol\":510:543  address public _backendSrvAddress */\n    tag_11:\n      callvalue\n        /* \"--CODEGEN--\":5:14   */\n      dup1\n        /* \"--CODEGEN--\":2:4   */\n      iszero\n      tag_86\n      jumpi\n        /* \"--CODEGEN--\":27:28   */\n      0x00\n        /* \"--CODEGEN--\":24:25   */\n      dup1\n        /* \"--CODEGEN--\":17:29   */\n      revert\n        /* \"--CODEGEN--\":2:4   */\n    tag_86:\n        /* \"ethereum-crosschain-contract/contracts/Bridge.sol\":510:543  address public _backendSrvAddress */\n      pop\n      tag_87\n      tag_88\n      jump\t// in\n    tag_87:\n      mload(0x40)\n      tag_89\n      swap2\n      swap1\n      jump(tag_90)\n    tag_89:\n      mload(0x40)\n      dup1\n      swap2\n      sub\n      swap1\n      return\n        /* \"ethereum-crosschain-contract/contracts/Bridge.sol\":3481:3556  function adminPauseTransfers() external onlyOwner {... */\n    tag_12:\n      callvalue\n        /* \"--CODEGEN--\":5:14   */\n      dup1\n        /* \"--CODEGEN--\":2:4   */\n      iszero\n      tag_91\n      jumpi\n        /* \"--CODEGEN--\":27:28   */\n      0x00\n        /* \"--CODEGEN--\":24:25   */\n      dup1\n        /* \"--CODEGEN--\":17:29   */\n      revert\n        /* \"--CODEGEN--\":2:4   */\n    tag_91:\n        /* \"ethereum-crosschain-contract/contracts/Bridge.sol\":3481:3556  function adminPauseTransfers() external onlyOwner {... */\n      pop\n      tag_92\n      tag_93\n      jump\t// in\n    tag_92:\n      stop\n        /* \"ethereum-crosschain-contract/contracts/Bridge.sol\":846:908  mapping(bytes32 => address) public _resourceIDToHandlerAddress */\n    tag_13:\n      callvalue\n        /* \"--CODEGEN--\":5:14   */\n      dup1\n        /* \"--CODEGEN--\":2:4   */\n      iszero\n      tag_94\n      jumpi\n        /* \"--CODEGEN--\":27:28   */\n      0x00\n        /* \"--CODEGEN--\":24:25   */\n      dup1\n        /* \"--CODEGEN--\":17:29   */\n      revert\n        /* \"--CODEGEN--\":2:4   */\n    tag_94:\n        /* \"ethereum-crosschain-contract/contracts/Bridge.sol\":846:908  mapping(bytes32 => address) public _resourceIDToHandlerAddress */\n      pop\n      tag_95\n      0x04\n      dup1\n      calldatasize\n      sub\n      dup2\n      add\n      swap1\n      tag_96\n      swap2\n      swap1\n      jump(tag_62)\n    tag_96:\n      tag_97\n      jump\t// in\n    tag_95:\n      mload(0x40)\n      tag_98\n      swap2\n      swap1\n      jump(tag_90)\n    tag_98:\n      mload(0x40)\n      dup1\n      swap2\n      sub\n      swap1\n      return\n        /* \"ethereum-crosschain-contract/contracts/Bridge.sol\":11417:12991  function executeProposal(... */\n    tag_14:\n      callvalue\n        /* \"--CODEGEN--\":5:14   */\n      dup1\n        /* \"--CODEGEN--\":2:4   */\n      iszero\n      tag_99\n      jumpi\n        /* \"--CODEGEN--\":27:28   */\n      0x00\n        /* \"--CODEGEN--\":24:25   */\n      dup1\n        /* \"--CODEGEN--\":17:29   */\n      revert\n        /* \"--CODEGEN--\":2:4   */\n    tag_99:\n        /* \"ethereum-crosschain-contract/contracts/Bridge.sol\":11417:12991  function executeProposal(... */\n      pop\n      tag_100\n      0x04\n      dup1\n      calldatasize\n      sub\n      dup2\n      add\n      swap1\n      tag_101\n      swap2\n      swap1\n      jump(tag_102)\n    tag_101:\n      tag_103\n      jump\t// in\n    tag_100:\n      stop\n        /* \"ethereum-crosschain-contract/contracts/utils/UpgradableOwnable.sol\":1268:1353  function owner() public view virtual returns (address) {... */\n    tag_15:\n      callvalue\n        /* \"--CODEGEN--\":5:14   */\n      dup1\n        /* \"--CODEGEN--\":2:4   */\n      iszero\n      tag_104\n      jumpi\n        /* \"--CODEGEN--\":27:28   */\n      0x00\n        /* \"--CODEGEN--\":24:25   */\n      dup1\n        /* \"--CODEGEN--\":17:29   */\n      revert\n        /* \"--CODEGEN--\":2:4   */\n    tag_104:\n        /* \"ethereum-crosschain-contract/contracts/utils/UpgradableOwnable.sol\":1268:1353  function owner() public view virtual returns (address) {... */\n      pop\n      tag_105\n      tag_106\n      jump\t// in\n    tag_105:\n      mload(0x40)\n      tag_107\n      swap2\n      swap1\n      jump(tag_90)\n    tag_107:\n      mload(0x40)\n      dup1\n      swap2\n      sub\n      swap1\n      return\n        /* \"ethereum-crosschain-contract/contracts/Bridge.sol\":9982:10871  function internalDeposit(... */\n    tag_16:\n      callvalue\n        /* \"--CODEGEN--\":5:14   */\n      dup1\n        /* \"--CODEGEN--\":2:4   */\n      iszero\n      tag_108\n      jumpi\n        /* \"--CODEGEN--\":27:28   */\n      0x00\n        /* \"--CODEGEN--\":24:25   */\n      dup1\n        /* \"--CODEGEN--\":17:29   */\n      revert\n        /* \"--CODEGEN--\":2:4   */\n    tag_108:\n        /* \"ethereum-crosschain-contract/contracts/Bridge.sol\":9982:10871  function internalDeposit(... */\n      pop\n      tag_109\n      0x04\n      dup1\n      calldatasize\n      sub\n      dup2\n      add\n      swap1\n      tag_110\n      swap2\n      swap1\n      jump(tag_111)\n    tag_110:\n      tag_112\n      jump\t// in\n    tag_109:\n      stop\n        /* \"ethereum-crosschain-contract/contracts/Bridge.sol\":2719:2976  function initialize(... */\n    tag_17:\n      callvalue\n        /* \"--CODEGEN--\":5:14   */\n      dup1\n        /* \"--CODEGEN--\":2:4   */\n      iszero\n      tag_113\n      jumpi\n        /* \"--CODEGEN--\":27:28   */\n      0x00\n        /* \"--CODEGEN--\":24:25   */\n      dup1\n        /* \"--CODEGEN--\":17:29   */\n      revert\n        /* \"--CODEGEN--\":2:4   */\n    tag_113:\n        /* \"ethereum-crosschain-contract/contracts/Bridge.sol\":2719:2976  function initialize(... */\n      pop\n      tag_114\n      0x04\n      dup1\n      calldatasize\n      sub\n      dup2\n      add\n      swap1\n      tag_115\n      swap2\n      swap1\n      jump(tag_116)\n    tag_115:\n      tag_117\n      jump\t// in\n    tag_114:\n      stop\n        /* \"ethereum-crosschain-contract/contracts/Bridge.sol\":1098:1168  mapping(bytes32 => mapping(bytes32 => bool)) public _executedProposals */\n    tag_18:\n      callvalue\n        /* \"--CODEGEN--\":5:14   */\n      dup1\n        /* \"--CODEGEN--\":2:4   */\n      iszero\n      tag_118\n      jumpi\n        /* \"--CODEGEN--\":27:28   */\n      0x00\n        /* \"--CODEGEN--\":24:25   */\n      dup1\n        /* \"--CODEGEN--\":17:29   */\n      revert\n        /* \"--CODEGEN--\":2:4   */\n    tag_118:\n        /* \"ethereum-crosschain-contract/contracts/Bridge.sol\":1098:1168  mapping(bytes32 => mapping(bytes32 => bool)) public _executedProposals */\n      pop\n      tag_119\n      0x04\n      dup1\n      calldatasize\n      sub\n      dup2\n      add\n      swap1\n      tag_120\n      swap2\n      swap1\n      jump(tag_121)\n    tag_120:\n      tag_122\n      jump\t// in\n    tag_119:\n      mload(0x40)\n      tag_123\n      swap2\n      swap1\n      jump(tag_58)\n    tag_123:\n      mload(0x40)\n      dup1\n      swap2\n      sub\n      swap1\n      return\n        /* \"ethereum-crosschain-contract/contracts/Bridge.sol\":2405:2522  function setHandler(address _handler, bool value) external onlyBackendSrv {... */\n    tag_19:\n      callvalue\n        /* \"--CODEGEN--\":5:14   */\n      dup1\n        /* \"--CODEGEN--\":2:4   */\n      iszero\n      tag_124\n      jumpi\n        /* \"--CODEGEN--\":27:28   */\n      0x00\n        /* \"--CODEGEN--\":24:25   */\n      dup1\n        /* \"--CODEGEN--\":17:29   */\n      revert\n        /* \"--CODEGEN--\":2:4   */\n    tag_124:\n        /* \"ethereum-crosschain-contract/contracts/Bridge.sol\":2405:2522  function setHandler(address _handler, bool value) external onlyBackendSrv {... */\n      pop\n      tag_125\n      0x04\n      dup1\n      calldatasize\n      sub\n      dup2\n      add\n      swap1\n      tag_126\n      swap2\n      swap1\n      jump(tag_127)\n    tag_126:\n      tag_128\n      jump\t// in\n    tag_125:\n      stop\n        /* \"ethereum-crosschain-contract/contracts/Bridge.sol\":669:701  bytes32 public _nativeResourceID */\n    tag_20:\n      callvalue\n        /* \"--CODEGEN--\":5:14   */\n      dup1\n        /* \"--CODEGEN--\":2:4   */\n      iszero\n      tag_129\n      jumpi\n        /* \"--CODEGEN--\":27:28   */\n      0x00\n        /* \"--CODEGEN--\":24:25   */\n      dup1\n        /* \"--CODEGEN--\":17:29   */\n      revert\n        /* \"--CODEGEN--\":2:4   */\n    tag_129:\n        /* \"ethereum-crosschain-contract/contracts/Bridge.sol\":669:701  bytes32 public _nativeResourceID */\n      pop\n      tag_130\n      tag_131\n      jump\t// in\n    tag_130:\n      mload(0x40)\n      tag_132\n      swap2\n      swap1\n      jump(tag_133)\n    tag_132:\n      mload(0x40)\n      dup1\n      swap2\n      sub\n      swap1\n      return\n        /* \"ethereum-crosschain-contract/contracts/Bridge.sol\":965:1031  mapping(uint64 => mapping(bytes8 => bytes)) public _depositRecords */\n    tag_21:\n      callvalue\n        /* \"--CODEGEN--\":5:14   */\n      dup1\n        /* \"--CODEGEN--\":2:4   */\n      iszero\n      tag_134\n      jumpi\n        /* \"--CODEGEN--\":27:28   */\n      0x00\n        /* \"--CODEGEN--\":24:25   */\n      dup1\n        /* \"--CODEGEN--\":17:29   */\n      revert\n        /* \"--CODEGEN--\":2:4   */\n    tag_134:\n        /* \"ethereum-crosschain-contract/contracts/Bridge.sol\":965:1031  mapping(uint64 => mapping(bytes8 => bytes)) public _depositRecords */\n      pop\n      tag_135\n      0x04\n      dup1\n      calldatasize\n      sub\n      dup2\n      add\n      swap1\n      tag_136\n      swap2\n      swap1\n      jump(tag_137)\n    tag_136:\n      tag_138\n      jump\t// in\n    tag_135:\n      mload(0x40)\n      tag_139\n      swap2\n      swap1\n      jump(tag_140)\n    tag_139:\n      mload(0x40)\n      dup1\n      swap2\n      sub\n      swap1\n      return\n        /* \"ethereum-crosschain-contract/contracts/Bridge.sol\":4366:4735  function setResource(... */\n    tag_22:\n      callvalue\n        /* \"--CODEGEN--\":5:14   */\n      dup1\n        /* \"--CODEGEN--\":2:4   */\n      iszero\n      tag_141\n      jumpi\n        /* \"--CODEGEN--\":27:28   */\n      0x00\n        /* \"--CODEGEN--\":24:25   */\n      dup1\n        /* \"--CODEGEN--\":17:29   */\n      revert\n        /* \"--CODEGEN--\":2:4   */\n    tag_141:\n        /* \"ethereum-crosschain-contract/contracts/Bridge.sol\":4366:4735  function setResource(... */\n      pop\n      tag_142\n      0x04\n      dup1\n      calldatasize\n      sub\n      dup2\n      add\n      swap1\n      tag_143\n      swap2\n      swap1\n      jump(tag_144)\n    tag_143:\n      tag_145\n      jump\t// in\n    tag_142:\n      stop\n        /* \"ethereum-crosschain-contract/contracts/utils/SafeMath.sol\":618:751  function sub(uint256 a, uint256 b) public pure returns (uint256) {... */\n    tag_23:\n      callvalue\n        /* \"--CODEGEN--\":5:14   */\n      dup1\n        /* \"--CODEGEN--\":2:4   */\n      iszero\n      tag_146\n      jumpi\n        /* \"--CODEGEN--\":27:28   */\n      0x00\n        /* \"--CODEGEN--\":24:25   */\n      dup1\n        /* \"--CODEGEN--\":17:29   */\n      revert\n        /* \"--CODEGEN--\":2:4   */\n    tag_146:\n        /* \"ethereum-crosschain-contract/contracts/utils/SafeMath.sol\":618:751  function sub(uint256 a, uint256 b) public pure returns (uint256) {... */\n      pop\n      tag_147\n      0x04\n      dup1\n      calldatasize\n      sub\n      dup2\n      add\n      swap1\n      tag_148\n      swap2\n      swap1\n      jump(tag_149)\n    tag_148:\n      tag_150\n      jump\t// in\n    tag_147:\n      mload(0x40)\n      tag_151\n      swap2\n      swap1\n      jump(tag_152)\n    tag_151:\n      mload(0x40)\n      dup1\n      swap2\n      sub\n      swap1\n      return\n        /* \"ethereum-crosschain-contract/contracts/Bridge.sol\":457:479  bytes8 public _chainID */\n    tag_24:\n      callvalue\n        /* \"--CODEGEN--\":5:14   */\n      dup1\n        /* \"--CODEGEN--\":2:4   */\n      iszero\n      tag_153\n      jumpi\n        /* \"--CODEGEN--\":27:28   */\n      0x00\n        /* \"--CODEGEN--\":24:25   */\n      dup1\n        /* \"--CODEGEN--\":17:29   */\n      revert\n        /* \"--CODEGEN--\":2:4   */\n    tag_153:\n        /* \"ethereum-crosschain-contract/contracts/Bridge.sol\":457:479  bytes8 public _chainID */\n      pop\n      tag_154\n      tag_155\n      jump\t// in\n    tag_154:\n      mload(0x40)\n      tag_156\n      swap2\n      swap1\n      jump(tag_157)\n    tag_156:\n      mload(0x40)\n      dup1\n      swap2\n      sub\n      swap1\n      return\n        /* \"ethereum-crosschain-contract/contracts/Bridge.sol\":485:504  uint256 public _fee */\n    tag_25:\n      callvalue\n        /* \"--CODEGEN--\":5:14   */\n      dup1\n        /* \"--CODEGEN--\":2:4   */\n      iszero\n      tag_158\n      jumpi\n        /* \"--CODEGEN--\":27:28   */\n      0x00\n        /* \"--CODEGEN--\":24:25   */\n      dup1\n        /* \"--CODEGEN--\":17:29   */\n      revert\n        /* \"--CODEGEN--\":2:4   */\n    tag_158:\n        /* \"ethereum-crosschain-contract/contracts/Bridge.sol\":485:504  uint256 public _fee */\n      pop\n      tag_159\n      tag_160\n      jump\t// in\n    tag_159:\n      mload(0x40)\n      tag_161\n      swap2\n      swap1\n      jump(tag_152)\n    tag_161:\n      mload(0x40)\n      dup1\n      swap2\n      sub\n      swap1\n      return\n        /* \"ethereum-crosschain-contract/contracts/utils/UpgradableOwnable.sol\":674:700  bool public _isInitialised */\n    tag_26:\n      callvalue\n        /* \"--CODEGEN--\":5:14   */\n      dup1\n        /* \"--CODEGEN--\":2:4   */\n      iszero\n      tag_162\n      jumpi\n        /* \"--CODEGEN--\":27:28   */\n      0x00\n        /* \"--CODEGEN--\":24:25   */\n      dup1\n        /* \"--CODEGEN--\":17:29   */\n      revert\n        /* \"--CODEGEN--\":2:4   */\n    tag_162:\n        /* \"ethereum-crosschain-contract/contracts/utils/UpgradableOwnable.sol\":674:700  bool public _isInitialised */\n      pop\n      tag_163\n      tag_164\n      jump\t// in\n    tag_163:\n      mload(0x40)\n      tag_165\n      swap2\n      swap1\n      jump(tag_58)\n    tag_165:\n      mload(0x40)\n      dup1\n      swap2\n      sub\n      swap1\n      return\n        /* \"ethereum-crosschain-contract/contracts/Bridge.sol\":6926:7557  function approveSpending(... */\n    tag_27:\n      callvalue\n        /* \"--CODEGEN--\":5:14   */\n      dup1\n        /* \"--CODEGEN--\":2:4   */\n      iszero\n      tag_166\n      jumpi\n        /* \"--CODEGEN--\":27:28   */\n      0x00\n        /* \"--CODEGEN--\":24:25   */\n      dup1\n        /* \"--CODEGEN--\":17:29   */\n      revert\n        /* \"--CODEGEN--\":2:4   */\n    tag_166:\n        /* \"ethereum-crosschain-contract/contracts/Bridge.sol\":6926:7557  function approveSpending(... */\n      pop\n      tag_167\n      0x04\n      dup1\n      calldatasize\n      sub\n      dup2\n      add\n      swap1\n      tag_168\n      swap2\n      swap1\n      jump(tag_169)\n    tag_168:\n      tag_170\n      jump\t// in\n    tag_167:\n      stop\n        /* \"ethereum-crosschain-contract/contracts/Bridge.sol\":5425:5645  function setBurnable(address handlerAddress, address tokenAddress)... */\n    tag_28:\n      callvalue\n        /* \"--CODEGEN--\":5:14   */\n      dup1\n        /* \"--CODEGEN--\":2:4   */\n      iszero\n      tag_171\n      jumpi\n        /* \"--CODEGEN--\":27:28   */\n      0x00\n        /* \"--CODEGEN--\":24:25   */\n      dup1\n        /* \"--CODEGEN--\":17:29   */\n      revert\n        /* \"--CODEGEN--\":2:4   */\n    tag_171:\n        /* \"ethereum-crosschain-contract/contracts/Bridge.sol\":5425:5645  function setBurnable(address handlerAddress, address tokenAddress)... */\n      pop\n      tag_172\n      0x04\n      dup1\n      calldatasize\n      sub\n      dup2\n      add\n      swap1\n      tag_173\n      swap2\n      swap1\n      jump(tag_174)\n    tag_173:\n      tag_175\n      jump\t// in\n    tag_172:\n      stop\n        /* \"ethereum-crosschain-contract/contracts/Bridge.sol\":13589:13642  function depositFunds() external payable onlyOwner {} */\n    tag_29:\n      tag_176\n      tag_177\n      jump\t// in\n    tag_176:\n      stop\n        /* \"ethereum-crosschain-contract/contracts/Bridge.sol\":7981:9939  function deposit(... */\n    tag_30:\n      tag_178\n      0x04\n      dup1\n      calldatasize\n      sub\n      dup2\n      add\n      swap1\n      tag_179\n      swap2\n      swap1\n      jump(tag_180)\n    tag_179:\n      tag_181\n      jump\t// in\n    tag_178:\n      stop\n        /* \"ethereum-crosschain-contract/contracts/utils/UpgradableOwnable.sol\":916:1109  function ownableInit(address owner) public {... */\n    tag_31:\n      callvalue\n        /* \"--CODEGEN--\":5:14   */\n      dup1\n        /* \"--CODEGEN--\":2:4   */\n      iszero\n      tag_182\n      jumpi\n        /* \"--CODEGEN--\":27:28   */\n      0x00\n        /* \"--CODEGEN--\":24:25   */\n      dup1\n        /* \"--CODEGEN--\":17:29   */\n      revert\n        /* \"--CODEGEN--\":2:4   */\n    tag_182:\n        /* \"ethereum-crosschain-contract/contracts/utils/UpgradableOwnable.sol\":916:1109  function ownableInit(address owner) public {... */\n      pop\n      tag_183\n      0x04\n      dup1\n      calldatasize\n      sub\n      dup2\n      add\n      swap1\n      tag_184\n      swap2\n      swap1\n      jump(tag_44)\n    tag_184:\n      tag_185\n      jump\t// in\n    tag_183:\n      stop\n        /* \"ethereum-crosschain-contract/contracts/utils/UpgradableOwnable.sol\":2184:2410  function transferOwnership(address newOwner)... */\n    tag_32:\n      callvalue\n        /* \"--CODEGEN--\":5:14   */\n      dup1\n        /* \"--CODEGEN--\":2:4   */\n      iszero\n      tag_186\n      jumpi\n        /* \"--CODEGEN--\":27:28   */\n      0x00\n        /* \"--CODEGEN--\":24:25   */\n      dup1\n        /* \"--CODEGEN--\":17:29   */\n      revert\n        /* \"--CODEGEN--\":2:4   */\n    tag_186:\n        /* \"ethereum-crosschain-contract/contracts/utils/UpgradableOwnable.sol\":2184:2410  function transferOwnership(address newOwner)... */\n      pop\n      tag_187\n      0x04\n      dup1\n      calldatasize\n      sub\n      dup2\n      add\n      swap1\n      tag_188\n      swap2\n      swap1\n      jump(tag_44)\n    tag_188:\n      tag_189\n      jump\t// in\n    tag_187:\n      stop\n        /* \"ethereum-crosschain-contract/contracts/Bridge.sol\":3746:3825  function adminUnpauseTransfers() external onlyOwner {... */\n    tag_33:\n      callvalue\n        /* \"--CODEGEN--\":5:14   */\n      dup1\n        /* \"--CODEGEN--\":2:4   */\n      iszero\n      tag_190\n      jumpi\n        /* \"--CODEGEN--\":27:28   */\n      0x00\n        /* \"--CODEGEN--\":24:25   */\n      dup1\n        /* \"--CODEGEN--\":17:29   */\n      revert\n        /* \"--CODEGEN--\":2:4   */\n    tag_190:\n        /* \"ethereum-crosschain-contract/contracts/Bridge.sol\":3746:3825  function adminUnpauseTransfers() external onlyOwner {... */\n      pop\n      tag_191\n      tag_192\n      jump\t// in\n    tag_191:\n      stop\n        /* \"ethereum-crosschain-contract/contracts/Bridge.sol\":3172:3293  function setBackendSrv(address newBackendSrv) external onlyBackendSrv {... */\n    tag_45:\n        /* \"ethereum-crosschain-contract/contracts/Bridge.sol\":2077:2094  _onlyBackendSrv() */\n      tag_194\n        /* \"ethereum-crosschain-contract/contracts/Bridge.sol\":2077:2092  _onlyBackendSrv */\n      tag_195\n        /* \"ethereum-crosschain-contract/contracts/Bridge.sol\":2077:2094  _onlyBackendSrv() */\n      jump\t// in\n    tag_194:\n        /* \"ethereum-crosschain-contract/contracts/Bridge.sol\":3273:3286  newBackendSrv */\n      dup1\n        /* \"ethereum-crosschain-contract/contracts/Bridge.sol\":3252:3270  _backendSrvAddress */\n      0x02\n      0x00\n        /* \"ethereum-crosschain-contract/contracts/Bridge.sol\":3252:3286  _backendSrvAddress = newBackendSrv */\n      0x0100\n      exp\n      dup2\n      sload\n      dup2\n      0xffffffffffffffffffffffffffffffffffffffff\n      mul\n      not\n      and\n      swap1\n      dup4\n      0xffffffffffffffffffffffffffffffffffffffff\n      and\n      mul\n      or\n      swap1\n      sstore\n      pop\n        /* \"ethereum-crosschain-contract/contracts/Bridge.sol\":3172:3293  function setBackendSrv(address newBackendSrv) external onlyBackendSrv {... */\n      pop\n      jump\t// out\n        /* \"ethereum-crosschain-contract/contracts/Bridge.sol\":756:803  mapping(bytes8 => uint64) public _depositCounts */\n    tag_50:\n      mstore(0x20, 0x04)\n      dup1\n      0x00\n      mstore\n      keccak256(0x00, 0x40)\n      0x00\n      swap2\n      pop\n      sload\n      swap1\n      0x0100\n      exp\n      swap1\n      div\n      0xffffffffffffffff\n      and\n      dup2\n      jump\t// out\n        /* \"ethereum-crosschain-contract/contracts/Bridge.sol\":1175:1215  mapping(address => bool) public handlers */\n    tag_56:\n      mstore(0x20, 0x08)\n      dup1\n      0x00\n      mstore\n      keccak256(0x00, 0x40)\n      0x00\n      swap2\n      pop\n      sload\n      swap1\n      0x0100\n      exp\n      swap1\n      div\n      0xff\n      and\n      dup2\n      jump\t// out\n        /* \"ethereum-crosschain-contract/contracts/Bridge.sol\":4914:5034  function setNativeResourceID(bytes32 resourceID) external onlyBackendSrv {... */\n    tag_63:\n        /* \"ethereum-crosschain-contract/contracts/Bridge.sol\":2077:2094  _onlyBackendSrv() */\n      tag_198\n        /* \"ethereum-crosschain-contract/contracts/Bridge.sol\":2077:2092  _onlyBackendSrv */\n      tag_195\n        /* \"ethereum-crosschain-contract/contracts/Bridge.sol\":2077:2094  _onlyBackendSrv() */\n      jump\t// in\n    tag_198:\n        /* \"ethereum-crosschain-contract/contracts/Bridge.sol\":5017:5027  resourceID */\n      dup1\n        /* \"ethereum-crosschain-contract/contracts/Bridge.sol\":4997:5014  _nativeResourceID */\n      0x03\n        /* \"ethereum-crosschain-contract/contracts/Bridge.sol\":4997:5027  _nativeResourceID = resourceID */\n      dup2\n      swap1\n      sstore\n      pop\n        /* \"ethereum-crosschain-contract/contracts/Bridge.sol\":4914:5034  function setNativeResourceID(bytes32 resourceID) external onlyBackendSrv {... */\n      pop\n      jump\t// out\n        /* \"ethereum-crosschain-contract/contracts/utils/Pausable.sol\":755:831  function paused() public view returns (bool) {... */\n    tag_66:\n        /* \"ethereum-crosschain-contract/contracts/utils/Pausable.sol\":794:798  bool */\n      0x00\n        /* \"ethereum-crosschain-contract/contracts/utils/Pausable.sol\":817:824  _paused */\n      dup1\n      0x00\n      swap1\n      sload\n      swap1\n      0x0100\n      exp\n      swap1\n      div\n      0xff\n      and\n        /* \"ethereum-crosschain-contract/contracts/utils/Pausable.sol\":810:824  return _paused */\n      swap1\n      pop\n        /* \"ethereum-crosschain-contract/contracts/utils/Pausable.sol\":755:831  function paused() public view returns (bool) {... */\n      swap1\n      jump\t// out\n        /* \"ethereum-crosschain-contract/contracts/Bridge.sol\":5799:5956  function changeFee(uint256 newFee) external onlyBackendSrv {... */\n    tag_72:\n        /* \"ethereum-crosschain-contract/contracts/Bridge.sol\":2077:2094  _onlyBackendSrv() */\n      tag_202\n        /* \"ethereum-crosschain-contract/contracts/Bridge.sol\":2077:2092  _onlyBackendSrv */\n      tag_195\n        /* \"ethereum-crosschain-contract/contracts/Bridge.sol\":2077:2094  _onlyBackendSrv() */\n      jump\t// in\n    tag_202:\n        /* \"ethereum-crosschain-contract/contracts/Bridge.sol\":5884:5890  newFee */\n      dup1\n        /* \"ethereum-crosschain-contract/contracts/Bridge.sol\":5876:5880  _fee */\n      sload(0x01)\n        /* \"ethereum-crosschain-contract/contracts/Bridge.sol\":5876:5890  _fee != newFee */\n      eq\n      iszero\n        /* \"ethereum-crosschain-contract/contracts/Bridge.sol\":5868:5926  require(_fee != newFee, \"Current fee is equal to new fee\") */\n      tag_204\n      jumpi\n      mload(0x40)\n      0x08c379a000000000000000000000000000000000000000000000000000000000\n      dup2\n      mstore\n      0x04\n      add\n      tag_205\n      swap1\n      jump(tag_206)\n    tag_205:\n      mload(0x40)\n      dup1\n      swap2\n      sub\n      swap1\n      revert\n    tag_204:\n        /* \"ethereum-crosschain-contract/contracts/Bridge.sol\":5943:5949  newFee */\n      dup1\n        /* \"ethereum-crosschain-contract/contracts/Bridge.sol\":5936:5940  _fee */\n      0x01\n        /* \"ethereum-crosschain-contract/contracts/Bridge.sol\":5936:5949  _fee = newFee */\n      dup2\n      swap1\n      sstore\n      pop\n        /* \"ethereum-crosschain-contract/contracts/Bridge.sol\":5799:5956  function changeFee(uint256 newFee) external onlyBackendSrv {... */\n      pop\n      jump\t// out\n        /* \"ethereum-crosschain-contract/contracts/utils/UpgradableOwnable.sol\":1890:2035  function renounceOwnership() public virtual onlyOwner {... */\n    tag_75:\n        /* \"ethereum-crosschain-contract/contracts/utils/UpgradableOwnable.sol\":1491:1503  _msgSender() */\n      tag_208\n        /* \"ethereum-crosschain-contract/contracts/utils/UpgradableOwnable.sol\":1491:1501  _msgSender */\n      tag_209\n        /* \"ethereum-crosschain-contract/contracts/utils/UpgradableOwnable.sol\":1491:1503  _msgSender() */\n      jump\t// in\n    tag_208:\n        /* \"ethereum-crosschain-contract/contracts/utils/UpgradableOwnable.sol\":1480:1503  owner() == _msgSender() */\n      0xffffffffffffffffffffffffffffffffffffffff\n      and\n        /* \"ethereum-crosschain-contract/contracts/utils/UpgradableOwnable.sol\":1480:1487  owner() */\n      tag_210\n        /* \"ethereum-crosschain-contract/contracts/utils/UpgradableOwnable.sol\":1480:1485  owner */\n      tag_106\n        /* \"ethereum-crosschain-contract/contracts/utils/UpgradableOwnable.sol\":1480:1487  owner() */\n      jump\t// in\n    tag_210:\n        /* \"ethereum-crosschain-contract/contracts/utils/UpgradableOwnable.sol\":1480:1503  owner() == _msgSender() */\n      0xffffffffffffffffffffffffffffffffffffffff\n      and\n      eq\n        /* \"ethereum-crosschain-contract/contracts/utils/UpgradableOwnable.sol\":1472:1530  require(owner() == _msgSender(), \"sender should be owner\") */\n      tag_211\n      jumpi\n      mload(0x40)\n      0x08c379a000000000000000000000000000000000000000000000000000000000\n      dup2\n      mstore\n      0x04\n      add\n      tag_212\n      swap1\n      jump(tag_213)\n    tag_212:\n      mload(0x40)\n      dup1\n      swap2\n      sub\n      swap1\n      revert\n    tag_211:\n        /* \"ethereum-crosschain-contract/contracts/utils/UpgradableOwnable.sol\":1996:1997  0 */\n      0x00\n        /* \"ethereum-crosschain-contract/contracts/utils/UpgradableOwnable.sol\":1959:1999  OwnershipTransferred(_owner, address(0)) */\n      0xffffffffffffffffffffffffffffffffffffffff\n      and\n        /* \"ethereum-crosschain-contract/contracts/utils/UpgradableOwnable.sol\":1980:1986  _owner */\n      0x00\n      0x01\n      swap1\n      sload\n      swap1\n      0x0100\n      exp\n      swap1\n      div\n      0xffffffffffffffffffffffffffffffffffffffff\n      and\n        /* \"ethereum-crosschain-contract/contracts/utils/UpgradableOwnable.sol\":1959:1999  OwnershipTransferred(_owner, address(0)) */\n      0xffffffffffffffffffffffffffffffffffffffff\n      and\n      0x8be0079c531659141344cd1fd0a4f28419497f9722a3daafe3b4186f6b6457e0\n      mload(0x40)\n      mload(0x40)\n      dup1\n      swap2\n      sub\n      swap1\n      log3\n        /* \"ethereum-crosschain-contract/contracts/utils/UpgradableOwnable.sol\":2026:2027  0 */\n      0x00\n        /* \"ethereum-crosschain-contract/contracts/utils/UpgradableOwnable.sol\":2009:2015  _owner */\n      dup1\n      0x01\n        /* \"ethereum-crosschain-contract/contracts/utils/UpgradableOwnable.sol\":2009:2028  _owner = address(0) */\n      0x0100\n      exp\n      dup2\n      sload\n      dup2\n      0xffffffffffffffffffffffffffffffffffffffff\n      mul\n      not\n      and\n      swap1\n      dup4\n      0xffffffffffffffffffffffffffffffffffffffff\n      and\n      mul\n      or\n      swap1\n      sstore\n      pop\n        /* \"ethereum-crosschain-contract/contracts/utils/UpgradableOwnable.sol\":1890:2035  function renounceOwnership() public virtual onlyOwner {... */\n      jump\t// out\n        /* \"ethereum-crosschain-contract/contracts/Bridge.sol\":6324:6628  function adminWithdraw(... */\n    tag_80:\n        /* \"ethereum-crosschain-contract/contracts/utils/UpgradableOwnable.sol\":1491:1503  _msgSender() */\n      tag_216\n        /* \"ethereum-crosschain-contract/contracts/utils/UpgradableOwnable.sol\":1491:1501  _msgSender */\n      tag_209\n        /* \"ethereum-crosschain-contract/contracts/utils/UpgradableOwnable.sol\":1491:1503  _msgSender() */\n      jump\t// in\n    tag_216:\n        /* \"ethereum-crosschain-contract/contracts/utils/UpgradableOwnable.sol\":1480:1503  owner() == _msgSender() */\n      0xffffffffffffffffffffffffffffffffffffffff\n      and\n        /* \"ethereum-crosschain-contract/contracts/utils/UpgradableOwnable.sol\":1480:1487  owner() */\n      tag_217\n        /* \"ethereum-crosschain-contract/contracts/utils/UpgradableOwnable.sol\":1480:1485  owner */\n      tag_106\n        /* \"ethereum-crosschain-contract/contracts/utils/UpgradableOwnable.sol\":1480:1487  owner() */\n      jump\t// in\n    tag_217:\n        /* \"ethereum-crosschain-contract/contracts/utils/UpgradableOwnable.sol\":1480:1503  owner() == _msgSender() */\n      0xffffffffffffffffffffffffffffffffffffffff\n      and\n      eq\n        /* \"ethereum-crosschain-contract/contracts/utils/UpgradableOwnable.sol\":1472:1530  require(owner() == _msgSender(), \"sender should be owner\") */\n      tag_218\n      jumpi\n      mload(0x40)\n      0x08c379a000000000000000000000000000000000000000000000000000000000\n      dup2\n      mstore\n      0x04\n      add\n      tag_219\n      swap1\n      jump(tag_213)\n    tag_219:\n      mload(0x40)\n      dup1\n      swap2\n      sub\n      swap1\n      revert\n    tag_218:\n        /* \"ethereum-crosschain-contract/contracts/Bridge.sol\":6504:6523  IERCHandler handler */\n      0x00\n        /* \"ethereum-crosschain-contract/contracts/Bridge.sol\":6538:6552  handlerAddress */\n      dup5\n        /* \"ethereum-crosschain-contract/contracts/Bridge.sol\":6504:6553  IERCHandler handler = IERCHandler(handlerAddress) */\n      swap1\n      pop\n        /* \"ethereum-crosschain-contract/contracts/Bridge.sol\":6563:6570  handler */\n      dup1\n        /* \"ethereum-crosschain-contract/contracts/Bridge.sol\":6563:6579  handler.withdraw */\n      0xffffffffffffffffffffffffffffffffffffffff\n      and\n      0xd9caed12\n        /* \"ethereum-crosschain-contract/contracts/Bridge.sol\":6580:6592  tokenAddress */\n      dup6\n        /* \"ethereum-crosschain-contract/contracts/Bridge.sol\":6594:6603  recipient */\n      dup6\n        /* \"ethereum-crosschain-contract/contracts/Bridge.sol\":6605:6620  amountOrTokenID */\n      dup6\n        /* \"ethereum-crosschain-contract/contracts/Bridge.sol\":6563:6621  handler.withdraw(tokenAddress, recipient, amountOrTokenID) */\n      mload(0x40)\n      dup5\n      0xffffffff\n      and\n      0xe0\n      shl\n      dup2\n      mstore\n      0x04\n      add\n      tag_221\n      swap4\n      swap3\n      swap2\n      swap1\n      jump(tag_222)\n    tag_221:\n      0x00\n      mload(0x40)\n      dup1\n      dup4\n      sub\n      dup2\n      0x00\n      dup8\n      dup1\n      extcodesize\n      iszero\n        /* \"--CODEGEN--\":5:14   */\n      dup1\n        /* \"--CODEGEN--\":2:4   */\n      iszero\n      tag_223\n      jumpi\n        /* \"--CODEGEN--\":27:28   */\n      0x00\n        /* \"--CODEGEN--\":24:25   */\n      dup1\n        /* \"--CODEGEN--\":17:29   */\n      revert\n        /* \"--CODEGEN--\":2:4   */\n    tag_223:\n        /* \"ethereum-crosschain-contract/contracts/Bridge.sol\":6563:6621  handler.withdraw(tokenAddress, recipient, amountOrTokenID) */\n      pop\n      gas\n      call\n      iszero\n        /* \"--CODEGEN--\":8:17   */\n      dup1\n        /* \"--CODEGEN--\":5:7   */\n      iszero\n      tag_225\n      jumpi\n        /* \"--CODEGEN--\":45:61   */\n      returndatasize\n        /* \"--CODEGEN--\":42:43   */\n      0x00\n        /* \"--CODEGEN--\":39:40   */\n      dup1\n        /* \"--CODEGEN--\":24:62   */\n      returndatacopy\n        /* \"--CODEGEN--\":77:93   */\n      returndatasize\n        /* \"--CODEGEN--\":74:75   */\n      0x00\n        /* \"--CODEGEN--\":67:94   */\n      revert\n        /* \"--CODEGEN--\":5:7   */\n    tag_225:\n        /* \"ethereum-crosschain-contract/contracts/Bridge.sol\":6563:6621  handler.withdraw(tokenAddress, recipient, amountOrTokenID) */\n      pop\n      pop\n      pop\n      pop\n        /* \"ethereum-crosschain-contract/contracts/utils/UpgradableOwnable.sol\":1540:1541  _ */\n      pop\n        /* \"ethereum-crosschain-contract/contracts/Bridge.sol\":6324:6628  function adminWithdraw(... */\n      pop\n      pop\n      pop\n      pop\n      jump\t// out\n        /* \"ethereum-crosschain-contract/contracts/Bridge.sol\":13211:13476  function adminCollectFees(address payable recipient, uint256 amount) external onlyOwner {... */\n    tag_85:\n        /* \"ethereum-crosschain-contract/contracts/utils/UpgradableOwnable.sol\":1491:1503  _msgSender() */\n      tag_227\n        /* \"ethereum-crosschain-contract/contracts/utils/UpgradableOwnable.sol\":1491:1501  _msgSender */\n      tag_209\n        /* \"ethereum-crosschain-contract/contracts/utils/UpgradableOwnable.sol\":1491:1503  _msgSender() */\n      jump\t// in\n    tag_227:\n        /* \"ethereum-crosschain-contract/contracts/utils/UpgradableOwnable.sol\":1480:1503  owner() == _msgSender() */\n      0xffffffffffffffffffffffffffffffffffffffff\n      and\n        /* \"ethereum-crosschain-contract/contracts/utils/UpgradableOwnable.sol\":1480:1487  owner() */\n      tag_228\n        /* \"ethereum-crosschain-contract/contracts/utils/UpgradableOwnable.sol\":1480:1485  owner */\n      tag_106\n        /* \"ethereum-crosschain-contract/contracts/utils/UpgradableOwnable.sol\":1480:1487  owner() */\n      jump\t// in\n    tag_228:\n        /* \"ethereum-crosschain-contract/contracts/utils/UpgradableOwnable.sol\":1480:1503  owner() == _msgSender() */\n      0xffffffffffffffffffffffffffffffffffffffff\n      and\n      eq\n        /* \"ethereum-crosschain-contract/contracts/utils/UpgradableOwnable.sol\":1472:1530  require(owner() == _msgSender(), \"sender should be owner\") */\n      tag_229\n      jumpi\n      mload(0x40)\n      0x08c379a000000000000000000000000000000000000000000000000000000000\n      dup2\n      mstore\n      0x04\n      add\n      tag_230\n      swap1\n      jump(tag_213)\n    tag_230:\n      mload(0x40)\n      dup1\n      swap2\n      sub\n      swap1\n      revert\n    tag_229:\n        /* \"ethereum-crosschain-contract/contracts/Bridge.sol\":13309:13333  uint256 amountToTransfer */\n      0x00\n        /* \"ethereum-crosschain-contract/contracts/Bridge.sol\":13345:13366  address(this).balance */\n      selfbalance\n        /* \"ethereum-crosschain-contract/contracts/Bridge.sol\":13336:13342  amount */\n      dup3\n        /* \"ethereum-crosschain-contract/contracts/Bridge.sol\":13336:13366  amount < address(this).balance */\n      lt\n        /* \"ethereum-crosschain-contract/contracts/Bridge.sol\":13336:13423  amount < address(this).balance... */\n      tag_232\n      jumpi\n        /* \"ethereum-crosschain-contract/contracts/Bridge.sol\":13402:13423  address(this).balance */\n      selfbalance\n        /* \"ethereum-crosschain-contract/contracts/Bridge.sol\":13336:13423  amount < address(this).balance... */\n      jump(tag_233)\n    tag_232:\n        /* \"ethereum-crosschain-contract/contracts/Bridge.sol\":13381:13387  amount */\n      dup2\n        /* \"ethereum-crosschain-contract/contracts/Bridge.sol\":13336:13423  amount < address(this).balance... */\n    tag_233:\n        /* \"ethereum-crosschain-contract/contracts/Bridge.sol\":13309:13423  uint256 amountToTransfer = amount < address(this).balance... */\n      swap1\n      pop\n        /* \"ethereum-crosschain-contract/contracts/Bridge.sol\":13433:13442  recipient */\n      dup3\n        /* \"ethereum-crosschain-contract/contracts/Bridge.sol\":13433:13451  recipient.transfer */\n      0xffffffffffffffffffffffffffffffffffffffff\n      and\n        /* \"ethereum-crosschain-contract/contracts/Bridge.sol\":13433:13469  recipient.transfer(amountToTransfer) */\n      0x08fc\n        /* \"ethereum-crosschain-contract/contracts/Bridge.sol\":13452:13468  amountToTransfer */\n      dup3\n        /* \"ethereum-crosschain-contract/contracts/Bridge.sol\":13433:13469  recipient.transfer(amountToTransfer) */\n      swap1\n      dup2\n      iszero\n      mul\n      swap1\n      mload(0x40)\n      0x00\n      mload(0x40)\n      dup1\n      dup4\n      sub\n      dup2\n      dup6\n      dup9\n      dup9\n      call\n      swap4\n      pop\n      pop\n      pop\n      pop\n      iszero\n        /* \"--CODEGEN--\":8:17   */\n      dup1\n        /* \"--CODEGEN--\":5:7   */\n      iszero\n      tag_235\n      jumpi\n        /* \"--CODEGEN--\":45:61   */\n      returndatasize\n        /* \"--CODEGEN--\":42:43   */\n      0x00\n        /* \"--CODEGEN--\":39:40   */\n      dup1\n        /* \"--CODEGEN--\":24:62   */\n      returndatacopy\n        /* \"--CODEGEN--\":77:93   */\n      returndatasize\n        /* \"--CODEGEN--\":74:75   */\n      0x00\n        /* \"--CODEGEN--\":67:94   */\n      revert\n        /* \"--CODEGEN--\":5:7   */\n    tag_235:\n        /* \"ethereum-crosschain-contract/contracts/Bridge.sol\":13433:13469  recipient.transfer(amountToTransfer) */\n      pop\n        /* \"ethereum-crosschain-contract/contracts/utils/UpgradableOwnable.sol\":1540:1541  _ */\n      pop\n        /* \"ethereum-crosschain-contract/contracts/Bridge.sol\":13211:13476  function adminCollectFees(address payable recipient, uint256 amount) external onlyOwner {... */\n      pop\n      pop\n      jump\t// out\n        /* \"ethereum-crosschain-contract/contracts/Bridge.sol\":510:543  address public _backendSrvAddress */\n    tag_88:\n      0x02\n      0x00\n      swap1\n      sload\n      swap1\n      0x0100\n      exp\n      swap1\n      div\n      0xffffffffffffffffffffffffffffffffffffffff\n      and\n      dup2\n      jump\t// out\n        /* \"ethereum-crosschain-contract/contracts/Bridge.sol\":3481:3556  function adminPauseTransfers() external onlyOwner {... */\n    tag_93:\n        /* \"ethereum-crosschain-contract/contracts/utils/UpgradableOwnable.sol\":1491:1503  _msgSender() */\n      tag_237\n        /* \"ethereum-crosschain-contract/contracts/utils/UpgradableOwnable.sol\":1491:1501  _msgSender */\n      tag_209\n        /* \"ethereum-crosschain-contract/contracts/utils/UpgradableOwnable.sol\":1491:1503  _msgSender() */\n      jump\t// in\n    tag_237:\n        /* \"ethereum-crosschain-contract/contracts/utils/UpgradableOwnable.sol\":1480:1503  owner() == _msgSender() */\n      0xffffffffffffffffffffffffffffffffffffffff\n      and\n        /* \"ethereum-crosschain-contract/contracts/utils/UpgradableOwnable.sol\":1480:1487  owner() */\n      tag_238\n        /* \"ethereum-crosschain-contract/contracts/utils/UpgradableOwnable.sol\":1480:1485  owner */\n      tag_106\n        /* \"ethereum-crosschain-contract/contracts/utils/UpgradableOwnable.sol\":1480:1487  owner() */\n      jump\t// in\n    tag_238:\n        /* \"ethereum-crosschain-contract/contracts/utils/UpgradableOwnable.sol\":1480:1503  owner() == _msgSender() */\n      0xffffffffffffffffffffffffffffffffffffffff\n      and\n      eq\n        /* \"ethereum-crosschain-contract/contracts/utils/UpgradableOwnable.sol\":1472:1530  require(owner() == _msgSender(), \"sender should be owner\") */\n      tag_239\n      jumpi\n      mload(0x40)\n      0x08c379a000000000000000000000000000000000000000000000000000000000\n      dup2\n      mstore\n      0x04\n      add\n      tag_240\n      swap1\n      jump(tag_213)\n    tag_240:\n      mload(0x40)\n      dup1\n      swap2\n      sub\n      swap1\n      revert\n    tag_239:\n        /* \"ethereum-crosschain-contract/contracts/Bridge.sol\":3541:3549  _pause() */\n      tag_242\n        /* \"ethereum-crosschain-contract/contracts/Bridge.sol\":3541:3547  _pause */\n      tag_243\n        /* \"ethereum-crosschain-contract/contracts/Bridge.sol\":3541:3549  _pause() */\n      jump\t// in\n    tag_242:\n        /* \"ethereum-crosschain-contract/contracts/Bridge.sol\":3481:3556  function adminPauseTransfers() external onlyOwner {... */\n      jump\t// out\n        /* \"ethereum-crosschain-contract/contracts/Bridge.sol\":846:908  mapping(bytes32 => address) public _resourceIDToHandlerAddress */\n    tag_97:\n      mstore(0x20, 0x05)\n      dup1\n      0x00\n      mstore\n      keccak256(0x00, 0x40)\n      0x00\n      swap2\n      pop\n      sload\n      swap1\n      0x0100\n      exp\n      swap1\n      div\n      0xffffffffffffffffffffffffffffffffffffffff\n      and\n      dup2\n      jump\t// out\n        /* \"ethereum-crosschain-contract/contracts/Bridge.sol\":11417:12991  function executeProposal(... */\n    tag_103:\n        /* \"ethereum-crosschain-contract/contracts/Bridge.sol\":2077:2094  _onlyBackendSrv() */\n      tag_245\n        /* \"ethereum-crosschain-contract/contracts/Bridge.sol\":2077:2092  _onlyBackendSrv */\n      tag_195\n        /* \"ethereum-crosschain-contract/contracts/Bridge.sol\":2077:2094  _onlyBackendSrv() */\n      jump\t// in\n    tag_245:\n        /* \"ethereum-crosschain-contract/contracts/utils/Pausable.sol\":1052:1068  _whenNotPaused() */\n      tag_247\n        /* \"ethereum-crosschain-contract/contracts/utils/Pausable.sol\":1052:1066  _whenNotPaused */\n      tag_248\n        /* \"ethereum-crosschain-contract/contracts/utils/Pausable.sol\":1052:1068  _whenNotPaused() */\n      jump\t// in\n    tag_247:\n        /* \"ethereum-crosschain-contract/contracts/Bridge.sol\":11715:11732  bytes memory data */\n      0x60\n        /* \"ethereum-crosschain-contract/contracts/Bridge.sol\":11746:11752  amount */\n      dup4\n        /* \"ethereum-crosschain-contract/contracts/Bridge.sol\":11754:11770  recipientAddress */\n      dup6\n        /* \"ethereum-crosschain-contract/contracts/Bridge.sol\":11735:11771  abi.encode(amount, recipientAddress) */\n      add(0x20, mload(0x40))\n      tag_250\n      swap3\n      swap2\n      swap1\n      jump(tag_251)\n    tag_250:\n      mload(0x40)\n        /* \"--CODEGEN--\":49:53   */\n      0x20\n        /* \"--CODEGEN--\":39:46   */\n      dup2\n        /* \"--CODEGEN--\":30:37   */\n      dup4\n        /* \"--CODEGEN--\":26:47   */\n      sub\n        /* \"--CODEGEN--\":22:54   */\n      sub\n        /* \"--CODEGEN--\":13:20   */\n      dup2\n        /* \"--CODEGEN--\":6:55   */\n      mstore\n        /* \"ethereum-crosschain-contract/contracts/Bridge.sol\":11735:11771  abi.encode(amount, recipientAddress) */\n      swap1\n      0x40\n      mstore\n        /* \"ethereum-crosschain-contract/contracts/Bridge.sol\":11715:11771  bytes memory data = abi.encode(amount, recipientAddress) */\n      swap1\n      pop\n        /* \"ethereum-crosschain-contract/contracts/Bridge.sol\":11781:11799  bytes32 nonceAndID */\n      0x00\n        /* \"ethereum-crosschain-contract/contracts/Bridge.sol\":11836:11848  depositNonce */\n      dup8\n        /* \"ethereum-crosschain-contract/contracts/Bridge.sol\":11850:11863  originChainID */\n      dup11\n        /* \"ethereum-crosschain-contract/contracts/Bridge.sol\":11865:11883  destinationChainID */\n      dup11\n        /* \"ethereum-crosschain-contract/contracts/Bridge.sol\":11825:11884  abi.encode(depositNonce, originChainID, destinationChainID) */\n      add(0x20, mload(0x40))\n      tag_252\n      swap4\n      swap3\n      swap2\n      swap1\n      jump(tag_253)\n    tag_252:\n      mload(0x40)\n        /* \"--CODEGEN--\":49:53   */\n      0x20\n        /* \"--CODEGEN--\":39:46   */\n      dup2\n        /* \"--CODEGEN--\":30:37   */\n      dup4\n        /* \"--CODEGEN--\":26:47   */\n      sub\n        /* \"--CODEGEN--\":22:54   */\n      sub\n        /* \"--CODEGEN--\":13:20   */\n      dup2\n        /* \"--CODEGEN--\":6:55   */\n      mstore\n        /* \"ethereum-crosschain-contract/contracts/Bridge.sol\":11825:11884  abi.encode(depositNonce, originChainID, destinationChainID) */\n      swap1\n      0x40\n      mstore\n        /* \"ethereum-crosschain-contract/contracts/Bridge.sol\":11802:11894  keccak256(... */\n      dup1\n      mload\n      swap1\n      0x20\n      add\n      keccak256\n        /* \"ethereum-crosschain-contract/contracts/Bridge.sol\":11781:11894  bytes32 nonceAndID = keccak256(... */\n      swap1\n      pop\n        /* \"ethereum-crosschain-contract/contracts/Bridge.sol\":11904:11920  bytes32 dataHash */\n      0x00\n        /* \"ethereum-crosschain-contract/contracts/Bridge.sol\":11944:11954  resourceID */\n      dup8\n        /* \"ethereum-crosschain-contract/contracts/Bridge.sol\":11956:11960  data */\n      dup4\n        /* \"ethereum-crosschain-contract/contracts/Bridge.sol\":11933:11961  abi.encode(resourceID, data) */\n      add(0x20, mload(0x40))\n      tag_254\n      swap3\n      swap2\n      swap1\n      jump(tag_255)\n    tag_254:\n      mload(0x40)\n        /* \"--CODEGEN--\":49:53   */\n      0x20\n        /* \"--CODEGEN--\":39:46   */\n      dup2\n        /* \"--CODEGEN--\":30:37   */\n      dup4\n        /* \"--CODEGEN--\":26:47   */\n      sub\n        /* \"--CODEGEN--\":22:54   */\n      sub\n        /* \"--CODEGEN--\":13:20   */\n      dup2\n        /* \"--CODEGEN--\":6:55   */\n      mstore\n        /* \"ethereum-crosschain-contract/contracts/Bridge.sol\":11933:11961  abi.encode(resourceID, data) */\n      swap1\n      0x40\n      mstore\n        /* \"ethereum-crosschain-contract/contracts/Bridge.sol\":11923:11962  keccak256(abi.encode(resourceID, data)) */\n      dup1\n      mload\n      swap1\n      0x20\n      add\n      keccak256\n        /* \"ethereum-crosschain-contract/contracts/Bridge.sol\":11904:11962  bytes32 dataHash = keccak256(abi.encode(resourceID, data)) */\n      swap1\n      pop\n        /* \"ethereum-crosschain-contract/contracts/Bridge.sol\":11995:12013  _executedProposals */\n      0x07\n        /* \"ethereum-crosschain-contract/contracts/Bridge.sol\":11995:12025  _executedProposals[nonceAndID] */\n      0x00\n        /* \"ethereum-crosschain-contract/contracts/Bridge.sol\":12014:12024  nonceAndID */\n      dup4\n        /* \"ethereum-crosschain-contract/contracts/Bridge.sol\":11995:12025  _executedProposals[nonceAndID] */\n      dup2\n      mstore\n      0x20\n      add\n      swap1\n      dup2\n      mstore\n      0x20\n      add\n      0x00\n      keccak256\n        /* \"ethereum-crosschain-contract/contracts/Bridge.sol\":11995:12035  _executedProposals[nonceAndID][dataHash] */\n      0x00\n        /* \"ethereum-crosschain-contract/contracts/Bridge.sol\":12026:12034  dataHash */\n      dup3\n        /* \"ethereum-crosschain-contract/contracts/Bridge.sol\":11995:12035  _executedProposals[nonceAndID][dataHash] */\n      dup2\n      mstore\n      0x20\n      add\n      swap1\n      dup2\n      mstore\n      0x20\n      add\n      0x00\n      keccak256\n      0x00\n      swap1\n      sload\n      swap1\n      0x0100\n      exp\n      swap1\n      div\n      0xff\n      and\n        /* \"ethereum-crosschain-contract/contracts/Bridge.sol\":11994:12035  !_executedProposals[nonceAndID][dataHash] */\n      iszero\n        /* \"ethereum-crosschain-contract/contracts/Bridge.sol\":11973:12086  require(... */\n      tag_256\n      jumpi\n      mload(0x40)\n      0x08c379a000000000000000000000000000000000000000000000000000000000\n      dup2\n      mstore\n      0x04\n      add\n      tag_257\n      swap1\n      jump(tag_258)\n    tag_257:\n      mload(0x40)\n      dup1\n      swap2\n      sub\n      swap1\n      revert\n    tag_256:\n        /* \"ethereum-crosschain-contract/contracts/Bridge.sol\":12126:12134  _chainID */\n      0x00\n      0x16\n      swap1\n      sload\n      swap1\n      0x0100\n      exp\n      swap1\n      div\n      0xc0\n      shl\n        /* \"ethereum-crosschain-contract/contracts/Bridge.sol\":12104:12134  destinationChainID == _chainID */\n      not(0xffffffffffffffffffffffffffffffffffffffffffffffff)\n      and\n        /* \"ethereum-crosschain-contract/contracts/Bridge.sol\":12104:12122  destinationChainID */\n      dup11\n        /* \"ethereum-crosschain-contract/contracts/Bridge.sol\":12104:12134  destinationChainID == _chainID */\n      not(0xffffffffffffffffffffffffffffffffffffffffffffffff)\n      and\n      eq\n        /* \"ethereum-crosschain-contract/contracts/Bridge.sol\":12096:12156  require(destinationChainID == _chainID, \"ChainID Incorrect\") */\n      tag_259\n      jumpi\n      mload(0x40)\n      0x08c379a000000000000000000000000000000000000000000000000000000000\n      dup2\n      mstore\n      0x04\n      add\n      tag_260\n      swap1\n      jump(tag_261)\n    tag_260:\n      mload(0x40)\n      dup1\n      swap2\n      sub\n      swap1\n      revert\n    tag_259:\n        /* \"ethereum-crosschain-contract/contracts/Bridge.sol\":12210:12214  true */\n      0x01\n        /* \"ethereum-crosschain-contract/contracts/Bridge.sol\":12167:12185  _executedProposals */\n      0x07\n        /* \"ethereum-crosschain-contract/contracts/Bridge.sol\":12167:12197  _executedProposals[nonceAndID] */\n      0x00\n        /* \"ethereum-crosschain-contract/contracts/Bridge.sol\":12186:12196  nonceAndID */\n      dup5\n        /* \"ethereum-crosschain-contract/contracts/Bridge.sol\":12167:12197  _executedProposals[nonceAndID] */\n      dup2\n      mstore\n      0x20\n      add\n      swap1\n      dup2\n      mstore\n      0x20\n      add\n      0x00\n      keccak256\n        /* \"ethereum-crosschain-contract/contracts/Bridge.sol\":12167:12207  _executedProposals[nonceAndID][dataHash] */\n      0x00\n        /* \"ethereum-crosschain-contract/contracts/Bridge.sol\":12198:12206  dataHash */\n      dup4\n        /* \"ethereum-crosschain-contract/contracts/Bridge.sol\":12167:12207  _executedProposals[nonceAndID][dataHash] */\n      dup2\n      mstore\n      0x20\n      add\n      swap1\n      dup2\n      mstore\n      0x20\n      add\n      0x00\n      keccak256\n      0x00\n        /* \"ethereum-crosschain-contract/contracts/Bridge.sol\":12167:12214  _executedProposals[nonceAndID][dataHash] = true */\n      0x0100\n      exp\n      dup2\n      sload\n      dup2\n      0xff\n      mul\n      not\n      and\n      swap1\n      dup4\n      iszero\n      iszero\n      mul\n      or\n      swap1\n      sstore\n      pop\n        /* \"ethereum-crosschain-contract/contracts/Bridge.sol\":12243:12260  _nativeResourceID */\n      sload(0x03)\n        /* \"ethereum-crosschain-contract/contracts/Bridge.sol\":12229:12239  resourceID */\n      dup9\n        /* \"ethereum-crosschain-contract/contracts/Bridge.sol\":12229:12260  resourceID == _nativeResourceID */\n      eq\n        /* \"ethereum-crosschain-contract/contracts/Bridge.sol\":12225:12728  if (resourceID == _nativeResourceID) {... */\n      iszero\n      tag_262\n      jumpi\n        /* \"ethereum-crosschain-contract/contracts/Bridge.sol\":12276:12292  recipientAddress */\n      dup7\n        /* \"ethereum-crosschain-contract/contracts/Bridge.sol\":12276:12301  recipientAddress.transfer */\n      0xffffffffffffffffffffffffffffffffffffffff\n      and\n        /* \"ethereum-crosschain-contract/contracts/Bridge.sol\":12276:12309  recipientAddress.transfer(amount) */\n      0x08fc\n        /* \"ethereum-crosschain-contract/contracts/Bridge.sol\":12302:12308  amount */\n      dup8\n        /* \"ethereum-crosschain-contract/contracts/Bridge.sol\":12276:12309  recipientAddress.transfer(amount) */\n      swap1\n      dup2\n      iszero\n      mul\n      swap1\n      mload(0x40)\n      0x00\n      mload(0x40)\n      dup1\n      dup4\n      sub\n      dup2\n      dup6\n      dup9\n      dup9\n      call\n      swap4\n      pop\n      pop\n      pop\n      pop\n      iszero\n        /* \"--CODEGEN--\":8:17   */\n      dup1\n        /* \"--CODEGEN--\":5:7   */\n      iszero\n      tag_264\n      jumpi\n        /* \"--CODEGEN--\":45:61   */\n      returndatasize\n        /* \"--CODEGEN--\":42:43   */\n      0x00\n        /* \"--CODEGEN--\":39:40   */\n      dup1\n        /* \"--CODEGEN--\":24:62   */\n      returndatacopy\n        /* \"--CODEGEN--\":77:93   */\n      returndatasize\n        /* \"--CODEGEN--\":74:75   */\n      0x00\n        /* \"--CODEGEN--\":67:94   */\n      revert\n        /* \"--CODEGEN--\":5:7   */\n    tag_264:\n        /* \"ethereum-crosschain-contract/contracts/Bridge.sol\":12276:12309  recipientAddress.transfer(amount) */\n      pop\n        /* \"ethereum-crosschain-contract/contracts/Bridge.sol\":12225:12728  if (resourceID == _nativeResourceID) {... */\n      jump(tag_265)\n    tag_262:\n        /* \"ethereum-crosschain-contract/contracts/Bridge.sol\":12340:12355  address handler */\n      0x00\n        /* \"ethereum-crosschain-contract/contracts/Bridge.sol\":12358:12385  _resourceIDToHandlerAddress */\n      0x05\n        /* \"ethereum-crosschain-contract/contracts/Bridge.sol\":12358:12397  _resourceIDToHandlerAddress[resourceID] */\n      0x00\n        /* \"ethereum-crosschain-contract/contracts/Bridge.sol\":12386:12396  resourceID */\n      dup11\n        /* \"ethereum-crosschain-contract/contracts/Bridge.sol\":12358:12397  _resourceIDToHandlerAddress[resourceID] */\n      dup2\n      mstore\n      0x20\n      add\n      swap1\n      dup2\n      mstore\n      0x20\n      add\n      0x00\n      keccak256\n      0x00\n      swap1\n      sload\n      swap1\n      0x0100\n      exp\n      swap1\n      div\n      0xffffffffffffffffffffffffffffffffffffffff\n      and\n        /* \"ethereum-crosschain-contract/contracts/Bridge.sol\":12340:12397  address handler = _resourceIDToHandlerAddress[resourceID] */\n      swap1\n      pop\n        /* \"ethereum-crosschain-contract/contracts/Bridge.sol\":12438:12439  0 */\n      0x00\n        /* \"ethereum-crosschain-contract/contracts/Bridge.sol\":12419:12440  handler != address(0) */\n      0xffffffffffffffffffffffffffffffffffffffff\n      and\n        /* \"ethereum-crosschain-contract/contracts/Bridge.sol\":12419:12426  handler */\n      dup2\n        /* \"ethereum-crosschain-contract/contracts/Bridge.sol\":12419:12440  handler != address(0) */\n      0xffffffffffffffffffffffffffffffffffffffff\n      and\n      eq\n      iszero\n        /* \"ethereum-crosschain-contract/contracts/Bridge.sol\":12411:12477  require(handler != address(0), \"resourceID not mapped to handler\") */\n      tag_266\n      jumpi\n      mload(0x40)\n      0x08c379a000000000000000000000000000000000000000000000000000000000\n      dup2\n      mstore\n      0x04\n      add\n      tag_267\n      swap1\n      jump(tag_268)\n    tag_267:\n      mload(0x40)\n      dup1\n      swap2\n      sub\n      swap1\n      revert\n    tag_266:\n        /* \"ethereum-crosschain-contract/contracts/Bridge.sol\":12492:12522  IDepositExecute depositHandler */\n      0x00\n        /* \"ethereum-crosschain-contract/contracts/Bridge.sol\":12541:12548  handler */\n      dup2\n        /* \"ethereum-crosschain-contract/contracts/Bridge.sol\":12492:12549  IDepositExecute depositHandler = IDepositExecute(handler) */\n      swap1\n      pop\n        /* \"ethereum-crosschain-contract/contracts/Bridge.sol\":12563:12577  depositHandler */\n      dup1\n        /* \"ethereum-crosschain-contract/contracts/Bridge.sol\":12563:12593  depositHandler.executeProposal */\n      0xffffffffffffffffffffffffffffffffffffffff\n      and\n      0x728e218f\n        /* \"ethereum-crosschain-contract/contracts/Bridge.sol\":12611:12621  resourceID */\n      dup12\n        /* \"ethereum-crosschain-contract/contracts/Bridge.sol\":12639:12655  recipientAddress */\n      dup12\n        /* \"ethereum-crosschain-contract/contracts/Bridge.sol\":12673:12679  amount */\n      dup12\n        /* \"ethereum-crosschain-contract/contracts/Bridge.sol\":12697:12703  params */\n      dup12\n      dup12\n        /* \"ethereum-crosschain-contract/contracts/Bridge.sol\":12563:12717  depositHandler.executeProposal(... */\n      mload(0x40)\n      dup7\n      0xffffffff\n      and\n      0xe0\n      shl\n      dup2\n      mstore\n      0x04\n      add\n      tag_269\n      swap6\n      swap5\n      swap4\n      swap3\n      swap2\n      swap1\n      jump(tag_270)\n    tag_269:\n      0x00\n      mload(0x40)\n      dup1\n      dup4\n      sub\n      dup2\n      0x00\n      dup8\n      dup1\n      extcodesize\n      iszero\n        /* \"--CODEGEN--\":5:14   */\n      dup1\n        /* \"--CODEGEN--\":2:4   */\n      iszero\n      tag_271\n      jumpi\n        /* \"--CODEGEN--\":27:28   */\n      0x00\n        /* \"--CODEGEN--\":24:25   */\n      dup1\n        /* \"--CODEGEN--\":17:29   */\n      revert\n        /* \"--CODEGEN--\":2:4   */\n    tag_271:\n        /* \"ethereum-crosschain-contract/contracts/Bridge.sol\":12563:12717  depositHandler.executeProposal(... */\n      pop\n      gas\n      call\n      iszero\n        /* \"--CODEGEN--\":8:17   */\n      dup1\n        /* \"--CODEGEN--\":5:7   */\n      iszero\n      tag_273\n      jumpi\n        /* \"--CODEGEN--\":45:61   */\n      returndatasize\n        /* \"--CODEGEN--\":42:43   */\n      0x00\n        /* \"--CODEGEN--\":39:40   */\n      dup1\n        /* \"--CODEGEN--\":24:62   */\n      returndatacopy\n        /* \"--CODEGEN--\":77:93   */\n      returndatasize\n        /* \"--CODEGEN--\":74:75   */\n      0x00\n        /* \"--CODEGEN--\":67:94   */\n      revert\n        /* \"--CODEGEN--\":5:7   */\n    tag_273:\n        /* \"ethereum-crosschain-contract/contracts/Bridge.sol\":12563:12717  depositHandler.executeProposal(... */\n      pop\n      pop\n      pop\n      pop\n        /* \"ethereum-crosschain-contract/contracts/Bridge.sol\":12225:12728  if (resourceID == _nativeResourceID) {... */\n      pop\n      pop\n    tag_265:\n        /* \"ethereum-crosschain-contract/contracts/Bridge.sol\":12829:12845  recipientAddress */\n      dup7\n        /* \"ethereum-crosschain-contract/contracts/Bridge.sol\":12743:12984  ProposalEvent(... */\n      0xffffffffffffffffffffffffffffffffffffffff\n      and\n        /* \"ethereum-crosschain-contract/contracts/Bridge.sol\":12797:12815  destinationChainID */\n      dup11\n        /* \"ethereum-crosschain-contract/contracts/Bridge.sol\":12743:12984  ProposalEvent(... */\n      not(0xffffffffffffffffffffffffffffffffffffffffffffffff)\n      and\n        /* \"ethereum-crosschain-contract/contracts/Bridge.sol\":12770:12783  originChainID */\n      dup13\n        /* \"ethereum-crosschain-contract/contracts/Bridge.sol\":12743:12984  ProposalEvent(... */\n      not(0xffffffffffffffffffffffffffffffffffffffffffffffff)\n      and\n      0x9686dcabd0450cad86a88df15a9d35b08b35d1b08a19008df37cf8538c467516\n        /* \"ethereum-crosschain-contract/contracts/Bridge.sol\":12859:12865  amount */\n      dup10\n        /* \"ethereum-crosschain-contract/contracts/Bridge.sol\":12879:12891  depositNonce */\n      dup14\n        /* \"ethereum-crosschain-contract/contracts/Bridge.sol\":12905:12928  ProposalStatus.Executed */\n      0x03\n        /* \"ethereum-crosschain-contract/contracts/Bridge.sol\":12942:12952  resourceID */\n      dup15\n        /* \"ethereum-crosschain-contract/contracts/Bridge.sol\":12966:12974  dataHash */\n      dup9\n        /* \"ethereum-crosschain-contract/contracts/Bridge.sol\":12743:12984  ProposalEvent(... */\n      mload(0x40)\n      tag_274\n      swap6\n      swap5\n      swap4\n      swap3\n      swap2\n      swap1\n      jump(tag_275)\n    tag_274:\n      mload(0x40)\n      dup1\n      swap2\n      sub\n      swap1\n      log4\n        /* \"ethereum-crosschain-contract/contracts/utils/Pausable.sol\":1078:1079  _ */\n      pop\n      pop\n      pop\n        /* \"ethereum-crosschain-contract/contracts/Bridge.sol\":11417:12991  function executeProposal(... */\n      pop\n      pop\n      pop\n      pop\n      pop\n      pop\n      pop\n      pop\n      jump\t// out\n        /* \"ethereum-crosschain-contract/contracts/utils/UpgradableOwnable.sol\":1268:1353  function owner() public view virtual returns (address) {... */\n    tag_106:\n        /* \"ethereum-crosschain-contract/contracts/utils/UpgradableOwnable.sol\":1314:1321  address */\n      0x00\n        /* \"ethereum-crosschain-contract/contracts/utils/UpgradableOwnable.sol\":1340:1346  _owner */\n      dup1\n      0x01\n      swap1\n      sload\n      swap1\n      0x0100\n      exp\n      swap1\n      div\n      0xffffffffffffffffffffffffffffffffffffffff\n      and\n        /* \"ethereum-crosschain-contract/contracts/utils/UpgradableOwnable.sol\":1333:1346  return _owner */\n      swap1\n      pop\n        /* \"ethereum-crosschain-contract/contracts/utils/UpgradableOwnable.sol\":1268:1353  function owner() public view virtual returns (address) {... */\n      swap1\n      jump\t// out\n        /* \"ethereum-crosschain-contract/contracts/Bridge.sol\":9982:10871  function internalDeposit(... */\n    tag_112:\n        /* \"ethereum-crosschain-contract/contracts/utils/Pausable.sol\":1052:1068  _whenNotPaused() */\n      tag_278\n        /* \"ethereum-crosschain-contract/contracts/utils/Pausable.sol\":1052:1066  _whenNotPaused */\n      tag_248\n        /* \"ethereum-crosschain-contract/contracts/utils/Pausable.sol\":1052:1068  _whenNotPaused() */\n      jump\t// in\n    tag_278:\n        /* \"ethereum-crosschain-contract/contracts/Bridge.sol\":2332:2340  handlers */\n      0x08\n        /* \"ethereum-crosschain-contract/contracts/Bridge.sol\":2332:2352  handlers[msg.sender] */\n      0x00\n        /* \"ethereum-crosschain-contract/contracts/Bridge.sol\":2341:2351  msg.sender */\n      caller\n        /* \"ethereum-crosschain-contract/contracts/Bridge.sol\":2332:2352  handlers[msg.sender] */\n      0xffffffffffffffffffffffffffffffffffffffff\n      and\n      0xffffffffffffffffffffffffffffffffffffffff\n      and\n      dup2\n      mstore\n      0x20\n      add\n      swap1\n      dup2\n      mstore\n      0x20\n      add\n      0x00\n      keccak256\n      0x00\n      swap1\n      sload\n      swap1\n      0x0100\n      exp\n      swap1\n      div\n      0xff\n      and\n        /* \"ethereum-crosschain-contract/contracts/Bridge.sol\":2324:2381  require(handlers[msg.sender], \"sender is not a handler\" ) */\n      tag_280\n      jumpi\n      mload(0x40)\n      0x08c379a000000000000000000000000000000000000000000000000000000000\n      dup2\n      mstore\n      0x04\n      add\n      tag_281\n      swap1\n      jump(tag_282)\n    tag_281:\n      mload(0x40)\n      dup1\n      swap2\n      sub\n      swap1\n      revert\n    tag_280:\n        /* \"ethereum-crosschain-contract/contracts/Bridge.sol\":10177:10196  uint64 depositNonce */\n      0x00\n        /* \"ethereum-crosschain-contract/contracts/Bridge.sol\":10201:10215  _depositCounts */\n      0x04\n        /* \"ethereum-crosschain-contract/contracts/Bridge.sol\":10201:10235  _depositCounts[destinationChainID] */\n      0x00\n        /* \"ethereum-crosschain-contract/contracts/Bridge.sol\":10216:10234  destinationChainID */\n      dup7\n        /* \"ethereum-crosschain-contract/contracts/Bridge.sol\":10201:10235  _depositCounts[destinationChainID] */\n      not(0xffffffffffffffffffffffffffffffffffffffffffffffff)\n      and\n      not(0xffffffffffffffffffffffffffffffffffffffffffffffff)\n      and\n      dup2\n      mstore\n      0x20\n      add\n      swap1\n      dup2\n      mstore\n      0x20\n      add\n      0x00\n      keccak256\n      0x00\n        /* \"ethereum-crosschain-contract/contracts/Bridge.sol\":10199:10235  ++_depositCounts[destinationChainID] */\n      dup2\n      dup2\n      swap1\n      sload\n      swap1\n      0x0100\n      exp\n      swap1\n      div\n      0xffffffffffffffff\n      and\n      0x01\n      add\n      swap2\n      swap1\n      0x0100\n      exp\n      dup2\n      sload\n      dup2\n      0xffffffffffffffff\n      mul\n      not\n      and\n      swap1\n      dup4\n      0xffffffffffffffff\n      and\n      mul\n      or\n      swap1\n      sstore\n        /* \"ethereum-crosschain-contract/contracts/Bridge.sol\":10177:10235  uint64 depositNonce = ++_depositCounts[destinationChainID] */\n      swap1\n      pop\n        /* \"ethereum-crosschain-contract/contracts/Bridge.sol\":10245:10262  bytes memory data */\n      0x60\n        /* \"ethereum-crosschain-contract/contracts/Bridge.sol\":10276:10282  amount */\n      dup4\n        /* \"ethereum-crosschain-contract/contracts/Bridge.sol\":10284:10300  recipientAddress */\n      dup4\n        /* \"ethereum-crosschain-contract/contracts/Bridge.sol\":10265:10301  abi.encode(amount, recipientAddress) */\n      add(0x20, mload(0x40))\n      tag_284\n      swap3\n      swap2\n      swap1\n      jump(tag_285)\n    tag_284:\n      mload(0x40)\n        /* \"--CODEGEN--\":49:53   */\n      0x20\n        /* \"--CODEGEN--\":39:46   */\n      dup2\n        /* \"--CODEGEN--\":30:37   */\n      dup4\n        /* \"--CODEGEN--\":26:47   */\n      sub\n        /* \"--CODEGEN--\":22:54   */\n      sub\n        /* \"--CODEGEN--\":13:20   */\n      dup2\n        /* \"--CODEGEN--\":6:55   */\n      mstore\n        /* \"ethereum-crosschain-contract/contracts/Bridge.sol\":10265:10301  abi.encode(amount, recipientAddress) */\n      swap1\n      0x40\n      mstore\n        /* \"ethereum-crosschain-contract/contracts/Bridge.sol\":10245:10301  bytes memory data = abi.encode(amount, recipientAddress) */\n      swap1\n      pop\n        /* \"ethereum-crosschain-contract/contracts/Bridge.sol\":10311:10327  bytes32 dataHash */\n      0x00\n        /* \"ethereum-crosschain-contract/contracts/Bridge.sol\":10351:10361  resourceID */\n      dup6\n        /* \"ethereum-crosschain-contract/contracts/Bridge.sol\":10363:10367  data */\n      dup3\n        /* \"ethereum-crosschain-contract/contracts/Bridge.sol\":10340:10368  abi.encode(resourceID, data) */\n      add(0x20, mload(0x40))\n      tag_286\n      swap3\n      swap2\n      swap1\n      jump(tag_255)\n    tag_286:\n      mload(0x40)\n        /* \"--CODEGEN--\":49:53   */\n      0x20\n        /* \"--CODEGEN--\":39:46   */\n      dup2\n        /* \"--CODEGEN--\":30:37   */\n      dup4\n        /* \"--CODEGEN--\":26:47   */\n      sub\n        /* \"--CODEGEN--\":22:54   */\n      sub\n        /* \"--CODEGEN--\":13:20   */\n      dup2\n        /* \"--CODEGEN--\":6:55   */\n      mstore\n        /* \"ethereum-crosschain-contract/contracts/Bridge.sol\":10340:10368  abi.encode(resourceID, data) */\n      swap1\n      0x40\n      mstore\n        /* \"ethereum-crosschain-contract/contracts/Bridge.sol\":10330:10369  keccak256(abi.encode(resourceID, data)) */\n      dup1\n      mload\n      swap1\n      0x20\n      add\n      keccak256\n        /* \"ethereum-crosschain-contract/contracts/Bridge.sol\":10311:10369  bytes32 dataHash = keccak256(abi.encode(resourceID, data)) */\n      swap1\n      pop\n        /* \"ethereum-crosschain-contract/contracts/Bridge.sol\":10431:10435  data */\n      dup2\n        /* \"ethereum-crosschain-contract/contracts/Bridge.sol\":10379:10394  _depositRecords */\n      0x06\n        /* \"ethereum-crosschain-contract/contracts/Bridge.sol\":10379:10408  _depositRecords[depositNonce] */\n      0x00\n        /* \"ethereum-crosschain-contract/contracts/Bridge.sol\":10395:10407  depositNonce */\n      dup6\n        /* \"ethereum-crosschain-contract/contracts/Bridge.sol\":10379:10408  _depositRecords[depositNonce] */\n      0xffffffffffffffff\n      and\n      0xffffffffffffffff\n      and\n      dup2\n      mstore\n      0x20\n      add\n      swap1\n      dup2\n      mstore\n      0x20\n      add\n      0x00\n      keccak256\n        /* \"ethereum-crosschain-contract/contracts/Bridge.sol\":10379:10428  _depositRecords[depositNonce][destinationChainID] */\n      0x00\n        /* \"ethereum-crosschain-contract/contracts/Bridge.sol\":10409:10427  destinationChainID */\n      dup10\n        /* \"ethereum-crosschain-contract/contracts/Bridge.sol\":10379:10428  _depositRecords[depositNonce][destinationChainID] */\n      not(0xffffffffffffffffffffffffffffffffffffffffffffffff)\n      and\n      not(0xffffffffffffffffffffffffffffffffffffffffffffffff)\n      and\n      dup2\n      mstore\n      0x20\n      add\n      swap1\n      dup2\n      mstore\n      0x20\n      add\n      0x00\n      keccak256\n        /* \"ethereum-crosschain-contract/contracts/Bridge.sol\":10379:10435  _depositRecords[depositNonce][destinationChainID] = data */\n      swap1\n      dup1\n      mload\n      swap1\n      0x20\n      add\n      swap1\n      tag_287\n      swap3\n      swap2\n      swap1\n      tag_288\n      jump\t// in\n    tag_287:\n      pop\n        /* \"ethereum-crosschain-contract/contracts/Bridge.sol\":10446:10461  address handler */\n      0x00\n        /* \"ethereum-crosschain-contract/contracts/Bridge.sol\":10464:10491  _resourceIDToHandlerAddress */\n      0x05\n        /* \"ethereum-crosschain-contract/contracts/Bridge.sol\":10464:10503  _resourceIDToHandlerAddress[resourceID] */\n      0x00\n        /* \"ethereum-crosschain-contract/contracts/Bridge.sol\":10492:10502  resourceID */\n      dup9\n        /* \"ethereum-crosschain-contract/contracts/Bridge.sol\":10464:10503  _resourceIDToHandlerAddress[resourceID] */\n      dup2\n      mstore\n      0x20\n      add\n      swap1\n      dup2\n      mstore\n      0x20\n      add\n      0x00\n      keccak256\n      0x00\n      swap1\n      sload\n      swap1\n      0x0100\n      exp\n      swap1\n      div\n      0xffffffffffffffffffffffffffffffffffffffff\n      and\n        /* \"ethereum-crosschain-contract/contracts/Bridge.sol\":10446:10503  address handler = _resourceIDToHandlerAddress[resourceID] */\n      swap1\n      pop\n        /* \"ethereum-crosschain-contract/contracts/Bridge.sol\":10513:10533  address tokenAddress */\n      0x00\n        /* \"ethereum-crosschain-contract/contracts/Bridge.sol\":10552:10559  handler */\n      dup2\n        /* \"ethereum-crosschain-contract/contracts/Bridge.sol\":10536:10585  IDepositExecute(handler).getAddressFromResourceId */\n      0xffffffffffffffffffffffffffffffffffffffff\n      and\n      0xa7a3fb40\n        /* \"ethereum-crosschain-contract/contracts/Bridge.sol\":10586:10596  resourceID */\n      dup10\n        /* \"ethereum-crosschain-contract/contracts/Bridge.sol\":10536:10597  IDepositExecute(handler).getAddressFromResourceId(resourceID) */\n      mload(0x40)\n      dup3\n      0xffffffff\n      and\n      0xe0\n      shl\n      dup2\n      mstore\n      0x04\n      add\n      tag_289\n      swap2\n      swap1\n      jump(tag_133)\n    tag_289:\n      0x20\n      mload(0x40)\n      dup1\n      dup4\n      sub\n      dup2\n      dup7\n      dup1\n      extcodesize\n      iszero\n        /* \"--CODEGEN--\":5:14   */\n      dup1\n        /* \"--CODEGEN--\":2:4   */\n      iszero\n      tag_290\n      jumpi\n        /* \"--CODEGEN--\":27:28   */\n      0x00\n        /* \"--CODEGEN--\":24:25   */\n      dup1\n        /* \"--CODEGEN--\":17:29   */\n      revert\n        /* \"--CODEGEN--\":2:4   */\n    tag_290:\n        /* \"ethereum-crosschain-contract/contracts/Bridge.sol\":10536:10597  IDepositExecute(handler).getAddressFromResourceId(resourceID) */\n      pop\n      gas\n      staticcall\n      iszero\n        /* \"--CODEGEN--\":8:17   */\n      dup1\n        /* \"--CODEGEN--\":5:7   */\n      iszero\n      tag_292\n      jumpi\n        /* \"--CODEGEN--\":45:61   */\n      returndatasize\n        /* \"--CODEGEN--\":42:43   */\n      0x00\n        /* \"--CODEGEN--\":39:40   */\n      dup1\n        /* \"--CODEGEN--\":24:62   */\n      returndatacopy\n        /* \"--CODEGEN--\":77:93   */\n      returndatasize\n        /* \"--CODEGEN--\":74:75   */\n      0x00\n        /* \"--CODEGEN--\":67:94   */\n      revert\n        /* \"--CODEGEN--\":5:7   */\n    tag_292:\n        /* \"ethereum-crosschain-contract/contracts/Bridge.sol\":10536:10597  IDepositExecute(handler).getAddressFromResourceId(resourceID) */\n      pop\n      pop\n      pop\n      pop\n      mload(0x40)\n      returndatasize\n        /* \"--CODEGEN--\":101:105   */\n      0x1f\n        /* \"--CODEGEN--\":97:106   */\n      not\n        /* \"--CODEGEN--\":90:94   */\n      0x1f\n        /* \"--CODEGEN--\":84:88   */\n      dup3\n        /* \"--CODEGEN--\":80:95   */\n      add\n        /* \"--CODEGEN--\":76:107   */\n      and\n        /* \"--CODEGEN--\":69:74   */\n      dup3\n        /* \"--CODEGEN--\":65:108   */\n      add\n        /* \"--CODEGEN--\":126:132   */\n      dup1\n        /* \"--CODEGEN--\":120:124   */\n      0x40\n        /* \"--CODEGEN--\":113:133   */\n      mstore\n        /* \"--CODEGEN--\":0:138   */\n      pop\n        /* \"ethereum-crosschain-contract/contracts/Bridge.sol\":10536:10597  IDepositExecute(handler).getAddressFromResourceId(resourceID) */\n      dup2\n      add\n      swap1\n      tag_293\n      swap2\n      swap1\n      jump(tag_294)\n    tag_293:\n        /* \"ethereum-crosschain-contract/contracts/Bridge.sol\":10513:10597  address tokenAddress = IDepositExecute(handler).getAddressFromResourceId(resourceID) */\n      swap1\n      pop\n        /* \"ethereum-crosschain-contract/contracts/Bridge.sol\":10720:10732  depositNonce */\n      dup5\n        /* \"ethereum-crosschain-contract/contracts/Bridge.sol\":10621:10864  Deposit(... */\n      0xffffffffffffffff\n      and\n        /* \"ethereum-crosschain-contract/contracts/Bridge.sol\":10696:10706  resourceID */\n      dup9\n        /* \"ethereum-crosschain-contract/contracts/Bridge.sol\":10664:10682  destinationChainID */\n      dup11\n        /* \"ethereum-crosschain-contract/contracts/Bridge.sol\":10621:10864  Deposit(... */\n      not(0xffffffffffffffffffffffffffffffffffffffffffffffff)\n      and\n      0x370525803ffa9a7c0e6adb3868e393dca45d8b42b2f62fd1f23ecfe99f6ce8fc\n        /* \"ethereum-crosschain-contract/contracts/Bridge.sol\":10642:10650  _chainID */\n      0x00\n      0x16\n      swap1\n      sload\n      swap1\n      0x0100\n      exp\n      swap1\n      div\n      0xc0\n      shl\n        /* \"ethereum-crosschain-contract/contracts/Bridge.sol\":10746:10756  msg.sender */\n      caller\n        /* \"ethereum-crosschain-contract/contracts/Bridge.sol\":10770:10786  recipientAddress */\n      dup12\n        /* \"ethereum-crosschain-contract/contracts/Bridge.sol\":10800:10812  tokenAddress */\n      dup8\n        /* \"ethereum-crosschain-contract/contracts/Bridge.sol\":10826:10832  amount */\n      dup15\n        /* \"ethereum-crosschain-contract/contracts/Bridge.sol\":10846:10854  dataHash */\n      dup12\n        /* \"ethereum-crosschain-contract/contracts/Bridge.sol\":10621:10864  Deposit(... */\n      mload(0x40)\n      tag_295\n      swap7\n      swap6\n      swap5\n      swap4\n      swap3\n      swap2\n      swap1\n      jump(tag_296)\n    tag_295:\n      mload(0x40)\n      dup1\n      swap2\n      sub\n      swap1\n      log4\n        /* \"ethereum-crosschain-contract/contracts/Bridge.sol\":2391:2392  _ */\n      pop\n      pop\n      pop\n      pop\n      pop\n        /* \"ethereum-crosschain-contract/contracts/Bridge.sol\":9982:10871  function internalDeposit(... */\n      pop\n      pop\n      pop\n      pop\n      jump\t// out\n        /* \"ethereum-crosschain-contract/contracts/Bridge.sol\":2719:2976  function initialize(... */\n    tag_117:\n        /* \"ethereum-crosschain-contract/contracts/Bridge.sol\":2857:2864  chainID */\n      dup3\n        /* \"ethereum-crosschain-contract/contracts/Bridge.sol\":2846:2854  _chainID */\n      0x00\n      0x16\n        /* \"ethereum-crosschain-contract/contracts/Bridge.sol\":2846:2864  _chainID = chainID */\n      0x0100\n      exp\n      dup2\n      sload\n      dup2\n      0xffffffffffffffff\n      mul\n      not\n      and\n      swap1\n      dup4\n      0xc0\n      shr\n      mul\n      or\n      swap1\n      sstore\n      pop\n        /* \"ethereum-crosschain-contract/contracts/Bridge.sol\":2881:2884  fee */\n      dup2\n        /* \"ethereum-crosschain-contract/contracts/Bridge.sol\":2874:2878  _fee */\n      0x01\n        /* \"ethereum-crosschain-contract/contracts/Bridge.sol\":2874:2884  _fee = fee */\n      dup2\n      swap1\n      sstore\n      pop\n        /* \"ethereum-crosschain-contract/contracts/Bridge.sol\":2915:2936  initBackendSrvAddress */\n      dup1\n        /* \"ethereum-crosschain-contract/contracts/Bridge.sol\":2894:2912  _backendSrvAddress */\n      0x02\n      0x00\n        /* \"ethereum-crosschain-contract/contracts/Bridge.sol\":2894:2936  _backendSrvAddress = initBackendSrvAddress */\n      0x0100\n      exp\n      dup2\n      sload\n      dup2\n      0xffffffffffffffffffffffffffffffffffffffff\n      mul\n      not\n      and\n      swap1\n      dup4\n      0xffffffffffffffffffffffffffffffffffffffff\n      and\n      mul\n      or\n      swap1\n      sstore\n      pop\n        /* \"ethereum-crosschain-contract/contracts/Bridge.sol\":2946:2969  ownableInit(msg.sender) */\n      tag_298\n        /* \"ethereum-crosschain-contract/contracts/Bridge.sol\":2958:2968  msg.sender */\n      caller\n        /* \"ethereum-crosschain-contract/contracts/Bridge.sol\":2946:2957  ownableInit */\n      tag_185\n        /* \"ethereum-crosschain-contract/contracts/Bridge.sol\":2946:2969  ownableInit(msg.sender) */\n      jump\t// in\n    tag_298:\n        /* \"ethereum-crosschain-contract/contracts/Bridge.sol\":2719:2976  function initialize(... */\n      pop\n      pop\n      pop\n      jump\t// out\n        /* \"ethereum-crosschain-contract/contracts/Bridge.sol\":1098:1168  mapping(bytes32 => mapping(bytes32 => bool)) public _executedProposals */\n    tag_122:\n      mstore(0x20, 0x07)\n      dup2\n      0x00\n      mstore\n      mstore(0x20, keccak256(0x00, 0x40))\n      dup1\n      0x00\n      mstore\n      keccak256(0x00, 0x40)\n      0x00\n      swap2\n      pop\n      swap2\n      pop\n      swap1\n      sload\n      swap1\n      0x0100\n      exp\n      swap1\n      div\n      0xff\n      and\n      dup2\n      jump\t// out\n        /* \"ethereum-crosschain-contract/contracts/Bridge.sol\":2405:2522  function setHandler(address _handler, bool value) external onlyBackendSrv {... */\n    tag_128:\n        /* \"ethereum-crosschain-contract/contracts/Bridge.sol\":2077:2094  _onlyBackendSrv() */\n      tag_300\n        /* \"ethereum-crosschain-contract/contracts/Bridge.sol\":2077:2092  _onlyBackendSrv */\n      tag_195\n        /* \"ethereum-crosschain-contract/contracts/Bridge.sol\":2077:2094  _onlyBackendSrv() */\n      jump\t// in\n    tag_300:\n        /* \"ethereum-crosschain-contract/contracts/Bridge.sol\":2510:2515  value */\n      dup1\n        /* \"ethereum-crosschain-contract/contracts/Bridge.sol\":2489:2497  handlers */\n      0x08\n        /* \"ethereum-crosschain-contract/contracts/Bridge.sol\":2489:2507  handlers[_handler] */\n      0x00\n        /* \"ethereum-crosschain-contract/contracts/Bridge.sol\":2498:2506  _handler */\n      dup5\n        /* \"ethereum-crosschain-contract/contracts/Bridge.sol\":2489:2507  handlers[_handler] */\n      0xffffffffffffffffffffffffffffffffffffffff\n      and\n      0xffffffffffffffffffffffffffffffffffffffff\n      and\n      dup2\n      mstore\n      0x20\n      add\n      swap1\n      dup2\n      mstore\n      0x20\n      add\n      0x00\n      keccak256\n      0x00\n        /* \"ethereum-crosschain-contract/contracts/Bridge.sol\":2489:2515  handlers[_handler] = value */\n      0x0100\n      exp\n      dup2\n      sload\n      dup2\n      0xff\n      mul\n      not\n      and\n      swap1\n      dup4\n      iszero\n      iszero\n      mul\n      or\n      swap1\n      sstore\n      pop\n        /* \"ethereum-crosschain-contract/contracts/Bridge.sol\":2405:2522  function setHandler(address _handler, bool value) external onlyBackendSrv {... */\n      pop\n      pop\n      jump\t// out\n        /* \"ethereum-crosschain-contract/contracts/Bridge.sol\":669:701  bytes32 public _nativeResourceID */\n    tag_131:\n      sload(0x03)\n      dup2\n      jump\t// out\n        /* \"ethereum-crosschain-contract/contracts/Bridge.sol\":965:1031  mapping(uint64 => mapping(bytes8 => bytes)) public _depositRecords */\n    tag_138:\n      mstore(0x20, 0x06)\n      dup2\n      0x00\n      mstore\n      mstore(0x20, keccak256(0x00, 0x40))\n      dup1\n      0x00\n      mstore\n      keccak256(0x00, 0x40)\n      0x00\n      swap2\n      pop\n      swap2\n      pop\n      pop\n      dup1\n      sload\n      0x01\n      dup2\n      0x01\n      and\n      iszero\n      0x0100\n      mul\n      sub\n      and\n      0x02\n      swap1\n      div\n      dup1\n      0x1f\n      add\n      0x20\n      dup1\n      swap2\n      div\n      mul\n      0x20\n      add\n      mload(0x40)\n      swap1\n      dup2\n      add\n      0x40\n      mstore\n      dup1\n      swap3\n      swap2\n      swap1\n      dup2\n      dup2\n      mstore\n      0x20\n      add\n      dup3\n      dup1\n      sload\n      0x01\n      dup2\n      0x01\n      and\n      iszero\n      0x0100\n      mul\n      sub\n      and\n      0x02\n      swap1\n      div\n      dup1\n      iszero\n      tag_302\n      jumpi\n      dup1\n      0x1f\n      lt\n      tag_303\n      jumpi\n      0x0100\n      dup1\n      dup4\n      sload\n      div\n      mul\n      dup4\n      mstore\n      swap2\n      0x20\n      add\n      swap2\n      jump(tag_302)\n    tag_303:\n      dup3\n      add\n      swap2\n      swap1\n      0x00\n      mstore\n      keccak256(0x00, 0x20)\n      swap1\n    tag_304:\n      dup2\n      sload\n      dup2\n      mstore\n      swap1\n      0x01\n      add\n      swap1\n      0x20\n      add\n      dup1\n      dup4\n      gt\n      tag_304\n      jumpi\n      dup3\n      swap1\n      sub\n      0x1f\n      and\n      dup3\n      add\n      swap2\n    tag_302:\n      pop\n      pop\n      pop\n      pop\n      pop\n      dup2\n      jump\t// out\n        /* \"ethereum-crosschain-contract/contracts/Bridge.sol\":4366:4735  function setResource(... */\n    tag_145:\n        /* \"ethereum-crosschain-contract/contracts/Bridge.sol\":2077:2094  _onlyBackendSrv() */\n      tag_306\n        /* \"ethereum-crosschain-contract/contracts/Bridge.sol\":2077:2092  _onlyBackendSrv */\n      tag_195\n        /* \"ethereum-crosschain-contract/contracts/Bridge.sol\":2077:2094  _onlyBackendSrv() */\n      jump\t// in\n    tag_306:\n        /* \"ethereum-crosschain-contract/contracts/Bridge.sol\":4559:4573  handlerAddress */\n      dup3\n        /* \"ethereum-crosschain-contract/contracts/Bridge.sol\":4517:4544  _resourceIDToHandlerAddress */\n      0x05\n        /* \"ethereum-crosschain-contract/contracts/Bridge.sol\":4517:4556  _resourceIDToHandlerAddress[resourceID] */\n      0x00\n        /* \"ethereum-crosschain-contract/contracts/Bridge.sol\":4545:4555  resourceID */\n      dup5\n        /* \"ethereum-crosschain-contract/contracts/Bridge.sol\":4517:4556  _resourceIDToHandlerAddress[resourceID] */\n      dup2\n      mstore\n      0x20\n      add\n      swap1\n      dup2\n      mstore\n      0x20\n      add\n      0x00\n      keccak256\n      0x00\n        /* \"ethereum-crosschain-contract/contracts/Bridge.sol\":4517:4573  _resourceIDToHandlerAddress[resourceID] = handlerAddress */\n      0x0100\n      exp\n      dup2\n      sload\n      dup2\n      0xffffffffffffffffffffffffffffffffffffffff\n      mul\n      not\n      and\n      swap1\n      dup4\n      0xffffffffffffffffffffffffffffffffffffffff\n      and\n      mul\n      or\n      swap1\n      sstore\n      pop\n        /* \"ethereum-crosschain-contract/contracts/Bridge.sol\":4583:4602  IERCHandler handler */\n      0x00\n        /* \"ethereum-crosschain-contract/contracts/Bridge.sol\":4617:4631  handlerAddress */\n      dup4\n        /* \"ethereum-crosschain-contract/contracts/Bridge.sol\":4583:4632  IERCHandler handler = IERCHandler(handlerAddress) */\n      swap1\n      pop\n        /* \"ethereum-crosschain-contract/contracts/Bridge.sol\":4642:4649  handler */\n      dup1\n        /* \"ethereum-crosschain-contract/contracts/Bridge.sol\":4642:4661  handler.setResource */\n      0xffffffffffffffffffffffffffffffffffffffff\n      and\n      0xb8fa3736\n        /* \"ethereum-crosschain-contract/contracts/Bridge.sol\":4662:4672  resourceID */\n      dup5\n        /* \"ethereum-crosschain-contract/contracts/Bridge.sol\":4674:4686  tokenAddress */\n      dup5\n        /* \"ethereum-crosschain-contract/contracts/Bridge.sol\":4642:4687  handler.setResource(resourceID, tokenAddress) */\n      mload(0x40)\n      dup4\n      0xffffffff\n      and\n      0xe0\n      shl\n      dup2\n      mstore\n      0x04\n      add\n      tag_308\n      swap3\n      swap2\n      swap1\n      jump(tag_309)\n    tag_308:\n      0x00\n      mload(0x40)\n      dup1\n      dup4\n      sub\n      dup2\n      0x00\n      dup8\n      dup1\n      extcodesize\n      iszero\n        /* \"--CODEGEN--\":5:14   */\n      dup1\n        /* \"--CODEGEN--\":2:4   */\n      iszero\n      tag_310\n      jumpi\n        /* \"--CODEGEN--\":27:28   */\n      0x00\n        /* \"--CODEGEN--\":24:25   */\n      dup1\n        /* \"--CODEGEN--\":17:29   */\n      revert\n        /* \"--CODEGEN--\":2:4   */\n    tag_310:\n        /* \"ethereum-crosschain-contract/contracts/Bridge.sol\":4642:4687  handler.setResource(resourceID, tokenAddress) */\n      pop\n      gas\n      call\n      iszero\n        /* \"--CODEGEN--\":8:17   */\n      dup1\n        /* \"--CODEGEN--\":5:7   */\n      iszero\n      tag_312\n      jumpi\n        /* \"--CODEGEN--\":45:61   */\n      returndatasize\n        /* \"--CODEGEN--\":42:43   */\n      0x00\n        /* \"--CODEGEN--\":39:40   */\n      dup1\n        /* \"--CODEGEN--\":24:62   */\n      returndatacopy\n        /* \"--CODEGEN--\":77:93   */\n      returndatasize\n        /* \"--CODEGEN--\":74:75   */\n      0x00\n        /* \"--CODEGEN--\":67:94   */\n      revert\n        /* \"--CODEGEN--\":5:7   */\n    tag_312:\n        /* \"ethereum-crosschain-contract/contracts/Bridge.sol\":4642:4687  handler.setResource(resourceID, tokenAddress) */\n      pop\n      pop\n      pop\n      pop\n        /* \"ethereum-crosschain-contract/contracts/Bridge.sol\":4724:4728  true */\n      0x01\n        /* \"ethereum-crosschain-contract/contracts/Bridge.sol\":4697:4705  handlers */\n      0x08\n        /* \"ethereum-crosschain-contract/contracts/Bridge.sol\":4697:4721  handlers[handlerAddress] */\n      0x00\n        /* \"ethereum-crosschain-contract/contracts/Bridge.sol\":4706:4720  handlerAddress */\n      dup7\n        /* \"ethereum-crosschain-contract/contracts/Bridge.sol\":4697:4721  handlers[handlerAddress] */\n      0xffffffffffffffffffffffffffffffffffffffff\n      and\n      0xffffffffffffffffffffffffffffffffffffffff\n      and\n      dup2\n      mstore\n      0x20\n      add\n      swap1\n      dup2\n      mstore\n      0x20\n      add\n      0x00\n      keccak256\n      0x00\n        /* \"ethereum-crosschain-contract/contracts/Bridge.sol\":4697:4728  handlers[handlerAddress] = true */\n      0x0100\n      exp\n      dup2\n      sload\n      dup2\n      0xff\n      mul\n      not\n      and\n      swap1\n      dup4\n      iszero\n      iszero\n      mul\n      or\n      swap1\n      sstore\n      pop\n        /* \"ethereum-crosschain-contract/contracts/Bridge.sol\":2104:2105  _ */\n      pop\n        /* \"ethereum-crosschain-contract/contracts/Bridge.sol\":4366:4735  function setResource(... */\n      pop\n      pop\n      pop\n      jump\t// out\n        /* \"ethereum-crosschain-contract/contracts/utils/SafeMath.sol\":618:751  function sub(uint256 a, uint256 b) public pure returns (uint256) {... */\n    tag_150:\n        /* \"ethereum-crosschain-contract/contracts/utils/SafeMath.sol\":674:681  uint256 */\n      0x00\n        /* \"ethereum-crosschain-contract/contracts/utils/SafeMath.sol\":700:744  _sub(a, b, \"SafeMath: subtraction overflow\") */\n      tag_314\n        /* \"ethereum-crosschain-contract/contracts/utils/SafeMath.sol\":705:706  a */\n      dup4\n        /* \"ethereum-crosschain-contract/contracts/utils/SafeMath.sol\":708:709  b */\n      dup4\n        /* \"ethereum-crosschain-contract/contracts/utils/SafeMath.sol\":700:744  _sub(a, b, \"SafeMath: subtraction overflow\") */\n      mload(0x40)\n      dup1\n      0x40\n      add\n      0x40\n      mstore\n      dup1\n      0x1e\n      dup2\n      mstore\n      0x20\n      add\n      0x536166654d6174683a207375627472616374696f6e206f766572666c6f770000\n      dup2\n      mstore\n      pop\n        /* \"ethereum-crosschain-contract/contracts/utils/SafeMath.sol\":700:704  _sub */\n      tag_315\n        /* \"ethereum-crosschain-contract/contracts/utils/SafeMath.sol\":700:744  _sub(a, b, \"SafeMath: subtraction overflow\") */\n      jump\t// in\n    tag_314:\n        /* \"ethereum-crosschain-contract/contracts/utils/SafeMath.sol\":693:744  return _sub(a, b, \"SafeMath: subtraction overflow\") */\n      swap1\n      pop\n        /* \"ethereum-crosschain-contract/contracts/utils/SafeMath.sol\":618:751  function sub(uint256 a, uint256 b) public pure returns (uint256) {... */\n      swap3\n      swap2\n      pop\n      pop\n      jump\t// out\n        /* \"ethereum-crosschain-contract/contracts/Bridge.sol\":457:479  bytes8 public _chainID */\n    tag_155:\n      0x00\n      0x16\n      swap1\n      sload\n      swap1\n      0x0100\n      exp\n      swap1\n      div\n      0xc0\n      shl\n      dup2\n      jump\t// out\n        /* \"ethereum-crosschain-contract/contracts/Bridge.sol\":485:504  uint256 public _fee */\n    tag_160:\n      sload(0x01)\n      dup2\n      jump\t// out\n        /* \"ethereum-crosschain-contract/contracts/utils/UpgradableOwnable.sol\":674:700  bool public _isInitialised */\n    tag_164:\n      0x00\n      0x15\n      swap1\n      sload\n      swap1\n      0x0100\n      exp\n      swap1\n      div\n      0xff\n      and\n      dup2\n      jump\t// out\n        /* \"ethereum-crosschain-contract/contracts/Bridge.sol\":6926:7557  function approveSpending(... */\n    tag_170:\n        /* \"ethereum-crosschain-contract/contracts/Bridge.sol\":2077:2094  _onlyBackendSrv() */\n      tag_317\n        /* \"ethereum-crosschain-contract/contracts/Bridge.sol\":2077:2092  _onlyBackendSrv */\n      tag_195\n        /* \"ethereum-crosschain-contract/contracts/Bridge.sol\":2077:2094  _onlyBackendSrv() */\n      jump\t// in\n    tag_317:\n        /* \"ethereum-crosschain-contract/contracts/Bridge.sol\":7092:7112  address handlerOwner */\n      0x00\n        /* \"ethereum-crosschain-contract/contracts/Bridge.sol\":7115:7142  _resourceIDToHandlerAddress */\n      0x05\n        /* \"ethereum-crosschain-contract/contracts/Bridge.sol\":7115:7159  _resourceIDToHandlerAddress[resourceIDOwner] */\n      0x00\n        /* \"ethereum-crosschain-contract/contracts/Bridge.sol\":7143:7158  resourceIDOwner */\n      dup6\n        /* \"ethereum-crosschain-contract/contracts/Bridge.sol\":7115:7159  _resourceIDToHandlerAddress[resourceIDOwner] */\n      dup2\n      mstore\n      0x20\n      add\n      swap1\n      dup2\n      mstore\n      0x20\n      add\n      0x00\n      keccak256\n      0x00\n      swap1\n      sload\n      swap1\n      0x0100\n      exp\n      swap1\n      div\n      0xffffffffffffffffffffffffffffffffffffffff\n      and\n        /* \"ethereum-crosschain-contract/contracts/Bridge.sol\":7092:7159  address handlerOwner = _resourceIDToHandlerAddress[resourceIDOwner] */\n      swap1\n      pop\n        /* \"ethereum-crosschain-contract/contracts/Bridge.sol\":7201:7202  0 */\n      0x00\n        /* \"ethereum-crosschain-contract/contracts/Bridge.sol\":7177:7203  handlerOwner != address(0) */\n      0xffffffffffffffffffffffffffffffffffffffff\n      and\n        /* \"ethereum-crosschain-contract/contracts/Bridge.sol\":7177:7189  handlerOwner */\n      dup2\n        /* \"ethereum-crosschain-contract/contracts/Bridge.sol\":7177:7203  handlerOwner != address(0) */\n      0xffffffffffffffffffffffffffffffffffffffff\n      and\n      eq\n      iszero\n        /* \"ethereum-crosschain-contract/contracts/Bridge.sol\":7169:7245  require(handlerOwner != address(0), \"resourceIDOwner not mapped to handler\") */\n      tag_319\n      jumpi\n      mload(0x40)\n      0x08c379a000000000000000000000000000000000000000000000000000000000\n      dup2\n      mstore\n      0x04\n      add\n      tag_320\n      swap1\n      jump(tag_321)\n    tag_320:\n      mload(0x40)\n      dup1\n      swap2\n      sub\n      swap1\n      revert\n    tag_319:\n        /* \"ethereum-crosschain-contract/contracts/Bridge.sol\":7256:7278  address handlerSpender */\n      0x00\n        /* \"ethereum-crosschain-contract/contracts/Bridge.sol\":7281:7308  _resourceIDToHandlerAddress */\n      0x05\n        /* \"ethereum-crosschain-contract/contracts/Bridge.sol\":7281:7327  _resourceIDToHandlerAddress[resourceIDSpender] */\n      0x00\n        /* \"ethereum-crosschain-contract/contracts/Bridge.sol\":7309:7326  resourceIDSpender */\n      dup6\n        /* \"ethereum-crosschain-contract/contracts/Bridge.sol\":7281:7327  _resourceIDToHandlerAddress[resourceIDSpender] */\n      dup2\n      mstore\n      0x20\n      add\n      swap1\n      dup2\n      mstore\n      0x20\n      add\n      0x00\n      keccak256\n      0x00\n      swap1\n      sload\n      swap1\n      0x0100\n      exp\n      swap1\n      div\n      0xffffffffffffffffffffffffffffffffffffffff\n      and\n        /* \"ethereum-crosschain-contract/contracts/Bridge.sol\":7256:7327  address handlerSpender = _resourceIDToHandlerAddress[resourceIDSpender] */\n      swap1\n      pop\n        /* \"ethereum-crosschain-contract/contracts/Bridge.sol\":7371:7372  0 */\n      0x00\n        /* \"ethereum-crosschain-contract/contracts/Bridge.sol\":7345:7373  handlerSpender != address(0) */\n      0xffffffffffffffffffffffffffffffffffffffff\n      and\n        /* \"ethereum-crosschain-contract/contracts/Bridge.sol\":7345:7359  handlerSpender */\n      dup2\n        /* \"ethereum-crosschain-contract/contracts/Bridge.sol\":7345:7373  handlerSpender != address(0) */\n      0xffffffffffffffffffffffffffffffffffffffff\n      and\n      eq\n      iszero\n        /* \"ethereum-crosschain-contract/contracts/Bridge.sol\":7337:7417  require(handlerSpender != address(0), \"resourceIDSpender not mapped to handler\") */\n      tag_322\n      jumpi\n      mload(0x40)\n      0x08c379a000000000000000000000000000000000000000000000000000000000\n      dup2\n      mstore\n      0x04\n      add\n      tag_323\n      swap1\n      jump(tag_324)\n    tag_323:\n      mload(0x40)\n      dup1\n      swap2\n      sub\n      swap1\n      revert\n    tag_322:\n        /* \"ethereum-crosschain-contract/contracts/Bridge.sol\":7428:7447  IERCHandler handler */\n      0x00\n        /* \"ethereum-crosschain-contract/contracts/Bridge.sol\":7462:7474  handlerOwner */\n      dup3\n        /* \"ethereum-crosschain-contract/contracts/Bridge.sol\":7428:7475  IERCHandler handler = IERCHandler(handlerOwner) */\n      swap1\n      pop\n        /* \"ethereum-crosschain-contract/contracts/Bridge.sol\":7485:7492  handler */\n      dup1\n        /* \"ethereum-crosschain-contract/contracts/Bridge.sol\":7485:7500  handler.approve */\n      0xffffffffffffffffffffffffffffffffffffffff\n      and\n      0xbf1ed1eb\n        /* \"ethereum-crosschain-contract/contracts/Bridge.sol\":7501:7516  resourceIDOwner */\n      dup8\n        /* \"ethereum-crosschain-contract/contracts/Bridge.sol\":7518:7532  handlerSpender */\n      dup5\n        /* \"ethereum-crosschain-contract/contracts/Bridge.sol\":7534:7549  amountOrTokenID */\n      dup8\n        /* \"ethereum-crosschain-contract/contracts/Bridge.sol\":7485:7550  handler.approve(resourceIDOwner, handlerSpender, amountOrTokenID) */\n      mload(0x40)\n      dup5\n      0xffffffff\n      and\n      0xe0\n      shl\n      dup2\n      mstore\n      0x04\n      add\n      tag_325\n      swap4\n      swap3\n      swap2\n      swap1\n      jump(tag_326)\n    tag_325:\n      0x00\n      mload(0x40)\n      dup1\n      dup4\n      sub\n      dup2\n      0x00\n      dup8\n      dup1\n      extcodesize\n      iszero\n        /* \"--CODEGEN--\":5:14   */\n      dup1\n        /* \"--CODEGEN--\":2:4   */\n      iszero\n      tag_327\n      jumpi\n        /* \"--CODEGEN--\":27:28   */\n      0x00\n        /* \"--CODEGEN--\":24:25   */\n      dup1\n        /* \"--CODEGEN--\":17:29   */\n      revert\n        /* \"--CODEGEN--\":2:4   */\n    tag_327:\n        /* \"ethereum-crosschain-contract/contracts/Bridge.sol\":7485:7550  handler.approve(resourceIDOwner, handlerSpender, amountOrTokenID) */\n      pop\n      gas\n      call\n      iszero\n        /* \"--CODEGEN--\":8:17   */\n      dup1\n        /* \"--CODEGEN--\":5:7   */\n      iszero\n      tag_329\n      jumpi\n        /* \"--CODEGEN--\":45:61   */\n      returndatasize\n        /* \"--CODEGEN--\":42:43   */\n      0x00\n        /* \"--CODEGEN--\":39:40   */\n      dup1\n        /* \"--CODEGEN--\":24:62   */\n      returndatacopy\n        /* \"--CODEGEN--\":77:93   */\n      returndatasize\n        /* \"--CODEGEN--\":74:75   */\n      0x00\n        /* \"--CODEGEN--\":67:94   */\n      revert\n        /* \"--CODEGEN--\":5:7   */\n    tag_329:\n        /* \"ethereum-crosschain-contract/contracts/Bridge.sol\":7485:7550  handler.approve(resourceIDOwner, handlerSpender, amountOrTokenID) */\n      pop\n      pop\n      pop\n      pop\n        /* \"ethereum-crosschain-contract/contracts/Bridge.sol\":2104:2105  _ */\n      pop\n      pop\n      pop\n        /* \"ethereum-crosschain-contract/contracts/Bridge.sol\":6926:7557  function approveSpending(... */\n      pop\n      pop\n      pop\n      jump\t// out\n        /* \"ethereum-crosschain-contract/contracts/Bridge.sol\":5425:5645  function setBurnable(address handlerAddress, address tokenAddress)... */\n    tag_175:\n        /* \"ethereum-crosschain-contract/contracts/Bridge.sol\":2077:2094  _onlyBackendSrv() */\n      tag_331\n        /* \"ethereum-crosschain-contract/contracts/Bridge.sol\":2077:2092  _onlyBackendSrv */\n      tag_195\n        /* \"ethereum-crosschain-contract/contracts/Bridge.sol\":2077:2094  _onlyBackendSrv() */\n      jump\t// in\n    tag_331:\n        /* \"ethereum-crosschain-contract/contracts/Bridge.sol\":5546:5565  IERCHandler handler */\n      0x00\n        /* \"ethereum-crosschain-contract/contracts/Bridge.sol\":5580:5594  handlerAddress */\n      dup3\n        /* \"ethereum-crosschain-contract/contracts/Bridge.sol\":5546:5595  IERCHandler handler = IERCHandler(handlerAddress) */\n      swap1\n      pop\n        /* \"ethereum-crosschain-contract/contracts/Bridge.sol\":5605:5612  handler */\n      dup1\n        /* \"ethereum-crosschain-contract/contracts/Bridge.sol\":5605:5624  handler.setBurnable */\n      0xffffffffffffffffffffffffffffffffffffffff\n      and\n      0x07b7ed99\n        /* \"ethereum-crosschain-contract/contracts/Bridge.sol\":5625:5637  tokenAddress */\n      dup4\n        /* \"ethereum-crosschain-contract/contracts/Bridge.sol\":5605:5638  handler.setBurnable(tokenAddress) */\n      mload(0x40)\n      dup3\n      0xffffffff\n      and\n      0xe0\n      shl\n      dup2\n      mstore\n      0x04\n      add\n      tag_333\n      swap2\n      swap1\n      jump(tag_90)\n    tag_333:\n      0x00\n      mload(0x40)\n      dup1\n      dup4\n      sub\n      dup2\n      0x00\n      dup8\n      dup1\n      extcodesize\n      iszero\n        /* \"--CODEGEN--\":5:14   */\n      dup1\n        /* \"--CODEGEN--\":2:4   */\n      iszero\n      tag_334\n      jumpi\n        /* \"--CODEGEN--\":27:28   */\n      0x00\n        /* \"--CODEGEN--\":24:25   */\n      dup1\n        /* \"--CODEGEN--\":17:29   */\n      revert\n        /* \"--CODEGEN--\":2:4   */\n    tag_334:\n        /* \"ethereum-crosschain-contract/contracts/Bridge.sol\":5605:5638  handler.setBurnable(tokenAddress) */\n      pop\n      gas\n      call\n      iszero\n        /* \"--CODEGEN--\":8:17   */\n      dup1\n        /* \"--CODEGEN--\":5:7   */\n      iszero\n      tag_336\n      jumpi\n        /* \"--CODEGEN--\":45:61   */\n      returndatasize\n        /* \"--CODEGEN--\":42:43   */\n      0x00\n        /* \"--CODEGEN--\":39:40   */\n      dup1\n        /* \"--CODEGEN--\":24:62   */\n      returndatacopy\n        /* \"--CODEGEN--\":77:93   */\n      returndatasize\n        /* \"--CODEGEN--\":74:75   */\n      0x00\n        /* \"--CODEGEN--\":67:94   */\n      revert\n        /* \"--CODEGEN--\":5:7   */\n    tag_336:\n        /* \"ethereum-crosschain-contract/contracts/Bridge.sol\":5605:5638  handler.setBurnable(tokenAddress) */\n      pop\n      pop\n      pop\n      pop\n        /* \"ethereum-crosschain-contract/contracts/Bridge.sol\":2104:2105  _ */\n      pop\n        /* \"ethereum-crosschain-contract/contracts/Bridge.sol\":5425:5645  function setBurnable(address handlerAddress, address tokenAddress)... */\n      pop\n      pop\n      jump\t// out\n        /* \"ethereum-crosschain-contract/contracts/Bridge.sol\":13589:13642  function depositFunds() external payable onlyOwner {} */\n    tag_177:\n        /* \"ethereum-crosschain-contract/contracts/utils/UpgradableOwnable.sol\":1491:1503  _msgSender() */\n      tag_338\n        /* \"ethereum-crosschain-contract/contracts/utils/UpgradableOwnable.sol\":1491:1501  _msgSender */\n      tag_209\n        /* \"ethereum-crosschain-contract/contracts/utils/UpgradableOwnable.sol\":1491:1503  _msgSender() */\n      jump\t// in\n    tag_338:\n        /* \"ethereum-crosschain-contract/contracts/utils/UpgradableOwnable.sol\":1480:1503  owner() == _msgSender() */\n      0xffffffffffffffffffffffffffffffffffffffff\n      and\n        /* \"ethereum-crosschain-contract/contracts/utils/UpgradableOwnable.sol\":1480:1487  owner() */\n      tag_339\n        /* \"ethereum-crosschain-contract/contracts/utils/UpgradableOwnable.sol\":1480:1485  owner */\n      tag_106\n        /* \"ethereum-crosschain-contract/contracts/utils/UpgradableOwnable.sol\":1480:1487  owner() */\n      jump\t// in\n    tag_339:\n        /* \"ethereum-crosschain-contract/contracts/utils/UpgradableOwnable.sol\":1480:1503  owner() == _msgSender() */\n      0xffffffffffffffffffffffffffffffffffffffff\n      and\n      eq\n        /* \"ethereum-crosschain-contract/contracts/utils/UpgradableOwnable.sol\":1472:1530  require(owner() == _msgSender(), \"sender should be owner\") */\n      tag_340\n      jumpi\n      mload(0x40)\n      0x08c379a000000000000000000000000000000000000000000000000000000000\n      dup2\n      mstore\n      0x04\n      add\n      tag_341\n      swap1\n      jump(tag_213)\n    tag_341:\n      mload(0x40)\n      dup1\n      swap2\n      sub\n      swap1\n      revert\n    tag_340:\n        /* \"ethereum-crosschain-contract/contracts/Bridge.sol\":13589:13642  function depositFunds() external payable onlyOwner {} */\n      jump\t// out\n        /* \"ethereum-crosschain-contract/contracts/Bridge.sol\":7981:9939  function deposit(... */\n    tag_181:\n        /* \"ethereum-crosschain-contract/contracts/utils/Pausable.sol\":1052:1068  _whenNotPaused() */\n      tag_344\n        /* \"ethereum-crosschain-contract/contracts/utils/Pausable.sol\":1052:1066  _whenNotPaused */\n      tag_248\n        /* \"ethereum-crosschain-contract/contracts/utils/Pausable.sol\":1052:1068  _whenNotPaused() */\n      jump\t// in\n    tag_344:\n        /* \"ethereum-crosschain-contract/contracts/Bridge.sol\":8225:8244  uint64 depositNonce */\n      0x00\n        /* \"ethereum-crosschain-contract/contracts/Bridge.sol\":8249:8263  _depositCounts */\n      0x04\n        /* \"ethereum-crosschain-contract/contracts/Bridge.sol\":8249:8283  _depositCounts[destinationChainID] */\n      0x00\n        /* \"ethereum-crosschain-contract/contracts/Bridge.sol\":8264:8282  destinationChainID */\n      dup10\n        /* \"ethereum-crosschain-contract/contracts/Bridge.sol\":8249:8283  _depositCounts[destinationChainID] */\n      not(0xffffffffffffffffffffffffffffffffffffffffffffffff)\n      and\n      not(0xffffffffffffffffffffffffffffffffffffffffffffffff)\n      and\n      dup2\n      mstore\n      0x20\n      add\n      swap1\n      dup2\n      mstore\n      0x20\n      add\n      0x00\n      keccak256\n      0x00\n        /* \"ethereum-crosschain-contract/contracts/Bridge.sol\":8247:8283  ++_depositCounts[destinationChainID] */\n      dup2\n      dup2\n      swap1\n      sload\n      swap1\n      0x0100\n      exp\n      swap1\n      div\n      0xffffffffffffffff\n      and\n      0x01\n      add\n      swap2\n      swap1\n      0x0100\n      exp\n      dup2\n      sload\n      dup2\n      0xffffffffffffffff\n      mul\n      not\n      and\n      swap1\n      dup4\n      0xffffffffffffffff\n      and\n      mul\n      or\n      swap1\n      sstore\n        /* \"ethereum-crosschain-contract/contracts/Bridge.sol\":8225:8283  uint64 depositNonce = ++_depositCounts[destinationChainID] */\n      swap1\n      pop\n        /* \"ethereum-crosschain-contract/contracts/Bridge.sol\":8293:8310  bytes memory data */\n      0x60\n        /* \"ethereum-crosschain-contract/contracts/Bridge.sol\":8324:8330  amount */\n      dup7\n        /* \"ethereum-crosschain-contract/contracts/Bridge.sol\":8332:8348  recipientAddress */\n      dup7\n        /* \"ethereum-crosschain-contract/contracts/Bridge.sol\":8313:8349  abi.encode(amount, recipientAddress) */\n      add(0x20, mload(0x40))\n      tag_346\n      swap3\n      swap2\n      swap1\n      jump(tag_285)\n    tag_346:\n      mload(0x40)\n        /* \"--CODEGEN--\":49:53   */\n      0x20\n        /* \"--CODEGEN--\":39:46   */\n      dup2\n        /* \"--CODEGEN--\":30:37   */\n      dup4\n        /* \"--CODEGEN--\":26:47   */\n      sub\n        /* \"--CODEGEN--\":22:54   */\n      sub\n        /* \"--CODEGEN--\":13:20   */\n      dup2\n        /* \"--CODEGEN--\":6:55   */\n      mstore\n        /* \"ethereum-crosschain-contract/contracts/Bridge.sol\":8313:8349  abi.encode(amount, recipientAddress) */\n      swap1\n      0x40\n      mstore\n        /* \"ethereum-crosschain-contract/contracts/Bridge.sol\":8293:8349  bytes memory data = abi.encode(amount, recipientAddress) */\n      swap1\n      pop\n        /* \"ethereum-crosschain-contract/contracts/Bridge.sol\":8359:8375  bytes32 dataHash */\n      0x00\n        /* \"ethereum-crosschain-contract/contracts/Bridge.sol\":8399:8409  resourceID */\n      dup9\n        /* \"ethereum-crosschain-contract/contracts/Bridge.sol\":8411:8415  data */\n      dup3\n        /* \"ethereum-crosschain-contract/contracts/Bridge.sol\":8388:8416  abi.encode(resourceID, data) */\n      add(0x20, mload(0x40))\n      tag_347\n      swap3\n      swap2\n      swap1\n      jump(tag_255)\n    tag_347:\n      mload(0x40)\n        /* \"--CODEGEN--\":49:53   */\n      0x20\n        /* \"--CODEGEN--\":39:46   */\n      dup2\n        /* \"--CODEGEN--\":30:37   */\n      dup4\n        /* \"--CODEGEN--\":26:47   */\n      sub\n        /* \"--CODEGEN--\":22:54   */\n      sub\n        /* \"--CODEGEN--\":13:20   */\n      dup2\n        /* \"--CODEGEN--\":6:55   */\n      mstore\n        /* \"ethereum-crosschain-contract/contracts/Bridge.sol\":8388:8416  abi.encode(resourceID, data) */\n      swap1\n      0x40\n      mstore\n        /* \"ethereum-crosschain-contract/contracts/Bridge.sol\":8378:8417  keccak256(abi.encode(resourceID, data)) */\n      dup1\n      mload\n      swap1\n      0x20\n      add\n      keccak256\n        /* \"ethereum-crosschain-contract/contracts/Bridge.sol\":8359:8417  bytes32 dataHash = keccak256(abi.encode(resourceID, data)) */\n      swap1\n      pop\n        /* \"ethereum-crosschain-contract/contracts/Bridge.sol\":8479:8483  data */\n      dup2\n        /* \"ethereum-crosschain-contract/contracts/Bridge.sol\":8427:8442  _depositRecords */\n      0x06\n        /* \"ethereum-crosschain-contract/contracts/Bridge.sol\":8427:8456  _depositRecords[depositNonce] */\n      0x00\n        /* \"ethereum-crosschain-contract/contracts/Bridge.sol\":8443:8455  depositNonce */\n      dup6\n        /* \"ethereum-crosschain-contract/contracts/Bridge.sol\":8427:8456  _depositRecords[depositNonce] */\n      0xffffffffffffffff\n      and\n      0xffffffffffffffff\n      and\n      dup2\n      mstore\n      0x20\n      add\n      swap1\n      dup2\n      mstore\n      0x20\n      add\n      0x00\n      keccak256\n        /* \"ethereum-crosschain-contract/contracts/Bridge.sol\":8427:8476  _depositRecords[depositNonce][destinationChainID] */\n      0x00\n        /* \"ethereum-crosschain-contract/contracts/Bridge.sol\":8457:8475  destinationChainID */\n      dup13\n        /* \"ethereum-crosschain-contract/contracts/Bridge.sol\":8427:8476  _depositRecords[depositNonce][destinationChainID] */\n      not(0xffffffffffffffffffffffffffffffffffffffffffffffff)\n      and\n      not(0xffffffffffffffffffffffffffffffffffffffffffffffff)\n      and\n      dup2\n      mstore\n      0x20\n      add\n      swap1\n      dup2\n      mstore\n      0x20\n      add\n      0x00\n      keccak256\n        /* \"ethereum-crosschain-contract/contracts/Bridge.sol\":8427:8483  _depositRecords[depositNonce][destinationChainID] = data */\n      swap1\n      dup1\n      mload\n      swap1\n      0x20\n      add\n      swap1\n      tag_348\n      swap3\n      swap2\n      swap1\n      tag_288\n      jump\t// in\n    tag_348:\n      pop\n        /* \"ethereum-crosschain-contract/contracts/Bridge.sol\":8494:8514  address tokenAddress */\n      0x00\n        /* \"ethereum-crosschain-contract/contracts/Bridge.sol\":8524:8543  uint256 totalAmount */\n      dup1\n        /* \"ethereum-crosschain-contract/contracts/Bridge.sol\":8555:8565  amountToLA */\n      dup8\n        /* \"ethereum-crosschain-contract/contracts/Bridge.sol\":8546:8552  amount */\n      dup11\n        /* \"ethereum-crosschain-contract/contracts/Bridge.sol\":8546:8565  amount + amountToLA */\n      add\n        /* \"ethereum-crosschain-contract/contracts/Bridge.sol\":8524:8565  uint256 totalAmount = amount + amountToLA */\n      swap1\n      pop\n        /* \"ethereum-crosschain-contract/contracts/Bridge.sol\":8593:8610  _nativeResourceID */\n      sload(0x03)\n        /* \"ethereum-crosschain-contract/contracts/Bridge.sol\":8579:8589  resourceID */\n      dup12\n        /* \"ethereum-crosschain-contract/contracts/Bridge.sol\":8579:8610  resourceID == _nativeResourceID */\n      eq\n        /* \"ethereum-crosschain-contract/contracts/Bridge.sol\":8575:9319  if (resourceID == _nativeResourceID) {... */\n      iszero\n      tag_349\n      jumpi\n        /* \"ethereum-crosschain-contract/contracts/Bridge.sol\":8679:8683  _fee */\n      sload(0x01)\n        /* \"ethereum-crosschain-contract/contracts/Bridge.sol\":8665:8676  totalAmount */\n      dup2\n        /* \"ethereum-crosschain-contract/contracts/Bridge.sol\":8665:8683  totalAmount + _fee */\n      add\n        /* \"ethereum-crosschain-contract/contracts/Bridge.sol\":8651:8660  msg.value */\n      callvalue\n        /* \"ethereum-crosschain-contract/contracts/Bridge.sol\":8651:8684  msg.value >= (totalAmount + _fee) */\n      lt\n      iszero\n        /* \"ethereum-crosschain-contract/contracts/Bridge.sol\":8626:8747  require(... */\n      tag_350\n      jumpi\n      mload(0x40)\n      0x08c379a000000000000000000000000000000000000000000000000000000000\n      dup2\n      mstore\n      0x04\n      add\n      tag_351\n      swap1\n      jump(tag_352)\n    tag_351:\n      mload(0x40)\n      dup1\n      swap2\n      sub\n      swap1\n      revert\n    tag_350:\n        /* \"ethereum-crosschain-contract/contracts/Bridge.sol\":8785:8786  0 */\n      0x00\n        /* \"ethereum-crosschain-contract/contracts/Bridge.sol\":8762:8787  tokenAddress = address(0) */\n      swap2\n      pop\n        /* \"ethereum-crosschain-contract/contracts/Bridge.sol\":8575:9319  if (resourceID == _nativeResourceID) {... */\n      jump(tag_353)\n    tag_349:\n        /* \"ethereum-crosschain-contract/contracts/Bridge.sol\":8840:8844  _fee */\n      sload(0x01)\n        /* \"ethereum-crosschain-contract/contracts/Bridge.sol\":8827:8836  msg.value */\n      callvalue\n        /* \"ethereum-crosschain-contract/contracts/Bridge.sol\":8827:8844  msg.value >= _fee */\n      lt\n      iszero\n        /* \"ethereum-crosschain-contract/contracts/Bridge.sol\":8819:8871  require(msg.value >= _fee, \"Incorrect fee supplied\") */\n      tag_354\n      jumpi\n      mload(0x40)\n      0x08c379a000000000000000000000000000000000000000000000000000000000\n      dup2\n      mstore\n      0x04\n      add\n      tag_355\n      swap1\n      jump(tag_356)\n    tag_355:\n      mload(0x40)\n      dup1\n      swap2\n      sub\n      swap1\n      revert\n    tag_354:\n        /* \"ethereum-crosschain-contract/contracts/Bridge.sol\":8886:8901  address handler */\n      0x00\n        /* \"ethereum-crosschain-contract/contracts/Bridge.sol\":8904:8931  _resourceIDToHandlerAddress */\n      0x05\n        /* \"ethereum-crosschain-contract/contracts/Bridge.sol\":8904:8943  _resourceIDToHandlerAddress[resourceID] */\n      0x00\n        /* \"ethereum-crosschain-contract/contracts/Bridge.sol\":8932:8942  resourceID */\n      dup14\n        /* \"ethereum-crosschain-contract/contracts/Bridge.sol\":8904:8943  _resourceIDToHandlerAddress[resourceID] */\n      dup2\n      mstore\n      0x20\n      add\n      swap1\n      dup2\n      mstore\n      0x20\n      add\n      0x00\n      keccak256\n      0x00\n      swap1\n      sload\n      swap1\n      0x0100\n      exp\n      swap1\n      div\n      0xffffffffffffffffffffffffffffffffffffffff\n      and\n        /* \"ethereum-crosschain-contract/contracts/Bridge.sol\":8886:8943  address handler = _resourceIDToHandlerAddress[resourceID] */\n      swap1\n      pop\n        /* \"ethereum-crosschain-contract/contracts/Bridge.sol\":8984:8985  0 */\n      0x00\n        /* \"ethereum-crosschain-contract/contracts/Bridge.sol\":8965:8986  handler != address(0) */\n      0xffffffffffffffffffffffffffffffffffffffff\n      and\n        /* \"ethereum-crosschain-contract/contracts/Bridge.sol\":8965:8972  handler */\n      dup2\n        /* \"ethereum-crosschain-contract/contracts/Bridge.sol\":8965:8986  handler != address(0) */\n      0xffffffffffffffffffffffffffffffffffffffff\n      and\n      eq\n      iszero\n        /* \"ethereum-crosschain-contract/contracts/Bridge.sol\":8957:9023  require(handler != address(0), \"resourceID not mapped to handler\") */\n      tag_357\n      jumpi\n      mload(0x40)\n      0x08c379a000000000000000000000000000000000000000000000000000000000\n      dup2\n      mstore\n      0x04\n      add\n      tag_358\n      swap1\n      jump(tag_268)\n    tag_358:\n      mload(0x40)\n      dup1\n      swap2\n      sub\n      swap1\n      revert\n    tag_357:\n        /* \"ethereum-crosschain-contract/contracts/Bridge.sol\":9069:9076  handler */\n      dup1\n        /* \"ethereum-crosschain-contract/contracts/Bridge.sol\":9053:9085  IDepositExecute(handler).deposit */\n      0xffffffffffffffffffffffffffffffffffffffff\n      and\n      0x75cd9cce\n        /* \"ethereum-crosschain-contract/contracts/Bridge.sol\":9103:9113  resourceID */\n      dup14\n        /* \"ethereum-crosschain-contract/contracts/Bridge.sol\":9131:9149  destinationChainID */\n      dup16\n        /* \"ethereum-crosschain-contract/contracts/Bridge.sol\":9167:9179  depositNonce */\n      dup10\n        /* \"ethereum-crosschain-contract/contracts/Bridge.sol\":9197:9207  msg.sender */\n      caller\n        /* \"ethereum-crosschain-contract/contracts/Bridge.sol\":9225:9241  recipientAddress */\n      dup16\n        /* \"ethereum-crosschain-contract/contracts/Bridge.sol\":9259:9270  totalAmount */\n      dup9\n        /* \"ethereum-crosschain-contract/contracts/Bridge.sol\":9288:9294  params */\n      dup16\n      dup16\n        /* \"ethereum-crosschain-contract/contracts/Bridge.sol\":9053:9308  IDepositExecute(handler).deposit(... */\n      mload(0x40)\n      dup10\n      0xffffffff\n      and\n      0xe0\n      shl\n      dup2\n      mstore\n      0x04\n      add\n      tag_359\n      swap9\n      swap8\n      swap7\n      swap6\n      swap5\n      swap4\n      swap3\n      swap2\n      swap1\n      jump(tag_360)\n    tag_359:\n      0x20\n      mload(0x40)\n      dup1\n      dup4\n      sub\n      dup2\n      0x00\n      dup8\n      dup1\n      extcodesize\n      iszero\n        /* \"--CODEGEN--\":5:14   */\n      dup1\n        /* \"--CODEGEN--\":2:4   */\n      iszero\n      tag_361\n      jumpi\n        /* \"--CODEGEN--\":27:28   */\n      0x00\n        /* \"--CODEGEN--\":24:25   */\n      dup1\n        /* \"--CODEGEN--\":17:29   */\n      revert\n        /* \"--CODEGEN--\":2:4   */\n    tag_361:\n        /* \"ethereum-crosschain-contract/contracts/Bridge.sol\":9053:9308  IDepositExecute(handler).deposit(... */\n      pop\n      gas\n      call\n      iszero\n        /* \"--CODEGEN--\":8:17   */\n      dup1\n        /* \"--CODEGEN--\":5:7   */\n      iszero\n      tag_363\n      jumpi\n        /* \"--CODEGEN--\":45:61   */\n      returndatasize\n        /* \"--CODEGEN--\":42:43   */\n      0x00\n        /* \"--CODEGEN--\":39:40   */\n      dup1\n        /* \"--CODEGEN--\":24:62   */\n      returndatacopy\n        /* \"--CODEGEN--\":77:93   */\n      returndatasize\n        /* \"--CODEGEN--\":74:75   */\n      0x00\n        /* \"--CODEGEN--\":67:94   */\n      revert\n        /* \"--CODEGEN--\":5:7   */\n    tag_363:\n        /* \"ethereum-crosschain-contract/contracts/Bridge.sol\":9053:9308  IDepositExecute(handler).deposit(... */\n      pop\n      pop\n      pop\n      pop\n      mload(0x40)\n      returndatasize\n        /* \"--CODEGEN--\":101:105   */\n      0x1f\n        /* \"--CODEGEN--\":97:106   */\n      not\n        /* \"--CODEGEN--\":90:94   */\n      0x1f\n        /* \"--CODEGEN--\":84:88   */\n      dup3\n        /* \"--CODEGEN--\":80:95   */\n      add\n        /* \"--CODEGEN--\":76:107   */\n      and\n        /* \"--CODEGEN--\":69:74   */\n      dup3\n        /* \"--CODEGEN--\":65:108   */\n      add\n        /* \"--CODEGEN--\":126:132   */\n      dup1\n        /* \"--CODEGEN--\":120:124   */\n      0x40\n        /* \"--CODEGEN--\":113:133   */\n      mstore\n        /* \"--CODEGEN--\":0:138   */\n      pop\n        /* \"ethereum-crosschain-contract/contracts/Bridge.sol\":9053:9308  IDepositExecute(handler).deposit(... */\n      dup2\n      add\n      swap1\n      tag_364\n      swap2\n      swap1\n      jump(tag_294)\n    tag_364:\n        /* \"ethereum-crosschain-contract/contracts/Bridge.sol\":9038:9308  tokenAddress = IDepositExecute(handler).deposit(... */\n      swap3\n      pop\n        /* \"ethereum-crosschain-contract/contracts/Bridge.sol\":8575:9319  if (resourceID == _nativeResourceID) {... */\n      pop\n    tag_353:\n        /* \"ethereum-crosschain-contract/contracts/Bridge.sol\":9349:9350  0 */\n      0x00\n        /* \"ethereum-crosschain-contract/contracts/Bridge.sol\":9336:9346  amountToLA */\n      dup9\n        /* \"ethereum-crosschain-contract/contracts/Bridge.sol\":9336:9350  amountToLA > 0 */\n      gt\n        /* \"ethereum-crosschain-contract/contracts/Bridge.sol\":9332:9630  if (amountToLA > 0) {... */\n      iszero\n      tag_365\n      jumpi\n        /* \"ethereum-crosschain-contract/contracts/Bridge.sol\":9375:9615  ExtraFeeSupplied(... */\n      0x525223e7c9e63747e47dd4558940766054da3d0378f4006848d2a201545f55a4\n        /* \"ethereum-crosschain-contract/contracts/Bridge.sol\":9413:9421  _chainID */\n      0x00\n      0x16\n      swap1\n      sload\n      swap1\n      0x0100\n      exp\n      swap1\n      div\n      0xc0\n      shl\n        /* \"ethereum-crosschain-contract/contracts/Bridge.sol\":9443:9461  destinationChainID */\n      dup14\n        /* \"ethereum-crosschain-contract/contracts/Bridge.sol\":9483:9495  depositNonce */\n      dup8\n        /* \"ethereum-crosschain-contract/contracts/Bridge.sol\":9517:9527  resourceID */\n      dup15\n        /* \"ethereum-crosschain-contract/contracts/Bridge.sol\":9549:9565  recipientAddress */\n      dup14\n        /* \"ethereum-crosschain-contract/contracts/Bridge.sol\":9587:9597  amountToLA */\n      dup14\n        /* \"ethereum-crosschain-contract/contracts/Bridge.sol\":9375:9615  ExtraFeeSupplied(... */\n      mload(0x40)\n      tag_366\n      swap7\n      swap6\n      swap5\n      swap4\n      swap3\n      swap2\n      swap1\n      jump(tag_367)\n    tag_366:\n      mload(0x40)\n      dup1\n      swap2\n      sub\n      swap1\n      log1\n        /* \"ethereum-crosschain-contract/contracts/Bridge.sol\":9332:9630  if (amountToLA > 0) {... */\n    tag_365:\n        /* \"ethereum-crosschain-contract/contracts/Bridge.sol\":9640:9659  uint256 stackAmount */\n      0x00\n        /* \"ethereum-crosschain-contract/contracts/Bridge.sol\":9662:9668  amount */\n      dup11\n        /* \"ethereum-crosschain-contract/contracts/Bridge.sol\":9640:9668  uint256 stackAmount = amount */\n      swap1\n      pop\n        /* \"ethereum-crosschain-contract/contracts/Bridge.sol\":9783:9795  depositNonce */\n      dup6\n        /* \"ethereum-crosschain-contract/contracts/Bridge.sol\":9684:9932  Deposit(... */\n      0xffffffffffffffff\n      and\n        /* \"ethereum-crosschain-contract/contracts/Bridge.sol\":9759:9769  resourceID */\n      dup13\n        /* \"ethereum-crosschain-contract/contracts/Bridge.sol\":9727:9745  destinationChainID */\n      dup15\n        /* \"ethereum-crosschain-contract/contracts/Bridge.sol\":9684:9932  Deposit(... */\n      not(0xffffffffffffffffffffffffffffffffffffffffffffffff)\n      and\n      0x370525803ffa9a7c0e6adb3868e393dca45d8b42b2f62fd1f23ecfe99f6ce8fc\n        /* \"ethereum-crosschain-contract/contracts/Bridge.sol\":9705:9713  _chainID */\n      0x00\n      0x16\n      swap1\n      sload\n      swap1\n      0x0100\n      exp\n      swap1\n      div\n      0xc0\n      shl\n        /* \"ethereum-crosschain-contract/contracts/Bridge.sol\":9809:9819  msg.sender */\n      caller\n        /* \"ethereum-crosschain-contract/contracts/Bridge.sol\":9833:9849  recipientAddress */\n      dup16\n        /* \"ethereum-crosschain-contract/contracts/Bridge.sol\":9863:9875  tokenAddress */\n      dup10\n        /* \"ethereum-crosschain-contract/contracts/Bridge.sol\":9889:9900  stackAmount */\n      dup9\n        /* \"ethereum-crosschain-contract/contracts/Bridge.sol\":9914:9922  dataHash */\n      dup13\n        /* \"ethereum-crosschain-contract/contracts/Bridge.sol\":9684:9932  Deposit(... */\n      mload(0x40)\n      tag_368\n      swap7\n      swap6\n      swap5\n      swap4\n      swap3\n      swap2\n      swap1\n      jump(tag_296)\n    tag_368:\n      mload(0x40)\n      dup1\n      swap2\n      sub\n      swap1\n      log4\n        /* \"ethereum-crosschain-contract/contracts/utils/Pausable.sol\":1078:1079  _ */\n      pop\n      pop\n      pop\n      pop\n      pop\n      pop\n        /* \"ethereum-crosschain-contract/contracts/Bridge.sol\":7981:9939  function deposit(... */\n      pop\n      pop\n      pop\n      pop\n      pop\n      pop\n      pop\n      jump\t// out\n        /* \"ethereum-crosschain-contract/contracts/utils/UpgradableOwnable.sol\":916:1109  function ownableInit(address owner) public {... */\n    tag_185:\n        /* \"ethereum-crosschain-contract/contracts/utils/UpgradableOwnable.sol\":977:991  _isInitialised */\n      0x00\n      0x15\n      swap1\n      sload\n      swap1\n      0x0100\n      exp\n      swap1\n      div\n      0xff\n      and\n        /* \"ethereum-crosschain-contract/contracts/utils/UpgradableOwnable.sol\":976:991  !_isInitialised */\n      iszero\n        /* \"ethereum-crosschain-contract/contracts/utils/UpgradableOwnable.sol\":968:992  require(!_isInitialised) */\n      tag_370\n      jumpi\n        /* \"--CODEGEN--\":12:13   */\n      0x00\n        /* \"--CODEGEN--\":9:10   */\n      dup1\n        /* \"--CODEGEN--\":2:14   */\n      revert\n        /* \"ethereum-crosschain-contract/contracts/utils/UpgradableOwnable.sol\":968:992  require(!_isInitialised) */\n    tag_370:\n        /* \"ethereum-crosschain-contract/contracts/utils/UpgradableOwnable.sol\":1011:1016  owner */\n      dup1\n        /* \"ethereum-crosschain-contract/contracts/utils/UpgradableOwnable.sol\":1002:1008  _owner */\n      0x00\n      0x01\n        /* \"ethereum-crosschain-contract/contracts/utils/UpgradableOwnable.sol\":1002:1016  _owner = owner */\n      0x0100\n      exp\n      dup2\n      sload\n      dup2\n      0xffffffffffffffffffffffffffffffffffffffff\n      mul\n      not\n      and\n      swap1\n      dup4\n      0xffffffffffffffffffffffffffffffffffffffff\n      and\n      mul\n      or\n      swap1\n      sstore\n      pop\n        /* \"ethereum-crosschain-contract/contracts/utils/UpgradableOwnable.sol\":1043:1047  true */\n      0x01\n        /* \"ethereum-crosschain-contract/contracts/utils/UpgradableOwnable.sol\":1026:1040  _isInitialised */\n      0x00\n      0x15\n        /* \"ethereum-crosschain-contract/contracts/utils/UpgradableOwnable.sol\":1026:1047  _isInitialised = true */\n      0x0100\n      exp\n      dup2\n      sload\n      dup2\n      0xff\n      mul\n      not\n      and\n      swap1\n      dup4\n      iszero\n      iszero\n      mul\n      or\n      swap1\n      sstore\n      pop\n        /* \"ethereum-crosschain-contract/contracts/utils/UpgradableOwnable.sol\":1095:1100  owner */\n      dup1\n        /* \"ethereum-crosschain-contract/contracts/utils/UpgradableOwnable.sol\":1062:1101  OwnershipTransferred(address(0), owner) */\n      0xffffffffffffffffffffffffffffffffffffffff\n      and\n        /* \"ethereum-crosschain-contract/contracts/utils/UpgradableOwnable.sol\":1091:1092  0 */\n      0x00\n        /* \"ethereum-crosschain-contract/contracts/utils/UpgradableOwnable.sol\":1062:1101  OwnershipTransferred(address(0), owner) */\n      0xffffffffffffffffffffffffffffffffffffffff\n      and\n      0x8be0079c531659141344cd1fd0a4f28419497f9722a3daafe3b4186f6b6457e0\n      mload(0x40)\n      mload(0x40)\n      dup1\n      swap2\n      sub\n      swap1\n      log3\n        /* \"ethereum-crosschain-contract/contracts/utils/UpgradableOwnable.sol\":916:1109  function ownableInit(address owner) public {... */\n      pop\n      jump\t// out\n        /* \"ethereum-crosschain-contract/contracts/utils/UpgradableOwnable.sol\":2184:2410  function transferOwnership(address newOwner)... */\n    tag_189:\n        /* \"ethereum-crosschain-contract/contracts/utils/UpgradableOwnable.sol\":1491:1503  _msgSender() */\n      tag_372\n        /* \"ethereum-crosschain-contract/contracts/utils/UpgradableOwnable.sol\":1491:1501  _msgSender */\n      tag_209\n        /* \"ethereum-crosschain-contract/contracts/utils/UpgradableOwnable.sol\":1491:1503  _msgSender() */\n      jump\t// in\n    tag_372:\n        /* \"ethereum-crosschain-contract/contracts/utils/UpgradableOwnable.sol\":1480:1503  owner() == _msgSender() */\n      0xffffffffffffffffffffffffffffffffffffffff\n      and\n        /* \"ethereum-crosschain-contract/contracts/utils/UpgradableOwnable.sol\":1480:1487  owner() */\n      tag_373\n        /* \"ethereum-crosschain-contract/contracts/utils/UpgradableOwnable.sol\":1480:1485  owner */\n      tag_106\n        /* \"ethereum-crosschain-contract/contracts/utils/UpgradableOwnable.sol\":1480:1487  owner() */\n      jump\t// in\n    tag_373:\n        /* \"ethereum-crosschain-contract/contracts/utils/UpgradableOwnable.sol\":1480:1503  owner() == _msgSender() */\n      0xffffffffffffffffffffffffffffffffffffffff\n      and\n      eq\n        /* \"ethereum-crosschain-contract/contracts/utils/UpgradableOwnable.sol\":1472:1530  require(owner() == _msgSender(), \"sender should be owner\") */\n      tag_374\n      jumpi\n      mload(0x40)\n      0x08c379a000000000000000000000000000000000000000000000000000000000\n      dup2\n      mstore\n      0x04\n      add\n      tag_375\n      swap1\n      jump(tag_213)\n    tag_375:\n      mload(0x40)\n      dup1\n      swap2\n      sub\n      swap1\n      revert\n    tag_374:\n        /* \"ethereum-crosschain-contract/contracts/utils/UpgradableOwnable.sol\":2320:2321  0 */\n      0x00\n        /* \"ethereum-crosschain-contract/contracts/utils/UpgradableOwnable.sol\":2300:2322  newOwner != address(0) */\n      0xffffffffffffffffffffffffffffffffffffffff\n      and\n        /* \"ethereum-crosschain-contract/contracts/utils/UpgradableOwnable.sol\":2300:2308  newOwner */\n      dup2\n        /* \"ethereum-crosschain-contract/contracts/utils/UpgradableOwnable.sol\":2300:2322  newOwner != address(0) */\n      0xffffffffffffffffffffffffffffffffffffffff\n      and\n      eq\n      iszero\n        /* \"ethereum-crosschain-contract/contracts/utils/UpgradableOwnable.sol\":2292:2323  require(newOwner != address(0)) */\n      tag_377\n      jumpi\n        /* \"--CODEGEN--\":12:13   */\n      0x00\n        /* \"--CODEGEN--\":9:10   */\n      dup1\n        /* \"--CODEGEN--\":2:14   */\n      revert\n        /* \"ethereum-crosschain-contract/contracts/utils/UpgradableOwnable.sol\":2292:2323  require(newOwner != address(0)) */\n    tag_377:\n        /* \"ethereum-crosschain-contract/contracts/utils/UpgradableOwnable.sol\":2367:2375  newOwner */\n      dup1\n        /* \"ethereum-crosschain-contract/contracts/utils/UpgradableOwnable.sol\":2338:2376  OwnershipTransferred(_owner, newOwner) */\n      0xffffffffffffffffffffffffffffffffffffffff\n      and\n        /* \"ethereum-crosschain-contract/contracts/utils/UpgradableOwnable.sol\":2359:2365  _owner */\n      0x00\n      0x01\n      swap1\n      sload\n      swap1\n      0x0100\n      exp\n      swap1\n      div\n      0xffffffffffffffffffffffffffffffffffffffff\n      and\n        /* \"ethereum-crosschain-contract/contracts/utils/UpgradableOwnable.sol\":2338:2376  OwnershipTransferred(_owner, newOwner) */\n      0xffffffffffffffffffffffffffffffffffffffff\n      and\n      0x8be0079c531659141344cd1fd0a4f28419497f9722a3daafe3b4186f6b6457e0\n      mload(0x40)\n      mload(0x40)\n      dup1\n      swap2\n      sub\n      swap1\n      log3\n        /* \"ethereum-crosschain-contract/contracts/utils/UpgradableOwnable.sol\":2395:2403  newOwner */\n      dup1\n        /* \"ethereum-crosschain-contract/contracts/utils/UpgradableOwnable.sol\":2386:2392  _owner */\n      0x00\n      0x01\n        /* \"ethereum-crosschain-contract/contracts/utils/UpgradableOwnable.sol\":2386:2403  _owner = newOwner */\n      0x0100\n      exp\n      dup2\n      sload\n      dup2\n      0xffffffffffffffffffffffffffffffffffffffff\n      mul\n      not\n      and\n      swap1\n      dup4\n      0xffffffffffffffffffffffffffffffffffffffff\n      and\n      mul\n      or\n      swap1\n      sstore\n      pop\n        /* \"ethereum-crosschain-contract/contracts/utils/UpgradableOwnable.sol\":2184:2410  function transferOwnership(address newOwner)... */\n      pop\n      jump\t// out\n        /* \"ethereum-crosschain-contract/contracts/Bridge.sol\":3746:3825  function adminUnpauseTransfers() external onlyOwner {... */\n    tag_192:\n        /* \"ethereum-crosschain-contract/contracts/utils/UpgradableOwnable.sol\":1491:1503  _msgSender() */\n      tag_379\n        /* \"ethereum-crosschain-contract/contracts/utils/UpgradableOwnable.sol\":1491:1501  _msgSender */\n      tag_209\n        /* \"ethereum-crosschain-contract/contracts/utils/UpgradableOwnable.sol\":1491:1503  _msgSender() */\n      jump\t// in\n    tag_379:\n        /* \"ethereum-crosschain-contract/contracts/utils/UpgradableOwnable.sol\":1480:1503  owner() == _msgSender() */\n      0xffffffffffffffffffffffffffffffffffffffff\n      and\n        /* \"ethereum-crosschain-contract/contracts/utils/UpgradableOwnable.sol\":1480:1487  owner() */\n      tag_380\n        /* \"ethereum-crosschain-contract/contracts/utils/UpgradableOwnable.sol\":1480:1485  owner */\n      tag_106\n        /* \"ethereum-crosschain-contract/contracts/utils/UpgradableOwnable.sol\":1480:1487  owner() */\n      jump\t// in\n    tag_380:\n        /* \"ethereum-crosschain-contract/contracts/utils/UpgradableOwnable.sol\":1480:1503  owner() == _msgSender() */\n      0xffffffffffffffffffffffffffffffffffffffff\n      and\n      eq\n        /* \"ethereum-crosschain-contract/contracts/utils/UpgradableOwnable.sol\":1472:1530  require(owner() == _msgSender(), \"sender should be owner\") */\n      tag_381\n      jumpi\n      mload(0x40)\n      0x08c379a000000000000000000000000000000000000000000000000000000000\n      dup2\n      mstore\n      0x04\n      add\n      tag_382\n      swap1\n      jump(tag_213)\n    tag_382:\n      mload(0x40)\n      dup1\n      swap2\n      sub\n      swap1\n      revert\n    tag_381:\n        /* \"ethereum-crosschain-contract/contracts/Bridge.sol\":3808:3818  _unpause() */\n      tag_384\n        /* \"ethereum-crosschain-contract/contracts/Bridge.sol\":3808:3816  _unpause */\n      tag_385\n        /* \"ethereum-crosschain-contract/contracts/Bridge.sol\":3808:3818  _unpause() */\n      jump\t// in\n    tag_384:\n        /* \"ethereum-crosschain-contract/contracts/Bridge.sol\":3746:3825  function adminUnpauseTransfers() external onlyOwner {... */\n      jump\t// out\n        /* \"ethereum-crosschain-contract/contracts/Bridge.sol\":2118:2285  function _onlyBackendSrv() private view {... */\n    tag_195:\n        /* \"ethereum-crosschain-contract/contracts/Bridge.sol\":2211:2221  msg.sender */\n      caller\n        /* \"ethereum-crosschain-contract/contracts/Bridge.sol\":2189:2221  _backendSrvAddress == msg.sender */\n      0xffffffffffffffffffffffffffffffffffffffff\n      and\n        /* \"ethereum-crosschain-contract/contracts/Bridge.sol\":2189:2207  _backendSrvAddress */\n      0x02\n      0x00\n      swap1\n      sload\n      swap1\n      0x0100\n      exp\n      swap1\n      div\n      0xffffffffffffffffffffffffffffffffffffffff\n      and\n        /* \"ethereum-crosschain-contract/contracts/Bridge.sol\":2189:2221  _backendSrvAddress == msg.sender */\n      0xffffffffffffffffffffffffffffffffffffffff\n      and\n      eq\n        /* \"ethereum-crosschain-contract/contracts/Bridge.sol\":2168:2278  require(... */\n      tag_387\n      jumpi\n      mload(0x40)\n      0x08c379a000000000000000000000000000000000000000000000000000000000\n      dup2\n      mstore\n      0x04\n      add\n      tag_388\n      swap1\n      jump(tag_389)\n    tag_388:\n      mload(0x40)\n      dup1\n      swap2\n      sub\n      swap1\n      revert\n    tag_387:\n        /* \"ethereum-crosschain-contract/contracts/Bridge.sol\":2118:2285  function _onlyBackendSrv() private view {... */\n      jump\t// out\n        /* \"ethereum-crosschain-contract/contracts/utils/Context.sol\":598:702  function _msgSender() internal view virtual returns (address payable) {... */\n    tag_209:\n        /* \"ethereum-crosschain-contract/contracts/utils/Context.sol\":651:666  address payable */\n      0x00\n        /* \"ethereum-crosschain-contract/contracts/utils/Context.sol\":685:695  msg.sender */\n      caller\n        /* \"ethereum-crosschain-contract/contracts/utils/Context.sol\":678:695  return msg.sender */\n      swap1\n      pop\n        /* \"ethereum-crosschain-contract/contracts/utils/Context.sol\":598:702  function _msgSender() internal view virtual returns (address payable) {... */\n      swap1\n      jump\t// out\n        /* \"ethereum-crosschain-contract/contracts/utils/Pausable.sol\":1668:1781  function _pause() internal virtual whenNotPaused {... */\n    tag_243:\n        /* \"ethereum-crosschain-contract/contracts/utils/Pausable.sol\":1052:1068  _whenNotPaused() */\n      tag_392\n        /* \"ethereum-crosschain-contract/contracts/utils/Pausable.sol\":1052:1066  _whenNotPaused */\n      tag_248\n        /* \"ethereum-crosschain-contract/contracts/utils/Pausable.sol\":1052:1068  _whenNotPaused() */\n      jump\t// in\n    tag_392:\n        /* \"ethereum-crosschain-contract/contracts/utils/Pausable.sol\":1737:1741  true */\n      0x01\n        /* \"ethereum-crosschain-contract/contracts/utils/Pausable.sol\":1727:1734  _paused */\n      0x00\n      dup1\n        /* \"ethereum-crosschain-contract/contracts/utils/Pausable.sol\":1727:1741  _paused = true */\n      0x0100\n      exp\n      dup2\n      sload\n      dup2\n      0xff\n      mul\n      not\n      and\n      swap1\n      dup4\n      iszero\n      iszero\n      mul\n      or\n      swap1\n      sstore\n      pop\n        /* \"ethereum-crosschain-contract/contracts/utils/Pausable.sol\":1756:1774  Paused(msg.sender) */\n      0x62e78cea01bee320cd4e420270b5ea74000d11b0c9f74754ebdbfc544b05a258\n        /* \"ethereum-crosschain-contract/contracts/utils/Pausable.sol\":1763:1773  msg.sender */\n      caller\n        /* \"ethereum-crosschain-contract/contracts/utils/Pausable.sol\":1756:1774  Paused(msg.sender) */\n      mload(0x40)\n      tag_394\n      swap2\n      swap1\n      jump(tag_395)\n    tag_394:\n      mload(0x40)\n      dup1\n      swap2\n      sub\n      swap1\n      log1\n        /* \"ethereum-crosschain-contract/contracts/utils/Pausable.sol\":1668:1781  function _pause() internal virtual whenNotPaused {... */\n      jump\t// out\n        /* \"ethereum-crosschain-contract/contracts/utils/Pausable.sol\":1092:1185  function _whenNotPaused() private view {... */\n    tag_248:\n        /* \"ethereum-crosschain-contract/contracts/utils/Pausable.sol\":1150:1157  _paused */\n      0x00\n      dup1\n      swap1\n      sload\n      swap1\n      0x0100\n      exp\n      swap1\n      div\n      0xff\n      and\n        /* \"ethereum-crosschain-contract/contracts/utils/Pausable.sol\":1149:1157  !_paused */\n      iszero\n        /* \"ethereum-crosschain-contract/contracts/utils/Pausable.sol\":1141:1178  require(!_paused, \"Pausable: paused\") */\n      tag_397\n      jumpi\n      mload(0x40)\n      0x08c379a000000000000000000000000000000000000000000000000000000000\n      dup2\n      mstore\n      0x04\n      add\n      tag_398\n      swap1\n      jump(tag_399)\n    tag_398:\n      mload(0x40)\n      dup1\n      swap2\n      sub\n      swap1\n      revert\n    tag_397:\n        /* \"ethereum-crosschain-contract/contracts/utils/Pausable.sol\":1092:1185  function _whenNotPaused() private view {... */\n      jump\t// out\n        /* \"ethereum-crosschain-contract/contracts/utils/SafeMath.sol\":1035:1223  function _sub(uint256 a, uint256 b, string memory errorMessage) internal pure returns (uint256) {... */\n    tag_315:\n        /* \"ethereum-crosschain-contract/contracts/utils/SafeMath.sol\":1122:1129  uint256 */\n      0x00\n        /* \"ethereum-crosschain-contract/contracts/utils/SafeMath.sol\":1154:1155  a */\n      dup4\n        /* \"ethereum-crosschain-contract/contracts/utils/SafeMath.sol\":1149:1150  b */\n      dup4\n        /* \"ethereum-crosschain-contract/contracts/utils/SafeMath.sol\":1149:1155  b <= a */\n      gt\n      iszero\n        /* \"ethereum-crosschain-contract/contracts/utils/SafeMath.sol\":1157:1169  errorMessage */\n      dup3\n        /* \"ethereum-crosschain-contract/contracts/utils/SafeMath.sol\":1141:1170  require(b <= a, errorMessage) */\n      swap1\n      tag_401\n      jumpi\n      mload(0x40)\n      0x08c379a000000000000000000000000000000000000000000000000000000000\n      dup2\n      mstore\n      0x04\n      add\n      tag_402\n      swap2\n      swap1\n      jump(tag_403)\n    tag_402:\n      mload(0x40)\n      dup1\n      swap2\n      sub\n      swap1\n      revert\n    tag_401:\n      pop\n        /* \"ethereum-crosschain-contract/contracts/utils/SafeMath.sol\":1180:1189  uint256 c */\n      0x00\n        /* \"ethereum-crosschain-contract/contracts/utils/SafeMath.sol\":1196:1197  b */\n      dup4\n        /* \"ethereum-crosschain-contract/contracts/utils/SafeMath.sol\":1192:1193  a */\n      dup6\n        /* \"ethereum-crosschain-contract/contracts/utils/SafeMath.sol\":1192:1197  a - b */\n      sub\n        /* \"ethereum-crosschain-contract/contracts/utils/SafeMath.sol\":1180:1197  uint256 c = a - b */\n      swap1\n      pop\n        /* \"ethereum-crosschain-contract/contracts/utils/SafeMath.sol\":1215:1216  c */\n      dup1\n        /* \"ethereum-crosschain-contract/contracts/utils/SafeMath.sol\":1208:1216  return c */\n      swap2\n      pop\n      pop\n        /* \"ethereum-crosschain-contract/contracts/utils/SafeMath.sol\":1035:1223  function _sub(uint256 a, uint256 b, string memory errorMessage) internal pure returns (uint256) {... */\n      swap4\n      swap3\n      pop\n      pop\n      pop\n      jump\t// out\n        /* \"ethereum-crosschain-contract/contracts/utils/Pausable.sol\":1913:2028  function _unpause() internal virtual whenPaused {... */\n    tag_385:\n        /* \"ethereum-crosschain-contract/contracts/utils/Pausable.sol\":1403:1416  _whenPaused() */\n      tag_405\n        /* \"ethereum-crosschain-contract/contracts/utils/Pausable.sol\":1403:1414  _whenPaused */\n      tag_406\n        /* \"ethereum-crosschain-contract/contracts/utils/Pausable.sol\":1403:1416  _whenPaused() */\n      jump\t// in\n    tag_405:\n        /* \"ethereum-crosschain-contract/contracts/utils/Pausable.sol\":1981:1986  false */\n      0x00\n        /* \"ethereum-crosschain-contract/contracts/utils/Pausable.sol\":1971:1978  _paused */\n      dup1\n      0x00\n        /* \"ethereum-crosschain-contract/contracts/utils/Pausable.sol\":1971:1986  _paused = false */\n      0x0100\n      exp\n      dup2\n      sload\n      dup2\n      0xff\n      mul\n      not\n      and\n      swap1\n      dup4\n      iszero\n      iszero\n      mul\n      or\n      swap1\n      sstore\n      pop\n        /* \"ethereum-crosschain-contract/contracts/utils/Pausable.sol\":2001:2021  Unpaused(msg.sender) */\n      0x5db9ee0a495bf2e6ff9c91a7834c1ba4fdd244a5e8aa4e537bd38aeae4b073aa\n        /* \"ethereum-crosschain-contract/contracts/utils/Pausable.sol\":2010:2020  msg.sender */\n      caller\n        /* \"ethereum-crosschain-contract/contracts/utils/Pausable.sol\":2001:2021  Unpaused(msg.sender) */\n      mload(0x40)\n      tag_408\n      swap2\n      swap1\n      jump(tag_395)\n    tag_408:\n      mload(0x40)\n      dup1\n      swap2\n      sub\n      swap1\n      log1\n        /* \"ethereum-crosschain-contract/contracts/utils/Pausable.sol\":1913:2028  function _unpause() internal virtual whenPaused {... */\n      jump\t// out\n        /* \"ethereum-crosschain-contract/contracts/utils/Pausable.sol\":1440:1533  function _whenPaused() private view {... */\n    tag_406:\n        /* \"ethereum-crosschain-contract/contracts/utils/Pausable.sol\":1494:1501  _paused */\n      0x00\n      dup1\n      swap1\n      sload\n      swap1\n      0x0100\n      exp\n      swap1\n      div\n      0xff\n      and\n        /* \"ethereum-crosschain-contract/contracts/utils/Pausable.sol\":1486:1526  require(_paused, \"Pausable: not paused\") */\n      tag_410\n      jumpi\n      mload(0x40)\n      0x08c379a000000000000000000000000000000000000000000000000000000000\n      dup2\n      mstore\n      0x04\n      add\n      tag_411\n      swap1\n      jump(tag_412)\n    tag_411:\n      mload(0x40)\n      dup1\n      swap2\n      sub\n      swap1\n      revert\n    tag_410:\n        /* \"ethereum-crosschain-contract/contracts/utils/Pausable.sol\":1440:1533  function _whenPaused() private view {... */\n      jump\t// out\n        /* \"ethereum-crosschain-contract/contracts/Bridge.sol\":386:13644  contract Bridge is Pausable, SafeMathContract, UpgradableOwnable {... */\n    tag_288:\n      dup3\n      dup1\n      sload\n      0x01\n      dup2\n      0x01\n      and\n      iszero\n      0x0100\n      mul\n      sub\n      and\n      0x02\n      swap1\n      div\n      swap1\n      0x00\n      mstore\n      keccak256(0x00, 0x20)\n      swap1\n      0x1f\n      add\n      0x20\n      swap1\n      div\n      dup2\n      add\n      swap3\n      dup3\n      0x1f\n      lt\n      tag_414\n      jumpi\n      dup1\n      mload\n      not(0xff)\n      and\n      dup4\n      dup1\n      add\n      or\n      dup6\n      sstore\n      jump(tag_413)\n    tag_414:\n      dup3\n      dup1\n      add\n      0x01\n      add\n      dup6\n      sstore\n      dup3\n      iszero\n      tag_413\n      jumpi\n      swap2\n      dup3\n      add\n    tag_415:\n      dup3\n      dup2\n      gt\n      iszero\n      tag_416\n      jumpi\n      dup3\n      mload\n      dup3\n      sstore\n      swap2\n      0x20\n      add\n      swap2\n      swap1\n      0x01\n      add\n      swap1\n      jump(tag_415)\n    tag_416:\n    tag_413:\n      pop\n      swap1\n      pop\n      tag_417\n      swap2\n      swap1\n      tag_418\n      jump\t// in\n    tag_417:\n      pop\n      swap1\n      jump\t// out\n    tag_418:\n      tag_419\n      swap2\n      swap1\n    tag_420:\n      dup1\n      dup3\n      gt\n      iszero\n      tag_421\n      jumpi\n      0x00\n      dup2\n      0x00\n      swap1\n      sstore\n      pop\n      0x01\n      add\n      jump(tag_420)\n    tag_421:\n      pop\n      swap1\n      jump\n    tag_419:\n      swap1\n      jump\t// out\n        /* \"--CODEGEN--\":5:135   */\n    tag_423:\n      0x00\n        /* \"--CODEGEN--\":85:91   */\n      dup2\n        /* \"--CODEGEN--\":72:92   */\n      calldataload\n        /* \"--CODEGEN--\":63:92   */\n      swap1\n      pop\n        /* \"--CODEGEN--\":97:130   */\n      tag_425\n        /* \"--CODEGEN--\":124:129   */\n      dup2\n        /* \"--CODEGEN--\":97:130   */\n      jump(tag_426)\n    tag_425:\n        /* \"--CODEGEN--\":57:135   */\n      swap3\n      swap2\n      pop\n      pop\n      jump\n        /* \"--CODEGEN--\":142:276   */\n    tag_427:\n      0x00\n        /* \"--CODEGEN--\":226:232   */\n      dup2\n        /* \"--CODEGEN--\":220:233   */\n      mload\n        /* \"--CODEGEN--\":211:233   */\n      swap1\n      pop\n        /* \"--CODEGEN--\":238:271   */\n      tag_429\n        /* \"--CODEGEN--\":265:270   */\n      dup2\n        /* \"--CODEGEN--\":238:271   */\n      jump(tag_426)\n    tag_429:\n        /* \"--CODEGEN--\":205:276   */\n      swap3\n      swap2\n      pop\n      pop\n      jump\n        /* \"--CODEGEN--\":283:429   */\n    tag_430:\n      0x00\n        /* \"--CODEGEN--\":371:377   */\n      dup2\n        /* \"--CODEGEN--\":358:378   */\n      calldataload\n        /* \"--CODEGEN--\":349:378   */\n      swap1\n      pop\n        /* \"--CODEGEN--\":383:424   */\n      tag_432\n        /* \"--CODEGEN--\":418:423   */\n      dup2\n        /* \"--CODEGEN--\":383:424   */\n      jump(tag_433)\n    tag_432:\n        /* \"--CODEGEN--\":343:429   */\n      swap3\n      swap2\n      pop\n      pop\n      jump\n        /* \"--CODEGEN--\":436:560   */\n    tag_434:\n      0x00\n        /* \"--CODEGEN--\":513:519   */\n      dup2\n        /* \"--CODEGEN--\":500:520   */\n      calldataload\n        /* \"--CODEGEN--\":491:520   */\n      swap1\n      pop\n        /* \"--CODEGEN--\":525:555   */\n      tag_436\n        /* \"--CODEGEN--\":549:554   */\n      dup2\n        /* \"--CODEGEN--\":525:555   */\n      jump(tag_437)\n    tag_436:\n        /* \"--CODEGEN--\":485:560   */\n      swap3\n      swap2\n      pop\n      pop\n      jump\n        /* \"--CODEGEN--\":567:697   */\n    tag_438:\n      0x00\n        /* \"--CODEGEN--\":647:653   */\n      dup2\n        /* \"--CODEGEN--\":634:654   */\n      calldataload\n        /* \"--CODEGEN--\":625:654   */\n      swap1\n      pop\n        /* \"--CODEGEN--\":659:692   */\n      tag_440\n        /* \"--CODEGEN--\":686:691   */\n      dup2\n        /* \"--CODEGEN--\":659:692   */\n      jump(tag_441)\n    tag_440:\n        /* \"--CODEGEN--\":619:697   */\n      swap3\n      swap2\n      pop\n      pop\n      jump\n        /* \"--CODEGEN--\":704:832   */\n    tag_442:\n      0x00\n        /* \"--CODEGEN--\":783:789   */\n      dup2\n        /* \"--CODEGEN--\":770:790   */\n      calldataload\n        /* \"--CODEGEN--\":761:790   */\n      swap1\n      pop\n        /* \"--CODEGEN--\":795:827   */\n      tag_444\n        /* \"--CODEGEN--\":821:826   */\n      dup2\n        /* \"--CODEGEN--\":795:827   */\n      jump(tag_445)\n    tag_444:\n        /* \"--CODEGEN--\":755:832   */\n      swap3\n      swap2\n      pop\n      pop\n      jump\n        /* \"--CODEGEN--\":853:1189   */\n    tag_446:\n      0x00\n      dup1\n        /* \"--CODEGEN--\":967:970   */\n      dup4\n        /* \"--CODEGEN--\":960:964   */\n      0x1f\n        /* \"--CODEGEN--\":952:958   */\n      dup5\n        /* \"--CODEGEN--\":948:965   */\n      add\n        /* \"--CODEGEN--\":944:971   */\n      slt\n        /* \"--CODEGEN--\":934:936   */\n      tag_448\n      jumpi\n        /* \"--CODEGEN--\":985:986   */\n      0x00\n        /* \"--CODEGEN--\":982:983   */\n      dup1\n        /* \"--CODEGEN--\":975:987   */\n      revert\n        /* \"--CODEGEN--\":934:936   */\n    tag_448:\n        /* \"--CODEGEN--\":1018:1024   */\n      dup3\n        /* \"--CODEGEN--\":1005:1025   */\n      calldataload\n        /* \"--CODEGEN--\":995:1025   */\n      swap1\n      pop\n        /* \"--CODEGEN--\":1045:1063   */\n      0xffffffffffffffff\n        /* \"--CODEGEN--\":1037:1043   */\n      dup2\n        /* \"--CODEGEN--\":1034:1064   */\n      gt\n        /* \"--CODEGEN--\":1031:1033   */\n      iszero\n      tag_449\n      jumpi\n        /* \"--CODEGEN--\":1077:1078   */\n      0x00\n        /* \"--CODEGEN--\":1074:1075   */\n      dup1\n        /* \"--CODEGEN--\":1067:1079   */\n      revert\n        /* \"--CODEGEN--\":1031:1033   */\n    tag_449:\n        /* \"--CODEGEN--\":1111:1115   */\n      0x20\n        /* \"--CODEGEN--\":1103:1109   */\n      dup4\n        /* \"--CODEGEN--\":1099:1116   */\n      add\n        /* \"--CODEGEN--\":1087:1116   */\n      swap2\n      pop\n        /* \"--CODEGEN--\":1162:1165   */\n      dup4\n        /* \"--CODEGEN--\":1154:1158   */\n      0x01\n        /* \"--CODEGEN--\":1146:1152   */\n      dup3\n        /* \"--CODEGEN--\":1142:1159   */\n      mul\n        /* \"--CODEGEN--\":1132:1140   */\n      dup4\n        /* \"--CODEGEN--\":1128:1160   */\n      add\n        /* \"--CODEGEN--\":1125:1166   */\n      gt\n        /* \"--CODEGEN--\":1122:1124   */\n      iszero\n      tag_450\n      jumpi\n        /* \"--CODEGEN--\":1179:1180   */\n      0x00\n        /* \"--CODEGEN--\":1176:1177   */\n      dup1\n        /* \"--CODEGEN--\":1169:1181   */\n      revert\n        /* \"--CODEGEN--\":1122:1124   */\n    tag_450:\n        /* \"--CODEGEN--\":927:1189   */\n      swap3\n      pop\n      swap3\n      swap1\n      pop\n      jump\n        /* \"--CODEGEN--\":1197:1327   */\n    tag_451:\n      0x00\n        /* \"--CODEGEN--\":1277:1283   */\n      dup2\n        /* \"--CODEGEN--\":1264:1284   */\n      calldataload\n        /* \"--CODEGEN--\":1255:1284   */\n      swap1\n      pop\n        /* \"--CODEGEN--\":1289:1322   */\n      tag_453\n        /* \"--CODEGEN--\":1316:1321   */\n      dup2\n        /* \"--CODEGEN--\":1289:1322   */\n      jump(tag_454)\n    tag_453:\n        /* \"--CODEGEN--\":1249:1327   */\n      swap3\n      swap2\n      pop\n      pop\n      jump\n        /* \"--CODEGEN--\":1334:1462   */\n    tag_455:\n      0x00\n        /* \"--CODEGEN--\":1413:1419   */\n      dup2\n        /* \"--CODEGEN--\":1400:1420   */\n      calldataload\n        /* \"--CODEGEN--\":1391:1420   */\n      swap1\n      pop\n        /* \"--CODEGEN--\":1425:1457   */\n      tag_457\n        /* \"--CODEGEN--\":1451:1456   */\n      dup2\n        /* \"--CODEGEN--\":1425:1457   */\n      jump(tag_458)\n    tag_457:\n        /* \"--CODEGEN--\":1385:1462   */\n      swap3\n      swap2\n      pop\n      pop\n      jump\n        /* \"--CODEGEN--\":1469:1710   */\n    tag_44:\n      0x00\n        /* \"--CODEGEN--\":1573:1575   */\n      0x20\n        /* \"--CODEGEN--\":1561:1570   */\n      dup3\n        /* \"--CODEGEN--\":1552:1559   */\n      dup5\n        /* \"--CODEGEN--\":1548:1571   */\n      sub\n        /* \"--CODEGEN--\":1544:1576   */\n      slt\n        /* \"--CODEGEN--\":1541:1543   */\n      iszero\n      tag_460\n      jumpi\n        /* \"--CODEGEN--\":1589:1590   */\n      0x00\n        /* \"--CODEGEN--\":1586:1587   */\n      dup1\n        /* \"--CODEGEN--\":1579:1591   */\n      revert\n        /* \"--CODEGEN--\":1541:1543   */\n    tag_460:\n        /* \"--CODEGEN--\":1624:1625   */\n      0x00\n        /* \"--CODEGEN--\":1641:1694   */\n      tag_461\n        /* \"--CODEGEN--\":1686:1693   */\n      dup5\n        /* \"--CODEGEN--\":1677:1683   */\n      dup3\n        /* \"--CODEGEN--\":1666:1675   */\n      dup6\n        /* \"--CODEGEN--\":1662:1684   */\n      add\n        /* \"--CODEGEN--\":1641:1694   */\n      jump(tag_423)\n    tag_461:\n        /* \"--CODEGEN--\":1631:1694   */\n      swap2\n      pop\n        /* \"--CODEGEN--\":1603:1700   */\n      pop\n        /* \"--CODEGEN--\":1535:1710   */\n      swap3\n      swap2\n      pop\n      pop\n      jump\n        /* \"--CODEGEN--\":1717:1980   */\n    tag_294:\n      0x00\n        /* \"--CODEGEN--\":1832:1834   */\n      0x20\n        /* \"--CODEGEN--\":1820:1829   */\n      dup3\n        /* \"--CODEGEN--\":1811:1818   */\n      dup5\n        /* \"--CODEGEN--\":1807:1830   */\n      sub\n        /* \"--CODEGEN--\":1803:1835   */\n      slt\n        /* \"--CODEGEN--\":1800:1802   */\n      iszero\n      tag_463\n      jumpi\n        /* \"--CODEGEN--\":1848:1849   */\n      0x00\n        /* \"--CODEGEN--\":1845:1846   */\n      dup1\n        /* \"--CODEGEN--\":1838:1850   */\n      revert\n        /* \"--CODEGEN--\":1800:1802   */\n    tag_463:\n        /* \"--CODEGEN--\":1883:1884   */\n      0x00\n        /* \"--CODEGEN--\":1900:1964   */\n      tag_464\n        /* \"--CODEGEN--\":1956:1963   */\n      dup5\n        /* \"--CODEGEN--\":1947:1953   */\n      dup3\n        /* \"--CODEGEN--\":1936:1945   */\n      dup6\n        /* \"--CODEGEN--\":1932:1954   */\n      add\n        /* \"--CODEGEN--\":1900:1964   */\n      jump(tag_427)\n    tag_464:\n        /* \"--CODEGEN--\":1890:1964   */\n      swap2\n      pop\n        /* \"--CODEGEN--\":1862:1970   */\n      pop\n        /* \"--CODEGEN--\":1794:1980   */\n      swap3\n      swap2\n      pop\n      pop\n      jump\n        /* \"--CODEGEN--\":1987:2369   */\n    tag_84:\n      0x00\n      dup1\n        /* \"--CODEGEN--\":2116:2118   */\n      0x40\n        /* \"--CODEGEN--\":2104:2113   */\n      dup4\n        /* \"--CODEGEN--\":2095:2102   */\n      dup6\n        /* \"--CODEGEN--\":2091:2114   */\n      sub\n        /* \"--CODEGEN--\":2087:2119   */\n      slt\n        /* \"--CODEGEN--\":2084:2086   */\n      iszero\n      tag_466\n      jumpi\n        /* \"--CODEGEN--\":2132:2133   */\n      0x00\n        /* \"--CODEGEN--\":2129:2130   */\n      dup1\n        /* \"--CODEGEN--\":2122:2134   */\n      revert\n        /* \"--CODEGEN--\":2084:2086   */\n    tag_466:\n        /* \"--CODEGEN--\":2167:2168   */\n      0x00\n        /* \"--CODEGEN--\":2184:2245   */\n      tag_467\n        /* \"--CODEGEN--\":2237:2244   */\n      dup6\n        /* \"--CODEGEN--\":2228:2234   */\n      dup3\n        /* \"--CODEGEN--\":2217:2226   */\n      dup7\n        /* \"--CODEGEN--\":2213:2235   */\n      add\n        /* \"--CODEGEN--\":2184:2245   */\n      jump(tag_430)\n    tag_467:\n        /* \"--CODEGEN--\":2174:2245   */\n      swap3\n      pop\n        /* \"--CODEGEN--\":2146:2251   */\n      pop\n        /* \"--CODEGEN--\":2282:2284   */\n      0x20\n        /* \"--CODEGEN--\":2300:2353   */\n      tag_468\n        /* \"--CODEGEN--\":2345:2352   */\n      dup6\n        /* \"--CODEGEN--\":2336:2342   */\n      dup3\n        /* \"--CODEGEN--\":2325:2334   */\n      dup7\n        /* \"--CODEGEN--\":2321:2343   */\n      add\n        /* \"--CODEGEN--\":2300:2353   */\n      jump(tag_451)\n    tag_468:\n        /* \"--CODEGEN--\":2290:2353   */\n      swap2\n      pop\n        /* \"--CODEGEN--\":2261:2359   */\n      pop\n        /* \"--CODEGEN--\":2078:2369   */\n      swap3\n      pop\n      swap3\n      swap1\n      pop\n      jump\n        /* \"--CODEGEN--\":2376:2742   */\n    tag_174:\n      0x00\n      dup1\n        /* \"--CODEGEN--\":2497:2499   */\n      0x40\n        /* \"--CODEGEN--\":2485:2494   */\n      dup4\n        /* \"--CODEGEN--\":2476:2483   */\n      dup6\n        /* \"--CODEGEN--\":2472:2495   */\n      sub\n        /* \"--CODEGEN--\":2468:2500   */\n      slt\n        /* \"--CODEGEN--\":2465:2467   */\n      iszero\n      tag_470\n      jumpi\n        /* \"--CODEGEN--\":2513:2514   */\n      0x00\n        /* \"--CODEGEN--\":2510:2511   */\n      dup1\n        /* \"--CODEGEN--\":2503:2515   */\n      revert\n        /* \"--CODEGEN--\":2465:2467   */\n    tag_470:\n        /* \"--CODEGEN--\":2548:2549   */\n      0x00\n        /* \"--CODEGEN--\":2565:2618   */\n      tag_471\n        /* \"--CODEGEN--\":2610:2617   */\n      dup6\n        /* \"--CODEGEN--\":2601:2607   */\n      dup3\n        /* \"--CODEGEN--\":2590:2599   */\n      dup7\n        /* \"--CODEGEN--\":2586:2608   */\n      add\n        /* \"--CODEGEN--\":2565:2618   */\n      jump(tag_423)\n    tag_471:\n        /* \"--CODEGEN--\":2555:2618   */\n      swap3\n      pop\n        /* \"--CODEGEN--\":2527:2624   */\n      pop\n        /* \"--CODEGEN--\":2655:2657   */\n      0x20\n        /* \"--CODEGEN--\":2673:2726   */\n      tag_472\n        /* \"--CODEGEN--\":2718:2725   */\n      dup6\n        /* \"--CODEGEN--\":2709:2715   */\n      dup3\n        /* \"--CODEGEN--\":2698:2707   */\n      dup7\n        /* \"--CODEGEN--\":2694:2716   */\n      add\n        /* \"--CODEGEN--\":2673:2726   */\n      jump(tag_423)\n    tag_472:\n        /* \"--CODEGEN--\":2663:2726   */\n      swap2\n      pop\n        /* \"--CODEGEN--\":2634:2732   */\n      pop\n        /* \"--CODEGEN--\":2459:2742   */\n      swap3\n      pop\n      swap3\n      swap1\n      pop\n      jump\n        /* \"--CODEGEN--\":2749:3366   */\n    tag_79:\n      0x00\n      dup1\n      0x00\n      dup1\n        /* \"--CODEGEN--\":2904:2907   */\n      0x80\n        /* \"--CODEGEN--\":2892:2901   */\n      dup6\n        /* \"--CODEGEN--\":2883:2890   */\n      dup8\n        /* \"--CODEGEN--\":2879:2902   */\n      sub\n        /* \"--CODEGEN--\":2875:2908   */\n      slt\n        /* \"--CODEGEN--\":2872:2874   */\n      iszero\n      tag_474\n      jumpi\n        /* \"--CODEGEN--\":2921:2922   */\n      0x00\n        /* \"--CODEGEN--\":2918:2919   */\n      dup1\n        /* \"--CODEGEN--\":2911:2923   */\n      revert\n        /* \"--CODEGEN--\":2872:2874   */\n    tag_474:\n        /* \"--CODEGEN--\":2956:2957   */\n      0x00\n        /* \"--CODEGEN--\":2973:3026   */\n      tag_475\n        /* \"--CODEGEN--\":3018:3025   */\n      dup8\n        /* \"--CODEGEN--\":3009:3015   */\n      dup3\n        /* \"--CODEGEN--\":2998:3007   */\n      dup9\n        /* \"--CODEGEN--\":2994:3016   */\n      add\n        /* \"--CODEGEN--\":2973:3026   */\n      jump(tag_423)\n    tag_475:\n        /* \"--CODEGEN--\":2963:3026   */\n      swap5\n      pop\n        /* \"--CODEGEN--\":2935:3032   */\n      pop\n        /* \"--CODEGEN--\":3063:3065   */\n      0x20\n        /* \"--CODEGEN--\":3081:3134   */\n      tag_476\n        /* \"--CODEGEN--\":3126:3133   */\n      dup8\n        /* \"--CODEGEN--\":3117:3123   */\n      dup3\n        /* \"--CODEGEN--\":3106:3115   */\n      dup9\n        /* \"--CODEGEN--\":3102:3124   */\n      add\n        /* \"--CODEGEN--\":3081:3134   */\n      jump(tag_423)\n    tag_476:\n        /* \"--CODEGEN--\":3071:3134   */\n      swap4\n      pop\n        /* \"--CODEGEN--\":3042:3140   */\n      pop\n        /* \"--CODEGEN--\":3171:3173   */\n      0x40\n        /* \"--CODEGEN--\":3189:3242   */\n      tag_477\n        /* \"--CODEGEN--\":3234:3241   */\n      dup8\n        /* \"--CODEGEN--\":3225:3231   */\n      dup3\n        /* \"--CODEGEN--\":3214:3223   */\n      dup9\n        /* \"--CODEGEN--\":3210:3232   */\n      add\n        /* \"--CODEGEN--\":3189:3242   */\n      jump(tag_423)\n    tag_477:\n        /* \"--CODEGEN--\":3179:3242   */\n      swap3\n      pop\n        /* \"--CODEGEN--\":3150:3248   */\n      pop\n        /* \"--CODEGEN--\":3279:3281   */\n      0x60\n        /* \"--CODEGEN--\":3297:3350   */\n      tag_478\n        /* \"--CODEGEN--\":3342:3349   */\n      dup8\n        /* \"--CODEGEN--\":3333:3339   */\n      dup3\n        /* \"--CODEGEN--\":3322:3331   */\n      dup9\n        /* \"--CODEGEN--\":3318:3340   */\n      add\n        /* \"--CODEGEN--\":3297:3350   */\n      jump(tag_451)\n    tag_478:\n        /* \"--CODEGEN--\":3287:3350   */\n      swap2\n      pop\n        /* \"--CODEGEN--\":3258:3356   */\n      pop\n        /* \"--CODEGEN--\":2866:3366   */\n      swap3\n      swap6\n      swap2\n      swap5\n      pop\n      swap3\n      pop\n      jump\n        /* \"--CODEGEN--\":3373:3733   */\n    tag_127:\n      0x00\n      dup1\n        /* \"--CODEGEN--\":3491:3493   */\n      0x40\n        /* \"--CODEGEN--\":3479:3488   */\n      dup4\n        /* \"--CODEGEN--\":3470:3477   */\n      dup6\n        /* \"--CODEGEN--\":3466:3489   */\n      sub\n        /* \"--CODEGEN--\":3462:3494   */\n      slt\n        /* \"--CODEGEN--\":3459:3461   */\n      iszero\n      tag_480\n      jumpi\n        /* \"--CODEGEN--\":3507:3508   */\n      0x00\n        /* \"--CODEGEN--\":3504:3505   */\n      dup1\n        /* \"--CODEGEN--\":3497:3509   */\n      revert\n        /* \"--CODEGEN--\":3459:3461   */\n    tag_480:\n        /* \"--CODEGEN--\":3542:3543   */\n      0x00\n        /* \"--CODEGEN--\":3559:3612   */\n      tag_481\n        /* \"--CODEGEN--\":3604:3611   */\n      dup6\n        /* \"--CODEGEN--\":3595:3601   */\n      dup3\n        /* \"--CODEGEN--\":3584:3593   */\n      dup7\n        /* \"--CODEGEN--\":3580:3602   */\n      add\n        /* \"--CODEGEN--\":3559:3612   */\n      jump(tag_423)\n    tag_481:\n        /* \"--CODEGEN--\":3549:3612   */\n      swap3\n      pop\n        /* \"--CODEGEN--\":3521:3618   */\n      pop\n        /* \"--CODEGEN--\":3649:3651   */\n      0x20\n        /* \"--CODEGEN--\":3667:3717   */\n      tag_482\n        /* \"--CODEGEN--\":3709:3716   */\n      dup6\n        /* \"--CODEGEN--\":3700:3706   */\n      dup3\n        /* \"--CODEGEN--\":3689:3698   */\n      dup7\n        /* \"--CODEGEN--\":3685:3707   */\n      add\n        /* \"--CODEGEN--\":3667:3717   */\n      jump(tag_434)\n    tag_482:\n        /* \"--CODEGEN--\":3657:3717   */\n      swap2\n      pop\n        /* \"--CODEGEN--\":3628:3723   */\n      pop\n        /* \"--CODEGEN--\":3453:3733   */\n      swap3\n      pop\n      swap3\n      swap1\n      pop\n      jump\n        /* \"--CODEGEN--\":3740:4231   */\n    tag_144:\n      0x00\n      dup1\n      0x00\n        /* \"--CODEGEN--\":3878:3880   */\n      0x60\n        /* \"--CODEGEN--\":3866:3875   */\n      dup5\n        /* \"--CODEGEN--\":3857:3864   */\n      dup7\n        /* \"--CODEGEN--\":3853:3876   */\n      sub\n        /* \"--CODEGEN--\":3849:3881   */\n      slt\n        /* \"--CODEGEN--\":3846:3848   */\n      iszero\n      tag_484\n      jumpi\n        /* \"--CODEGEN--\":3894:3895   */\n      0x00\n        /* \"--CODEGEN--\":3891:3892   */\n      dup1\n        /* \"--CODEGEN--\":3884:3896   */\n      revert\n        /* \"--CODEGEN--\":3846:3848   */\n    tag_484:\n        /* \"--CODEGEN--\":3929:3930   */\n      0x00\n        /* \"--CODEGEN--\":3946:3999   */\n      tag_485\n        /* \"--CODEGEN--\":3991:3998   */\n      dup7\n        /* \"--CODEGEN--\":3982:3988   */\n      dup3\n        /* \"--CODEGEN--\":3971:3980   */\n      dup8\n        /* \"--CODEGEN--\":3967:3989   */\n      add\n        /* \"--CODEGEN--\":3946:3999   */\n      jump(tag_423)\n    tag_485:\n        /* \"--CODEGEN--\":3936:3999   */\n      swap4\n      pop\n        /* \"--CODEGEN--\":3908:4005   */\n      pop\n        /* \"--CODEGEN--\":4036:4038   */\n      0x20\n        /* \"--CODEGEN--\":4054:4107   */\n      tag_486\n        /* \"--CODEGEN--\":4099:4106   */\n      dup7\n        /* \"--CODEGEN--\":4090:4096   */\n      dup3\n        /* \"--CODEGEN--\":4079:4088   */\n      dup8\n        /* \"--CODEGEN--\":4075:4097   */\n      add\n        /* \"--CODEGEN--\":4054:4107   */\n      jump(tag_438)\n    tag_486:\n        /* \"--CODEGEN--\":4044:4107   */\n      swap3\n      pop\n        /* \"--CODEGEN--\":4015:4113   */\n      pop\n        /* \"--CODEGEN--\":4144:4146   */\n      0x40\n        /* \"--CODEGEN--\":4162:4215   */\n      tag_487\n        /* \"--CODEGEN--\":4207:4214   */\n      dup7\n        /* \"--CODEGEN--\":4198:4204   */\n      dup3\n        /* \"--CODEGEN--\":4187:4196   */\n      dup8\n        /* \"--CODEGEN--\":4183:4205   */\n      add\n        /* \"--CODEGEN--\":4162:4215   */\n      jump(tag_423)\n    tag_487:\n        /* \"--CODEGEN--\":4152:4215   */\n      swap2\n      pop\n        /* \"--CODEGEN--\":4123:4221   */\n      pop\n        /* \"--CODEGEN--\":3840:4231   */\n      swap3\n      pop\n      swap3\n      pop\n      swap3\n      jump\n        /* \"--CODEGEN--\":4238:4479   */\n    tag_62:\n      0x00\n        /* \"--CODEGEN--\":4342:4344   */\n      0x20\n        /* \"--CODEGEN--\":4330:4339   */\n      dup3\n        /* \"--CODEGEN--\":4321:4328   */\n      dup5\n        /* \"--CODEGEN--\":4317:4340   */\n      sub\n        /* \"--CODEGEN--\":4313:4345   */\n      slt\n        /* \"--CODEGEN--\":4310:4312   */\n      iszero\n      tag_489\n      jumpi\n        /* \"--CODEGEN--\":4358:4359   */\n      0x00\n        /* \"--CODEGEN--\":4355:4356   */\n      dup1\n        /* \"--CODEGEN--\":4348:4360   */\n      revert\n        /* \"--CODEGEN--\":4310:4312   */\n    tag_489:\n        /* \"--CODEGEN--\":4393:4394   */\n      0x00\n        /* \"--CODEGEN--\":4410:4463   */\n      tag_490\n        /* \"--CODEGEN--\":4455:4462   */\n      dup5\n        /* \"--CODEGEN--\":4446:4452   */\n      dup3\n        /* \"--CODEGEN--\":4435:4444   */\n      dup6\n        /* \"--CODEGEN--\":4431:4453   */\n      add\n        /* \"--CODEGEN--\":4410:4463   */\n      jump(tag_438)\n    tag_490:\n        /* \"--CODEGEN--\":4400:4463   */\n      swap2\n      pop\n        /* \"--CODEGEN--\":4372:4469   */\n      pop\n        /* \"--CODEGEN--\":4304:4479   */\n      swap3\n      swap2\n      pop\n      pop\n      jump\n        /* \"--CODEGEN--\":4486:4852   */\n    tag_121:\n      0x00\n      dup1\n        /* \"--CODEGEN--\":4607:4609   */\n      0x40\n        /* \"--CODEGEN--\":4595:4604   */\n      dup4\n        /* \"--CODEGEN--\":4586:4593   */\n      dup6\n        /* \"--CODEGEN--\":4582:4605   */\n      sub\n        /* \"--CODEGEN--\":4578:4610   */\n      slt\n        /* \"--CODEGEN--\":4575:4577   */\n      iszero\n      tag_492\n      jumpi\n        /* \"--CODEGEN--\":4623:4624   */\n      0x00\n        /* \"--CODEGEN--\":4620:4621   */\n      dup1\n        /* \"--CODEGEN--\":4613:4625   */\n      revert\n        /* \"--CODEGEN--\":4575:4577   */\n    tag_492:\n        /* \"--CODEGEN--\":4658:4659   */\n      0x00\n        /* \"--CODEGEN--\":4675:4728   */\n      tag_493\n        /* \"--CODEGEN--\":4720:4727   */\n      dup6\n        /* \"--CODEGEN--\":4711:4717   */\n      dup3\n        /* \"--CODEGEN--\":4700:4709   */\n      dup7\n        /* \"--CODEGEN--\":4696:4718   */\n      add\n        /* \"--CODEGEN--\":4675:4728   */\n      jump(tag_438)\n    tag_493:\n        /* \"--CODEGEN--\":4665:4728   */\n      swap3\n      pop\n        /* \"--CODEGEN--\":4637:4734   */\n      pop\n        /* \"--CODEGEN--\":4765:4767   */\n      0x20\n        /* \"--CODEGEN--\":4783:4836   */\n      tag_494\n        /* \"--CODEGEN--\":4828:4835   */\n      dup6\n        /* \"--CODEGEN--\":4819:4825   */\n      dup3\n        /* \"--CODEGEN--\":4808:4817   */\n      dup7\n        /* \"--CODEGEN--\":4804:4826   */\n      add\n        /* \"--CODEGEN--\":4783:4836   */\n      jump(tag_438)\n    tag_494:\n        /* \"--CODEGEN--\":4773:4836   */\n      swap2\n      pop\n        /* \"--CODEGEN--\":4744:4842   */\n      pop\n        /* \"--CODEGEN--\":4569:4852   */\n      swap3\n      pop\n      swap3\n      swap1\n      pop\n      jump\n        /* \"--CODEGEN--\":4859:5350   */\n    tag_169:\n      0x00\n      dup1\n      0x00\n        /* \"--CODEGEN--\":4997:4999   */\n      0x60\n        /* \"--CODEGEN--\":4985:4994   */\n      dup5\n        /* \"--CODEGEN--\":4976:4983   */\n      dup7\n        /* \"--CODEGEN--\":4972:4995   */\n      sub\n        /* \"--CODEGEN--\":4968:5000   */\n      slt\n        /* \"--CODEGEN--\":4965:4967   */\n      iszero\n      tag_496\n      jumpi\n        /* \"--CODEGEN--\":5013:5014   */\n      0x00\n        /* \"--CODEGEN--\":5010:5011   */\n      dup1\n        /* \"--CODEGEN--\":5003:5015   */\n      revert\n        /* \"--CODEGEN--\":4965:4967   */\n    tag_496:\n        /* \"--CODEGEN--\":5048:5049   */\n      0x00\n        /* \"--CODEGEN--\":5065:5118   */\n      tag_497\n        /* \"--CODEGEN--\":5110:5117   */\n      dup7\n        /* \"--CODEGEN--\":5101:5107   */\n      dup3\n        /* \"--CODEGEN--\":5090:5099   */\n      dup8\n        /* \"--CODEGEN--\":5086:5108   */\n      add\n        /* \"--CODEGEN--\":5065:5118   */\n      jump(tag_438)\n    tag_497:\n        /* \"--CODEGEN--\":5055:5118   */\n      swap4\n      pop\n        /* \"--CODEGEN--\":5027:5124   */\n      pop\n        /* \"--CODEGEN--\":5155:5157   */\n      0x20\n        /* \"--CODEGEN--\":5173:5226   */\n      tag_498\n        /* \"--CODEGEN--\":5218:5225   */\n      dup7\n        /* \"--CODEGEN--\":5209:5215   */\n      dup3\n        /* \"--CODEGEN--\":5198:5207   */\n      dup8\n        /* \"--CODEGEN--\":5194:5216   */\n      add\n        /* \"--CODEGEN--\":5173:5226   */\n      jump(tag_438)\n    tag_498:\n        /* \"--CODEGEN--\":5163:5226   */\n      swap3\n      pop\n        /* \"--CODEGEN--\":5134:5232   */\n      pop\n        /* \"--CODEGEN--\":5263:5265   */\n      0x40\n        /* \"--CODEGEN--\":5281:5334   */\n      tag_499\n        /* \"--CODEGEN--\":5326:5333   */\n      dup7\n        /* \"--CODEGEN--\":5317:5323   */\n      dup3\n        /* \"--CODEGEN--\":5306:5315   */\n      dup8\n        /* \"--CODEGEN--\":5302:5324   */\n      add\n        /* \"--CODEGEN--\":5281:5334   */\n      jump(tag_451)\n    tag_499:\n        /* \"--CODEGEN--\":5271:5334   */\n      swap2\n      pop\n        /* \"--CODEGEN--\":5242:5340   */\n      pop\n        /* \"--CODEGEN--\":4959:5350   */\n      swap3\n      pop\n      swap3\n      pop\n      swap3\n      jump\n        /* \"--CODEGEN--\":5357:5596   */\n    tag_49:\n      0x00\n        /* \"--CODEGEN--\":5460:5462   */\n      0x20\n        /* \"--CODEGEN--\":5448:5457   */\n      dup3\n        /* \"--CODEGEN--\":5439:5446   */\n      dup5\n        /* \"--CODEGEN--\":5435:5458   */\n      sub\n        /* \"--CODEGEN--\":5431:5463   */\n      slt\n        /* \"--CODEGEN--\":5428:5430   */\n      iszero\n      tag_501\n      jumpi\n        /* \"--CODEGEN--\":5476:5477   */\n      0x00\n        /* \"--CODEGEN--\":5473:5474   */\n      dup1\n        /* \"--CODEGEN--\":5466:5478   */\n      revert\n        /* \"--CODEGEN--\":5428:5430   */\n    tag_501:\n        /* \"--CODEGEN--\":5511:5512   */\n      0x00\n        /* \"--CODEGEN--\":5528:5580   */\n      tag_502\n        /* \"--CODEGEN--\":5572:5579   */\n      dup5\n        /* \"--CODEGEN--\":5563:5569   */\n      dup3\n        /* \"--CODEGEN--\":5552:5561   */\n      dup6\n        /* \"--CODEGEN--\":5548:5570   */\n      add\n        /* \"--CODEGEN--\":5528:5580   */\n      jump(tag_442)\n    tag_502:\n        /* \"--CODEGEN--\":5518:5580   */\n      swap2\n      pop\n        /* \"--CODEGEN--\":5490:5586   */\n      pop\n        /* \"--CODEGEN--\":5422:5596   */\n      swap3\n      swap2\n      pop\n      pop\n      jump\n        /* \"--CODEGEN--\":5603:6218   */\n    tag_111:\n      0x00\n      dup1\n      0x00\n      dup1\n        /* \"--CODEGEN--\":5757:5760   */\n      0x80\n        /* \"--CODEGEN--\":5745:5754   */\n      dup6\n        /* \"--CODEGEN--\":5736:5743   */\n      dup8\n        /* \"--CODEGEN--\":5732:5755   */\n      sub\n        /* \"--CODEGEN--\":5728:5761   */\n      slt\n        /* \"--CODEGEN--\":5725:5727   */\n      iszero\n      tag_504\n      jumpi\n        /* \"--CODEGEN--\":5774:5775   */\n      0x00\n        /* \"--CODEGEN--\":5771:5772   */\n      dup1\n        /* \"--CODEGEN--\":5764:5776   */\n      revert\n        /* \"--CODEGEN--\":5725:5727   */\n    tag_504:\n        /* \"--CODEGEN--\":5809:5810   */\n      0x00\n        /* \"--CODEGEN--\":5826:5878   */\n      tag_505\n        /* \"--CODEGEN--\":5870:5877   */\n      dup8\n        /* \"--CODEGEN--\":5861:5867   */\n      dup3\n        /* \"--CODEGEN--\":5850:5859   */\n      dup9\n        /* \"--CODEGEN--\":5846:5868   */\n      add\n        /* \"--CODEGEN--\":5826:5878   */\n      jump(tag_442)\n    tag_505:\n        /* \"--CODEGEN--\":5816:5878   */\n      swap5\n      pop\n        /* \"--CODEGEN--\":5788:5884   */\n      pop\n        /* \"--CODEGEN--\":5915:5917   */\n      0x20\n        /* \"--CODEGEN--\":5933:5986   */\n      tag_506\n        /* \"--CODEGEN--\":5978:5985   */\n      dup8\n        /* \"--CODEGEN--\":5969:5975   */\n      dup3\n        /* \"--CODEGEN--\":5958:5967   */\n      dup9\n        /* \"--CODEGEN--\":5954:5976   */\n      add\n        /* \"--CODEGEN--\":5933:5986   */\n      jump(tag_438)\n    tag_506:\n        /* \"--CODEGEN--\":5923:5986   */\n      swap4\n      pop\n        /* \"--CODEGEN--\":5894:5992   */\n      pop\n        /* \"--CODEGEN--\":6023:6025   */\n      0x40\n        /* \"--CODEGEN--\":6041:6094   */\n      tag_507\n        /* \"--CODEGEN--\":6086:6093   */\n      dup8\n        /* \"--CODEGEN--\":6077:6083   */\n      dup3\n        /* \"--CODEGEN--\":6066:6075   */\n      dup9\n        /* \"--CODEGEN--\":6062:6084   */\n      add\n        /* \"--CODEGEN--\":6041:6094   */\n      jump(tag_451)\n    tag_507:\n        /* \"--CODEGEN--\":6031:6094   */\n      swap3\n      pop\n        /* \"--CODEGEN--\":6002:6100   */\n      pop\n        /* \"--CODEGEN--\":6131:6133   */\n      0x60\n        /* \"--CODEGEN--\":6149:6202   */\n      tag_508\n        /* \"--CODEGEN--\":6194:6201   */\n      dup8\n        /* \"--CODEGEN--\":6185:6191   */\n      dup3\n        /* \"--CODEGEN--\":6174:6183   */\n      dup9\n        /* \"--CODEGEN--\":6170:6192   */\n      add\n        /* \"--CODEGEN--\":6149:6202   */\n      jump(tag_423)\n    tag_508:\n        /* \"--CODEGEN--\":6139:6202   */\n      swap2\n      pop\n        /* \"--CODEGEN--\":6110:6208   */\n      pop\n        /* \"--CODEGEN--\":5719:6218   */\n      swap3\n      swap6\n      swap2\n      swap5\n      pop\n      swap3\n      pop\n      jump\n        /* \"--CODEGEN--\":6225:7216   */\n    tag_180:\n      0x00\n      dup1\n      0x00\n      dup1\n      0x00\n      dup1\n      0x00\n        /* \"--CODEGEN--\":6432:6435   */\n      0xc0\n        /* \"--CODEGEN--\":6420:6429   */\n      dup9\n        /* \"--CODEGEN--\":6411:6418   */\n      dup11\n        /* \"--CODEGEN--\":6407:6430   */\n      sub\n        /* \"--CODEGEN--\":6403:6436   */\n      slt\n        /* \"--CODEGEN--\":6400:6402   */\n      iszero\n      tag_510\n      jumpi\n        /* \"--CODEGEN--\":6449:6450   */\n      0x00\n        /* \"--CODEGEN--\":6446:6447   */\n      dup1\n        /* \"--CODEGEN--\":6439:6451   */\n      revert\n        /* \"--CODEGEN--\":6400:6402   */\n    tag_510:\n        /* \"--CODEGEN--\":6484:6485   */\n      0x00\n        /* \"--CODEGEN--\":6501:6553   */\n      tag_511\n        /* \"--CODEGEN--\":6545:6552   */\n      dup11\n        /* \"--CODEGEN--\":6536:6542   */\n      dup3\n        /* \"--CODEGEN--\":6525:6534   */\n      dup12\n        /* \"--CODEGEN--\":6521:6543   */\n      add\n        /* \"--CODEGEN--\":6501:6553   */\n      jump(tag_442)\n    tag_511:\n        /* \"--CODEGEN--\":6491:6553   */\n      swap8\n      pop\n        /* \"--CODEGEN--\":6463:6559   */\n      pop\n        /* \"--CODEGEN--\":6590:6592   */\n      0x20\n        /* \"--CODEGEN--\":6608:6661   */\n      tag_512\n        /* \"--CODEGEN--\":6653:6660   */\n      dup11\n        /* \"--CODEGEN--\":6644:6650   */\n      dup3\n        /* \"--CODEGEN--\":6633:6642   */\n      dup12\n        /* \"--CODEGEN--\":6629:6651   */\n      add\n        /* \"--CODEGEN--\":6608:6661   */\n      jump(tag_438)\n    tag_512:\n        /* \"--CODEGEN--\":6598:6661   */\n      swap7\n      pop\n        /* \"--CODEGEN--\":6569:6667   */\n      pop\n        /* \"--CODEGEN--\":6698:6700   */\n      0x40\n        /* \"--CODEGEN--\":6716:6769   */\n      tag_513\n        /* \"--CODEGEN--\":6761:6768   */\n      dup11\n        /* \"--CODEGEN--\":6752:6758   */\n      dup3\n        /* \"--CODEGEN--\":6741:6750   */\n      dup12\n        /* \"--CODEGEN--\":6737:6759   */\n      add\n        /* \"--CODEGEN--\":6716:6769   */\n      jump(tag_451)\n    tag_513:\n        /* \"--CODEGEN--\":6706:6769   */\n      swap6\n      pop\n        /* \"--CODEGEN--\":6677:6775   */\n      pop\n        /* \"--CODEGEN--\":6806:6808   */\n      0x60\n        /* \"--CODEGEN--\":6824:6877   */\n      tag_514\n        /* \"--CODEGEN--\":6869:6876   */\n      dup11\n        /* \"--CODEGEN--\":6860:6866   */\n      dup3\n        /* \"--CODEGEN--\":6849:6858   */\n      dup12\n        /* \"--CODEGEN--\":6845:6867   */\n      add\n        /* \"--CODEGEN--\":6824:6877   */\n      jump(tag_423)\n    tag_514:\n        /* \"--CODEGEN--\":6814:6877   */\n      swap5\n      pop\n        /* \"--CODEGEN--\":6785:6883   */\n      pop\n        /* \"--CODEGEN--\":6914:6917   */\n      0x80\n        /* \"--CODEGEN--\":6933:6986   */\n      tag_515\n        /* \"--CODEGEN--\":6978:6985   */\n      dup11\n        /* \"--CODEGEN--\":6969:6975   */\n      dup3\n        /* \"--CODEGEN--\":6958:6967   */\n      dup12\n        /* \"--CODEGEN--\":6954:6976   */\n      add\n        /* \"--CODEGEN--\":6933:6986   */\n      jump(tag_451)\n    tag_515:\n        /* \"--CODEGEN--\":6923:6986   */\n      swap4\n      pop\n        /* \"--CODEGEN--\":6893:6992   */\n      pop\n        /* \"--CODEGEN--\":7051:7054   */\n      0xa0\n        /* \"--CODEGEN--\":7040:7049   */\n      dup9\n        /* \"--CODEGEN--\":7036:7055   */\n      add\n        /* \"--CODEGEN--\":7023:7056   */\n      calldataload\n        /* \"--CODEGEN--\":7076:7094   */\n      0xffffffffffffffff\n        /* \"--CODEGEN--\":7068:7074   */\n      dup2\n        /* \"--CODEGEN--\":7065:7095   */\n      gt\n        /* \"--CODEGEN--\":7062:7064   */\n      iszero\n      tag_516\n      jumpi\n        /* \"--CODEGEN--\":7108:7109   */\n      0x00\n        /* \"--CODEGEN--\":7105:7106   */\n      dup1\n        /* \"--CODEGEN--\":7098:7110   */\n      revert\n        /* \"--CODEGEN--\":7062:7064   */\n    tag_516:\n        /* \"--CODEGEN--\":7136:7200   */\n      tag_517\n        /* \"--CODEGEN--\":7192:7199   */\n      dup11\n        /* \"--CODEGEN--\":7183:7189   */\n      dup3\n        /* \"--CODEGEN--\":7172:7181   */\n      dup12\n        /* \"--CODEGEN--\":7168:7190   */\n      add\n        /* \"--CODEGEN--\":7136:7200   */\n      jump(tag_446)\n    tag_517:\n        /* \"--CODEGEN--\":7126:7200   */\n      swap3\n      pop\n      swap3\n      pop\n        /* \"--CODEGEN--\":7002:7206   */\n      pop\n        /* \"--CODEGEN--\":6394:7216   */\n      swap3\n      swap6\n      swap9\n      swap2\n      swap5\n      swap8\n      pop\n      swap3\n      swap6\n      pop\n      jump\n        /* \"--CODEGEN--\":7223:8352   */\n    tag_102:\n      0x00\n      dup1\n      0x00\n      dup1\n      0x00\n      dup1\n      0x00\n      dup1\n        /* \"--CODEGEN--\":7453:7456   */\n      0xe0\n        /* \"--CODEGEN--\":7441:7450   */\n      dup10\n        /* \"--CODEGEN--\":7432:7439   */\n      dup12\n        /* \"--CODEGEN--\":7428:7451   */\n      sub\n        /* \"--CODEGEN--\":7424:7457   */\n      slt\n        /* \"--CODEGEN--\":7421:7423   */\n      iszero\n      tag_519\n      jumpi\n        /* \"--CODEGEN--\":7470:7471   */\n      0x00\n        /* \"--CODEGEN--\":7467:7468   */\n      dup1\n        /* \"--CODEGEN--\":7460:7472   */\n      revert\n        /* \"--CODEGEN--\":7421:7423   */\n    tag_519:\n        /* \"--CODEGEN--\":7505:7506   */\n      0x00\n        /* \"--CODEGEN--\":7522:7574   */\n      tag_520\n        /* \"--CODEGEN--\":7566:7573   */\n      dup12\n        /* \"--CODEGEN--\":7557:7563   */\n      dup3\n        /* \"--CODEGEN--\":7546:7555   */\n      dup13\n        /* \"--CODEGEN--\":7542:7564   */\n      add\n        /* \"--CODEGEN--\":7522:7574   */\n      jump(tag_442)\n    tag_520:\n        /* \"--CODEGEN--\":7512:7574   */\n      swap9\n      pop\n        /* \"--CODEGEN--\":7484:7580   */\n      pop\n        /* \"--CODEGEN--\":7611:7613   */\n      0x20\n        /* \"--CODEGEN--\":7629:7681   */\n      tag_521\n        /* \"--CODEGEN--\":7673:7680   */\n      dup12\n        /* \"--CODEGEN--\":7664:7670   */\n      dup3\n        /* \"--CODEGEN--\":7653:7662   */\n      dup13\n        /* \"--CODEGEN--\":7649:7671   */\n      add\n        /* \"--CODEGEN--\":7629:7681   */\n      jump(tag_442)\n    tag_521:\n        /* \"--CODEGEN--\":7619:7681   */\n      swap8\n      pop\n        /* \"--CODEGEN--\":7590:7687   */\n      pop\n        /* \"--CODEGEN--\":7718:7720   */\n      0x40\n        /* \"--CODEGEN--\":7736:7788   */\n      tag_522\n        /* \"--CODEGEN--\":7780:7787   */\n      dup12\n        /* \"--CODEGEN--\":7771:7777   */\n      dup3\n        /* \"--CODEGEN--\":7760:7769   */\n      dup13\n        /* \"--CODEGEN--\":7756:7778   */\n      add\n        /* \"--CODEGEN--\":7736:7788   */\n      jump(tag_455)\n    tag_522:\n        /* \"--CODEGEN--\":7726:7788   */\n      swap7\n      pop\n        /* \"--CODEGEN--\":7697:7794   */\n      pop\n        /* \"--CODEGEN--\":7825:7827   */\n      0x60\n        /* \"--CODEGEN--\":7843:7896   */\n      tag_523\n        /* \"--CODEGEN--\":7888:7895   */\n      dup12\n        /* \"--CODEGEN--\":7879:7885   */\n      dup3\n        /* \"--CODEGEN--\":7868:7877   */\n      dup13\n        /* \"--CODEGEN--\":7864:7886   */\n      add\n        /* \"--CODEGEN--\":7843:7896   */\n      jump(tag_438)\n    tag_523:\n        /* \"--CODEGEN--\":7833:7896   */\n      swap6\n      pop\n        /* \"--CODEGEN--\":7804:7902   */\n      pop\n        /* \"--CODEGEN--\":7933:7936   */\n      0x80\n        /* \"--CODEGEN--\":7952:8013   */\n      tag_524\n        /* \"--CODEGEN--\":8005:8012   */\n      dup12\n        /* \"--CODEGEN--\":7996:8002   */\n      dup3\n        /* \"--CODEGEN--\":7985:7994   */\n      dup13\n        /* \"--CODEGEN--\":7981:8003   */\n      add\n        /* \"--CODEGEN--\":7952:8013   */\n      jump(tag_430)\n    tag_524:\n        /* \"--CODEGEN--\":7942:8013   */\n      swap5\n      pop\n        /* \"--CODEGEN--\":7912:8019   */\n      pop\n        /* \"--CODEGEN--\":8050:8053   */\n      0xa0\n        /* \"--CODEGEN--\":8069:8122   */\n      tag_525\n        /* \"--CODEGEN--\":8114:8121   */\n      dup12\n        /* \"--CODEGEN--\":8105:8111   */\n      dup3\n        /* \"--CODEGEN--\":8094:8103   */\n      dup13\n        /* \"--CODEGEN--\":8090:8112   */\n      add\n        /* \"--CODEGEN--\":8069:8122   */\n      jump(tag_451)\n    tag_525:\n        /* \"--CODEGEN--\":8059:8122   */\n      swap4\n      pop\n        /* \"--CODEGEN--\":8029:8128   */\n      pop\n        /* \"--CODEGEN--\":8187:8190   */\n      0xc0\n        /* \"--CODEGEN--\":8176:8185   */\n      dup10\n        /* \"--CODEGEN--\":8172:8191   */\n      add\n        /* \"--CODEGEN--\":8159:8192   */\n      calldataload\n        /* \"--CODEGEN--\":8212:8230   */\n      0xffffffffffffffff\n        /* \"--CODEGEN--\":8204:8210   */\n      dup2\n        /* \"--CODEGEN--\":8201:8231   */\n      gt\n        /* \"--CODEGEN--\":8198:8200   */\n      iszero\n      tag_526\n      jumpi\n        /* \"--CODEGEN--\":8244:8245   */\n      0x00\n        /* \"--CODEGEN--\":8241:8242   */\n      dup1\n        /* \"--CODEGEN--\":8234:8246   */\n      revert\n        /* \"--CODEGEN--\":8198:8200   */\n    tag_526:\n        /* \"--CODEGEN--\":8272:8336   */\n      tag_527\n        /* \"--CODEGEN--\":8328:8335   */\n      dup12\n        /* \"--CODEGEN--\":8319:8325   */\n      dup3\n        /* \"--CODEGEN--\":8308:8317   */\n      dup13\n        /* \"--CODEGEN--\":8304:8326   */\n      add\n        /* \"--CODEGEN--\":8272:8336   */\n      jump(tag_446)\n    tag_527:\n        /* \"--CODEGEN--\":8262:8336   */\n      swap3\n      pop\n      swap3\n      pop\n        /* \"--CODEGEN--\":8138:8342   */\n      pop\n        /* \"--CODEGEN--\":7415:8352   */\n      swap3\n      swap6\n      swap9\n      pop\n      swap3\n      swap6\n      swap9\n      swap1\n      swap4\n      swap7\n      pop\n      jump\n        /* \"--CODEGEN--\":8359:8848   */\n    tag_116:\n      0x00\n      dup1\n      0x00\n        /* \"--CODEGEN--\":8496:8498   */\n      0x60\n        /* \"--CODEGEN--\":8484:8493   */\n      dup5\n        /* \"--CODEGEN--\":8475:8482   */\n      dup7\n        /* \"--CODEGEN--\":8471:8494   */\n      sub\n        /* \"--CODEGEN--\":8467:8499   */\n      slt\n        /* \"--CODEGEN--\":8464:8466   */\n      iszero\n      tag_529\n      jumpi\n        /* \"--CODEGEN--\":8512:8513   */\n      0x00\n        /* \"--CODEGEN--\":8509:8510   */\n      dup1\n        /* \"--CODEGEN--\":8502:8514   */\n      revert\n        /* \"--CODEGEN--\":8464:8466   */\n    tag_529:\n        /* \"--CODEGEN--\":8547:8548   */\n      0x00\n        /* \"--CODEGEN--\":8564:8616   */\n      tag_530\n        /* \"--CODEGEN--\":8608:8615   */\n      dup7\n        /* \"--CODEGEN--\":8599:8605   */\n      dup3\n        /* \"--CODEGEN--\":8588:8597   */\n      dup8\n        /* \"--CODEGEN--\":8584:8606   */\n      add\n        /* \"--CODEGEN--\":8564:8616   */\n      jump(tag_442)\n    tag_530:\n        /* \"--CODEGEN--\":8554:8616   */\n      swap4\n      pop\n        /* \"--CODEGEN--\":8526:8622   */\n      pop\n        /* \"--CODEGEN--\":8653:8655   */\n      0x20\n        /* \"--CODEGEN--\":8671:8724   */\n      tag_531\n        /* \"--CODEGEN--\":8716:8723   */\n      dup7\n        /* \"--CODEGEN--\":8707:8713   */\n      dup3\n        /* \"--CODEGEN--\":8696:8705   */\n      dup8\n        /* \"--CODEGEN--\":8692:8714   */\n      add\n        /* \"--CODEGEN--\":8671:8724   */\n      jump(tag_451)\n    tag_531:\n        /* \"--CODEGEN--\":8661:8724   */\n      swap3\n      pop\n        /* \"--CODEGEN--\":8632:8730   */\n      pop\n        /* \"--CODEGEN--\":8761:8763   */\n      0x40\n        /* \"--CODEGEN--\":8779:8832   */\n      tag_532\n        /* \"--CODEGEN--\":8824:8831   */\n      dup7\n        /* \"--CODEGEN--\":8815:8821   */\n      dup3\n        /* \"--CODEGEN--\":8804:8813   */\n      dup8\n        /* \"--CODEGEN--\":8800:8822   */\n      add\n        /* \"--CODEGEN--\":8779:8832   */\n      jump(tag_423)\n    tag_532:\n        /* \"--CODEGEN--\":8769:8832   */\n      swap2\n      pop\n        /* \"--CODEGEN--\":8740:8838   */\n      pop\n        /* \"--CODEGEN--\":8458:8848   */\n      swap3\n      pop\n      swap3\n      pop\n      swap3\n      jump\n        /* \"--CODEGEN--\":8855:9096   */\n    tag_71:\n      0x00\n        /* \"--CODEGEN--\":8959:8961   */\n      0x20\n        /* \"--CODEGEN--\":8947:8956   */\n      dup3\n        /* \"--CODEGEN--\":8938:8945   */\n      dup5\n        /* \"--CODEGEN--\":8934:8957   */\n      sub\n        /* \"--CODEGEN--\":8930:8962   */\n      slt\n        /* \"--CODEGEN--\":8927:8929   */\n      iszero\n      tag_534\n      jumpi\n        /* \"--CODEGEN--\":8975:8976   */\n      0x00\n        /* \"--CODEGEN--\":8972:8973   */\n      dup1\n        /* \"--CODEGEN--\":8965:8977   */\n      revert\n        /* \"--CODEGEN--\":8927:8929   */\n    tag_534:\n        /* \"--CODEGEN--\":9010:9011   */\n      0x00\n        /* \"--CODEGEN--\":9027:9080   */\n      tag_535\n        /* \"--CODEGEN--\":9072:9079   */\n      dup5\n        /* \"--CODEGEN--\":9063:9069   */\n      dup3\n        /* \"--CODEGEN--\":9052:9061   */\n      dup6\n        /* \"--CODEGEN--\":9048:9070   */\n      add\n        /* \"--CODEGEN--\":9027:9080   */\n      jump(tag_451)\n    tag_535:\n        /* \"--CODEGEN--\":9017:9080   */\n      swap2\n      pop\n        /* \"--CODEGEN--\":8989:9086   */\n      pop\n        /* \"--CODEGEN--\":8921:9096   */\n      swap3\n      swap2\n      pop\n      pop\n      jump\n        /* \"--CODEGEN--\":9103:9469   */\n    tag_149:\n      0x00\n      dup1\n        /* \"--CODEGEN--\":9224:9226   */\n      0x40\n        /* \"--CODEGEN--\":9212:9221   */\n      dup4\n        /* \"--CODEGEN--\":9203:9210   */\n      dup6\n        /* \"--CODEGEN--\":9199:9222   */\n      sub\n        /* \"--CODEGEN--\":9195:9227   */\n      slt\n        /* \"--CODEGEN--\":9192:9194   */\n      iszero\n      tag_537\n      jumpi\n        /* \"--CODEGEN--\":9240:9241   */\n      0x00\n        /* \"--CODEGEN--\":9237:9238   */\n      dup1\n        /* \"--CODEGEN--\":9230:9242   */\n      revert\n        /* \"--CODEGEN--\":9192:9194   */\n    tag_537:\n        /* \"--CODEGEN--\":9275:9276   */\n      0x00\n        /* \"--CODEGEN--\":9292:9345   */\n      tag_538\n        /* \"--CODEGEN--\":9337:9344   */\n      dup6\n        /* \"--CODEGEN--\":9328:9334   */\n      dup3\n        /* \"--CODEGEN--\":9317:9326   */\n      dup7\n        /* \"--CODEGEN--\":9313:9335   */\n      add\n        /* \"--CODEGEN--\":9292:9345   */\n      jump(tag_451)\n    tag_538:\n        /* \"--CODEGEN--\":9282:9345   */\n      swap3\n      pop\n        /* \"--CODEGEN--\":9254:9351   */\n      pop\n        /* \"--CODEGEN--\":9382:9384   */\n      0x20\n        /* \"--CODEGEN--\":9400:9453   */\n      tag_539\n        /* \"--CODEGEN--\":9445:9452   */\n      dup6\n        /* \"--CODEGEN--\":9436:9442   */\n      dup3\n        /* \"--CODEGEN--\":9425:9434   */\n      dup7\n        /* \"--CODEGEN--\":9421:9443   */\n      add\n        /* \"--CODEGEN--\":9400:9453   */\n      jump(tag_451)\n    tag_539:\n        /* \"--CODEGEN--\":9390:9453   */\n      swap2\n      pop\n        /* \"--CODEGEN--\":9361:9459   */\n      pop\n        /* \"--CODEGEN--\":9186:9469   */\n      swap3\n      pop\n      swap3\n      swap1\n      pop\n      jump\n        /* \"--CODEGEN--\":9476:9838   */\n    tag_137:\n      0x00\n      dup1\n        /* \"--CODEGEN--\":9595:9597   */\n      0x40\n        /* \"--CODEGEN--\":9583:9592   */\n      dup4\n        /* \"--CODEGEN--\":9574:9581   */\n      dup6\n        /* \"--CODEGEN--\":9570:9593   */\n      sub\n        /* \"--CODEGEN--\":9566:9598   */\n      slt\n        /* \"--CODEGEN--\":9563:9565   */\n      iszero\n      tag_541\n      jumpi\n        /* \"--CODEGEN--\":9611:9612   */\n      0x00\n        /* \"--CODEGEN--\":9608:9609   */\n      dup1\n        /* \"--CODEGEN--\":9601:9613   */\n      revert\n        /* \"--CODEGEN--\":9563:9565   */\n    tag_541:\n        /* \"--CODEGEN--\":9646:9647   */\n      0x00\n        /* \"--CODEGEN--\":9663:9715   */\n      tag_542\n        /* \"--CODEGEN--\":9707:9714   */\n      dup6\n        /* \"--CODEGEN--\":9698:9704   */\n      dup3\n        /* \"--CODEGEN--\":9687:9696   */\n      dup7\n        /* \"--CODEGEN--\":9683:9705   */\n      add\n        /* \"--CODEGEN--\":9663:9715   */\n      jump(tag_455)\n    tag_542:\n        /* \"--CODEGEN--\":9653:9715   */\n      swap3\n      pop\n        /* \"--CODEGEN--\":9625:9721   */\n      pop\n        /* \"--CODEGEN--\":9752:9754   */\n      0x20\n        /* \"--CODEGEN--\":9770:9822   */\n      tag_543\n        /* \"--CODEGEN--\":9814:9821   */\n      dup6\n        /* \"--CODEGEN--\":9805:9811   */\n      dup3\n        /* \"--CODEGEN--\":9794:9803   */\n      dup7\n        /* \"--CODEGEN--\":9790:9812   */\n      add\n        /* \"--CODEGEN--\":9770:9822   */\n      jump(tag_442)\n    tag_543:\n        /* \"--CODEGEN--\":9760:9822   */\n      swap2\n      pop\n        /* \"--CODEGEN--\":9731:9828   */\n      pop\n        /* \"--CODEGEN--\":9557:9838   */\n      swap3\n      pop\n      swap3\n      swap1\n      pop\n      jump\n        /* \"--CODEGEN--\":9845:9987   */\n    tag_544:\n        /* \"--CODEGEN--\":9936:9981   */\n      tag_546\n        /* \"--CODEGEN--\":9975:9980   */\n      dup2\n        /* \"--CODEGEN--\":9936:9981   */\n      jump(tag_547)\n    tag_546:\n        /* \"--CODEGEN--\":9931:9934   */\n      dup3\n        /* \"--CODEGEN--\":9924:9982   */\n      mstore\n        /* \"--CODEGEN--\":9918:9987   */\n      pop\n      pop\n      jump\n        /* \"--CODEGEN--\":9994:10131   */\n    tag_548:\n        /* \"--CODEGEN--\":10093:10125   */\n      tag_550\n        /* \"--CODEGEN--\":10119:10124   */\n      dup2\n        /* \"--CODEGEN--\":10093:10125   */\n      jump(tag_551)\n    tag_550:\n        /* \"--CODEGEN--\":10088:10091   */\n      dup3\n        /* \"--CODEGEN--\":10081:10126   */\n      mstore\n        /* \"--CODEGEN--\":10075:10131   */\n      pop\n      pop\n      jump\n        /* \"--CODEGEN--\":10138:10251   */\n    tag_552:\n        /* \"--CODEGEN--\":10221:10245   */\n      tag_554\n        /* \"--CODEGEN--\":10239:10244   */\n      dup2\n        /* \"--CODEGEN--\":10221:10245   */\n      jump(tag_555)\n    tag_554:\n        /* \"--CODEGEN--\":10216:10219   */\n      dup3\n        /* \"--CODEGEN--\":10209:10246   */\n      mstore\n        /* \"--CODEGEN--\":10203:10251   */\n      pop\n      pop\n      jump\n        /* \"--CODEGEN--\":10258:10362   */\n    tag_556:\n        /* \"--CODEGEN--\":10335:10356   */\n      tag_558\n        /* \"--CODEGEN--\":10350:10355   */\n      dup2\n        /* \"--CODEGEN--\":10335:10356   */\n      jump(tag_559)\n    tag_558:\n        /* \"--CODEGEN--\":10330:10333   */\n      dup3\n        /* \"--CODEGEN--\":10323:10357   */\n      mstore\n        /* \"--CODEGEN--\":10317:10362   */\n      pop\n      pop\n      jump\n        /* \"--CODEGEN--\":10369:10482   */\n    tag_560:\n        /* \"--CODEGEN--\":10452:10476   */\n      tag_562\n        /* \"--CODEGEN--\":10470:10475   */\n      dup2\n        /* \"--CODEGEN--\":10452:10476   */\n      jump(tag_563)\n    tag_562:\n        /* \"--CODEGEN--\":10447:10450   */\n      dup3\n        /* \"--CODEGEN--\":10440:10477   */\n      mstore\n        /* \"--CODEGEN--\":10434:10482   */\n      pop\n      pop\n      jump\n        /* \"--CODEGEN--\":10489:10599   */\n    tag_564:\n        /* \"--CODEGEN--\":10570:10593   */\n      tag_566\n        /* \"--CODEGEN--\":10587:10592   */\n      dup2\n        /* \"--CODEGEN--\":10570:10593   */\n      jump(tag_567)\n    tag_566:\n        /* \"--CODEGEN--\":10565:10568   */\n      dup3\n        /* \"--CODEGEN--\":10558:10594   */\n      mstore\n        /* \"--CODEGEN--\":10552:10599   */\n      pop\n      pop\n      jump\n        /* \"--CODEGEN--\":10629:10926   */\n    tag_568:\n      0x00\n        /* \"--CODEGEN--\":10743:10813   */\n      tag_570\n        /* \"--CODEGEN--\":10806:10812   */\n      dup4\n        /* \"--CODEGEN--\":10801:10804   */\n      dup6\n        /* \"--CODEGEN--\":10743:10813   */\n      jump(tag_571)\n    tag_570:\n        /* \"--CODEGEN--\":10736:10813   */\n      swap4\n      pop\n        /* \"--CODEGEN--\":10825:10868   */\n      tag_572\n        /* \"--CODEGEN--\":10861:10867   */\n      dup4\n        /* \"--CODEGEN--\":10856:10859   */\n      dup6\n        /* \"--CODEGEN--\":10849:10854   */\n      dup5\n        /* \"--CODEGEN--\":10825:10868   */\n      jump(tag_573)\n    tag_572:\n        /* \"--CODEGEN--\":10890:10919   */\n      tag_574\n        /* \"--CODEGEN--\":10912:10918   */\n      dup4\n        /* \"--CODEGEN--\":10890:10919   */\n      jump(tag_575)\n    tag_574:\n        /* \"--CODEGEN--\":10885:10888   */\n      dup5\n        /* \"--CODEGEN--\":10881:10920   */\n      add\n        /* \"--CODEGEN--\":10874:10920   */\n      swap1\n      pop\n        /* \"--CODEGEN--\":10729:10926   */\n      swap4\n      swap3\n      pop\n      pop\n      pop\n      jump\n        /* \"--CODEGEN--\":10934:11277   */\n    tag_576:\n      0x00\n        /* \"--CODEGEN--\":11044:11082   */\n      tag_578\n        /* \"--CODEGEN--\":11076:11081   */\n      dup3\n        /* \"--CODEGEN--\":11044:11082   */\n      jump(tag_579)\n    tag_578:\n        /* \"--CODEGEN--\":11094:11164   */\n      tag_580\n        /* \"--CODEGEN--\":11157:11163   */\n      dup2\n        /* \"--CODEGEN--\":11152:11155   */\n      dup6\n        /* \"--CODEGEN--\":11094:11164   */\n      jump(tag_571)\n    tag_580:\n        /* \"--CODEGEN--\":11087:11164   */\n      swap4\n      pop\n        /* \"--CODEGEN--\":11169:11221   */\n      tag_581\n        /* \"--CODEGEN--\":11214:11220   */\n      dup2\n        /* \"--CODEGEN--\":11209:11212   */\n      dup6\n        /* \"--CODEGEN--\":11202:11206   */\n      0x20\n        /* \"--CODEGEN--\":11195:11200   */\n      dup7\n        /* \"--CODEGEN--\":11191:11207   */\n      add\n        /* \"--CODEGEN--\":11169:11221   */\n      jump(tag_582)\n    tag_581:\n        /* \"--CODEGEN--\":11242:11271   */\n      tag_583\n        /* \"--CODEGEN--\":11264:11270   */\n      dup2\n        /* \"--CODEGEN--\":11242:11271   */\n      jump(tag_575)\n    tag_583:\n        /* \"--CODEGEN--\":11237:11240   */\n      dup5\n        /* \"--CODEGEN--\":11233:11272   */\n      add\n        /* \"--CODEGEN--\":11226:11272   */\n      swap2\n      pop\n        /* \"--CODEGEN--\":11024:11277   */\n      pop\n      swap3\n      swap2\n      pop\n      pop\n      jump\n        /* \"--CODEGEN--\":11284:11619   */\n    tag_584:\n      0x00\n        /* \"--CODEGEN--\":11390:11424   */\n      tag_586\n        /* \"--CODEGEN--\":11418:11423   */\n      dup3\n        /* \"--CODEGEN--\":11390:11424   */\n      jump(tag_587)\n    tag_586:\n        /* \"--CODEGEN--\":11436:11506   */\n      tag_588\n        /* \"--CODEGEN--\":11499:11505   */\n      dup2\n        /* \"--CODEGEN--\":11494:11497   */\n      dup6\n        /* \"--CODEGEN--\":11436:11506   */\n      jump(tag_571)\n    tag_588:\n        /* \"--CODEGEN--\":11429:11506   */\n      swap4\n      pop\n        /* \"--CODEGEN--\":11511:11563   */\n      tag_589\n        /* \"--CODEGEN--\":11556:11562   */\n      dup2\n        /* \"--CODEGEN--\":11551:11554   */\n      dup6\n        /* \"--CODEGEN--\":11544:11548   */\n      0x20\n        /* \"--CODEGEN--\":11537:11542   */\n      dup7\n        /* \"--CODEGEN--\":11533:11549   */\n      add\n        /* \"--CODEGEN--\":11511:11563   */\n      jump(tag_582)\n    tag_589:\n        /* \"--CODEGEN--\":11584:11613   */\n      tag_590\n        /* \"--CODEGEN--\":11606:11612   */\n      dup2\n        /* \"--CODEGEN--\":11584:11613   */\n      jump(tag_575)\n    tag_590:\n        /* \"--CODEGEN--\":11579:11582   */\n      dup5\n        /* \"--CODEGEN--\":11575:11614   */\n      add\n        /* \"--CODEGEN--\":11568:11614   */\n      swap2\n      pop\n        /* \"--CODEGEN--\":11370:11619   */\n      pop\n      swap3\n      swap2\n      pop\n      pop\n      jump\n        /* \"--CODEGEN--\":11626:11782   */\n    tag_591:\n        /* \"--CODEGEN--\":11724:11776   */\n      tag_593\n        /* \"--CODEGEN--\":11770:11775   */\n      dup2\n        /* \"--CODEGEN--\":11724:11776   */\n      jump(tag_594)\n    tag_593:\n        /* \"--CODEGEN--\":11719:11722   */\n      dup3\n        /* \"--CODEGEN--\":11712:11777   */\n      mstore\n        /* \"--CODEGEN--\":11706:11782   */\n      pop\n      pop\n      jump\n        /* \"--CODEGEN--\":11789:12136   */\n    tag_595:\n      0x00\n        /* \"--CODEGEN--\":11901:11940   */\n      tag_597\n        /* \"--CODEGEN--\":11934:11939   */\n      dup3\n        /* \"--CODEGEN--\":11901:11940   */\n      jump(tag_598)\n    tag_597:\n        /* \"--CODEGEN--\":11952:12023   */\n      tag_599\n        /* \"--CODEGEN--\":12016:12022   */\n      dup2\n        /* \"--CODEGEN--\":12011:12014   */\n      dup6\n        /* \"--CODEGEN--\":11952:12023   */\n      jump(tag_600)\n    tag_599:\n        /* \"--CODEGEN--\":11945:12023   */\n      swap4\n      pop\n        /* \"--CODEGEN--\":12028:12080   */\n      tag_601\n        /* \"--CODEGEN--\":12073:12079   */\n      dup2\n        /* \"--CODEGEN--\":12068:12071   */\n      dup6\n        /* \"--CODEGEN--\":12061:12065   */\n      0x20\n        /* \"--CODEGEN--\":12054:12059   */\n      dup7\n        /* \"--CODEGEN--\":12050:12066   */\n      add\n        /* \"--CODEGEN--\":12028:12080   */\n      jump(tag_582)\n    tag_601:\n        /* \"--CODEGEN--\":12101:12130   */\n      tag_602\n        /* \"--CODEGEN--\":12123:12129   */\n      dup2\n        /* \"--CODEGEN--\":12101:12130   */\n      jump(tag_575)\n    tag_602:\n        /* \"--CODEGEN--\":12096:12099   */\n      dup5\n        /* \"--CODEGEN--\":12092:12131   */\n      add\n        /* \"--CODEGEN--\":12085:12131   */\n      swap2\n      pop\n        /* \"--CODEGEN--\":11881:12136   */\n      pop\n      swap3\n      swap2\n      pop\n      pop\n      jump\n        /* \"--CODEGEN--\":12144:12464   */\n    tag_603:\n      0x00\n        /* \"--CODEGEN--\":12304:12371   */\n      tag_605\n        /* \"--CODEGEN--\":12368:12370   */\n      0x14\n        /* \"--CODEGEN--\":12363:12366   */\n      dup4\n        /* \"--CODEGEN--\":12304:12371   */\n      jump(tag_600)\n    tag_605:\n        /* \"--CODEGEN--\":12297:12371   */\n      swap2\n      pop\n        /* \"--CODEGEN--\":12404:12426   */\n      0x5061757361626c653a206e6f7420706175736564000000000000000000000000\n        /* \"--CODEGEN--\":12400:12401   */\n      0x00\n        /* \"--CODEGEN--\":12395:12398   */\n      dup4\n        /* \"--CODEGEN--\":12391:12402   */\n      add\n        /* \"--CODEGEN--\":12384:12427   */\n      mstore\n        /* \"--CODEGEN--\":12455:12457   */\n      0x20\n        /* \"--CODEGEN--\":12450:12453   */\n      dup3\n        /* \"--CODEGEN--\":12446:12458   */\n      add\n        /* \"--CODEGEN--\":12439:12458   */\n      swap1\n      pop\n        /* \"--CODEGEN--\":12290:12464   */\n      swap2\n      swap1\n      pop\n      jump\n        /* \"--CODEGEN--\":12473:12795   */\n    tag_606:\n      0x00\n        /* \"--CODEGEN--\":12633:12700   */\n      tag_608\n        /* \"--CODEGEN--\":12697:12699   */\n      0x16\n        /* \"--CODEGEN--\":12692:12695   */\n      dup4\n        /* \"--CODEGEN--\":12633:12700   */\n      jump(tag_600)\n    tag_608:\n        /* \"--CODEGEN--\":12626:12700   */\n      swap2\n      pop\n        /* \"--CODEGEN--\":12733:12757   */\n      0x496e636f72726563742066656520737570706c69656400000000000000000000\n        /* \"--CODEGEN--\":12729:12730   */\n      0x00\n        /* \"--CODEGEN--\":12724:12727   */\n      dup4\n        /* \"--CODEGEN--\":12720:12731   */\n      add\n        /* \"--CODEGEN--\":12713:12758   */\n      mstore\n        /* \"--CODEGEN--\":12786:12788   */\n      0x20\n        /* \"--CODEGEN--\":12781:12784   */\n      dup3\n        /* \"--CODEGEN--\":12777:12789   */\n      add\n        /* \"--CODEGEN--\":12770:12789   */\n      swap1\n      pop\n        /* \"--CODEGEN--\":12619:12795   */\n      swap2\n      swap1\n      pop\n      jump\n        /* \"--CODEGEN--\":12804:13180   */\n    tag_609:\n      0x00\n        /* \"--CODEGEN--\":12964:13031   */\n      tag_611\n        /* \"--CODEGEN--\":13028:13030   */\n      0x27\n        /* \"--CODEGEN--\":13023:13026   */\n      dup4\n        /* \"--CODEGEN--\":12964:13031   */\n      jump(tag_600)\n    tag_611:\n        /* \"--CODEGEN--\":12957:13031   */\n      swap2\n      pop\n        /* \"--CODEGEN--\":13064:13098   */\n      0x7265736f7572636549445370656e646572206e6f74206d617070656420746f20\n        /* \"--CODEGEN--\":13060:13061   */\n      0x00\n        /* \"--CODEGEN--\":13055:13058   */\n      dup4\n        /* \"--CODEGEN--\":13051:13062   */\n      add\n        /* \"--CODEGEN--\":13044:13099   */\n      mstore\n        /* \"--CODEGEN--\":13133:13142   */\n      0x68616e646c657200000000000000000000000000000000000000000000000000\n        /* \"--CODEGEN--\":13128:13130   */\n      0x20\n        /* \"--CODEGEN--\":13123:13126   */\n      dup4\n        /* \"--CODEGEN--\":13119:13131   */\n      add\n        /* \"--CODEGEN--\":13112:13143   */\n      mstore\n        /* \"--CODEGEN--\":13171:13173   */\n      0x40\n        /* \"--CODEGEN--\":13166:13169   */\n      dup3\n        /* \"--CODEGEN--\":13162:13174   */\n      add\n        /* \"--CODEGEN--\":13155:13174   */\n      swap1\n      pop\n        /* \"--CODEGEN--\":12950:13180   */\n      swap2\n      swap1\n      pop\n      jump\n        /* \"--CODEGEN--\":13189:13520   */\n    tag_612:\n      0x00\n        /* \"--CODEGEN--\":13349:13416   */\n      tag_614\n        /* \"--CODEGEN--\":13413:13415   */\n      0x1f\n        /* \"--CODEGEN--\":13408:13411   */\n      dup4\n        /* \"--CODEGEN--\":13349:13416   */\n      jump(tag_600)\n    tag_614:\n        /* \"--CODEGEN--\":13342:13416   */\n      swap2\n      pop\n        /* \"--CODEGEN--\":13449:13482   */\n      0x73656e646572206973206e6f742061206261636b656e64207365727669636500\n        /* \"--CODEGEN--\":13445:13446   */\n      0x00\n        /* \"--CODEGEN--\":13440:13443   */\n      dup4\n        /* \"--CODEGEN--\":13436:13447   */\n      add\n        /* \"--CODEGEN--\":13429:13483   */\n      mstore\n        /* \"--CODEGEN--\":13511:13513   */\n      0x20\n        /* \"--CODEGEN--\":13506:13509   */\n      dup3\n        /* \"--CODEGEN--\":13502:13514   */\n      add\n        /* \"--CODEGEN--\":13495:13514   */\n      swap1\n      pop\n        /* \"--CODEGEN--\":13335:13520   */\n      swap2\n      swap1\n      pop\n      jump\n        /* \"--CODEGEN--\":13529:13861   */\n    tag_615:\n      0x00\n        /* \"--CODEGEN--\":13689:13756   */\n      tag_617\n        /* \"--CODEGEN--\":13753:13755   */\n      0x20\n        /* \"--CODEGEN--\":13748:13751   */\n      dup4\n        /* \"--CODEGEN--\":13689:13756   */\n      jump(tag_600)\n    tag_617:\n        /* \"--CODEGEN--\":13682:13756   */\n      swap2\n      pop\n        /* \"--CODEGEN--\":13789:13823   */\n      0x7265736f757263654944206e6f74206d617070656420746f2068616e646c6572\n        /* \"--CODEGEN--\":13785:13786   */\n      0x00\n        /* \"--CODEGEN--\":13780:13783   */\n      dup4\n        /* \"--CODEGEN--\":13776:13787   */\n      add\n        /* \"--CODEGEN--\":13769:13824   */\n      mstore\n        /* \"--CODEGEN--\":13852:13854   */\n      0x20\n        /* \"--CODEGEN--\":13847:13850   */\n      dup3\n        /* \"--CODEGEN--\":13843:13855   */\n      add\n        /* \"--CODEGEN--\":13836:13855   */\n      swap1\n      pop\n        /* \"--CODEGEN--\":13675:13861   */\n      swap2\n      swap1\n      pop\n      jump\n        /* \"--CODEGEN--\":13870:14193   */\n    tag_618:\n      0x00\n        /* \"--CODEGEN--\":14030:14097   */\n      tag_620\n        /* \"--CODEGEN--\":14094:14096   */\n      0x17\n        /* \"--CODEGEN--\":14089:14092   */\n      dup4\n        /* \"--CODEGEN--\":14030:14097   */\n      jump(tag_600)\n    tag_620:\n        /* \"--CODEGEN--\":14023:14097   */\n      swap2\n      pop\n        /* \"--CODEGEN--\":14130:14155   */\n      0x73656e646572206973206e6f7420612068616e646c6572000000000000000000\n        /* \"--CODEGEN--\":14126:14127   */\n      0x00\n        /* \"--CODEGEN--\":14121:14124   */\n      dup4\n        /* \"--CODEGEN--\":14117:14128   */\n      add\n        /* \"--CODEGEN--\":14110:14156   */\n      mstore\n        /* \"--CODEGEN--\":14184:14186   */\n      0x20\n        /* \"--CODEGEN--\":14179:14182   */\n      dup3\n        /* \"--CODEGEN--\":14175:14187   */\n      add\n        /* \"--CODEGEN--\":14168:14187   */\n      swap1\n      pop\n        /* \"--CODEGEN--\":14016:14193   */\n      swap2\n      swap1\n      pop\n      jump\n        /* \"--CODEGEN--\":14202:14518   */\n    tag_621:\n      0x00\n        /* \"--CODEGEN--\":14362:14429   */\n      tag_623\n        /* \"--CODEGEN--\":14426:14428   */\n      0x10\n        /* \"--CODEGEN--\":14421:14424   */\n      dup4\n        /* \"--CODEGEN--\":14362:14429   */\n      jump(tag_600)\n    tag_623:\n        /* \"--CODEGEN--\":14355:14429   */\n      swap2\n      pop\n        /* \"--CODEGEN--\":14462:14480   */\n      0x5061757361626c653a2070617573656400000000000000000000000000000000\n        /* \"--CODEGEN--\":14458:14459   */\n      0x00\n        /* \"--CODEGEN--\":14453:14456   */\n      dup4\n        /* \"--CODEGEN--\":14449:14460   */\n      add\n        /* \"--CODEGEN--\":14442:14481   */\n      mstore\n        /* \"--CODEGEN--\":14509:14511   */\n      0x20\n        /* \"--CODEGEN--\":14504:14507   */\n      dup3\n        /* \"--CODEGEN--\":14500:14512   */\n      add\n        /* \"--CODEGEN--\":14493:14512   */\n      swap1\n      pop\n        /* \"--CODEGEN--\":14348:14518   */\n      swap2\n      swap1\n      pop\n      jump\n        /* \"--CODEGEN--\":14527:14901   */\n    tag_624:\n      0x00\n        /* \"--CODEGEN--\":14687:14754   */\n      tag_626\n        /* \"--CODEGEN--\":14751:14753   */\n      0x25\n        /* \"--CODEGEN--\":14746:14749   */\n      dup4\n        /* \"--CODEGEN--\":14687:14754   */\n      jump(tag_600)\n    tag_626:\n        /* \"--CODEGEN--\":14680:14754   */\n      swap2\n      pop\n        /* \"--CODEGEN--\":14787:14821   */\n      0x7265736f7572636549444f776e6572206e6f74206d617070656420746f206861\n        /* \"--CODEGEN--\":14783:14784   */\n      0x00\n        /* \"--CODEGEN--\":14778:14781   */\n      dup4\n        /* \"--CODEGEN--\":14774:14785   */\n      add\n        /* \"--CODEGEN--\":14767:14822   */\n      mstore\n        /* \"--CODEGEN--\":14856:14863   */\n      0x6e646c6572000000000000000000000000000000000000000000000000000000\n        /* \"--CODEGEN--\":14851:14853   */\n      0x20\n        /* \"--CODEGEN--\":14846:14849   */\n      dup4\n        /* \"--CODEGEN--\":14842:14854   */\n      add\n        /* \"--CODEGEN--\":14835:14864   */\n      mstore\n        /* \"--CODEGEN--\":14892:14894   */\n      0x40\n        /* \"--CODEGEN--\":14887:14890   */\n      dup3\n        /* \"--CODEGEN--\":14883:14895   */\n      add\n        /* \"--CODEGEN--\":14876:14895   */\n      swap1\n      pop\n        /* \"--CODEGEN--\":14673:14901   */\n      swap2\n      swap1\n      pop\n      jump\n        /* \"--CODEGEN--\":14910:15239   */\n    tag_627:\n      0x00\n        /* \"--CODEGEN--\":15070:15137   */\n      tag_629\n        /* \"--CODEGEN--\":15134:15136   */\n      0x1d\n        /* \"--CODEGEN--\":15129:15132   */\n      dup4\n        /* \"--CODEGEN--\":15070:15137   */\n      jump(tag_600)\n    tag_629:\n        /* \"--CODEGEN--\":15063:15137   */\n      swap2\n      pop\n        /* \"--CODEGEN--\":15170:15201   */\n      0x496e636f7272656374206665652f616d6f756e7420737570706c696564000000\n        /* \"--CODEGEN--\":15166:15167   */\n      0x00\n        /* \"--CODEGEN--\":15161:15164   */\n      dup4\n        /* \"--CODEGEN--\":15157:15168   */\n      add\n        /* \"--CODEGEN--\":15150:15202   */\n      mstore\n        /* \"--CODEGEN--\":15230:15232   */\n      0x20\n        /* \"--CODEGEN--\":15225:15228   */\n      dup3\n        /* \"--CODEGEN--\":15221:15233   */\n      add\n        /* \"--CODEGEN--\":15214:15233   */\n      swap1\n      pop\n        /* \"--CODEGEN--\":15056:15239   */\n      swap2\n      swap1\n      pop\n      jump\n        /* \"--CODEGEN--\":15248:15570   */\n    tag_630:\n      0x00\n        /* \"--CODEGEN--\":15408:15475   */\n      tag_632\n        /* \"--CODEGEN--\":15472:15474   */\n      0x16\n        /* \"--CODEGEN--\":15467:15470   */\n      dup4\n        /* \"--CODEGEN--\":15408:15475   */\n      jump(tag_600)\n    tag_632:\n        /* \"--CODEGEN--\":15401:15475   */\n      swap2\n      pop\n        /* \"--CODEGEN--\":15508:15532   */\n      0x73656e6465722073686f756c64206265206f776e657200000000000000000000\n        /* \"--CODEGEN--\":15504:15505   */\n      0x00\n        /* \"--CODEGEN--\":15499:15502   */\n      dup4\n        /* \"--CODEGEN--\":15495:15506   */\n      add\n        /* \"--CODEGEN--\":15488:15533   */\n      mstore\n        /* \"--CODEGEN--\":15561:15563   */\n      0x20\n        /* \"--CODEGEN--\":15556:15559   */\n      dup3\n        /* \"--CODEGEN--\":15552:15564   */\n      add\n        /* \"--CODEGEN--\":15545:15564   */\n      swap1\n      pop\n        /* \"--CODEGEN--\":15394:15570   */\n      swap2\n      swap1\n      pop\n      jump\n        /* \"--CODEGEN--\":15579:15910   */\n    tag_633:\n      0x00\n        /* \"--CODEGEN--\":15739:15806   */\n      tag_635\n        /* \"--CODEGEN--\":15803:15805   */\n      0x1f\n        /* \"--CODEGEN--\":15798:15801   */\n      dup4\n        /* \"--CODEGEN--\":15739:15806   */\n      jump(tag_600)\n    tag_635:\n        /* \"--CODEGEN--\":15732:15806   */\n      swap2\n      pop\n        /* \"--CODEGEN--\":15839:15872   */\n      0x43757272656e742066656520697320657175616c20746f206e65772066656500\n        /* \"--CODEGEN--\":15835:15836   */\n      0x00\n        /* \"--CODEGEN--\":15830:15833   */\n      dup4\n        /* \"--CODEGEN--\":15826:15837   */\n      add\n        /* \"--CODEGEN--\":15819:15873   */\n      mstore\n        /* \"--CODEGEN--\":15901:15903   */\n      0x20\n        /* \"--CODEGEN--\":15896:15899   */\n      dup3\n        /* \"--CODEGEN--\":15892:15904   */\n      add\n        /* \"--CODEGEN--\":15885:15904   */\n      swap1\n      pop\n        /* \"--CODEGEN--\":15725:15910   */\n      swap2\n      swap1\n      pop\n      jump\n        /* \"--CODEGEN--\":15919:16236   */\n    tag_636:\n      0x00\n        /* \"--CODEGEN--\":16079:16146   */\n      tag_638\n        /* \"--CODEGEN--\":16143:16145   */\n      0x11\n        /* \"--CODEGEN--\":16138:16141   */\n      dup4\n        /* \"--CODEGEN--\":16079:16146   */\n      jump(tag_600)\n    tag_638:\n        /* \"--CODEGEN--\":16072:16146   */\n      swap2\n      pop\n        /* \"--CODEGEN--\":16179:16198   */\n      0x436861696e494420496e636f7272656374000000000000000000000000000000\n        /* \"--CODEGEN--\":16175:16176   */\n      0x00\n        /* \"--CODEGEN--\":16170:16173   */\n      dup4\n        /* \"--CODEGEN--\":16166:16177   */\n      add\n        /* \"--CODEGEN--\":16159:16199   */\n      mstore\n        /* \"--CODEGEN--\":16227:16229   */\n      0x20\n        /* \"--CODEGEN--\":16222:16225   */\n      dup3\n        /* \"--CODEGEN--\":16218:16230   */\n      add\n        /* \"--CODEGEN--\":16211:16230   */\n      swap1\n      pop\n        /* \"--CODEGEN--\":16065:16236   */\n      swap2\n      swap1\n      pop\n      jump\n        /* \"--CODEGEN--\":16245:16570   */\n    tag_639:\n      0x00\n        /* \"--CODEGEN--\":16405:16472   */\n      tag_641\n        /* \"--CODEGEN--\":16469:16471   */\n      0x19\n        /* \"--CODEGEN--\":16464:16467   */\n      dup4\n        /* \"--CODEGEN--\":16405:16472   */\n      jump(tag_600)\n    tag_641:\n        /* \"--CODEGEN--\":16398:16472   */\n      swap2\n      pop\n        /* \"--CODEGEN--\":16505:16532   */\n      0x70726f706f73616c20616c726561647920657865637574656400000000000000\n        /* \"--CODEGEN--\":16501:16502   */\n      0x00\n        /* \"--CODEGEN--\":16496:16499   */\n      dup4\n        /* \"--CODEGEN--\":16492:16503   */\n      add\n        /* \"--CODEGEN--\":16485:16533   */\n      mstore\n        /* \"--CODEGEN--\":16561:16563   */\n      0x20\n        /* \"--CODEGEN--\":16556:16559   */\n      dup3\n        /* \"--CODEGEN--\":16552:16564   */\n      add\n        /* \"--CODEGEN--\":16545:16564   */\n      swap1\n      pop\n        /* \"--CODEGEN--\":16391:16570   */\n      swap2\n      swap1\n      pop\n      jump\n        /* \"--CODEGEN--\":16578:16691   */\n    tag_642:\n        /* \"--CODEGEN--\":16661:16685   */\n      tag_644\n        /* \"--CODEGEN--\":16679:16684   */\n      dup2\n        /* \"--CODEGEN--\":16661:16685   */\n      jump(tag_645)\n    tag_644:\n        /* \"--CODEGEN--\":16656:16659   */\n      dup3\n        /* \"--CODEGEN--\":16649:16686   */\n      mstore\n        /* \"--CODEGEN--\":16643:16691   */\n      pop\n      pop\n      jump\n        /* \"--CODEGEN--\":16698:16808   */\n    tag_646:\n        /* \"--CODEGEN--\":16779:16802   */\n      tag_648\n        /* \"--CODEGEN--\":16796:16801   */\n      dup2\n        /* \"--CODEGEN--\":16779:16802   */\n      jump(tag_649)\n    tag_648:\n        /* \"--CODEGEN--\":16774:16777   */\n      dup3\n        /* \"--CODEGEN--\":16767:16803   */\n      mstore\n        /* \"--CODEGEN--\":16761:16808   */\n      pop\n      pop\n      jump\n        /* \"--CODEGEN--\":16815:17028   */\n    tag_90:\n      0x00\n        /* \"--CODEGEN--\":16933:16935   */\n      0x20\n        /* \"--CODEGEN--\":16922:16931   */\n      dup3\n        /* \"--CODEGEN--\":16918:16936   */\n      add\n        /* \"--CODEGEN--\":16910:16936   */\n      swap1\n      pop\n        /* \"--CODEGEN--\":16947:17018   */\n      tag_651\n        /* \"--CODEGEN--\":17015:17016   */\n      0x00\n        /* \"--CODEGEN--\":17004:17013   */\n      dup4\n        /* \"--CODEGEN--\":17000:17017   */\n      add\n        /* \"--CODEGEN--\":16991:16997   */\n      dup5\n        /* \"--CODEGEN--\":16947:17018   */\n      jump(tag_552)\n    tag_651:\n        /* \"--CODEGEN--\":16904:17028   */\n      swap3\n      swap2\n      pop\n      pop\n      jump\n        /* \"--CODEGEN--\":17035:17264   */\n    tag_395:\n      0x00\n        /* \"--CODEGEN--\":17161:17163   */\n      0x20\n        /* \"--CODEGEN--\":17150:17159   */\n      dup3\n        /* \"--CODEGEN--\":17146:17164   */\n      add\n        /* \"--CODEGEN--\":17138:17164   */\n      swap1\n      pop\n        /* \"--CODEGEN--\":17175:17254   */\n      tag_653\n        /* \"--CODEGEN--\":17251:17252   */\n      0x00\n        /* \"--CODEGEN--\":17240:17249   */\n      dup4\n        /* \"--CODEGEN--\":17236:17253   */\n      add\n        /* \"--CODEGEN--\":17227:17233   */\n      dup5\n        /* \"--CODEGEN--\":17175:17254   */\n      jump(tag_544)\n    tag_653:\n        /* \"--CODEGEN--\":17132:17264   */\n      swap3\n      swap2\n      pop\n      pop\n      jump\n        /* \"--CODEGEN--\":17271:17706   */\n    tag_222:\n      0x00\n        /* \"--CODEGEN--\":17445:17447   */\n      0x60\n        /* \"--CODEGEN--\":17434:17443   */\n      dup3\n        /* \"--CODEGEN--\":17430:17448   */\n      add\n        /* \"--CODEGEN--\":17422:17448   */\n      swap1\n      pop\n        /* \"--CODEGEN--\":17459:17530   */\n      tag_655\n        /* \"--CODEGEN--\":17527:17528   */\n      0x00\n        /* \"--CODEGEN--\":17516:17525   */\n      dup4\n        /* \"--CODEGEN--\":17512:17529   */\n      add\n        /* \"--CODEGEN--\":17503:17509   */\n      dup7\n        /* \"--CODEGEN--\":17459:17530   */\n      jump(tag_552)\n    tag_655:\n        /* \"--CODEGEN--\":17541:17613   */\n      tag_656\n        /* \"--CODEGEN--\":17609:17611   */\n      0x20\n        /* \"--CODEGEN--\":17598:17607   */\n      dup4\n        /* \"--CODEGEN--\":17594:17612   */\n      add\n        /* \"--CODEGEN--\":17585:17591   */\n      dup6\n        /* \"--CODEGEN--\":17541:17613   */\n      jump(tag_552)\n    tag_656:\n        /* \"--CODEGEN--\":17624:17696   */\n      tag_657\n        /* \"--CODEGEN--\":17692:17694   */\n      0x40\n        /* \"--CODEGEN--\":17681:17690   */\n      dup4\n        /* \"--CODEGEN--\":17677:17695   */\n      add\n        /* \"--CODEGEN--\":17668:17674   */\n      dup5\n        /* \"--CODEGEN--\":17624:17696   */\n      jump(tag_642)\n    tag_657:\n        /* \"--CODEGEN--\":17416:17706   */\n      swap5\n      swap4\n      pop\n      pop\n      pop\n      pop\n      jump\n        /* \"--CODEGEN--\":17713:17914   */\n    tag_58:\n      0x00\n        /* \"--CODEGEN--\":17825:17827   */\n      0x20\n        /* \"--CODEGEN--\":17814:17823   */\n      dup3\n        /* \"--CODEGEN--\":17810:17828   */\n      add\n        /* \"--CODEGEN--\":17802:17828   */\n      swap1\n      pop\n        /* \"--CODEGEN--\":17839:17904   */\n      tag_659\n        /* \"--CODEGEN--\":17901:17902   */\n      0x00\n        /* \"--CODEGEN--\":17890:17899   */\n      dup4\n        /* \"--CODEGEN--\":17886:17903   */\n      add\n        /* \"--CODEGEN--\":17877:17883   */\n      dup5\n        /* \"--CODEGEN--\":17839:17904   */\n      jump(tag_556)\n    tag_659:\n        /* \"--CODEGEN--\":17796:17914   */\n      swap3\n      swap2\n      pop\n      pop\n      jump\n        /* \"--CODEGEN--\":17921:18134   */\n    tag_133:\n      0x00\n        /* \"--CODEGEN--\":18039:18041   */\n      0x20\n        /* \"--CODEGEN--\":18028:18037   */\n      dup3\n        /* \"--CODEGEN--\":18024:18042   */\n      add\n        /* \"--CODEGEN--\":18016:18042   */\n      swap1\n      pop\n        /* \"--CODEGEN--\":18053:18124   */\n      tag_661\n        /* \"--CODEGEN--\":18121:18122   */\n      0x00\n        /* \"--CODEGEN--\":18110:18119   */\n      dup4\n        /* \"--CODEGEN--\":18106:18123   */\n      add\n        /* \"--CODEGEN--\":18097:18103   */\n      dup5\n        /* \"--CODEGEN--\":18053:18124   */\n      jump(tag_560)\n    tag_661:\n        /* \"--CODEGEN--\":18010:18134   */\n      swap3\n      swap2\n      pop\n      pop\n      jump\n        /* \"--CODEGEN--\":18141:18465   */\n    tag_309:\n      0x00\n        /* \"--CODEGEN--\":18287:18289   */\n      0x40\n        /* \"--CODEGEN--\":18276:18285   */\n      dup3\n        /* \"--CODEGEN--\":18272:18290   */\n      add\n        /* \"--CODEGEN--\":18264:18290   */\n      swap1\n      pop\n        /* \"--CODEGEN--\":18301:18372   */\n      tag_663\n        /* \"--CODEGEN--\":18369:18370   */\n      0x00\n        /* \"--CODEGEN--\":18358:18367   */\n      dup4\n        /* \"--CODEGEN--\":18354:18371   */\n      add\n        /* \"--CODEGEN--\":18345:18351   */\n      dup6\n        /* \"--CODEGEN--\":18301:18372   */\n      jump(tag_560)\n    tag_663:\n        /* \"--CODEGEN--\":18383:18455   */\n      tag_664\n        /* \"--CODEGEN--\":18451:18453   */\n      0x20\n        /* \"--CODEGEN--\":18440:18449   */\n      dup4\n        /* \"--CODEGEN--\":18436:18454   */\n      add\n        /* \"--CODEGEN--\":18427:18433   */\n      dup5\n        /* \"--CODEGEN--\":18383:18455   */\n      jump(tag_552)\n    tag_664:\n        /* \"--CODEGEN--\":18258:18465   */\n      swap4\n      swap3\n      pop\n      pop\n      pop\n      jump\n        /* \"--CODEGEN--\":18472:19139   */\n    tag_270:\n      0x00\n        /* \"--CODEGEN--\":18710:18713   */\n      0x80\n        /* \"--CODEGEN--\":18699:18708   */\n      dup3\n        /* \"--CODEGEN--\":18695:18714   */\n      add\n        /* \"--CODEGEN--\":18687:18714   */\n      swap1\n      pop\n        /* \"--CODEGEN--\":18725:18796   */\n      tag_666\n        /* \"--CODEGEN--\":18793:18794   */\n      0x00\n        /* \"--CODEGEN--\":18782:18791   */\n      dup4\n        /* \"--CODEGEN--\":18778:18795   */\n      add\n        /* \"--CODEGEN--\":18769:18775   */\n      dup9\n        /* \"--CODEGEN--\":18725:18796   */\n      jump(tag_560)\n    tag_666:\n        /* \"--CODEGEN--\":18807:18887   */\n      tag_667\n        /* \"--CODEGEN--\":18883:18885   */\n      0x20\n        /* \"--CODEGEN--\":18872:18881   */\n      dup4\n        /* \"--CODEGEN--\":18868:18886   */\n      add\n        /* \"--CODEGEN--\":18859:18865   */\n      dup8\n        /* \"--CODEGEN--\":18807:18887   */\n      jump(tag_544)\n    tag_667:\n        /* \"--CODEGEN--\":18898:18970   */\n      tag_668\n        /* \"--CODEGEN--\":18966:18968   */\n      0x40\n        /* \"--CODEGEN--\":18955:18964   */\n      dup4\n        /* \"--CODEGEN--\":18951:18969   */\n      add\n        /* \"--CODEGEN--\":18942:18948   */\n      dup7\n        /* \"--CODEGEN--\":18898:18970   */\n      jump(tag_642)\n    tag_668:\n        /* \"--CODEGEN--\":19018:19027   */\n      dup2\n        /* \"--CODEGEN--\":19012:19016   */\n      dup2\n        /* \"--CODEGEN--\":19008:19028   */\n      sub\n        /* \"--CODEGEN--\":19003:19005   */\n      0x60\n        /* \"--CODEGEN--\":18992:19001   */\n      dup4\n        /* \"--CODEGEN--\":18988:19006   */\n      add\n        /* \"--CODEGEN--\":18981:19029   */\n      mstore\n        /* \"--CODEGEN--\":19043:19129   */\n      tag_669\n        /* \"--CODEGEN--\":19124:19128   */\n      dup2\n        /* \"--CODEGEN--\":19115:19121   */\n      dup5\n        /* \"--CODEGEN--\":19107:19113   */\n      dup7\n        /* \"--CODEGEN--\":19043:19129   */\n      jump(tag_568)\n    tag_669:\n        /* \"--CODEGEN--\":19035:19129   */\n      swap1\n      pop\n        /* \"--CODEGEN--\":18681:19139   */\n      swap7\n      swap6\n      pop\n      pop\n      pop\n      pop\n      pop\n      pop\n      jump\n        /* \"--CODEGEN--\":19146:19581   */\n    tag_326:\n      0x00\n        /* \"--CODEGEN--\":19320:19322   */\n      0x60\n        /* \"--CODEGEN--\":19309:19318   */\n      dup3\n        /* \"--CODEGEN--\":19305:19323   */\n      add\n        /* \"--CODEGEN--\":19297:19323   */\n      swap1\n      pop\n        /* \"--CODEGEN--\":19334:19405   */\n      tag_671\n        /* \"--CODEGEN--\":19402:19403   */\n      0x00\n        /* \"--CODEGEN--\":19391:19400   */\n      dup4\n        /* \"--CODEGEN--\":19387:19404   */\n      add\n        /* \"--CODEGEN--\":19378:19384   */\n      dup7\n        /* \"--CODEGEN--\":19334:19405   */\n      jump(tag_560)\n    tag_671:\n        /* \"--CODEGEN--\":19416:19488   */\n      tag_672\n        /* \"--CODEGEN--\":19484:19486   */\n      0x20\n        /* \"--CODEGEN--\":19473:19482   */\n      dup4\n        /* \"--CODEGEN--\":19469:19487   */\n      add\n        /* \"--CODEGEN--\":19460:19466   */\n      dup6\n        /* \"--CODEGEN--\":19416:19488   */\n      jump(tag_552)\n    tag_672:\n        /* \"--CODEGEN--\":19499:19571   */\n      tag_673\n        /* \"--CODEGEN--\":19567:19569   */\n      0x40\n        /* \"--CODEGEN--\":19556:19565   */\n      dup4\n        /* \"--CODEGEN--\":19552:19570   */\n      add\n        /* \"--CODEGEN--\":19543:19549   */\n      dup5\n        /* \"--CODEGEN--\":19499:19571   */\n      jump(tag_642)\n    tag_673:\n        /* \"--CODEGEN--\":19291:19581   */\n      swap5\n      swap4\n      pop\n      pop\n      pop\n      pop\n      jump\n        /* \"--CODEGEN--\":19588:20583   */\n    tag_360:\n      0x00\n        /* \"--CODEGEN--\":19906:19909   */\n      0xe0\n        /* \"--CODEGEN--\":19895:19904   */\n      dup3\n        /* \"--CODEGEN--\":19891:19910   */\n      add\n        /* \"--CODEGEN--\":19883:19910   */\n      swap1\n      pop\n        /* \"--CODEGEN--\":19921:19992   */\n      tag_675\n        /* \"--CODEGEN--\":19989:19990   */\n      0x00\n        /* \"--CODEGEN--\":19978:19987   */\n      dup4\n        /* \"--CODEGEN--\":19974:19991   */\n      add\n        /* \"--CODEGEN--\":19965:19971   */\n      dup12\n        /* \"--CODEGEN--\":19921:19992   */\n      jump(tag_560)\n    tag_675:\n        /* \"--CODEGEN--\":20003:20073   */\n      tag_676\n        /* \"--CODEGEN--\":20069:20071   */\n      0x20\n        /* \"--CODEGEN--\":20058:20067   */\n      dup4\n        /* \"--CODEGEN--\":20054:20072   */\n      add\n        /* \"--CODEGEN--\":20045:20051   */\n      dup11\n        /* \"--CODEGEN--\":20003:20073   */\n      jump(tag_564)\n    tag_676:\n        /* \"--CODEGEN--\":20084:20154   */\n      tag_677\n        /* \"--CODEGEN--\":20150:20152   */\n      0x40\n        /* \"--CODEGEN--\":20139:20148   */\n      dup4\n        /* \"--CODEGEN--\":20135:20153   */\n      add\n        /* \"--CODEGEN--\":20126:20132   */\n      dup10\n        /* \"--CODEGEN--\":20084:20154   */\n      jump(tag_646)\n    tag_677:\n        /* \"--CODEGEN--\":20165:20245   */\n      tag_678\n        /* \"--CODEGEN--\":20241:20243   */\n      0x60\n        /* \"--CODEGEN--\":20230:20239   */\n      dup4\n        /* \"--CODEGEN--\":20226:20244   */\n      add\n        /* \"--CODEGEN--\":20217:20223   */\n      dup9\n        /* \"--CODEGEN--\":20165:20245   */\n      jump(tag_544)\n    tag_678:\n        /* \"--CODEGEN--\":20256:20329   */\n      tag_679\n        /* \"--CODEGEN--\":20324:20327   */\n      0x80\n        /* \"--CODEGEN--\":20313:20322   */\n      dup4\n        /* \"--CODEGEN--\":20309:20328   */\n      add\n        /* \"--CODEGEN--\":20300:20306   */\n      dup8\n        /* \"--CODEGEN--\":20256:20329   */\n      jump(tag_552)\n    tag_679:\n        /* \"--CODEGEN--\":20340:20413   */\n      tag_680\n        /* \"--CODEGEN--\":20408:20411   */\n      0xa0\n        /* \"--CODEGEN--\":20397:20406   */\n      dup4\n        /* \"--CODEGEN--\":20393:20412   */\n      add\n        /* \"--CODEGEN--\":20384:20390   */\n      dup7\n        /* \"--CODEGEN--\":20340:20413   */\n      jump(tag_642)\n    tag_680:\n        /* \"--CODEGEN--\":20462:20471   */\n      dup2\n        /* \"--CODEGEN--\":20456:20460   */\n      dup2\n        /* \"--CODEGEN--\":20452:20472   */\n      sub\n        /* \"--CODEGEN--\":20446:20449   */\n      0xc0\n        /* \"--CODEGEN--\":20435:20444   */\n      dup4\n        /* \"--CODEGEN--\":20431:20450   */\n      add\n        /* \"--CODEGEN--\":20424:20473   */\n      mstore\n        /* \"--CODEGEN--\":20487:20573   */\n      tag_681\n        /* \"--CODEGEN--\":20568:20572   */\n      dup2\n        /* \"--CODEGEN--\":20559:20565   */\n      dup5\n        /* \"--CODEGEN--\":20551:20557   */\n      dup7\n        /* \"--CODEGEN--\":20487:20573   */\n      jump(tag_568)\n    tag_681:\n        /* \"--CODEGEN--\":20479:20573   */\n      swap1\n      pop\n        /* \"--CODEGEN--\":19877:20583   */\n      swap10\n      swap9\n      pop\n      pop\n      pop\n      pop\n      pop\n      pop\n      pop\n      pop\n      pop\n      jump\n        /* \"--CODEGEN--\":20590:20998   */\n    tag_255:\n      0x00\n        /* \"--CODEGEN--\":20754:20756   */\n      0x40\n        /* \"--CODEGEN--\":20743:20752   */\n      dup3\n        /* \"--CODEGEN--\":20739:20757   */\n      add\n        /* \"--CODEGEN--\":20731:20757   */\n      swap1\n      pop\n        /* \"--CODEGEN--\":20768:20839   */\n      tag_683\n        /* \"--CODEGEN--\":20836:20837   */\n      0x00\n        /* \"--CODEGEN--\":20825:20834   */\n      dup4\n        /* \"--CODEGEN--\":20821:20838   */\n      add\n        /* \"--CODEGEN--\":20812:20818   */\n      dup6\n        /* \"--CODEGEN--\":20768:20839   */\n      jump(tag_560)\n    tag_683:\n        /* \"--CODEGEN--\":20887:20896   */\n      dup2\n        /* \"--CODEGEN--\":20881:20885   */\n      dup2\n        /* \"--CODEGEN--\":20877:20897   */\n      sub\n        /* \"--CODEGEN--\":20872:20874   */\n      0x20\n        /* \"--CODEGEN--\":20861:20870   */\n      dup4\n        /* \"--CODEGEN--\":20857:20875   */\n      add\n        /* \"--CODEGEN--\":20850:20898   */\n      mstore\n        /* \"--CODEGEN--\":20912:20988   */\n      tag_684\n        /* \"--CODEGEN--\":20983:20987   */\n      dup2\n        /* \"--CODEGEN--\":20974:20980   */\n      dup5\n        /* \"--CODEGEN--\":20912:20988   */\n      jump(tag_576)\n    tag_684:\n        /* \"--CODEGEN--\":20904:20988   */\n      swap1\n      pop\n        /* \"--CODEGEN--\":20725:20998   */\n      swap4\n      swap3\n      pop\n      pop\n      pop\n      jump\n        /* \"--CODEGEN--\":21005:21214   */\n    tag_157:\n      0x00\n        /* \"--CODEGEN--\":21121:21123   */\n      0x20\n        /* \"--CODEGEN--\":21110:21119   */\n      dup3\n        /* \"--CODEGEN--\":21106:21124   */\n      add\n        /* \"--CODEGEN--\":21098:21124   */\n      swap1\n      pop\n        /* \"--CODEGEN--\":21135:21204   */\n      tag_686\n        /* \"--CODEGEN--\":21201:21202   */\n      0x00\n        /* \"--CODEGEN--\":21190:21199   */\n      dup4\n        /* \"--CODEGEN--\":21186:21203   */\n      add\n        /* \"--CODEGEN--\":21177:21183   */\n      dup5\n        /* \"--CODEGEN--\":21135:21204   */\n      jump(tag_564)\n    tag_686:\n        /* \"--CODEGEN--\":21092:21214   */\n      swap3\n      swap2\n      pop\n      pop\n      jump\n        /* \"--CODEGEN--\":21221:22004   */\n    tag_296:\n      0x00\n        /* \"--CODEGEN--\":21485:21488   */\n      0xc0\n        /* \"--CODEGEN--\":21474:21483   */\n      dup3\n        /* \"--CODEGEN--\":21470:21489   */\n      add\n        /* \"--CODEGEN--\":21462:21489   */\n      swap1\n      pop\n        /* \"--CODEGEN--\":21500:21569   */\n      tag_688\n        /* \"--CODEGEN--\":21566:21567   */\n      0x00\n        /* \"--CODEGEN--\":21555:21564   */\n      dup4\n        /* \"--CODEGEN--\":21551:21568   */\n      add\n        /* \"--CODEGEN--\":21542:21548   */\n      dup10\n        /* \"--CODEGEN--\":21500:21569   */\n      jump(tag_564)\n    tag_688:\n        /* \"--CODEGEN--\":21580:21660   */\n      tag_689\n        /* \"--CODEGEN--\":21656:21658   */\n      0x20\n        /* \"--CODEGEN--\":21645:21654   */\n      dup4\n        /* \"--CODEGEN--\":21641:21659   */\n      add\n        /* \"--CODEGEN--\":21632:21638   */\n      dup9\n        /* \"--CODEGEN--\":21580:21660   */\n      jump(tag_544)\n    tag_689:\n        /* \"--CODEGEN--\":21671:21743   */\n      tag_690\n        /* \"--CODEGEN--\":21739:21741   */\n      0x40\n        /* \"--CODEGEN--\":21728:21737   */\n      dup4\n        /* \"--CODEGEN--\":21724:21742   */\n      add\n        /* \"--CODEGEN--\":21715:21721   */\n      dup8\n        /* \"--CODEGEN--\":21671:21743   */\n      jump(tag_552)\n    tag_690:\n        /* \"--CODEGEN--\":21754:21826   */\n      tag_691\n        /* \"--CODEGEN--\":21822:21824   */\n      0x60\n        /* \"--CODEGEN--\":21811:21820   */\n      dup4\n        /* \"--CODEGEN--\":21807:21825   */\n      add\n        /* \"--CODEGEN--\":21798:21804   */\n      dup7\n        /* \"--CODEGEN--\":21754:21826   */\n      jump(tag_552)\n    tag_691:\n        /* \"--CODEGEN--\":21837:21910   */\n      tag_692\n        /* \"--CODEGEN--\":21905:21908   */\n      0x80\n        /* \"--CODEGEN--\":21894:21903   */\n      dup4\n        /* \"--CODEGEN--\":21890:21909   */\n      add\n        /* \"--CODEGEN--\":21881:21887   */\n      dup6\n        /* \"--CODEGEN--\":21837:21910   */\n      jump(tag_642)\n    tag_692:\n        /* \"--CODEGEN--\":21921:21994   */\n      tag_693\n        /* \"--CODEGEN--\":21989:21992   */\n      0xa0\n        /* \"--CODEGEN--\":21978:21987   */\n      dup4\n        /* \"--CODEGEN--\":21974:21993   */\n      add\n        /* \"--CODEGEN--\":21965:21971   */\n      dup5\n        /* \"--CODEGEN--\":21921:21994   */\n      jump(tag_560)\n    tag_693:\n        /* \"--CODEGEN--\":21456:22004   */\n      swap8\n      swap7\n      pop\n      pop\n      pop\n      pop\n      pop\n      pop\n      pop\n      jump\n        /* \"--CODEGEN--\":22011:22770   */\n    tag_367:\n      0x00\n        /* \"--CODEGEN--\":22263:22266   */\n      0xc0\n        /* \"--CODEGEN--\":22252:22261   */\n      dup3\n        /* \"--CODEGEN--\":22248:22267   */\n      add\n        /* \"--CODEGEN--\":22240:22267   */\n      swap1\n      pop\n        /* \"--CODEGEN--\":22278:22347   */\n      tag_695\n        /* \"--CODEGEN--\":22344:22345   */\n      0x00\n        /* \"--CODEGEN--\":22333:22342   */\n      dup4\n        /* \"--CODEGEN--\":22329:22346   */\n      add\n        /* \"--CODEGEN--\":22320:22326   */\n      dup10\n        /* \"--CODEGEN--\":22278:22347   */\n      jump(tag_564)\n    tag_695:\n        /* \"--CODEGEN--\":22358:22428   */\n      tag_696\n        /* \"--CODEGEN--\":22424:22426   */\n      0x20\n        /* \"--CODEGEN--\":22413:22422   */\n      dup4\n        /* \"--CODEGEN--\":22409:22427   */\n      add\n        /* \"--CODEGEN--\":22400:22406   */\n      dup9\n        /* \"--CODEGEN--\":22358:22428   */\n      jump(tag_564)\n    tag_696:\n        /* \"--CODEGEN--\":22439:22509   */\n      tag_697\n        /* \"--CODEGEN--\":22505:22507   */\n      0x40\n        /* \"--CODEGEN--\":22494:22503   */\n      dup4\n        /* \"--CODEGEN--\":22490:22508   */\n      add\n        /* \"--CODEGEN--\":22481:22487   */\n      dup8\n        /* \"--CODEGEN--\":22439:22509   */\n      jump(tag_646)\n    tag_697:\n        /* \"--CODEGEN--\":22520:22592   */\n      tag_698\n        /* \"--CODEGEN--\":22588:22590   */\n      0x60\n        /* \"--CODEGEN--\":22577:22586   */\n      dup4\n        /* \"--CODEGEN--\":22573:22591   */\n      add\n        /* \"--CODEGEN--\":22564:22570   */\n      dup7\n        /* \"--CODEGEN--\":22520:22592   */\n      jump(tag_560)\n    tag_698:\n        /* \"--CODEGEN--\":22603:22676   */\n      tag_699\n        /* \"--CODEGEN--\":22671:22674   */\n      0x80\n        /* \"--CODEGEN--\":22660:22669   */\n      dup4\n        /* \"--CODEGEN--\":22656:22675   */\n      add\n        /* \"--CODEGEN--\":22647:22653   */\n      dup6\n        /* \"--CODEGEN--\":22603:22676   */\n      jump(tag_552)\n    tag_699:\n        /* \"--CODEGEN--\":22687:22760   */\n      tag_700\n        /* \"--CODEGEN--\":22755:22758   */\n      0xa0\n        /* \"--CODEGEN--\":22744:22753   */\n      dup4\n        /* \"--CODEGEN--\":22740:22759   */\n      add\n        /* \"--CODEGEN--\":22731:22737   */\n      dup5\n        /* \"--CODEGEN--\":22687:22760   */\n      jump(tag_642)\n    tag_700:\n        /* \"--CODEGEN--\":22234:22770   */\n      swap8\n      swap7\n      pop\n      pop\n      pop\n      pop\n      pop\n      pop\n      pop\n      jump\n        /* \"--CODEGEN--\":22777:23066   */\n    tag_140:\n      0x00\n        /* \"--CODEGEN--\":22909:22911   */\n      0x20\n        /* \"--CODEGEN--\":22898:22907   */\n      dup3\n        /* \"--CODEGEN--\":22894:22912   */\n      add\n        /* \"--CODEGEN--\":22886:22912   */\n      swap1\n      pop\n        /* \"--CODEGEN--\":22959:22968   */\n      dup2\n        /* \"--CODEGEN--\":22953:22957   */\n      dup2\n        /* \"--CODEGEN--\":22949:22969   */\n      sub\n        /* \"--CODEGEN--\":22945:22946   */\n      0x00\n        /* \"--CODEGEN--\":22934:22943   */\n      dup4\n        /* \"--CODEGEN--\":22930:22947   */\n      add\n        /* \"--CODEGEN--\":22923:22970   */\n      mstore\n        /* \"--CODEGEN--\":22984:23056   */\n      tag_702\n        /* \"--CODEGEN--\":23051:23055   */\n      dup2\n        /* \"--CODEGEN--\":23042:23048   */\n      dup5\n        /* \"--CODEGEN--\":22984:23056   */\n      jump(tag_584)\n    tag_702:\n        /* \"--CODEGEN--\":22976:23056   */\n      swap1\n      pop\n        /* \"--CODEGEN--\":22880:23066   */\n      swap3\n      swap2\n      pop\n      pop\n      jump\n        /* \"--CODEGEN--\":23073:23374   */\n    tag_403:\n      0x00\n        /* \"--CODEGEN--\":23211:23213   */\n      0x20\n        /* \"--CODEGEN--\":23200:23209   */\n      dup3\n        /* \"--CODEGEN--\":23196:23214   */\n      add\n        /* \"--CODEGEN--\":23188:23214   */\n      swap1\n      pop\n        /* \"--CODEGEN--\":23261:23270   */\n      dup2\n        /* \"--CODEGEN--\":23255:23259   */\n      dup2\n        /* \"--CODEGEN--\":23251:23271   */\n      sub\n        /* \"--CODEGEN--\":23247:23248   */\n      0x00\n        /* \"--CODEGEN--\":23236:23245   */\n      dup4\n        /* \"--CODEGEN--\":23232:23249   */\n      add\n        /* \"--CODEGEN--\":23225:23272   */\n      mstore\n        /* \"--CODEGEN--\":23286:23364   */\n      tag_704\n        /* \"--CODEGEN--\":23359:23363   */\n      dup2\n        /* \"--CODEGEN--\":23350:23356   */\n      dup5\n        /* \"--CODEGEN--\":23286:23364   */\n      jump(tag_595)\n    tag_704:\n        /* \"--CODEGEN--\":23278:23364   */\n      swap1\n      pop\n        /* \"--CODEGEN--\":23182:23374   */\n      swap3\n      swap2\n      pop\n      pop\n      jump\n        /* \"--CODEGEN--\":23381:23788   */\n    tag_412:\n      0x00\n        /* \"--CODEGEN--\":23572:23574   */\n      0x20\n        /* \"--CODEGEN--\":23561:23570   */\n      dup3\n        /* \"--CODEGEN--\":23557:23575   */\n      add\n        /* \"--CODEGEN--\":23549:23575   */\n      swap1\n      pop\n        /* \"--CODEGEN--\":23622:23631   */\n      dup2\n        /* \"--CODEGEN--\":23616:23620   */\n      dup2\n        /* \"--CODEGEN--\":23612:23632   */\n      sub\n        /* \"--CODEGEN--\":23608:23609   */\n      0x00\n        /* \"--CODEGEN--\":23597:23606   */\n      dup4\n        /* \"--CODEGEN--\":23593:23610   */\n      add\n        /* \"--CODEGEN--\":23586:23633   */\n      mstore\n        /* \"--CODEGEN--\":23647:23778   */\n      tag_706\n        /* \"--CODEGEN--\":23773:23777   */\n      dup2\n        /* \"--CODEGEN--\":23647:23778   */\n      jump(tag_603)\n    tag_706:\n        /* \"--CODEGEN--\":23639:23778   */\n      swap1\n      pop\n        /* \"--CODEGEN--\":23543:23788   */\n      swap2\n      swap1\n      pop\n      jump\n        /* \"--CODEGEN--\":23795:24202   */\n    tag_356:\n      0x00\n        /* \"--CODEGEN--\":23986:23988   */\n      0x20\n        /* \"--CODEGEN--\":23975:23984   */\n      dup3\n        /* \"--CODEGEN--\":23971:23989   */\n      add\n        /* \"--CODEGEN--\":23963:23989   */\n      swap1\n      pop\n        /* \"--CODEGEN--\":24036:24045   */\n      dup2\n        /* \"--CODEGEN--\":24030:24034   */\n      dup2\n        /* \"--CODEGEN--\":24026:24046   */\n      sub\n        /* \"--CODEGEN--\":24022:24023   */\n      0x00\n        /* \"--CODEGEN--\":24011:24020   */\n      dup4\n        /* \"--CODEGEN--\":24007:24024   */\n      add\n        /* \"--CODEGEN--\":24000:24047   */\n      mstore\n        /* \"--CODEGEN--\":24061:24192   */\n      tag_708\n        /* \"--CODEGEN--\":24187:24191   */\n      dup2\n        /* \"--CODEGEN--\":24061:24192   */\n      jump(tag_606)\n    tag_708:\n        /* \"--CODEGEN--\":24053:24192   */\n      swap1\n      pop\n        /* \"--CODEGEN--\":23957:24202   */\n      swap2\n      swap1\n      pop\n      jump\n        /* \"--CODEGEN--\":24209:24616   */\n    tag_324:\n      0x00\n        /* \"--CODEGEN--\":24400:24402   */\n      0x20\n        /* \"--CODEGEN--\":24389:24398   */\n      dup3\n        /* \"--CODEGEN--\":24385:24403   */\n      add\n        /* \"--CODEGEN--\":24377:24403   */\n      swap1\n      pop\n        /* \"--CODEGEN--\":24450:24459   */\n      dup2\n        /* \"--CODEGEN--\":24444:24448   */\n      dup2\n        /* \"--CODEGEN--\":24440:24460   */\n      sub\n        /* \"--CODEGEN--\":24436:24437   */\n      0x00\n        /* \"--CODEGEN--\":24425:24434   */\n      dup4\n        /* \"--CODEGEN--\":24421:24438   */\n      add\n        /* \"--CODEGEN--\":24414:24461   */\n      mstore\n        /* \"--CODEGEN--\":24475:24606   */\n      tag_710\n        /* \"--CODEGEN--\":24601:24605   */\n      dup2\n        /* \"--CODEGEN--\":24475:24606   */\n      jump(tag_609)\n    tag_710:\n        /* \"--CODEGEN--\":24467:24606   */\n      swap1\n      pop\n        /* \"--CODEGEN--\":24371:24616   */\n      swap2\n      swap1\n      pop\n      jump\n        /* \"--CODEGEN--\":24623:25030   */\n    tag_389:\n      0x00\n        /* \"--CODEGEN--\":24814:24816   */\n      0x20\n        /* \"--CODEGEN--\":24803:24812   */\n      dup3\n        /* \"--CODEGEN--\":24799:24817   */\n      add\n        /* \"--CODEGEN--\":24791:24817   */\n      swap1\n      pop\n        /* \"--CODEGEN--\":24864:24873   */\n      dup2\n        /* \"--CODEGEN--\":24858:24862   */\n      dup2\n        /* \"--CODEGEN--\":24854:24874   */\n      sub\n        /* \"--CODEGEN--\":24850:24851   */\n      0x00\n        /* \"--CODEGEN--\":24839:24848   */\n      dup4\n        /* \"--CODEGEN--\":24835:24852   */\n      add\n        /* \"--CODEGEN--\":24828:24875   */\n      mstore\n        /* \"--CODEGEN--\":24889:25020   */\n      tag_712\n        /* \"--CODEGEN--\":25015:25019   */\n      dup2\n        /* \"--CODEGEN--\":24889:25020   */\n      jump(tag_612)\n    tag_712:\n        /* \"--CODEGEN--\":24881:25020   */\n      swap1\n      pop\n        /* \"--CODEGEN--\":24785:25030   */\n      swap2\n      swap1\n      pop\n      jump\n        /* \"--CODEGEN--\":25037:25444   */\n    tag_268:\n      0x00\n        /* \"--CODEGEN--\":25228:25230   */\n      0x20\n        /* \"--CODEGEN--\":25217:25226   */\n      dup3\n        /* \"--CODEGEN--\":25213:25231   */\n      add\n        /* \"--CODEGEN--\":25205:25231   */\n      swap1\n      pop\n        /* \"--CODEGEN--\":25278:25287   */\n      dup2\n        /* \"--CODEGEN--\":25272:25276   */\n      dup2\n        /* \"--CODEGEN--\":25268:25288   */\n      sub\n        /* \"--CODEGEN--\":25264:25265   */\n      0x00\n        /* \"--CODEGEN--\":25253:25262   */\n      dup4\n        /* \"--CODEGEN--\":25249:25266   */\n      add\n        /* \"--CODEGEN--\":25242:25289   */\n      mstore\n        /* \"--CODEGEN--\":25303:25434   */\n      tag_714\n        /* \"--CODEGEN--\":25429:25433   */\n      dup2\n        /* \"--CODEGEN--\":25303:25434   */\n      jump(tag_615)\n    tag_714:\n        /* \"--CODEGEN--\":25295:25434   */\n      swap1\n      pop\n        /* \"--CODEGEN--\":25199:25444   */\n      swap2\n      swap1\n      pop\n      jump\n        /* \"--CODEGEN--\":25451:25858   */\n    tag_282:\n      0x00\n        /* \"--CODEGEN--\":25642:25644   */\n      0x20\n        /* \"--CODEGEN--\":25631:25640   */\n      dup3\n        /* \"--CODEGEN--\":25627:25645   */\n      add\n        /* \"--CODEGEN--\":25619:25645   */\n      swap1\n      pop\n        /* \"--CODEGEN--\":25692:25701   */\n      dup2\n        /* \"--CODEGEN--\":25686:25690   */\n      dup2\n        /* \"--CODEGEN--\":25682:25702   */\n      sub\n        /* \"--CODEGEN--\":25678:25679   */\n      0x00\n        /* \"--CODEGEN--\":25667:25676   */\n      dup4\n        /* \"--CODEGEN--\":25663:25680   */\n      add\n        /* \"--CODEGEN--\":25656:25703   */\n      mstore\n        /* \"--CODEGEN--\":25717:25848   */\n      tag_716\n        /* \"--CODEGEN--\":25843:25847   */\n      dup2\n        /* \"--CODEGEN--\":25717:25848   */\n      jump(tag_618)\n    tag_716:\n        /* \"--CODEGEN--\":25709:25848   */\n      swap1\n      pop\n        /* \"--CODEGEN--\":25613:25858   */\n      swap2\n      swap1\n      pop\n      jump\n        /* \"--CODEGEN--\":25865:26272   */\n    tag_399:\n      0x00\n        /* \"--CODEGEN--\":26056:26058   */\n      0x20\n        /* \"--CODEGEN--\":26045:26054   */\n      dup3\n        /* \"--CODEGEN--\":26041:26059   */\n      add\n        /* \"--CODEGEN--\":26033:26059   */\n      swap1\n      pop\n        /* \"--CODEGEN--\":26106:26115   */\n      dup2\n        /* \"--CODEGEN--\":26100:26104   */\n      dup2\n        /* \"--CODEGEN--\":26096:26116   */\n      sub\n        /* \"--CODEGEN--\":26092:26093   */\n      0x00\n        /* \"--CODEGEN--\":26081:26090   */\n      dup4\n        /* \"--CODEGEN--\":26077:26094   */\n      add\n        /* \"--CODEGEN--\":26070:26117   */\n      mstore\n        /* \"--CODEGEN--\":26131:26262   */\n      tag_718\n        /* \"--CODEGEN--\":26257:26261   */\n      dup2\n        /* \"--CODEGEN--\":26131:26262   */\n      jump(tag_621)\n    tag_718:\n        /* \"--CODEGEN--\":26123:26262   */\n      swap1\n      pop\n        /* \"--CODEGEN--\":26027:26272   */\n      swap2\n      swap1\n      pop\n      jump\n        /* \"--CODEGEN--\":26279:26686   */\n    tag_321:\n      0x00\n        /* \"--CODEGEN--\":26470:26472   */\n      0x20\n        /* \"--CODEGEN--\":26459:26468   */\n      dup3\n        /* \"--CODEGEN--\":26455:26473   */\n      add\n        /* \"--CODEGEN--\":26447:26473   */\n      swap1\n      pop\n        /* \"--CODEGEN--\":26520:26529   */\n      dup2\n        /* \"--CODEGEN--\":26514:26518   */\n      dup2\n        /* \"--CODEGEN--\":26510:26530   */\n      sub\n        /* \"--CODEGEN--\":26506:26507   */\n      0x00\n        /* \"--CODEGEN--\":26495:26504   */\n      dup4\n        /* \"--CODEGEN--\":26491:26508   */\n      add\n        /* \"--CODEGEN--\":26484:26531   */\n      mstore\n        /* \"--CODEGEN--\":26545:26676   */\n      tag_720\n        /* \"--CODEGEN--\":26671:26675   */\n      dup2\n        /* \"--CODEGEN--\":26545:26676   */\n      jump(tag_624)\n    tag_720:\n        /* \"--CODEGEN--\":26537:26676   */\n      swap1\n      pop\n        /* \"--CODEGEN--\":26441:26686   */\n      swap2\n      swap1\n      pop\n      jump\n        /* \"--CODEGEN--\":26693:27100   */\n    tag_352:\n      0x00\n        /* \"--CODEGEN--\":26884:26886   */\n      0x20\n        /* \"--CODEGEN--\":26873:26882   */\n      dup3\n        /* \"--CODEGEN--\":26869:26887   */\n      add\n        /* \"--CODEGEN--\":26861:26887   */\n      swap1\n      pop\n        /* \"--CODEGEN--\":26934:26943   */\n      dup2\n        /* \"--CODEGEN--\":26928:26932   */\n      dup2\n        /* \"--CODEGEN--\":26924:26944   */\n      sub\n        /* \"--CODEGEN--\":26920:26921   */\n      0x00\n        /* \"--CODEGEN--\":26909:26918   */\n      dup4\n        /* \"--CODEGEN--\":26905:26922   */\n      add\n        /* \"--CODEGEN--\":26898:26945   */\n      mstore\n        /* \"--CODEGEN--\":26959:27090   */\n      tag_722\n        /* \"--CODEGEN--\":27085:27089   */\n      dup2\n        /* \"--CODEGEN--\":26959:27090   */\n      jump(tag_627)\n    tag_722:\n        /* \"--CODEGEN--\":26951:27090   */\n      swap1\n      pop\n        /* \"--CODEGEN--\":26855:27100   */\n      swap2\n      swap1\n      pop\n      jump\n        /* \"--CODEGEN--\":27107:27514   */\n    tag_213:\n      0x00\n        /* \"--CODEGEN--\":27298:27300   */\n      0x20\n        /* \"--CODEGEN--\":27287:27296   */\n      dup3\n        /* \"--CODEGEN--\":27283:27301   */\n      add\n        /* \"--CODEGEN--\":27275:27301   */\n      swap1\n      pop\n        /* \"--CODEGEN--\":27348:27357   */\n      dup2\n        /* \"--CODEGEN--\":27342:27346   */\n      dup2\n        /* \"--CODEGEN--\":27338:27358   */\n      sub\n        /* \"--CODEGEN--\":27334:27335   */\n      0x00\n        /* \"--CODEGEN--\":27323:27332   */\n      dup4\n        /* \"--CODEGEN--\":27319:27336   */\n      add\n        /* \"--CODEGEN--\":27312:27359   */\n      mstore\n        /* \"--CODEGEN--\":27373:27504   */\n      tag_724\n        /* \"--CODEGEN--\":27499:27503   */\n      dup2\n        /* \"--CODEGEN--\":27373:27504   */\n      jump(tag_630)\n    tag_724:\n        /* \"--CODEGEN--\":27365:27504   */\n      swap1\n      pop\n        /* \"--CODEGEN--\":27269:27514   */\n      swap2\n      swap1\n      pop\n      jump\n        /* \"--CODEGEN--\":27521:27928   */\n    tag_206:\n      0x00\n        /* \"--CODEGEN--\":27712:27714   */\n      0x20\n        /* \"--CODEGEN--\":27701:27710   */\n      dup3\n        /* \"--CODEGEN--\":27697:27715   */\n      add\n        /* \"--CODEGEN--\":27689:27715   */\n      swap1\n      pop\n        /* \"--CODEGEN--\":27762:27771   */\n      dup2\n        /* \"--CODEGEN--\":27756:27760   */\n      dup2\n        /* \"--CODEGEN--\":27752:27772   */\n      sub\n        /* \"--CODEGEN--\":27748:27749   */\n      0x00\n        /* \"--CODEGEN--\":27737:27746   */\n      dup4\n        /* \"--CODEGEN--\":27733:27750   */\n      add\n        /* \"--CODEGEN--\":27726:27773   */\n      mstore\n        /* \"--CODEGEN--\":27787:27918   */\n      tag_726\n        /* \"--CODEGEN--\":27913:27917   */\n      dup2\n        /* \"--CODEGEN--\":27787:27918   */\n      jump(tag_633)\n    tag_726:\n        /* \"--CODEGEN--\":27779:27918   */\n      swap1\n      pop\n        /* \"--CODEGEN--\":27683:27928   */\n      swap2\n      swap1\n      pop\n      jump\n        /* \"--CODEGEN--\":27935:28342   */\n    tag_261:\n      0x00\n        /* \"--CODEGEN--\":28126:28128   */\n      0x20\n        /* \"--CODEGEN--\":28115:28124   */\n      dup3\n        /* \"--CODEGEN--\":28111:28129   */\n      add\n        /* \"--CODEGEN--\":28103:28129   */\n      swap1\n      pop\n        /* \"--CODEGEN--\":28176:28185   */\n      dup2\n        /* \"--CODEGEN--\":28170:28174   */\n      dup2\n        /* \"--CODEGEN--\":28166:28186   */\n      sub\n        /* \"--CODEGEN--\":28162:28163   */\n      0x00\n        /* \"--CODEGEN--\":28151:28160   */\n      dup4\n        /* \"--CODEGEN--\":28147:28164   */\n      add\n        /* \"--CODEGEN--\":28140:28187   */\n      mstore\n        /* \"--CODEGEN--\":28201:28332   */\n      tag_728\n        /* \"--CODEGEN--\":28327:28331   */\n      dup2\n        /* \"--CODEGEN--\":28201:28332   */\n      jump(tag_636)\n    tag_728:\n        /* \"--CODEGEN--\":28193:28332   */\n      swap1\n      pop\n        /* \"--CODEGEN--\":28097:28342   */\n      swap2\n      swap1\n      pop\n      jump\n        /* \"--CODEGEN--\":28349:28756   */\n    tag_258:\n      0x00\n        /* \"--CODEGEN--\":28540:28542   */\n      0x20\n        /* \"--CODEGEN--\":28529:28538   */\n      dup3\n        /* \"--CODEGEN--\":28525:28543   */\n      add\n        /* \"--CODEGEN--\":28517:28543   */\n      swap1\n      pop\n        /* \"--CODEGEN--\":28590:28599   */\n      dup2\n        /* \"--CODEGEN--\":28584:28588   */\n      dup2\n        /* \"--CODEGEN--\":28580:28600   */\n      sub\n        /* \"--CODEGEN--\":28576:28577   */\n      0x00\n        /* \"--CODEGEN--\":28565:28574   */\n      dup4\n        /* \"--CODEGEN--\":28561:28578   */\n      add\n        /* \"--CODEGEN--\":28554:28601   */\n      mstore\n        /* \"--CODEGEN--\":28615:28746   */\n      tag_730\n        /* \"--CODEGEN--\":28741:28745   */\n      dup2\n        /* \"--CODEGEN--\":28615:28746   */\n      jump(tag_639)\n    tag_730:\n        /* \"--CODEGEN--\":28607:28746   */\n      swap1\n      pop\n        /* \"--CODEGEN--\":28511:28756   */\n      swap2\n      swap1\n      pop\n      jump\n        /* \"--CODEGEN--\":28763:28976   */\n    tag_152:\n      0x00\n        /* \"--CODEGEN--\":28881:28883   */\n      0x20\n        /* \"--CODEGEN--\":28870:28879   */\n      dup3\n        /* \"--CODEGEN--\":28866:28884   */\n      add\n        /* \"--CODEGEN--\":28858:28884   */\n      swap1\n      pop\n        /* \"--CODEGEN--\":28895:28966   */\n      tag_732\n        /* \"--CODEGEN--\":28963:28964   */\n      0x00\n        /* \"--CODEGEN--\":28952:28961   */\n      dup4\n        /* \"--CODEGEN--\":28948:28965   */\n      add\n        /* \"--CODEGEN--\":28939:28945   */\n      dup5\n        /* \"--CODEGEN--\":28895:28966   */\n      jump(tag_642)\n    tag_732:\n        /* \"--CODEGEN--\":28852:28976   */\n      swap3\n      swap2\n      pop\n      pop\n      jump\n        /* \"--CODEGEN--\":28983:29307   */\n    tag_285:\n      0x00\n        /* \"--CODEGEN--\":29129:29131   */\n      0x40\n        /* \"--CODEGEN--\":29118:29127   */\n      dup3\n        /* \"--CODEGEN--\":29114:29132   */\n      add\n        /* \"--CODEGEN--\":29106:29132   */\n      swap1\n      pop\n        /* \"--CODEGEN--\":29143:29214   */\n      tag_734\n        /* \"--CODEGEN--\":29211:29212   */\n      0x00\n        /* \"--CODEGEN--\":29200:29209   */\n      dup4\n        /* \"--CODEGEN--\":29196:29213   */\n      add\n        /* \"--CODEGEN--\":29187:29193   */\n      dup6\n        /* \"--CODEGEN--\":29143:29214   */\n      jump(tag_642)\n    tag_734:\n        /* \"--CODEGEN--\":29225:29297   */\n      tag_735\n        /* \"--CODEGEN--\":29293:29295   */\n      0x20\n        /* \"--CODEGEN--\":29282:29291   */\n      dup4\n        /* \"--CODEGEN--\":29278:29296   */\n      add\n        /* \"--CODEGEN--\":29269:29275   */\n      dup5\n        /* \"--CODEGEN--\":29225:29297   */\n      jump(tag_552)\n    tag_735:\n        /* \"--CODEGEN--\":29100:29307   */\n      swap4\n      swap3\n      pop\n      pop\n      pop\n      jump\n        /* \"--CODEGEN--\":29314:29670   */\n    tag_251:\n      0x00\n        /* \"--CODEGEN--\":29476:29478   */\n      0x40\n        /* \"--CODEGEN--\":29465:29474   */\n      dup3\n        /* \"--CODEGEN--\":29461:29479   */\n      add\n        /* \"--CODEGEN--\":29453:29479   */\n      swap1\n      pop\n        /* \"--CODEGEN--\":29490:29561   */\n      tag_737\n        /* \"--CODEGEN--\":29558:29559   */\n      0x00\n        /* \"--CODEGEN--\":29547:29556   */\n      dup4\n        /* \"--CODEGEN--\":29543:29560   */\n      add\n        /* \"--CODEGEN--\":29534:29540   */\n      dup6\n        /* \"--CODEGEN--\":29490:29561   */\n      jump(tag_642)\n    tag_737:\n        /* \"--CODEGEN--\":29572:29660   */\n      tag_738\n        /* \"--CODEGEN--\":29656:29658   */\n      0x20\n        /* \"--CODEGEN--\":29645:29654   */\n      dup4\n        /* \"--CODEGEN--\":29641:29659   */\n      add\n        /* \"--CODEGEN--\":29632:29638   */\n      dup5\n        /* \"--CODEGEN--\":29572:29660   */\n      jump(tag_548)\n    tag_738:\n        /* \"--CODEGEN--\":29447:29670   */\n      swap4\n      swap3\n      pop\n      pop\n      pop\n      jump\n        /* \"--CODEGEN--\":29677:30362   */\n    tag_275:\n      0x00\n        /* \"--CODEGEN--\":29920:29923   */\n      0xa0\n        /* \"--CODEGEN--\":29909:29918   */\n      dup3\n        /* \"--CODEGEN--\":29905:29924   */\n      add\n        /* \"--CODEGEN--\":29897:29924   */\n      swap1\n      pop\n        /* \"--CODEGEN--\":29935:30006   */\n      tag_740\n        /* \"--CODEGEN--\":30003:30004   */\n      0x00\n        /* \"--CODEGEN--\":29992:30001   */\n      dup4\n        /* \"--CODEGEN--\":29988:30005   */\n      add\n        /* \"--CODEGEN--\":29979:29985   */\n      dup9\n        /* \"--CODEGEN--\":29935:30006   */\n      jump(tag_642)\n    tag_740:\n        /* \"--CODEGEN--\":30017:30087   */\n      tag_741\n        /* \"--CODEGEN--\":30083:30085   */\n      0x20\n        /* \"--CODEGEN--\":30072:30081   */\n      dup4\n        /* \"--CODEGEN--\":30068:30086   */\n      add\n        /* \"--CODEGEN--\":30059:30065   */\n      dup8\n        /* \"--CODEGEN--\":30017:30087   */\n      jump(tag_646)\n    tag_741:\n        /* \"--CODEGEN--\":30098:30185   */\n      tag_742\n        /* \"--CODEGEN--\":30181:30183   */\n      0x40\n        /* \"--CODEGEN--\":30170:30179   */\n      dup4\n        /* \"--CODEGEN--\":30166:30184   */\n      add\n        /* \"--CODEGEN--\":30157:30163   */\n      dup7\n        /* \"--CODEGEN--\":30098:30185   */\n      jump(tag_591)\n    tag_742:\n        /* \"--CODEGEN--\":30196:30268   */\n      tag_743\n        /* \"--CODEGEN--\":30264:30266   */\n      0x60\n        /* \"--CODEGEN--\":30253:30262   */\n      dup4\n        /* \"--CODEGEN--\":30249:30267   */\n      add\n        /* \"--CODEGEN--\":30240:30246   */\n      dup6\n        /* \"--CODEGEN--\":30196:30268   */\n      jump(tag_560)\n    tag_743:\n        /* \"--CODEGEN--\":30279:30352   */\n      tag_744\n        /* \"--CODEGEN--\":30347:30350   */\n      0x80\n        /* \"--CODEGEN--\":30336:30345   */\n      dup4\n        /* \"--CODEGEN--\":30332:30351   */\n      add\n        /* \"--CODEGEN--\":30323:30329   */\n      dup5\n        /* \"--CODEGEN--\":30279:30352   */\n      jump(tag_560)\n    tag_744:\n        /* \"--CODEGEN--\":29891:30362   */\n      swap7\n      swap6\n      pop\n      pop\n      pop\n      pop\n      pop\n      pop\n      jump\n        /* \"--CODEGEN--\":30369:30578   */\n    tag_52:\n      0x00\n        /* \"--CODEGEN--\":30485:30487   */\n      0x20\n        /* \"--CODEGEN--\":30474:30483   */\n      dup3\n        /* \"--CODEGEN--\":30470:30488   */\n      add\n        /* \"--CODEGEN--\":30462:30488   */\n      swap1\n      pop\n        /* \"--CODEGEN--\":30499:30568   */\n      tag_746\n        /* \"--CODEGEN--\":30565:30566   */\n      0x00\n        /* \"--CODEGEN--\":30554:30563   */\n      dup4\n        /* \"--CODEGEN--\":30550:30567   */\n      add\n        /* \"--CODEGEN--\":30541:30547   */\n      dup5\n        /* \"--CODEGEN--\":30499:30568   */\n      jump(tag_646)\n    tag_746:\n        /* \"--CODEGEN--\":30456:30578   */\n      swap3\n      swap2\n      pop\n      pop\n      jump\n        /* \"--CODEGEN--\":30585:31008   */\n    tag_253:\n      0x00\n        /* \"--CODEGEN--\":30753:30755   */\n      0x60\n        /* \"--CODEGEN--\":30742:30751   */\n      dup3\n        /* \"--CODEGEN--\":30738:30756   */\n      add\n        /* \"--CODEGEN--\":30730:30756   */\n      swap1\n      pop\n        /* \"--CODEGEN--\":30767:30836   */\n      tag_748\n        /* \"--CODEGEN--\":30833:30834   */\n      0x00\n        /* \"--CODEGEN--\":30822:30831   */\n      dup4\n        /* \"--CODEGEN--\":30818:30835   */\n      add\n        /* \"--CODEGEN--\":30809:30815   */\n      dup7\n        /* \"--CODEGEN--\":30767:30836   */\n      jump(tag_646)\n    tag_748:\n        /* \"--CODEGEN--\":30847:30917   */\n      tag_749\n        /* \"--CODEGEN--\":30913:30915   */\n      0x20\n        /* \"--CODEGEN--\":30902:30911   */\n      dup4\n        /* \"--CODEGEN--\":30898:30916   */\n      add\n        /* \"--CODEGEN--\":30889:30895   */\n      dup6\n        /* \"--CODEGEN--\":30847:30917   */\n      jump(tag_564)\n    tag_749:\n        /* \"--CODEGEN--\":30928:30998   */\n      tag_750\n        /* \"--CODEGEN--\":30994:30996   */\n      0x40\n        /* \"--CODEGEN--\":30983:30992   */\n      dup4\n        /* \"--CODEGEN--\":30979:30997   */\n      add\n        /* \"--CODEGEN--\":30970:30976   */\n      dup5\n        /* \"--CODEGEN--\":30928:30998   */\n      jump(tag_564)\n    tag_750:\n        /* \"--CODEGEN--\":30724:31008   */\n      swap5\n      swap4\n      pop\n      pop\n      pop\n      pop\n      jump\n        /* \"--CODEGEN--\":31015:31132   */\n    tag_587:\n      0x00\n        /* \"--CODEGEN--\":31104:31109   */\n      dup2\n        /* \"--CODEGEN--\":31098:31110   */\n      mload\n        /* \"--CODEGEN--\":31088:31110   */\n      swap1\n      pop\n        /* \"--CODEGEN--\":31069:31132   */\n      swap2\n      swap1\n      pop\n      jump\n        /* \"--CODEGEN--\":31139:31260   */\n    tag_579:\n      0x00\n        /* \"--CODEGEN--\":31232:31237   */\n      dup2\n        /* \"--CODEGEN--\":31226:31238   */\n      mload\n        /* \"--CODEGEN--\":31216:31238   */\n      swap1\n      pop\n        /* \"--CODEGEN--\":31197:31260   */\n      swap2\n      swap1\n      pop\n      jump\n        /* \"--CODEGEN--\":31267:31389   */\n    tag_598:\n      0x00\n        /* \"--CODEGEN--\":31361:31366   */\n      dup2\n        /* \"--CODEGEN--\":31355:31367   */\n      mload\n        /* \"--CODEGEN--\":31345:31367   */\n      swap1\n      pop\n        /* \"--CODEGEN--\":31326:31389   */\n      swap2\n      swap1\n      pop\n      jump\n        /* \"--CODEGEN--\":31397:31559   */\n    tag_571:\n      0x00\n        /* \"--CODEGEN--\":31511:31517   */\n      dup3\n        /* \"--CODEGEN--\":31506:31509   */\n      dup3\n        /* \"--CODEGEN--\":31499:31518   */\n      mstore\n        /* \"--CODEGEN--\":31548:31552   */\n      0x20\n        /* \"--CODEGEN--\":31543:31546   */\n      dup3\n        /* \"--CODEGEN--\":31539:31553   */\n      add\n        /* \"--CODEGEN--\":31524:31553   */\n      swap1\n      pop\n        /* \"--CODEGEN--\":31492:31559   */\n      swap3\n      swap2\n      pop\n      pop\n      jump\n        /* \"--CODEGEN--\":31568:31731   */\n    tag_600:\n      0x00\n        /* \"--CODEGEN--\":31683:31689   */\n      dup3\n        /* \"--CODEGEN--\":31678:31681   */\n      dup3\n        /* \"--CODEGEN--\":31671:31690   */\n      mstore\n        /* \"--CODEGEN--\":31720:31724   */\n      0x20\n        /* \"--CODEGEN--\":31715:31718   */\n      dup3\n        /* \"--CODEGEN--\":31711:31725   */\n      add\n        /* \"--CODEGEN--\":31696:31725   */\n      swap1\n      pop\n        /* \"--CODEGEN--\":31664:31731   */\n      swap3\n      swap2\n      pop\n      pop\n      jump\n        /* \"--CODEGEN--\":31739:31830   */\n    tag_555:\n      0x00\n        /* \"--CODEGEN--\":31801:31825   */\n      tag_757\n        /* \"--CODEGEN--\":31819:31824   */\n      dup3\n        /* \"--CODEGEN--\":31801:31825   */\n      jump(tag_758)\n    tag_757:\n        /* \"--CODEGEN--\":31790:31825   */\n      swap1\n      pop\n        /* \"--CODEGEN--\":31784:31830   */\n      swap2\n      swap1\n      pop\n      jump\n        /* \"--CODEGEN--\":31837:31936   */\n    tag_551:\n      0x00\n        /* \"--CODEGEN--\":31907:31931   */\n      tag_760\n        /* \"--CODEGEN--\":31925:31930   */\n      dup3\n        /* \"--CODEGEN--\":31907:31931   */\n      jump(tag_758)\n    tag_760:\n        /* \"--CODEGEN--\":31896:31931   */\n      swap1\n      pop\n        /* \"--CODEGEN--\":31890:31936   */\n      swap2\n      swap1\n      pop\n      jump\n        /* \"--CODEGEN--\":31943:32028   */\n    tag_559:\n      0x00\n        /* \"--CODEGEN--\":32016:32021   */\n      dup2\n        /* \"--CODEGEN--\":32009:32022   */\n      iszero\n        /* \"--CODEGEN--\":32002:32023   */\n      iszero\n        /* \"--CODEGEN--\":31991:32023   */\n      swap1\n      pop\n        /* \"--CODEGEN--\":31985:32028   */\n      swap2\n      swap1\n      pop\n      jump\n        /* \"--CODEGEN--\":32035:32107   */\n    tag_563:\n      0x00\n        /* \"--CODEGEN--\":32097:32102   */\n      dup2\n        /* \"--CODEGEN--\":32086:32102   */\n      swap1\n      pop\n        /* \"--CODEGEN--\":32080:32107   */\n      swap2\n      swap1\n      pop\n      jump\n        /* \"--CODEGEN--\":32114:32258   */\n    tag_567:\n      0x00\n        /* \"--CODEGEN--\":32186:32252   */\n      0xffffffffffffffff000000000000000000000000000000000000000000000000\n        /* \"--CODEGEN--\":32179:32184   */\n      dup3\n        /* \"--CODEGEN--\":32175:32253   */\n      and\n        /* \"--CODEGEN--\":32164:32253   */\n      swap1\n      pop\n        /* \"--CODEGEN--\":32158:32258   */\n      swap2\n      swap1\n      pop\n      jump\n        /* \"--CODEGEN--\":32265:32405   */\n    tag_764:\n      0x00\n        /* \"--CODEGEN--\":32344:32349   */\n      dup2\n        /* \"--CODEGEN--\":32333:32349   */\n      swap1\n      pop\n        /* \"--CODEGEN--\":32350:32400   */\n      tag_766\n        /* \"--CODEGEN--\":32394:32399   */\n      dup3\n        /* \"--CODEGEN--\":32350:32400   */\n      jump(tag_767)\n    tag_766:\n        /* \"--CODEGEN--\":32327:32405   */\n      swap2\n      swap1\n      pop\n      jump\n        /* \"--CODEGEN--\":32412:32533   */\n    tag_758:\n      0x00\n        /* \"--CODEGEN--\":32485:32527   */\n      0xffffffffffffffffffffffffffffffffffffffff\n        /* \"--CODEGEN--\":32478:32483   */\n      dup3\n        /* \"--CODEGEN--\":32474:32528   */\n      and\n        /* \"--CODEGEN--\":32463:32528   */\n      swap1\n      pop\n        /* \"--CODEGEN--\":32457:32533   */\n      swap2\n      swap1\n      pop\n      jump\n        /* \"--CODEGEN--\":32540:32612   */\n    tag_645:\n      0x00\n        /* \"--CODEGEN--\":32602:32607   */\n      dup2\n        /* \"--CODEGEN--\":32591:32607   */\n      swap1\n      pop\n        /* \"--CODEGEN--\":32585:32612   */\n      swap2\n      swap1\n      pop\n      jump\n        /* \"--CODEGEN--\":32619:32715   */\n    tag_649:\n      0x00\n        /* \"--CODEGEN--\":32691:32709   */\n      0xffffffffffffffff\n        /* \"--CODEGEN--\":32684:32689   */\n      dup3\n        /* \"--CODEGEN--\":32680:32710   */\n      and\n        /* \"--CODEGEN--\":32669:32710   */\n      swap1\n      pop\n        /* \"--CODEGEN--\":32663:32715   */\n      swap2\n      swap1\n      pop\n      jump\n        /* \"--CODEGEN--\":32722:32851   */\n    tag_547:\n      0x00\n        /* \"--CODEGEN--\":32809:32846   */\n      tag_772\n        /* \"--CODEGEN--\":32840:32845   */\n      dup3\n        /* \"--CODEGEN--\":32809:32846   */\n      jump(tag_773)\n    tag_772:\n        /* \"--CODEGEN--\":32796:32846   */\n      swap1\n      pop\n        /* \"--CODEGEN--\":32790:32851   */\n      swap2\n      swap1\n      pop\n      jump\n        /* \"--CODEGEN--\":32858:32998   */\n    tag_594:\n      0x00\n        /* \"--CODEGEN--\":32952:32993   */\n      tag_775\n        /* \"--CODEGEN--\":32987:32992   */\n      dup3\n        /* \"--CODEGEN--\":32952:32993   */\n      jump(tag_764)\n    tag_775:\n        /* \"--CODEGEN--\":32939:32993   */\n      swap1\n      pop\n        /* \"--CODEGEN--\":32933:32998   */\n      swap2\n      swap1\n      pop\n      jump\n        /* \"--CODEGEN--\":33005:33126   */\n    tag_773:\n      0x00\n        /* \"--CODEGEN--\":33084:33121   */\n      tag_777\n        /* \"--CODEGEN--\":33115:33120   */\n      dup3\n        /* \"--CODEGEN--\":33084:33121   */\n      jump(tag_778)\n    tag_777:\n        /* \"--CODEGEN--\":33071:33121   */\n      swap1\n      pop\n        /* \"--CODEGEN--\":33065:33126   */\n      swap2\n      swap1\n      pop\n      jump\n        /* \"--CODEGEN--\":33133:33241   */\n    tag_778:\n      0x00\n        /* \"--CODEGEN--\":33212:33236   */\n      tag_780\n        /* \"--CODEGEN--\":33230:33235   */\n      dup3\n        /* \"--CODEGEN--\":33212:33236   */\n      jump(tag_758)\n    tag_780:\n        /* \"--CODEGEN--\":33199:33236   */\n      swap1\n      pop\n        /* \"--CODEGEN--\":33193:33241   */\n      swap2\n      swap1\n      pop\n      jump\n        /* \"--CODEGEN--\":33249:33394   */\n    tag_573:\n        /* \"--CODEGEN--\":33330:33336   */\n      dup3\n        /* \"--CODEGEN--\":33325:33328   */\n      dup2\n        /* \"--CODEGEN--\":33320:33323   */\n      dup4\n        /* \"--CODEGEN--\":33307:33337   */\n      calldatacopy\n        /* \"--CODEGEN--\":33386:33387   */\n      0x00\n        /* \"--CODEGEN--\":33377:33383   */\n      dup4\n        /* \"--CODEGEN--\":33372:33375   */\n      dup4\n        /* \"--CODEGEN--\":33368:33384   */\n      add\n        /* \"--CODEGEN--\":33361:33388   */\n      mstore\n        /* \"--CODEGEN--\":33300:33394   */\n      pop\n      pop\n      pop\n      jump\n        /* \"--CODEGEN--\":33403:33671   */\n    tag_582:\n        /* \"--CODEGEN--\":33468:33469   */\n      0x00\n        /* \"--CODEGEN--\":33475:33576   */\n    tag_783:\n        /* \"--CODEGEN--\":33489:33495   */\n      dup4\n        /* \"--CODEGEN--\":33486:33487   */\n      dup2\n        /* \"--CODEGEN--\":33483:33496   */\n      lt\n        /* \"--CODEGEN--\":33475:33576   */\n      iszero\n      tag_785\n      jumpi\n        /* \"--CODEGEN--\":33565:33566   */\n      dup1\n        /* \"--CODEGEN--\":33560:33563   */\n      dup3\n        /* \"--CODEGEN--\":33556:33567   */\n      add\n        /* \"--CODEGEN--\":33550:33568   */\n      mload\n        /* \"--CODEGEN--\":33546:33547   */\n      dup2\n        /* \"--CODEGEN--\":33541:33544   */\n      dup5\n        /* \"--CODEGEN--\":33537:33548   */\n      add\n        /* \"--CODEGEN--\":33530:33569   */\n      mstore\n        /* \"--CODEGEN--\":33511:33513   */\n      0x20\n        /* \"--CODEGEN--\":33508:33509   */\n      dup2\n        /* \"--CODEGEN--\":33504:33514   */\n      add\n        /* \"--CODEGEN--\":33499:33514   */\n      swap1\n      pop\n        /* \"--CODEGEN--\":33475:33576   */\n      jump(tag_783)\n    tag_785:\n        /* \"--CODEGEN--\":33591:33597   */\n      dup4\n        /* \"--CODEGEN--\":33588:33589   */\n      dup2\n        /* \"--CODEGEN--\":33585:33598   */\n      gt\n        /* \"--CODEGEN--\":33582:33584   */\n      iszero\n      tag_786\n      jumpi\n        /* \"--CODEGEN--\":33656:33657   */\n      0x00\n        /* \"--CODEGEN--\":33647:33653   */\n      dup5\n        /* \"--CODEGEN--\":33642:33645   */\n      dup5\n        /* \"--CODEGEN--\":33638:33654   */\n      add\n        /* \"--CODEGEN--\":33631:33658   */\n      mstore\n        /* \"--CODEGEN--\":33582:33584   */\n    tag_786:\n        /* \"--CODEGEN--\":33452:33671   */\n      pop\n      pop\n      pop\n      pop\n      jump\n        /* \"--CODEGEN--\":33679:33776   */\n    tag_575:\n      0x00\n        /* \"--CODEGEN--\":33767:33769   */\n      0x1f\n        /* \"--CODEGEN--\":33763:33770   */\n      not\n        /* \"--CODEGEN--\":33758:33760   */\n      0x1f\n        /* \"--CODEGEN--\":33751:33756   */\n      dup4\n        /* \"--CODEGEN--\":33747:33761   */\n      add\n        /* \"--CODEGEN--\":33743:33771   */\n      and\n        /* \"--CODEGEN--\":33733:33771   */\n      swap1\n      pop\n        /* \"--CODEGEN--\":33727:33776   */\n      swap2\n      swap1\n      pop\n      jump\n        /* \"--CODEGEN--\":33784:33892   */\n    tag_767:\n        /* \"--CODEGEN--\":33870:33871   */\n      0x05\n        /* \"--CODEGEN--\":33863:33868   */\n      dup2\n        /* \"--CODEGEN--\":33860:33872   */\n      lt\n        /* \"--CODEGEN--\":33850:33852   */\n      tag_789\n      jumpi\n        /* \"--CODEGEN--\":33876:33885   */\n      invalid\n        /* \"--CODEGEN--\":33850:33852   */\n    tag_789:\n        /* \"--CODEGEN--\":33844:33892   */\n      pop\n      jump\n        /* \"--CODEGEN--\":33899:34016   */\n    tag_426:\n        /* \"--CODEGEN--\":33968:33992   */\n      tag_791\n        /* \"--CODEGEN--\":33986:33991   */\n      dup2\n        /* \"--CODEGEN--\":33968:33992   */\n      jump(tag_555)\n    tag_791:\n        /* \"--CODEGEN--\":33961:33966   */\n      dup2\n        /* \"--CODEGEN--\":33958:33993   */\n      eq\n        /* \"--CODEGEN--\":33948:33950   */\n      tag_792\n      jumpi\n        /* \"--CODEGEN--\":34007:34008   */\n      0x00\n        /* \"--CODEGEN--\":34004:34005   */\n      dup1\n        /* \"--CODEGEN--\":33997:34009   */\n      revert\n        /* \"--CODEGEN--\":33948:33950   */\n    tag_792:\n        /* \"--CODEGEN--\":33942:34016   */\n      pop\n      jump\n        /* \"--CODEGEN--\":34023:34156   */\n    tag_433:\n        /* \"--CODEGEN--\":34100:34132   */\n      tag_794\n        /* \"--CODEGEN--\":34126:34131   */\n      dup2\n        /* \"--CODEGEN--\":34100:34132   */\n      jump(tag_551)\n    tag_794:\n        /* \"--CODEGEN--\":34093:34098   */\n      dup2\n        /* \"--CODEGEN--\":34090:34133   */\n      eq\n        /* \"--CODEGEN--\":34080:34082   */\n      tag_795\n      jumpi\n        /* \"--CODEGEN--\":34147:34148   */\n      0x00\n        /* \"--CODEGEN--\":34144:34145   */\n      dup1\n        /* \"--CODEGEN--\":34137:34149   */\n      revert\n        /* \"--CODEGEN--\":34080:34082   */\n    tag_795:\n        /* \"--CODEGEN--\":34074:34156   */\n      pop\n      jump\n        /* \"--CODEGEN--\":34163:34274   */\n    tag_437:\n        /* \"--CODEGEN--\":34229:34250   */\n      tag_797\n        /* \"--CODEGEN--\":34244:34249   */\n      dup2\n        /* \"--CODEGEN--\":34229:34250   */\n      jump(tag_559)\n    tag_797:\n        /* \"--CODEGEN--\":34222:34227   */\n      dup2\n        /* \"--CODEGEN--\":34219:34251   */\n      eq\n        /* \"--CODEGEN--\":34209:34211   */\n      tag_798\n      jumpi\n        /* \"--CODEGEN--\":34265:34266   */\n      0x00\n        /* \"--CODEGEN--\":34262:34263   */\n      dup1\n        /* \"--CODEGEN--\":34255:34267   */\n      revert\n        /* \"--CODEGEN--\":34209:34211   */\n    tag_798:\n        /* \"--CODEGEN--\":34203:34274   */\n      pop\n      jump\n        /* \"--CODEGEN--\":34281:34398   */\n    tag_441:\n        /* \"--CODEGEN--\":34350:34374   */\n      tag_800\n        /* \"--CODEGEN--\":34368:34373   */\n      dup2\n        /* \"--CODEGEN--\":34350:34374   */\n      jump(tag_563)\n    tag_800:\n        /* \"--CODEGEN--\":34343:34348   */\n      dup2\n        /* \"--CODEGEN--\":34340:34375   */\n      eq\n        /* \"--CODEGEN--\":34330:34332   */\n      tag_801\n      jumpi\n        /* \"--CODEGEN--\":34389:34390   */\n      0x00\n        /* \"--CODEGEN--\":34386:34387   */\n      dup1\n        /* \"--CODEGEN--\":34379:34391   */\n      revert\n        /* \"--CODEGEN--\":34330:34332   */\n    tag_801:\n        /* \"--CODEGEN--\":34324:34398   */\n      pop\n      jump\n        /* \"--CODEGEN--\":34405:34520   */\n    tag_445:\n        /* \"--CODEGEN--\":34473:34496   */\n      tag_803\n        /* \"--CODEGEN--\":34490:34495   */\n      dup2\n        /* \"--CODEGEN--\":34473:34496   */\n      jump(tag_567)\n    tag_803:\n        /* \"--CODEGEN--\":34466:34471   */\n      dup2\n        /* \"--CODEGEN--\":34463:34497   */\n      eq\n        /* \"--CODEGEN--\":34453:34455   */\n      tag_804\n      jumpi\n        /* \"--CODEGEN--\":34511:34512   */\n      0x00\n        /* \"--CODEGEN--\":34508:34509   */\n      dup1\n        /* \"--CODEGEN--\":34501:34513   */\n      revert\n        /* \"--CODEGEN--\":34453:34455   */\n    tag_804:\n        /* \"--CODEGEN--\":34447:34520   */\n      pop\n      jump\n        /* \"--CODEGEN--\":34527:34644   */\n    tag_454:\n        /* \"--CODEGEN--\":34596:34620   */\n      tag_806\n        /* \"--CODEGEN--\":34614:34619   */\n      dup2\n        /* \"--CODEGEN--\":34596:34620   */\n      jump(tag_645)\n    tag_806:\n        /* \"--CODEGEN--\":34589:34594   */\n      dup2\n        /* \"--CODEGEN--\":34586:34621   */\n      eq\n        /* \"--CODEGEN--\":34576:34578   */\n      tag_807\n      jumpi\n        /* \"--CODEGEN--\":34635:34636   */\n      0x00\n        /* \"--CODEGEN--\":34632:34633   */\n      dup1\n        /* \"--CODEGEN--\":34625:34637   */\n      revert\n        /* \"--CODEGEN--\":34576:34578   */\n    tag_807:\n        /* \"--CODEGEN--\":34570:34644   */\n      pop\n      jump\n        /* \"--CODEGEN--\":34651:34766   */\n    tag_458:\n        /* \"--CODEGEN--\":34719:34742   */\n      tag_809\n        /* \"--CODEGEN--\":34736:34741   */\n      dup2\n        /* \"--CODEGEN--\":34719:34742   */\n      jump(tag_649)\n    tag_809:\n        /* \"--CODEGEN--\":34712:34717   */\n      dup2\n        /* \"--CODEGEN--\":34709:34743   */\n      eq\n        /* \"--CODEGEN--\":34699:34701   */\n      tag_810\n      jumpi\n        /* \"--CODEGEN--\":34757:34758   */\n      0x00\n        /* \"--CODEGEN--\":34754:34755   */\n      dup1\n        /* \"--CODEGEN--\":34747:34759   */\n      revert\n        /* \"--CODEGEN--\":34699:34701   */\n    tag_810:\n        /* \"--CODEGEN--\":34693:34766   */\n      pop\n      jump\n\n    auxdata: 0xa2646970667358221220330e4b7f2efc464e1037278ad372ff59f0e491a96a2d1e5d3cbcc6ffa6288d7c64736f6c63430006040033\n}\n",
				"bytecode": {
					"linkReferences": {},
					"object": "608060405234801561001057600080fd5b50613713806100206000396000f3fe6080604052600436106101e35760003560e01c80639c1650e011610102578063dd2e8ec311610095578063e4e21fce11610064578063e4e21fce146106a7578063ea439b2b146106c3578063f2fde38b146106ec578063ffaac0eb14610715576101e3565b8063dd2e8ec314610620578063de771b311461064b578063df0fc13314610674578063e2c41dbc1461069d576101e3565b8063a737be4f116100d1578063a737be4f14610564578063b67d77c51461058d578063beab7131146105ca578063c5b37c22146105f5576101e3565b80639c1650e0146104965780639cb7de4b146104d3578063a21b952e146104fc578063a48ace3814610527576101e3565b80637a7eed771161017a5780638d225943116101495780638d225943146103f05780638da5cb5b146104195780638ece6f271461044457806392c6ecf21461046d576101e3565b80637a7eed77146103485780637f5d6a5e1461037157806380ae1c281461039c57806384db809f146103b3576101e3565b80635c975abb116101b65780635c975abb146102b45780636a1db1bf146102df578063715018a614610308578063780cf0041461031f576101e3565b80630bf6096f146101e8578063174e300b146102115780631a21c0bc1461024e57806321016ed81461028b575b600080fd5b3480156101f457600080fd5b5061020f600480360381019061020a919061249a565b61072c565b005b34801561021d57600080fd5b5061023860048036038101906102339190612706565b610778565b6040516102459190613448565b60405180910390f35b34801561025a57600080fd5b506102756004803603810190610270919061249a565b61079f565b6040516102829190612f3b565b60405180910390f35b34801561029757600080fd5b506102b260048036038101906102ad9190612652565b6107bf565b005b3480156102c057600080fd5b506102c96107d1565b6040516102d69190612f3b565b60405180910390f35b3480156102eb57600080fd5b5061030660048036038101906103019190612942565b6107e7565b005b34801561031457600080fd5b5061031d61083e565b005b34801561032b57600080fd5b5061034660048036038101906103419190612564565b61097a565b005b34801561035457600080fd5b5061036f600480360381019061036a91906124ec565b610a71565b005b34801561037d57600080fd5b50610386610b4c565b6040516103939190612ece565b60405180910390f35b3480156103a857600080fd5b506103b1610b72565b005b3480156103bf57600080fd5b506103da60048036038101906103d59190612652565b610bf8565b6040516103e79190612ece565b60405180910390f35b3480156103fc57600080fd5b5061041760048036038101906104129190612839565b610c2b565b005b34801561042557600080fd5b5061042e611008565b60405161043b9190612ece565b60405180910390f35b34801561045057600080fd5b5061046b6004803603810190610466919061272f565b611031565b005b34801561047957600080fd5b50610494600480360381019061048f91906128f3565b61136f565b005b3480156104a257600080fd5b506104bd60048036038101906104b8919061267b565b6113e7565b6040516104ca9190612f3b565b60405180910390f35b3480156104df57600080fd5b506104fa60048036038101906104f591906125c7565b611416565b005b34801561050857600080fd5b50610511611479565b60405161051e9190612f56565b60405180910390f35b34801561053357600080fd5b5061054e600480360381019061054991906129a7565b61147f565b60405161055b91906131a4565b60405180910390f35b34801561057057600080fd5b5061058b60048036038101906105869190612603565b61153c565b005b34801561059957600080fd5b506105b460048036038101906105af919061296b565b611666565b6040516105c19190613388565b60405180910390f35b3480156105d657600080fd5b506105df6116b0565b6040516105ec91906130c7565b60405180910390f35b34801561060157600080fd5b5061060a6116c3565b6040516106179190613388565b60405180910390f35b34801561062c57600080fd5b506106356116c9565b6040516106429190612f3b565b60405180910390f35b34801561065757600080fd5b50610672600480360381019061066d91906126b7565b6116dc565b005b34801561068057600080fd5b5061069b60048036038101906106969190612528565b6118b0565b005b6106a561192d565b005b6106c160048036038101906106bc9190612792565b6119ab565b005b3480156106cf57600080fd5b506106ea60048036038101906106e5919061249a565b611de7565b005b3480156106f857600080fd5b50610713600480360381019061070e919061249a565b611ebb565b005b34801561072157600080fd5b5061072a612031565b005b6107346120b7565b80600260006101000a81548173ffffffffffffffffffffffffffffffffffffffff021916908373ffffffffffffffffffffffffffffffffffffffff16021790555050565b60046020528060005260406000206000915054906101000a900467ffffffffffffffff1681565b60086020528060005260406000206000915054906101000a900460ff1681565b6107c76120b7565b8060038190555050565b60008060009054906101000a900460ff16905090565b6107ef6120b7565b806001541415610834576040517f08c379a000000000000000000000000000000000000000000000000000000000815260040161082b90613328565b60405180910390fd5b8060018190555050565b610846612149565b73ffffffffffffffffffffffffffffffffffffffff16610864611008565b73ffffffffffffffffffffffffffffffffffffffff16146108ba576040517f08c379a00000000000000000000000000000000000000000000000000000000081526004016108b190613308565b60405180910390fd5b600073ffffffffffffffffffffffffffffffffffffffff16600060019054906101000a900473ffffffffffffffffffffffffffffffffffffffff1673ffffffffffffffffffffffffffffffffffffffff167f8be0079c531659141344cd1fd0a4f28419497f9722a3daafe3b4186f6b6457e060405160405180910390a360008060016101000a81548173ffffffffffffffffffffffffffffffffffffffff021916908373ffffffffffffffffffffffffffffffffffffffff160217905550565b610982612149565b73ffffffffffffffffffffffffffffffffffffffff166109a0611008565b73ffffffffffffffffffffffffffffffffffffffff16146109f6576040517f08c379a00000000000000000000000000000000000000000000000000000000081526004016109ed90613308565b60405180910390fd5b60008490508073ffffffffffffffffffffffffffffffffffffffff1663d9caed128585856040518463ffffffff1660e01b8152600401610a3893929190612f04565b600060405180830381600087803b158015610a5257600080fd5b505af1158015610a66573d6000803e3d6000fd5b505050505050505050565b610a79612149565b73ffffffffffffffffffffffffffffffffffffffff16610a97611008565b73ffffffffffffffffffffffffffffffffffffffff1614610aed576040517f08c379a0000000000000000000000000000000000000000000000000000000008152600401610ae490613308565b60405180910390fd5b6000478210610afc5747610afe565b815b90508273ffffffffffffffffffffffffffffffffffffffff166108fc829081150290604051600060405180830381858888f19350505050158015610b46573d6000803e3d6000fd5b50505050565b600260009054906101000a900473ffffffffffffffffffffffffffffffffffffffff1681565b610b7a612149565b73ffffffffffffffffffffffffffffffffffffffff16610b98611008565b73ffffffffffffffffffffffffffffffffffffffff1614610bee576040517f08c379a0000000000000000000000000000000000000000000000000000000008152600401610be590613308565b60405180910390fd5b610bf6612151565b565b60056020528060005260406000206000915054906101000a900473ffffffffffffffffffffffffffffffffffffffff1681565b610c336120b7565b610c3b6121ac565b60608385604051602001610c509291906133cc565b60405160208183030381529060405290506000878a8a604051602001610c7893929190613463565b60405160208183030381529060405280519060200120905060008783604051602001610ca5929190613097565b60405160208183030381529060405280519060200120905060076000838152602001908152602001600020600082815260200190815260200160002060009054906101000a900460ff1615610d2f576040517f08c379a0000000000000000000000000000000000000000000000000000000008152600401610d2690613368565b60405180910390fd5b600060169054906101000a900460c01b77ffffffffffffffffffffffffffffffffffffffffffffffff19168a77ffffffffffffffffffffffffffffffffffffffffffffffff191614610db6576040517f08c379a0000000000000000000000000000000000000000000000000000000008152600401610dad90613348565b60405180910390fd5b600160076000848152602001908152602001600020600083815260200190815260200160002060006101000a81548160ff021916908315150217905550600354881415610e49578673ffffffffffffffffffffffffffffffffffffffff166108fc879081150290604051600060405180830381858888f19350505050158015610e43573d6000803e3d6000fd5b50610f6c565b6000600560008a815260200190815260200160002060009054906101000a900473ffffffffffffffffffffffffffffffffffffffff169050600073ffffffffffffffffffffffffffffffffffffffff168173ffffffffffffffffffffffffffffffffffffffff161415610ef1576040517f08c379a0000000000000000000000000000000000000000000000000000000008152600401610ee890613268565b60405180910390fd5b60008190508073ffffffffffffffffffffffffffffffffffffffff1663728e218f8b8b8b8b8b6040518663ffffffff1660e01b8152600401610f37959493929190612f9a565b600060405180830381600087803b158015610f5157600080fd5b505af1158015610f65573d6000803e3d6000fd5b5050505050505b8673ffffffffffffffffffffffffffffffffffffffff168a77ffffffffffffffffffffffffffffffffffffffffffffffff19168c77ffffffffffffffffffffffffffffffffffffffffffffffff19167f9686dcabd0450cad86a88df15a9d35b08b35d1b08a19008df37cf8538c467516898d60038e88604051610ff39594939291906133f5565b60405180910390a45050505050505050505050565b60008060019054906101000a900473ffffffffffffffffffffffffffffffffffffffff16905090565b6110396121ac565b600860003373ffffffffffffffffffffffffffffffffffffffff1673ffffffffffffffffffffffffffffffffffffffff16815260200190815260200160002060009054906101000a900460ff166110c5576040517f08c379a00000000000000000000000000000000000000000000000000000000081526004016110bc90613288565b60405180910390fd5b6000600460008677ffffffffffffffffffffffffffffffffffffffffffffffff191677ffffffffffffffffffffffffffffffffffffffffffffffff19168152602001908152602001600020600081819054906101000a900467ffffffffffffffff1660010191906101000a81548167ffffffffffffffff021916908367ffffffffffffffff16021790559050606083836040516020016111669291906133a3565b60405160208183030381529060405290506000858260405160200161118c929190613097565b60405160208183030381529060405280519060200120905081600660008567ffffffffffffffff1667ffffffffffffffff16815260200190815260200160002060008977ffffffffffffffffffffffffffffffffffffffffffffffff191677ffffffffffffffffffffffffffffffffffffffffffffffff191681526020019081526020016000209080519060200190611226929190612303565b5060006005600088815260200190815260200160002060009054906101000a900473ffffffffffffffffffffffffffffffffffffffff16905060008173ffffffffffffffffffffffffffffffffffffffff1663a7a3fb40896040518263ffffffff1660e01b815260040161129a9190612f56565b60206040518083038186803b1580156112b257600080fd5b505afa1580156112c6573d6000803e3d6000fd5b505050506040513d601f19601f820116820180604052508101906112ea91906124c3565b90508467ffffffffffffffff16888a77ffffffffffffffffffffffffffffffffffffffffffffffff19167f370525803ffa9a7c0e6adb3868e393dca45d8b42b2f62fd1f23ecfe99f6ce8fc600060169054906101000a900460c01b338b878e8b60405161135c969594939291906130e2565b60405180910390a4505050505050505050565b82600060166101000a81548167ffffffffffffffff021916908360c01c02179055508160018190555080600260006101000a81548173ffffffffffffffffffffffffffffffffffffffff021916908373ffffffffffffffffffffffffffffffffffffffff1602179055506113e233611de7565b505050565b60076020528160005260406000206020528060005260406000206000915091509054906101000a900460ff1681565b61141e6120b7565b80600860008473ffffffffffffffffffffffffffffffffffffffff1673ffffffffffffffffffffffffffffffffffffffff16815260200190815260200160002060006101000a81548160ff0219169083151502179055505050565b60035481565b6006602052816000526040600020602052806000526040600020600091509150508054600181600116156101000203166002900480601f0160208091040260200160405190810160405280929190818152602001828054600181600116156101000203166002900480156115345780601f1061150957610100808354040283529160200191611534565b820191906000526020600020905b81548152906001019060200180831161151757829003601f168201915b505050505081565b6115446120b7565b826005600084815260200190815260200160002060006101000a81548173ffffffffffffffffffffffffffffffffffffffff021916908373ffffffffffffffffffffffffffffffffffffffff16021790555060008390508073ffffffffffffffffffffffffffffffffffffffff1663b8fa373684846040518363ffffffff1660e01b81526004016115d6929190612f71565b600060405180830381600087803b1580156115f057600080fd5b505af1158015611604573d6000803e3d6000fd5b505050506001600860008673ffffffffffffffffffffffffffffffffffffffff1673ffffffffffffffffffffffffffffffffffffffff16815260200190815260200160002060006101000a81548160ff02191690831515021790555050505050565b60006116a883836040518060400160405280601e81526020017f536166654d6174683a207375627472616374696f6e206f766572666c6f7700008152506121fd565b905092915050565b600060169054906101000a900460c01b81565b60015481565b600060159054906101000a900460ff1681565b6116e46120b7565b60006005600085815260200190815260200160002060009054906101000a900473ffffffffffffffffffffffffffffffffffffffff169050600073ffffffffffffffffffffffffffffffffffffffff168173ffffffffffffffffffffffffffffffffffffffff16141561178c576040517f08c379a0000000000000000000000000000000000000000000000000000000008152600401611783906132c8565b60405180910390fd5b60006005600085815260200190815260200160002060009054906101000a900473ffffffffffffffffffffffffffffffffffffffff169050600073ffffffffffffffffffffffffffffffffffffffff168173ffffffffffffffffffffffffffffffffffffffff161415611834576040517f08c379a000000000000000000000000000000000000000000000000000000000815260040161182b90613228565b60405180910390fd5b60008290508073ffffffffffffffffffffffffffffffffffffffff1663bf1ed1eb8784876040518463ffffffff1660e01b815260040161187693929190612fe8565b600060405180830381600087803b15801561189057600080fd5b505af11580156118a4573d6000803e3d6000fd5b50505050505050505050565b6118b86120b7565b60008290508073ffffffffffffffffffffffffffffffffffffffff166307b7ed99836040518263ffffffff1660e01b81526004016118f69190612ece565b600060405180830381600087803b15801561191057600080fd5b505af1158015611924573d6000803e3d6000fd5b50505050505050565b611935612149565b73ffffffffffffffffffffffffffffffffffffffff16611953611008565b73ffffffffffffffffffffffffffffffffffffffff16146119a9576040517f08c379a00000000000000000000000000000000000000000000000000000000081526004016119a090613308565b60405180910390fd5b565b6119b36121ac565b6000600460008977ffffffffffffffffffffffffffffffffffffffffffffffff191677ffffffffffffffffffffffffffffffffffffffffffffffff19168152602001908152602001600020600081819054906101000a900467ffffffffffffffff1660010191906101000a81548167ffffffffffffffff021916908367ffffffffffffffff1602179055905060608686604051602001611a549291906133a3565b604051602081830303815290604052905060008882604051602001611a7a929190613097565b60405160208183030381529060405280519060200120905081600660008567ffffffffffffffff1667ffffffffffffffff16815260200190815260200160002060008c77ffffffffffffffffffffffffffffffffffffffffffffffff191677ffffffffffffffffffffffffffffffffffffffffffffffff191681526020019081526020016000209080519060200190611b14929190612303565b50600080878a0190506003548b1415611b77576001548101341015611b6e576040517f08c379a0000000000000000000000000000000000000000000000000000000008152600401611b65906132e8565b60405180910390fd5b60009150611d01565b600154341015611bbc576040517f08c379a0000000000000000000000000000000000000000000000000000000008152600401611bb390613208565b60405180910390fd5b6000600560008d815260200190815260200160002060009054906101000a900473ffffffffffffffffffffffffffffffffffffffff169050600073ffffffffffffffffffffffffffffffffffffffff168173ffffffffffffffffffffffffffffffffffffffff161415611c64576040517f08c379a0000000000000000000000000000000000000000000000000000000008152600401611c5b90613268565b60405180910390fd5b8073ffffffffffffffffffffffffffffffffffffffff166375cd9cce8d8f89338f888f8f6040518963ffffffff1660e01b8152600401611cab98979695949392919061301f565b602060405180830381600087803b158015611cc557600080fd5b505af1158015611cd9573d6000803e3d6000fd5b505050506040513d601f19601f82011682018060405250810190611cfd91906124c3565b9250505b6000881115611d5b577f525223e7c9e63747e47dd4558940766054da3d0378f4006848d2a201545f55a4600060169054906101000a900460c01b8d878e8d8d604051611d5296959493929190613143565b60405180910390a15b60008a90508567ffffffffffffffff168c8e77ffffffffffffffffffffffffffffffffffffffffffffffff19167f370525803ffa9a7c0e6adb3868e393dca45d8b42b2f62fd1f23ecfe99f6ce8fc600060169054906101000a900460c01b338f89888c604051611dd0969594939291906130e2565b60405180910390a450505050505050505050505050565b600060159054906101000a900460ff1615611e0157600080fd5b80600060016101000a81548173ffffffffffffffffffffffffffffffffffffffff021916908373ffffffffffffffffffffffffffffffffffffffff1602179055506001600060156101000a81548160ff0219169083151502179055508073ffffffffffffffffffffffffffffffffffffffff16600073ffffffffffffffffffffffffffffffffffffffff167f8be0079c531659141344cd1fd0a4f28419497f9722a3daafe3b4186f6b6457e060405160405180910390a350565b611ec3612149565b73ffffffffffffffffffffffffffffffffffffffff16611ee1611008565b73ffffffffffffffffffffffffffffffffffffffff1614611f37576040517f08c379a0000000000000000000000000000000000000000000000000000000008152600401611f2e90613308565b60405180910390fd5b600073ffffffffffffffffffffffffffffffffffffffff168173ffffffffffffffffffffffffffffffffffffffff161415611f7157600080fd5b8073ffffffffffffffffffffffffffffffffffffffff16600060019054906101000a900473ffffffffffffffffffffffffffffffffffffffff1673ffffffffffffffffffffffffffffffffffffffff167f8be0079c531659141344cd1fd0a4f28419497f9722a3daafe3b4186f6b6457e060405160405180910390a380600060016101000a81548173ffffffffffffffffffffffffffffffffffffffff021916908373ffffffffffffffffffffffffffffffffffffffff16021790555050565b612039612149565b73ffffffffffffffffffffffffffffffffffffffff16612057611008565b73ffffffffffffffffffffffffffffffffffffffff16146120ad576040517f08c379a00000000000000000000000000000000000000000000000000000000081526004016120a490613308565b60405180910390fd5b6120b5612258565b565b3373ffffffffffffffffffffffffffffffffffffffff16600260009054906101000a900473ffffffffffffffffffffffffffffffffffffffff1673ffffffffffffffffffffffffffffffffffffffff1614612147576040517f08c379a000000000000000000000000000000000000000000000000000000000815260040161213e90613248565b60405180910390fd5b565b600033905090565b6121596121ac565b60016000806101000a81548160ff0219169083151502179055507f62e78cea01bee320cd4e420270b5ea74000d11b0c9f74754ebdbfc544b05a258336040516121a29190612ee9565b60405180910390a1565b6000809054906101000a900460ff16156121fb576040517f08c379a00000000000000000000000000000000000000000000000000000000081526004016121f2906132a8565b60405180910390fd5b565b6000838311158290612245576040517f08c379a000000000000000000000000000000000000000000000000000000000815260040161223c91906131c6565b60405180910390fd5b5060008385039050809150509392505050565b6122606122b3565b60008060006101000a81548160ff0219169083151502179055507f5db9ee0a495bf2e6ff9c91a7834c1ba4fdd244a5e8aa4e537bd38aeae4b073aa336040516122a99190612ee9565b60405180910390a1565b6000809054906101000a900460ff16612301576040517f08c379a00000000000000000000000000000000000000000000000000000000081526004016122f8906131e8565b60405180910390fd5b565b828054600181600116156101000203166002900490600052602060002090601f016020900481019282601f1061234457805160ff1916838001178555612372565b82800160010185558215612372579182015b82811115612371578251825591602001919060010190612356565b5b50905061237f9190612383565b5090565b6123a591905b808211156123a1576000816000905550600101612389565b5090565b90565b6000813590506123b78161363c565b92915050565b6000815190506123cc8161363c565b92915050565b6000813590506123e181613653565b92915050565b6000813590506123f68161366a565b92915050565b60008135905061240b81613681565b92915050565b60008135905061242081613698565b92915050565b60008083601f84011261243857600080fd5b8235905067ffffffffffffffff81111561245157600080fd5b60208301915083600182028301111561246957600080fd5b9250929050565b60008135905061247f816136af565b92915050565b600081359050612494816136c6565b92915050565b6000602082840312156124ac57600080fd5b60006124ba848285016123a8565b91505092915050565b6000602082840312156124d557600080fd5b60006124e3848285016123bd565b91505092915050565b600080604083850312156124ff57600080fd5b600061250d858286016123d2565b925050602061251e85828601612470565b9150509250929050565b6000806040838503121561253b57600080fd5b6000612549858286016123a8565b925050602061255a858286016123a8565b9150509250929050565b6000806000806080858703121561257a57600080fd5b6000612588878288016123a8565b9450506020612599878288016123a8565b93505060406125aa878288016123a8565b92505060606125bb87828801612470565b91505092959194509250565b600080604083850312156125da57600080fd5b60006125e8858286016123a8565b92505060206125f9858286016123e7565b9150509250929050565b60008060006060848603121561261857600080fd5b6000612626868287016123a8565b9350506020612637868287016123fc565b9250506040612648868287016123a8565b9150509250925092565b60006020828403121561266457600080fd5b6000612672848285016123fc565b91505092915050565b6000806040838503121561268e57600080fd5b600061269c858286016123fc565b92505060206126ad858286016123fc565b9150509250929050565b6000806000606084860312156126cc57600080fd5b60006126da868287016123fc565b93505060206126eb868287016123fc565b92505060406126fc86828701612470565b9150509250925092565b60006020828403121561271857600080fd5b600061272684828501612411565b91505092915050565b6000806000806080858703121561274557600080fd5b600061275387828801612411565b9450506020612764878288016123fc565b935050604061277587828801612470565b9250506060612786878288016123a8565b91505092959194509250565b600080600080600080600060c0888a0312156127ad57600080fd5b60006127bb8a828b01612411565b97505060206127cc8a828b016123fc565b96505060406127dd8a828b01612470565b95505060606127ee8a828b016123a8565b94505060806127ff8a828b01612470565b93505060a088013567ffffffffffffffff81111561281c57600080fd5b6128288a828b01612426565b925092505092959891949750929550565b60008060008060008060008060e0898b03121561285557600080fd5b60006128638b828c01612411565b98505060206128748b828c01612411565b97505060406128858b828c01612485565b96505060606128968b828c016123fc565b95505060806128a78b828c016123d2565b94505060a06128b88b828c01612470565b93505060c089013567ffffffffffffffff8111156128d557600080fd5b6128e18b828c01612426565b92509250509295985092959890939650565b60008060006060848603121561290857600080fd5b600061291686828701612411565b935050602061292786828701612470565b9250506040612938868287016123a8565b9150509250925092565b60006020828403121561295457600080fd5b600061296284828501612470565b91505092915050565b6000806040838503121561297e57600080fd5b600061298c85828601612470565b925050602061299d85828601612470565b9150509250929050565b600080604083850312156129ba57600080fd5b60006129c885828601612485565b92505060206129d985828601612411565b9150509250929050565b6129ec81613594565b82525050565b6129fb816134ef565b82525050565b612a0a816134dd565b82525050565b612a1981613501565b82525050565b612a288161350d565b82525050565b612a3781613517565b82525050565b6000612a4983856134bb565b9350612a568385846135dc565b612a5f8361361e565b840190509392505050565b6000612a75826134a5565b612a7f81856134bb565b9350612a8f8185602086016135eb565b612a988161361e565b840191505092915050565b6000612aae8261349a565b612ab881856134bb565b9350612ac88185602086016135eb565b612ad18161361e565b840191505092915050565b612ae5816135a6565b82525050565b6000612af6826134b0565b612b0081856134cc565b9350612b108185602086016135eb565b612b198161361e565b840191505092915050565b6000612b316014836134cc565b91507f5061757361626c653a206e6f74207061757365640000000000000000000000006000830152602082019050919050565b6000612b716016836134cc565b91507f496e636f72726563742066656520737570706c696564000000000000000000006000830152602082019050919050565b6000612bb16027836134cc565b91507f7265736f7572636549445370656e646572206e6f74206d617070656420746f2060008301527f68616e646c6572000000000000000000000000000000000000000000000000006020830152604082019050919050565b6000612c17601f836134cc565b91507f73656e646572206973206e6f742061206261636b656e642073657276696365006000830152602082019050919050565b6000612c576020836134cc565b91507f7265736f757263654944206e6f74206d617070656420746f2068616e646c65726000830152602082019050919050565b6000612c976017836134cc565b91507f73656e646572206973206e6f7420612068616e646c65720000000000000000006000830152602082019050919050565b6000612cd76010836134cc565b91507f5061757361626c653a20706175736564000000000000000000000000000000006000830152602082019050919050565b6000612d176025836134cc565b91507f7265736f7572636549444f776e6572206e6f74206d617070656420746f20686160008301527f6e646c65720000000000000000000000000000000000000000000000000000006020830152604082019050919050565b6000612d7d601d836134cc565b91507f496e636f7272656374206665652f616d6f756e7420737570706c6965640000006000830152602082019050919050565b6000612dbd6016836134cc565b91507f73656e6465722073686f756c64206265206f776e6572000000000000000000006000830152602082019050919050565b6000612dfd601f836134cc565b91507f43757272656e742066656520697320657175616c20746f206e657720666565006000830152602082019050919050565b6000612e3d6011836134cc565b91507f436861696e494420496e636f72726563740000000000000000000000000000006000830152602082019050919050565b6000612e7d6019836134cc565b91507f70726f706f73616c20616c7265616479206578656375746564000000000000006000830152602082019050919050565b612eb981613576565b82525050565b612ec881613580565b82525050565b6000602082019050612ee36000830184612a01565b92915050565b6000602082019050612efe60008301846129e3565b92915050565b6000606082019050612f196000830186612a01565b612f266020830185612a01565b612f336040830184612eb0565b949350505050565b6000602082019050612f506000830184612a10565b92915050565b6000602082019050612f6b6000830184612a1f565b92915050565b6000604082019050612f866000830185612a1f565b612f936020830184612a01565b9392505050565b6000608082019050612faf6000830188612a1f565b612fbc60208301876129e3565b612fc96040830186612eb0565b8181036060830152612fdc818486612a3d565b90509695505050505050565b6000606082019050612ffd6000830186612a1f565b61300a6020830185612a01565b6130176040830184612eb0565b949350505050565b600060e082019050613034600083018b612a1f565b613041602083018a612a2e565b61304e6040830189612ebf565b61305b60608301886129e3565b6130686080830187612a01565b61307560a0830186612eb0565b81810360c0830152613088818486612a3d565b90509998505050505050505050565b60006040820190506130ac6000830185612a1f565b81810360208301526130be8184612a6a565b90509392505050565b60006020820190506130dc6000830184612a2e565b92915050565b600060c0820190506130f76000830189612a2e565b61310460208301886129e3565b6131116040830187612a01565b61311e6060830186612a01565b61312b6080830185612eb0565b61313860a0830184612a1f565b979650505050505050565b600060c0820190506131586000830189612a2e565b6131656020830188612a2e565b6131726040830187612ebf565b61317f6060830186612a1f565b61318c6080830185612a01565b61319960a0830184612eb0565b979650505050505050565b600060208201905081810360008301526131be8184612aa3565b905092915050565b600060208201905081810360008301526131e08184612aeb565b905092915050565b6000602082019050818103600083015261320181612b24565b9050919050565b6000602082019050818103600083015261322181612b64565b9050919050565b6000602082019050818103600083015261324181612ba4565b9050919050565b6000602082019050818103600083015261326181612c0a565b9050919050565b6000602082019050818103600083015261328181612c4a565b9050919050565b600060208201905081810360008301526132a181612c8a565b9050919050565b600060208201905081810360008301526132c181612cca565b9050919050565b600060208201905081810360008301526132e181612d0a565b9050919050565b6000602082019050818103600083015261330181612d70565b9050919050565b6000602082019050818103600083015261332181612db0565b9050919050565b6000602082019050818103600083015261334181612df0565b9050919050565b6000602082019050818103600083015261336181612e30565b9050919050565b6000602082019050818103600083015261338181612e70565b9050919050565b600060208201905061339d6000830184612eb0565b92915050565b60006040820190506133b86000830185612eb0565b6133c56020830184612a01565b9392505050565b60006040820190506133e16000830185612eb0565b6133ee60208301846129f2565b9392505050565b600060a08201905061340a6000830188612eb0565b6134176020830187612ebf565b6134246040830186612adc565b6134316060830185612a1f565b61343e6080830184612a1f565b9695505050505050565b600060208201905061345d6000830184612ebf565b92915050565b60006060820190506134786000830186612ebf565b6134856020830185612a2e565b6134926040830184612a2e565b949350505050565b600081519050919050565b600081519050919050565b600081519050919050565b600082825260208201905092915050565b600082825260208201905092915050565b60006134e882613556565b9050919050565b60006134fa82613556565b9050919050565b60008115159050919050565b6000819050919050565b60007fffffffffffffffff00000000000000000000000000000000000000000000000082169050919050565b60008190506135518261362f565b919050565b600073ffffffffffffffffffffffffffffffffffffffff82169050919050565b6000819050919050565b600067ffffffffffffffff82169050919050565b600061359f826135b8565b9050919050565b60006135b182613543565b9050919050565b60006135c3826135ca565b9050919050565b60006135d582613556565b9050919050565b82818337600083830152505050565b60005b838110156136095780820151818401526020810190506135ee565b83811115613618576000848401525b50505050565b6000601f19601f8301169050919050565b6005811061363957fe5b50565b613645816134dd565b811461365057600080fd5b50565b61365c816134ef565b811461366757600080fd5b50565b61367381613501565b811461367e57600080fd5b50565b61368a8161350d565b811461369557600080fd5b50565b6136a181613517565b81146136ac57600080fd5b50565b6136b881613576565b81146136c357600080fd5b50565b6136cf81613580565b81146136da57600080fd5b5056fea2646970667358221220330e4b7f2efc464e1037278ad372ff59f0e491a96a2d1e5d3cbcc6ffa6288d7c64736f6c63430006040033",
					"opcodes": "PUSH1 0x80 PUSH1 0x40 MSTORE CALLVALUE DUP1 ISZERO PUSH2 0x10 JUMPI PUSH1 0x0 DUP1 REVERT JUMPDEST POP PUSH2 0x3713 DUP1 PUSH2 0x20 PUSH1 0x0 CODECOPY PUSH1 0x0 RETURN INVALID PUSH1 0x80 PUSH1 0x40 MSTORE PUSH1 0x4 CALLDATASIZE LT PUSH2 0x1E3 JUMPI PUSH1 0x0 CALLDATALOAD PUSH1 0xE0 SHR DUP1 PUSH4 0x9C1650E0 GT PUSH2 0x102 JUMPI DUP1 PUSH4 0xDD2E8EC3 GT PUSH2 0x95 JUMPI DUP1 PUSH4 0xE4E21FCE GT PUSH2 0x64 JUMPI DUP1 PUSH4 0xE4E21FCE EQ PUSH2 0x6A7 JUMPI DUP1 PUSH4 0xEA439B2B EQ PUSH2 0x6C3 JUMPI DUP1 PUSH4 0xF2FDE38B EQ PUSH2 0x6EC JUMPI DUP1 PUSH4 0xFFAAC0EB EQ PUSH2 0x715 JUMPI PUSH2 0x1E3 JUMP JUMPDEST DUP1 PUSH4 0xDD2E8EC3 EQ PUSH2 0x620 JUMPI DUP1 PUSH4 0xDE771B31 EQ PUSH2 0x64B JUMPI DUP1 PUSH4 0xDF0FC133 EQ PUSH2 0x674 JUMPI DUP1 PUSH4 0xE2C41DBC EQ PUSH2 0x69D JUMPI PUSH2 0x1E3 JUMP JUMPDEST DUP1 PUSH4 0xA737BE4F GT PUSH2 0xD1 JUMPI DUP1 PUSH4 0xA737BE4F EQ PUSH2 0x564 JUMPI DUP1 PUSH4 0xB67D77C5 EQ PUSH2 0x58D JUMPI DUP1 PUSH4 0xBEAB7131 EQ PUSH2 0x5CA JUMPI DUP1 PUSH4 0xC5B37C22 EQ PUSH2 0x5F5 JUMPI PUSH2 0x1E3 JUMP JUMPDEST DUP1 PUSH4 0x9C1650E0 EQ PUSH2 0x496 JUMPI DUP1 PUSH4 0x9CB7DE4B EQ PUSH2 0x4D3 JUMPI DUP1 PUSH4 0xA21B952E EQ PUSH2 0x4FC JUMPI DUP1 PUSH4 0xA48ACE38 EQ PUSH2 0x527 JUMPI PUSH2 0x1E3 JUMP JUMPDEST DUP1 PUSH4 0x7A7EED77 GT PUSH2 0x17A JUMPI DUP1 PUSH4 0x8D225943 GT PUSH2 0x149 JUMPI DUP1 PUSH4 0x8D225943 EQ PUSH2 0x3F0 JUMPI DUP1 PUSH4 0x8DA5CB5B EQ PUSH2 0x419 JUMPI DUP1 PUSH4 0x8ECE6F27 EQ PUSH2 0x444 JUMPI DUP1 PUSH4 0x92C6ECF2 EQ PUSH2 0x46D JUMPI PUSH2 0x1E3 JUMP JUMPDEST DUP1 PUSH4 0x7A7EED77 EQ PUSH2 0x348 JUMPI DUP1 PUSH4 0x7F5D6A5E EQ PUSH2 0x371 JUMPI DUP1 PUSH4 0x80AE1C28 EQ PUSH2 0x39C JUMPI DUP1 PUSH4 0x84DB809F EQ PUSH2 0x3B3 JUMPI PUSH2 0x1E3 JUMP JUMPDEST DUP1 PUSH4 0x5C975ABB GT PUSH2 0x1B6 JUMPI DUP1 PUSH4 0x5C975ABB EQ PUSH2 0x2B4 JUMPI DUP1 PUSH4 0x6A1DB1BF EQ PUSH2 0x2DF JUMPI DUP1 PUSH4 0x715018A6 EQ PUSH2 0x308 JUMPI DUP1 PUSH4 0x780CF004 EQ PUSH2 0x31F JUMPI PUSH2 0x1E3 JUMP JUMPDEST DUP1 PUSH4 0xBF6096F EQ PUSH2 0x1E8 JUMPI DUP1 PUSH4 0x174E300B EQ PUSH2 0x211 JUMPI DUP1 PUSH4 0x1A21C0BC EQ PUSH2 0x24E JUMPI DUP1 PUSH4 0x21016ED8 EQ PUSH2 0x28B JUMPI JUMPDEST PUSH1 0x0 DUP1 REVERT JUMPDEST CALLVALUE DUP1 ISZERO PUSH2 0x1F4 JUMPI PUSH1 0x0 DUP1 REVERT JUMPDEST POP PUSH2 0x20F PUSH1 0x4 DUP1 CALLDATASIZE SUB DUP2 ADD SWAP1 PUSH2 0x20A SWAP2 SWAP1 PUSH2 0x249A JUMP JUMPDEST PUSH2 0x72C JUMP JUMPDEST STOP JUMPDEST CALLVALUE DUP1 ISZERO PUSH2 0x21D JUMPI PUSH1 0x0 DUP1 REVERT JUMPDEST POP PUSH2 0x238 PUSH1 0x4 DUP1 CALLDATASIZE SUB DUP2 ADD SWAP1 PUSH2 0x233 SWAP2 SWAP1 PUSH2 0x2706 JUMP JUMPDEST PUSH2 0x778 JUMP JUMPDEST PUSH1 0x40 MLOAD PUSH2 0x245 SWAP2 SWAP1 PUSH2 0x3448 JUMP JUMPDEST PUSH1 0x40 MLOAD DUP1 SWAP2 SUB SWAP1 RETURN JUMPDEST CALLVALUE DUP1 ISZERO PUSH2 0x25A JUMPI PUSH1 0x0 DUP1 REVERT JUMPDEST POP PUSH2 0x275 PUSH1 0x4 DUP1 CALLDATASIZE SUB DUP2 ADD SWAP1 PUSH2 0x270 SWAP2 SWAP1 PUSH2 0x249A JUMP JUMPDEST PUSH2 0x79F JUMP JUMPDEST PUSH1 0x40 MLOAD PUSH2 0x282 SWAP2 SWAP1 PUSH2 0x2F3B JUMP JUMPDEST PUSH1 0x40 MLOAD DUP1 SWAP2 SUB SWAP1 RETURN JUMPDEST CALLVALUE DUP1 ISZERO PUSH2 0x297 JUMPI PUSH1 0x0 DUP1 REVERT JUMPDEST POP PUSH2 0x2B2 PUSH1 0x4 DUP1 CALLDATASIZE SUB DUP2 ADD SWAP1 PUSH2 0x2AD SWAP2 SWAP1 PUSH2 0x2652 JUMP JUMPDEST PUSH2 0x7BF JUMP JUMPDEST STOP JUMPDEST CALLVALUE DUP1 ISZERO PUSH2 0x2C0 JUMPI PUSH1 0x0 DUP1 REVERT JUMPDEST POP PUSH2 0x2C9 PUSH2 0x7D1 JUMP JUMPDEST PUSH1 0x40 MLOAD PUSH2 0x2D6 SWAP2 SWAP1 PUSH2 0x2F3B JUMP JUMPDEST PUSH1 0x40 MLOAD DUP1 SWAP2 SUB SWAP1 RETURN JUMPDEST CALLVALUE DUP1 ISZERO PUSH2 0x2EB JUMPI PUSH1 0x0 DUP1 REVERT JUMPDEST POP PUSH2 0x306 PUSH1 0x4 DUP1 CALLDATASIZE SUB DUP2 ADD SWAP1 PUSH2 0x301 SWAP2 SWAP1 PUSH2 0x2942 JUMP JUMPDEST PUSH2 0x7E7 JUMP JUMPDEST STOP JUMPDEST CALLVALUE DUP1 ISZERO PUSH2 0x314 JUMPI PUSH1 0x0 DUP1 REVERT JUMPDEST POP PUSH2 0x31D PUSH2 0x83E JUMP JUMPDEST STOP JUMPDEST CALLVALUE DUP1 ISZERO PUSH2 0x32B JUMPI PUSH1 0x0 DUP1 REVERT JUMPDEST POP PUSH2 0x346 PUSH1 0x4 DUP1 CALLDATASIZE SUB DUP2 ADD SWAP1 PUSH2 0x341 SWAP2 SWAP1 PUSH2 0x2564 JUMP JUMPDEST PUSH2 0x97A JUMP JUMPDEST STOP JUMPDEST CALLVALUE DUP1 ISZERO PUSH2 0x354 JUMPI PUSH1 0x0 DUP1 REVERT JUMPDEST POP PUSH2 0x36F PUSH1 0x4 DUP1 CALLDATASIZE SUB DUP2 ADD SWAP1 PUSH2 0x36A SWAP2 SWAP1 PUSH2 0x24EC JUMP JUMPDEST PUSH2 0xA71 JUMP JUMPDEST STOP JUMPDEST CALLVALUE DUP1 ISZERO PUSH2 0x37D JUMPI PUSH1 0x0 DUP1 REVERT JUMPDEST POP PUSH2 0x386 PUSH2 0xB4C JUMP JUMPDEST PUSH1 0x40 MLOAD PUSH2 0x393 SWAP2 SWAP1 PUSH2 0x2ECE JUMP JUMPDEST PUSH1 0x40 MLOAD DUP1 SWAP2 SUB SWAP1 RETURN JUMPDEST CALLVALUE DUP1 ISZERO PUSH2 0x3A8 JUMPI PUSH1 0x0 DUP1 REVERT JUMPDEST POP PUSH2 0x3B1 PUSH2 0xB72 JUMP JUMPDEST STOP JUMPDEST CALLVALUE DUP1 ISZERO PUSH2 0x3BF JUMPI PUSH1 0x0 DUP1 REVERT JUMPDEST POP PUSH2 0x3DA PUSH1 0x4 DUP1 CALLDATASIZE SUB DUP2 ADD SWAP1 PUSH2 0x3D5 SWAP2 SWAP1 PUSH2 0x2652 JUMP JUMPDEST PUSH2 0xBF8 JUMP JUMPDEST PUSH1 0x40 MLOAD PUSH2 0x3E7 SWAP2 SWAP1 PUSH2 0x2ECE JUMP JUMPDEST PUSH1 0x40 MLOAD DUP1 SWAP2 SUB SWAP1 RETURN JUMPDEST CALLVALUE DUP1 ISZERO PUSH2 0x3FC JUMPI PUSH1 0x0 DUP1 REVERT JUMPDEST POP PUSH2 0x417 PUSH1 0x4 DUP1 CALLDATASIZE SUB DUP2 ADD SWAP1 PUSH2 0x412 SWAP2 SWAP1 PUSH2 0x2839 JUMP JUMPDEST PUSH2 0xC2B JUMP JUMPDEST STOP JUMPDEST CALLVALUE DUP1 ISZERO PUSH2 0x425 JUMPI PUSH1 0x0 DUP1 REVERT JUMPDEST POP PUSH2 0x42E PUSH2 0x1008 JUMP JUMPDEST PUSH1 0x40 MLOAD PUSH2 0x43B SWAP2 SWAP1 PUSH2 0x2ECE JUMP JUMPDEST PUSH1 0x40 MLOAD DUP1 SWAP2 SUB SWAP1 RETURN JUMPDEST CALLVALUE DUP1 ISZERO PUSH2 0x450 JUMPI PUSH1 0x0 DUP1 REVERT JUMPDEST POP PUSH2 0x46B PUSH1 0x4 DUP1 CALLDATASIZE SUB DUP2 ADD SWAP1 PUSH2 0x466 SWAP2 SWAP1 PUSH2 0x272F JUMP JUMPDEST PUSH2 0x1031 JUMP JUMPDEST STOP JUMPDEST CALLVALUE DUP1 ISZERO PUSH2 0x479 JUMPI PUSH1 0x0 DUP1 REVERT JUMPDEST POP PUSH2 0x494 PUSH1 0x4 DUP1 CALLDATASIZE SUB DUP2 ADD SWAP1 PUSH2 0x48F SWAP2 SWAP1 PUSH2 0x28F3 JUMP JUMPDEST PUSH2 0x136F JUMP JUMPDEST STOP JUMPDEST CALLVALUE DUP1 ISZERO PUSH2 0x4A2 JUMPI PUSH1 0x0 DUP1 REVERT JUMPDEST POP PUSH2 0x4BD PUSH1 0x4 DUP1 CALLDATASIZE SUB DUP2 ADD SWAP1 PUSH2 0x4B8 SWAP2 SWAP1 PUSH2 0x267B JUMP JUMPDEST PUSH2 0x13E7 JUMP JUMPDEST PUSH1 0x40 MLOAD PUSH2 0x4CA SWAP2 SWAP1 PUSH2 0x2F3B JUMP JUMPDEST PUSH1 0x40 MLOAD DUP1 SWAP2 SUB SWAP1 RETURN JUMPDEST CALLVALUE DUP1 ISZERO PUSH2 0x4DF JUMPI PUSH1 0x0 DUP1 REVERT JUMPDEST POP PUSH2 0x4FA PUSH1 0x4 DUP1 CALLDATASIZE SUB DUP2 ADD SWAP1 PUSH2 0x4F5 SWAP2 SWAP1 PUSH2 0x25C7 JUMP JUMPDEST PUSH2 0x1416 JUMP JUMPDEST STOP JUMPDEST CALLVALUE DUP1 ISZERO PUSH2 0x508 JUMPI PUSH1 0x0 DUP1 REVERT JUMPDEST POP PUSH2 0x511 PUSH2 0x1479 JUMP JUMPDEST PUSH1 0x40 MLOAD PUSH2 0x51E SWAP2 SWAP1 PUSH2 0x2F56 JUMP JUMPDEST PUSH1 0x40 MLOAD DUP1 SWAP2 SUB SWAP1 RETURN JUMPDEST CALLVALUE DUP1 ISZERO PUSH2 0x533 JUMPI PUSH1 0x0 DUP1 REVERT JUMPDEST POP PUSH2 0x54E PUSH1 0x4 DUP1 CALLDATASIZE SUB DUP2 ADD SWAP1 PUSH2 0x549 SWAP2 SWAP1 PUSH2 0x29A7 JUMP JUMPDEST PUSH2 0x147F JUMP JUMPDEST PUSH1 0x40 MLOAD PUSH2 0x55B SWAP2 SWAP1 PUSH2 0x31A4 JUMP JUMPDEST PUSH1 0x40 MLOAD DUP1 SWAP2 SUB SWAP1 RETURN JUMPDEST CALLVALUE DUP1 ISZERO PUSH2 0x570 JUMPI PUSH1 0x0 DUP1 REVERT JUMPDEST POP PUSH2 0x58B PUSH1 0x4 DUP1 CALLDATASIZE SUB DUP2 ADD SWAP1 PUSH2 0x586 SWAP2 SWAP1 PUSH2 0x2603 JUMP JUMPDEST PUSH2 0x153C JUMP JUMPDEST STOP JUMPDEST CALLVALUE DUP1 ISZERO PUSH2 0x599 JUMPI PUSH1 0x0 DUP1 REVERT JUMPDEST POP PUSH2 0x5B4 PUSH1 0x4 DUP1 CALLDATASIZE SUB DUP2 ADD SWAP1 PUSH2 0x5AF SWAP2 SWAP1 PUSH2 0x296B JUMP JUMPDEST PUSH2 0x1666 JUMP JUMPDEST PUSH1 0x40 MLOAD PUSH2 0x5C1 SWAP2 SWAP1 PUSH2 0x3388 JUMP JUMPDEST PUSH1 0x40 MLOAD DUP1 SWAP2 SUB SWAP1 RETURN JUMPDEST CALLVALUE DUP1 ISZERO PUSH2 0x5D6 JUMPI PUSH1 0x0 DUP1 REVERT JUMPDEST POP PUSH2 0x5DF PUSH2 0x16B0 JUMP JUMPDEST PUSH1 0x40 MLOAD PUSH2 0x5EC SWAP2 SWAP1 PUSH2 0x30C7 JUMP JUMPDEST PUSH1 0x40 MLOAD DUP1 SWAP2 SUB SWAP1 RETURN JUMPDEST CALLVALUE DUP1 ISZERO PUSH2 0x601 JUMPI PUSH1 0x0 DUP1 REVERT JUMPDEST POP PUSH2 0x60A PUSH2 0x16C3 JUMP JUMPDEST PUSH1 0x40 MLOAD PUSH2 0x617 SWAP2 SWAP1 PUSH2 0x3388 JUMP JUMPDEST PUSH1 0x40 MLOAD DUP1 SWAP2 SUB SWAP1 RETURN JUMPDEST CALLVALUE DUP1 ISZERO PUSH2 0x62C JUMPI PUSH1 0x0 DUP1 REVERT JUMPDEST POP PUSH2 0x635 PUSH2 0x16C9 JUMP JUMPDEST PUSH1 0x40 MLOAD PUSH2 0x642 SWAP2 SWAP1 PUSH2 0x2F3B JUMP JUMPDEST PUSH1 0x40 MLOAD DUP1 SWAP2 SUB SWAP1 RETURN JUMPDEST CALLVALUE DUP1 ISZERO PUSH2 0x657 JUMPI PUSH1 0x0 DUP1 REVERT JUMPDEST POP PUSH2 0x672 PUSH1 0x4 DUP1 CALLDATASIZE SUB DUP2 ADD SWAP1 PUSH2 0x66D SWAP2 SWAP1 PUSH2 0x26B7 JUMP JUMPDEST PUSH2 0x16DC JUMP JUMPDEST STOP JUMPDEST CALLVALUE DUP1 ISZERO PUSH2 0x680 JUMPI PUSH1 0x0 DUP1 REVERT JUMPDEST POP PUSH2 0x69B PUSH1 0x4 DUP1 CALLDATASIZE SUB DUP2 ADD SWAP1 PUSH2 0x696 SWAP2 SWAP1 PUSH2 0x2528 JUMP JUMPDEST PUSH2 0x18B0 JUMP JUMPDEST STOP JUMPDEST PUSH2 0x6A5 PUSH2 0x192D JUMP JUMPDEST STOP JUMPDEST PUSH2 0x6C1 PUSH1 0x4 DUP1 CALLDATASIZE SUB DUP2 ADD SWAP1 PUSH2 0x6BC SWAP2 SWAP1 PUSH2 0x2792 JUMP JUMPDEST PUSH2 0x19AB JUMP JUMPDEST STOP JUMPDEST CALLVALUE DUP1 ISZERO PUSH2 0x6CF JUMPI PUSH1 0x0 DUP1 REVERT JUMPDEST POP PUSH2 0x6EA PUSH1 0x4 DUP1 CALLDATASIZE SUB DUP2 ADD SWAP1 PUSH2 0x6E5 SWAP2 SWAP1 PUSH2 0x249A JUMP JUMPDEST PUSH2 0x1DE7 JUMP JUMPDEST STOP JUMPDEST CALLVALUE DUP1 ISZERO PUSH2 0x6F8 JUMPI PUSH1 0x0 DUP1 REVERT JUMPDEST POP PUSH2 0x713 PUSH1 0x4 DUP1 CALLDATASIZE SUB DUP2 ADD SWAP1 PUSH2 0x70E SWAP2 SWAP1 PUSH2 0x249A JUMP JUMPDEST PUSH2 0x1EBB JUMP JUMPDEST STOP JUMPDEST CALLVALUE DUP1 ISZERO PUSH2 0x721 JUMPI PUSH1 0x0 DUP1 REVERT JUMPDEST POP PUSH2 0x72A PUSH2 0x2031 JUMP JUMPDEST STOP JUMPDEST PUSH2 0x734 PUSH2 0x20B7 JUMP JUMPDEST DUP1 PUSH1 0x2 PUSH1 0x0 PUSH2 0x100 EXP DUP2 SLOAD DUP2 PUSH20 0xFFFFFFFFFFFFFFFFFFFFFFFFFFFFFFFFFFFFFFFF MUL NOT AND SWAP1 DUP4 PUSH20 0xFFFFFFFFFFFFFFFFFFFFFFFFFFFFFFFFFFFFFFFF AND MUL OR SWAP1 SSTORE POP POP JUMP JUMPDEST PUSH1 0x4 PUSH1 0x20 MSTORE DUP1 PUSH1 0x0 MSTORE PUSH1 0x40 PUSH1 0x0 KECCAK256 PUSH1 0x0 SWAP2 POP SLOAD SWAP1 PUSH2 0x100 EXP SWAP1 DIV PUSH8 0xFFFFFFFFFFFFFFFF AND DUP2 JUMP JUMPDEST PUSH1 0x8 PUSH1 0x20 MSTORE DUP1 PUSH1 0x0 MSTORE PUSH1 0x40 PUSH1 0x0 KECCAK256 PUSH1 0x0 SWAP2 POP SLOAD SWAP1 PUSH2 0x100 EXP SWAP1 DIV PUSH1 0xFF AND DUP2 JUMP JUMPDEST PUSH2 0x7C7 PUSH2 0x20B7 JUMP JUMPDEST DUP1 PUSH1 0x3 DUP2 SWAP1 SSTORE POP POP JUMP JUMPDEST PUSH1 0x0 DUP1 PUSH1 0x0 SWAP1 SLOAD SWAP1 PUSH2 0x100 EXP SWAP1 DIV PUSH1 0xFF AND SWAP1 POP SWAP1 JUMP JUMPDEST PUSH2 0x7EF PUSH2 0x20B7 JUMP JUMPDEST DUP1 PUSH1 0x1 SLOAD EQ ISZERO PUSH2 0x834 JUMPI PUSH1 0x40 MLOAD PUSH32 0x8C379A000000000000000000000000000000000000000000000000000000000 DUP2 MSTORE PUSH1 0x4 ADD PUSH2 0x82B SWAP1 PUSH2 0x3328 JUMP JUMPDEST PUSH1 0x40 MLOAD DUP1 SWAP2 SUB SWAP1 REVERT JUMPDEST DUP1 PUSH1 0x1 DUP2 SWAP1 SSTORE POP POP JUMP JUMPDEST PUSH2 0x846 PUSH2 0x2149 JUMP JUMPDEST PUSH20 0xFFFFFFFFFFFFFFFFFFFFFFFFFFFFFFFFFFFFFFFF AND PUSH2 0x864 PUSH2 0x1008 JUMP JUMPDEST PUSH20 0xFFFFFFFFFFFFFFFFFFFFFFFFFFFFFFFFFFFFFFFF AND EQ PUSH2 0x8BA JUMPI PUSH1 0x40 MLOAD PUSH32 0x8C379A000000000000000000000000000000000000000000000000000000000 DUP2 MSTORE PUSH1 0x4 ADD PUSH2 0x8B1 SWAP1 PUSH2 0x3308 JUMP JUMPDEST PUSH1 0x40 MLOAD DUP1 SWAP2 SUB SWAP1 REVERT JUMPDEST PUSH1 0x0 PUSH20 0xFFFFFFFFFFFFFFFFFFFFFFFFFFFFFFFFFFFFFFFF AND PUSH1 0x0 PUSH1 0x1 SWAP1 SLOAD SWAP1 PUSH2 0x100 EXP SWAP1 DIV PUSH20 0xFFFFFFFFFFFFFFFFFFFFFFFFFFFFFFFFFFFFFFFF AND PUSH20 0xFFFFFFFFFFFFFFFFFFFFFFFFFFFFFFFFFFFFFFFF AND PUSH32 0x8BE0079C531659141344CD1FD0A4F28419497F9722A3DAAFE3B4186F6B6457E0 PUSH1 0x40 MLOAD PUSH1 0x40 MLOAD DUP1 SWAP2 SUB SWAP1 LOG3 PUSH1 0x0 DUP1 PUSH1 0x1 PUSH2 0x100 EXP DUP2 SLOAD DUP2 PUSH20 0xFFFFFFFFFFFFFFFFFFFFFFFFFFFFFFFFFFFFFFFF MUL NOT AND SWAP1 DUP4 PUSH20 0xFFFFFFFFFFFFFFFFFFFFFFFFFFFFFFFFFFFFFFFF AND MUL OR SWAP1 SSTORE POP JUMP JUMPDEST PUSH2 0x982 PUSH2 0x2149 JUMP JUMPDEST PUSH20 0xFFFFFFFFFFFFFFFFFFFFFFFFFFFFFFFFFFFFFFFF AND PUSH2 0x9A0 PUSH2 0x1008 JUMP JUMPDEST PUSH20 0xFFFFFFFFFFFFFFFFFFFFFFFFFFFFFFFFFFFFFFFF AND EQ PUSH2 0x9F6 JUMPI PUSH1 0x40 MLOAD PUSH32 0x8C379A000000000000000000000000000000000000000000000000000000000 DUP2 MSTORE PUSH1 0x4 ADD PUSH2 0x9ED SWAP1 PUSH2 0x3308 JUMP JUMPDEST PUSH1 0x40 MLOAD DUP1 SWAP2 SUB SWAP1 REVERT JUMPDEST PUSH1 0x0 DUP5 SWAP1 POP DUP1 PUSH20 0xFFFFFFFFFFFFFFFFFFFFFFFFFFFFFFFFFFFFFFFF AND PUSH4 0xD9CAED12 DUP6 DUP6 DUP6 PUSH1 0x40 MLOAD DUP5 PUSH4 0xFFFFFFFF AND PUSH1 0xE0 SHL DUP2 MSTORE PUSH1 0x4 ADD PUSH2 0xA38 SWAP4 SWAP3 SWAP2 SWAP1 PUSH2 0x2F04 JUMP JUMPDEST PUSH1 0x0 PUSH1 0x40 MLOAD DUP1 DUP4 SUB DUP2 PUSH1 0x0 DUP8 DUP1 EXTCODESIZE ISZERO DUP1 ISZERO PUSH2 0xA52 JUMPI PUSH1 0x0 DUP1 REVERT JUMPDEST POP GAS CALL ISZERO DUP1 ISZERO PUSH2 0xA66 JUMPI RETURNDATASIZE PUSH1 0x0 DUP1 RETURNDATACOPY RETURNDATASIZE PUSH1 0x0 REVERT JUMPDEST POP POP POP POP POP POP POP POP POP JUMP JUMPDEST PUSH2 0xA79 PUSH2 0x2149 JUMP JUMPDEST PUSH20 0xFFFFFFFFFFFFFFFFFFFFFFFFFFFFFFFFFFFFFFFF AND PUSH2 0xA97 PUSH2 0x1008 JUMP JUMPDEST PUSH20 0xFFFFFFFFFFFFFFFFFFFFFFFFFFFFFFFFFFFFFFFF AND EQ PUSH2 0xAED JUMPI PUSH1 0x40 MLOAD PUSH32 0x8C379A000000000000000000000000000000000000000000000000000000000 DUP2 MSTORE PUSH1 0x4 ADD PUSH2 0xAE4 SWAP1 PUSH2 0x3308 JUMP JUMPDEST PUSH1 0x40 MLOAD DUP1 SWAP2 SUB SWAP1 REVERT JUMPDEST PUSH1 0x0 SELFBALANCE DUP3 LT PUSH2 0xAFC JUMPI SELFBALANCE PUSH2 0xAFE JUMP JUMPDEST DUP2 JUMPDEST SWAP1 POP DUP3 PUSH20 0xFFFFFFFFFFFFFFFFFFFFFFFFFFFFFFFFFFFFFFFF AND PUSH2 0x8FC DUP3 SWAP1 DUP2 ISZERO MUL SWAP1 PUSH1 0x40 MLOAD PUSH1 0x0 PUSH1 0x40 MLOAD DUP1 DUP4 SUB DUP2 DUP6 DUP9 DUP9 CALL SWAP4 POP POP POP POP ISZERO DUP1 ISZERO PUSH2 0xB46 JUMPI RETURNDATASIZE PUSH1 0x0 DUP1 RETURNDATACOPY RETURNDATASIZE PUSH1 0x0 REVERT JUMPDEST POP POP POP POP JUMP JUMPDEST PUSH1 0x2 PUSH1 0x0 SWAP1 SLOAD SWAP1 PUSH2 0x100 EXP SWAP1 DIV PUSH20 0xFFFFFFFFFFFFFFFFFFFFFFFFFFFFFFFFFFFFFFFF AND DUP2 JUMP JUMPDEST PUSH2 0xB7A PUSH2 0x2149 JUMP JUMPDEST PUSH20 0xFFFFFFFFFFFFFFFFFFFFFFFFFFFFFFFFFFFFFFFF AND PUSH2 0xB98 PUSH2 0x1008 JUMP JUMPDEST PUSH20 0xFFFFFFFFFFFFFFFFFFFFFFFFFFFFFFFFFFFFFFFF AND EQ PUSH2 0xBEE JUMPI PUSH1 0x40 MLOAD PUSH32 0x8C379A000000000000000000000000000000000000000000000000000000000 DUP2 MSTORE PUSH1 0x4 ADD PUSH2 0xBE5 SWAP1 PUSH2 0x3308 JUMP JUMPDEST PUSH1 0x40 MLOAD DUP1 SWAP2 SUB SWAP1 REVERT JUMPDEST PUSH2 0xBF6 PUSH2 0x2151 JUMP JUMPDEST JUMP JUMPDEST PUSH1 0x5 PUSH1 0x20 MSTORE DUP1 PUSH1 0x0 MSTORE PUSH1 0x40 PUSH1 0x0 KECCAK256 PUSH1 0x0 SWAP2 POP SLOAD SWAP1 PUSH2 0x100 EXP SWAP1 DIV PUSH20 0xFFFFFFFFFFFFFFFFFFFFFFFFFFFFFFFFFFFFFFFF AND DUP2 JUMP JUMPDEST PUSH2 0xC33 PUSH2 0x20B7 JUMP JUMPDEST PUSH2 0xC3B PUSH2 0x21AC JUMP JUMPDEST PUSH1 0x60 DUP4 DUP6 PUSH1 0x40 MLOAD PUSH1 0x20 ADD PUSH2 0xC50 SWAP3 SWAP2 SWAP1 PUSH2 0x33CC JUMP JUMPDEST PUSH1 0x40 MLOAD PUSH1 0x20 DUP2 DUP4 SUB SUB DUP2 MSTORE SWAP1 PUSH1 0x40 MSTORE SWAP1 POP PUSH1 0x0 DUP8 DUP11 DUP11 PUSH1 0x40 MLOAD PUSH1 0x20 ADD PUSH2 0xC78 SWAP4 SWAP3 SWAP2 SWAP1 PUSH2 0x3463 JUMP JUMPDEST PUSH1 0x40 MLOAD PUSH1 0x20 DUP2 DUP4 SUB SUB DUP2 MSTORE SWAP1 PUSH1 0x40 MSTORE DUP1 MLOAD SWAP1 PUSH1 0x20 ADD KECCAK256 SWAP1 POP PUSH1 0x0 DUP8 DUP4 PUSH1 0x40 MLOAD PUSH1 0x20 ADD PUSH2 0xCA5 SWAP3 SWAP2 SWAP1 PUSH2 0x3097 JUMP JUMPDEST PUSH1 0x40 MLOAD PUSH1 0x20 DUP2 DUP4 SUB SUB DUP2 MSTORE SWAP1 PUSH1 0x40 MSTORE DUP1 MLOAD SWAP1 PUSH1 0x20 ADD KECCAK256 SWAP1 POP PUSH1 0x7 PUSH1 0x0 DUP4 DUP2 MSTORE PUSH1 0x20 ADD SWAP1 DUP2 MSTORE PUSH1 0x20 ADD PUSH1 0x0 KECCAK256 PUSH1 0x0 DUP3 DUP2 MSTORE PUSH1 0x20 ADD SWAP1 DUP2 MSTORE PUSH1 0x20 ADD PUSH1 0x0 KECCAK256 PUSH1 0x0 SWAP1 SLOAD SWAP1 PUSH2 0x100 EXP SWAP1 DIV PUSH1 0xFF AND ISZERO PUSH2 0xD2F JUMPI PUSH1 0x40 MLOAD PUSH32 0x8C379A000000000000000000000000000000000000000000000000000000000 DUP2 MSTORE PUSH1 0x4 ADD PUSH2 0xD26 SWAP1 PUSH2 0x3368 JUMP JUMPDEST PUSH1 0x40 MLOAD DUP1 SWAP2 SUB SWAP1 REVERT JUMPDEST PUSH1 0x0 PUSH1 0x16 SWAP1 SLOAD SWAP1 PUSH2 0x100 EXP SWAP1 DIV PUSH1 0xC0 SHL PUSH24 0xFFFFFFFFFFFFFFFFFFFFFFFFFFFFFFFFFFFFFFFFFFFFFFFF NOT AND DUP11 PUSH24 0xFFFFFFFFFFFFFFFFFFFFFFFFFFFFFFFFFFFFFFFFFFFFFFFF NOT AND EQ PUSH2 0xDB6 JUMPI PUSH1 0x40 MLOAD PUSH32 0x8C379A000000000000000000000000000000000000000000000000000000000 DUP2 MSTORE PUSH1 0x4 ADD PUSH2 0xDAD SWAP1 PUSH2 0x3348 JUMP JUMPDEST PUSH1 0x40 MLOAD DUP1 SWAP2 SUB SWAP1 REVERT JUMPDEST PUSH1 0x1 PUSH1 0x7 PUSH1 0x0 DUP5 DUP2 MSTORE PUSH1 0x20 ADD SWAP1 DUP2 MSTORE PUSH1 0x20 ADD PUSH1 0x0 KECCAK256 PUSH1 0x0 DUP4 DUP2 MSTORE PUSH1 0x20 ADD SWAP1 DUP2 MSTORE PUSH1 0x20 ADD PUSH1 0x0 KECCAK256 PUSH1 0x0 PUSH2 0x100 EXP DUP2 SLOAD DUP2 PUSH1 0xFF MUL NOT AND SWAP1 DUP4 ISZERO ISZERO MUL OR SWAP1 SSTORE POP PUSH1 0x3 SLOAD DUP9 EQ ISZERO PUSH2 0xE49 JUMPI DUP7 PUSH20 0xFFFFFFFFFFFFFFFFFFFFFFFFFFFFFFFFFFFFFFFF AND PUSH2 0x8FC DUP8 SWAP1 DUP2 ISZERO MUL SWAP1 PUSH1 0x40 MLOAD PUSH1 0x0 PUSH1 0x40 MLOAD DUP1 DUP4 SUB DUP2 DUP6 DUP9 DUP9 CALL SWAP4 POP POP POP POP ISZERO DUP1 ISZERO PUSH2 0xE43 JUMPI RETURNDATASIZE PUSH1 0x0 DUP1 RETURNDATACOPY RETURNDATASIZE PUSH1 0x0 REVERT JUMPDEST POP PUSH2 0xF6C JUMP JUMPDEST PUSH1 0x0 PUSH1 0x5 PUSH1 0x0 DUP11 DUP2 MSTORE PUSH1 0x20 ADD SWAP1 DUP2 MSTORE PUSH1 0x20 ADD PUSH1 0x0 KECCAK256 PUSH1 0x0 SWAP1 SLOAD SWAP1 PUSH2 0x100 EXP SWAP1 DIV PUSH20 0xFFFFFFFFFFFFFFFFFFFFFFFFFFFFFFFFFFFFFFFF AND SWAP1 POP PUSH1 0x0 PUSH20 0xFFFFFFFFFFFFFFFFFFFFFFFFFFFFFFFFFFFFFFFF AND DUP2 PUSH20 0xFFFFFFFFFFFFFFFFFFFFFFFFFFFFFFFFFFFFFFFF AND EQ ISZERO PUSH2 0xEF1 JUMPI PUSH1 0x40 MLOAD PUSH32 0x8C379A000000000000000000000000000000000000000000000000000000000 DUP2 MSTORE PUSH1 0x4 ADD PUSH2 0xEE8 SWAP1 PUSH2 0x3268 JUMP JUMPDEST PUSH1 0x40 MLOAD DUP1 SWAP2 SUB SWAP1 REVERT JUMPDEST PUSH1 0x0 DUP2 SWAP1 POP DUP1 PUSH20 0xFFFFFFFFFFFFFFFFFFFFFFFFFFFFFFFFFFFFFFFF AND PUSH4 0x728E218F DUP12 DUP12 DUP12 DUP12 DUP12 PUSH1 0x40 MLOAD DUP7 PUSH4 0xFFFFFFFF AND PUSH1 0xE0 SHL DUP2 MSTORE PUSH1 0x4 ADD PUSH2 0xF37 SWAP6 SWAP5 SWAP4 SWAP3 SWAP2 SWAP1 PUSH2 0x2F9A JUMP JUMPDEST PUSH1 0x0 PUSH1 0x40 MLOAD DUP1 DUP4 SUB DUP2 PUSH1 0x0 DUP8 DUP1 EXTCODESIZE ISZERO DUP1 ISZERO PUSH2 0xF51 JUMPI PUSH1 0x0 DUP1 REVERT JUMPDEST POP GAS CALL ISZERO DUP1 ISZERO PUSH2 0xF65 JUMPI RETURNDATASIZE PUSH1 0x0 DUP1 RETURNDATACOPY RETURNDATASIZE PUSH1 0x0 REVERT JUMPDEST POP POP POP POP POP POP JUMPDEST DUP7 PUSH20 0xFFFFFFFFFFFFFFFFFFFFFFFFFFFFFFFFFFFFFFFF AND DUP11 PUSH24 0xFFFFFFFFFFFFFFFFFFFFFFFFFFFFFFFFFFFFFFFFFFFFFFFF NOT AND DUP13 PUSH24 0xFFFFFFFFFFFFFFFFFFFFFFFFFFFFFFFFFFFFFFFFFFFFFFFF NOT AND PUSH32 0x9686DCABD0450CAD86A88DF15A9D35B08B35D1B08A19008DF37CF8538C467516 DUP10 DUP14 PUSH1 0x3 DUP15 DUP9 PUSH1 0x40 MLOAD PUSH2 0xFF3 SWAP6 SWAP5 SWAP4 SWAP3 SWAP2 SWAP1 PUSH2 0x33F5 JUMP JUMPDEST PUSH1 0x40 MLOAD DUP1 SWAP2 SUB SWAP1 LOG4 POP POP POP POP POP POP POP POP POP POP POP JUMP JUMPDEST PUSH1 0x0 DUP1 PUSH1 0x1 SWAP1 SLOAD SWAP1 PUSH2 0x100 EXP SWAP1 DIV PUSH20 0xFFFFFFFFFFFFFFFFFFFFFFFFFFFFFFFFFFFFFFFF AND SWAP1 POP SWAP1 JUMP JUMPDEST PUSH2 0x1039 PUSH2 0x21AC JUMP JUMPDEST PUSH1 0x8 PUSH1 0x0 CALLER PUSH20 0xFFFFFFFFFFFFFFFFFFFFFFFFFFFFFFFFFFFFFFFF AND PUSH20 0xFFFFFFFFFFFFFFFFFFFFFFFFFFFFFFFFFFFFFFFF AND DUP2 MSTORE PUSH1 0x20 ADD SWAP1 DUP2 MSTORE PUSH1 0x20 ADD PUSH1 0x0 KECCAK256 PUSH1 0x0 SWAP1 SLOAD SWAP1 PUSH2 0x100 EXP SWAP1 DIV PUSH1 0xFF AND PUSH2 0x10C5 JUMPI PUSH1 0x40 MLOAD PUSH32 0x8C379A000000000000000000000000000000000000000000000000000000000 DUP2 MSTORE PUSH1 0x4 ADD PUSH2 0x10BC SWAP1 PUSH2 0x3288 JUMP JUMPDEST PUSH1 0x40 MLOAD DUP1 SWAP2 SUB SWAP1 REVERT JUMPDEST PUSH1 0x0 PUSH1 0x4 PUSH1 0x0 DUP7 PUSH24 0xFFFFFFFFFFFFFFFFFFFFFFFFFFFFFFFFFFFFFFFFFFFFFFFF NOT AND PUSH24 0xFFFFFFFFFFFFFFFFFFFFFFFFFFFFFFFFFFFFFFFFFFFFFFFF NOT AND DUP2 MSTORE PUSH1 0x20 ADD SWAP1 DUP2 MSTORE PUSH1 0x20 ADD PUSH1 0x0 KECCAK256 PUSH1 0x0 DUP2 DUP2 SWAP1 SLOAD SWAP1 PUSH2 0x100 EXP SWAP1 DIV PUSH8 0xFFFFFFFFFFFFFFFF AND PUSH1 0x1 ADD SWAP2 SWAP1 PUSH2 0x100 EXP DUP2 SLOAD DUP2 PUSH8 0xFFFFFFFFFFFFFFFF MUL NOT AND SWAP1 DUP4 PUSH8 0xFFFFFFFFFFFFFFFF AND MUL OR SWAP1 SSTORE SWAP1 POP PUSH1 0x60 DUP4 DUP4 PUSH1 0x40 MLOAD PUSH1 0x20 ADD PUSH2 0x1166 SWAP3 SWAP2 SWAP1 PUSH2 0x33A3 JUMP JUMPDEST PUSH1 0x40 MLOAD PUSH1 0x20 DUP2 DUP4 SUB SUB DUP2 MSTORE SWAP1 PUSH1 0x40 MSTORE SWAP1 POP PUSH1 0x0 DUP6 DUP3 PUSH1 0x40 MLOAD PUSH1 0x20 ADD PUSH2 0x118C SWAP3 SWAP2 SWAP1 PUSH2 0x3097 JUMP JUMPDEST PUSH1 0x40 MLOAD PUSH1 0x20 DUP2 DUP4 SUB SUB DUP2 MSTORE SWAP1 PUSH1 0x40 MSTORE DUP1 MLOAD SWAP1 PUSH1 0x20 ADD KECCAK256 SWAP1 POP DUP2 PUSH1 0x6 PUSH1 0x0 DUP6 PUSH8 0xFFFFFFFFFFFFFFFF AND PUSH8 0xFFFFFFFFFFFFFFFF AND DUP2 MSTORE PUSH1 0x20 ADD SWAP1 DUP2 MSTORE PUSH1 0x20 ADD PUSH1 0x0 KECCAK256 PUSH1 0x0 DUP10 PUSH24 0xFFFFFFFFFFFFFFFFFFFFFFFFFFFFFFFFFFFFFFFFFFFFFFFF NOT AND PUSH24 0xFFFFFFFFFFFFFFFFFFFFFFFFFFFFFFFFFFFFFFFFFFFFFFFF NOT AND DUP2 MSTORE PUSH1 0x20 ADD SWAP1 DUP2 MSTORE PUSH1 0x20 ADD PUSH1 0x0 KECCAK256 SWAP1 DUP1 MLOAD SWAP1 PUSH1 0x20 ADD SWAP1 PUSH2 0x1226 SWAP3 SWAP2 SWAP1 PUSH2 0x2303 JUMP JUMPDEST POP PUSH1 0x0 PUSH1 0x5 PUSH1 0x0 DUP9 DUP2 MSTORE PUSH1 0x20 ADD SWAP1 DUP2 MSTORE PUSH1 0x20 ADD PUSH1 0x0 KECCAK256 PUSH1 0x0 SWAP1 SLOAD SWAP1 PUSH2 0x100 EXP SWAP1 DIV PUSH20 0xFFFFFFFFFFFFFFFFFFFFFFFFFFFFFFFFFFFFFFFF AND SWAP1 POP PUSH1 0x0 DUP2 PUSH20 0xFFFFFFFFFFFFFFFFFFFFFFFFFFFFFFFFFFFFFFFF AND PUSH4 0xA7A3FB40 DUP10 PUSH1 0x40 MLOAD DUP3 PUSH4 0xFFFFFFFF AND PUSH1 0xE0 SHL DUP2 MSTORE PUSH1 0x4 ADD PUSH2 0x129A SWAP2 SWAP1 PUSH2 0x2F56 JUMP JUMPDEST PUSH1 0x20 PUSH1 0x40 MLOAD DUP1 DUP4 SUB DUP2 DUP7 DUP1 EXTCODESIZE ISZERO DUP1 ISZERO PUSH2 0x12B2 JUMPI PUSH1 0x0 DUP1 REVERT JUMPDEST POP GAS STATICCALL ISZERO DUP1 ISZERO PUSH2 0x12C6 JUMPI RETURNDATASIZE PUSH1 0x0 DUP1 RETURNDATACOPY RETURNDATASIZE PUSH1 0x0 REVERT JUMPDEST POP POP POP POP PUSH1 0x40 MLOAD RETURNDATASIZE PUSH1 0x1F NOT PUSH1 0x1F DUP3 ADD AND DUP3 ADD DUP1 PUSH1 0x40 MSTORE POP DUP2 ADD SWAP1 PUSH2 0x12EA SWAP2 SWAP1 PUSH2 0x24C3 JUMP JUMPDEST SWAP1 POP DUP5 PUSH8 0xFFFFFFFFFFFFFFFF AND DUP9 DUP11 PUSH24 0xFFFFFFFFFFFFFFFFFFFFFFFFFFFFFFFFFFFFFFFFFFFFFFFF NOT AND PUSH32 0x370525803FFA9A7C0E6ADB3868E393DCA45D8B42B2F62FD1F23ECFE99F6CE8FC PUSH1 0x0 PUSH1 0x16 SWAP1 SLOAD SWAP1 PUSH2 0x100 EXP SWAP1 DIV PUSH1 0xC0 SHL CALLER DUP12 DUP8 DUP15 DUP12 PUSH1 0x40 MLOAD PUSH2 0x135C SWAP7 SWAP6 SWAP5 SWAP4 SWAP3 SWAP2 SWAP1 PUSH2 0x30E2 JUMP JUMPDEST PUSH1 0x40 MLOAD DUP1 SWAP2 SUB SWAP1 LOG4 POP POP POP POP POP POP POP POP POP JUMP JUMPDEST DUP3 PUSH1 0x0 PUSH1 0x16 PUSH2 0x100 EXP DUP2 SLOAD DUP2 PUSH8 0xFFFFFFFFFFFFFFFF MUL NOT AND SWAP1 DUP4 PUSH1 0xC0 SHR MUL OR SWAP1 SSTORE POP DUP2 PUSH1 0x1 DUP2 SWAP1 SSTORE POP DUP1 PUSH1 0x2 PUSH1 0x0 PUSH2 0x100 EXP DUP2 SLOAD DUP2 PUSH20 0xFFFFFFFFFFFFFFFFFFFFFFFFFFFFFFFFFFFFFFFF MUL NOT AND SWAP1 DUP4 PUSH20 0xFFFFFFFFFFFFFFFFFFFFFFFFFFFFFFFFFFFFFFFF AND MUL OR SWAP1 SSTORE POP PUSH2 0x13E2 CALLER PUSH2 0x1DE7 JUMP JUMPDEST POP POP POP JUMP JUMPDEST PUSH1 0x7 PUSH1 0x20 MSTORE DUP2 PUSH1 0x0 MSTORE PUSH1 0x40 PUSH1 0x0 KECCAK256 PUSH1 0x20 MSTORE DUP1 PUSH1 0x0 MSTORE PUSH1 0x40 PUSH1 0x0 KECCAK256 PUSH1 0x0 SWAP2 POP SWAP2 POP SWAP1 SLOAD SWAP1 PUSH2 0x100 EXP SWAP1 DIV PUSH1 0xFF AND DUP2 JUMP JUMPDEST PUSH2 0x141E PUSH2 0x20B7 JUMP JUMPDEST DUP1 PUSH1 0x8 PUSH1 0x0 DUP5 PUSH20 0xFFFFFFFFFFFFFFFFFFFFFFFFFFFFFFFFFFFFFFFF AND PUSH20 0xFFFFFFFFFFFFFFFFFFFFFFFFFFFFFFFFFFFFFFFF AND DUP2 MSTORE PUSH1 0x20 ADD SWAP1 DUP2 MSTORE PUSH1 0x20 ADD PUSH1 0x0 KECCAK256 PUSH1 0x0 PUSH2 0x100 EXP DUP2 SLOAD DUP2 PUSH1 0xFF MUL NOT AND SWAP1 DUP4 ISZERO ISZERO MUL OR SWAP1 SSTORE POP POP POP JUMP JUMPDEST PUSH1 0x3 SLOAD DUP2 JUMP JUMPDEST PUSH1 0x6 PUSH1 0x20 MSTORE DUP2 PUSH1 0x0 MSTORE PUSH1 0x40 PUSH1 0x0 KECCAK256 PUSH1 0x20 MSTORE DUP1 PUSH1 0x0 MSTORE PUSH1 0x40 PUSH1 0x0 KECCAK256 PUSH1 0x0 SWAP2 POP SWAP2 POP POP DUP1 SLOAD PUSH1 0x1 DUP2 PUSH1 0x1 AND ISZERO PUSH2 0x100 MUL SUB AND PUSH1 0x2 SWAP1 DIV DUP1 PUSH1 0x1F ADD PUSH1 0x20 DUP1 SWAP2 DIV MUL PUSH1 0x20 ADD PUSH1 0x40 MLOAD SWAP1 DUP2 ADD PUSH1 0x40 MSTORE DUP1 SWAP3 SWAP2 SWAP1 DUP2 DUP2 MSTORE PUSH1 0x20 ADD DUP3 DUP1 SLOAD PUSH1 0x1 DUP2 PUSH1 0x1 AND ISZERO PUSH2 0x100 MUL SUB AND PUSH1 0x2 SWAP1 DIV DUP1 ISZERO PUSH2 0x1534 JUMPI DUP1 PUSH1 0x1F LT PUSH2 0x1509 JUMPI PUSH2 0x100 DUP1 DUP4 SLOAD DIV MUL DUP4 MSTORE SWAP2 PUSH1 0x20 ADD SWAP2 PUSH2 0x1534 JUMP JUMPDEST DUP3 ADD SWAP2 SWAP1 PUSH1 0x0 MSTORE PUSH1 0x20 PUSH1 0x0 KECCAK256 SWAP1 JUMPDEST DUP2 SLOAD DUP2 MSTORE SWAP1 PUSH1 0x1 ADD SWAP1 PUSH1 0x20 ADD DUP1 DUP4 GT PUSH2 0x1517 JUMPI DUP3 SWAP1 SUB PUSH1 0x1F AND DUP3 ADD SWAP2 JUMPDEST POP POP POP POP POP DUP2 JUMP JUMPDEST PUSH2 0x1544 PUSH2 0x20B7 JUMP JUMPDEST DUP3 PUSH1 0x5 PUSH1 0x0 DUP5 DUP2 MSTORE PUSH1 0x20 ADD SWAP1 DUP2 MSTORE PUSH1 0x20 ADD PUSH1 0x0 KECCAK256 PUSH1 0x0 PUSH2 0x100 EXP DUP2 SLOAD DUP2 PUSH20 0xFFFFFFFFFFFFFFFFFFFFFFFFFFFFFFFFFFFFFFFF MUL NOT AND SWAP1 DUP4 PUSH20 0xFFFFFFFFFFFFFFFFFFFFFFFFFFFFFFFFFFFFFFFF AND MUL OR SWAP1 SSTORE POP PUSH1 0x0 DUP4 SWAP1 POP DUP1 PUSH20 0xFFFFFFFFFFFFFFFFFFFFFFFFFFFFFFFFFFFFFFFF AND PUSH4 0xB8FA3736 DUP5 DUP5 PUSH1 0x40 MLOAD DUP4 PUSH4 0xFFFFFFFF AND PUSH1 0xE0 SHL DUP2 MSTORE PUSH1 0x4 ADD PUSH2 0x15D6 SWAP3 SWAP2 SWAP1 PUSH2 0x2F71 JUMP JUMPDEST PUSH1 0x0 PUSH1 0x40 MLOAD DUP1 DUP4 SUB DUP2 PUSH1 0x0 DUP8 DUP1 EXTCODESIZE ISZERO DUP1 ISZERO PUSH2 0x15F0 JUMPI PUSH1 0x0 DUP1 REVERT JUMPDEST POP GAS CALL ISZERO DUP1 ISZERO PUSH2 0x1604 JUMPI RETURNDATASIZE PUSH1 0x0 DUP1 RETURNDATACOPY RETURNDATASIZE PUSH1 0x0 REVERT JUMPDEST POP POP POP POP PUSH1 0x1 PUSH1 0x8 PUSH1 0x0 DUP7 PUSH20 0xFFFFFFFFFFFFFFFFFFFFFFFFFFFFFFFFFFFFFFFF AND PUSH20 0xFFFFFFFFFFFFFFFFFFFFFFFFFFFFFFFFFFFFFFFF AND DUP2 MSTORE PUSH1 0x20 ADD SWAP1 DUP2 MSTORE PUSH1 0x20 ADD PUSH1 0x0 KECCAK256 PUSH1 0x0 PUSH2 0x100 EXP DUP2 SLOAD DUP2 PUSH1 0xFF MUL NOT AND SWAP1 DUP4 ISZERO ISZERO MUL OR SWAP1 SSTORE POP POP POP POP POP JUMP JUMPDEST PUSH1 0x0 PUSH2 0x16A8 DUP4 DUP4 PUSH1 0x40 MLOAD DUP1 PUSH1 0x40 ADD PUSH1 0x40 MSTORE DUP1 PUSH1 0x1E DUP2 MSTORE PUSH1 0x20 ADD PUSH32 0x536166654D6174683A207375627472616374696F6E206F766572666C6F770000 DUP2 MSTORE POP PUSH2 0x21FD JUMP JUMPDEST SWAP1 POP SWAP3 SWAP2 POP POP JUMP JUMPDEST PUSH1 0x0 PUSH1 0x16 SWAP1 SLOAD SWAP1 PUSH2 0x100 EXP SWAP1 DIV PUSH1 0xC0 SHL DUP2 JUMP JUMPDEST PUSH1 0x1 SLOAD DUP2 JUMP JUMPDEST PUSH1 0x0 PUSH1 0x15 SWAP1 SLOAD SWAP1 PUSH2 0x100 EXP SWAP1 DIV PUSH1 0xFF AND DUP2 JUMP JUMPDEST PUSH2 0x16E4 PUSH2 0x20B7 JUMP JUMPDEST PUSH1 0x0 PUSH1 0x5 PUSH1 0x0 DUP6 DUP2 MSTORE PUSH1 0x20 ADD SWAP1 DUP2 MSTORE PUSH1 0x20 ADD PUSH1 0x0 KECCAK256 PUSH1 0x0 SWAP1 SLOAD SWAP1 PUSH2 0x100 EXP SWAP1 DIV PUSH20 0xFFFFFFFFFFFFFFFFFFFFFFFFFFFFFFFFFFFFFFFF AND SWAP1 POP PUSH1 0x0 PUSH20 0xFFFFFFFFFFFFFFFFFFFFFFFFFFFFFFFFFFFFFFFF AND DUP2 PUSH20 0xFFFFFFFFFFFFFFFFFFFFFFFFFFFFFFFFFFFFFFFF AND EQ ISZERO PUSH2 0x178C JUMPI PUSH1 0x40 MLOAD PUSH32 0x8C379A000000000000000000000000000000000000000000000000000000000 DUP2 MSTORE PUSH1 0x4 ADD PUSH2 0x1783 SWAP1 PUSH2 0x32C8 JUMP JUMPDEST PUSH1 0x40 MLOAD DUP1 SWAP2 SUB SWAP1 REVERT JUMPDEST PUSH1 0x0 PUSH1 0x5 PUSH1 0x0 DUP6 DUP2 MSTORE PUSH1 0x20 ADD SWAP1 DUP2 MSTORE PUSH1 0x20 ADD PUSH1 0x0 KECCAK256 PUSH1 0x0 SWAP1 SLOAD SWAP1 PUSH2 0x100 EXP SWAP1 DIV PUSH20 0xFFFFFFFFFFFFFFFFFFFFFFFFFFFFFFFFFFFFFFFF AND SWAP1 POP PUSH1 0x0 PUSH20 0xFFFFFFFFFFFFFFFFFFFFFFFFFFFFFFFFFFFFFFFF AND DUP2 PUSH20 0xFFFFFFFFFFFFFFFFFFFFFFFFFFFFFFFFFFFFFFFF AND EQ ISZERO PUSH2 0x1834 JUMPI PUSH1 0x40 MLOAD PUSH32 0x8C379A000000000000000000000000000000000000000000000000000000000 DUP2 MSTORE PUSH1 0x4 ADD PUSH2 0x182B SWAP1 PUSH2 0x3228 JUMP JUMPDEST PUSH1 0x40 MLOAD DUP1 SWAP2 SUB SWAP1 REVERT JUMPDEST PUSH1 0x0 DUP3 SWAP1 POP DUP1 PUSH20 0xFFFFFFFFFFFFFFFFFFFFFFFFFFFFFFFFFFFFFFFF AND PUSH4 0xBF1ED1EB DUP8 DUP5 DUP8 PUSH1 0x40 MLOAD DUP5 PUSH4 0xFFFFFFFF AND PUSH1 0xE0 SHL DUP2 MSTORE PUSH1 0x4 ADD PUSH2 0x1876 SWAP4 SWAP3 SWAP2 SWAP1 PUSH2 0x2FE8 JUMP JUMPDEST PUSH1 0x0 PUSH1 0x40 MLOAD DUP1 DUP4 SUB DUP2 PUSH1 0x0 DUP8 DUP1 EXTCODESIZE ISZERO DUP1 ISZERO PUSH2 0x1890 JUMPI PUSH1 0x0 DUP1 REVERT JUMPDEST POP GAS CALL ISZERO DUP1 ISZERO PUSH2 0x18A4 JUMPI RETURNDATASIZE PUSH1 0x0 DUP1 RETURNDATACOPY RETURNDATASIZE PUSH1 0x0 REVERT JUMPDEST POP POP POP POP POP POP POP POP POP POP JUMP JUMPDEST PUSH2 0x18B8 PUSH2 0x20B7 JUMP JUMPDEST PUSH1 0x0 DUP3 SWAP1 POP DUP1 PUSH20 0xFFFFFFFFFFFFFFFFFFFFFFFFFFFFFFFFFFFFFFFF AND PUSH4 0x7B7ED99 DUP4 PUSH1 0x40 MLOAD DUP3 PUSH4 0xFFFFFFFF AND PUSH1 0xE0 SHL DUP2 MSTORE PUSH1 0x4 ADD PUSH2 0x18F6 SWAP2 SWAP1 PUSH2 0x2ECE JUMP JUMPDEST PUSH1 0x0 PUSH1 0x40 MLOAD DUP1 DUP4 SUB DUP2 PUSH1 0x0 DUP8 DUP1 EXTCODESIZE ISZERO DUP1 ISZERO PUSH2 0x1910 JUMPI PUSH1 0x0 DUP1 REVERT JUMPDEST POP GAS CALL ISZERO DUP1 ISZERO PUSH2 0x1924 JUMPI RETURNDATASIZE PUSH1 0x0 DUP1 RETURNDATACOPY RETURNDATASIZE PUSH1 0x0 REVERT JUMPDEST POP POP POP POP POP POP POP JUMP JUMPDEST PUSH2 0x1935 PUSH2 0x2149 JUMP JUMPDEST PUSH20 0xFFFFFFFFFFFFFFFFFFFFFFFFFFFFFFFFFFFFFFFF AND PUSH2 0x1953 PUSH2 0x1008 JUMP JUMPDEST PUSH20 0xFFFFFFFFFFFFFFFFFFFFFFFFFFFFFFFFFFFFFFFF AND EQ PUSH2 0x19A9 JUMPI PUSH1 0x40 MLOAD PUSH32 0x8C379A000000000000000000000000000000000000000000000000000000000 DUP2 MSTORE PUSH1 0x4 ADD PUSH2 0x19A0 SWAP1 PUSH2 0x3308 JUMP JUMPDEST PUSH1 0x40 MLOAD DUP1 SWAP2 SUB SWAP1 REVERT JUMPDEST JUMP JUMPDEST PUSH2 0x19B3 PUSH2 0x21AC JUMP JUMPDEST PUSH1 0x0 PUSH1 0x4 PUSH1 0x0 DUP10 PUSH24 0xFFFFFFFFFFFFFFFFFFFFFFFFFFFFFFFFFFFFFFFFFFFFFFFF NOT AND PUSH24 0xFFFFFFFFFFFFFFFFFFFFFFFFFFFFFFFFFFFFFFFFFFFFFFFF NOT AND DUP2 MSTORE PUSH1 0x20 ADD SWAP1 DUP2 MSTORE PUSH1 0x20 ADD PUSH1 0x0 KECCAK256 PUSH1 0x0 DUP2 DUP2 SWAP1 SLOAD SWAP1 PUSH2 0x100 EXP SWAP1 DIV PUSH8 0xFFFFFFFFFFFFFFFF AND PUSH1 0x1 ADD SWAP2 SWAP1 PUSH2 0x100 EXP DUP2 SLOAD DUP2 PUSH8 0xFFFFFFFFFFFFFFFF MUL NOT AND SWAP1 DUP4 PUSH8 0xFFFFFFFFFFFFFFFF AND MUL OR SWAP1 SSTORE SWAP1 POP PUSH1 0x60 DUP7 DUP7 PUSH1 0x40 MLOAD PUSH1 0x20 ADD PUSH2 0x1A54 SWAP3 SWAP2 SWAP1 PUSH2 0x33A3 JUMP JUMPDEST PUSH1 0x40 MLOAD PUSH1 0x20 DUP2 DUP4 SUB SUB DUP2 MSTORE SWAP1 PUSH1 0x40 MSTORE SWAP1 POP PUSH1 0x0 DUP9 DUP3 PUSH1 0x40 MLOAD PUSH1 0x20 ADD PUSH2 0x1A7A SWAP3 SWAP2 SWAP1 PUSH2 0x3097 JUMP JUMPDEST PUSH1 0x40 MLOAD PUSH1 0x20 DUP2 DUP4 SUB SUB DUP2 MSTORE SWAP1 PUSH1 0x40 MSTORE DUP1 MLOAD SWAP1 PUSH1 0x20 ADD KECCAK256 SWAP1 POP DUP2 PUSH1 0x6 PUSH1 0x0 DUP6 PUSH8 0xFFFFFFFFFFFFFFFF AND PUSH8 0xFFFFFFFFFFFFFFFF AND DUP2 MSTORE PUSH1 0x20 ADD SWAP1 DUP2 MSTORE PUSH1 0x20 ADD PUSH1 0x0 KECCAK256 PUSH1 0x0 DUP13 PUSH24 0xFFFFFFFFFFFFFFFFFFFFFFFFFFFFFFFFFFFFFFFFFFFFFFFF NOT AND PUSH24 0xFFFFFFFFFFFFFFFFFFFFFFFFFFFFFFFFFFFFFFFFFFFFFFFF NOT AND DUP2 MSTORE PUSH1 0x20 ADD SWAP1 DUP2 MSTORE PUSH1 0x20 ADD PUSH1 0x0 KECCAK256 SWAP1 DUP1 MLOAD SWAP1 PUSH1 0x20 ADD SWAP1 PUSH2 0x1B14 SWAP3 SWAP2 SWAP1 PUSH2 0x2303 JUMP JUMPDEST POP PUSH1 0x0 DUP1 DUP8 DUP11 ADD SWAP1 POP PUSH1 0x3 SLOAD DUP12 EQ ISZERO PUSH2 0x1B77 JUMPI PUSH1 0x1 SLOAD DUP2 ADD CALLVALUE LT ISZERO PUSH2 0x1B6E JUMPI PUSH1 0x40 MLOAD PUSH32 0x8C379A000000000000000000000000000000000000000000000000000000000 DUP2 MSTORE PUSH1 0x4 ADD PUSH2 0x1B65 SWAP1 PUSH2 0x32E8 JUMP JUMPDEST PUSH1 0x40 MLOAD DUP1 SWAP2 SUB SWAP1 REVERT JUMPDEST PUSH1 0x0 SWAP2 POP PUSH2 0x1D01 JUMP JUMPDEST PUSH1 0x1 SLOAD CALLVALUE LT ISZERO PUSH2 0x1BBC JUMPI PUSH1 0x40 MLOAD PUSH32 0x8C379A000000000000000000000000000000000000000000000000000000000 DUP2 MSTORE PUSH1 0x4 ADD PUSH2 0x1BB3 SWAP1 PUSH2 0x3208 JUMP JUMPDEST PUSH1 0x40 MLOAD DUP1 SWAP2 SUB SWAP1 REVERT JUMPDEST PUSH1 0x0 PUSH1 0x5 PUSH1 0x0 DUP14 DUP2 MSTORE PUSH1 0x20 ADD SWAP1 DUP2 MSTORE PUSH1 0x20 ADD PUSH1 0x0 KECCAK256 PUSH1 0x0 SWAP1 SLOAD SWAP1 PUSH2 0x100 EXP SWAP1 DIV PUSH20 0xFFFFFFFFFFFFFFFFFFFFFFFFFFFFFFFFFFFFFFFF AND SWAP1 POP PUSH1 0x0 PUSH20 0xFFFFFFFFFFFFFFFFFFFFFFFFFFFFFFFFFFFFFFFF AND DUP2 PUSH20 0xFFFFFFFFFFFFFFFFFFFFFFFFFFFFFFFFFFFFFFFF AND EQ ISZERO PUSH2 0x1C64 JUMPI PUSH1 0x40 MLOAD PUSH32 0x8C379A000000000000000000000000000000000000000000000000000000000 DUP2 MSTORE PUSH1 0x4 ADD PUSH2 0x1C5B SWAP1 PUSH2 0x3268 JUMP JUMPDEST PUSH1 0x40 MLOAD DUP1 SWAP2 SUB SWAP1 REVERT JUMPDEST DUP1 PUSH20 0xFFFFFFFFFFFFFFFFFFFFFFFFFFFFFFFFFFFFFFFF AND PUSH4 0x75CD9CCE DUP14 DUP16 DUP10 CALLER DUP16 DUP9 DUP16 DUP16 PUSH1 0x40 MLOAD DUP10 PUSH4 0xFFFFFFFF AND PUSH1 0xE0 SHL DUP2 MSTORE PUSH1 0x4 ADD PUSH2 0x1CAB SWAP9 SWAP8 SWAP7 SWAP6 SWAP5 SWAP4 SWAP3 SWAP2 SWAP1 PUSH2 0x301F JUMP JUMPDEST PUSH1 0x20 PUSH1 0x40 MLOAD DUP1 DUP4 SUB DUP2 PUSH1 0x0 DUP8 DUP1 EXTCODESIZE ISZERO DUP1 ISZERO PUSH2 0x1CC5 JUMPI PUSH1 0x0 DUP1 REVERT JUMPDEST POP GAS CALL ISZERO DUP1 ISZERO PUSH2 0x1CD9 JUMPI RETURNDATASIZE PUSH1 0x0 DUP1 RETURNDATACOPY RETURNDATASIZE PUSH1 0x0 REVERT JUMPDEST POP POP POP POP PUSH1 0x40 MLOAD RETURNDATASIZE PUSH1 0x1F NOT PUSH1 0x1F DUP3 ADD AND DUP3 ADD DUP1 PUSH1 0x40 MSTORE POP DUP2 ADD SWAP1 PUSH2 0x1CFD SWAP2 SWAP1 PUSH2 0x24C3 JUMP JUMPDEST SWAP3 POP POP JUMPDEST PUSH1 0x0 DUP9 GT ISZERO PUSH2 0x1D5B JUMPI PUSH32 0x525223E7C9E63747E47DD4558940766054DA3D0378F4006848D2A201545F55A4 PUSH1 0x0 PUSH1 0x16 SWAP1 SLOAD SWAP1 PUSH2 0x100 EXP SWAP1 DIV PUSH1 0xC0 SHL DUP14 DUP8 DUP15 DUP14 DUP14 PUSH1 0x40 MLOAD PUSH2 0x1D52 SWAP7 SWAP6 SWAP5 SWAP4 SWAP3 SWAP2 SWAP1 PUSH2 0x3143 JUMP JUMPDEST PUSH1 0x40 MLOAD DUP1 SWAP2 SUB SWAP1 LOG1 JUMPDEST PUSH1 0x0 DUP11 SWAP1 POP DUP6 PUSH8 0xFFFFFFFFFFFFFFFF AND DUP13 DUP15 PUSH24 0xFFFFFFFFFFFFFFFFFFFFFFFFFFFFFFFFFFFFFFFFFFFFFFFF NOT AND PUSH32 0x370525803FFA9A7C0E6ADB3868E393DCA45D8B42B2F62FD1F23ECFE99F6CE8FC PUSH1 0x0 PUSH1 0x16 SWAP1 SLOAD SWAP1 PUSH2 0x100 EXP SWAP1 DIV PUSH1 0xC0 SHL CALLER DUP16 DUP10 DUP9 DUP13 PUSH1 0x40 MLOAD PUSH2 0x1DD0 SWAP7 SWAP6 SWAP5 SWAP4 SWAP3 SWAP2 SWAP1 PUSH2 0x30E2 JUMP JUMPDEST PUSH1 0x40 MLOAD DUP1 SWAP2 SUB SWAP1 LOG4 POP POP POP POP POP POP POP POP POP POP POP POP POP JUMP JUMPDEST PUSH1 0x0 PUSH1 0x15 SWAP1 SLOAD SWAP1 PUSH2 0x100 EXP SWAP1 DIV PUSH1 0xFF AND ISZERO PUSH2 0x1E01 JUMPI PUSH1 0x0 DUP1 REVERT JUMPDEST DUP1 PUSH1 0x0 PUSH1 0x1 PUSH2 0x100 EXP DUP2 SLOAD DUP2 PUSH20 0xFFFFFFFFFFFFFFFFFFFFFFFFFFFFFFFFFFFFFFFF MUL NOT AND SWAP1 DUP4 PUSH20 0xFFFFFFFFFFFFFFFFFFFFFFFFFFFFFFFFFFFFFFFF AND MUL OR SWAP1 SSTORE POP PUSH1 0x1 PUSH1 0x0 PUSH1 0x15 PUSH2 0x100 EXP DUP2 SLOAD DUP2 PUSH1 0xFF MUL NOT AND SWAP1 DUP4 ISZERO ISZERO MUL OR SWAP1 SSTORE POP DUP1 PUSH20 0xFFFFFFFFFFFFFFFFFFFFFFFFFFFFFFFFFFFFFFFF AND PUSH1 0x0 PUSH20 0xFFFFFFFFFFFFFFFFFFFFFFFFFFFFFFFFFFFFFFFF AND PUSH32 0x8BE0079C531659141344CD1FD0A4F28419497F9722A3DAAFE3B4186F6B6457E0 PUSH1 0x40 MLOAD PUSH1 0x40 MLOAD DUP1 SWAP2 SUB SWAP1 LOG3 POP JUMP JUMPDEST PUSH2 0x1EC3 PUSH2 0x2149 JUMP JUMPDEST PUSH20 0xFFFFFFFFFFFFFFFFFFFFFFFFFFFFFFFFFFFFFFFF AND PUSH2 0x1EE1 PUSH2 0x1008 JUMP JUMPDEST PUSH20 0xFFFFFFFFFFFFFFFFFFFFFFFFFFFFFFFFFFFFFFFF AND EQ PUSH2 0x1F37 JUMPI PUSH1 0x40 MLOAD PUSH32 0x8C379A000000000000000000000000000000000000000000000000000000000 DUP2 MSTORE PUSH1 0x4 ADD PUSH2 0x1F2E SWAP1 PUSH2 0x3308 JUMP JUMPDEST PUSH1 0x40 MLOAD DUP1 SWAP2 SUB SWAP1 REVERT JUMPDEST PUSH1 0x0 PUSH20 0xFFFFFFFFFFFFFFFFFFFFFFFFFFFFFFFFFFFFFFFF AND DUP2 PUSH20 0xFFFFFFFFFFFFFFFFFFFFFFFFFFFFFFFFFFFFFFFF AND EQ ISZERO PUSH2 0x1F71 JUMPI PUSH1 0x0 DUP1 REVERT JUMPDEST DUP1 PUSH20 0xFFFFFFFFFFFFFFFFFFFFFFFFFFFFFFFFFFFFFFFF AND PUSH1 0x0 PUSH1 0x1 SWAP1 SLOAD SWAP1 PUSH2 0x100 EXP SWAP1 DIV PUSH20 0xFFFFFFFFFFFFFFFFFFFFFFFFFFFFFFFFFFFFFFFF AND PUSH20 0xFFFFFFFFFFFFFFFFFFFFFFFFFFFFFFFFFFFFFFFF AND PUSH32 0x8BE0079C531659141344CD1FD0A4F28419497F9722A3DAAFE3B4186F6B6457E0 PUSH1 0x40 MLOAD PUSH1 0x40 MLOAD DUP1 SWAP2 SUB SWAP1 LOG3 DUP1 PUSH1 0x0 PUSH1 0x1 PUSH2 0x100 EXP DUP2 SLOAD DUP2 PUSH20 0xFFFFFFFFFFFFFFFFFFFFFFFFFFFFFFFFFFFFFFFF MUL NOT AND SWAP1 DUP4 PUSH20 0xFFFFFFFFFFFFFFFFFFFFFFFFFFFFFFFFFFFFFFFF AND MUL OR SWAP1 SSTORE POP POP JUMP JUMPDEST PUSH2 0x2039 PUSH2 0x2149 JUMP JUMPDEST PUSH20 0xFFFFFFFFFFFFFFFFFFFFFFFFFFFFFFFFFFFFFFFF AND PUSH2 0x2057 PUSH2 0x1008 JUMP JUMPDEST PUSH20 0xFFFFFFFFFFFFFFFFFFFFFFFFFFFFFFFFFFFFFFFF AND EQ PUSH2 0x20AD JUMPI PUSH1 0x40 MLOAD PUSH32 0x8C379A000000000000000000000000000000000000000000000000000000000 DUP2 MSTORE PUSH1 0x4 ADD PUSH2 0x20A4 SWAP1 PUSH2 0x3308 JUMP JUMPDEST PUSH1 0x40 MLOAD DUP1 SWAP2 SUB SWAP1 REVERT JUMPDEST PUSH2 0x20B5 PUSH2 0x2258 JUMP JUMPDEST JUMP JUMPDEST CALLER PUSH20 0xFFFFFFFFFFFFFFFFFFFFFFFFFFFFFFFFFFFFFFFF AND PUSH1 0x2 PUSH1 0x0 SWAP1 SLOAD SWAP1 PUSH2 0x100 EXP SWAP1 DIV PUSH20 0xFFFFFFFFFFFFFFFFFFFFFFFFFFFFFFFFFFFFFFFF AND PUSH20 0xFFFFFFFFFFFFFFFFFFFFFFFFFFFFFFFFFFFFFFFF AND EQ PUSH2 0x2147 JUMPI PUSH1 0x40 MLOAD PUSH32 0x8C379A000000000000000000000000000000000000000000000000000000000 DUP2 MSTORE PUSH1 0x4 ADD PUSH2 0x213E SWAP1 PUSH2 0x3248 JUMP JUMPDEST PUSH1 0x40 MLOAD DUP1 SWAP2 SUB SWAP1 REVERT JUMPDEST JUMP JUMPDEST PUSH1 0x0 CALLER SWAP1 POP SWAP1 JUMP JUMPDEST PUSH2 0x2159 PUSH2 0x21AC JUMP JUMPDEST PUSH1 0x1 PUSH1 0x0 DUP1 PUSH2 0x100 EXP DUP2 SLOAD DUP2 PUSH1 0xFF MUL NOT AND SWAP1 DUP4 ISZERO ISZERO MUL OR SWAP1 SSTORE POP PUSH32 0x62E78CEA01BEE320CD4E420270B5EA74000D11B0C9F74754EBDBFC544B05A258 CALLER PUSH1 0x40 MLOAD PUSH2 0x21A2 SWAP2 SWAP1 PUSH2 0x2EE9 JUMP JUMPDEST PUSH1 0x40 MLOAD DUP1 SWAP2 SUB SWAP1 LOG1 JUMP JUMPDEST PUSH1 0x0 DUP1 SWAP1 SLOAD SWAP1 PUSH2 0x100 EXP SWAP1 DIV PUSH1 0xFF AND ISZERO PUSH2 0x21FB JUMPI PUSH1 0x40 MLOAD PUSH32 0x8C379A000000000000000000000000000000000000000000000000000000000 DUP2 MSTORE PUSH1 0x4 ADD PUSH2 0x21F2 SWAP1 PUSH2 0x32A8 JUMP JUMPDEST PUSH1 0x40 MLOAD DUP1 SWAP2 SUB SWAP1 REVERT JUMPDEST JUMP JUMPDEST PUSH1 0x0 DUP4 DUP4 GT ISZERO DUP3 SWAP1 PUSH2 0x2245 JUMPI PUSH1 0x40 MLOAD PUSH32 0x8C379A000000000000000000000000000000000000000000000000000000000 DUP2 MSTORE PUSH1 0x4 ADD PUSH2 0x223C SWAP2 SWAP1 PUSH2 0x31C6 JUMP JUMPDEST PUSH1 0x40 MLOAD DUP1 SWAP2 SUB SWAP1 REVERT JUMPDEST POP PUSH1 0x0 DUP4 DUP6 SUB SWAP1 POP DUP1 SWAP2 POP POP SWAP4 SWAP3 POP POP POP JUMP JUMPDEST PUSH2 0x2260 PUSH2 0x22B3 JUMP JUMPDEST PUSH1 0x0 DUP1 PUSH1 0x0 PUSH2 0x100 EXP DUP2 SLOAD DUP2 PUSH1 0xFF MUL NOT AND SWAP1 DUP4 ISZERO ISZERO MUL OR SWAP1 SSTORE POP PUSH32 0x5DB9EE0A495BF2E6FF9C91A7834C1BA4FDD244A5E8AA4E537BD38AEAE4B073AA CALLER PUSH1 0x40 MLOAD PUSH2 0x22A9 SWAP2 SWAP1 PUSH2 0x2EE9 JUMP JUMPDEST PUSH1 0x40 MLOAD DUP1 SWAP2 SUB SWAP1 LOG1 JUMP JUMPDEST PUSH1 0x0 DUP1 SWAP1 SLOAD SWAP1 PUSH2 0x100 EXP SWAP1 DIV PUSH1 0xFF AND PUSH2 0x2301 JUMPI PUSH1 0x40 MLOAD PUSH32 0x8C379A000000000000000000000000000000000000000000000000000000000 DUP2 MSTORE PUSH1 0x4 ADD PUSH2 0x22F8 SWAP1 PUSH2 0x31E8 JUMP JUMPDEST PUSH1 0x40 MLOAD DUP1 SWAP2 SUB SWAP1 REVERT JUMPDEST JUMP JUMPDEST DUP3 DUP1 SLOAD PUSH1 0x1 DUP2 PUSH1 0x1 AND ISZERO PUSH2 0x100 MUL SUB AND PUSH1 0x2 SWAP1 DIV SWAP1 PUSH1 0x0 MSTORE PUSH1 0x20 PUSH1 0x0 KECCAK256 SWAP1 PUSH1 0x1F ADD PUSH1 0x20 SWAP1 DIV DUP2 ADD SWAP3 DUP3 PUSH1 0x1F LT PUSH2 0x2344 JUMPI DUP1 MLOAD PUSH1 0xFF NOT AND DUP4 DUP1 ADD OR DUP6 SSTORE PUSH2 0x2372 JUMP JUMPDEST DUP3 DUP1 ADD PUSH1 0x1 ADD DUP6 SSTORE DUP3 ISZERO PUSH2 0x2372 JUMPI SWAP2 DUP3 ADD JUMPDEST DUP3 DUP2 GT ISZERO PUSH2 0x2371 JUMPI DUP3 MLOAD DUP3 SSTORE SWAP2 PUSH1 0x20 ADD SWAP2 SWAP1 PUSH1 0x1 ADD SWAP1 PUSH2 0x2356 JUMP JUMPDEST JUMPDEST POP SWAP1 POP PUSH2 0x237F SWAP2 SWAP1 PUSH2 0x2383 JUMP JUMPDEST POP SWAP1 JUMP JUMPDEST PUSH2 0x23A5 SWAP2 SWAP1 JUMPDEST DUP1 DUP3 GT ISZERO PUSH2 0x23A1 JUMPI PUSH1 0x0 DUP2 PUSH1 0x0 SWAP1 SSTORE POP PUSH1 0x1 ADD PUSH2 0x2389 JUMP JUMPDEST POP SWAP1 JUMP JUMPDEST SWAP1 JUMP JUMPDEST PUSH1 0x0 DUP2 CALLDATALOAD SWAP1 POP PUSH2 0x23B7 DUP2 PUSH2 0x363C JUMP JUMPDEST SWAP3 SWAP2 POP POP JUMP JUMPDEST PUSH1 0x0 DUP2 MLOAD SWAP1 POP PUSH2 0x23CC DUP2 PUSH2 0x363C JUMP JUMPDEST SWAP3 SWAP2 POP POP JUMP JUMPDEST PUSH1 0x0 DUP2 CALLDATALOAD SWAP1 POP PUSH2 0x23E1 DUP2 PUSH2 0x3653 JUMP JUMPDEST SWAP3 SWAP2 POP POP JUMP JUMPDEST PUSH1 0x0 DUP2 CALLDATALOAD SWAP1 POP PUSH2 0x23F6 DUP2 PUSH2 0x366A JUMP JUMPDEST SWAP3 SWAP2 POP POP JUMP JUMPDEST PUSH1 0x0 DUP2 CALLDATALOAD SWAP1 POP PUSH2 0x240B DUP2 PUSH2 0x3681 JUMP JUMPDEST SWAP3 SWAP2 POP POP JUMP JUMPDEST PUSH1 0x0 DUP2 CALLDATALOAD SWAP1 POP PUSH2 0x2420 DUP2 PUSH2 0x3698 JUMP JUMPDEST SWAP3 SWAP2 POP POP JUMP JUMPDEST PUSH1 0x0 DUP1 DUP4 PUSH1 0x1F DUP5 ADD SLT PUSH2 0x2438 JUMPI PUSH1 0x0 DUP1 REVERT JUMPDEST DUP3 CALLDATALOAD SWAP1 POP PUSH8 0xFFFFFFFFFFFFFFFF DUP2 GT ISZERO PUSH2 0x2451 JUMPI PUSH1 0x0 DUP1 REVERT JUMPDEST PUSH1 0x20 DUP4 ADD SWAP2 POP DUP4 PUSH1 0x1 DUP3 MUL DUP4 ADD GT ISZERO PUSH2 0x2469 JUMPI PUSH1 0x0 DUP1 REVERT JUMPDEST SWAP3 POP SWAP3 SWAP1 POP JUMP JUMPDEST PUSH1 0x0 DUP2 CALLDATALOAD SWAP1 POP PUSH2 0x247F DUP2 PUSH2 0x36AF JUMP JUMPDEST SWAP3 SWAP2 POP POP JUMP JUMPDEST PUSH1 0x0 DUP2 CALLDATALOAD SWAP1 POP PUSH2 0x2494 DUP2 PUSH2 0x36C6 JUMP JUMPDEST SWAP3 SWAP2 POP POP JUMP JUMPDEST PUSH1 0x0 PUSH1 0x20 DUP3 DUP5 SUB SLT ISZERO PUSH2 0x24AC JUMPI PUSH1 0x0 DUP1 REVERT JUMPDEST PUSH1 0x0 PUSH2 0x24BA DUP5 DUP3 DUP6 ADD PUSH2 0x23A8 JUMP JUMPDEST SWAP2 POP POP SWAP3 SWAP2 POP POP JUMP JUMPDEST PUSH1 0x0 PUSH1 0x20 DUP3 DUP5 SUB SLT ISZERO PUSH2 0x24D5 JUMPI PUSH1 0x0 DUP1 REVERT JUMPDEST PUSH1 0x0 PUSH2 0x24E3 DUP5 DUP3 DUP6 ADD PUSH2 0x23BD JUMP JUMPDEST SWAP2 POP POP SWAP3 SWAP2 POP POP JUMP JUMPDEST PUSH1 0x0 DUP1 PUSH1 0x40 DUP4 DUP6 SUB SLT ISZERO PUSH2 0x24FF JUMPI PUSH1 0x0 DUP1 REVERT JUMPDEST PUSH1 0x0 PUSH2 0x250D DUP6 DUP3 DUP7 ADD PUSH2 0x23D2 JUMP JUMPDEST SWAP3 POP POP PUSH1 0x20 PUSH2 0x251E DUP6 DUP3 DUP7 ADD PUSH2 0x2470 JUMP JUMPDEST SWAP2 POP POP SWAP3 POP SWAP3 SWAP1 POP JUMP JUMPDEST PUSH1 0x0 DUP1 PUSH1 0x40 DUP4 DUP6 SUB SLT ISZERO PUSH2 0x253B JUMPI PUSH1 0x0 DUP1 REVERT JUMPDEST PUSH1 0x0 PUSH2 0x2549 DUP6 DUP3 DUP7 ADD PUSH2 0x23A8 JUMP JUMPDEST SWAP3 POP POP PUSH1 0x20 PUSH2 0x255A DUP6 DUP3 DUP7 ADD PUSH2 0x23A8 JUMP JUMPDEST SWAP2 POP POP SWAP3 POP SWAP3 SWAP1 POP JUMP JUMPDEST PUSH1 0x0 DUP1 PUSH1 0x0 DUP1 PUSH1 0x80 DUP6 DUP8 SUB SLT ISZERO PUSH2 0x257A JUMPI PUSH1 0x0 DUP1 REVERT JUMPDEST PUSH1 0x0 PUSH2 0x2588 DUP8 DUP3 DUP9 ADD PUSH2 0x23A8 JUMP JUMPDEST SWAP5 POP POP PUSH1 0x20 PUSH2 0x2599 DUP8 DUP3 DUP9 ADD PUSH2 0x23A8 JUMP JUMPDEST SWAP4 POP POP PUSH1 0x40 PUSH2 0x25AA DUP8 DUP3 DUP9 ADD PUSH2 0x23A8 JUMP JUMPDEST SWAP3 POP POP PUSH1 0x60 PUSH2 0x25BB DUP8 DUP3 DUP9 ADD PUSH2 0x2470 JUMP JUMPDEST SWAP2 POP POP SWAP3 SWAP6 SWAP2 SWAP5 POP SWAP3 POP JUMP JUMPDEST PUSH1 0x0 DUP1 PUSH1 0x40 DUP4 DUP6 SUB SLT ISZERO PUSH2 0x25DA JUMPI PUSH1 0x0 DUP1 REVERT JUMPDEST PUSH1 0x0 PUSH2 0x25E8 DUP6 DUP3 DUP7 ADD PUSH2 0x23A8 JUMP JUMPDEST SWAP3 POP POP PUSH1 0x20 PUSH2 0x25F9 DUP6 DUP3 DUP7 ADD PUSH2 0x23E7 JUMP JUMPDEST SWAP2 POP POP SWAP3 POP SWAP3 SWAP1 POP JUMP JUMPDEST PUSH1 0x0 DUP1 PUSH1 0x0 PUSH1 0x60 DUP5 DUP7 SUB SLT ISZERO PUSH2 0x2618 JUMPI PUSH1 0x0 DUP1 REVERT JUMPDEST PUSH1 0x0 PUSH2 0x2626 DUP7 DUP3 DUP8 ADD PUSH2 0x23A8 JUMP JUMPDEST SWAP4 POP POP PUSH1 0x20 PUSH2 0x2637 DUP7 DUP3 DUP8 ADD PUSH2 0x23FC JUMP JUMPDEST SWAP3 POP POP PUSH1 0x40 PUSH2 0x2648 DUP7 DUP3 DUP8 ADD PUSH2 0x23A8 JUMP JUMPDEST SWAP2 POP POP SWAP3 POP SWAP3 POP SWAP3 JUMP JUMPDEST PUSH1 0x0 PUSH1 0x20 DUP3 DUP5 SUB SLT ISZERO PUSH2 0x2664 JUMPI PUSH1 0x0 DUP1 REVERT JUMPDEST PUSH1 0x0 PUSH2 0x2672 DUP5 DUP3 DUP6 ADD PUSH2 0x23FC JUMP JUMPDEST SWAP2 POP POP SWAP3 SWAP2 POP POP JUMP JUMPDEST PUSH1 0x0 DUP1 PUSH1 0x40 DUP4 DUP6 SUB SLT ISZERO PUSH2 0x268E JUMPI PUSH1 0x0 DUP1 REVERT JUMPDEST PUSH1 0x0 PUSH2 0x269C DUP6 DUP3 DUP7 ADD PUSH2 0x23FC JUMP JUMPDEST SWAP3 POP POP PUSH1 0x20 PUSH2 0x26AD DUP6 DUP3 DUP7 ADD PUSH2 0x23FC JUMP JUMPDEST SWAP2 POP POP SWAP3 POP SWAP3 SWAP1 POP JUMP JUMPDEST PUSH1 0x0 DUP1 PUSH1 0x0 PUSH1 0x60 DUP5 DUP7 SUB SLT ISZERO PUSH2 0x26CC JUMPI PUSH1 0x0 DUP1 REVERT JUMPDEST PUSH1 0x0 PUSH2 0x26DA DUP7 DUP3 DUP8 ADD PUSH2 0x23FC JUMP JUMPDEST SWAP4 POP POP PUSH1 0x20 PUSH2 0x26EB DUP7 DUP3 DUP8 ADD PUSH2 0x23FC JUMP JUMPDEST SWAP3 POP POP PUSH1 0x40 PUSH2 0x26FC DUP7 DUP3 DUP8 ADD PUSH2 0x2470 JUMP JUMPDEST SWAP2 POP POP SWAP3 POP SWAP3 POP SWAP3 JUMP JUMPDEST PUSH1 0x0 PUSH1 0x20 DUP3 DUP5 SUB SLT ISZERO PUSH2 0x2718 JUMPI PUSH1 0x0 DUP1 REVERT JUMPDEST PUSH1 0x0 PUSH2 0x2726 DUP5 DUP3 DUP6 ADD PUSH2 0x2411 JUMP JUMPDEST SWAP2 POP POP SWAP3 SWAP2 POP POP JUMP JUMPDEST PUSH1 0x0 DUP1 PUSH1 0x0 DUP1 PUSH1 0x80 DUP6 DUP8 SUB SLT ISZERO PUSH2 0x2745 JUMPI PUSH1 0x0 DUP1 REVERT JUMPDEST PUSH1 0x0 PUSH2 0x2753 DUP8 DUP3 DUP9 ADD PUSH2 0x2411 JUMP JUMPDEST SWAP5 POP POP PUSH1 0x20 PUSH2 0x2764 DUP8 DUP3 DUP9 ADD PUSH2 0x23FC JUMP JUMPDEST SWAP4 POP POP PUSH1 0x40 PUSH2 0x2775 DUP8 DUP3 DUP9 ADD PUSH2 0x2470 JUMP JUMPDEST SWAP3 POP POP PUSH1 0x60 PUSH2 0x2786 DUP8 DUP3 DUP9 ADD PUSH2 0x23A8 JUMP JUMPDEST SWAP2 POP POP SWAP3 SWAP6 SWAP2 SWAP5 POP SWAP3 POP JUMP JUMPDEST PUSH1 0x0 DUP1 PUSH1 0x0 DUP1 PUSH1 0x0 DUP1 PUSH1 0x0 PUSH1 0xC0 DUP9 DUP11 SUB SLT ISZERO PUSH2 0x27AD JUMPI PUSH1 0x0 DUP1 REVERT JUMPDEST PUSH1 0x0 PUSH2 0x27BB DUP11 DUP3 DUP12 ADD PUSH2 0x2411 JUMP JUMPDEST SWAP8 POP POP PUSH1 0x20 PUSH2 0x27CC DUP11 DUP3 DUP12 ADD PUSH2 0x23FC JUMP JUMPDEST SWAP7 POP POP PUSH1 0x40 PUSH2 0x27DD DUP11 DUP3 DUP12 ADD PUSH2 0x2470 JUMP JUMPDEST SWAP6 POP POP PUSH1 0x60 PUSH2 0x27EE DUP11 DUP3 DUP12 ADD PUSH2 0x23A8 JUMP JUMPDEST SWAP5 POP POP PUSH1 0x80 PUSH2 0x27FF DUP11 DUP3 DUP12 ADD PUSH2 0x2470 JUMP JUMPDEST SWAP4 POP POP PUSH1 0xA0 DUP9 ADD CALLDATALOAD PUSH8 0xFFFFFFFFFFFFFFFF DUP2 GT ISZERO PUSH2 0x281C JUMPI PUSH1 0x0 DUP1 REVERT JUMPDEST PUSH2 0x2828 DUP11 DUP3 DUP12 ADD PUSH2 0x2426 JUMP JUMPDEST SWAP3 POP SWAP3 POP POP SWAP3 SWAP6 SWAP9 SWAP2 SWAP5 SWAP8 POP SWAP3 SWAP6 POP JUMP JUMPDEST PUSH1 0x0 DUP1 PUSH1 0x0 DUP1 PUSH1 0x0 DUP1 PUSH1 0x0 DUP1 PUSH1 0xE0 DUP10 DUP12 SUB SLT ISZERO PUSH2 0x2855 JUMPI PUSH1 0x0 DUP1 REVERT JUMPDEST PUSH1 0x0 PUSH2 0x2863 DUP12 DUP3 DUP13 ADD PUSH2 0x2411 JUMP JUMPDEST SWAP9 POP POP PUSH1 0x20 PUSH2 0x2874 DUP12 DUP3 DUP13 ADD PUSH2 0x2411 JUMP JUMPDEST SWAP8 POP POP PUSH1 0x40 PUSH2 0x2885 DUP12 DUP3 DUP13 ADD PUSH2 0x2485 JUMP JUMPDEST SWAP7 POP POP PUSH1 0x60 PUSH2 0x2896 DUP12 DUP3 DUP13 ADD PUSH2 0x23FC JUMP JUMPDEST SWAP6 POP POP PUSH1 0x80 PUSH2 0x28A7 DUP12 DUP3 DUP13 ADD PUSH2 0x23D2 JUMP JUMPDEST SWAP5 POP POP PUSH1 0xA0 PUSH2 0x28B8 DUP12 DUP3 DUP13 ADD PUSH2 0x2470 JUMP JUMPDEST SWAP4 POP POP PUSH1 0xC0 DUP10 ADD CALLDATALOAD PUSH8 0xFFFFFFFFFFFFFFFF DUP2 GT ISZERO PUSH2 0x28D5 JUMPI PUSH1 0x0 DUP1 REVERT JUMPDEST PUSH2 0x28E1 DUP12 DUP3 DUP13 ADD PUSH2 0x2426 JUMP JUMPDEST SWAP3 POP SWAP3 POP POP SWAP3 SWAP6 SWAP9 POP SWAP3 SWAP6 SWAP9 SWAP1 SWAP4 SWAP7 POP JUMP JUMPDEST PUSH1 0x0 DUP1 PUSH1 0x0 PUSH1 0x60 DUP5 DUP7 SUB SLT ISZERO PUSH2 0x2908 JUMPI PUSH1 0x0 DUP1 REVERT JUMPDEST PUSH1 0x0 PUSH2 0x2916 DUP7 DUP3 DUP8 ADD PUSH2 0x2411 JUMP JUMPDEST SWAP4 POP POP PUSH1 0x20 PUSH2 0x2927 DUP7 DUP3 DUP8 ADD PUSH2 0x2470 JUMP JUMPDEST SWAP3 POP POP PUSH1 0x40 PUSH2 0x2938 DUP7 DUP3 DUP8 ADD PUSH2 0x23A8 JUMP JUMPDEST SWAP2 POP POP SWAP3 POP SWAP3 POP SWAP3 JUMP JUMPDEST PUSH1 0x0 PUSH1 0x20 DUP3 DUP5 SUB SLT ISZERO PUSH2 0x2954 JUMPI PUSH1 0x0 DUP1 REVERT JUMPDEST PUSH1 0x0 PUSH2 0x2962 DUP5 DUP3 DUP6 ADD PUSH2 0x2470 JUMP JUMPDEST SWAP2 POP POP SWAP3 SWAP2 POP POP JUMP JUMPDEST PUSH1 0x0 DUP1 PUSH1 0x40 DUP4 DUP6 SUB SLT ISZERO PUSH2 0x297E JUMPI PUSH1 0x0 DUP1 REVERT JUMPDEST PUSH1 0x0 PUSH2 0x298C DUP6 DUP3 DUP7 ADD PUSH2 0x2470 JUMP JUMPDEST SWAP3 POP POP PUSH1 0x20 PUSH2 0x299D DUP6 DUP3 DUP7 ADD PUSH2 0x2470 JUMP JUMPDEST SWAP2 POP POP SWAP3 POP SWAP3 SWAP1 POP JUMP JUMPDEST PUSH1 0x0 DUP1 PUSH1 0x40 DUP4 DUP6 SUB SLT ISZERO PUSH2 0x29BA JUMPI PUSH1 0x0 DUP1 REVERT JUMPDEST PUSH1 0x0 PUSH2 0x29C8 DUP6 DUP3 DUP7 ADD PUSH2 0x2485 JUMP JUMPDEST SWAP3 POP POP PUSH1 0x20 PUSH2 0x29D9 DUP6 DUP3 DUP7 ADD PUSH2 0x2411 JUMP JUMPDEST SWAP2 POP POP SWAP3 POP SWAP3 SWAP1 POP JUMP JUMPDEST PUSH2 0x29EC DUP2 PUSH2 0x3594 JUMP JUMPDEST DUP3 MSTORE POP POP JUMP JUMPDEST PUSH2 0x29FB DUP2 PUSH2 0x34EF JUMP JUMPDEST DUP3 MSTORE POP POP JUMP JUMPDEST PUSH2 0x2A0A DUP2 PUSH2 0x34DD JUMP JUMPDEST DUP3 MSTORE POP POP JUMP JUMPDEST PUSH2 0x2A19 DUP2 PUSH2 0x3501 JUMP JUMPDEST DUP3 MSTORE POP POP JUMP JUMPDEST PUSH2 0x2A28 DUP2 PUSH2 0x350D JUMP JUMPDEST DUP3 MSTORE POP POP JUMP JUMPDEST PUSH2 0x2A37 DUP2 PUSH2 0x3517 JUMP JUMPDEST DUP3 MSTORE POP POP JUMP JUMPDEST PUSH1 0x0 PUSH2 0x2A49 DUP4 DUP6 PUSH2 0x34BB JUMP JUMPDEST SWAP4 POP PUSH2 0x2A56 DUP4 DUP6 DUP5 PUSH2 0x35DC JUMP JUMPDEST PUSH2 0x2A5F DUP4 PUSH2 0x361E JUMP JUMPDEST DUP5 ADD SWAP1 POP SWAP4 SWAP3 POP POP POP JUMP JUMPDEST PUSH1 0x0 PUSH2 0x2A75 DUP3 PUSH2 0x34A5 JUMP JUMPDEST PUSH2 0x2A7F DUP2 DUP6 PUSH2 0x34BB JUMP JUMPDEST SWAP4 POP PUSH2 0x2A8F DUP2 DUP6 PUSH1 0x20 DUP7 ADD PUSH2 0x35EB JUMP JUMPDEST PUSH2 0x2A98 DUP2 PUSH2 0x361E JUMP JUMPDEST DUP5 ADD SWAP2 POP POP SWAP3 SWAP2 POP POP JUMP JUMPDEST PUSH1 0x0 PUSH2 0x2AAE DUP3 PUSH2 0x349A JUMP JUMPDEST PUSH2 0x2AB8 DUP2 DUP6 PUSH2 0x34BB JUMP JUMPDEST SWAP4 POP PUSH2 0x2AC8 DUP2 DUP6 PUSH1 0x20 DUP7 ADD PUSH2 0x35EB JUMP JUMPDEST PUSH2 0x2AD1 DUP2 PUSH2 0x361E JUMP JUMPDEST DUP5 ADD SWAP2 POP POP SWAP3 SWAP2 POP POP JUMP JUMPDEST PUSH2 0x2AE5 DUP2 PUSH2 0x35A6 JUMP JUMPDEST DUP3 MSTORE POP POP JUMP JUMPDEST PUSH1 0x0 PUSH2 0x2AF6 DUP3 PUSH2 0x34B0 JUMP JUMPDEST PUSH2 0x2B00 DUP2 DUP6 PUSH2 0x34CC JUMP JUMPDEST SWAP4 POP PUSH2 0x2B10 DUP2 DUP6 PUSH1 0x20 DUP7 ADD PUSH2 0x35EB JUMP JUMPDEST PUSH2 0x2B19 DUP2 PUSH2 0x361E JUMP JUMPDEST DUP5 ADD SWAP2 POP POP SWAP3 SWAP2 POP POP JUMP JUMPDEST PUSH1 0x0 PUSH2 0x2B31 PUSH1 0x14 DUP4 PUSH2 0x34CC JUMP JUMPDEST SWAP2 POP PUSH32 0x5061757361626C653A206E6F7420706175736564000000000000000000000000 PUSH1 0x0 DUP4 ADD MSTORE PUSH1 0x20 DUP3 ADD SWAP1 POP SWAP2 SWAP1 POP JUMP JUMPDEST PUSH1 0x0 PUSH2 0x2B71 PUSH1 0x16 DUP4 PUSH2 0x34CC JUMP JUMPDEST SWAP2 POP PUSH32 0x496E636F72726563742066656520737570706C69656400000000000000000000 PUSH1 0x0 DUP4 ADD MSTORE PUSH1 0x20 DUP3 ADD SWAP1 POP SWAP2 SWAP1 POP JUMP JUMPDEST PUSH1 0x0 PUSH2 0x2BB1 PUSH1 0x27 DUP4 PUSH2 0x34CC JUMP JUMPDEST SWAP2 POP PUSH32 0x7265736F7572636549445370656E646572206E6F74206D617070656420746F20 PUSH1 0x0 DUP4 ADD MSTORE PUSH32 0x68616E646C657200000000000000000000000000000000000000000000000000 PUSH1 0x20 DUP4 ADD MSTORE PUSH1 0x40 DUP3 ADD SWAP1 POP SWAP2 SWAP1 POP JUMP JUMPDEST PUSH1 0x0 PUSH2 0x2C17 PUSH1 0x1F DUP4 PUSH2 0x34CC JUMP JUMPDEST SWAP2 POP PUSH32 0x73656E646572206973206E6F742061206261636B656E64207365727669636500 PUSH1 0x0 DUP4 ADD MSTORE PUSH1 0x20 DUP3 ADD SWAP1 POP SWAP2 SWAP1 POP JUMP JUMPDEST PUSH1 0x0 PUSH2 0x2C57 PUSH1 0x20 DUP4 PUSH2 0x34CC JUMP JUMPDEST SWAP2 POP PUSH32 0x7265736F757263654944206E6F74206D617070656420746F2068616E646C6572 PUSH1 0x0 DUP4 ADD MSTORE PUSH1 0x20 DUP3 ADD SWAP1 POP SWAP2 SWAP1 POP JUMP JUMPDEST PUSH1 0x0 PUSH2 0x2C97 PUSH1 0x17 DUP4 PUSH2 0x34CC JUMP JUMPDEST SWAP2 POP PUSH32 0x73656E646572206973206E6F7420612068616E646C6572000000000000000000 PUSH1 0x0 DUP4 ADD MSTORE PUSH1 0x20 DUP3 ADD SWAP1 POP SWAP2 SWAP1 POP JUMP JUMPDEST PUSH1 0x0 PUSH2 0x2CD7 PUSH1 0x10 DUP4 PUSH2 0x34CC JUMP JUMPDEST SWAP2 POP PUSH32 0x5061757361626C653A2070617573656400000000000000000000000000000000 PUSH1 0x0 DUP4 ADD MSTORE PUSH1 0x20 DUP3 ADD SWAP1 POP SWAP2 SWAP1 POP JUMP JUMPDEST PUSH1 0x0 PUSH2 0x2D17 PUSH1 0x25 DUP4 PUSH2 0x34CC JUMP JUMPDEST SWAP2 POP PUSH32 0x7265736F7572636549444F776E6572206E6F74206D617070656420746F206861 PUSH1 0x0 DUP4 ADD MSTORE PUSH32 0x6E646C6572000000000000000000000000000000000000000000000000000000 PUSH1 0x20 DUP4 ADD MSTORE PUSH1 0x40 DUP3 ADD SWAP1 POP SWAP2 SWAP1 POP JUMP JUMPDEST PUSH1 0x0 PUSH2 0x2D7D PUSH1 0x1D DUP4 PUSH2 0x34CC JUMP JUMPDEST SWAP2 POP PUSH32 0x496E636F7272656374206665652F616D6F756E7420737570706C696564000000 PUSH1 0x0 DUP4 ADD MSTORE PUSH1 0x20 DUP3 ADD SWAP1 POP SWAP2 SWAP1 POP JUMP JUMPDEST PUSH1 0x0 PUSH2 0x2DBD PUSH1 0x16 DUP4 PUSH2 0x34CC JUMP JUMPDEST SWAP2 POP PUSH32 0x73656E6465722073686F756C64206265206F776E657200000000000000000000 PUSH1 0x0 DUP4 ADD MSTORE PUSH1 0x20 DUP3 ADD SWAP1 POP SWAP2 SWAP1 POP JUMP JUMPDEST PUSH1 0x0 PUSH2 0x2DFD PUSH1 0x1F DUP4 PUSH2 0x34CC JUMP JUMPDEST SWAP2 POP PUSH32 0x43757272656E742066656520697320657175616C20746F206E65772066656500 PUSH1 0x0 DUP4 ADD MSTORE PUSH1 0x20 DUP3 ADD SWAP1 POP SWAP2 SWAP1 POP JUMP JUMPDEST PUSH1 0x0 PUSH2 0x2E3D PUSH1 0x11 DUP4 PUSH2 0x34CC JUMP JUMPDEST SWAP2 POP PUSH32 0x436861696E494420496E636F7272656374000000000000000000000000000000 PUSH1 0x0 DUP4 ADD MSTORE PUSH1 0x20 DUP3 ADD SWAP1 POP SWAP2 SWAP1 POP JUMP JUMPDEST PUSH1 0x0 PUSH2 0x2E7D PUSH1 0x19 DUP4 PUSH2 0x34CC JUMP JUMPDEST SWAP2 POP PUSH32 0x70726F706F73616C20616C726561647920657865637574656400000000000000 PUSH1 0x0 DUP4 ADD MSTORE PUSH1 0x20 DUP3 ADD SWAP1 POP SWAP2 SWAP1 POP JUMP JUMPDEST PUSH2 0x2EB9 DUP2 PUSH2 0x3576 JUMP JUMPDEST DUP3 MSTORE POP POP JUMP JUMPDEST PUSH2 0x2EC8 DUP2 PUSH2 0x3580 JUMP JUMPDEST DUP3 MSTORE POP POP JUMP JUMPDEST PUSH1 0x0 PUSH1 0x20 DUP3 ADD SWAP1 POP PUSH2 0x2EE3 PUSH1 0x0 DUP4 ADD DUP5 PUSH2 0x2A01 JUMP JUMPDEST SWAP3 SWAP2 POP POP JUMP JUMPDEST PUSH1 0x0 PUSH1 0x20 DUP3 ADD SWAP1 POP PUSH2 0x2EFE PUSH1 0x0 DUP4 ADD DUP5 PUSH2 0x29E3 JUMP JUMPDEST SWAP3 SWAP2 POP POP JUMP JUMPDEST PUSH1 0x0 PUSH1 0x60 DUP3 ADD SWAP1 POP PUSH2 0x2F19 PUSH1 0x0 DUP4 ADD DUP7 PUSH2 0x2A01 JUMP JUMPDEST PUSH2 0x2F26 PUSH1 0x20 DUP4 ADD DUP6 PUSH2 0x2A01 JUMP JUMPDEST PUSH2 0x2F33 PUSH1 0x40 DUP4 ADD DUP5 PUSH2 0x2EB0 JUMP JUMPDEST SWAP5 SWAP4 POP POP POP POP JUMP JUMPDEST PUSH1 0x0 PUSH1 0x20 DUP3 ADD SWAP1 POP PUSH2 0x2F50 PUSH1 0x0 DUP4 ADD DUP5 PUSH2 0x2A10 JUMP JUMPDEST SWAP3 SWAP2 POP POP JUMP JUMPDEST PUSH1 0x0 PUSH1 0x20 DUP3 ADD SWAP1 POP PUSH2 0x2F6B PUSH1 0x0 DUP4 ADD DUP5 PUSH2 0x2A1F JUMP JUMPDEST SWAP3 SWAP2 POP POP JUMP JUMPDEST PUSH1 0x0 PUSH1 0x40 DUP3 ADD SWAP1 POP PUSH2 0x2F86 PUSH1 0x0 DUP4 ADD DUP6 PUSH2 0x2A1F JUMP JUMPDEST PUSH2 0x2F93 PUSH1 0x20 DUP4 ADD DUP5 PUSH2 0x2A01 JUMP JUMPDEST SWAP4 SWAP3 POP POP POP JUMP JUMPDEST PUSH1 0x0 PUSH1 0x80 DUP3 ADD SWAP1 POP PUSH2 0x2FAF PUSH1 0x0 DUP4 ADD DUP9 PUSH2 0x2A1F JUMP JUMPDEST PUSH2 0x2FBC PUSH1 0x20 DUP4 ADD DUP8 PUSH2 0x29E3 JUMP JUMPDEST PUSH2 0x2FC9 PUSH1 0x40 DUP4 ADD DUP7 PUSH2 0x2EB0 JUMP JUMPDEST DUP2 DUP2 SUB PUSH1 0x60 DUP4 ADD MSTORE PUSH2 0x2FDC DUP2 DUP5 DUP7 PUSH2 0x2A3D JUMP JUMPDEST SWAP1 POP SWAP7 SWAP6 POP POP POP POP POP POP JUMP JUMPDEST PUSH1 0x0 PUSH1 0x60 DUP3 ADD SWAP1 POP PUSH2 0x2FFD PUSH1 0x0 DUP4 ADD DUP7 PUSH2 0x2A1F JUMP JUMPDEST PUSH2 0x300A PUSH1 0x20 DUP4 ADD DUP6 PUSH2 0x2A01 JUMP JUMPDEST PUSH2 0x3017 PUSH1 0x40 DUP4 ADD DUP5 PUSH2 0x2EB0 JUMP JUMPDEST SWAP5 SWAP4 POP POP POP POP JUMP JUMPDEST PUSH1 0x0 PUSH1 0xE0 DUP3 ADD SWAP1 POP PUSH2 0x3034 PUSH1 0x0 DUP4 ADD DUP12 PUSH2 0x2A1F JUMP JUMPDEST PUSH2 0x3041 PUSH1 0x20 DUP4 ADD DUP11 PUSH2 0x2A2E JUMP JUMPDEST PUSH2 0x304E PUSH1 0x40 DUP4 ADD DUP10 PUSH2 0x2EBF JUMP JUMPDEST PUSH2 0x305B PUSH1 0x60 DUP4 ADD DUP9 PUSH2 0x29E3 JUMP JUMPDEST PUSH2 0x3068 PUSH1 0x80 DUP4 ADD DUP8 PUSH2 0x2A01 JUMP JUMPDEST PUSH2 0x3075 PUSH1 0xA0 DUP4 ADD DUP7 PUSH2 0x2EB0 JUMP JUMPDEST DUP2 DUP2 SUB PUSH1 0xC0 DUP4 ADD MSTORE PUSH2 0x3088 DUP2 DUP5 DUP7 PUSH2 0x2A3D JUMP JUMPDEST SWAP1 POP SWAP10 SWAP9 POP POP POP POP POP POP POP POP POP JUMP JUMPDEST PUSH1 0x0 PUSH1 0x40 DUP3 ADD SWAP1 POP PUSH2 0x30AC PUSH1 0x0 DUP4 ADD DUP6 PUSH2 0x2A1F JUMP JUMPDEST DUP2 DUP2 SUB PUSH1 0x20 DUP4 ADD MSTORE PUSH2 0x30BE DUP2 DUP5 PUSH2 0x2A6A JUMP JUMPDEST SWAP1 POP SWAP4 SWAP3 POP POP POP JUMP JUMPDEST PUSH1 0x0 PUSH1 0x20 DUP3 ADD SWAP1 POP PUSH2 0x30DC PUSH1 0x0 DUP4 ADD DUP5 PUSH2 0x2A2E JUMP JUMPDEST SWAP3 SWAP2 POP POP JUMP JUMPDEST PUSH1 0x0 PUSH1 0xC0 DUP3 ADD SWAP1 POP PUSH2 0x30F7 PUSH1 0x0 DUP4 ADD DUP10 PUSH2 0x2A2E JUMP JUMPDEST PUSH2 0x3104 PUSH1 0x20 DUP4 ADD DUP9 PUSH2 0x29E3 JUMP JUMPDEST PUSH2 0x3111 PUSH1 0x40 DUP4 ADD DUP8 PUSH2 0x2A01 JUMP JUMPDEST PUSH2 0x311E PUSH1 0x60 DUP4 ADD DUP7 PUSH2 0x2A01 JUMP JUMPDEST PUSH2 0x312B PUSH1 0x80 DUP4 ADD DUP6 PUSH2 0x2EB0 JUMP JUMPDEST PUSH2 0x3138 PUSH1 0xA0 DUP4 ADD DUP5 PUSH2 0x2A1F JUMP JUMPDEST SWAP8 SWAP7 POP POP POP POP POP POP POP JUMP JUMPDEST PUSH1 0x0 PUSH1 0xC0 DUP3 ADD SWAP1 POP PUSH2 0x3158 PUSH1 0x0 DUP4 ADD DUP10 PUSH2 0x2A2E JUMP JUMPDEST PUSH2 0x3165 PUSH1 0x20 DUP4 ADD DUP9 PUSH2 0x2A2E JUMP JUMPDEST PUSH2 0x3172 PUSH1 0x40 DUP4 ADD DUP8 PUSH2 0x2EBF JUMP JUMPDEST PUSH2 0x317F PUSH1 0x60 DUP4 ADD DUP7 PUSH2 0x2A1F JUMP JUMPDEST PUSH2 0x318C PUSH1 0x80 DUP4 ADD DUP6 PUSH2 0x2A01 JUMP JUMPDEST PUSH2 0x3199 PUSH1 0xA0 DUP4 ADD DUP5 PUSH2 0x2EB0 JUMP JUMPDEST SWAP8 SWAP7 POP POP POP POP POP POP POP JUMP JUMPDEST PUSH1 0x0 PUSH1 0x20 DUP3 ADD SWAP1 POP DUP2 DUP2 SUB PUSH1 0x0 DUP4 ADD MSTORE PUSH2 0x31BE DUP2 DUP5 PUSH2 0x2AA3 JUMP JUMPDEST SWAP1 POP SWAP3 SWAP2 POP POP JUMP JUMPDEST PUSH1 0x0 PUSH1 0x20 DUP3 ADD SWAP1 POP DUP2 DUP2 SUB PUSH1 0x0 DUP4 ADD MSTORE PUSH2 0x31E0 DUP2 DUP5 PUSH2 0x2AEB JUMP JUMPDEST SWAP1 POP SWAP3 SWAP2 POP POP JUMP JUMPDEST PUSH1 0x0 PUSH1 0x20 DUP3 ADD SWAP1 POP DUP2 DUP2 SUB PUSH1 0x0 DUP4 ADD MSTORE PUSH2 0x3201 DUP2 PUSH2 0x2B24 JUMP JUMPDEST SWAP1 POP SWAP2 SWAP1 POP JUMP JUMPDEST PUSH1 0x0 PUSH1 0x20 DUP3 ADD SWAP1 POP DUP2 DUP2 SUB PUSH1 0x0 DUP4 ADD MSTORE PUSH2 0x3221 DUP2 PUSH2 0x2B64 JUMP JUMPDEST SWAP1 POP SWAP2 SWAP1 POP JUMP JUMPDEST PUSH1 0x0 PUSH1 0x20 DUP3 ADD SWAP1 POP DUP2 DUP2 SUB PUSH1 0x0 DUP4 ADD MSTORE PUSH2 0x3241 DUP2 PUSH2 0x2BA4 JUMP JUMPDEST SWAP1 POP SWAP2 SWAP1 POP JUMP JUMPDEST PUSH1 0x0 PUSH1 0x20 DUP3 ADD SWAP1 POP DUP2 DUP2 SUB PUSH1 0x0 DUP4 ADD MSTORE PUSH2 0x3261 DUP2 PUSH2 0x2C0A JUMP JUMPDEST SWAP1 POP SWAP2 SWAP1 POP JUMP JUMPDEST PUSH1 0x0 PUSH1 0x20 DUP3 ADD SWAP1 POP DUP2 DUP2 SUB PUSH1 0x0 DUP4 ADD MSTORE PUSH2 0x3281 DUP2 PUSH2 0x2C4A JUMP JUMPDEST SWAP1 POP SWAP2 SWAP1 POP JUMP JUMPDEST PUSH1 0x0 PUSH1 0x20 DUP3 ADD SWAP1 POP DUP2 DUP2 SUB PUSH1 0x0 DUP4 ADD MSTORE PUSH2 0x32A1 DUP2 PUSH2 0x2C8A JUMP JUMPDEST SWAP1 POP SWAP2 SWAP1 POP JUMP JUMPDEST PUSH1 0x0 PUSH1 0x20 DUP3 ADD SWAP1 POP DUP2 DUP2 SUB PUSH1 0x0 DUP4 ADD MSTORE PUSH2 0x32C1 DUP2 PUSH2 0x2CCA JUMP JUMPDEST SWAP1 POP SWAP2 SWAP1 POP JUMP JUMPDEST PUSH1 0x0 PUSH1 0x20 DUP3 ADD SWAP1 POP DUP2 DUP2 SUB PUSH1 0x0 DUP4 ADD MSTORE PUSH2 0x32E1 DUP2 PUSH2 0x2D0A JUMP JUMPDEST SWAP1 POP SWAP2 SWAP1 POP JUMP JUMPDEST PUSH1 0x0 PUSH1 0x20 DUP3 ADD SWAP1 POP DUP2 DUP2 SUB PUSH1 0x0 DUP4 ADD MSTORE PUSH2 0x3301 DUP2 PUSH2 0x2D70 JUMP JUMPDEST SWAP1 POP SWAP2 SWAP1 POP JUMP JUMPDEST PUSH1 0x0 PUSH1 0x20 DUP3 ADD SWAP1 POP DUP2 DUP2 SUB PUSH1 0x0 DUP4 ADD MSTORE PUSH2 0x3321 DUP2 PUSH2 0x2DB0 JUMP JUMPDEST SWAP1 POP SWAP2 SWAP1 POP JUMP JUMPDEST PUSH1 0x0 PUSH1 0x20 DUP3 ADD SWAP1 POP DUP2 DUP2 SUB PUSH1 0x0 DUP4 ADD MSTORE PUSH2 0x3341 DUP2 PUSH2 0x2DF0 JUMP JUMPDEST SWAP1 POP SWAP2 SWAP1 POP JUMP JUMPDEST PUSH1 0x0 PUSH1 0x20 DUP3 ADD SWAP1 POP DUP2 DUP2 SUB PUSH1 0x0 DUP4 ADD MSTORE PUSH2 0x3361 DUP2 PUSH2 0x2E30 JUMP JUMPDEST SWAP1 POP SWAP2 SWAP1 POP JUMP JUMPDEST PUSH1 0x0 PUSH1 0x20 DUP3 ADD SWAP1 POP DUP2 DUP2 SUB PUSH1 0x0 DUP4 ADD MSTORE PUSH2 0x3381 DUP2 PUSH2 0x2E70 JUMP JUMPDEST SWAP1 POP SWAP2 SWAP1 POP JUMP JUMPDEST PUSH1 0x0 PUSH1 0x20 DUP3 ADD SWAP1 POP PUSH2 0x339D PUSH1 0x0 DUP4 ADD DUP5 PUSH2 0x2EB0 JUMP JUMPDEST SWAP3 SWAP2 POP POP JUMP JUMPDEST PUSH1 0x0 PUSH1 0x40 DUP3 ADD SWAP1 POP PUSH2 0x33B8 PUSH1 0x0 DUP4 ADD DUP6 PUSH2 0x2EB0 JUMP JUMPDEST PUSH2 0x33C5 PUSH1 0x20 DUP4 ADD DUP5 PUSH2 0x2A01 JUMP JUMPDEST SWAP4 SWAP3 POP POP POP JUMP JUMPDEST PUSH1 0x0 PUSH1 0x40 DUP3 ADD SWAP1 POP PUSH2 0x33E1 PUSH1 0x0 DUP4 ADD DUP6 PUSH2 0x2EB0 JUMP JUMPDEST PUSH2 0x33EE PUSH1 0x20 DUP4 ADD DUP5 PUSH2 0x29F2 JUMP JUMPDEST SWAP4 SWAP3 POP POP POP JUMP JUMPDEST PUSH1 0x0 PUSH1 0xA0 DUP3 ADD SWAP1 POP PUSH2 0x340A PUSH1 0x0 DUP4 ADD DUP9 PUSH2 0x2EB0 JUMP JUMPDEST PUSH2 0x3417 PUSH1 0x20 DUP4 ADD DUP8 PUSH2 0x2EBF JUMP JUMPDEST PUSH2 0x3424 PUSH1 0x40 DUP4 ADD DUP7 PUSH2 0x2ADC JUMP JUMPDEST PUSH2 0x3431 PUSH1 0x60 DUP4 ADD DUP6 PUSH2 0x2A1F JUMP JUMPDEST PUSH2 0x343E PUSH1 0x80 DUP4 ADD DUP5 PUSH2 0x2A1F JUMP JUMPDEST SWAP7 SWAP6 POP POP POP POP POP POP JUMP JUMPDEST PUSH1 0x0 PUSH1 0x20 DUP3 ADD SWAP1 POP PUSH2 0x345D PUSH1 0x0 DUP4 ADD DUP5 PUSH2 0x2EBF JUMP JUMPDEST SWAP3 SWAP2 POP POP JUMP JUMPDEST PUSH1 0x0 PUSH1 0x60 DUP3 ADD SWAP1 POP PUSH2 0x3478 PUSH1 0x0 DUP4 ADD DUP7 PUSH2 0x2EBF JUMP JUMPDEST PUSH2 0x3485 PUSH1 0x20 DUP4 ADD DUP6 PUSH2 0x2A2E JUMP JUMPDEST PUSH2 0x3492 PUSH1 0x40 DUP4 ADD DUP5 PUSH2 0x2A2E JUMP JUMPDEST SWAP5 SWAP4 POP POP POP POP JUMP JUMPDEST PUSH1 0x0 DUP2 MLOAD SWAP1 POP SWAP2 SWAP1 POP JUMP JUMPDEST PUSH1 0x0 DUP2 MLOAD SWAP1 POP SWAP2 SWAP1 POP JUMP JUMPDEST PUSH1 0x0 DUP2 MLOAD SWAP1 POP SWAP2 SWAP1 POP JUMP JUMPDEST PUSH1 0x0 DUP3 DUP3 MSTORE PUSH1 0x20 DUP3 ADD SWAP1 POP SWAP3 SWAP2 POP POP JUMP JUMPDEST PUSH1 0x0 DUP3 DUP3 MSTORE PUSH1 0x20 DUP3 ADD SWAP1 POP SWAP3 SWAP2 POP POP JUMP JUMPDEST PUSH1 0x0 PUSH2 0x34E8 DUP3 PUSH2 0x3556 JUMP JUMPDEST SWAP1 POP SWAP2 SWAP1 POP JUMP JUMPDEST PUSH1 0x0 PUSH2 0x34FA DUP3 PUSH2 0x3556 JUMP JUMPDEST SWAP1 POP SWAP2 SWAP1 POP JUMP JUMPDEST PUSH1 0x0 DUP2 ISZERO ISZERO SWAP1 POP SWAP2 SWAP1 POP JUMP JUMPDEST PUSH1 0x0 DUP2 SWAP1 POP SWAP2 SWAP1 POP JUMP JUMPDEST PUSH1 0x0 PUSH32 0xFFFFFFFFFFFFFFFF000000000000000000000000000000000000000000000000 DUP3 AND SWAP1 POP SWAP2 SWAP1 POP JUMP JUMPDEST PUSH1 0x0 DUP2 SWAP1 POP PUSH2 0x3551 DUP3 PUSH2 0x362F JUMP JUMPDEST SWAP2 SWAP1 POP JUMP JUMPDEST PUSH1 0x0 PUSH20 0xFFFFFFFFFFFFFFFFFFFFFFFFFFFFFFFFFFFFFFFF DUP3 AND SWAP1 POP SWAP2 SWAP1 POP JUMP JUMPDEST PUSH1 0x0 DUP2 SWAP1 POP SWAP2 SWAP1 POP JUMP JUMPDEST PUSH1 0x0 PUSH8 0xFFFFFFFFFFFFFFFF DUP3 AND SWAP1 POP SWAP2 SWAP1 POP JUMP JUMPDEST PUSH1 0x0 PUSH2 0x359F DUP3 PUSH2 0x35B8 JUMP JUMPDEST SWAP1 POP SWAP2 SWAP1 POP JUMP JUMPDEST PUSH1 0x0 PUSH2 0x35B1 DUP3 PUSH2 0x3543 JUMP JUMPDEST SWAP1 POP SWAP2 SWAP1 POP JUMP JUMPDEST PUSH1 0x0 PUSH2 0x35C3 DUP3 PUSH2 0x35CA JUMP JUMPDEST SWAP1 POP SWAP2 SWAP1 POP JUMP JUMPDEST PUSH1 0x0 PUSH2 0x35D5 DUP3 PUSH2 0x3556 JUMP JUMPDEST SWAP1 POP SWAP2 SWAP1 POP JUMP JUMPDEST DUP3 DUP2 DUP4 CALLDATACOPY PUSH1 0x0 DUP4 DUP4 ADD MSTORE POP POP POP JUMP JUMPDEST PUSH1 0x0 JUMPDEST DUP4 DUP2 LT ISZERO PUSH2 0x3609 JUMPI DUP1 DUP3 ADD MLOAD DUP2 DUP5 ADD MSTORE PUSH1 0x20 DUP2 ADD SWAP1 POP PUSH2 0x35EE JUMP JUMPDEST DUP4 DUP2 GT ISZERO PUSH2 0x3618 JUMPI PUSH1 0x0 DUP5 DUP5 ADD MSTORE JUMPDEST POP POP POP POP JUMP JUMPDEST PUSH1 0x0 PUSH1 0x1F NOT PUSH1 0x1F DUP4 ADD AND SWAP1 POP SWAP2 SWAP1 POP JUMP JUMPDEST PUSH1 0x5 DUP2 LT PUSH2 0x3639 JUMPI INVALID JUMPDEST POP JUMP JUMPDEST PUSH2 0x3645 DUP2 PUSH2 0x34DD JUMP JUMPDEST DUP2 EQ PUSH2 0x3650 JUMPI PUSH1 0x0 DUP1 REVERT JUMPDEST POP JUMP JUMPDEST PUSH2 0x365C DUP2 PUSH2 0x34EF JUMP JUMPDEST DUP2 EQ PUSH2 0x3667 JUMPI PUSH1 0x0 DUP1 REVERT JUMPDEST POP JUMP JUMPDEST PUSH2 0x3673 DUP2 PUSH2 0x3501 JUMP JUMPDEST DUP2 EQ PUSH2 0x367E JUMPI PUSH1 0x0 DUP1 REVERT JUMPDEST POP JUMP JUMPDEST PUSH2 0x368A DUP2 PUSH2 0x350D JUMP JUMPDEST DUP2 EQ PUSH2 0x3695 JUMPI PUSH1 0x0 DUP1 REVERT JUMPDEST POP JUMP JUMPDEST PUSH2 0x36A1 DUP2 PUSH2 0x3517 JUMP JUMPDEST DUP2 EQ PUSH2 0x36AC JUMPI PUSH1 0x0 DUP1 REVERT JUMPDEST POP JUMP JUMPDEST PUSH2 0x36B8 DUP2 PUSH2 0x3576 JUMP JUMPDEST DUP2 EQ PUSH2 0x36C3 JUMPI PUSH1 0x0 DUP1 REVERT JUMPDEST POP JUMP JUMPDEST PUSH2 0x36CF DUP2 PUSH2 0x3580 JUMP JUMPDEST DUP2 EQ PUSH2 0x36DA JUMPI PUSH1 0x0 DUP1 REVERT JUMPDEST POP JUMP INVALID LOG2 PUSH5 0x6970667358 0x22 SLT KECCAK256 CALLER 0xE 0x4B PUSH32 0x2EFC464E1037278AD372FF59F0E491A96A2D1E5D3CBCC6FFA6288D7C64736F6C PUSH4 0x43000604 STOP CALLER "
				},
				"gasEstimates": {
					"creation": {
						"codeDepositCost": "2819800",
						"executionCost": "3076",
						"totalCost": "2822876"
					},
					"external": {
						"_backendSrvAddress()": "1282",
						"_chainID()": "1310",
						"_depositCounts(bytes8)": "1571",
						"_depositRecords(uint64,bytes8)": "infinite",
						"_executedProposals(bytes32,bytes32)": "infinite",
						"_fee()": "1240",
						"_isInitialised()": "1266",
						"_nativeResourceID()": "1219",
						"_resourceIDToHandlerAddress(bytes32)": "1651",
						"adminCollectFees(address,uint256)": "infinite",
						"adminPauseTransfers()": "24320",
						"adminUnpauseTransfers()": "24337",
						"adminWithdraw(address,address,address,uint256)": "infinite",
						"approveSpending(bytes32,bytes32,uint256)": "infinite",
						"changeFee(uint256)": "22208",
						"deposit(bytes8,bytes32,uint256,address,uint256,bytes)": "infinite",
						"depositFunds()": "1481",
						"executeProposal(bytes8,bytes8,uint64,bytes32,address,uint256,bytes)": "infinite",
						"handlers(address)": "1636",
						"initialize(bytes8,uint256,address)": "107026",
						"internalDeposit(bytes8,bytes32,uint256,address)": "infinite",
						"ownableInit(address)": "44806",
						"owner()": "1339",
						"paused()": "1225",
						"renounceOwnership()": "24572",
						"setBackendSrv(address)": "22263",
						"setBurnable(address,address)": "infinite",
						"setHandler(address,bool)": "22553",
						"setNativeResourceID(bytes32)": "21427",
						"setResource(address,bytes32,address)": "infinite",
						"sub(uint256,uint256)": "infinite",
						"transferOwnership(address)": "24919"
					},
					"internal": {
						"_onlyBackendSrv()": "infinite"
					}
				},
				"methodIdentifiers": {
					"_backendSrvAddress()": "7f5d6a5e",
					"_chainID()": "beab7131",
					"_depositCounts(bytes8)": "174e300b",
					"_depositRecords(uint64,bytes8)": "a48ace38",
					"_executedProposals(bytes32,bytes32)": "9c1650e0",
					"_fee()": "c5b37c22",
					"_isInitialised()": "dd2e8ec3",
					"_nativeResourceID()": "a21b952e",
					"_resourceIDToHandlerAddress(bytes32)": "84db809f",
					"adminCollectFees(address,uint256)": "7a7eed77",
					"adminPauseTransfers()": "80ae1c28",
					"adminUnpauseTransfers()": "ffaac0eb",
					"adminWithdraw(address,address,address,uint256)": "780cf004",
					"approveSpending(bytes32,bytes32,uint256)": "de771b31",
					"changeFee(uint256)": "6a1db1bf",
					"deposit(bytes8,bytes32,uint256,address,uint256,bytes)": "e4e21fce",
					"depositFunds()": "e2c41dbc",
					"executeProposal(bytes8,bytes8,uint64,bytes32,address,uint256,bytes)": "8d225943",
					"handlers(address)": "1a21c0bc",
					"initialize(bytes8,uint256,address)": "92c6ecf2",
					"internalDeposit(bytes8,bytes32,uint256,address)": "8ece6f27",
					"ownableInit(address)": "ea439b2b",
					"owner()": "8da5cb5b",
					"paused()": "5c975abb",
					"renounceOwnership()": "715018a6",
					"setBackendSrv(address)": "0bf6096f",
					"setBurnable(address,address)": "df0fc133",
					"setHandler(address,bool)": "9cb7de4b",
					"setNativeResourceID(bytes32)": "21016ed8",
					"setResource(address,bytes32,address)": "a737be4f",
					"sub(uint256,uint256)": "b67d77c5",
					"transferOwnership(address)": "f2fde38b"
				}
			},
			"storageLayout": {
				"storage": [
					{
						"astId": 942,
						"contract": "ethereum-crosschain-contract/contracts/Bridge.sol:Bridge",
						"label": "_paused",
						"offset": 0,
						"slot": "0",
						"type": "t_bool"
					},
					{
						"astId": 1076,
						"contract": "ethereum-crosschain-contract/contracts/Bridge.sol:Bridge",
						"label": "_owner",
						"offset": 1,
						"slot": "0",
						"type": "t_address"
					},
					{
						"astId": 1078,
						"contract": "ethereum-crosschain-contract/contracts/Bridge.sol:Bridge",
						"label": "_isInitialised",
						"offset": 21,
						"slot": "0",
						"type": "t_bool"
					},
					{
						"astId": 17,
						"contract": "ethereum-crosschain-contract/contracts/Bridge.sol:Bridge",
						"label": "_chainID",
						"offset": 22,
						"slot": "0",
						"type": "t_bytes8"
					},
					{
						"astId": 19,
						"contract": "ethereum-crosschain-contract/contracts/Bridge.sol:Bridge",
						"label": "_fee",
						"offset": 0,
						"slot": "1",
						"type": "t_uint256"
					},
					{
						"astId": 21,
						"contract": "ethereum-crosschain-contract/contracts/Bridge.sol:Bridge",
						"label": "_backendSrvAddress",
						"offset": 0,
						"slot": "2",
						"type": "t_address"
					},
					{
						"astId": 29,
						"contract": "ethereum-crosschain-contract/contracts/Bridge.sol:Bridge",
						"label": "_nativeResourceID",
						"offset": 0,
						"slot": "3",
						"type": "t_bytes32"
					},
					{
						"astId": 33,
						"contract": "ethereum-crosschain-contract/contracts/Bridge.sol:Bridge",
						"label": "_depositCounts",
						"offset": 0,
						"slot": "4",
						"type": "t_mapping(t_bytes8,t_uint64)"
					},
					{
						"astId": 37,
						"contract": "ethereum-crosschain-contract/contracts/Bridge.sol:Bridge",
						"label": "_resourceIDToHandlerAddress",
						"offset": 0,
						"slot": "5",
						"type": "t_mapping(t_bytes32,t_address)"
					},
					{
						"astId": 43,
						"contract": "ethereum-crosschain-contract/contracts/Bridge.sol:Bridge",
						"label": "_depositRecords",
						"offset": 0,
						"slot": "6",
						"type": "t_mapping(t_uint64,t_mapping(t_bytes8,t_bytes_storage))"
					},
					{
						"astId": 49,
						"contract": "ethereum-crosschain-contract/contracts/Bridge.sol:Bridge",
						"label": "_executedProposals",
						"offset": 0,
						"slot": "7",
						"type": "t_mapping(t_bytes32,t_mapping(t_bytes32,t_bool))"
					},
					{
						"astId": 53,
						"contract": "ethereum-crosschain-contract/contracts/Bridge.sol:Bridge",
						"label": "handlers",
						"offset": 0,
						"slot": "8",
						"type": "t_mapping(t_address,t_bool)"
					}
				],
				"types": {
					"t_address": {
						"encoding": "inplace",
						"label": "address",
						"numberOfBytes": "20"
					},
					"t_bool": {
						"encoding": "inplace",
						"label": "bool",
						"numberOfBytes": "1"
					},
					"t_bytes32": {
						"encoding": "inplace",
						"label": "bytes32",
						"numberOfBytes": "32"
					},
					"t_bytes8": {
						"encoding": "inplace",
						"label": "bytes8",
						"numberOfBytes": "8"
					},
					"t_bytes_storage": {
						"encoding": "bytes",
						"label": "bytes",
						"numberOfBytes": "32"
					},
					"t_mapping(t_address,t_bool)": {
						"encoding": "mapping",
						"key": "t_address",
						"label": "mapping(address => bool)",
						"numberOfBytes": "32",
						"value": "t_bool"
					},
					"t_mapping(t_bytes32,t_address)": {
						"encoding": "mapping",
						"key": "t_bytes32",
						"label": "mapping(bytes32 => address)",
						"numberOfBytes": "32",
						"value": "t_address"
					},
					"t_mapping(t_bytes32,t_bool)": {
						"encoding": "mapping",
						"key": "t_bytes32",
						"label": "mapping(bytes32 => bool)",
						"numberOfBytes": "32",
						"value": "t_bool"
					},
					"t_mapping(t_bytes32,t_mapping(t_bytes32,t_bool))": {
						"encoding": "mapping",
						"key": "t_bytes32",
						"label": "mapping(bytes32 => mapping(bytes32 => bool))",
						"numberOfBytes": "32",
						"value": "t_mapping(t_bytes32,t_bool)"
					},
					"t_mapping(t_bytes8,t_bytes_storage)": {
						"encoding": "mapping",
						"key": "t_bytes8",
						"label": "mapping(bytes8 => bytes)",
						"numberOfBytes": "32",
						"value": "t_bytes_storage"
					},
					"t_mapping(t_bytes8,t_uint64)": {
						"encoding": "mapping",
						"key": "t_bytes8",
						"label": "mapping(bytes8 => uint64)",
						"numberOfBytes": "32",
						"value": "t_uint64"
					},
					"t_mapping(t_uint64,t_mapping(t_bytes8,t_bytes_storage))": {
						"encoding": "mapping",
						"key": "t_uint64",
						"label": "mapping(uint64 => mapping(bytes8 => bytes))",
						"numberOfBytes": "32",
						"value": "t_mapping(t_bytes8,t_bytes_storage)"
					},
					"t_uint256": {
						"encoding": "inplace",
						"label": "uint256",
						"numberOfBytes": "32"
					},
					"t_uint64": {
						"encoding": "inplace",
						"label": "uint64",
						"numberOfBytes": "8"
					}
				}
			},
			"userdoc": {
				"methods": {
					"adminCollectFees(address,uint256)": {
						"notice": "to be called if owner wants to collect fees"
					},
					"adminPauseTransfers()": {
						"notice": "Pauses deposits, proposal creation and voting, and deposit executions.Only callable by an address that currently has the admin role."
					},
					"adminUnpauseTransfers()": {
						"notice": "Unpauses deposits, proposal creation and voting, and deposit executions.Only callable by an address that currently has the admin role."
					},
					"adminWithdraw(address,address,address,uint256)": {
						"notice": "Used to manually withdraw funds from ERC safes."
					},
					"approveSpending(bytes32,bytes32,uint256)": {
						"notice": "Used to approve spending tokens by another handler."
					},
					"changeFee(uint256)": {
						"notice": "Changes deposit fee.Only callable by admin."
					},
					"deposit(bytes8,bytes32,uint256,address,uint256,bytes)": {
						"notice": "Initiates a transfer using a specified handler contract.Only callable when Bridge is not paused.Emits {Deposit} event."
					},
					"depositFunds()": {
						"notice": "to deposit native token to the contract"
					},
					"executeProposal(bytes8,bytes8,uint64,bytes32,address,uint256,bytes)": {
						"notice": "Executes a deposit proposal that is considered passed using a specified handler contract.Only callable by relayers when Bridge is not paused.Proposal must not have executed before.Emits {ProposalEvent} event with status {Executed}."
					},
					"initialize(bytes8,uint256,address)": {
						"notice": "Initializes Bridge, creates and grants {msg.sender} the admin role, Sets deposit fee"
					},
					"setBackendSrv(address)": {
						"notice": "sets new backend srv.Only callable by an address that currently has the admin role."
					},
					"setBurnable(address,address)": {
						"notice": "Sets a resource as burnable for handler contracts that use the IERCHandler interface.Only callable by an address that currently has the admin role."
					},
					"setNativeResourceID(bytes32)": {
						"notice": "sets resourceID for native token"
					},
					"setResource(address,bytes32,address)": {
						"notice": "Sets a new resource for handler contracts that use the IERCHandler interface, and maps the {handlerAddress} to {resourceID} in {_resourceIDToHandlerAddress}.Only callable by an address that currently has the admin role."
					}
				}
			}
		}
	}
}