{
	"ethereum-crosschain-contract/contracts/ExampleToken.sol": {
		"ExampleToken": {
			"abi": [
				{
					"inputs": [
						{
							"internalType": "string",
							"name": "name",
							"type": "string"
						},
						{
							"internalType": "string",
							"name": "symbol",
							"type": "string"
						},
						{
							"internalType": "uint8",
							"name": "decimals_",
							"type": "uint8"
						}
					],
					"stateMutability": "nonpayable",
					"type": "constructor"
				},
				{
					"anonymous": false,
					"inputs": [
						{
							"indexed": true,
							"internalType": "address",
							"name": "owner",
							"type": "address"
						},
						{
							"indexed": true,
							"internalType": "address",
							"name": "spender",
							"type": "address"
						},
						{
							"indexed": false,
							"internalType": "uint256",
							"name": "value",
							"type": "uint256"
						}
					],
					"name": "Approval",
					"type": "event"
				},
				{
					"anonymous": false,
					"inputs": [
						{
							"indexed": false,
							"internalType": "address",
							"name": "account",
							"type": "address"
						}
					],
					"name": "Paused",
					"type": "event"
				},
				{
					"anonymous": false,
					"inputs": [
						{
							"indexed": true,
							"internalType": "bytes32",
							"name": "role",
							"type": "bytes32"
						},
						{
							"indexed": true,
							"internalType": "bytes32",
							"name": "previousAdminRole",
							"type": "bytes32"
						},
						{
							"indexed": true,
							"internalType": "bytes32",
							"name": "newAdminRole",
							"type": "bytes32"
						}
					],
					"name": "RoleAdminChanged",
					"type": "event"
				},
				{
					"anonymous": false,
					"inputs": [
						{
							"indexed": true,
							"internalType": "bytes32",
							"name": "role",
							"type": "bytes32"
						},
						{
							"indexed": true,
							"internalType": "address",
							"name": "account",
							"type": "address"
						},
						{
							"indexed": true,
							"internalType": "address",
							"name": "sender",
							"type": "address"
						}
					],
					"name": "RoleGranted",
					"type": "event"
				},
				{
					"anonymous": false,
					"inputs": [
						{
							"indexed": true,
							"internalType": "bytes32",
							"name": "role",
							"type": "bytes32"
						},
						{
							"indexed": true,
							"internalType": "address",
							"name": "account",
							"type": "address"
						},
						{
							"indexed": true,
							"internalType": "address",
							"name": "sender",
							"type": "address"
						}
					],
					"name": "RoleRevoked",
					"type": "event"
				},
				{
					"anonymous": false,
					"inputs": [
						{
							"indexed": true,
							"internalType": "address",
							"name": "from",
							"type": "address"
						},
						{
							"indexed": true,
							"internalType": "address",
							"name": "to",
							"type": "address"
						},
						{
							"indexed": false,
							"internalType": "uint256",
							"name": "value",
							"type": "uint256"
						}
					],
					"name": "Transfer",
					"type": "event"
				},
				{
					"anonymous": false,
					"inputs": [
						{
							"indexed": false,
							"internalType": "address",
							"name": "account",
							"type": "address"
						}
					],
					"name": "Unpaused",
					"type": "event"
				},
				{
					"inputs": [],
					"name": "DEFAULT_ADMIN_ROLE",
					"outputs": [
						{
							"internalType": "bytes32",
							"name": "",
							"type": "bytes32"
						}
					],
					"stateMutability": "view",
					"type": "function"
				},
				{
					"inputs": [],
					"name": "MINTER_ROLE",
					"outputs": [
						{
							"internalType": "bytes32",
							"name": "",
							"type": "bytes32"
						}
					],
					"stateMutability": "view",
					"type": "function"
				},
				{
					"inputs": [],
					"name": "PAUSER_ROLE",
					"outputs": [
						{
							"internalType": "bytes32",
							"name": "",
							"type": "bytes32"
						}
					],
					"stateMutability": "view",
					"type": "function"
				},
				{
					"inputs": [
						{
							"internalType": "address",
							"name": "owner",
							"type": "address"
						},
						{
							"internalType": "address",
							"name": "spender",
							"type": "address"
						}
					],
					"name": "allowance",
					"outputs": [
						{
							"internalType": "uint256",
							"name": "",
							"type": "uint256"
						}
					],
					"stateMutability": "view",
					"type": "function"
				},
				{
					"inputs": [
						{
							"internalType": "address",
							"name": "spender",
							"type": "address"
						},
						{
							"internalType": "uint256",
							"name": "amount",
							"type": "uint256"
						}
					],
					"name": "approve",
					"outputs": [
						{
							"internalType": "bool",
							"name": "",
							"type": "bool"
						}
					],
					"stateMutability": "nonpayable",
					"type": "function"
				},
				{
					"inputs": [
						{
							"internalType": "address",
							"name": "account",
							"type": "address"
						}
					],
					"name": "balanceOf",
					"outputs": [
						{
							"internalType": "uint256",
							"name": "",
							"type": "uint256"
						}
					],
					"stateMutability": "view",
					"type": "function"
				},
				{
					"inputs": [
						{
							"internalType": "uint256",
							"name": "amount",
							"type": "uint256"
						}
					],
					"name": "burn",
					"outputs": [],
					"stateMutability": "nonpayable",
					"type": "function"
				},
				{
					"inputs": [
						{
							"internalType": "address",
							"name": "account",
							"type": "address"
						},
						{
							"internalType": "uint256",
							"name": "amount",
							"type": "uint256"
						}
					],
					"name": "burnFrom",
					"outputs": [],
					"stateMutability": "nonpayable",
					"type": "function"
				},
				{
					"inputs": [],
					"name": "decimals",
					"outputs": [
						{
							"internalType": "uint8",
							"name": "",
							"type": "uint8"
						}
					],
					"stateMutability": "view",
					"type": "function"
				},
				{
					"inputs": [
						{
							"internalType": "address",
							"name": "spender",
							"type": "address"
						},
						{
							"internalType": "uint256",
							"name": "subtractedValue",
							"type": "uint256"
						}
					],
					"name": "decreaseAllowance",
					"outputs": [
						{
							"internalType": "bool",
							"name": "",
							"type": "bool"
						}
					],
					"stateMutability": "nonpayable",
					"type": "function"
				},
				{
					"inputs": [
						{
							"internalType": "bytes32",
							"name": "role",
							"type": "bytes32"
						}
					],
					"name": "getRoleAdmin",
					"outputs": [
						{
							"internalType": "bytes32",
							"name": "",
							"type": "bytes32"
						}
					],
					"stateMutability": "view",
					"type": "function"
				},
				{
					"inputs": [
						{
							"internalType": "bytes32",
							"name": "role",
							"type": "bytes32"
						},
						{
							"internalType": "uint256",
							"name": "index",
							"type": "uint256"
						}
					],
					"name": "getRoleMember",
					"outputs": [
						{
							"internalType": "address",
							"name": "",
							"type": "address"
						}
					],
					"stateMutability": "view",
					"type": "function"
				},
				{
					"inputs": [
						{
							"internalType": "bytes32",
							"name": "role",
							"type": "bytes32"
						}
					],
					"name": "getRoleMemberCount",
					"outputs": [
						{
							"internalType": "uint256",
							"name": "",
							"type": "uint256"
						}
					],
					"stateMutability": "view",
					"type": "function"
				},
				{
					"inputs": [
						{
							"internalType": "bytes32",
							"name": "role",
							"type": "bytes32"
						},
						{
							"internalType": "address",
							"name": "account",
							"type": "address"
						}
					],
					"name": "grantRole",
					"outputs": [],
					"stateMutability": "nonpayable",
					"type": "function"
				},
				{
					"inputs": [
						{
							"internalType": "bytes32",
							"name": "role",
							"type": "bytes32"
						},
						{
							"internalType": "address",
							"name": "account",
							"type": "address"
						}
					],
					"name": "hasRole",
					"outputs": [
						{
							"internalType": "bool",
							"name": "",
							"type": "bool"
						}
					],
					"stateMutability": "view",
					"type": "function"
				},
				{
					"inputs": [
						{
							"internalType": "address",
							"name": "spender",
							"type": "address"
						},
						{
							"internalType": "uint256",
							"name": "addedValue",
							"type": "uint256"
						}
					],
					"name": "increaseAllowance",
					"outputs": [
						{
							"internalType": "bool",
							"name": "",
							"type": "bool"
						}
					],
					"stateMutability": "nonpayable",
					"type": "function"
				},
				{
					"inputs": [
						{
							"internalType": "address",
							"name": "to",
							"type": "address"
						},
						{
							"internalType": "uint256",
							"name": "amount",
							"type": "uint256"
						}
					],
					"name": "mint",
					"outputs": [],
					"stateMutability": "nonpayable",
					"type": "function"
				},
				{
					"inputs": [],
					"name": "name",
					"outputs": [
						{
							"internalType": "string",
							"name": "",
							"type": "string"
						}
					],
					"stateMutability": "view",
					"type": "function"
				},
				{
					"inputs": [],
					"name": "pause",
					"outputs": [],
					"stateMutability": "nonpayable",
					"type": "function"
				},
				{
					"inputs": [],
					"name": "paused",
					"outputs": [
						{
							"internalType": "bool",
							"name": "",
							"type": "bool"
						}
					],
					"stateMutability": "view",
					"type": "function"
				},
				{
					"inputs": [
						{
							"internalType": "bytes32",
							"name": "role",
							"type": "bytes32"
						},
						{
							"internalType": "address",
							"name": "account",
							"type": "address"
						}
					],
					"name": "renounceRole",
					"outputs": [],
					"stateMutability": "nonpayable",
					"type": "function"
				},
				{
					"inputs": [
						{
							"internalType": "bytes32",
							"name": "role",
							"type": "bytes32"
						},
						{
							"internalType": "address",
							"name": "account",
							"type": "address"
						}
					],
					"name": "revokeRole",
					"outputs": [],
					"stateMutability": "nonpayable",
					"type": "function"
				},
				{
					"inputs": [],
					"name": "symbol",
					"outputs": [
						{
							"internalType": "string",
							"name": "",
							"type": "string"
						}
					],
					"stateMutability": "view",
					"type": "function"
				},
				{
					"inputs": [],
					"name": "totalSupply",
					"outputs": [
						{
							"internalType": "uint256",
							"name": "",
							"type": "uint256"
						}
					],
					"stateMutability": "view",
					"type": "function"
				},
				{
					"inputs": [
						{
							"internalType": "address",
							"name": "recipient",
							"type": "address"
						},
						{
							"internalType": "uint256",
							"name": "amount",
							"type": "uint256"
						}
					],
					"name": "transfer",
					"outputs": [
						{
							"internalType": "bool",
							"name": "",
							"type": "bool"
						}
					],
					"stateMutability": "nonpayable",
					"type": "function"
				},
				{
					"inputs": [
						{
							"internalType": "address",
							"name": "sender",
							"type": "address"
						},
						{
							"internalType": "address",
							"name": "recipient",
							"type": "address"
						},
						{
							"internalType": "uint256",
							"name": "amount",
							"type": "uint256"
						}
					],
					"name": "transferFrom",
					"outputs": [
						{
							"internalType": "bool",
							"name": "",
							"type": "bool"
						}
					],
					"stateMutability": "nonpayable",
					"type": "function"
				},
				{
					"inputs": [],
					"name": "unpause",
					"outputs": [],
					"stateMutability": "nonpayable",
					"type": "function"
				}
			],
			"devdoc": {
				"details": "{ERC20} token, including: *  - ability for holders to burn (destroy) their tokens - a minter role that allows for token minting (creation) - a pauser role that allows to stop all token transfers * This contract uses {AccessControl} to lock permissioned functions using the different roles - head to its documentation for details. * The account that deploys the contract will be granted the minter and pauser roles, as well as the default admin role, which will let it grant both minter and pauser roles to other accounts.",
				"methods": {
					"allowance(address,address)": {
						"details": "See {IERC20-allowance}."
					},
					"approve(address,uint256)": {
						"details": "See {IERC20-approve}.     * Requirements:     * - `spender` cannot be the zero address."
					},
					"balanceOf(address)": {
						"details": "See {IERC20-balanceOf}."
					},
					"burn(uint256)": {
						"details": "Destroys `amount` tokens from the caller.     * See {ERC20-_burn}."
					},
					"burnFrom(address,uint256)": {
						"details": "Destroys `amount` tokens from `account`, deducting from the caller's allowance.     * See {ERC20-_burn} and {ERC20-allowance}.     * Requirements:     * - the caller must have allowance for ``accounts``'s tokens of at least `amount`."
					},
					"constructor": {
						"details": "Grants `DEFAULT_ADMIN_ROLE`, `MINTER_ROLE` and `PAUSER_ROLE` to the account that deploys the contract.     * See {ERC20-constructor}."
					},
					"decimals()": {
						"details": "Returns the number of decimals used to get its user representation. For example, if `decimals` equals `2`, a balance of `505` tokens should be displayed to a user as `5,05` (`505 / 10 ** 2`).     * Tokens usually opt for a value of 18, imitating the relationship between Ether and Wei. This is the value {ERC20} uses, unless {_setupDecimals} is called.     * NOTE: This information is only used for _display_ purposes: it in no way affects any of the arithmetic of the contract, including {IERC20-balanceOf} and {IERC20-transfer}."
					},
					"decreaseAllowance(address,uint256)": {
						"details": "Atomically decreases the allowance granted to `spender` by the caller.     * This is an alternative to {approve} that can be used as a mitigation for problems described in {IERC20-approve}.     * Emits an {Approval} event indicating the updated allowance.     * Requirements:     * - `spender` cannot be the zero address. - `spender` must have allowance for the caller of at least `subtractedValue`."
					},
					"getRoleAdmin(bytes32)": {
						"details": "Returns the admin role that controls `role`. See {grantRole} and {revokeRole}.     * To change a role's admin, use {_setRoleAdmin}."
					},
					"getRoleMember(bytes32,uint256)": {
						"details": "Returns one of the accounts that have `role`. `index` must be a value between 0 and {getRoleMemberCount}, non-inclusive.     * Role bearers are not sorted in any particular way, and their ordering may change at any point.     * WARNING: When using {getRoleMember} and {getRoleMemberCount}, make sure you perform all queries on the same block. See the following https://forum.openzeppelin.com/t/iterating-over-elements-on-enumerableset-in-openzeppelin-contracts/2296[forum post] for more information."
					},
					"getRoleMemberCount(bytes32)": {
						"details": "Returns the number of accounts that have `role`. Can be used together with {getRoleMember} to enumerate all bearers of a role."
					},
					"grantRole(bytes32,address)": {
						"details": "Grants `role` to `account`.     * If `account` had not been already granted `role`, emits a {RoleGranted} event.     * Requirements:     * - the caller must have ``role``'s admin role."
					},
					"hasRole(bytes32,address)": {
						"details": "Returns `true` if `account` has been granted `role`."
					},
					"increaseAllowance(address,uint256)": {
						"details": "Atomically increases the allowance granted to `spender` by the caller.     * This is an alternative to {approve} that can be used as a mitigation for problems described in {IERC20-approve}.     * Emits an {Approval} event indicating the updated allowance.     * Requirements:     * - `spender` cannot be the zero address."
					},
					"mint(address,uint256)": {
						"details": "Creates `amount` new tokens for `to`.     * See {ERC20-_mint}.     * Requirements:     * - the caller must have the `MINTER_ROLE`."
					},
					"name()": {
						"details": "Returns the name of the token."
					},
					"pause()": {
						"details": "Pauses all token transfers.     * See {ERC20Pausable} and {Pausable-_pause}.     * Requirements:     * - the caller must have the `PAUSER_ROLE`."
					},
					"paused()": {
						"details": "Returns true if the contract is paused, and false otherwise."
					},
					"renounceRole(bytes32,address)": {
						"details": "Revokes `role` from the calling account.     * Roles are often managed via {grantRole} and {revokeRole}: this function's purpose is to provide a mechanism for accounts to lose their privileges if they are compromised (such as when a trusted device is misplaced).     * If the calling account had been granted `role`, emits a {RoleRevoked} event.     * Requirements:     * - the caller must be `account`."
					},
					"revokeRole(bytes32,address)": {
						"details": "Revokes `role` from `account`.     * If `account` had been granted `role`, emits a {RoleRevoked} event.     * Requirements:     * - the caller must have ``role``'s admin role."
					},
					"symbol()": {
						"details": "Returns the symbol of the token, usually a shorter version of the name."
					},
					"totalSupply()": {
						"details": "See {IERC20-totalSupply}."
					},
					"transfer(address,uint256)": {
						"details": "See {IERC20-transfer}.     * Requirements:     * - `recipient` cannot be the zero address. - the caller must have a balance of at least `amount`."
					},
					"transferFrom(address,address,uint256)": {
						"details": "See {IERC20-transferFrom}.     * Emits an {Approval} event indicating the updated allowance. This is not required by the EIP. See the note at the beginning of {ERC20}.     * Requirements:     * - `sender` and `recipient` cannot be the zero address. - `sender` must have a balance of at least `amount`. - the caller must have allowance for ``sender``'s tokens of at least `amount`."
					},
					"unpause()": {
						"details": "Unpauses all token transfers.     * See {ERC20Pausable} and {Pausable-_unpause}.     * Requirements:     * - the caller must have the `PAUSER_ROLE`."
					}
				}
			},
			"evm": {
				"assembly": "    /* \"ethereum-crosschain-contract/contracts/ExampleToken.sol\":800:2797  contract ExampleToken is Context, AccessControl, ERC20Burnable, ERC20Pausable {... */\n  mstore(0x40, 0x80)\n    /* \"ethereum-crosschain-contract/contracts/ExampleToken.sol\":1198:1463  constructor(string memory name, string memory symbol, uint8 decimals_) public ERC20(name, symbol, decimals_) {... */\n  callvalue\n    /* \"--CODEGEN--\":5:14   */\n  dup1\n    /* \"--CODEGEN--\":2:4   */\n  iszero\n  tag_1\n  jumpi\n    /* \"--CODEGEN--\":27:28   */\n  0x00\n    /* \"--CODEGEN--\":24:25   */\n  dup1\n    /* \"--CODEGEN--\":17:29   */\n  revert\n    /* \"--CODEGEN--\":2:4   */\ntag_1:\n    /* \"ethereum-crosschain-contract/contracts/ExampleToken.sol\":1198:1463  constructor(string memory name, string memory symbol, uint8 decimals_) public ERC20(name, symbol, decimals_) {... */\n  pop\n  mload(0x40)\n  sub(codesize, bytecodeSize)\n  dup1\n  bytecodeSize\n  dup4\n  codecopy\n  dup2\n  dup2\n  add\n  0x40\n  mstore\n    /* \"--CODEGEN--\":15:17   */\n  0x60\n    /* \"--CODEGEN--\":10:13   */\n  dup2\n    /* \"--CODEGEN--\":7:18   */\n  lt\n    /* \"--CODEGEN--\":4:6   */\n  iszero\n  tag_2\n  jumpi\n    /* \"--CODEGEN--\":31:32   */\n  0x00\n    /* \"--CODEGEN--\":28:29   */\n  dup1\n    /* \"--CODEGEN--\":21:33   */\n  revert\n    /* \"--CODEGEN--\":4:6   */\ntag_2:\n    /* \"ethereum-crosschain-contract/contracts/ExampleToken.sol\":1198:1463  constructor(string memory name, string memory symbol, uint8 decimals_) public ERC20(name, symbol, decimals_) {... */\n  dup2\n  add\n  swap1\n  dup1\n  dup1\n  mload\n  mload(0x40)\n  swap4\n  swap3\n  swap2\n  swap1\n  dup5\n    /* \"--CODEGEN--\":19:30   */\n  0x0100000000\n    /* \"--CODEGEN--\":14:17   */\n  dup3\n    /* \"--CODEGEN--\":11:31   */\n  gt\n    /* \"--CODEGEN--\":8:10   */\n  iszero\n  tag_3\n  jumpi\n    /* \"--CODEGEN--\":44:45   */\n  0x00\n    /* \"--CODEGEN--\":41:42   */\n  dup1\n    /* \"--CODEGEN--\":34:46   */\n  revert\n    /* \"--CODEGEN--\":8:10   */\ntag_3:\n    /* \"--CODEGEN--\":71:82   */\n  dup4\n    /* \"--CODEGEN--\":66:69   */\n  dup3\n    /* \"--CODEGEN--\":62:83   */\n  add\n    /* \"--CODEGEN--\":55:83   */\n  swap2\n  pop\n    /* \"--CODEGEN--\":123:127   */\n  0x20\n    /* \"--CODEGEN--\":118:121   */\n  dup3\n    /* \"--CODEGEN--\":114:128   */\n  add\n    /* \"--CODEGEN--\":159:168   */\n  dup6\n    /* \"--CODEGEN--\":141:157   */\n  dup2\n    /* \"--CODEGEN--\":138:169   */\n  gt\n    /* \"--CODEGEN--\":135:137   */\n  iszero\n  tag_4\n  jumpi\n    /* \"--CODEGEN--\":182:183   */\n  0x00\n    /* \"--CODEGEN--\":179:180   */\n  dup1\n    /* \"--CODEGEN--\":172:184   */\n  revert\n    /* \"--CODEGEN--\":135:137   */\ntag_4:\n    /* \"--CODEGEN--\":219:222   */\n  dup3\n    /* \"--CODEGEN--\":213:223   */\n  mload\n    /* \"--CODEGEN--\":330:339   */\n  dup7\n    /* \"--CODEGEN--\":325:326   */\n  0x01\n    /* \"--CODEGEN--\":311:323   */\n  dup3\n    /* \"--CODEGEN--\":307:327   */\n  mul\n    /* \"--CODEGEN--\":289:305   */\n  dup4\n    /* \"--CODEGEN--\":285:328   */\n  add\n    /* \"--CODEGEN--\":282:340   */\n  gt\n    /* \"--CODEGEN--\":261:272   */\n  0x0100000000\n    /* \"--CODEGEN--\":247:259   */\n  dup3\n    /* \"--CODEGEN--\":244:273   */\n  gt\n    /* \"--CODEGEN--\":233:348   */\n  or\n    /* \"--CODEGEN--\":230:232   */\n  iszero\n  tag_5\n  jumpi\n    /* \"--CODEGEN--\":361:362   */\n  0x00\n    /* \"--CODEGEN--\":358:359   */\n  dup1\n    /* \"--CODEGEN--\":351:363   */\n  revert\n    /* \"--CODEGEN--\":230:232   */\ntag_5:\n    /* \"--CODEGEN--\":384:396   */\n  dup1\n    /* \"--CODEGEN--\":379:382   */\n  dup4\n    /* \"--CODEGEN--\":372:397   */\n  mstore\n    /* \"--CODEGEN--\":420:424   */\n  0x20\n    /* \"--CODEGEN--\":415:418   */\n  dup4\n    /* \"--CODEGEN--\":411:425   */\n  add\n    /* \"--CODEGEN--\":404:425   */\n  swap3\n  pop\n    /* \"--CODEGEN--\":0:432   */\n  pop\n  pop\n    /* \"ethereum-crosschain-contract/contracts/ExampleToken.sol\":1198:1463  constructor(string memory name, string memory symbol, uint8 decimals_) public ERC20(name, symbol, decimals_) {... */\n  swap1\n  dup1\n  mload\n  swap1\n  0x20\n  add\n  swap1\n  dup1\n  dup4\n  dup4\n    /* \"--CODEGEN--\":23:24   */\n  0x00\n    /* \"--CODEGEN--\":8:108   */\ntag_6:\n    /* \"--CODEGEN--\":33:36   */\n  dup4\n    /* \"--CODEGEN--\":30:31   */\n  dup2\n    /* \"--CODEGEN--\":27:37   */\n  lt\n    /* \"--CODEGEN--\":8:108   */\n  iszero\n  tag_8\n  jumpi\n    /* \"--CODEGEN--\":99:100   */\n  dup1\n    /* \"--CODEGEN--\":94:97   */\n  dup3\n    /* \"--CODEGEN--\":90:101   */\n  add\n    /* \"--CODEGEN--\":84:102   */\n  mload\n    /* \"--CODEGEN--\":80:81   */\n  dup2\n    /* \"--CODEGEN--\":75:78   */\n  dup5\n    /* \"--CODEGEN--\":71:82   */\n  add\n    /* \"--CODEGEN--\":64:103   */\n  mstore\n    /* \"--CODEGEN--\":52:54   */\n  0x20\n    /* \"--CODEGEN--\":49:50   */\n  dup2\n    /* \"--CODEGEN--\":45:55   */\n  add\n    /* \"--CODEGEN--\":40:55   */\n  swap1\n  pop\n    /* \"--CODEGEN--\":8:108   */\n  jump(tag_6)\ntag_8:\n    /* \"--CODEGEN--\":12:26   */\n  pop\n    /* \"ethereum-crosschain-contract/contracts/ExampleToken.sol\":1198:1463  constructor(string memory name, string memory symbol, uint8 decimals_) public ERC20(name, symbol, decimals_) {... */\n  pop\n  pop\n  pop\n  swap1\n  pop\n  swap1\n  dup2\n  add\n  swap1\n  0x1f\n  and\n  dup1\n  iszero\n  tag_9\n  jumpi\n  dup1\n  dup3\n  sub\n  dup1\n  mload\n  0x01\n  dup4\n  0x20\n  sub\n  0x0100\n  exp\n  sub\n  not\n  and\n  dup2\n  mstore\n  0x20\n  add\n  swap2\n  pop\ntag_9:\n  pop\n  0x40\n  mstore\n  0x20\n  add\n  dup1\n  mload\n  mload(0x40)\n  swap4\n  swap3\n  swap2\n  swap1\n  dup5\n    /* \"--CODEGEN--\":19:30   */\n  0x0100000000\n    /* \"--CODEGEN--\":14:17   */\n  dup3\n    /* \"--CODEGEN--\":11:31   */\n  gt\n    /* \"--CODEGEN--\":8:10   */\n  iszero\n  tag_10\n  jumpi\n    /* \"--CODEGEN--\":44:45   */\n  0x00\n    /* \"--CODEGEN--\":41:42   */\n  dup1\n    /* \"--CODEGEN--\":34:46   */\n  revert\n    /* \"--CODEGEN--\":8:10   */\ntag_10:\n    /* \"--CODEGEN--\":71:82   */\n  dup4\n    /* \"--CODEGEN--\":66:69   */\n  dup3\n    /* \"--CODEGEN--\":62:83   */\n  add\n    /* \"--CODEGEN--\":55:83   */\n  swap2\n  pop\n    /* \"--CODEGEN--\":123:127   */\n  0x20\n    /* \"--CODEGEN--\":118:121   */\n  dup3\n    /* \"--CODEGEN--\":114:128   */\n  add\n    /* \"--CODEGEN--\":159:168   */\n  dup6\n    /* \"--CODEGEN--\":141:157   */\n  dup2\n    /* \"--CODEGEN--\":138:169   */\n  gt\n    /* \"--CODEGEN--\":135:137   */\n  iszero\n  tag_11\n  jumpi\n    /* \"--CODEGEN--\":182:183   */\n  0x00\n    /* \"--CODEGEN--\":179:180   */\n  dup1\n    /* \"--CODEGEN--\":172:184   */\n  revert\n    /* \"--CODEGEN--\":135:137   */\ntag_11:\n    /* \"--CODEGEN--\":219:222   */\n  dup3\n    /* \"--CODEGEN--\":213:223   */\n  mload\n    /* \"--CODEGEN--\":330:339   */\n  dup7\n    /* \"--CODEGEN--\":325:326   */\n  0x01\n    /* \"--CODEGEN--\":311:323   */\n  dup3\n    /* \"--CODEGEN--\":307:327   */\n  mul\n    /* \"--CODEGEN--\":289:305   */\n  dup4\n    /* \"--CODEGEN--\":285:328   */\n  add\n    /* \"--CODEGEN--\":282:340   */\n  gt\n    /* \"--CODEGEN--\":261:272   */\n  0x0100000000\n    /* \"--CODEGEN--\":247:259   */\n  dup3\n    /* \"--CODEGEN--\":244:273   */\n  gt\n    /* \"--CODEGEN--\":233:348   */\n  or\n    /* \"--CODEGEN--\":230:232   */\n  iszero\n  tag_12\n  jumpi\n    /* \"--CODEGEN--\":361:362   */\n  0x00\n    /* \"--CODEGEN--\":358:359   */\n  dup1\n    /* \"--CODEGEN--\":351:363   */\n  revert\n    /* \"--CODEGEN--\":230:232   */\ntag_12:\n    /* \"--CODEGEN--\":384:396   */\n  dup1\n    /* \"--CODEGEN--\":379:382   */\n  dup4\n    /* \"--CODEGEN--\":372:397   */\n  mstore\n    /* \"--CODEGEN--\":420:424   */\n  0x20\n    /* \"--CODEGEN--\":415:418   */\n  dup4\n    /* \"--CODEGEN--\":411:425   */\n  add\n    /* \"--CODEGEN--\":404:425   */\n  swap3\n  pop\n    /* \"--CODEGEN--\":0:432   */\n  pop\n  pop\n    /* \"ethereum-crosschain-contract/contracts/ExampleToken.sol\":1198:1463  constructor(string memory name, string memory symbol, uint8 decimals_) public ERC20(name, symbol, decimals_) {... */\n  swap1\n  dup1\n  mload\n  swap1\n  0x20\n  add\n  swap1\n  dup1\n  dup4\n  dup4\n    /* \"--CODEGEN--\":23:24   */\n  0x00\n    /* \"--CODEGEN--\":8:108   */\ntag_13:\n    /* \"--CODEGEN--\":33:36   */\n  dup4\n    /* \"--CODEGEN--\":30:31   */\n  dup2\n    /* \"--CODEGEN--\":27:37   */\n  lt\n    /* \"--CODEGEN--\":8:108   */\n  iszero\n  tag_15\n  jumpi\n    /* \"--CODEGEN--\":99:100   */\n  dup1\n    /* \"--CODEGEN--\":94:97   */\n  dup3\n    /* \"--CODEGEN--\":90:101   */\n  add\n    /* \"--CODEGEN--\":84:102   */\n  mload\n    /* \"--CODEGEN--\":80:81   */\n  dup2\n    /* \"--CODEGEN--\":75:78   */\n  dup5\n    /* \"--CODEGEN--\":71:82   */\n  add\n    /* \"--CODEGEN--\":64:103   */\n  mstore\n    /* \"--CODEGEN--\":52:54   */\n  0x20\n    /* \"--CODEGEN--\":49:50   */\n  dup2\n    /* \"--CODEGEN--\":45:55   */\n  add\n    /* \"--CODEGEN--\":40:55   */\n  swap1\n  pop\n    /* \"--CODEGEN--\":8:108   */\n  jump(tag_13)\ntag_15:\n    /* \"--CODEGEN--\":12:26   */\n  pop\n    /* \"ethereum-crosschain-contract/contracts/ExampleToken.sol\":1198:1463  constructor(string memory name, string memory symbol, uint8 decimals_) public ERC20(name, symbol, decimals_) {... */\n  pop\n  pop\n  pop\n  swap1\n  pop\n  swap1\n  dup2\n  add\n  swap1\n  0x1f\n  and\n  dup1\n  iszero\n  tag_16\n  jumpi\n  dup1\n  dup3\n  sub\n  dup1\n  mload\n  0x01\n  dup4\n  0x20\n  sub\n  0x0100\n  exp\n  sub\n  not\n  and\n  dup2\n  mstore\n  0x20\n  add\n  swap2\n  pop\ntag_16:\n  pop\n  0x40\n  mstore\n  0x20\n  add\n  dup1\n  mload\n  swap1\n  0x20\n  add\n  swap1\n  swap3\n  swap2\n  swap1\n  pop\n  pop\n  pop\n    /* \"ethereum-crosschain-contract/contracts/ExampleToken.sol\":1282:1286  name */\n  dup3\n    /* \"ethereum-crosschain-contract/contracts/ExampleToken.sol\":1288:1294  symbol */\n  dup3\n    /* \"ethereum-crosschain-contract/contracts/ExampleToken.sol\":1296:1305  decimals_ */\n  dup3\n    /* \"ethereum-crosschain-contract/contracts/utils/ERC20.sol\":2064:2069  name_ */\n  dup3\n    /* \"ethereum-crosschain-contract/contracts/utils/ERC20.sol\":2056:2061  _name */\n  0x04\n    /* \"ethereum-crosschain-contract/contracts/utils/ERC20.sol\":2056:2069  _name = name_ */\n  swap1\n  dup1\n  mload\n  swap1\n  0x20\n  add\n  swap1\n  tag_20\n  swap3\n  swap2\n  swap1\n  tag_21\n  jump\t// in\ntag_20:\n  pop\n    /* \"ethereum-crosschain-contract/contracts/utils/ERC20.sol\":2089:2096  symbol_ */\n  dup2\n    /* \"ethereum-crosschain-contract/contracts/utils/ERC20.sol\":2079:2086  _symbol */\n  0x05\n    /* \"ethereum-crosschain-contract/contracts/utils/ERC20.sol\":2079:2096  _symbol = symbol_ */\n  swap1\n  dup1\n  mload\n  swap1\n  0x20\n  add\n  swap1\n  tag_22\n  swap3\n  swap2\n  swap1\n  tag_21\n  jump\t// in\ntag_22:\n  pop\n    /* \"ethereum-crosschain-contract/contracts/utils/ERC20.sol\":2118:2127  decimals_ */\n  dup1\n    /* \"ethereum-crosschain-contract/contracts/utils/ERC20.sol\":2106:2115  _decimals */\n  0x06\n  0x00\n    /* \"ethereum-crosschain-contract/contracts/utils/ERC20.sol\":2106:2127  _decimals = decimals_ */\n  0x0100\n  exp\n  dup2\n  sload\n  dup2\n  0xff\n  mul\n  not\n  and\n  swap1\n  dup4\n  0xff\n  and\n  mul\n  or\n  swap1\n  sstore\n  pop\n    /* \"ethereum-crosschain-contract/contracts/utils/ERC20.sol\":1966:2134  constructor(string memory name_, string memory symbol_, uint8 decimals_) public {... */\n  pop\n  pop\n  pop\n    /* \"ethereum-crosschain-contract/contracts/ExampleToken.sol\":1317:1361  _setupRole(DEFAULT_ADMIN_ROLE, _msgSender()) */\n  tag_24\n    /* \"ethereum-crosschain-contract/contracts/utils/AccessControl.sol\":1707:1711  0x00 */\n  0x00\n    /* \"ethereum-crosschain-contract/contracts/ExampleToken.sol\":1328:1346  DEFAULT_ADMIN_ROLE */\n  dup1\n  shl\n    /* \"ethereum-crosschain-contract/contracts/ExampleToken.sol\":1348:1360  _msgSender() */\n  tag_25\n    /* \"ethereum-crosschain-contract/contracts/ExampleToken.sol\":1348:1358  _msgSender */\n  shl(0x20, tag_26)\n    /* \"ethereum-crosschain-contract/contracts/ExampleToken.sol\":1348:1360  _msgSender() */\n  0x20\n  shr\n  jump\t// in\ntag_25:\n    /* \"ethereum-crosschain-contract/contracts/ExampleToken.sol\":1317:1327  _setupRole */\n  shl(0x20, tag_27)\n    /* \"ethereum-crosschain-contract/contracts/ExampleToken.sol\":1317:1361  _setupRole(DEFAULT_ADMIN_ROLE, _msgSender()) */\n  0x20\n  shr\n  jump\t// in\ntag_24:\n    /* \"ethereum-crosschain-contract/contracts/ExampleToken.sol\":1372:1409  _setupRole(MINTER_ROLE, _msgSender()) */\n  tag_28\n    /* \"ethereum-crosschain-contract/contracts/ExampleToken.sol\":922:946  keccak256(\"MINTER_ROLE\") */\n  mload(0x40)\n  dup1\n  dup1\n  0x4d494e5445525f524f4c45000000000000000000000000000000000000000000\n  dup2\n  mstore\n  pop\n  0x0b\n  add\n  swap1\n  pop\n  mload(0x40)\n  dup1\n  swap2\n  sub\n  swap1\n  keccak256\n    /* \"ethereum-crosschain-contract/contracts/ExampleToken.sol\":1396:1408  _msgSender() */\n  tag_29\n    /* \"ethereum-crosschain-contract/contracts/ExampleToken.sol\":1396:1406  _msgSender */\n  shl(0x20, tag_26)\n    /* \"ethereum-crosschain-contract/contracts/ExampleToken.sol\":1396:1408  _msgSender() */\n  0x20\n  shr\n  jump\t// in\ntag_29:\n    /* \"ethereum-crosschain-contract/contracts/ExampleToken.sol\":1372:1382  _setupRole */\n  shl(0x20, tag_27)\n    /* \"ethereum-crosschain-contract/contracts/ExampleToken.sol\":1372:1409  _setupRole(MINTER_ROLE, _msgSender()) */\n  0x20\n  shr\n  jump\t// in\ntag_28:\n    /* \"ethereum-crosschain-contract/contracts/ExampleToken.sol\":1419:1456  _setupRole(PAUSER_ROLE, _msgSender()) */\n  tag_30\n    /* \"ethereum-crosschain-contract/contracts/ExampleToken.sol\":990:1014  keccak256(\"PAUSER_ROLE\") */\n  mload(0x40)\n  dup1\n  dup1\n  0x5041555345525f524f4c45000000000000000000000000000000000000000000\n  dup2\n  mstore\n  pop\n  0x0b\n  add\n  swap1\n  pop\n  mload(0x40)\n  dup1\n  swap2\n  sub\n  swap1\n  keccak256\n    /* \"ethereum-crosschain-contract/contracts/ExampleToken.sol\":1443:1455  _msgSender() */\n  tag_31\n    /* \"ethereum-crosschain-contract/contracts/ExampleToken.sol\":1443:1453  _msgSender */\n  shl(0x20, tag_26)\n    /* \"ethereum-crosschain-contract/contracts/ExampleToken.sol\":1443:1455  _msgSender() */\n  0x20\n  shr\n  jump\t// in\ntag_31:\n    /* \"ethereum-crosschain-contract/contracts/ExampleToken.sol\":1419:1429  _setupRole */\n  shl(0x20, tag_27)\n    /* \"ethereum-crosschain-contract/contracts/ExampleToken.sol\":1419:1456  _setupRole(PAUSER_ROLE, _msgSender()) */\n  0x20\n  shr\n  jump\t// in\ntag_30:\n    /* \"ethereum-crosschain-contract/contracts/ExampleToken.sol\":1198:1463  constructor(string memory name, string memory symbol, uint8 decimals_) public ERC20(name, symbol, decimals_) {... */\n  pop\n  pop\n  pop\n    /* \"ethereum-crosschain-contract/contracts/ExampleToken.sol\":800:2797  contract ExampleToken is Context, AccessControl, ERC20Burnable, ERC20Pausable {... */\n  jump(tag_32)\n    /* \"ethereum-crosschain-contract/contracts/utils/Context.sol\":598:702  function _msgSender() internal view virtual returns (address payable) {... */\ntag_26:\n    /* \"ethereum-crosschain-contract/contracts/utils/Context.sol\":651:666  address payable */\n  0x00\n    /* \"ethereum-crosschain-contract/contracts/utils/Context.sol\":685:695  msg.sender */\n  caller\n    /* \"ethereum-crosschain-contract/contracts/utils/Context.sol\":678:695  return msg.sender */\n  swap1\n  pop\n    /* \"ethereum-crosschain-contract/contracts/utils/Context.sol\":598:702  function _msgSender() internal view virtual returns (address payable) {... */\n  swap1\n  jump\t// out\n    /* \"ethereum-crosschain-contract/contracts/utils/AccessControl.sol\":6523:6633  function _setupRole(bytes32 role, address account) internal virtual {... */\ntag_27:\n    /* \"ethereum-crosschain-contract/contracts/utils/AccessControl.sol\":6601:6626  _grantRole(role, account) */\n  tag_35\n    /* \"ethereum-crosschain-contract/contracts/utils/AccessControl.sol\":6612:6616  role */\n  dup3\n    /* \"ethereum-crosschain-contract/contracts/utils/AccessControl.sol\":6618:6625  account */\n  dup3\n    /* \"ethereum-crosschain-contract/contracts/utils/AccessControl.sol\":6601:6611  _grantRole */\n  shl(0x20, tag_36)\n    /* \"ethereum-crosschain-contract/contracts/utils/AccessControl.sol\":6601:6626  _grantRole(role, account) */\n  0x20\n  shr\n  jump\t// in\ntag_35:\n    /* \"ethereum-crosschain-contract/contracts/utils/AccessControl.sol\":6523:6633  function _setupRole(bytes32 role, address account) internal virtual {... */\n  pop\n  pop\n  jump\t// out\n    /* \"ethereum-crosschain-contract/contracts/utils/AccessControl.sol\":6960:7144  function _grantRole(bytes32 role, address account) private {... */\ntag_36:\n    /* \"ethereum-crosschain-contract/contracts/utils/AccessControl.sol\":7033:7066  _roles[role].members.add(account) */\n  tag_38\n    /* \"ethereum-crosschain-contract/contracts/utils/AccessControl.sol\":7058:7065  account */\n  dup2\n    /* \"ethereum-crosschain-contract/contracts/utils/AccessControl.sol\":7033:7039  _roles */\n  0x00\n    /* \"ethereum-crosschain-contract/contracts/utils/AccessControl.sol\":7033:7045  _roles[role] */\n  dup1\n    /* \"ethereum-crosschain-contract/contracts/utils/AccessControl.sol\":7040:7044  role */\n  dup6\n    /* \"ethereum-crosschain-contract/contracts/utils/AccessControl.sol\":7033:7045  _roles[role] */\n  dup2\n  mstore\n  0x20\n  add\n  swap1\n  dup2\n  mstore\n  0x20\n  add\n  0x00\n  keccak256\n    /* \"ethereum-crosschain-contract/contracts/utils/AccessControl.sol\":7033:7053  _roles[role].members */\n  0x00\n  add\n    /* \"ethereum-crosschain-contract/contracts/utils/AccessControl.sol\":7033:7057  _roles[role].members.add */\n  or(tag_0_229, shl(0x20, tag_39))\n  swap1\n    /* \"ethereum-crosschain-contract/contracts/utils/AccessControl.sol\":7033:7066  _roles[role].members.add(account) */\n  swap2\n  swap1\n  0x20\n  shr\n  jump\t// in\ntag_38:\n    /* \"ethereum-crosschain-contract/contracts/utils/AccessControl.sol\":7029:7138  if (_roles[role].members.add(account)) {... */\n  iszero\n  tag_40\n  jumpi\n    /* \"ethereum-crosschain-contract/contracts/utils/AccessControl.sol\":7114:7126  _msgSender() */\n  tag_41\n    /* \"ethereum-crosschain-contract/contracts/utils/AccessControl.sol\":7114:7124  _msgSender */\n  shl(0x20, tag_26)\n    /* \"ethereum-crosschain-contract/contracts/utils/AccessControl.sol\":7114:7126  _msgSender() */\n  0x20\n  shr\n  jump\t// in\ntag_41:\n    /* \"ethereum-crosschain-contract/contracts/utils/AccessControl.sol\":7087:7127  RoleGranted(role, account, _msgSender()) */\n  0xffffffffffffffffffffffffffffffffffffffff\n  and\n    /* \"ethereum-crosschain-contract/contracts/utils/AccessControl.sol\":7105:7112  account */\n  dup2\n    /* \"ethereum-crosschain-contract/contracts/utils/AccessControl.sol\":7087:7127  RoleGranted(role, account, _msgSender()) */\n  0xffffffffffffffffffffffffffffffffffffffff\n  and\n    /* \"ethereum-crosschain-contract/contracts/utils/AccessControl.sol\":7099:7103  role */\n  dup4\n    /* \"ethereum-crosschain-contract/contracts/utils/AccessControl.sol\":7087:7127  RoleGranted(role, account, _msgSender()) */\n  0x2f8788117e7eff1d82e926ec794901d17c78024a50270940304540a733656f0d\n  mload(0x40)\n  mload(0x40)\n  dup1\n  swap2\n  sub\n  swap1\n  log4\n    /* \"ethereum-crosschain-contract/contracts/utils/AccessControl.sol\":7029:7138  if (_roles[role].members.add(account)) {... */\ntag_40:\n    /* \"ethereum-crosschain-contract/contracts/utils/AccessControl.sol\":6960:7144  function _grantRole(bytes32 role, address account) private {... */\n  pop\n  pop\n  jump\t// out\n    /* \"ethereum-crosschain-contract/contracts/libraries/EnumerableSet.sol\":6429:6579  function add(AddressSet storage set, address value) internal returns (bool) {... */\ntag_39:\n    /* \"ethereum-crosschain-contract/contracts/libraries/EnumerableSet.sol\":6499:6503  bool */\n  0x00\n    /* \"ethereum-crosschain-contract/contracts/libraries/EnumerableSet.sol\":6522:6572  _add(set._inner, bytes32(uint256(uint160(value)))) */\n  tag_43\n    /* \"ethereum-crosschain-contract/contracts/libraries/EnumerableSet.sol\":6527:6530  set */\n  dup4\n    /* \"ethereum-crosschain-contract/contracts/libraries/EnumerableSet.sol\":6527:6537  set._inner */\n  0x00\n  add\n    /* \"ethereum-crosschain-contract/contracts/libraries/EnumerableSet.sol\":6563:6568  value */\n  dup4\n    /* \"ethereum-crosschain-contract/contracts/libraries/EnumerableSet.sol\":6547:6570  uint256(uint160(value)) */\n  0xffffffffffffffffffffffffffffffffffffffff\n  and\n    /* \"ethereum-crosschain-contract/contracts/libraries/EnumerableSet.sol\":6539:6571  bytes32(uint256(uint160(value))) */\n  0x00\n  shl\n    /* \"ethereum-crosschain-contract/contracts/libraries/EnumerableSet.sol\":6522:6526  _add */\n  shl(0x20, tag_44)\n    /* \"ethereum-crosschain-contract/contracts/libraries/EnumerableSet.sol\":6522:6572  _add(set._inner, bytes32(uint256(uint160(value)))) */\n  0x20\n  shr\n  jump\t// in\ntag_43:\n    /* \"ethereum-crosschain-contract/contracts/libraries/EnumerableSet.sol\":6515:6572  return _add(set._inner, bytes32(uint256(uint160(value)))) */\n  swap1\n  pop\n    /* \"ethereum-crosschain-contract/contracts/libraries/EnumerableSet.sol\":6429:6579  function add(AddressSet storage set, address value) internal returns (bool) {... */\n  swap3\n  swap2\n  pop\n  pop\n  jump\t// out\n    /* \"ethereum-crosschain-contract/contracts/libraries/EnumerableSet.sol\":1640:2044  function _add(Set storage set, bytes32 value) private returns (bool) {... */\ntag_44:\n    /* \"ethereum-crosschain-contract/contracts/libraries/EnumerableSet.sol\":1703:1707  bool */\n  0x00\n    /* \"ethereum-crosschain-contract/contracts/libraries/EnumerableSet.sol\":1724:1745  _contains(set, value) */\n  tag_46\n    /* \"ethereum-crosschain-contract/contracts/libraries/EnumerableSet.sol\":1734:1737  set */\n  dup4\n    /* \"ethereum-crosschain-contract/contracts/libraries/EnumerableSet.sol\":1739:1744  value */\n  dup4\n    /* \"ethereum-crosschain-contract/contracts/libraries/EnumerableSet.sol\":1724:1733  _contains */\n  shl(0x20, tag_47)\n    /* \"ethereum-crosschain-contract/contracts/libraries/EnumerableSet.sol\":1724:1745  _contains(set, value) */\n  0x20\n  shr\n  jump\t// in\ntag_46:\n    /* \"ethereum-crosschain-contract/contracts/libraries/EnumerableSet.sol\":1719:2038  if (!_contains(set, value)) {... */\n  tag_48\n  jumpi\n    /* \"ethereum-crosschain-contract/contracts/libraries/EnumerableSet.sol\":1761:1764  set */\n  dup3\n    /* \"ethereum-crosschain-contract/contracts/libraries/EnumerableSet.sol\":1761:1772  set._values */\n  0x00\n  add\n    /* \"ethereum-crosschain-contract/contracts/libraries/EnumerableSet.sol\":1778:1783  value */\n  dup3\n    /* \"ethereum-crosschain-contract/contracts/libraries/EnumerableSet.sol\":1761:1784  set._values.push(value) */\n  swap1\n  dup1\n    /* \"--CODEGEN--\":39:40   */\n  0x01\n    /* \"--CODEGEN--\":33:36   */\n  dup2\n    /* \"--CODEGEN--\":27:37   */\n  sload\n    /* \"--CODEGEN--\":23:41   */\n  add\n    /* \"--CODEGEN--\":57:67   */\n  dup1\n    /* \"--CODEGEN--\":52:55   */\n  dup3\n    /* \"--CODEGEN--\":45:68   */\n  sstore\n    /* \"--CODEGEN--\":79:89   */\n  dup1\n    /* \"--CODEGEN--\":72:89   */\n  swap2\n  pop\n    /* \"--CODEGEN--\":0:93   */\n  pop\n    /* \"ethereum-crosschain-contract/contracts/libraries/EnumerableSet.sol\":1761:1784  set._values.push(value) */\n  0x01\n  swap1\n  sub\n  swap1\n  0x00\n  mstore\n  keccak256(0x00, 0x20)\n  add\n  0x00\n  swap1\n  swap2\n  swap1\n  swap2\n  swap1\n  swap2\n  pop\n  sstore\n    /* \"ethereum-crosschain-contract/contracts/libraries/EnumerableSet.sol\":1941:1944  set */\n  dup3\n    /* \"ethereum-crosschain-contract/contracts/libraries/EnumerableSet.sol\":1941:1952  set._values */\n  0x00\n  add\n    /* \"ethereum-crosschain-contract/contracts/libraries/EnumerableSet.sol\":1941:1959  set._values.length */\n  dup1\n  sload\n  swap1\n  pop\n    /* \"ethereum-crosschain-contract/contracts/libraries/EnumerableSet.sol\":1919:1922  set */\n  dup4\n    /* \"ethereum-crosschain-contract/contracts/libraries/EnumerableSet.sol\":1919:1931  set._indexes */\n  0x01\n  add\n    /* \"ethereum-crosschain-contract/contracts/libraries/EnumerableSet.sol\":1919:1938  set._indexes[value] */\n  0x00\n    /* \"ethereum-crosschain-contract/contracts/libraries/EnumerableSet.sol\":1932:1937  value */\n  dup5\n    /* \"ethereum-crosschain-contract/contracts/libraries/EnumerableSet.sol\":1919:1938  set._indexes[value] */\n  dup2\n  mstore\n  0x20\n  add\n  swap1\n  dup2\n  mstore\n  0x20\n  add\n  0x00\n  keccak256\n    /* \"ethereum-crosschain-contract/contracts/libraries/EnumerableSet.sol\":1919:1959  set._indexes[value] = set._values.length */\n  dup2\n  swap1\n  sstore\n  pop\n    /* \"ethereum-crosschain-contract/contracts/libraries/EnumerableSet.sol\":1980:1984  true */\n  0x01\n    /* \"ethereum-crosschain-contract/contracts/libraries/EnumerableSet.sol\":1973:1984  return true */\n  swap1\n  pop\n  jump(tag_45)\n    /* \"ethereum-crosschain-contract/contracts/libraries/EnumerableSet.sol\":1719:2038  if (!_contains(set, value)) {... */\ntag_48:\n    /* \"ethereum-crosschain-contract/contracts/libraries/EnumerableSet.sol\":2022:2027  false */\n  0x00\n    /* \"ethereum-crosschain-contract/contracts/libraries/EnumerableSet.sol\":2015:2027  return false */\n  swap1\n  pop\n    /* \"ethereum-crosschain-contract/contracts/libraries/EnumerableSet.sol\":1640:2044  function _add(Set storage set, bytes32 value) private returns (bool) {... */\ntag_45:\n  swap3\n  swap2\n  pop\n  pop\n  jump\t// out\n    /* \"ethereum-crosschain-contract/contracts/libraries/EnumerableSet.sol\":3805:3932  function _contains(Set storage set, bytes32 value) private view returns (bool) {... */\ntag_47:\n    /* \"ethereum-crosschain-contract/contracts/libraries/EnumerableSet.sol\":3878:3882  bool */\n  0x00\n    /* \"ethereum-crosschain-contract/contracts/libraries/EnumerableSet.sol\":3924:3925  0 */\n  dup1\n    /* \"ethereum-crosschain-contract/contracts/libraries/EnumerableSet.sol\":3901:3904  set */\n  dup4\n    /* \"ethereum-crosschain-contract/contracts/libraries/EnumerableSet.sol\":3901:3913  set._indexes */\n  0x01\n  add\n    /* \"ethereum-crosschain-contract/contracts/libraries/EnumerableSet.sol\":3901:3920  set._indexes[value] */\n  0x00\n    /* \"ethereum-crosschain-contract/contracts/libraries/EnumerableSet.sol\":3914:3919  value */\n  dup5\n    /* \"ethereum-crosschain-contract/contracts/libraries/EnumerableSet.sol\":3901:3920  set._indexes[value] */\n  dup2\n  mstore\n  0x20\n  add\n  swap1\n  dup2\n  mstore\n  0x20\n  add\n  0x00\n  keccak256\n  sload\n    /* \"ethereum-crosschain-contract/contracts/libraries/EnumerableSet.sol\":3901:3925  set._indexes[value] != 0 */\n  eq\n  iszero\n    /* \"ethereum-crosschain-contract/contracts/libraries/EnumerableSet.sol\":3894:3925  return set._indexes[value] != 0 */\n  swap1\n  pop\n    /* \"ethereum-crosschain-contract/contracts/libraries/EnumerableSet.sol\":3805:3932  function _contains(Set storage set, bytes32 value) private view returns (bool) {... */\n  swap3\n  swap2\n  pop\n  pop\n  jump\t// out\n    /* \"ethereum-crosschain-contract/contracts/ExampleToken.sol\":800:2797  contract ExampleToken is Context, AccessControl, ERC20Burnable, ERC20Pausable {... */\ntag_21:\n  dup3\n  dup1\n  sload\n  0x01\n  dup2\n  0x01\n  and\n  iszero\n  0x0100\n  mul\n  sub\n  and\n  0x02\n  swap1\n  div\n  swap1\n  0x00\n  mstore\n  keccak256(0x00, 0x20)\n  swap1\n  0x1f\n  add\n  0x20\n  swap1\n  div\n  dup2\n  add\n  swap3\n  dup3\n  0x1f\n  lt\n  tag_53\n  jumpi\n  dup1\n  mload\n  not(0xff)\n  and\n  dup4\n  dup1\n  add\n  or\n  dup6\n  sstore\n  jump(tag_52)\ntag_53:\n  dup3\n  dup1\n  add\n  0x01\n  add\n  dup6\n  sstore\n  dup3\n  iszero\n  tag_52\n  jumpi\n  swap2\n  dup3\n  add\ntag_54:\n  dup3\n  dup2\n  gt\n  iszero\n  tag_55\n  jumpi\n  dup3\n  mload\n  dup3\n  sstore\n  swap2\n  0x20\n  add\n  swap2\n  swap1\n  0x01\n  add\n  swap1\n  jump(tag_54)\ntag_55:\ntag_52:\n  pop\n  swap1\n  pop\n  tag_56\n  swap2\n  swap1\n  tag_57\n  jump\t// in\ntag_56:\n  pop\n  swap1\n  jump\t// out\ntag_57:\n  tag_58\n  swap2\n  swap1\ntag_59:\n  dup1\n  dup3\n  gt\n  iszero\n  tag_60\n  jumpi\n  0x00\n  dup2\n  0x00\n  swap1\n  sstore\n  pop\n  0x01\n  add\n  jump(tag_59)\ntag_60:\n  pop\n  swap1\n  jump\ntag_58:\n  swap1\n  jump\t// out\ntag_32:\n  dataSize(sub_0)\n  dup1\n  dataOffset(sub_0)\n  0x00\n  codecopy\n  0x00\n  return\nstop\n\nsub_0: assembly {\n        /* \"ethereum-crosschain-contract/contracts/ExampleToken.sol\":800:2797  contract ExampleToken is Context, AccessControl, ERC20Burnable, ERC20Pausable {... */\n      mstore(0x40, 0x80)\n      callvalue\n        /* \"--CODEGEN--\":5:14   */\n      dup1\n        /* \"--CODEGEN--\":2:4   */\n      iszero\n      tag_1\n      jumpi\n        /* \"--CODEGEN--\":27:28   */\n      0x00\n        /* \"--CODEGEN--\":24:25   */\n      dup1\n        /* \"--CODEGEN--\":17:29   */\n      revert\n        /* \"--CODEGEN--\":2:4   */\n    tag_1:\n        /* \"ethereum-crosschain-contract/contracts/ExampleToken.sol\":800:2797  contract ExampleToken is Context, AccessControl, ERC20Burnable, ERC20Pausable {... */\n      pop\n      jumpi(tag_2, lt(calldatasize, 0x04))\n      shr(0xe0, calldataload(0x00))\n      dup1\n      0x70a08231\n      gt\n      tag_30\n      jumpi\n      dup1\n      0xa457c2d7\n      gt\n      tag_31\n      jumpi\n      dup1\n      0xd5391393\n      gt\n      tag_32\n      jumpi\n      dup1\n      0xd5391393\n      eq\n      tag_26\n      jumpi\n      dup1\n      0xd547741f\n      eq\n      tag_27\n      jumpi\n      dup1\n      0xdd62ed3e\n      eq\n      tag_28\n      jumpi\n      dup1\n      0xe63ab1e9\n      eq\n      tag_29\n      jumpi\n      jump(tag_2)\n    tag_32:\n      dup1\n      0xa457c2d7\n      eq\n      tag_23\n      jumpi\n      dup1\n      0xa9059cbb\n      eq\n      tag_24\n      jumpi\n      dup1\n      0xca15c873\n      eq\n      tag_25\n      jumpi\n      jump(tag_2)\n    tag_31:\n      dup1\n      0x9010d07c\n      gt\n      tag_33\n      jumpi\n      dup1\n      0x9010d07c\n      eq\n      tag_19\n      jumpi\n      dup1\n      0x91d14854\n      eq\n      tag_20\n      jumpi\n      dup1\n      0x95d89b41\n      eq\n      tag_21\n      jumpi\n      dup1\n      0xa217fddf\n      eq\n      tag_22\n      jumpi\n      jump(tag_2)\n    tag_33:\n      dup1\n      0x70a08231\n      eq\n      tag_16\n      jumpi\n      dup1\n      0x79cc6790\n      eq\n      tag_17\n      jumpi\n      dup1\n      0x8456cb59\n      eq\n      tag_18\n      jumpi\n      jump(tag_2)\n    tag_30:\n      dup1\n      0x313ce567\n      gt\n      tag_34\n      jumpi\n      dup1\n      0x3f4ba83a\n      gt\n      tag_35\n      jumpi\n      dup1\n      0x3f4ba83a\n      eq\n      tag_12\n      jumpi\n      dup1\n      0x40c10f19\n      eq\n      tag_13\n      jumpi\n      dup1\n      0x42966c68\n      eq\n      tag_14\n      jumpi\n      dup1\n      0x5c975abb\n      eq\n      tag_15\n      jumpi\n      jump(tag_2)\n    tag_35:\n      dup1\n      0x313ce567\n      eq\n      tag_9\n      jumpi\n      dup1\n      0x36568abe\n      eq\n      tag_10\n      jumpi\n      dup1\n      0x39509351\n      eq\n      tag_11\n      jumpi\n      jump(tag_2)\n    tag_34:\n      dup1\n      0x06fdde03\n      eq\n      tag_3\n      jumpi\n      dup1\n      0x095ea7b3\n      eq\n      tag_4\n      jumpi\n      dup1\n      0x18160ddd\n      eq\n      tag_5\n      jumpi\n      dup1\n      0x23b872dd\n      eq\n      tag_6\n      jumpi\n      dup1\n      0x248a9ca3\n      eq\n      tag_7\n      jumpi\n      dup1\n      0x2f2ff15d\n      eq\n      tag_8\n      jumpi\n    tag_2:\n        /* \"--CODEGEN--\":12:13   */\n      0x00\n        /* \"--CODEGEN--\":9:10   */\n      dup1\n        /* \"--CODEGEN--\":2:14   */\n      revert\n        /* \"ethereum-crosschain-contract/contracts/utils/ERC20.sol\":2199:2288  function name() public view virtual returns (string memory) {... */\n    tag_3:\n      tag_36\n      tag_37\n      jump\t// in\n    tag_36:\n      mload(0x40)\n      dup1\n      dup1\n      0x20\n      add\n      dup3\n      dup2\n      sub\n      dup3\n      mstore\n      dup4\n      dup2\n      dup2\n      mload\n      dup2\n      mstore\n      0x20\n      add\n      swap2\n      pop\n      dup1\n      mload\n      swap1\n      0x20\n      add\n      swap1\n      dup1\n      dup4\n      dup4\n        /* \"--CODEGEN--\":23:24   */\n      0x00\n        /* \"--CODEGEN--\":8:108   */\n    tag_38:\n        /* \"--CODEGEN--\":33:36   */\n      dup4\n        /* \"--CODEGEN--\":30:31   */\n      dup2\n        /* \"--CODEGEN--\":27:37   */\n      lt\n        /* \"--CODEGEN--\":8:108   */\n      iszero\n      tag_40\n      jumpi\n        /* \"--CODEGEN--\":99:100   */\n      dup1\n        /* \"--CODEGEN--\":94:97   */\n      dup3\n        /* \"--CODEGEN--\":90:101   */\n      add\n        /* \"--CODEGEN--\":84:102   */\n      mload\n        /* \"--CODEGEN--\":80:81   */\n      dup2\n        /* \"--CODEGEN--\":75:78   */\n      dup5\n        /* \"--CODEGEN--\":71:82   */\n      add\n        /* \"--CODEGEN--\":64:103   */\n      mstore\n        /* \"--CODEGEN--\":52:54   */\n      0x20\n        /* \"--CODEGEN--\":49:50   */\n      dup2\n        /* \"--CODEGEN--\":45:55   */\n      add\n        /* \"--CODEGEN--\":40:55   */\n      swap1\n      pop\n        /* \"--CODEGEN--\":8:108   */\n      jump(tag_38)\n    tag_40:\n        /* \"--CODEGEN--\":12:26   */\n      pop\n        /* \"ethereum-crosschain-contract/contracts/utils/ERC20.sol\":2199:2288  function name() public view virtual returns (string memory) {... */\n      pop\n      pop\n      pop\n      swap1\n      pop\n      swap1\n      dup2\n      add\n      swap1\n      0x1f\n      and\n      dup1\n      iszero\n      tag_41\n      jumpi\n      dup1\n      dup3\n      sub\n      dup1\n      mload\n      0x01\n      dup4\n      0x20\n      sub\n      0x0100\n      exp\n      sub\n      not\n      and\n      dup2\n      mstore\n      0x20\n      add\n      swap2\n      pop\n    tag_41:\n      pop\n      swap3\n      pop\n      pop\n      pop\n      mload(0x40)\n      dup1\n      swap2\n      sub\n      swap1\n      return\n        /* \"ethereum-crosschain-contract/contracts/utils/ERC20.sol\":4399:4601  function approve(address spender, uint256 amount)... */\n    tag_4:\n      tag_42\n      0x04\n      dup1\n      calldatasize\n      sub\n        /* \"--CODEGEN--\":15:17   */\n      0x40\n        /* \"--CODEGEN--\":10:13   */\n      dup2\n        /* \"--CODEGEN--\":7:18   */\n      lt\n        /* \"--CODEGEN--\":4:6   */\n      iszero\n      tag_43\n      jumpi\n        /* \"--CODEGEN--\":31:32   */\n      0x00\n        /* \"--CODEGEN--\":28:29   */\n      dup1\n        /* \"--CODEGEN--\":21:33   */\n      revert\n        /* \"--CODEGEN--\":4:6   */\n    tag_43:\n        /* \"ethereum-crosschain-contract/contracts/utils/ERC20.sol\":4399:4601  function approve(address spender, uint256 amount)... */\n      dup2\n      add\n      swap1\n      dup1\n      dup1\n      calldataload\n      0xffffffffffffffffffffffffffffffffffffffff\n      and\n      swap1\n      0x20\n      add\n      swap1\n      swap3\n      swap2\n      swap1\n      dup1\n      calldataload\n      swap1\n      0x20\n      add\n      swap1\n      swap3\n      swap2\n      swap1\n      pop\n      pop\n      pop\n      tag_44\n      jump\t// in\n    tag_42:\n      mload(0x40)\n      dup1\n      dup3\n      iszero\n      iszero\n      iszero\n      iszero\n      dup2\n      mstore\n      0x20\n      add\n      swap2\n      pop\n      pop\n      mload(0x40)\n      dup1\n      swap2\n      sub\n      swap1\n      return\n        /* \"ethereum-crosschain-contract/contracts/utils/ERC20.sol\":3266:3372  function totalSupply() public view virtual override returns (uint256) {... */\n    tag_5:\n      tag_45\n      tag_46\n      jump\t// in\n    tag_45:\n      mload(0x40)\n      dup1\n      dup3\n      dup2\n      mstore\n      0x20\n      add\n      swap2\n      pop\n      pop\n      mload(0x40)\n      dup1\n      swap2\n      sub\n      swap1\n      return\n        /* \"ethereum-crosschain-contract/contracts/utils/ERC20.sol\":5068:5507  function transferFrom(... */\n    tag_6:\n      tag_47\n      0x04\n      dup1\n      calldatasize\n      sub\n        /* \"--CODEGEN--\":15:17   */\n      0x60\n        /* \"--CODEGEN--\":10:13   */\n      dup2\n        /* \"--CODEGEN--\":7:18   */\n      lt\n        /* \"--CODEGEN--\":4:6   */\n      iszero\n      tag_48\n      jumpi\n        /* \"--CODEGEN--\":31:32   */\n      0x00\n        /* \"--CODEGEN--\":28:29   */\n      dup1\n        /* \"--CODEGEN--\":21:33   */\n      revert\n        /* \"--CODEGEN--\":4:6   */\n    tag_48:\n        /* \"ethereum-crosschain-contract/contracts/utils/ERC20.sol\":5068:5507  function transferFrom(... */\n      dup2\n      add\n      swap1\n      dup1\n      dup1\n      calldataload\n      0xffffffffffffffffffffffffffffffffffffffff\n      and\n      swap1\n      0x20\n      add\n      swap1\n      swap3\n      swap2\n      swap1\n      dup1\n      calldataload\n      0xffffffffffffffffffffffffffffffffffffffff\n      and\n      swap1\n      0x20\n      add\n      swap1\n      swap3\n      swap2\n      swap1\n      dup1\n      calldataload\n      swap1\n      0x20\n      add\n      swap1\n      swap3\n      swap2\n      swap1\n      pop\n      pop\n      pop\n      tag_49\n      jump\t// in\n    tag_47:\n      mload(0x40)\n      dup1\n      dup3\n      iszero\n      iszero\n      iszero\n      iszero\n      dup2\n      mstore\n      0x20\n      add\n      swap2\n      pop\n      pop\n      mload(0x40)\n      dup1\n      swap2\n      sub\n      swap1\n      return\n        /* \"ethereum-crosschain-contract/contracts/utils/AccessControl.sol\":4217:4329  function getRoleAdmin(bytes32 role) public view returns (bytes32) {... */\n    tag_7:\n      tag_50\n      0x04\n      dup1\n      calldatasize\n      sub\n        /* \"--CODEGEN--\":15:17   */\n      0x20\n        /* \"--CODEGEN--\":10:13   */\n      dup2\n        /* \"--CODEGEN--\":7:18   */\n      lt\n        /* \"--CODEGEN--\":4:6   */\n      iszero\n      tag_51\n      jumpi\n        /* \"--CODEGEN--\":31:32   */\n      0x00\n        /* \"--CODEGEN--\":28:29   */\n      dup1\n        /* \"--CODEGEN--\":21:33   */\n      revert\n        /* \"--CODEGEN--\":4:6   */\n    tag_51:\n        /* \"ethereum-crosschain-contract/contracts/utils/AccessControl.sol\":4217:4329  function getRoleAdmin(bytes32 role) public view returns (bytes32) {... */\n      dup2\n      add\n      swap1\n      dup1\n      dup1\n      calldataload\n      swap1\n      0x20\n      add\n      swap1\n      swap3\n      swap2\n      swap1\n      pop\n      pop\n      pop\n      tag_52\n      jump\t// in\n    tag_50:\n      mload(0x40)\n      dup1\n      dup3\n      dup2\n      mstore\n      0x20\n      add\n      swap2\n      pop\n      pop\n      mload(0x40)\n      dup1\n      swap2\n      sub\n      swap1\n      return\n        /* \"ethereum-crosschain-contract/contracts/utils/AccessControl.sol\":4579:4802  function grantRole(bytes32 role, address account) public virtual {... */\n    tag_8:\n      tag_53\n      0x04\n      dup1\n      calldatasize\n      sub\n        /* \"--CODEGEN--\":15:17   */\n      0x40\n        /* \"--CODEGEN--\":10:13   */\n      dup2\n        /* \"--CODEGEN--\":7:18   */\n      lt\n        /* \"--CODEGEN--\":4:6   */\n      iszero\n      tag_54\n      jumpi\n        /* \"--CODEGEN--\":31:32   */\n      0x00\n        /* \"--CODEGEN--\":28:29   */\n      dup1\n        /* \"--CODEGEN--\":21:33   */\n      revert\n        /* \"--CODEGEN--\":4:6   */\n    tag_54:\n        /* \"ethereum-crosschain-contract/contracts/utils/AccessControl.sol\":4579:4802  function grantRole(bytes32 role, address account) public virtual {... */\n      dup2\n      add\n      swap1\n      dup1\n      dup1\n      calldataload\n      swap1\n      0x20\n      add\n      swap1\n      swap3\n      swap2\n      swap1\n      dup1\n      calldataload\n      0xffffffffffffffffffffffffffffffffffffffff\n      and\n      swap1\n      0x20\n      add\n      swap1\n      swap3\n      swap2\n      swap1\n      pop\n      pop\n      pop\n      tag_55\n      jump\t// in\n    tag_53:\n      stop\n        /* \"ethereum-crosschain-contract/contracts/utils/ERC20.sol\":3117:3206  function decimals() public view virtual returns (uint8) {... */\n    tag_9:\n      tag_56\n      tag_57\n      jump\t// in\n    tag_56:\n      mload(0x40)\n      dup1\n      dup3\n      0xff\n      and\n      0xff\n      and\n      dup2\n      mstore\n      0x20\n      add\n      swap2\n      pop\n      pop\n      mload(0x40)\n      dup1\n      swap2\n      sub\n      swap1\n      return\n        /* \"ethereum-crosschain-contract/contracts/utils/AccessControl.sol\":5753:5958  function renounceRole(bytes32 role, address account) public virtual {... */\n    tag_10:\n      tag_58\n      0x04\n      dup1\n      calldatasize\n      sub\n        /* \"--CODEGEN--\":15:17   */\n      0x40\n        /* \"--CODEGEN--\":10:13   */\n      dup2\n        /* \"--CODEGEN--\":7:18   */\n      lt\n        /* \"--CODEGEN--\":4:6   */\n      iszero\n      tag_59\n      jumpi\n        /* \"--CODEGEN--\":31:32   */\n      0x00\n        /* \"--CODEGEN--\":28:29   */\n      dup1\n        /* \"--CODEGEN--\":21:33   */\n      revert\n        /* \"--CODEGEN--\":4:6   */\n    tag_59:\n        /* \"ethereum-crosschain-contract/contracts/utils/AccessControl.sol\":5753:5958  function renounceRole(bytes32 role, address account) public virtual {... */\n      dup2\n      add\n      swap1\n      dup1\n      dup1\n      calldataload\n      swap1\n      0x20\n      add\n      swap1\n      swap3\n      swap2\n      swap1\n      dup1\n      calldataload\n      0xffffffffffffffffffffffffffffffffffffffff\n      and\n      swap1\n      0x20\n      add\n      swap1\n      swap3\n      swap2\n      swap1\n      pop\n      pop\n      pop\n      tag_60\n      jump\t// in\n    tag_58:\n      stop\n        /* \"ethereum-crosschain-contract/contracts/utils/ERC20.sol\":5902:6191  function increaseAllowance(address spender, uint256 addedValue)... */\n    tag_11:\n      tag_61\n      0x04\n      dup1\n      calldatasize\n      sub\n        /* \"--CODEGEN--\":15:17   */\n      0x40\n        /* \"--CODEGEN--\":10:13   */\n      dup2\n        /* \"--CODEGEN--\":7:18   */\n      lt\n        /* \"--CODEGEN--\":4:6   */\n      iszero\n      tag_62\n      jumpi\n        /* \"--CODEGEN--\":31:32   */\n      0x00\n        /* \"--CODEGEN--\":28:29   */\n      dup1\n        /* \"--CODEGEN--\":21:33   */\n      revert\n        /* \"--CODEGEN--\":4:6   */\n    tag_62:\n        /* \"ethereum-crosschain-contract/contracts/utils/ERC20.sol\":5902:6191  function increaseAllowance(address spender, uint256 addedValue)... */\n      dup2\n      add\n      swap1\n      dup1\n      dup1\n      calldataload\n      0xffffffffffffffffffffffffffffffffffffffff\n      and\n      swap1\n      0x20\n      add\n      swap1\n      swap3\n      swap2\n      swap1\n      dup1\n      calldataload\n      swap1\n      0x20\n      add\n      swap1\n      swap3\n      swap2\n      swap1\n      pop\n      pop\n      pop\n      tag_63\n      jump\t// in\n    tag_61:\n      mload(0x40)\n      dup1\n      dup3\n      iszero\n      iszero\n      iszero\n      iszero\n      dup2\n      mstore\n      0x20\n      add\n      swap2\n      pop\n      pop\n      mload(0x40)\n      dup1\n      swap2\n      sub\n      swap1\n      return\n        /* \"ethereum-crosschain-contract/contracts/ExampleToken.sol\":2433:2608  function unpause() public virtual {... */\n    tag_12:\n      tag_64\n      tag_65\n      jump\t// in\n    tag_64:\n      stop\n        /* \"ethereum-crosschain-contract/contracts/ExampleToken.sol\":1652:1854  function mint(address to, uint256 amount) public virtual {... */\n    tag_13:\n      tag_66\n      0x04\n      dup1\n      calldatasize\n      sub\n        /* \"--CODEGEN--\":15:17   */\n      0x40\n        /* \"--CODEGEN--\":10:13   */\n      dup2\n        /* \"--CODEGEN--\":7:18   */\n      lt\n        /* \"--CODEGEN--\":4:6   */\n      iszero\n      tag_67\n      jumpi\n        /* \"--CODEGEN--\":31:32   */\n      0x00\n        /* \"--CODEGEN--\":28:29   */\n      dup1\n        /* \"--CODEGEN--\":21:33   */\n      revert\n        /* \"--CODEGEN--\":4:6   */\n    tag_67:\n        /* \"ethereum-crosschain-contract/contracts/ExampleToken.sol\":1652:1854  function mint(address to, uint256 amount) public virtual {... */\n      dup2\n      add\n      swap1\n      dup1\n      dup1\n      calldataload\n      0xffffffffffffffffffffffffffffffffffffffff\n      and\n      swap1\n      0x20\n      add\n      swap1\n      swap3\n      swap2\n      swap1\n      dup1\n      calldataload\n      swap1\n      0x20\n      add\n      swap1\n      swap3\n      swap2\n      swap1\n      pop\n      pop\n      pop\n      tag_68\n      jump\t// in\n    tag_66:\n      stop\n        /* \"ethereum-crosschain-contract/contracts/utils/ERC20Burnable.sol\":521:610  function burn(uint256 amount) public virtual {... */\n    tag_14:\n      tag_69\n      0x04\n      dup1\n      calldatasize\n      sub\n        /* \"--CODEGEN--\":15:17   */\n      0x20\n        /* \"--CODEGEN--\":10:13   */\n      dup2\n        /* \"--CODEGEN--\":7:18   */\n      lt\n        /* \"--CODEGEN--\":4:6   */\n      iszero\n      tag_70\n      jumpi\n        /* \"--CODEGEN--\":31:32   */\n      0x00\n        /* \"--CODEGEN--\":28:29   */\n      dup1\n        /* \"--CODEGEN--\":21:33   */\n      revert\n        /* \"--CODEGEN--\":4:6   */\n    tag_70:\n        /* \"ethereum-crosschain-contract/contracts/utils/ERC20Burnable.sol\":521:610  function burn(uint256 amount) public virtual {... */\n      dup2\n      add\n      swap1\n      dup1\n      dup1\n      calldataload\n      swap1\n      0x20\n      add\n      swap1\n      swap3\n      swap2\n      swap1\n      pop\n      pop\n      pop\n      tag_71\n      jump\t// in\n    tag_69:\n      stop\n        /* \"ethereum-crosschain-contract/contracts/utils/Pausable.sol\":755:831  function paused() public view returns (bool) {... */\n    tag_15:\n      tag_72\n      tag_73\n      jump\t// in\n    tag_72:\n      mload(0x40)\n      dup1\n      dup3\n      iszero\n      iszero\n      iszero\n      iszero\n      dup2\n      mstore\n      0x20\n      add\n      swap2\n      pop\n      pop\n      mload(0x40)\n      dup1\n      swap2\n      sub\n      swap1\n      return\n        /* \"ethereum-crosschain-contract/contracts/utils/ERC20.sol\":3430:3599  function balanceOf(address account)... */\n    tag_16:\n      tag_74\n      0x04\n      dup1\n      calldatasize\n      sub\n        /* \"--CODEGEN--\":15:17   */\n      0x20\n        /* \"--CODEGEN--\":10:13   */\n      dup2\n        /* \"--CODEGEN--\":7:18   */\n      lt\n        /* \"--CODEGEN--\":4:6   */\n      iszero\n      tag_75\n      jumpi\n        /* \"--CODEGEN--\":31:32   */\n      0x00\n        /* \"--CODEGEN--\":28:29   */\n      dup1\n        /* \"--CODEGEN--\":21:33   */\n      revert\n        /* \"--CODEGEN--\":4:6   */\n    tag_75:\n        /* \"ethereum-crosschain-contract/contracts/utils/ERC20.sol\":3430:3599  function balanceOf(address account)... */\n      dup2\n      add\n      swap1\n      dup1\n      dup1\n      calldataload\n      0xffffffffffffffffffffffffffffffffffffffff\n      and\n      swap1\n      0x20\n      add\n      swap1\n      swap3\n      swap2\n      swap1\n      pop\n      pop\n      pop\n      tag_76\n      jump\t// in\n    tag_74:\n      mload(0x40)\n      dup1\n      dup3\n      dup2\n      mstore\n      0x20\n      add\n      swap2\n      pop\n      pop\n      mload(0x40)\n      dup1\n      swap2\n      sub\n      swap1\n      return\n        /* \"ethereum-crosschain-contract/contracts/utils/ERC20Burnable.sol\":916:1206  function burnFrom(address account, uint256 amount) public virtual {... */\n    tag_17:\n      tag_77\n      0x04\n      dup1\n      calldatasize\n      sub\n        /* \"--CODEGEN--\":15:17   */\n      0x40\n        /* \"--CODEGEN--\":10:13   */\n      dup2\n        /* \"--CODEGEN--\":7:18   */\n      lt\n        /* \"--CODEGEN--\":4:6   */\n      iszero\n      tag_78\n      jumpi\n        /* \"--CODEGEN--\":31:32   */\n      0x00\n        /* \"--CODEGEN--\":28:29   */\n      dup1\n        /* \"--CODEGEN--\":21:33   */\n      revert\n        /* \"--CODEGEN--\":4:6   */\n    tag_78:\n        /* \"ethereum-crosschain-contract/contracts/utils/ERC20Burnable.sol\":916:1206  function burnFrom(address account, uint256 amount) public virtual {... */\n      dup2\n      add\n      swap1\n      dup1\n      dup1\n      calldataload\n      0xffffffffffffffffffffffffffffffffffffffff\n      and\n      swap1\n      0x20\n      add\n      swap1\n      swap3\n      swap2\n      swap1\n      dup1\n      calldataload\n      swap1\n      0x20\n      add\n      swap1\n      swap3\n      swap2\n      swap1\n      pop\n      pop\n      pop\n      tag_79\n      jump\t// in\n    tag_77:\n      stop\n        /* \"ethereum-crosschain-contract/contracts/ExampleToken.sol\":2057:2226  function pause() public virtual {... */\n    tag_18:\n      tag_80\n      tag_81\n      jump\t// in\n    tag_80:\n      stop\n        /* \"ethereum-crosschain-contract/contracts/utils/AccessControl.sol\":3900:4036  function getRoleMember(bytes32 role, uint256 index) public view returns (address) {... */\n    tag_19:\n      tag_82\n      0x04\n      dup1\n      calldatasize\n      sub\n        /* \"--CODEGEN--\":15:17   */\n      0x40\n        /* \"--CODEGEN--\":10:13   */\n      dup2\n        /* \"--CODEGEN--\":7:18   */\n      lt\n        /* \"--CODEGEN--\":4:6   */\n      iszero\n      tag_83\n      jumpi\n        /* \"--CODEGEN--\":31:32   */\n      0x00\n        /* \"--CODEGEN--\":28:29   */\n      dup1\n        /* \"--CODEGEN--\":21:33   */\n      revert\n        /* \"--CODEGEN--\":4:6   */\n    tag_83:\n        /* \"ethereum-crosschain-contract/contracts/utils/AccessControl.sol\":3900:4036  function getRoleMember(bytes32 role, uint256 index) public view returns (address) {... */\n      dup2\n      add\n      swap1\n      dup1\n      dup1\n      calldataload\n      swap1\n      0x20\n      add\n      swap1\n      swap3\n      swap2\n      swap1\n      dup1\n      calldataload\n      swap1\n      0x20\n      add\n      swap1\n      swap3\n      swap2\n      swap1\n      pop\n      pop\n      pop\n      tag_84\n      jump\t// in\n    tag_82:\n      mload(0x40)\n      dup1\n      dup3\n      0xffffffffffffffffffffffffffffffffffffffff\n      and\n      0xffffffffffffffffffffffffffffffffffffffff\n      and\n      dup2\n      mstore\n      0x20\n      add\n      swap2\n      pop\n      pop\n      mload(0x40)\n      dup1\n      swap2\n      sub\n      swap1\n      return\n        /* \"ethereum-crosschain-contract/contracts/utils/AccessControl.sol\":2885:3022  function hasRole(bytes32 role, address account) public view returns (bool) {... */\n    tag_20:\n      tag_85\n      0x04\n      dup1\n      calldatasize\n      sub\n        /* \"--CODEGEN--\":15:17   */\n      0x40\n        /* \"--CODEGEN--\":10:13   */\n      dup2\n        /* \"--CODEGEN--\":7:18   */\n      lt\n        /* \"--CODEGEN--\":4:6   */\n      iszero\n      tag_86\n      jumpi\n        /* \"--CODEGEN--\":31:32   */\n      0x00\n        /* \"--CODEGEN--\":28:29   */\n      dup1\n        /* \"--CODEGEN--\":21:33   */\n      revert\n        /* \"--CODEGEN--\":4:6   */\n    tag_86:\n        /* \"ethereum-crosschain-contract/contracts/utils/AccessControl.sol\":2885:3022  function hasRole(bytes32 role, address account) public view returns (bool) {... */\n      dup2\n      add\n      swap1\n      dup1\n      dup1\n      calldataload\n      swap1\n      0x20\n      add\n      swap1\n      swap3\n      swap2\n      swap1\n      dup1\n      calldataload\n      0xffffffffffffffffffffffffffffffffffffffff\n      and\n      swap1\n      0x20\n      add\n      swap1\n      swap3\n      swap2\n      swap1\n      pop\n      pop\n      pop\n      tag_87\n      jump\t// in\n    tag_85:\n      mload(0x40)\n      dup1\n      dup3\n      iszero\n      iszero\n      iszero\n      iszero\n      dup2\n      mstore\n      0x20\n      add\n      swap2\n      pop\n      pop\n      mload(0x40)\n      dup1\n      swap2\n      sub\n      swap1\n      return\n        /* \"ethereum-crosschain-contract/contracts/utils/ERC20.sol\":2401:2494  function symbol() public view virtual returns (string memory) {... */\n    tag_21:\n      tag_88\n      tag_89\n      jump\t// in\n    tag_88:\n      mload(0x40)\n      dup1\n      dup1\n      0x20\n      add\n      dup3\n      dup2\n      sub\n      dup3\n      mstore\n      dup4\n      dup2\n      dup2\n      mload\n      dup2\n      mstore\n      0x20\n      add\n      swap2\n      pop\n      dup1\n      mload\n      swap1\n      0x20\n      add\n      swap1\n      dup1\n      dup4\n      dup4\n        /* \"--CODEGEN--\":23:24   */\n      0x00\n        /* \"--CODEGEN--\":8:108   */\n    tag_90:\n        /* \"--CODEGEN--\":33:36   */\n      dup4\n        /* \"--CODEGEN--\":30:31   */\n      dup2\n        /* \"--CODEGEN--\":27:37   */\n      lt\n        /* \"--CODEGEN--\":8:108   */\n      iszero\n      tag_92\n      jumpi\n        /* \"--CODEGEN--\":99:100   */\n      dup1\n        /* \"--CODEGEN--\":94:97   */\n      dup3\n        /* \"--CODEGEN--\":90:101   */\n      add\n        /* \"--CODEGEN--\":84:102   */\n      mload\n        /* \"--CODEGEN--\":80:81   */\n      dup2\n        /* \"--CODEGEN--\":75:78   */\n      dup5\n        /* \"--CODEGEN--\":71:82   */\n      add\n        /* \"--CODEGEN--\":64:103   */\n      mstore\n        /* \"--CODEGEN--\":52:54   */\n      0x20\n        /* \"--CODEGEN--\":49:50   */\n      dup2\n        /* \"--CODEGEN--\":45:55   */\n      add\n        /* \"--CODEGEN--\":40:55   */\n      swap1\n      pop\n        /* \"--CODEGEN--\":8:108   */\n      jump(tag_90)\n    tag_92:\n        /* \"--CODEGEN--\":12:26   */\n      pop\n        /* \"ethereum-crosschain-contract/contracts/utils/ERC20.sol\":2401:2494  function symbol() public view virtual returns (string memory) {... */\n      pop\n      pop\n      pop\n      swap1\n      pop\n      swap1\n      dup2\n      add\n      swap1\n      0x1f\n      and\n      dup1\n      iszero\n      tag_93\n      jumpi\n      dup1\n      dup3\n      sub\n      dup1\n      mload\n      0x01\n      dup4\n      0x20\n      sub\n      0x0100\n      exp\n      sub\n      not\n      and\n      dup2\n      mstore\n      0x20\n      add\n      swap2\n      pop\n    tag_93:\n      pop\n      swap3\n      pop\n      pop\n      pop\n      mload(0x40)\n      dup1\n      swap2\n      sub\n      swap1\n      return\n        /* \"ethereum-crosschain-contract/contracts/utils/AccessControl.sol\":1662:1711  bytes32 public constant DEFAULT_ADMIN_ROLE = 0x00 */\n    tag_22:\n      tag_94\n      tag_95\n      jump\t// in\n    tag_94:\n      mload(0x40)\n      dup1\n      dup3\n      dup2\n      mstore\n      0x20\n      add\n      swap2\n      pop\n      pop\n      mload(0x40)\n      dup1\n      swap2\n      sub\n      swap1\n      return\n        /* \"ethereum-crosschain-contract/contracts/utils/ERC20.sol\":6678:7064  function decreaseAllowance(address spender, uint256 subtractedValue)... */\n    tag_23:\n      tag_96\n      0x04\n      dup1\n      calldatasize\n      sub\n        /* \"--CODEGEN--\":15:17   */\n      0x40\n        /* \"--CODEGEN--\":10:13   */\n      dup2\n        /* \"--CODEGEN--\":7:18   */\n      lt\n        /* \"--CODEGEN--\":4:6   */\n      iszero\n      tag_97\n      jumpi\n        /* \"--CODEGEN--\":31:32   */\n      0x00\n        /* \"--CODEGEN--\":28:29   */\n      dup1\n        /* \"--CODEGEN--\":21:33   */\n      revert\n        /* \"--CODEGEN--\":4:6   */\n    tag_97:\n        /* \"ethereum-crosschain-contract/contracts/utils/ERC20.sol\":6678:7064  function decreaseAllowance(address spender, uint256 subtractedValue)... */\n      dup2\n      add\n      swap1\n      dup1\n      dup1\n      calldataload\n      0xffffffffffffffffffffffffffffffffffffffff\n      and\n      swap1\n      0x20\n      add\n      swap1\n      swap3\n      swap2\n      swap1\n      dup1\n      calldataload\n      swap1\n      0x20\n      add\n      swap1\n      swap3\n      swap2\n      swap1\n      pop\n      pop\n      pop\n      tag_98\n      jump\t// in\n    tag_96:\n      mload(0x40)\n      dup1\n      dup3\n      iszero\n      iszero\n      iszero\n      iszero\n      dup2\n      mstore\n      0x20\n      add\n      swap2\n      pop\n      pop\n      mload(0x40)\n      dup1\n      swap2\n      sub\n      swap1\n      return\n        /* \"ethereum-crosschain-contract/contracts/utils/ERC20.sol\":3802:4010  function transfer(address recipient, uint256 amount)... */\n    tag_24:\n      tag_99\n      0x04\n      dup1\n      calldatasize\n      sub\n        /* \"--CODEGEN--\":15:17   */\n      0x40\n        /* \"--CODEGEN--\":10:13   */\n      dup2\n        /* \"--CODEGEN--\":7:18   */\n      lt\n        /* \"--CODEGEN--\":4:6   */\n      iszero\n      tag_100\n      jumpi\n        /* \"--CODEGEN--\":31:32   */\n      0x00\n        /* \"--CODEGEN--\":28:29   */\n      dup1\n        /* \"--CODEGEN--\":21:33   */\n      revert\n        /* \"--CODEGEN--\":4:6   */\n    tag_100:\n        /* \"ethereum-crosschain-contract/contracts/utils/ERC20.sol\":3802:4010  function transfer(address recipient, uint256 amount)... */\n      dup2\n      add\n      swap1\n      dup1\n      dup1\n      calldataload\n      0xffffffffffffffffffffffffffffffffffffffff\n      and\n      swap1\n      0x20\n      add\n      swap1\n      swap3\n      swap2\n      swap1\n      dup1\n      calldataload\n      swap1\n      0x20\n      add\n      swap1\n      swap3\n      swap2\n      swap1\n      pop\n      pop\n      pop\n      tag_101\n      jump\t// in\n    tag_99:\n      mload(0x40)\n      dup1\n      dup3\n      iszero\n      iszero\n      iszero\n      iszero\n      dup2\n      mstore\n      0x20\n      add\n      swap2\n      pop\n      pop\n      mload(0x40)\n      dup1\n      swap2\n      sub\n      swap1\n      return\n        /* \"ethereum-crosschain-contract/contracts/utils/AccessControl.sol\":3190:3315  function getRoleMemberCount(bytes32 role) public view returns (uint256) {... */\n    tag_25:\n      tag_102\n      0x04\n      dup1\n      calldatasize\n      sub\n        /* \"--CODEGEN--\":15:17   */\n      0x20\n        /* \"--CODEGEN--\":10:13   */\n      dup2\n        /* \"--CODEGEN--\":7:18   */\n      lt\n        /* \"--CODEGEN--\":4:6   */\n      iszero\n      tag_103\n      jumpi\n        /* \"--CODEGEN--\":31:32   */\n      0x00\n        /* \"--CODEGEN--\":28:29   */\n      dup1\n        /* \"--CODEGEN--\":21:33   */\n      revert\n        /* \"--CODEGEN--\":4:6   */\n    tag_103:\n        /* \"ethereum-crosschain-contract/contracts/utils/AccessControl.sol\":3190:3315  function getRoleMemberCount(bytes32 role) public view returns (uint256) {... */\n      dup2\n      add\n      swap1\n      dup1\n      dup1\n      calldataload\n      swap1\n      0x20\n      add\n      swap1\n      swap3\n      swap2\n      swap1\n      pop\n      pop\n      pop\n      tag_104\n      jump\t// in\n    tag_102:\n      mload(0x40)\n      dup1\n      dup3\n      dup2\n      mstore\n      0x20\n      add\n      swap2\n      pop\n      pop\n      mload(0x40)\n      dup1\n      swap2\n      sub\n      swap1\n      return\n        /* \"ethereum-crosschain-contract/contracts/ExampleToken.sol\":884:946  bytes32 public constant MINTER_ROLE = keccak256(\"MINTER_ROLE\") */\n    tag_26:\n      tag_105\n      tag_106\n      jump\t// in\n    tag_105:\n      mload(0x40)\n      dup1\n      dup3\n      dup2\n      mstore\n      0x20\n      add\n      swap2\n      pop\n      pop\n      mload(0x40)\n      dup1\n      swap2\n      sub\n      swap1\n      return\n        /* \"ethereum-crosschain-contract/contracts/utils/AccessControl.sol\":5036:5262  function revokeRole(bytes32 role, address account) public virtual {... */\n    tag_27:\n      tag_107\n      0x04\n      dup1\n      calldatasize\n      sub\n        /* \"--CODEGEN--\":15:17   */\n      0x40\n        /* \"--CODEGEN--\":10:13   */\n      dup2\n        /* \"--CODEGEN--\":7:18   */\n      lt\n        /* \"--CODEGEN--\":4:6   */\n      iszero\n      tag_108\n      jumpi\n        /* \"--CODEGEN--\":31:32   */\n      0x00\n        /* \"--CODEGEN--\":28:29   */\n      dup1\n        /* \"--CODEGEN--\":21:33   */\n      revert\n        /* \"--CODEGEN--\":4:6   */\n    tag_108:\n        /* \"ethereum-crosschain-contract/contracts/utils/AccessControl.sol\":5036:5262  function revokeRole(bytes32 role, address account) public virtual {... */\n      dup2\n      add\n      swap1\n      dup1\n      dup1\n      calldataload\n      swap1\n      0x20\n      add\n      swap1\n      swap3\n      swap2\n      swap1\n      dup1\n      calldataload\n      0xffffffffffffffffffffffffffffffffffffffff\n      and\n      swap1\n      0x20\n      add\n      swap1\n      swap3\n      swap2\n      swap1\n      pop\n      pop\n      pop\n      tag_109\n      jump\t// in\n    tag_107:\n      stop\n        /* \"ethereum-crosschain-contract/contracts/utils/ERC20.sol\":4068:4261  function allowance(address owner, address spender)... */\n    tag_28:\n      tag_110\n      0x04\n      dup1\n      calldatasize\n      sub\n        /* \"--CODEGEN--\":15:17   */\n      0x40\n        /* \"--CODEGEN--\":10:13   */\n      dup2\n        /* \"--CODEGEN--\":7:18   */\n      lt\n        /* \"--CODEGEN--\":4:6   */\n      iszero\n      tag_111\n      jumpi\n        /* \"--CODEGEN--\":31:32   */\n      0x00\n        /* \"--CODEGEN--\":28:29   */\n      dup1\n        /* \"--CODEGEN--\":21:33   */\n      revert\n        /* \"--CODEGEN--\":4:6   */\n    tag_111:\n        /* \"ethereum-crosschain-contract/contracts/utils/ERC20.sol\":4068:4261  function allowance(address owner, address spender)... */\n      dup2\n      add\n      swap1\n      dup1\n      dup1\n      calldataload\n      0xffffffffffffffffffffffffffffffffffffffff\n      and\n      swap1\n      0x20\n      add\n      swap1\n      swap3\n      swap2\n      swap1\n      dup1\n      calldataload\n      0xffffffffffffffffffffffffffffffffffffffff\n      and\n      swap1\n      0x20\n      add\n      swap1\n      swap3\n      swap2\n      swap1\n      pop\n      pop\n      pop\n      tag_112\n      jump\t// in\n    tag_110:\n      mload(0x40)\n      dup1\n      dup3\n      dup2\n      mstore\n      0x20\n      add\n      swap2\n      pop\n      pop\n      mload(0x40)\n      dup1\n      swap2\n      sub\n      swap1\n      return\n        /* \"ethereum-crosschain-contract/contracts/ExampleToken.sol\":952:1014  bytes32 public constant PAUSER_ROLE = keccak256(\"PAUSER_ROLE\") */\n    tag_29:\n      tag_113\n      tag_114\n      jump\t// in\n    tag_113:\n      mload(0x40)\n      dup1\n      dup3\n      dup2\n      mstore\n      0x20\n      add\n      swap2\n      pop\n      pop\n      mload(0x40)\n      dup1\n      swap2\n      sub\n      swap1\n      return\n        /* \"ethereum-crosschain-contract/contracts/utils/ERC20.sol\":2199:2288  function name() public view virtual returns (string memory) {... */\n    tag_37:\n        /* \"ethereum-crosschain-contract/contracts/utils/ERC20.sol\":2244:2257  string memory */\n      0x60\n        /* \"ethereum-crosschain-contract/contracts/utils/ERC20.sol\":2276:2281  _name */\n      0x04\n        /* \"ethereum-crosschain-contract/contracts/utils/ERC20.sol\":2269:2281  return _name */\n      dup1\n      sload\n      0x01\n      dup2\n      0x01\n      and\n      iszero\n      0x0100\n      mul\n      sub\n      and\n      0x02\n      swap1\n      div\n      dup1\n      0x1f\n      add\n      0x20\n      dup1\n      swap2\n      div\n      mul\n      0x20\n      add\n      mload(0x40)\n      swap1\n      dup2\n      add\n      0x40\n      mstore\n      dup1\n      swap3\n      swap2\n      swap1\n      dup2\n      dup2\n      mstore\n      0x20\n      add\n      dup3\n      dup1\n      sload\n      0x01\n      dup2\n      0x01\n      and\n      iszero\n      0x0100\n      mul\n      sub\n      and\n      0x02\n      swap1\n      div\n      dup1\n      iszero\n      tag_116\n      jumpi\n      dup1\n      0x1f\n      lt\n      tag_117\n      jumpi\n      0x0100\n      dup1\n      dup4\n      sload\n      div\n      mul\n      dup4\n      mstore\n      swap2\n      0x20\n      add\n      swap2\n      jump(tag_116)\n    tag_117:\n      dup3\n      add\n      swap2\n      swap1\n      0x00\n      mstore\n      keccak256(0x00, 0x20)\n      swap1\n    tag_118:\n      dup2\n      sload\n      dup2\n      mstore\n      swap1\n      0x01\n      add\n      swap1\n      0x20\n      add\n      dup1\n      dup4\n      gt\n      tag_118\n      jumpi\n      dup3\n      swap1\n      sub\n      0x1f\n      and\n      dup3\n      add\n      swap2\n    tag_116:\n      pop\n      pop\n      pop\n      pop\n      pop\n      swap1\n      pop\n        /* \"ethereum-crosschain-contract/contracts/utils/ERC20.sol\":2199:2288  function name() public view virtual returns (string memory) {... */\n      swap1\n      jump\t// out\n        /* \"ethereum-crosschain-contract/contracts/utils/ERC20.sol\":4399:4601  function approve(address spender, uint256 amount)... */\n    tag_44:\n        /* \"ethereum-crosschain-contract/contracts/utils/ERC20.sol\":4514:4518  bool */\n      0x00\n        /* \"ethereum-crosschain-contract/contracts/utils/ERC20.sol\":4534:4573  _approve(_msgSender(), spender, amount) */\n      tag_120\n        /* \"ethereum-crosschain-contract/contracts/utils/ERC20.sol\":4543:4555  _msgSender() */\n      tag_121\n        /* \"ethereum-crosschain-contract/contracts/utils/ERC20.sol\":4543:4553  _msgSender */\n      tag_122\n        /* \"ethereum-crosschain-contract/contracts/utils/ERC20.sol\":4543:4555  _msgSender() */\n      jump\t// in\n    tag_121:\n        /* \"ethereum-crosschain-contract/contracts/utils/ERC20.sol\":4557:4564  spender */\n      dup5\n        /* \"ethereum-crosschain-contract/contracts/utils/ERC20.sol\":4566:4572  amount */\n      dup5\n        /* \"ethereum-crosschain-contract/contracts/utils/ERC20.sol\":4534:4542  _approve */\n      tag_123\n        /* \"ethereum-crosschain-contract/contracts/utils/ERC20.sol\":4534:4573  _approve(_msgSender(), spender, amount) */\n      jump\t// in\n    tag_120:\n        /* \"ethereum-crosschain-contract/contracts/utils/ERC20.sol\":4590:4594  true */\n      0x01\n        /* \"ethereum-crosschain-contract/contracts/utils/ERC20.sol\":4583:4594  return true */\n      swap1\n      pop\n        /* \"ethereum-crosschain-contract/contracts/utils/ERC20.sol\":4399:4601  function approve(address spender, uint256 amount)... */\n      swap3\n      swap2\n      pop\n      pop\n      jump\t// out\n        /* \"ethereum-crosschain-contract/contracts/utils/ERC20.sol\":3266:3372  function totalSupply() public view virtual override returns (uint256) {... */\n    tag_46:\n        /* \"ethereum-crosschain-contract/contracts/utils/ERC20.sol\":3327:3334  uint256 */\n      0x00\n        /* \"ethereum-crosschain-contract/contracts/utils/ERC20.sol\":3353:3365  _totalSupply */\n      sload(0x03)\n        /* \"ethereum-crosschain-contract/contracts/utils/ERC20.sol\":3346:3365  return _totalSupply */\n      swap1\n      pop\n        /* \"ethereum-crosschain-contract/contracts/utils/ERC20.sol\":3266:3372  function totalSupply() public view virtual override returns (uint256) {... */\n      swap1\n      jump\t// out\n        /* \"ethereum-crosschain-contract/contracts/utils/ERC20.sol\":5068:5507  function transferFrom(... */\n    tag_49:\n        /* \"ethereum-crosschain-contract/contracts/utils/ERC20.sol\":5204:5208  bool */\n      0x00\n        /* \"ethereum-crosschain-contract/contracts/utils/ERC20.sol\":5220:5256  _transfer(sender, recipient, amount) */\n      tag_126\n        /* \"ethereum-crosschain-contract/contracts/utils/ERC20.sol\":5230:5236  sender */\n      dup5\n        /* \"ethereum-crosschain-contract/contracts/utils/ERC20.sol\":5238:5247  recipient */\n      dup5\n        /* \"ethereum-crosschain-contract/contracts/utils/ERC20.sol\":5249:5255  amount */\n      dup5\n        /* \"ethereum-crosschain-contract/contracts/utils/ERC20.sol\":5220:5229  _transfer */\n      tag_127\n        /* \"ethereum-crosschain-contract/contracts/utils/ERC20.sol\":5220:5256  _transfer(sender, recipient, amount) */\n      jump\t// in\n    tag_126:\n        /* \"ethereum-crosschain-contract/contracts/utils/ERC20.sol\":5266:5479  _approve(... */\n      tag_128\n        /* \"ethereum-crosschain-contract/contracts/utils/ERC20.sol\":5288:5294  sender */\n      dup5\n        /* \"ethereum-crosschain-contract/contracts/utils/ERC20.sol\":5308:5320  _msgSender() */\n      tag_129\n        /* \"ethereum-crosschain-contract/contracts/utils/ERC20.sol\":5308:5318  _msgSender */\n      tag_122\n        /* \"ethereum-crosschain-contract/contracts/utils/ERC20.sol\":5308:5320  _msgSender() */\n      jump\t// in\n    tag_129:\n        /* \"ethereum-crosschain-contract/contracts/utils/ERC20.sol\":5334:5469  _allowances[sender][_msgSender()].sub(... */\n      tag_130\n        /* \"ethereum-crosschain-contract/contracts/utils/ERC20.sol\":5389:5395  amount */\n      dup6\n        /* \"ethereum-crosschain-contract/contracts/utils/ERC20.sol\":5334:5469  _allowances[sender][_msgSender()].sub(... */\n      mload(0x40)\n      dup1\n      0x60\n      add\n      0x40\n      mstore\n      dup1\n      0x28\n      dup2\n      mstore\n      0x20\n      add\n      data_974d1b4421da69cc60b481194f0dad36a5bb4e23da810da7a7fb30cdba178330\n      0x28\n      swap2\n      codecopy\n        /* \"ethereum-crosschain-contract/contracts/utils/ERC20.sol\":5334:5345  _allowances */\n      0x02\n        /* \"ethereum-crosschain-contract/contracts/utils/ERC20.sol\":5334:5353  _allowances[sender] */\n      0x00\n        /* \"ethereum-crosschain-contract/contracts/utils/ERC20.sol\":5346:5352  sender */\n      dup12\n        /* \"ethereum-crosschain-contract/contracts/utils/ERC20.sol\":5334:5353  _allowances[sender] */\n      0xffffffffffffffffffffffffffffffffffffffff\n      and\n      0xffffffffffffffffffffffffffffffffffffffff\n      and\n      dup2\n      mstore\n      0x20\n      add\n      swap1\n      dup2\n      mstore\n      0x20\n      add\n      0x00\n      keccak256\n        /* \"ethereum-crosschain-contract/contracts/utils/ERC20.sol\":5334:5367  _allowances[sender][_msgSender()] */\n      0x00\n        /* \"ethereum-crosschain-contract/contracts/utils/ERC20.sol\":5354:5366  _msgSender() */\n      tag_131\n        /* \"ethereum-crosschain-contract/contracts/utils/ERC20.sol\":5354:5364  _msgSender */\n      tag_122\n        /* \"ethereum-crosschain-contract/contracts/utils/ERC20.sol\":5354:5366  _msgSender() */\n      jump\t// in\n    tag_131:\n        /* \"ethereum-crosschain-contract/contracts/utils/ERC20.sol\":5334:5367  _allowances[sender][_msgSender()] */\n      0xffffffffffffffffffffffffffffffffffffffff\n      and\n      0xffffffffffffffffffffffffffffffffffffffff\n      and\n      dup2\n      mstore\n      0x20\n      add\n      swap1\n      dup2\n      mstore\n      0x20\n      add\n      0x00\n      keccak256\n      sload\n        /* \"ethereum-crosschain-contract/contracts/utils/ERC20.sol\":5334:5371  _allowances[sender][_msgSender()].sub */\n      tag_132\n      swap1\n        /* \"ethereum-crosschain-contract/contracts/utils/ERC20.sol\":5334:5469  _allowances[sender][_msgSender()].sub(... */\n      swap3\n      swap2\n      swap1\n      0xffffffff\n      and\n      jump\t// in\n    tag_130:\n        /* \"ethereum-crosschain-contract/contracts/utils/ERC20.sol\":5266:5274  _approve */\n      tag_123\n        /* \"ethereum-crosschain-contract/contracts/utils/ERC20.sol\":5266:5479  _approve(... */\n      jump\t// in\n    tag_128:\n        /* \"ethereum-crosschain-contract/contracts/utils/ERC20.sol\":5496:5500  true */\n      0x01\n        /* \"ethereum-crosschain-contract/contracts/utils/ERC20.sol\":5489:5500  return true */\n      swap1\n      pop\n        /* \"ethereum-crosschain-contract/contracts/utils/ERC20.sol\":5068:5507  function transferFrom(... */\n      swap4\n      swap3\n      pop\n      pop\n      pop\n      jump\t// out\n        /* \"ethereum-crosschain-contract/contracts/utils/AccessControl.sol\":4217:4329  function getRoleAdmin(bytes32 role) public view returns (bytes32) {... */\n    tag_52:\n        /* \"ethereum-crosschain-contract/contracts/utils/AccessControl.sol\":4274:4281  bytes32 */\n      0x00\n        /* \"ethereum-crosschain-contract/contracts/utils/AccessControl.sol\":4300:4306  _roles */\n      dup1\n        /* \"ethereum-crosschain-contract/contracts/utils/AccessControl.sol\":4300:4312  _roles[role] */\n      0x00\n        /* \"ethereum-crosschain-contract/contracts/utils/AccessControl.sol\":4307:4311  role */\n      dup4\n        /* \"ethereum-crosschain-contract/contracts/utils/AccessControl.sol\":4300:4312  _roles[role] */\n      dup2\n      mstore\n      0x20\n      add\n      swap1\n      dup2\n      mstore\n      0x20\n      add\n      0x00\n      keccak256\n        /* \"ethereum-crosschain-contract/contracts/utils/AccessControl.sol\":4300:4322  _roles[role].adminRole */\n      0x02\n      add\n      sload\n        /* \"ethereum-crosschain-contract/contracts/utils/AccessControl.sol\":4293:4322  return _roles[role].adminRole */\n      swap1\n      pop\n        /* \"ethereum-crosschain-contract/contracts/utils/AccessControl.sol\":4217:4329  function getRoleAdmin(bytes32 role) public view returns (bytes32) {... */\n      swap2\n      swap1\n      pop\n      jump\t// out\n        /* \"ethereum-crosschain-contract/contracts/utils/AccessControl.sol\":4579:4802  function grantRole(bytes32 role, address account) public virtual {... */\n    tag_55:\n        /* \"ethereum-crosschain-contract/contracts/utils/AccessControl.sol\":4662:4707  hasRole(_roles[role].adminRole, _msgSender()) */\n      tag_135\n        /* \"ethereum-crosschain-contract/contracts/utils/AccessControl.sol\":4670:4676  _roles */\n      0x00\n        /* \"ethereum-crosschain-contract/contracts/utils/AccessControl.sol\":4670:4682  _roles[role] */\n      dup1\n        /* \"ethereum-crosschain-contract/contracts/utils/AccessControl.sol\":4677:4681  role */\n      dup5\n        /* \"ethereum-crosschain-contract/contracts/utils/AccessControl.sol\":4670:4682  _roles[role] */\n      dup2\n      mstore\n      0x20\n      add\n      swap1\n      dup2\n      mstore\n      0x20\n      add\n      0x00\n      keccak256\n        /* \"ethereum-crosschain-contract/contracts/utils/AccessControl.sol\":4670:4692  _roles[role].adminRole */\n      0x02\n      add\n      sload\n        /* \"ethereum-crosschain-contract/contracts/utils/AccessControl.sol\":4694:4706  _msgSender() */\n      tag_136\n        /* \"ethereum-crosschain-contract/contracts/utils/AccessControl.sol\":4694:4704  _msgSender */\n      tag_122\n        /* \"ethereum-crosschain-contract/contracts/utils/AccessControl.sol\":4694:4706  _msgSender() */\n      jump\t// in\n    tag_136:\n        /* \"ethereum-crosschain-contract/contracts/utils/AccessControl.sol\":4662:4669  hasRole */\n      tag_87\n        /* \"ethereum-crosschain-contract/contracts/utils/AccessControl.sol\":4662:4707  hasRole(_roles[role].adminRole, _msgSender()) */\n      jump\t// in\n    tag_135:\n        /* \"ethereum-crosschain-contract/contracts/utils/AccessControl.sol\":4654:4759  require(hasRole(_roles[role].adminRole, _msgSender()), \"AccessControl: sender must be an admin to grant\") */\n      tag_137\n      jumpi\n      mload(0x40)\n      0x08c379a000000000000000000000000000000000000000000000000000000000\n      dup2\n      mstore\n      0x04\n      add\n      dup1\n      dup1\n      0x20\n      add\n      dup3\n      dup2\n      sub\n      dup3\n      mstore\n      0x2f\n      dup2\n      mstore\n      0x20\n      add\n      dup1\n      data_0ba7116025f1ef6b158a2bd2238e617f30e17c9e456917d901086ca4f8ad2811\n      0x2f\n      swap2\n      codecopy\n      0x40\n      add\n      swap2\n      pop\n      pop\n      mload(0x40)\n      dup1\n      swap2\n      sub\n      swap1\n      revert\n    tag_137:\n        /* \"ethereum-crosschain-contract/contracts/utils/AccessControl.sol\":4770:4795  _grantRole(role, account) */\n      tag_138\n        /* \"ethereum-crosschain-contract/contracts/utils/AccessControl.sol\":4781:4785  role */\n      dup3\n        /* \"ethereum-crosschain-contract/contracts/utils/AccessControl.sol\":4787:4794  account */\n      dup3\n        /* \"ethereum-crosschain-contract/contracts/utils/AccessControl.sol\":4770:4780  _grantRole */\n      tag_139\n        /* \"ethereum-crosschain-contract/contracts/utils/AccessControl.sol\":4770:4795  _grantRole(role, account) */\n      jump\t// in\n    tag_138:\n        /* \"ethereum-crosschain-contract/contracts/utils/AccessControl.sol\":4579:4802  function grantRole(bytes32 role, address account) public virtual {... */\n      pop\n      pop\n      jump\t// out\n        /* \"ethereum-crosschain-contract/contracts/utils/ERC20.sol\":3117:3206  function decimals() public view virtual returns (uint8) {... */\n    tag_57:\n        /* \"ethereum-crosschain-contract/contracts/utils/ERC20.sol\":3166:3171  uint8 */\n      0x00\n        /* \"ethereum-crosschain-contract/contracts/utils/ERC20.sol\":3190:3199  _decimals */\n      0x06\n      0x00\n      swap1\n      sload\n      swap1\n      0x0100\n      exp\n      swap1\n      div\n      0xff\n      and\n        /* \"ethereum-crosschain-contract/contracts/utils/ERC20.sol\":3183:3199  return _decimals */\n      swap1\n      pop\n        /* \"ethereum-crosschain-contract/contracts/utils/ERC20.sol\":3117:3206  function decimals() public view virtual returns (uint8) {... */\n      swap1\n      jump\t// out\n        /* \"ethereum-crosschain-contract/contracts/utils/AccessControl.sol\":5753:5958  function renounceRole(bytes32 role, address account) public virtual {... */\n    tag_60:\n        /* \"ethereum-crosschain-contract/contracts/utils/AccessControl.sol\":5850:5862  _msgSender() */\n      tag_142\n        /* \"ethereum-crosschain-contract/contracts/utils/AccessControl.sol\":5850:5860  _msgSender */\n      tag_122\n        /* \"ethereum-crosschain-contract/contracts/utils/AccessControl.sol\":5850:5862  _msgSender() */\n      jump\t// in\n    tag_142:\n        /* \"ethereum-crosschain-contract/contracts/utils/AccessControl.sol\":5839:5862  account == _msgSender() */\n      0xffffffffffffffffffffffffffffffffffffffff\n      and\n        /* \"ethereum-crosschain-contract/contracts/utils/AccessControl.sol\":5839:5846  account */\n      dup2\n        /* \"ethereum-crosschain-contract/contracts/utils/AccessControl.sol\":5839:5862  account == _msgSender() */\n      0xffffffffffffffffffffffffffffffffffffffff\n      and\n      eq\n        /* \"ethereum-crosschain-contract/contracts/utils/AccessControl.sol\":5831:5914  require(account == _msgSender(), \"AccessControl: can only renounce roles for self\") */\n      tag_143\n      jumpi\n      mload(0x40)\n      0x08c379a000000000000000000000000000000000000000000000000000000000\n      dup2\n      mstore\n      0x04\n      add\n      dup1\n      dup1\n      0x20\n      add\n      dup3\n      dup2\n      sub\n      dup3\n      mstore\n      0x2f\n      dup2\n      mstore\n      0x20\n      add\n      dup1\n      data_fb06fa8ff2141e8ed74502f6792273793f25f0e9d3cf15344f3f5a0d4948fd4b\n      0x2f\n      swap2\n      codecopy\n      0x40\n      add\n      swap2\n      pop\n      pop\n      mload(0x40)\n      dup1\n      swap2\n      sub\n      swap1\n      revert\n    tag_143:\n        /* \"ethereum-crosschain-contract/contracts/utils/AccessControl.sol\":5925:5951  _revokeRole(role, account) */\n      tag_144\n        /* \"ethereum-crosschain-contract/contracts/utils/AccessControl.sol\":5937:5941  role */\n      dup3\n        /* \"ethereum-crosschain-contract/contracts/utils/AccessControl.sol\":5943:5950  account */\n      dup3\n        /* \"ethereum-crosschain-contract/contracts/utils/AccessControl.sol\":5925:5936  _revokeRole */\n      tag_145\n        /* \"ethereum-crosschain-contract/contracts/utils/AccessControl.sol\":5925:5951  _revokeRole(role, account) */\n      jump\t// in\n    tag_144:\n        /* \"ethereum-crosschain-contract/contracts/utils/AccessControl.sol\":5753:5958  function renounceRole(bytes32 role, address account) public virtual {... */\n      pop\n      pop\n      jump\t// out\n        /* \"ethereum-crosschain-contract/contracts/utils/ERC20.sol\":5902:6191  function increaseAllowance(address spender, uint256 addedValue)... */\n    tag_63:\n        /* \"ethereum-crosschain-contract/contracts/utils/ERC20.sol\":6014:6018  bool */\n      0x00\n        /* \"ethereum-crosschain-contract/contracts/utils/ERC20.sol\":6034:6163  _approve(... */\n      tag_147\n        /* \"ethereum-crosschain-contract/contracts/utils/ERC20.sol\":6056:6068  _msgSender() */\n      tag_148\n        /* \"ethereum-crosschain-contract/contracts/utils/ERC20.sol\":6056:6066  _msgSender */\n      tag_122\n        /* \"ethereum-crosschain-contract/contracts/utils/ERC20.sol\":6056:6068  _msgSender() */\n      jump\t// in\n    tag_148:\n        /* \"ethereum-crosschain-contract/contracts/utils/ERC20.sol\":6082:6089  spender */\n      dup5\n        /* \"ethereum-crosschain-contract/contracts/utils/ERC20.sol\":6103:6153  _allowances[_msgSender()][spender].add(addedValue) */\n      tag_149\n        /* \"ethereum-crosschain-contract/contracts/utils/ERC20.sol\":6142:6152  addedValue */\n      dup6\n        /* \"ethereum-crosschain-contract/contracts/utils/ERC20.sol\":6103:6114  _allowances */\n      0x02\n        /* \"ethereum-crosschain-contract/contracts/utils/ERC20.sol\":6103:6128  _allowances[_msgSender()] */\n      0x00\n        /* \"ethereum-crosschain-contract/contracts/utils/ERC20.sol\":6115:6127  _msgSender() */\n      tag_150\n        /* \"ethereum-crosschain-contract/contracts/utils/ERC20.sol\":6115:6125  _msgSender */\n      tag_122\n        /* \"ethereum-crosschain-contract/contracts/utils/ERC20.sol\":6115:6127  _msgSender() */\n      jump\t// in\n    tag_150:\n        /* \"ethereum-crosschain-contract/contracts/utils/ERC20.sol\":6103:6128  _allowances[_msgSender()] */\n      0xffffffffffffffffffffffffffffffffffffffff\n      and\n      0xffffffffffffffffffffffffffffffffffffffff\n      and\n      dup2\n      mstore\n      0x20\n      add\n      swap1\n      dup2\n      mstore\n      0x20\n      add\n      0x00\n      keccak256\n        /* \"ethereum-crosschain-contract/contracts/utils/ERC20.sol\":6103:6137  _allowances[_msgSender()][spender] */\n      0x00\n        /* \"ethereum-crosschain-contract/contracts/utils/ERC20.sol\":6129:6136  spender */\n      dup10\n        /* \"ethereum-crosschain-contract/contracts/utils/ERC20.sol\":6103:6137  _allowances[_msgSender()][spender] */\n      0xffffffffffffffffffffffffffffffffffffffff\n      and\n      0xffffffffffffffffffffffffffffffffffffffff\n      and\n      dup2\n      mstore\n      0x20\n      add\n      swap1\n      dup2\n      mstore\n      0x20\n      add\n      0x00\n      keccak256\n      sload\n        /* \"ethereum-crosschain-contract/contracts/utils/ERC20.sol\":6103:6141  _allowances[_msgSender()][spender].add */\n      tag_151\n      swap1\n        /* \"ethereum-crosschain-contract/contracts/utils/ERC20.sol\":6103:6153  _allowances[_msgSender()][spender].add(addedValue) */\n      swap2\n      swap1\n      0xffffffff\n      and\n      jump\t// in\n    tag_149:\n        /* \"ethereum-crosschain-contract/contracts/utils/ERC20.sol\":6034:6042  _approve */\n      tag_123\n        /* \"ethereum-crosschain-contract/contracts/utils/ERC20.sol\":6034:6163  _approve(... */\n      jump\t// in\n    tag_147:\n        /* \"ethereum-crosschain-contract/contracts/utils/ERC20.sol\":6180:6184  true */\n      0x01\n        /* \"ethereum-crosschain-contract/contracts/utils/ERC20.sol\":6173:6184  return true */\n      swap1\n      pop\n        /* \"ethereum-crosschain-contract/contracts/utils/ERC20.sol\":5902:6191  function increaseAllowance(address spender, uint256 addedValue)... */\n      swap3\n      swap2\n      pop\n      pop\n      jump\t// out\n        /* \"ethereum-crosschain-contract/contracts/ExampleToken.sol\":2433:2608  function unpause() public virtual {... */\n    tag_65:\n        /* \"ethereum-crosschain-contract/contracts/ExampleToken.sol\":2485:2519  hasRole(PAUSER_ROLE, _msgSender()) */\n      tag_153\n        /* \"ethereum-crosschain-contract/contracts/ExampleToken.sol\":990:1014  keccak256(\"PAUSER_ROLE\") */\n      mload(0x40)\n      dup1\n      dup1\n      0x5041555345525f524f4c45000000000000000000000000000000000000000000\n      dup2\n      mstore\n      pop\n      0x0b\n      add\n      swap1\n      pop\n      mload(0x40)\n      dup1\n      swap2\n      sub\n      swap1\n      keccak256\n        /* \"ethereum-crosschain-contract/contracts/ExampleToken.sol\":2506:2518  _msgSender() */\n      tag_154\n        /* \"ethereum-crosschain-contract/contracts/ExampleToken.sol\":2506:2516  _msgSender */\n      tag_122\n        /* \"ethereum-crosschain-contract/contracts/ExampleToken.sol\":2506:2518  _msgSender() */\n      jump\t// in\n    tag_154:\n        /* \"ethereum-crosschain-contract/contracts/ExampleToken.sol\":2485:2492  hasRole */\n      tag_87\n        /* \"ethereum-crosschain-contract/contracts/ExampleToken.sol\":2485:2519  hasRole(PAUSER_ROLE, _msgSender()) */\n      jump\t// in\n    tag_153:\n        /* \"ethereum-crosschain-contract/contracts/ExampleToken.sol\":2477:2581  require(hasRole(PAUSER_ROLE, _msgSender()), \"ERC20PresetMinterPauser: must have pauser role to unpause\") */\n      tag_155\n      jumpi\n      mload(0x40)\n      0x08c379a000000000000000000000000000000000000000000000000000000000\n      dup2\n      mstore\n      0x04\n      add\n      dup1\n      dup1\n      0x20\n      add\n      dup3\n      dup2\n      sub\n      dup3\n      mstore\n      0x39\n      dup2\n      mstore\n      0x20\n      add\n      dup1\n      data_176e32c23b35bed3cd8ee309232e2364823f6f66078e0cf4f5b5e41eee016186\n      0x39\n      swap2\n      codecopy\n      0x40\n      add\n      swap2\n      pop\n      pop\n      mload(0x40)\n      dup1\n      swap2\n      sub\n      swap1\n      revert\n    tag_155:\n        /* \"ethereum-crosschain-contract/contracts/ExampleToken.sol\":2591:2601  _unpause() */\n      tag_156\n        /* \"ethereum-crosschain-contract/contracts/ExampleToken.sol\":2591:2599  _unpause */\n      tag_157\n        /* \"ethereum-crosschain-contract/contracts/ExampleToken.sol\":2591:2601  _unpause() */\n      jump\t// in\n    tag_156:\n        /* \"ethereum-crosschain-contract/contracts/ExampleToken.sol\":2433:2608  function unpause() public virtual {... */\n      jump\t// out\n        /* \"ethereum-crosschain-contract/contracts/ExampleToken.sol\":1652:1854  function mint(address to, uint256 amount) public virtual {... */\n    tag_68:\n        /* \"ethereum-crosschain-contract/contracts/ExampleToken.sol\":1727:1761  hasRole(MINTER_ROLE, _msgSender()) */\n      tag_159\n        /* \"ethereum-crosschain-contract/contracts/ExampleToken.sol\":922:946  keccak256(\"MINTER_ROLE\") */\n      mload(0x40)\n      dup1\n      dup1\n      0x4d494e5445525f524f4c45000000000000000000000000000000000000000000\n      dup2\n      mstore\n      pop\n      0x0b\n      add\n      swap1\n      pop\n      mload(0x40)\n      dup1\n      swap2\n      sub\n      swap1\n      keccak256\n        /* \"ethereum-crosschain-contract/contracts/ExampleToken.sol\":1748:1760  _msgSender() */\n      tag_160\n        /* \"ethereum-crosschain-contract/contracts/ExampleToken.sol\":1748:1758  _msgSender */\n      tag_122\n        /* \"ethereum-crosschain-contract/contracts/ExampleToken.sol\":1748:1760  _msgSender() */\n      jump\t// in\n    tag_160:\n        /* \"ethereum-crosschain-contract/contracts/ExampleToken.sol\":1727:1734  hasRole */\n      tag_87\n        /* \"ethereum-crosschain-contract/contracts/ExampleToken.sol\":1727:1761  hasRole(MINTER_ROLE, _msgSender()) */\n      jump\t// in\n    tag_159:\n        /* \"ethereum-crosschain-contract/contracts/ExampleToken.sol\":1719:1820  require(hasRole(MINTER_ROLE, _msgSender()), \"ERC20PresetMinterPauser: must have minter role to mint\") */\n      tag_161\n      jumpi\n      mload(0x40)\n      0x08c379a000000000000000000000000000000000000000000000000000000000\n      dup2\n      mstore\n      0x04\n      add\n      dup1\n      dup1\n      0x20\n      add\n      dup3\n      dup2\n      sub\n      dup3\n      mstore\n      0x36\n      dup2\n      mstore\n      0x20\n      add\n      dup1\n      data_9efa111136b49cf2058ce33f60fa04a5749fd87012d74cadc251e21e1db53342\n      0x36\n      swap2\n      codecopy\n      0x40\n      add\n      swap2\n      pop\n      pop\n      mload(0x40)\n      dup1\n      swap2\n      sub\n      swap1\n      revert\n    tag_161:\n        /* \"ethereum-crosschain-contract/contracts/ExampleToken.sol\":1830:1847  _mint(to, amount) */\n      tag_162\n        /* \"ethereum-crosschain-contract/contracts/ExampleToken.sol\":1836:1838  to */\n      dup3\n        /* \"ethereum-crosschain-contract/contracts/ExampleToken.sol\":1840:1846  amount */\n      dup3\n        /* \"ethereum-crosschain-contract/contracts/ExampleToken.sol\":1830:1835  _mint */\n      tag_163\n        /* \"ethereum-crosschain-contract/contracts/ExampleToken.sol\":1830:1847  _mint(to, amount) */\n      jump\t// in\n    tag_162:\n        /* \"ethereum-crosschain-contract/contracts/ExampleToken.sol\":1652:1854  function mint(address to, uint256 amount) public virtual {... */\n      pop\n      pop\n      jump\t// out\n        /* \"ethereum-crosschain-contract/contracts/utils/ERC20Burnable.sol\":521:610  function burn(uint256 amount) public virtual {... */\n    tag_71:\n        /* \"ethereum-crosschain-contract/contracts/utils/ERC20Burnable.sol\":576:603  _burn(_msgSender(), amount) */\n      tag_165\n        /* \"ethereum-crosschain-contract/contracts/utils/ERC20Burnable.sol\":582:594  _msgSender() */\n      tag_166\n        /* \"ethereum-crosschain-contract/contracts/utils/ERC20Burnable.sol\":582:592  _msgSender */\n      tag_122\n        /* \"ethereum-crosschain-contract/contracts/utils/ERC20Burnable.sol\":582:594  _msgSender() */\n      jump\t// in\n    tag_166:\n        /* \"ethereum-crosschain-contract/contracts/utils/ERC20Burnable.sol\":596:602  amount */\n      dup3\n        /* \"ethereum-crosschain-contract/contracts/utils/ERC20Burnable.sol\":576:581  _burn */\n      tag_167\n        /* \"ethereum-crosschain-contract/contracts/utils/ERC20Burnable.sol\":576:603  _burn(_msgSender(), amount) */\n      jump\t// in\n    tag_165:\n        /* \"ethereum-crosschain-contract/contracts/utils/ERC20Burnable.sol\":521:610  function burn(uint256 amount) public virtual {... */\n      pop\n      jump\t// out\n        /* \"ethereum-crosschain-contract/contracts/utils/Pausable.sol\":755:831  function paused() public view returns (bool) {... */\n    tag_73:\n        /* \"ethereum-crosschain-contract/contracts/utils/Pausable.sol\":794:798  bool */\n      0x00\n        /* \"ethereum-crosschain-contract/contracts/utils/Pausable.sol\":817:824  _paused */\n      0x06\n      0x01\n      swap1\n      sload\n      swap1\n      0x0100\n      exp\n      swap1\n      div\n      0xff\n      and\n        /* \"ethereum-crosschain-contract/contracts/utils/Pausable.sol\":810:824  return _paused */\n      swap1\n      pop\n        /* \"ethereum-crosschain-contract/contracts/utils/Pausable.sol\":755:831  function paused() public view returns (bool) {... */\n      swap1\n      jump\t// out\n        /* \"ethereum-crosschain-contract/contracts/utils/ERC20.sol\":3430:3599  function balanceOf(address account)... */\n    tag_76:\n        /* \"ethereum-crosschain-contract/contracts/utils/ERC20.sol\":3544:3551  uint256 */\n      0x00\n        /* \"ethereum-crosschain-contract/contracts/utils/ERC20.sol\":3574:3583  _balances */\n      0x01\n        /* \"ethereum-crosschain-contract/contracts/utils/ERC20.sol\":3574:3592  _balances[account] */\n      0x00\n        /* \"ethereum-crosschain-contract/contracts/utils/ERC20.sol\":3584:3591  account */\n      dup4\n        /* \"ethereum-crosschain-contract/contracts/utils/ERC20.sol\":3574:3592  _balances[account] */\n      0xffffffffffffffffffffffffffffffffffffffff\n      and\n      0xffffffffffffffffffffffffffffffffffffffff\n      and\n      dup2\n      mstore\n      0x20\n      add\n      swap1\n      dup2\n      mstore\n      0x20\n      add\n      0x00\n      keccak256\n      sload\n        /* \"ethereum-crosschain-contract/contracts/utils/ERC20.sol\":3567:3592  return _balances[account] */\n      swap1\n      pop\n        /* \"ethereum-crosschain-contract/contracts/utils/ERC20.sol\":3430:3599  function balanceOf(address account)... */\n      swap2\n      swap1\n      pop\n      jump\t// out\n        /* \"ethereum-crosschain-contract/contracts/utils/ERC20Burnable.sol\":916:1206  function burnFrom(address account, uint256 amount) public virtual {... */\n    tag_79:\n        /* \"ethereum-crosschain-contract/contracts/utils/ERC20Burnable.sol\":992:1018  uint256 decreasedAllowance */\n      0x00\n        /* \"ethereum-crosschain-contract/contracts/utils/ERC20Burnable.sol\":1021:1105  allowance(account, _msgSender()).sub(amount, \"ERC20: burn amount exceeds allowance\") */\n      tag_171\n        /* \"ethereum-crosschain-contract/contracts/utils/ERC20Burnable.sol\":1058:1064  amount */\n      dup3\n        /* \"ethereum-crosschain-contract/contracts/utils/ERC20Burnable.sol\":1021:1105  allowance(account, _msgSender()).sub(amount, \"ERC20: burn amount exceeds allowance\") */\n      mload(0x40)\n      dup1\n      0x60\n      add\n      0x40\n      mstore\n      dup1\n      0x24\n      dup2\n      mstore\n      0x20\n      add\n      data_a287c363786607a1457a2d9d12fa61c0073358e02d76b4035fc2c2d86a19c0db\n      0x24\n      swap2\n      codecopy\n        /* \"ethereum-crosschain-contract/contracts/utils/ERC20Burnable.sol\":1021:1053  allowance(account, _msgSender()) */\n      tag_172\n        /* \"ethereum-crosschain-contract/contracts/utils/ERC20Burnable.sol\":1031:1038  account */\n      dup7\n        /* \"ethereum-crosschain-contract/contracts/utils/ERC20Burnable.sol\":1040:1052  _msgSender() */\n      tag_173\n        /* \"ethereum-crosschain-contract/contracts/utils/ERC20Burnable.sol\":1040:1050  _msgSender */\n      tag_122\n        /* \"ethereum-crosschain-contract/contracts/utils/ERC20Burnable.sol\":1040:1052  _msgSender() */\n      jump\t// in\n    tag_173:\n        /* \"ethereum-crosschain-contract/contracts/utils/ERC20Burnable.sol\":1021:1030  allowance */\n      tag_112\n        /* \"ethereum-crosschain-contract/contracts/utils/ERC20Burnable.sol\":1021:1053  allowance(account, _msgSender()) */\n      jump\t// in\n    tag_172:\n        /* \"ethereum-crosschain-contract/contracts/utils/ERC20Burnable.sol\":1021:1057  allowance(account, _msgSender()).sub */\n      tag_132\n      swap1\n        /* \"ethereum-crosschain-contract/contracts/utils/ERC20Burnable.sol\":1021:1105  allowance(account, _msgSender()).sub(amount, \"ERC20: burn amount exceeds allowance\") */\n      swap3\n      swap2\n      swap1\n      0xffffffff\n      and\n      jump\t// in\n    tag_171:\n        /* \"ethereum-crosschain-contract/contracts/utils/ERC20Burnable.sol\":992:1105  uint256 decreasedAllowance = allowance(account, _msgSender()).sub(amount, \"ERC20: burn amount exceeds allowance\") */\n      swap1\n      pop\n        /* \"ethereum-crosschain-contract/contracts/utils/ERC20Burnable.sol\":1116:1167  _approve(account, _msgSender(), decreasedAllowance) */\n      tag_174\n        /* \"ethereum-crosschain-contract/contracts/utils/ERC20Burnable.sol\":1125:1132  account */\n      dup4\n        /* \"ethereum-crosschain-contract/contracts/utils/ERC20Burnable.sol\":1134:1146  _msgSender() */\n      tag_175\n        /* \"ethereum-crosschain-contract/contracts/utils/ERC20Burnable.sol\":1134:1144  _msgSender */\n      tag_122\n        /* \"ethereum-crosschain-contract/contracts/utils/ERC20Burnable.sol\":1134:1146  _msgSender() */\n      jump\t// in\n    tag_175:\n        /* \"ethereum-crosschain-contract/contracts/utils/ERC20Burnable.sol\":1148:1166  decreasedAllowance */\n      dup4\n        /* \"ethereum-crosschain-contract/contracts/utils/ERC20Burnable.sol\":1116:1124  _approve */\n      tag_123\n        /* \"ethereum-crosschain-contract/contracts/utils/ERC20Burnable.sol\":1116:1167  _approve(account, _msgSender(), decreasedAllowance) */\n      jump\t// in\n    tag_174:\n        /* \"ethereum-crosschain-contract/contracts/utils/ERC20Burnable.sol\":1177:1199  _burn(account, amount) */\n      tag_176\n        /* \"ethereum-crosschain-contract/contracts/utils/ERC20Burnable.sol\":1183:1190  account */\n      dup4\n        /* \"ethereum-crosschain-contract/contracts/utils/ERC20Burnable.sol\":1192:1198  amount */\n      dup4\n        /* \"ethereum-crosschain-contract/contracts/utils/ERC20Burnable.sol\":1177:1182  _burn */\n      tag_167\n        /* \"ethereum-crosschain-contract/contracts/utils/ERC20Burnable.sol\":1177:1199  _burn(account, amount) */\n      jump\t// in\n    tag_176:\n        /* \"ethereum-crosschain-contract/contracts/utils/ERC20Burnable.sol\":916:1206  function burnFrom(address account, uint256 amount) public virtual {... */\n      pop\n      pop\n      pop\n      jump\t// out\n        /* \"ethereum-crosschain-contract/contracts/ExampleToken.sol\":2057:2226  function pause() public virtual {... */\n    tag_81:\n        /* \"ethereum-crosschain-contract/contracts/ExampleToken.sol\":2107:2141  hasRole(PAUSER_ROLE, _msgSender()) */\n      tag_178\n        /* \"ethereum-crosschain-contract/contracts/ExampleToken.sol\":990:1014  keccak256(\"PAUSER_ROLE\") */\n      mload(0x40)\n      dup1\n      dup1\n      0x5041555345525f524f4c45000000000000000000000000000000000000000000\n      dup2\n      mstore\n      pop\n      0x0b\n      add\n      swap1\n      pop\n      mload(0x40)\n      dup1\n      swap2\n      sub\n      swap1\n      keccak256\n        /* \"ethereum-crosschain-contract/contracts/ExampleToken.sol\":2128:2140  _msgSender() */\n      tag_179\n        /* \"ethereum-crosschain-contract/contracts/ExampleToken.sol\":2128:2138  _msgSender */\n      tag_122\n        /* \"ethereum-crosschain-contract/contracts/ExampleToken.sol\":2128:2140  _msgSender() */\n      jump\t// in\n    tag_179:\n        /* \"ethereum-crosschain-contract/contracts/ExampleToken.sol\":2107:2114  hasRole */\n      tag_87\n        /* \"ethereum-crosschain-contract/contracts/ExampleToken.sol\":2107:2141  hasRole(PAUSER_ROLE, _msgSender()) */\n      jump\t// in\n    tag_178:\n        /* \"ethereum-crosschain-contract/contracts/ExampleToken.sol\":2099:2201  require(hasRole(PAUSER_ROLE, _msgSender()), \"ERC20PresetMinterPauser: must have pauser role to pause\") */\n      tag_180\n      jumpi\n      mload(0x40)\n      0x08c379a000000000000000000000000000000000000000000000000000000000\n      dup2\n      mstore\n      0x04\n      add\n      dup1\n      dup1\n      0x20\n      add\n      dup3\n      dup2\n      sub\n      dup3\n      mstore\n      0x37\n      dup2\n      mstore\n      0x20\n      add\n      dup1\n      data_d581fb23a6d539f3015b3485052424734f4b05014d1d5211f35a049cff57e330\n      0x37\n      swap2\n      codecopy\n      0x40\n      add\n      swap2\n      pop\n      pop\n      mload(0x40)\n      dup1\n      swap2\n      sub\n      swap1\n      revert\n    tag_180:\n        /* \"ethereum-crosschain-contract/contracts/ExampleToken.sol\":2211:2219  _pause() */\n      tag_181\n        /* \"ethereum-crosschain-contract/contracts/ExampleToken.sol\":2211:2217  _pause */\n      tag_182\n        /* \"ethereum-crosschain-contract/contracts/ExampleToken.sol\":2211:2219  _pause() */\n      jump\t// in\n    tag_181:\n        /* \"ethereum-crosschain-contract/contracts/ExampleToken.sol\":2057:2226  function pause() public virtual {... */\n      jump\t// out\n        /* \"ethereum-crosschain-contract/contracts/utils/AccessControl.sol\":3900:4036  function getRoleMember(bytes32 role, uint256 index) public view returns (address) {... */\n    tag_84:\n        /* \"ethereum-crosschain-contract/contracts/utils/AccessControl.sol\":3973:3980  address */\n      0x00\n        /* \"ethereum-crosschain-contract/contracts/utils/AccessControl.sol\":3999:4029  _roles[role].members.at(index) */\n      tag_184\n        /* \"ethereum-crosschain-contract/contracts/utils/AccessControl.sol\":4023:4028  index */\n      dup3\n        /* \"ethereum-crosschain-contract/contracts/utils/AccessControl.sol\":3999:4005  _roles */\n      0x00\n        /* \"ethereum-crosschain-contract/contracts/utils/AccessControl.sol\":3999:4011  _roles[role] */\n      dup1\n        /* \"ethereum-crosschain-contract/contracts/utils/AccessControl.sol\":4006:4010  role */\n      dup7\n        /* \"ethereum-crosschain-contract/contracts/utils/AccessControl.sol\":3999:4011  _roles[role] */\n      dup2\n      mstore\n      0x20\n      add\n      swap1\n      dup2\n      mstore\n      0x20\n      add\n      0x00\n      keccak256\n        /* \"ethereum-crosschain-contract/contracts/utils/AccessControl.sol\":3999:4019  _roles[role].members */\n      0x00\n      add\n        /* \"ethereum-crosschain-contract/contracts/utils/AccessControl.sol\":3999:4022  _roles[role].members.at */\n      tag_185\n      swap1\n        /* \"ethereum-crosschain-contract/contracts/utils/AccessControl.sol\":3999:4029  _roles[role].members.at(index) */\n      swap2\n      swap1\n      0xffffffff\n      and\n      jump\t// in\n    tag_184:\n        /* \"ethereum-crosschain-contract/contracts/utils/AccessControl.sol\":3992:4029  return _roles[role].members.at(index) */\n      swap1\n      pop\n        /* \"ethereum-crosschain-contract/contracts/utils/AccessControl.sol\":3900:4036  function getRoleMember(bytes32 role, uint256 index) public view returns (address) {... */\n      swap3\n      swap2\n      pop\n      pop\n      jump\t// out\n        /* \"ethereum-crosschain-contract/contracts/utils/AccessControl.sol\":2885:3022  function hasRole(bytes32 role, address account) public view returns (bool) {... */\n    tag_87:\n        /* \"ethereum-crosschain-contract/contracts/utils/AccessControl.sol\":2954:2958  bool */\n      0x00\n        /* \"ethereum-crosschain-contract/contracts/utils/AccessControl.sol\":2977:3015  _roles[role].members.contains(account) */\n      tag_187\n        /* \"ethereum-crosschain-contract/contracts/utils/AccessControl.sol\":3007:3014  account */\n      dup3\n        /* \"ethereum-crosschain-contract/contracts/utils/AccessControl.sol\":2977:2983  _roles */\n      0x00\n        /* \"ethereum-crosschain-contract/contracts/utils/AccessControl.sol\":2977:2989  _roles[role] */\n      dup1\n        /* \"ethereum-crosschain-contract/contracts/utils/AccessControl.sol\":2984:2988  role */\n      dup7\n        /* \"ethereum-crosschain-contract/contracts/utils/AccessControl.sol\":2977:2989  _roles[role] */\n      dup2\n      mstore\n      0x20\n      add\n      swap1\n      dup2\n      mstore\n      0x20\n      add\n      0x00\n      keccak256\n        /* \"ethereum-crosschain-contract/contracts/utils/AccessControl.sol\":2977:2997  _roles[role].members */\n      0x00\n      add\n        /* \"ethereum-crosschain-contract/contracts/utils/AccessControl.sol\":2977:3006  _roles[role].members.contains */\n      tag_188\n      swap1\n        /* \"ethereum-crosschain-contract/contracts/utils/AccessControl.sol\":2977:3015  _roles[role].members.contains(account) */\n      swap2\n      swap1\n      0xffffffff\n      and\n      jump\t// in\n    tag_187:\n        /* \"ethereum-crosschain-contract/contracts/utils/AccessControl.sol\":2970:3015  return _roles[role].members.contains(account) */\n      swap1\n      pop\n        /* \"ethereum-crosschain-contract/contracts/utils/AccessControl.sol\":2885:3022  function hasRole(bytes32 role, address account) public view returns (bool) {... */\n      swap3\n      swap2\n      pop\n      pop\n      jump\t// out\n        /* \"ethereum-crosschain-contract/contracts/utils/ERC20.sol\":2401:2494  function symbol() public view virtual returns (string memory) {... */\n    tag_89:\n        /* \"ethereum-crosschain-contract/contracts/utils/ERC20.sol\":2448:2461  string memory */\n      0x60\n        /* \"ethereum-crosschain-contract/contracts/utils/ERC20.sol\":2480:2487  _symbol */\n      0x05\n        /* \"ethereum-crosschain-contract/contracts/utils/ERC20.sol\":2473:2487  return _symbol */\n      dup1\n      sload\n      0x01\n      dup2\n      0x01\n      and\n      iszero\n      0x0100\n      mul\n      sub\n      and\n      0x02\n      swap1\n      div\n      dup1\n      0x1f\n      add\n      0x20\n      dup1\n      swap2\n      div\n      mul\n      0x20\n      add\n      mload(0x40)\n      swap1\n      dup2\n      add\n      0x40\n      mstore\n      dup1\n      swap3\n      swap2\n      swap1\n      dup2\n      dup2\n      mstore\n      0x20\n      add\n      dup3\n      dup1\n      sload\n      0x01\n      dup2\n      0x01\n      and\n      iszero\n      0x0100\n      mul\n      sub\n      and\n      0x02\n      swap1\n      div\n      dup1\n      iszero\n      tag_190\n      jumpi\n      dup1\n      0x1f\n      lt\n      tag_191\n      jumpi\n      0x0100\n      dup1\n      dup4\n      sload\n      div\n      mul\n      dup4\n      mstore\n      swap2\n      0x20\n      add\n      swap2\n      jump(tag_190)\n    tag_191:\n      dup3\n      add\n      swap2\n      swap1\n      0x00\n      mstore\n      keccak256(0x00, 0x20)\n      swap1\n    tag_192:\n      dup2\n      sload\n      dup2\n      mstore\n      swap1\n      0x01\n      add\n      swap1\n      0x20\n      add\n      dup1\n      dup4\n      gt\n      tag_192\n      jumpi\n      dup3\n      swap1\n      sub\n      0x1f\n      and\n      dup3\n      add\n      swap2\n    tag_190:\n      pop\n      pop\n      pop\n      pop\n      pop\n      swap1\n      pop\n        /* \"ethereum-crosschain-contract/contracts/utils/ERC20.sol\":2401:2494  function symbol() public view virtual returns (string memory) {... */\n      swap1\n      jump\t// out\n        /* \"ethereum-crosschain-contract/contracts/utils/AccessControl.sol\":1662:1711  bytes32 public constant DEFAULT_ADMIN_ROLE = 0x00 */\n    tag_95:\n        /* \"ethereum-crosschain-contract/contracts/utils/AccessControl.sol\":1707:1711  0x00 */\n      0x00\n        /* \"ethereum-crosschain-contract/contracts/utils/AccessControl.sol\":1662:1711  bytes32 public constant DEFAULT_ADMIN_ROLE = 0x00 */\n      dup1\n      shl\n      dup2\n      jump\t// out\n        /* \"ethereum-crosschain-contract/contracts/utils/ERC20.sol\":6678:7064  function decreaseAllowance(address spender, uint256 subtractedValue)... */\n    tag_98:\n        /* \"ethereum-crosschain-contract/contracts/utils/ERC20.sol\":6795:6799  bool */\n      0x00\n        /* \"ethereum-crosschain-contract/contracts/utils/ERC20.sol\":6815:7036  _approve(... */\n      tag_194\n        /* \"ethereum-crosschain-contract/contracts/utils/ERC20.sol\":6837:6849  _msgSender() */\n      tag_195\n        /* \"ethereum-crosschain-contract/contracts/utils/ERC20.sol\":6837:6847  _msgSender */\n      tag_122\n        /* \"ethereum-crosschain-contract/contracts/utils/ERC20.sol\":6837:6849  _msgSender() */\n      jump\t// in\n    tag_195:\n        /* \"ethereum-crosschain-contract/contracts/utils/ERC20.sol\":6863:6870  spender */\n      dup5\n        /* \"ethereum-crosschain-contract/contracts/utils/ERC20.sol\":6884:7026  _allowances[_msgSender()][spender].sub(... */\n      tag_196\n        /* \"ethereum-crosschain-contract/contracts/utils/ERC20.sol\":6940:6955  subtractedValue */\n      dup6\n        /* \"ethereum-crosschain-contract/contracts/utils/ERC20.sol\":6884:7026  _allowances[_msgSender()][spender].sub(... */\n      mload(0x40)\n      dup1\n      0x60\n      add\n      0x40\n      mstore\n      dup1\n      0x25\n      dup2\n      mstore\n      0x20\n      add\n      data_f8b476f7d28209d77d4a4ac1fe36b9f8259aa1bb6bddfa6e89de7e51615cf8a8\n      0x25\n      swap2\n      codecopy\n        /* \"ethereum-crosschain-contract/contracts/utils/ERC20.sol\":6884:6895  _allowances */\n      0x02\n        /* \"ethereum-crosschain-contract/contracts/utils/ERC20.sol\":6884:6909  _allowances[_msgSender()] */\n      0x00\n        /* \"ethereum-crosschain-contract/contracts/utils/ERC20.sol\":6896:6908  _msgSender() */\n      tag_197\n        /* \"ethereum-crosschain-contract/contracts/utils/ERC20.sol\":6896:6906  _msgSender */\n      tag_122\n        /* \"ethereum-crosschain-contract/contracts/utils/ERC20.sol\":6896:6908  _msgSender() */\n      jump\t// in\n    tag_197:\n        /* \"ethereum-crosschain-contract/contracts/utils/ERC20.sol\":6884:6909  _allowances[_msgSender()] */\n      0xffffffffffffffffffffffffffffffffffffffff\n      and\n      0xffffffffffffffffffffffffffffffffffffffff\n      and\n      dup2\n      mstore\n      0x20\n      add\n      swap1\n      dup2\n      mstore\n      0x20\n      add\n      0x00\n      keccak256\n        /* \"ethereum-crosschain-contract/contracts/utils/ERC20.sol\":6884:6918  _allowances[_msgSender()][spender] */\n      0x00\n        /* \"ethereum-crosschain-contract/contracts/utils/ERC20.sol\":6910:6917  spender */\n      dup11\n        /* \"ethereum-crosschain-contract/contracts/utils/ERC20.sol\":6884:6918  _allowances[_msgSender()][spender] */\n      0xffffffffffffffffffffffffffffffffffffffff\n      and\n      0xffffffffffffffffffffffffffffffffffffffff\n      and\n      dup2\n      mstore\n      0x20\n      add\n      swap1\n      dup2\n      mstore\n      0x20\n      add\n      0x00\n      keccak256\n      sload\n        /* \"ethereum-crosschain-contract/contracts/utils/ERC20.sol\":6884:6922  _allowances[_msgSender()][spender].sub */\n      tag_132\n      swap1\n        /* \"ethereum-crosschain-contract/contracts/utils/ERC20.sol\":6884:7026  _allowances[_msgSender()][spender].sub(... */\n      swap3\n      swap2\n      swap1\n      0xffffffff\n      and\n      jump\t// in\n    tag_196:\n        /* \"ethereum-crosschain-contract/contracts/utils/ERC20.sol\":6815:6823  _approve */\n      tag_123\n        /* \"ethereum-crosschain-contract/contracts/utils/ERC20.sol\":6815:7036  _approve(... */\n      jump\t// in\n    tag_194:\n        /* \"ethereum-crosschain-contract/contracts/utils/ERC20.sol\":7053:7057  true */\n      0x01\n        /* \"ethereum-crosschain-contract/contracts/utils/ERC20.sol\":7046:7057  return true */\n      swap1\n      pop\n        /* \"ethereum-crosschain-contract/contracts/utils/ERC20.sol\":6678:7064  function decreaseAllowance(address spender, uint256 subtractedValue)... */\n      swap3\n      swap2\n      pop\n      pop\n      jump\t// out\n        /* \"ethereum-crosschain-contract/contracts/utils/ERC20.sol\":3802:4010  function transfer(address recipient, uint256 amount)... */\n    tag_101:\n        /* \"ethereum-crosschain-contract/contracts/utils/ERC20.sol\":3920:3924  bool */\n      0x00\n        /* \"ethereum-crosschain-contract/contracts/utils/ERC20.sol\":3940:3982  _transfer(_msgSender(), recipient, amount) */\n      tag_199\n        /* \"ethereum-crosschain-contract/contracts/utils/ERC20.sol\":3950:3962  _msgSender() */\n      tag_200\n        /* \"ethereum-crosschain-contract/contracts/utils/ERC20.sol\":3950:3960  _msgSender */\n      tag_122\n        /* \"ethereum-crosschain-contract/contracts/utils/ERC20.sol\":3950:3962  _msgSender() */\n      jump\t// in\n    tag_200:\n        /* \"ethereum-crosschain-contract/contracts/utils/ERC20.sol\":3964:3973  recipient */\n      dup5\n        /* \"ethereum-crosschain-contract/contracts/utils/ERC20.sol\":3975:3981  amount */\n      dup5\n        /* \"ethereum-crosschain-contract/contracts/utils/ERC20.sol\":3940:3949  _transfer */\n      tag_127\n        /* \"ethereum-crosschain-contract/contracts/utils/ERC20.sol\":3940:3982  _transfer(_msgSender(), recipient, amount) */\n      jump\t// in\n    tag_199:\n        /* \"ethereum-crosschain-contract/contracts/utils/ERC20.sol\":3999:4003  true */\n      0x01\n        /* \"ethereum-crosschain-contract/contracts/utils/ERC20.sol\":3992:4003  return true */\n      swap1\n      pop\n        /* \"ethereum-crosschain-contract/contracts/utils/ERC20.sol\":3802:4010  function transfer(address recipient, uint256 amount)... */\n      swap3\n      swap2\n      pop\n      pop\n      jump\t// out\n        /* \"ethereum-crosschain-contract/contracts/utils/AccessControl.sol\":3190:3315  function getRoleMemberCount(bytes32 role) public view returns (uint256) {... */\n    tag_104:\n        /* \"ethereum-crosschain-contract/contracts/utils/AccessControl.sol\":3253:3260  uint256 */\n      0x00\n        /* \"ethereum-crosschain-contract/contracts/utils/AccessControl.sol\":3279:3308  _roles[role].members.length() */\n      tag_202\n        /* \"ethereum-crosschain-contract/contracts/utils/AccessControl.sol\":3279:3285  _roles */\n      0x00\n        /* \"ethereum-crosschain-contract/contracts/utils/AccessControl.sol\":3279:3291  _roles[role] */\n      dup1\n        /* \"ethereum-crosschain-contract/contracts/utils/AccessControl.sol\":3286:3290  role */\n      dup5\n        /* \"ethereum-crosschain-contract/contracts/utils/AccessControl.sol\":3279:3291  _roles[role] */\n      dup2\n      mstore\n      0x20\n      add\n      swap1\n      dup2\n      mstore\n      0x20\n      add\n      0x00\n      keccak256\n        /* \"ethereum-crosschain-contract/contracts/utils/AccessControl.sol\":3279:3299  _roles[role].members */\n      0x00\n      add\n        /* \"ethereum-crosschain-contract/contracts/utils/AccessControl.sol\":3279:3306  _roles[role].members.length */\n      tag_203\n        /* \"ethereum-crosschain-contract/contracts/utils/AccessControl.sol\":3279:3308  _roles[role].members.length() */\n      jump\t// in\n    tag_202:\n        /* \"ethereum-crosschain-contract/contracts/utils/AccessControl.sol\":3272:3308  return _roles[role].members.length() */\n      swap1\n      pop\n        /* \"ethereum-crosschain-contract/contracts/utils/AccessControl.sol\":3190:3315  function getRoleMemberCount(bytes32 role) public view returns (uint256) {... */\n      swap2\n      swap1\n      pop\n      jump\t// out\n        /* \"ethereum-crosschain-contract/contracts/ExampleToken.sol\":884:946  bytes32 public constant MINTER_ROLE = keccak256(\"MINTER_ROLE\") */\n    tag_106:\n        /* \"ethereum-crosschain-contract/contracts/ExampleToken.sol\":922:946  keccak256(\"MINTER_ROLE\") */\n      mload(0x40)\n      dup1\n      dup1\n      0x4d494e5445525f524f4c45000000000000000000000000000000000000000000\n      dup2\n      mstore\n      pop\n      0x0b\n      add\n      swap1\n      pop\n      mload(0x40)\n      dup1\n      swap2\n      sub\n      swap1\n      keccak256\n        /* \"ethereum-crosschain-contract/contracts/ExampleToken.sol\":884:946  bytes32 public constant MINTER_ROLE = keccak256(\"MINTER_ROLE\") */\n      dup2\n      jump\t// out\n        /* \"ethereum-crosschain-contract/contracts/utils/AccessControl.sol\":5036:5262  function revokeRole(bytes32 role, address account) public virtual {... */\n    tag_109:\n        /* \"ethereum-crosschain-contract/contracts/utils/AccessControl.sol\":5120:5165  hasRole(_roles[role].adminRole, _msgSender()) */\n      tag_205\n        /* \"ethereum-crosschain-contract/contracts/utils/AccessControl.sol\":5128:5134  _roles */\n      0x00\n        /* \"ethereum-crosschain-contract/contracts/utils/AccessControl.sol\":5128:5140  _roles[role] */\n      dup1\n        /* \"ethereum-crosschain-contract/contracts/utils/AccessControl.sol\":5135:5139  role */\n      dup5\n        /* \"ethereum-crosschain-contract/contracts/utils/AccessControl.sol\":5128:5140  _roles[role] */\n      dup2\n      mstore\n      0x20\n      add\n      swap1\n      dup2\n      mstore\n      0x20\n      add\n      0x00\n      keccak256\n        /* \"ethereum-crosschain-contract/contracts/utils/AccessControl.sol\":5128:5150  _roles[role].adminRole */\n      0x02\n      add\n      sload\n        /* \"ethereum-crosschain-contract/contracts/utils/AccessControl.sol\":5152:5164  _msgSender() */\n      tag_206\n        /* \"ethereum-crosschain-contract/contracts/utils/AccessControl.sol\":5152:5162  _msgSender */\n      tag_122\n        /* \"ethereum-crosschain-contract/contracts/utils/AccessControl.sol\":5152:5164  _msgSender() */\n      jump\t// in\n    tag_206:\n        /* \"ethereum-crosschain-contract/contracts/utils/AccessControl.sol\":5120:5127  hasRole */\n      tag_87\n        /* \"ethereum-crosschain-contract/contracts/utils/AccessControl.sol\":5120:5165  hasRole(_roles[role].adminRole, _msgSender()) */\n      jump\t// in\n    tag_205:\n        /* \"ethereum-crosschain-contract/contracts/utils/AccessControl.sol\":5112:5218  require(hasRole(_roles[role].adminRole, _msgSender()), \"AccessControl: sender must be an admin to revoke\") */\n      tag_207\n      jumpi\n      mload(0x40)\n      0x08c379a000000000000000000000000000000000000000000000000000000000\n      dup2\n      mstore\n      0x04\n      add\n      dup1\n      dup1\n      0x20\n      add\n      dup3\n      dup2\n      sub\n      dup3\n      mstore\n      0x30\n      dup2\n      mstore\n      0x20\n      add\n      dup1\n      data_64344570eab7406ca49d34d38bf2b2496dfda914405390c5057c8b0aabf798a3\n      0x30\n      swap2\n      codecopy\n      0x40\n      add\n      swap2\n      pop\n      pop\n      mload(0x40)\n      dup1\n      swap2\n      sub\n      swap1\n      revert\n    tag_207:\n        /* \"ethereum-crosschain-contract/contracts/utils/AccessControl.sol\":5229:5255  _revokeRole(role, account) */\n      tag_208\n        /* \"ethereum-crosschain-contract/contracts/utils/AccessControl.sol\":5241:5245  role */\n      dup3\n        /* \"ethereum-crosschain-contract/contracts/utils/AccessControl.sol\":5247:5254  account */\n      dup3\n        /* \"ethereum-crosschain-contract/contracts/utils/AccessControl.sol\":5229:5240  _revokeRole */\n      tag_145\n        /* \"ethereum-crosschain-contract/contracts/utils/AccessControl.sol\":5229:5255  _revokeRole(role, account) */\n      jump\t// in\n    tag_208:\n        /* \"ethereum-crosschain-contract/contracts/utils/AccessControl.sol\":5036:5262  function revokeRole(bytes32 role, address account) public virtual {... */\n      pop\n      pop\n      jump\t// out\n        /* \"ethereum-crosschain-contract/contracts/utils/ERC20.sol\":4068:4261  function allowance(address owner, address spender)... */\n    tag_112:\n        /* \"ethereum-crosschain-contract/contracts/utils/ERC20.sol\":4197:4204  uint256 */\n      0x00\n        /* \"ethereum-crosschain-contract/contracts/utils/ERC20.sol\":4227:4238  _allowances */\n      0x02\n        /* \"ethereum-crosschain-contract/contracts/utils/ERC20.sol\":4227:4245  _allowances[owner] */\n      0x00\n        /* \"ethereum-crosschain-contract/contracts/utils/ERC20.sol\":4239:4244  owner */\n      dup5\n        /* \"ethereum-crosschain-contract/contracts/utils/ERC20.sol\":4227:4245  _allowances[owner] */\n      0xffffffffffffffffffffffffffffffffffffffff\n      and\n      0xffffffffffffffffffffffffffffffffffffffff\n      and\n      dup2\n      mstore\n      0x20\n      add\n      swap1\n      dup2\n      mstore\n      0x20\n      add\n      0x00\n      keccak256\n        /* \"ethereum-crosschain-contract/contracts/utils/ERC20.sol\":4227:4254  _allowances[owner][spender] */\n      0x00\n        /* \"ethereum-crosschain-contract/contracts/utils/ERC20.sol\":4246:4253  spender */\n      dup4\n        /* \"ethereum-crosschain-contract/contracts/utils/ERC20.sol\":4227:4254  _allowances[owner][spender] */\n      0xffffffffffffffffffffffffffffffffffffffff\n      and\n      0xffffffffffffffffffffffffffffffffffffffff\n      and\n      dup2\n      mstore\n      0x20\n      add\n      swap1\n      dup2\n      mstore\n      0x20\n      add\n      0x00\n      keccak256\n      sload\n        /* \"ethereum-crosschain-contract/contracts/utils/ERC20.sol\":4220:4254  return _allowances[owner][spender] */\n      swap1\n      pop\n        /* \"ethereum-crosschain-contract/contracts/utils/ERC20.sol\":4068:4261  function allowance(address owner, address spender)... */\n      swap3\n      swap2\n      pop\n      pop\n      jump\t// out\n        /* \"ethereum-crosschain-contract/contracts/ExampleToken.sol\":952:1014  bytes32 public constant PAUSER_ROLE = keccak256(\"PAUSER_ROLE\") */\n    tag_114:\n        /* \"ethereum-crosschain-contract/contracts/ExampleToken.sol\":990:1014  keccak256(\"PAUSER_ROLE\") */\n      mload(0x40)\n      dup1\n      dup1\n      0x5041555345525f524f4c45000000000000000000000000000000000000000000\n      dup2\n      mstore\n      pop\n      0x0b\n      add\n      swap1\n      pop\n      mload(0x40)\n      dup1\n      swap2\n      sub\n      swap1\n      keccak256\n        /* \"ethereum-crosschain-contract/contracts/ExampleToken.sol\":952:1014  bytes32 public constant PAUSER_ROLE = keccak256(\"PAUSER_ROLE\") */\n      dup2\n      jump\t// out\n        /* \"ethereum-crosschain-contract/contracts/utils/Context.sol\":598:702  function _msgSender() internal view virtual returns (address payable) {... */\n    tag_122:\n        /* \"ethereum-crosschain-contract/contracts/utils/Context.sol\":651:666  address payable */\n      0x00\n        /* \"ethereum-crosschain-contract/contracts/utils/Context.sol\":685:695  msg.sender */\n      caller\n        /* \"ethereum-crosschain-contract/contracts/utils/Context.sol\":678:695  return msg.sender */\n      swap1\n      pop\n        /* \"ethereum-crosschain-contract/contracts/utils/Context.sol\":598:702  function _msgSender() internal view virtual returns (address payable) {... */\n      swap1\n      jump\t// out\n        /* \"ethereum-crosschain-contract/contracts/utils/ERC20.sol\":9960:10330  function _approve(... */\n    tag_123:\n        /* \"ethereum-crosschain-contract/contracts/utils/ERC20.sol\":10108:10109  0 */\n      0x00\n        /* \"ethereum-crosschain-contract/contracts/utils/ERC20.sol\":10091:10110  owner != address(0) */\n      0xffffffffffffffffffffffffffffffffffffffff\n      and\n        /* \"ethereum-crosschain-contract/contracts/utils/ERC20.sol\":10091:10096  owner */\n      dup4\n        /* \"ethereum-crosschain-contract/contracts/utils/ERC20.sol\":10091:10110  owner != address(0) */\n      0xffffffffffffffffffffffffffffffffffffffff\n      and\n      eq\n      iszero\n        /* \"ethereum-crosschain-contract/contracts/utils/ERC20.sol\":10083:10151  require(owner != address(0), \"ERC20: approve from the zero address\") */\n      tag_212\n      jumpi\n      mload(0x40)\n      0x08c379a000000000000000000000000000000000000000000000000000000000\n      dup2\n      mstore\n      0x04\n      add\n      dup1\n      dup1\n      0x20\n      add\n      dup3\n      dup2\n      sub\n      dup3\n      mstore\n      0x24\n      dup2\n      mstore\n      0x20\n      add\n      dup1\n      data_c953f4879035ed60e766b34720f656aab5c697b141d924c283124ecedb91c208\n      0x24\n      swap2\n      codecopy\n      0x40\n      add\n      swap2\n      pop\n      pop\n      mload(0x40)\n      dup1\n      swap2\n      sub\n      swap1\n      revert\n    tag_212:\n        /* \"ethereum-crosschain-contract/contracts/utils/ERC20.sol\":10188:10189  0 */\n      0x00\n        /* \"ethereum-crosschain-contract/contracts/utils/ERC20.sol\":10169:10190  spender != address(0) */\n      0xffffffffffffffffffffffffffffffffffffffff\n      and\n        /* \"ethereum-crosschain-contract/contracts/utils/ERC20.sol\":10169:10176  spender */\n      dup3\n        /* \"ethereum-crosschain-contract/contracts/utils/ERC20.sol\":10169:10190  spender != address(0) */\n      0xffffffffffffffffffffffffffffffffffffffff\n      and\n      eq\n      iszero\n        /* \"ethereum-crosschain-contract/contracts/utils/ERC20.sol\":10161:10229  require(spender != address(0), \"ERC20: approve to the zero address\") */\n      tag_213\n      jumpi\n      mload(0x40)\n      0x08c379a000000000000000000000000000000000000000000000000000000000\n      dup2\n      mstore\n      0x04\n      add\n      dup1\n      dup1\n      0x20\n      add\n      dup3\n      dup2\n      sub\n      dup3\n      mstore\n      0x22\n      dup2\n      mstore\n      0x20\n      add\n      dup1\n      data_24883cc5fe64ace9d0df1893501ecb93c77180f0ff69cca79affb3c316dc8029\n      0x22\n      swap2\n      codecopy\n      0x40\n      add\n      swap2\n      pop\n      pop\n      mload(0x40)\n      dup1\n      swap2\n      sub\n      swap1\n      revert\n    tag_213:\n        /* \"ethereum-crosschain-contract/contracts/utils/ERC20.sol\":10270:10276  amount */\n      dup1\n        /* \"ethereum-crosschain-contract/contracts/utils/ERC20.sol\":10240:10251  _allowances */\n      0x02\n        /* \"ethereum-crosschain-contract/contracts/utils/ERC20.sol\":10240:10258  _allowances[owner] */\n      0x00\n        /* \"ethereum-crosschain-contract/contracts/utils/ERC20.sol\":10252:10257  owner */\n      dup6\n        /* \"ethereum-crosschain-contract/contracts/utils/ERC20.sol\":10240:10258  _allowances[owner] */\n      0xffffffffffffffffffffffffffffffffffffffff\n      and\n      0xffffffffffffffffffffffffffffffffffffffff\n      and\n      dup2\n      mstore\n      0x20\n      add\n      swap1\n      dup2\n      mstore\n      0x20\n      add\n      0x00\n      keccak256\n        /* \"ethereum-crosschain-contract/contracts/utils/ERC20.sol\":10240:10267  _allowances[owner][spender] */\n      0x00\n        /* \"ethereum-crosschain-contract/contracts/utils/ERC20.sol\":10259:10266  spender */\n      dup5\n        /* \"ethereum-crosschain-contract/contracts/utils/ERC20.sol\":10240:10267  _allowances[owner][spender] */\n      0xffffffffffffffffffffffffffffffffffffffff\n      and\n      0xffffffffffffffffffffffffffffffffffffffff\n      and\n      dup2\n      mstore\n      0x20\n      add\n      swap1\n      dup2\n      mstore\n      0x20\n      add\n      0x00\n      keccak256\n        /* \"ethereum-crosschain-contract/contracts/utils/ERC20.sol\":10240:10276  _allowances[owner][spender] = amount */\n      dup2\n      swap1\n      sstore\n      pop\n        /* \"ethereum-crosschain-contract/contracts/utils/ERC20.sol\":10307:10314  spender */\n      dup2\n        /* \"ethereum-crosschain-contract/contracts/utils/ERC20.sol\":10291:10323  Approval(owner, spender, amount) */\n      0xffffffffffffffffffffffffffffffffffffffff\n      and\n        /* \"ethereum-crosschain-contract/contracts/utils/ERC20.sol\":10300:10305  owner */\n      dup4\n        /* \"ethereum-crosschain-contract/contracts/utils/ERC20.sol\":10291:10323  Approval(owner, spender, amount) */\n      0xffffffffffffffffffffffffffffffffffffffff\n      and\n      0x8c5be1e5ebec7d5bd14f71427d1e84f3dd0314c0f7b2291e5b200ac8c7c3b925\n        /* \"ethereum-crosschain-contract/contracts/utils/ERC20.sol\":10316:10322  amount */\n      dup4\n        /* \"ethereum-crosschain-contract/contracts/utils/ERC20.sol\":10291:10323  Approval(owner, spender, amount) */\n      mload(0x40)\n      dup1\n      dup3\n      dup2\n      mstore\n      0x20\n      add\n      swap2\n      pop\n      pop\n      mload(0x40)\n      dup1\n      swap2\n      sub\n      swap1\n      log3\n        /* \"ethereum-crosschain-contract/contracts/utils/ERC20.sol\":9960:10330  function _approve(... */\n      pop\n      pop\n      pop\n      jump\t// out\n        /* \"ethereum-crosschain-contract/contracts/utils/ERC20.sol\":7538:8132  function _transfer(... */\n    tag_127:\n        /* \"ethereum-crosschain-contract/contracts/utils/ERC20.sol\":7691:7692  0 */\n      0x00\n        /* \"ethereum-crosschain-contract/contracts/utils/ERC20.sol\":7673:7693  sender != address(0) */\n      0xffffffffffffffffffffffffffffffffffffffff\n      and\n        /* \"ethereum-crosschain-contract/contracts/utils/ERC20.sol\":7673:7679  sender */\n      dup4\n        /* \"ethereum-crosschain-contract/contracts/utils/ERC20.sol\":7673:7693  sender != address(0) */\n      0xffffffffffffffffffffffffffffffffffffffff\n      and\n      eq\n      iszero\n        /* \"ethereum-crosschain-contract/contracts/utils/ERC20.sol\":7665:7735  require(sender != address(0), \"ERC20: transfer from the zero address\") */\n      tag_215\n      jumpi\n      mload(0x40)\n      0x08c379a000000000000000000000000000000000000000000000000000000000\n      dup2\n      mstore\n      0x04\n      add\n      dup1\n      dup1\n      0x20\n      add\n      dup3\n      dup2\n      sub\n      dup3\n      mstore\n      0x25\n      dup2\n      mstore\n      0x20\n      add\n      dup1\n      data_baecc556b46f4ed0f2b4cb599d60785ac8563dd2dc0a5bf12edea1c39e5e1fea\n      0x25\n      swap2\n      codecopy\n      0x40\n      add\n      swap2\n      pop\n      pop\n      mload(0x40)\n      dup1\n      swap2\n      sub\n      swap1\n      revert\n    tag_215:\n        /* \"ethereum-crosschain-contract/contracts/utils/ERC20.sol\":7774:7775  0 */\n      0x00\n        /* \"ethereum-crosschain-contract/contracts/utils/ERC20.sol\":7753:7776  recipient != address(0) */\n      0xffffffffffffffffffffffffffffffffffffffff\n      and\n        /* \"ethereum-crosschain-contract/contracts/utils/ERC20.sol\":7753:7762  recipient */\n      dup3\n        /* \"ethereum-crosschain-contract/contracts/utils/ERC20.sol\":7753:7776  recipient != address(0) */\n      0xffffffffffffffffffffffffffffffffffffffff\n      and\n      eq\n      iszero\n        /* \"ethereum-crosschain-contract/contracts/utils/ERC20.sol\":7745:7816  require(recipient != address(0), \"ERC20: transfer to the zero address\") */\n      tag_216\n      jumpi\n      mload(0x40)\n      0x08c379a000000000000000000000000000000000000000000000000000000000\n      dup2\n      mstore\n      0x04\n      add\n      dup1\n      dup1\n      0x20\n      add\n      dup3\n      dup2\n      sub\n      dup3\n      mstore\n      0x23\n      dup2\n      mstore\n      0x20\n      add\n      dup1\n      data_0557e210f7a69a685100a7e4e3d0a7024c546085cee28910fd17d0b081d9516f\n      0x23\n      swap2\n      codecopy\n      0x40\n      add\n      swap2\n      pop\n      pop\n      mload(0x40)\n      dup1\n      swap2\n      sub\n      swap1\n      revert\n    tag_216:\n        /* \"ethereum-crosschain-contract/contracts/utils/ERC20.sol\":7827:7874  _beforeTokenTransfer(sender, recipient, amount) */\n      tag_217\n        /* \"ethereum-crosschain-contract/contracts/utils/ERC20.sol\":7848:7854  sender */\n      dup4\n        /* \"ethereum-crosschain-contract/contracts/utils/ERC20.sol\":7856:7865  recipient */\n      dup4\n        /* \"ethereum-crosschain-contract/contracts/utils/ERC20.sol\":7867:7873  amount */\n      dup4\n        /* \"ethereum-crosschain-contract/contracts/utils/ERC20.sol\":7827:7847  _beforeTokenTransfer */\n      tag_218\n        /* \"ethereum-crosschain-contract/contracts/utils/ERC20.sol\":7827:7874  _beforeTokenTransfer(sender, recipient, amount) */\n      jump\t// in\n    tag_217:\n        /* \"ethereum-crosschain-contract/contracts/utils/ERC20.sol\":7905:8010  _balances[sender].sub(... */\n      tag_219\n        /* \"ethereum-crosschain-contract/contracts/utils/ERC20.sol\":7940:7946  amount */\n      dup2\n        /* \"ethereum-crosschain-contract/contracts/utils/ERC20.sol\":7905:8010  _balances[sender].sub(... */\n      mload(0x40)\n      dup1\n      0x60\n      add\n      0x40\n      mstore\n      dup1\n      0x26\n      dup2\n      mstore\n      0x20\n      add\n      data_4107e8a8b9e94bf8ff83080ddec1c0bffe897ebc2241b89d44f66b3d274088b6\n      0x26\n      swap2\n      codecopy\n        /* \"ethereum-crosschain-contract/contracts/utils/ERC20.sol\":7905:7914  _balances */\n      0x01\n        /* \"ethereum-crosschain-contract/contracts/utils/ERC20.sol\":7905:7922  _balances[sender] */\n      0x00\n        /* \"ethereum-crosschain-contract/contracts/utils/ERC20.sol\":7915:7921  sender */\n      dup8\n        /* \"ethereum-crosschain-contract/contracts/utils/ERC20.sol\":7905:7922  _balances[sender] */\n      0xffffffffffffffffffffffffffffffffffffffff\n      and\n      0xffffffffffffffffffffffffffffffffffffffff\n      and\n      dup2\n      mstore\n      0x20\n      add\n      swap1\n      dup2\n      mstore\n      0x20\n      add\n      0x00\n      keccak256\n      sload\n        /* \"ethereum-crosschain-contract/contracts/utils/ERC20.sol\":7905:7926  _balances[sender].sub */\n      tag_132\n      swap1\n        /* \"ethereum-crosschain-contract/contracts/utils/ERC20.sol\":7905:8010  _balances[sender].sub(... */\n      swap3\n      swap2\n      swap1\n      0xffffffff\n      and\n      jump\t// in\n    tag_219:\n        /* \"ethereum-crosschain-contract/contracts/utils/ERC20.sol\":7885:7894  _balances */\n      0x01\n        /* \"ethereum-crosschain-contract/contracts/utils/ERC20.sol\":7885:7902  _balances[sender] */\n      0x00\n        /* \"ethereum-crosschain-contract/contracts/utils/ERC20.sol\":7895:7901  sender */\n      dup6\n        /* \"ethereum-crosschain-contract/contracts/utils/ERC20.sol\":7885:7902  _balances[sender] */\n      0xffffffffffffffffffffffffffffffffffffffff\n      and\n      0xffffffffffffffffffffffffffffffffffffffff\n      and\n      dup2\n      mstore\n      0x20\n      add\n      swap1\n      dup2\n      mstore\n      0x20\n      add\n      0x00\n      keccak256\n        /* \"ethereum-crosschain-contract/contracts/utils/ERC20.sol\":7885:8010  _balances[sender] = _balances[sender].sub(... */\n      dup2\n      swap1\n      sstore\n      pop\n        /* \"ethereum-crosschain-contract/contracts/utils/ERC20.sol\":8043:8075  _balances[recipient].add(amount) */\n      tag_220\n        /* \"ethereum-crosschain-contract/contracts/utils/ERC20.sol\":8068:8074  amount */\n      dup2\n        /* \"ethereum-crosschain-contract/contracts/utils/ERC20.sol\":8043:8052  _balances */\n      0x01\n        /* \"ethereum-crosschain-contract/contracts/utils/ERC20.sol\":8043:8063  _balances[recipient] */\n      0x00\n        /* \"ethereum-crosschain-contract/contracts/utils/ERC20.sol\":8053:8062  recipient */\n      dup6\n        /* \"ethereum-crosschain-contract/contracts/utils/ERC20.sol\":8043:8063  _balances[recipient] */\n      0xffffffffffffffffffffffffffffffffffffffff\n      and\n      0xffffffffffffffffffffffffffffffffffffffff\n      and\n      dup2\n      mstore\n      0x20\n      add\n      swap1\n      dup2\n      mstore\n      0x20\n      add\n      0x00\n      keccak256\n      sload\n        /* \"ethereum-crosschain-contract/contracts/utils/ERC20.sol\":8043:8067  _balances[recipient].add */\n      tag_151\n      swap1\n        /* \"ethereum-crosschain-contract/contracts/utils/ERC20.sol\":8043:8075  _balances[recipient].add(amount) */\n      swap2\n      swap1\n      0xffffffff\n      and\n      jump\t// in\n    tag_220:\n        /* \"ethereum-crosschain-contract/contracts/utils/ERC20.sol\":8020:8029  _balances */\n      0x01\n        /* \"ethereum-crosschain-contract/contracts/utils/ERC20.sol\":8020:8040  _balances[recipient] */\n      0x00\n        /* \"ethereum-crosschain-contract/contracts/utils/ERC20.sol\":8030:8039  recipient */\n      dup5\n        /* \"ethereum-crosschain-contract/contracts/utils/ERC20.sol\":8020:8040  _balances[recipient] */\n      0xffffffffffffffffffffffffffffffffffffffff\n      and\n      0xffffffffffffffffffffffffffffffffffffffff\n      and\n      dup2\n      mstore\n      0x20\n      add\n      swap1\n      dup2\n      mstore\n      0x20\n      add\n      0x00\n      keccak256\n        /* \"ethereum-crosschain-contract/contracts/utils/ERC20.sol\":8020:8075  _balances[recipient] = _balances[recipient].add(amount) */\n      dup2\n      swap1\n      sstore\n      pop\n        /* \"ethereum-crosschain-contract/contracts/utils/ERC20.sol\":8107:8116  recipient */\n      dup2\n        /* \"ethereum-crosschain-contract/contracts/utils/ERC20.sol\":8090:8125  Transfer(sender, recipient, amount) */\n      0xffffffffffffffffffffffffffffffffffffffff\n      and\n        /* \"ethereum-crosschain-contract/contracts/utils/ERC20.sol\":8099:8105  sender */\n      dup4\n        /* \"ethereum-crosschain-contract/contracts/utils/ERC20.sol\":8090:8125  Transfer(sender, recipient, amount) */\n      0xffffffffffffffffffffffffffffffffffffffff\n      and\n      0xddf252ad1be2c89b69c2b068fc378daa952ba7f163c4a11628f55a4df523b3ef\n        /* \"ethereum-crosschain-contract/contracts/utils/ERC20.sol\":8118:8124  amount */\n      dup4\n        /* \"ethereum-crosschain-contract/contracts/utils/ERC20.sol\":8090:8125  Transfer(sender, recipient, amount) */\n      mload(0x40)\n      dup1\n      dup3\n      dup2\n      mstore\n      0x20\n      add\n      swap2\n      pop\n      pop\n      mload(0x40)\n      dup1\n      swap2\n      sub\n      swap1\n      log3\n        /* \"ethereum-crosschain-contract/contracts/utils/ERC20.sol\":7538:8132  function _transfer(... */\n      pop\n      pop\n      pop\n      jump\t// out\n        /* \"ethereum-crosschain-contract/contracts/libraries/SafeMath.sol\":5432:5595  function sub(uint256 a, uint256 b, string memory errorMessage) internal pure returns (uint256) {... */\n    tag_132:\n        /* \"ethereum-crosschain-contract/contracts/libraries/SafeMath.sol\":5518:5525  uint256 */\n      0x00\n        /* \"ethereum-crosschain-contract/contracts/libraries/SafeMath.sol\":5550:5551  a */\n      dup4\n        /* \"ethereum-crosschain-contract/contracts/libraries/SafeMath.sol\":5545:5546  b */\n      dup4\n        /* \"ethereum-crosschain-contract/contracts/libraries/SafeMath.sol\":5545:5551  b <= a */\n      gt\n      iszero\n        /* \"ethereum-crosschain-contract/contracts/libraries/SafeMath.sol\":5553:5565  errorMessage */\n      dup3\n        /* \"ethereum-crosschain-contract/contracts/libraries/SafeMath.sol\":5537:5566  require(b <= a, errorMessage) */\n      swap1\n      tag_222\n      jumpi\n      mload(0x40)\n      0x08c379a000000000000000000000000000000000000000000000000000000000\n      dup2\n      mstore\n      0x04\n      add\n      dup1\n      dup1\n      0x20\n      add\n      dup3\n      dup2\n      sub\n      dup3\n      mstore\n      dup4\n      dup2\n      dup2\n      mload\n      dup2\n      mstore\n      0x20\n      add\n      swap2\n      pop\n      dup1\n      mload\n      swap1\n      0x20\n      add\n      swap1\n      dup1\n      dup4\n      dup4\n        /* \"--CODEGEN--\":23:24   */\n      0x00\n        /* \"--CODEGEN--\":8:108   */\n    tag_223:\n        /* \"--CODEGEN--\":33:36   */\n      dup4\n        /* \"--CODEGEN--\":30:31   */\n      dup2\n        /* \"--CODEGEN--\":27:37   */\n      lt\n        /* \"--CODEGEN--\":8:108   */\n      iszero\n      tag_225\n      jumpi\n        /* \"--CODEGEN--\":99:100   */\n      dup1\n        /* \"--CODEGEN--\":94:97   */\n      dup3\n        /* \"--CODEGEN--\":90:101   */\n      add\n        /* \"--CODEGEN--\":84:102   */\n      mload\n        /* \"--CODEGEN--\":80:81   */\n      dup2\n        /* \"--CODEGEN--\":75:78   */\n      dup5\n        /* \"--CODEGEN--\":71:82   */\n      add\n        /* \"--CODEGEN--\":64:103   */\n      mstore\n        /* \"--CODEGEN--\":52:54   */\n      0x20\n        /* \"--CODEGEN--\":49:50   */\n      dup2\n        /* \"--CODEGEN--\":45:55   */\n      add\n        /* \"--CODEGEN--\":40:55   */\n      swap1\n      pop\n        /* \"--CODEGEN--\":8:108   */\n      jump(tag_223)\n    tag_225:\n        /* \"--CODEGEN--\":12:26   */\n      pop\n        /* \"ethereum-crosschain-contract/contracts/libraries/SafeMath.sol\":5537:5566  require(b <= a, errorMessage) */\n      pop\n      pop\n      pop\n      swap1\n      pop\n      swap1\n      dup2\n      add\n      swap1\n      0x1f\n      and\n      dup1\n      iszero\n      tag_226\n      jumpi\n      dup1\n      dup3\n      sub\n      dup1\n      mload\n      0x01\n      dup4\n      0x20\n      sub\n      0x0100\n      exp\n      sub\n      not\n      and\n      dup2\n      mstore\n      0x20\n      add\n      swap2\n      pop\n    tag_226:\n      pop\n      swap3\n      pop\n      pop\n      pop\n      mload(0x40)\n      dup1\n      swap2\n      sub\n      swap1\n      revert\n    tag_222:\n      pop\n        /* \"ethereum-crosschain-contract/contracts/libraries/SafeMath.sol\":5587:5588  b */\n      dup3\n        /* \"ethereum-crosschain-contract/contracts/libraries/SafeMath.sol\":5583:5584  a */\n      dup5\n        /* \"ethereum-crosschain-contract/contracts/libraries/SafeMath.sol\":5583:5588  a - b */\n      sub\n        /* \"ethereum-crosschain-contract/contracts/libraries/SafeMath.sol\":5576:5588  return a - b */\n      swap1\n      pop\n        /* \"ethereum-crosschain-contract/contracts/libraries/SafeMath.sol\":5432:5595  function sub(uint256 a, uint256 b, string memory errorMessage) internal pure returns (uint256) {... */\n      swap4\n      swap3\n      pop\n      pop\n      pop\n      jump\t// out\n        /* \"ethereum-crosschain-contract/contracts/utils/AccessControl.sol\":6960:7144  function _grantRole(bytes32 role, address account) private {... */\n    tag_139:\n        /* \"ethereum-crosschain-contract/contracts/utils/AccessControl.sol\":7033:7066  _roles[role].members.add(account) */\n      tag_228\n        /* \"ethereum-crosschain-contract/contracts/utils/AccessControl.sol\":7058:7065  account */\n      dup2\n        /* \"ethereum-crosschain-contract/contracts/utils/AccessControl.sol\":7033:7039  _roles */\n      0x00\n        /* \"ethereum-crosschain-contract/contracts/utils/AccessControl.sol\":7033:7045  _roles[role] */\n      dup1\n        /* \"ethereum-crosschain-contract/contracts/utils/AccessControl.sol\":7040:7044  role */\n      dup6\n        /* \"ethereum-crosschain-contract/contracts/utils/AccessControl.sol\":7033:7045  _roles[role] */\n      dup2\n      mstore\n      0x20\n      add\n      swap1\n      dup2\n      mstore\n      0x20\n      add\n      0x00\n      keccak256\n        /* \"ethereum-crosschain-contract/contracts/utils/AccessControl.sol\":7033:7053  _roles[role].members */\n      0x00\n      add\n        /* \"ethereum-crosschain-contract/contracts/utils/AccessControl.sol\":7033:7057  _roles[role].members.add */\n      tag_229\n      swap1\n        /* \"ethereum-crosschain-contract/contracts/utils/AccessControl.sol\":7033:7066  _roles[role].members.add(account) */\n      swap2\n      swap1\n      0xffffffff\n      and\n      jump\t// in\n    tag_228:\n        /* \"ethereum-crosschain-contract/contracts/utils/AccessControl.sol\":7029:7138  if (_roles[role].members.add(account)) {... */\n      iszero\n      tag_230\n      jumpi\n        /* \"ethereum-crosschain-contract/contracts/utils/AccessControl.sol\":7114:7126  _msgSender() */\n      tag_231\n        /* \"ethereum-crosschain-contract/contracts/utils/AccessControl.sol\":7114:7124  _msgSender */\n      tag_122\n        /* \"ethereum-crosschain-contract/contracts/utils/AccessControl.sol\":7114:7126  _msgSender() */\n      jump\t// in\n    tag_231:\n        /* \"ethereum-crosschain-contract/contracts/utils/AccessControl.sol\":7087:7127  RoleGranted(role, account, _msgSender()) */\n      0xffffffffffffffffffffffffffffffffffffffff\n      and\n        /* \"ethereum-crosschain-contract/contracts/utils/AccessControl.sol\":7105:7112  account */\n      dup2\n        /* \"ethereum-crosschain-contract/contracts/utils/AccessControl.sol\":7087:7127  RoleGranted(role, account, _msgSender()) */\n      0xffffffffffffffffffffffffffffffffffffffff\n      and\n        /* \"ethereum-crosschain-contract/contracts/utils/AccessControl.sol\":7099:7103  role */\n      dup4\n        /* \"ethereum-crosschain-contract/contracts/utils/AccessControl.sol\":7087:7127  RoleGranted(role, account, _msgSender()) */\n      0x2f8788117e7eff1d82e926ec794901d17c78024a50270940304540a733656f0d\n      mload(0x40)\n      mload(0x40)\n      dup1\n      swap2\n      sub\n      swap1\n      log4\n        /* \"ethereum-crosschain-contract/contracts/utils/AccessControl.sol\":7029:7138  if (_roles[role].members.add(account)) {... */\n    tag_230:\n        /* \"ethereum-crosschain-contract/contracts/utils/AccessControl.sol\":6960:7144  function _grantRole(bytes32 role, address account) private {... */\n      pop\n      pop\n      jump\t// out\n        /* \"ethereum-crosschain-contract/contracts/utils/AccessControl.sol\":7150:7338  function _revokeRole(bytes32 role, address account) private {... */\n    tag_145:\n        /* \"ethereum-crosschain-contract/contracts/utils/AccessControl.sol\":7224:7260  _roles[role].members.remove(account) */\n      tag_233\n        /* \"ethereum-crosschain-contract/contracts/utils/AccessControl.sol\":7252:7259  account */\n      dup2\n        /* \"ethereum-crosschain-contract/contracts/utils/AccessControl.sol\":7224:7230  _roles */\n      0x00\n        /* \"ethereum-crosschain-contract/contracts/utils/AccessControl.sol\":7224:7236  _roles[role] */\n      dup1\n        /* \"ethereum-crosschain-contract/contracts/utils/AccessControl.sol\":7231:7235  role */\n      dup6\n        /* \"ethereum-crosschain-contract/contracts/utils/AccessControl.sol\":7224:7236  _roles[role] */\n      dup2\n      mstore\n      0x20\n      add\n      swap1\n      dup2\n      mstore\n      0x20\n      add\n      0x00\n      keccak256\n        /* \"ethereum-crosschain-contract/contracts/utils/AccessControl.sol\":7224:7244  _roles[role].members */\n      0x00\n      add\n        /* \"ethereum-crosschain-contract/contracts/utils/AccessControl.sol\":7224:7251  _roles[role].members.remove */\n      tag_234\n      swap1\n        /* \"ethereum-crosschain-contract/contracts/utils/AccessControl.sol\":7224:7260  _roles[role].members.remove(account) */\n      swap2\n      swap1\n      0xffffffff\n      and\n      jump\t// in\n    tag_233:\n        /* \"ethereum-crosschain-contract/contracts/utils/AccessControl.sol\":7220:7332  if (_roles[role].members.remove(account)) {... */\n      iszero\n      tag_235\n      jumpi\n        /* \"ethereum-crosschain-contract/contracts/utils/AccessControl.sol\":7308:7320  _msgSender() */\n      tag_236\n        /* \"ethereum-crosschain-contract/contracts/utils/AccessControl.sol\":7308:7318  _msgSender */\n      tag_122\n        /* \"ethereum-crosschain-contract/contracts/utils/AccessControl.sol\":7308:7320  _msgSender() */\n      jump\t// in\n    tag_236:\n        /* \"ethereum-crosschain-contract/contracts/utils/AccessControl.sol\":7281:7321  RoleRevoked(role, account, _msgSender()) */\n      0xffffffffffffffffffffffffffffffffffffffff\n      and\n        /* \"ethereum-crosschain-contract/contracts/utils/AccessControl.sol\":7299:7306  account */\n      dup2\n        /* \"ethereum-crosschain-contract/contracts/utils/AccessControl.sol\":7281:7321  RoleRevoked(role, account, _msgSender()) */\n      0xffffffffffffffffffffffffffffffffffffffff\n      and\n        /* \"ethereum-crosschain-contract/contracts/utils/AccessControl.sol\":7293:7297  role */\n      dup4\n        /* \"ethereum-crosschain-contract/contracts/utils/AccessControl.sol\":7281:7321  RoleRevoked(role, account, _msgSender()) */\n      0xf6391f5c32d9c69d2a47ea670b442974b53935d1edc7fd64eb21e047a839171b\n      mload(0x40)\n      mload(0x40)\n      dup1\n      swap2\n      sub\n      swap1\n      log4\n        /* \"ethereum-crosschain-contract/contracts/utils/AccessControl.sol\":7220:7332  if (_roles[role].members.remove(account)) {... */\n    tag_235:\n        /* \"ethereum-crosschain-contract/contracts/utils/AccessControl.sol\":7150:7338  function _revokeRole(bytes32 role, address account) private {... */\n      pop\n      pop\n      jump\t// out\n        /* \"ethereum-crosschain-contract/contracts/libraries/SafeMath.sol\":2690:2865  function add(uint256 a, uint256 b) internal pure returns (uint256) {... */\n    tag_151:\n        /* \"ethereum-crosschain-contract/contracts/libraries/SafeMath.sol\":2748:2755  uint256 */\n      0x00\n        /* \"ethereum-crosschain-contract/contracts/libraries/SafeMath.sol\":2767:2776  uint256 c */\n      dup1\n        /* \"ethereum-crosschain-contract/contracts/libraries/SafeMath.sol\":2783:2784  b */\n      dup3\n        /* \"ethereum-crosschain-contract/contracts/libraries/SafeMath.sol\":2779:2780  a */\n      dup5\n        /* \"ethereum-crosschain-contract/contracts/libraries/SafeMath.sol\":2779:2784  a + b */\n      add\n        /* \"ethereum-crosschain-contract/contracts/libraries/SafeMath.sol\":2767:2784  uint256 c = a + b */\n      swap1\n      pop\n        /* \"ethereum-crosschain-contract/contracts/libraries/SafeMath.sol\":2807:2808  a */\n      dup4\n        /* \"ethereum-crosschain-contract/contracts/libraries/SafeMath.sol\":2802:2803  c */\n      dup2\n        /* \"ethereum-crosschain-contract/contracts/libraries/SafeMath.sol\":2802:2808  c >= a */\n      lt\n      iszero\n        /* \"ethereum-crosschain-contract/contracts/libraries/SafeMath.sol\":2794:2840  require(c >= a, \"SafeMath: addition overflow\") */\n      tag_238\n      jumpi\n      mload(0x40)\n      0x08c379a000000000000000000000000000000000000000000000000000000000\n      dup2\n      mstore\n      0x04\n      add\n      dup1\n      dup1\n      0x20\n      add\n      dup3\n      dup2\n      sub\n      dup3\n      mstore\n      0x1b\n      dup2\n      mstore\n      0x20\n      add\n      dup1\n      0x536166654d6174683a206164646974696f6e206f766572666c6f770000000000\n      dup2\n      mstore\n      pop\n      0x20\n      add\n      swap2\n      pop\n      pop\n      mload(0x40)\n      dup1\n      swap2\n      sub\n      swap1\n      revert\n    tag_238:\n        /* \"ethereum-crosschain-contract/contracts/libraries/SafeMath.sol\":2857:2858  c */\n      dup1\n        /* \"ethereum-crosschain-contract/contracts/libraries/SafeMath.sol\":2850:2858  return c */\n      swap2\n      pop\n      pop\n        /* \"ethereum-crosschain-contract/contracts/libraries/SafeMath.sol\":2690:2865  function add(uint256 a, uint256 b) internal pure returns (uint256) {... */\n      swap3\n      swap2\n      pop\n      pop\n      jump\t// out\n        /* \"ethereum-crosschain-contract/contracts/utils/Pausable.sol\":1913:2028  function _unpause() internal virtual whenPaused {... */\n    tag_157:\n        /* \"ethereum-crosschain-contract/contracts/utils/Pausable.sol\":1403:1416  _whenPaused() */\n      tag_240\n        /* \"ethereum-crosschain-contract/contracts/utils/Pausable.sol\":1403:1414  _whenPaused */\n      tag_241\n        /* \"ethereum-crosschain-contract/contracts/utils/Pausable.sol\":1403:1416  _whenPaused() */\n      jump\t// in\n    tag_240:\n        /* \"ethereum-crosschain-contract/contracts/utils/Pausable.sol\":1981:1986  false */\n      0x00\n        /* \"ethereum-crosschain-contract/contracts/utils/Pausable.sol\":1971:1978  _paused */\n      0x06\n      0x01\n        /* \"ethereum-crosschain-contract/contracts/utils/Pausable.sol\":1971:1986  _paused = false */\n      0x0100\n      exp\n      dup2\n      sload\n      dup2\n      0xff\n      mul\n      not\n      and\n      swap1\n      dup4\n      iszero\n      iszero\n      mul\n      or\n      swap1\n      sstore\n      pop\n        /* \"ethereum-crosschain-contract/contracts/utils/Pausable.sol\":2001:2021  Unpaused(msg.sender) */\n      0x5db9ee0a495bf2e6ff9c91a7834c1ba4fdd244a5e8aa4e537bd38aeae4b073aa\n        /* \"ethereum-crosschain-contract/contracts/utils/Pausable.sol\":2010:2020  msg.sender */\n      caller\n        /* \"ethereum-crosschain-contract/contracts/utils/Pausable.sol\":2001:2021  Unpaused(msg.sender) */\n      mload(0x40)\n      dup1\n      dup3\n      0xffffffffffffffffffffffffffffffffffffffff\n      and\n      0xffffffffffffffffffffffffffffffffffffffff\n      and\n      dup2\n      mstore\n      0x20\n      add\n      swap2\n      pop\n      pop\n      mload(0x40)\n      dup1\n      swap2\n      sub\n      swap1\n      log1\n        /* \"ethereum-crosschain-contract/contracts/utils/Pausable.sol\":1913:2028  function _unpause() internal virtual whenPaused {... */\n      jump\t// out\n        /* \"ethereum-crosschain-contract/contracts/utils/ERC20.sol\":8403:8773  function _mint(address account, uint256 amount) internal virtual {... */\n    tag_163:\n        /* \"ethereum-crosschain-contract/contracts/utils/ERC20.sol\":8505:8506  0 */\n      0x00\n        /* \"ethereum-crosschain-contract/contracts/utils/ERC20.sol\":8486:8507  account != address(0) */\n      0xffffffffffffffffffffffffffffffffffffffff\n      and\n        /* \"ethereum-crosschain-contract/contracts/utils/ERC20.sol\":8486:8493  account */\n      dup3\n        /* \"ethereum-crosschain-contract/contracts/utils/ERC20.sol\":8486:8507  account != address(0) */\n      0xffffffffffffffffffffffffffffffffffffffff\n      and\n      eq\n      iszero\n        /* \"ethereum-crosschain-contract/contracts/utils/ERC20.sol\":8478:8543  require(account != address(0), \"ERC20: mint to the zero address\") */\n      tag_244\n      jumpi\n      mload(0x40)\n      0x08c379a000000000000000000000000000000000000000000000000000000000\n      dup2\n      mstore\n      0x04\n      add\n      dup1\n      dup1\n      0x20\n      add\n      dup3\n      dup2\n      sub\n      dup3\n      mstore\n      0x1f\n      dup2\n      mstore\n      0x20\n      add\n      dup1\n      0x45524332303a206d696e7420746f20746865207a65726f206164647265737300\n      dup2\n      mstore\n      pop\n      0x20\n      add\n      swap2\n      pop\n      pop\n      mload(0x40)\n      dup1\n      swap2\n      sub\n      swap1\n      revert\n    tag_244:\n        /* \"ethereum-crosschain-contract/contracts/utils/ERC20.sol\":8554:8603  _beforeTokenTransfer(address(0), account, amount) */\n      tag_245\n        /* \"ethereum-crosschain-contract/contracts/utils/ERC20.sol\":8583:8584  0 */\n      0x00\n        /* \"ethereum-crosschain-contract/contracts/utils/ERC20.sol\":8587:8594  account */\n      dup4\n        /* \"ethereum-crosschain-contract/contracts/utils/ERC20.sol\":8596:8602  amount */\n      dup4\n        /* \"ethereum-crosschain-contract/contracts/utils/ERC20.sol\":8554:8574  _beforeTokenTransfer */\n      tag_218\n        /* \"ethereum-crosschain-contract/contracts/utils/ERC20.sol\":8554:8603  _beforeTokenTransfer(address(0), account, amount) */\n      jump\t// in\n    tag_245:\n        /* \"ethereum-crosschain-contract/contracts/utils/ERC20.sol\":8629:8653  _totalSupply.add(amount) */\n      tag_246\n        /* \"ethereum-crosschain-contract/contracts/utils/ERC20.sol\":8646:8652  amount */\n      dup2\n        /* \"ethereum-crosschain-contract/contracts/utils/ERC20.sol\":8629:8641  _totalSupply */\n      sload(0x03)\n        /* \"ethereum-crosschain-contract/contracts/utils/ERC20.sol\":8629:8645  _totalSupply.add */\n      tag_151\n      swap1\n        /* \"ethereum-crosschain-contract/contracts/utils/ERC20.sol\":8629:8653  _totalSupply.add(amount) */\n      swap2\n      swap1\n      0xffffffff\n      and\n      jump\t// in\n    tag_246:\n        /* \"ethereum-crosschain-contract/contracts/utils/ERC20.sol\":8614:8626  _totalSupply */\n      0x03\n        /* \"ethereum-crosschain-contract/contracts/utils/ERC20.sol\":8614:8653  _totalSupply = _totalSupply.add(amount) */\n      dup2\n      swap1\n      sstore\n      pop\n        /* \"ethereum-crosschain-contract/contracts/utils/ERC20.sol\":8684:8714  _balances[account].add(amount) */\n      tag_247\n        /* \"ethereum-crosschain-contract/contracts/utils/ERC20.sol\":8707:8713  amount */\n      dup2\n        /* \"ethereum-crosschain-contract/contracts/utils/ERC20.sol\":8684:8693  _balances */\n      0x01\n        /* \"ethereum-crosschain-contract/contracts/utils/ERC20.sol\":8684:8702  _balances[account] */\n      0x00\n        /* \"ethereum-crosschain-contract/contracts/utils/ERC20.sol\":8694:8701  account */\n      dup6\n        /* \"ethereum-crosschain-contract/contracts/utils/ERC20.sol\":8684:8702  _balances[account] */\n      0xffffffffffffffffffffffffffffffffffffffff\n      and\n      0xffffffffffffffffffffffffffffffffffffffff\n      and\n      dup2\n      mstore\n      0x20\n      add\n      swap1\n      dup2\n      mstore\n      0x20\n      add\n      0x00\n      keccak256\n      sload\n        /* \"ethereum-crosschain-contract/contracts/utils/ERC20.sol\":8684:8706  _balances[account].add */\n      tag_151\n      swap1\n        /* \"ethereum-crosschain-contract/contracts/utils/ERC20.sol\":8684:8714  _balances[account].add(amount) */\n      swap2\n      swap1\n      0xffffffff\n      and\n      jump\t// in\n    tag_247:\n        /* \"ethereum-crosschain-contract/contracts/utils/ERC20.sol\":8663:8672  _balances */\n      0x01\n        /* \"ethereum-crosschain-contract/contracts/utils/ERC20.sol\":8663:8681  _balances[account] */\n      0x00\n        /* \"ethereum-crosschain-contract/contracts/utils/ERC20.sol\":8673:8680  account */\n      dup5\n        /* \"ethereum-crosschain-contract/contracts/utils/ERC20.sol\":8663:8681  _balances[account] */\n      0xffffffffffffffffffffffffffffffffffffffff\n      and\n      0xffffffffffffffffffffffffffffffffffffffff\n      and\n      dup2\n      mstore\n      0x20\n      add\n      swap1\n      dup2\n      mstore\n      0x20\n      add\n      0x00\n      keccak256\n        /* \"ethereum-crosschain-contract/contracts/utils/ERC20.sol\":8663:8714  _balances[account] = _balances[account].add(amount) */\n      dup2\n      swap1\n      sstore\n      pop\n        /* \"ethereum-crosschain-contract/contracts/utils/ERC20.sol\":8750:8757  account */\n      dup2\n        /* \"ethereum-crosschain-contract/contracts/utils/ERC20.sol\":8729:8766  Transfer(address(0), account, amount) */\n      0xffffffffffffffffffffffffffffffffffffffff\n      and\n        /* \"ethereum-crosschain-contract/contracts/utils/ERC20.sol\":8746:8747  0 */\n      0x00\n        /* \"ethereum-crosschain-contract/contracts/utils/ERC20.sol\":8729:8766  Transfer(address(0), account, amount) */\n      0xffffffffffffffffffffffffffffffffffffffff\n      and\n      0xddf252ad1be2c89b69c2b068fc378daa952ba7f163c4a11628f55a4df523b3ef\n        /* \"ethereum-crosschain-contract/contracts/utils/ERC20.sol\":8759:8765  amount */\n      dup4\n        /* \"ethereum-crosschain-contract/contracts/utils/ERC20.sol\":8729:8766  Transfer(address(0), account, amount) */\n      mload(0x40)\n      dup1\n      dup3\n      dup2\n      mstore\n      0x20\n      add\n      swap2\n      pop\n      pop\n      mload(0x40)\n      dup1\n      swap2\n      sub\n      swap1\n      log3\n        /* \"ethereum-crosschain-contract/contracts/utils/ERC20.sol\":8403:8773  function _mint(address account, uint256 amount) internal virtual {... */\n      pop\n      pop\n      jump\t// out\n        /* \"ethereum-crosschain-contract/contracts/utils/ERC20.sol\":9093:9537  function _burn(address account, uint256 amount) internal virtual {... */\n    tag_167:\n        /* \"ethereum-crosschain-contract/contracts/utils/ERC20.sol\":9195:9196  0 */\n      0x00\n        /* \"ethereum-crosschain-contract/contracts/utils/ERC20.sol\":9176:9197  account != address(0) */\n      0xffffffffffffffffffffffffffffffffffffffff\n      and\n        /* \"ethereum-crosschain-contract/contracts/utils/ERC20.sol\":9176:9183  account */\n      dup3\n        /* \"ethereum-crosschain-contract/contracts/utils/ERC20.sol\":9176:9197  account != address(0) */\n      0xffffffffffffffffffffffffffffffffffffffff\n      and\n      eq\n      iszero\n        /* \"ethereum-crosschain-contract/contracts/utils/ERC20.sol\":9168:9235  require(account != address(0), \"ERC20: burn from the zero address\") */\n      tag_249\n      jumpi\n      mload(0x40)\n      0x08c379a000000000000000000000000000000000000000000000000000000000\n      dup2\n      mstore\n      0x04\n      add\n      dup1\n      dup1\n      0x20\n      add\n      dup3\n      dup2\n      sub\n      dup3\n      mstore\n      0x21\n      dup2\n      mstore\n      0x20\n      add\n      dup1\n      data_b16788493b576042bb52c50ed56189e0b250db113c7bfb1c3897d25cf9632d7f\n      0x21\n      swap2\n      codecopy\n      0x40\n      add\n      swap2\n      pop\n      pop\n      mload(0x40)\n      dup1\n      swap2\n      sub\n      swap1\n      revert\n    tag_249:\n        /* \"ethereum-crosschain-contract/contracts/utils/ERC20.sol\":9246:9295  _beforeTokenTransfer(account, address(0), amount) */\n      tag_250\n        /* \"ethereum-crosschain-contract/contracts/utils/ERC20.sol\":9267:9274  account */\n      dup3\n        /* \"ethereum-crosschain-contract/contracts/utils/ERC20.sol\":9284:9285  0 */\n      0x00\n        /* \"ethereum-crosschain-contract/contracts/utils/ERC20.sol\":9288:9294  amount */\n      dup4\n        /* \"ethereum-crosschain-contract/contracts/utils/ERC20.sol\":9246:9266  _beforeTokenTransfer */\n      tag_218\n        /* \"ethereum-crosschain-contract/contracts/utils/ERC20.sol\":9246:9295  _beforeTokenTransfer(account, address(0), amount) */\n      jump\t// in\n    tag_250:\n        /* \"ethereum-crosschain-contract/contracts/utils/ERC20.sol\":9327:9429  _balances[account].sub(... */\n      tag_251\n        /* \"ethereum-crosschain-contract/contracts/utils/ERC20.sol\":9363:9369  amount */\n      dup2\n        /* \"ethereum-crosschain-contract/contracts/utils/ERC20.sol\":9327:9429  _balances[account].sub(... */\n      mload(0x40)\n      dup1\n      0x60\n      add\n      0x40\n      mstore\n      dup1\n      0x22\n      dup2\n      mstore\n      0x20\n      add\n      data_149b126e7125232b4200af45303d04fba8b74653b1a295a6a561a528c33fefdd\n      0x22\n      swap2\n      codecopy\n        /* \"ethereum-crosschain-contract/contracts/utils/ERC20.sol\":9327:9336  _balances */\n      0x01\n        /* \"ethereum-crosschain-contract/contracts/utils/ERC20.sol\":9327:9345  _balances[account] */\n      0x00\n        /* \"ethereum-crosschain-contract/contracts/utils/ERC20.sol\":9337:9344  account */\n      dup7\n        /* \"ethereum-crosschain-contract/contracts/utils/ERC20.sol\":9327:9345  _balances[account] */\n      0xffffffffffffffffffffffffffffffffffffffff\n      and\n      0xffffffffffffffffffffffffffffffffffffffff\n      and\n      dup2\n      mstore\n      0x20\n      add\n      swap1\n      dup2\n      mstore\n      0x20\n      add\n      0x00\n      keccak256\n      sload\n        /* \"ethereum-crosschain-contract/contracts/utils/ERC20.sol\":9327:9349  _balances[account].sub */\n      tag_132\n      swap1\n        /* \"ethereum-crosschain-contract/contracts/utils/ERC20.sol\":9327:9429  _balances[account].sub(... */\n      swap3\n      swap2\n      swap1\n      0xffffffff\n      and\n      jump\t// in\n    tag_251:\n        /* \"ethereum-crosschain-contract/contracts/utils/ERC20.sol\":9306:9315  _balances */\n      0x01\n        /* \"ethereum-crosschain-contract/contracts/utils/ERC20.sol\":9306:9324  _balances[account] */\n      0x00\n        /* \"ethereum-crosschain-contract/contracts/utils/ERC20.sol\":9316:9323  account */\n      dup5\n        /* \"ethereum-crosschain-contract/contracts/utils/ERC20.sol\":9306:9324  _balances[account] */\n      0xffffffffffffffffffffffffffffffffffffffff\n      and\n      0xffffffffffffffffffffffffffffffffffffffff\n      and\n      dup2\n      mstore\n      0x20\n      add\n      swap1\n      dup2\n      mstore\n      0x20\n      add\n      0x00\n      keccak256\n        /* \"ethereum-crosschain-contract/contracts/utils/ERC20.sol\":9306:9429  _balances[account] = _balances[account].sub(... */\n      dup2\n      swap1\n      sstore\n      pop\n        /* \"ethereum-crosschain-contract/contracts/utils/ERC20.sol\":9454:9478  _totalSupply.sub(amount) */\n      tag_252\n        /* \"ethereum-crosschain-contract/contracts/utils/ERC20.sol\":9471:9477  amount */\n      dup2\n        /* \"ethereum-crosschain-contract/contracts/utils/ERC20.sol\":9454:9466  _totalSupply */\n      sload(0x03)\n        /* \"ethereum-crosschain-contract/contracts/utils/ERC20.sol\":9454:9470  _totalSupply.sub */\n      tag_253\n      swap1\n        /* \"ethereum-crosschain-contract/contracts/utils/ERC20.sol\":9454:9478  _totalSupply.sub(amount) */\n      swap2\n      swap1\n      0xffffffff\n      and\n      jump\t// in\n    tag_252:\n        /* \"ethereum-crosschain-contract/contracts/utils/ERC20.sol\":9439:9451  _totalSupply */\n      0x03\n        /* \"ethereum-crosschain-contract/contracts/utils/ERC20.sol\":9439:9478  _totalSupply = _totalSupply.sub(amount) */\n      dup2\n      swap1\n      sstore\n      pop\n        /* \"ethereum-crosschain-contract/contracts/utils/ERC20.sol\":9519:9520  0 */\n      0x00\n        /* \"ethereum-crosschain-contract/contracts/utils/ERC20.sol\":9493:9530  Transfer(account, address(0), amount) */\n      0xffffffffffffffffffffffffffffffffffffffff\n      and\n        /* \"ethereum-crosschain-contract/contracts/utils/ERC20.sol\":9502:9509  account */\n      dup3\n        /* \"ethereum-crosschain-contract/contracts/utils/ERC20.sol\":9493:9530  Transfer(account, address(0), amount) */\n      0xffffffffffffffffffffffffffffffffffffffff\n      and\n      0xddf252ad1be2c89b69c2b068fc378daa952ba7f163c4a11628f55a4df523b3ef\n        /* \"ethereum-crosschain-contract/contracts/utils/ERC20.sol\":9523:9529  amount */\n      dup4\n        /* \"ethereum-crosschain-contract/contracts/utils/ERC20.sol\":9493:9530  Transfer(account, address(0), amount) */\n      mload(0x40)\n      dup1\n      dup3\n      dup2\n      mstore\n      0x20\n      add\n      swap2\n      pop\n      pop\n      mload(0x40)\n      dup1\n      swap2\n      sub\n      swap1\n      log3\n        /* \"ethereum-crosschain-contract/contracts/utils/ERC20.sol\":9093:9537  function _burn(address account, uint256 amount) internal virtual {... */\n      pop\n      pop\n      jump\t// out\n        /* \"ethereum-crosschain-contract/contracts/utils/Pausable.sol\":1668:1781  function _pause() internal virtual whenNotPaused {... */\n    tag_182:\n        /* \"ethereum-crosschain-contract/contracts/utils/Pausable.sol\":1052:1068  _whenNotPaused() */\n      tag_255\n        /* \"ethereum-crosschain-contract/contracts/utils/Pausable.sol\":1052:1066  _whenNotPaused */\n      tag_256\n        /* \"ethereum-crosschain-contract/contracts/utils/Pausable.sol\":1052:1068  _whenNotPaused() */\n      jump\t// in\n    tag_255:\n        /* \"ethereum-crosschain-contract/contracts/utils/Pausable.sol\":1737:1741  true */\n      0x01\n        /* \"ethereum-crosschain-contract/contracts/utils/Pausable.sol\":1727:1734  _paused */\n      0x06\n      0x01\n        /* \"ethereum-crosschain-contract/contracts/utils/Pausable.sol\":1727:1741  _paused = true */\n      0x0100\n      exp\n      dup2\n      sload\n      dup2\n      0xff\n      mul\n      not\n      and\n      swap1\n      dup4\n      iszero\n      iszero\n      mul\n      or\n      swap1\n      sstore\n      pop\n        /* \"ethereum-crosschain-contract/contracts/utils/Pausable.sol\":1756:1774  Paused(msg.sender) */\n      0x62e78cea01bee320cd4e420270b5ea74000d11b0c9f74754ebdbfc544b05a258\n        /* \"ethereum-crosschain-contract/contracts/utils/Pausable.sol\":1763:1773  msg.sender */\n      caller\n        /* \"ethereum-crosschain-contract/contracts/utils/Pausable.sol\":1756:1774  Paused(msg.sender) */\n      mload(0x40)\n      dup1\n      dup3\n      0xffffffffffffffffffffffffffffffffffffffff\n      and\n      0xffffffffffffffffffffffffffffffffffffffff\n      and\n      dup2\n      mstore\n      0x20\n      add\n      swap2\n      pop\n      pop\n      mload(0x40)\n      dup1\n      swap2\n      sub\n      swap1\n      log1\n        /* \"ethereum-crosschain-contract/contracts/utils/Pausable.sol\":1668:1781  function _pause() internal virtual whenNotPaused {... */\n      jump\t// out\n        /* \"ethereum-crosschain-contract/contracts/libraries/EnumerableSet.sol\":7677:7833  function at(AddressSet storage set, uint256 index) internal view returns (address) {... */\n    tag_185:\n        /* \"ethereum-crosschain-contract/contracts/libraries/EnumerableSet.sol\":7751:7758  address */\n      0x00\n        /* \"ethereum-crosschain-contract/contracts/libraries/EnumerableSet.sol\":7801:7823  _at(set._inner, index) */\n      tag_259\n        /* \"ethereum-crosschain-contract/contracts/libraries/EnumerableSet.sol\":7805:7808  set */\n      dup4\n        /* \"ethereum-crosschain-contract/contracts/libraries/EnumerableSet.sol\":7805:7815  set._inner */\n      0x00\n      add\n        /* \"ethereum-crosschain-contract/contracts/libraries/EnumerableSet.sol\":7817:7822  index */\n      dup4\n        /* \"ethereum-crosschain-contract/contracts/libraries/EnumerableSet.sol\":7801:7804  _at */\n      tag_260\n        /* \"ethereum-crosschain-contract/contracts/libraries/EnumerableSet.sol\":7801:7823  _at(set._inner, index) */\n      jump\t// in\n    tag_259:\n        /* \"ethereum-crosschain-contract/contracts/libraries/EnumerableSet.sol\":7793:7824  uint256(_at(set._inner, index)) */\n      0x00\n      shr\n        /* \"ethereum-crosschain-contract/contracts/libraries/EnumerableSet.sol\":7770:7826  return address(uint160(uint256(_at(set._inner, index)))) */\n      swap1\n      pop\n        /* \"ethereum-crosschain-contract/contracts/libraries/EnumerableSet.sol\":7677:7833  function at(AddressSet storage set, uint256 index) internal view returns (address) {... */\n      swap3\n      swap2\n      pop\n      pop\n      jump\t// out\n        /* \"ethereum-crosschain-contract/contracts/libraries/EnumerableSet.sol\":6984:7149  function contains(AddressSet storage set, address value) internal view returns (bool) {... */\n    tag_188:\n        /* \"ethereum-crosschain-contract/contracts/libraries/EnumerableSet.sol\":7064:7068  bool */\n      0x00\n        /* \"ethereum-crosschain-contract/contracts/libraries/EnumerableSet.sol\":7087:7142  _contains(set._inner, bytes32(uint256(uint160(value)))) */\n      tag_262\n        /* \"ethereum-crosschain-contract/contracts/libraries/EnumerableSet.sol\":7097:7100  set */\n      dup4\n        /* \"ethereum-crosschain-contract/contracts/libraries/EnumerableSet.sol\":7097:7107  set._inner */\n      0x00\n      add\n        /* \"ethereum-crosschain-contract/contracts/libraries/EnumerableSet.sol\":7133:7138  value */\n      dup4\n        /* \"ethereum-crosschain-contract/contracts/libraries/EnumerableSet.sol\":7117:7140  uint256(uint160(value)) */\n      0xffffffffffffffffffffffffffffffffffffffff\n      and\n        /* \"ethereum-crosschain-contract/contracts/libraries/EnumerableSet.sol\":7109:7141  bytes32(uint256(uint160(value))) */\n      0x00\n      shl\n        /* \"ethereum-crosschain-contract/contracts/libraries/EnumerableSet.sol\":7087:7096  _contains */\n      tag_263\n        /* \"ethereum-crosschain-contract/contracts/libraries/EnumerableSet.sol\":7087:7142  _contains(set._inner, bytes32(uint256(uint160(value)))) */\n      jump\t// in\n    tag_262:\n        /* \"ethereum-crosschain-contract/contracts/libraries/EnumerableSet.sol\":7080:7142  return _contains(set._inner, bytes32(uint256(uint160(value)))) */\n      swap1\n      pop\n        /* \"ethereum-crosschain-contract/contracts/libraries/EnumerableSet.sol\":6984:7149  function contains(AddressSet storage set, address value) internal view returns (bool) {... */\n      swap3\n      swap2\n      pop\n      pop\n      jump\t// out\n        /* \"ethereum-crosschain-contract/contracts/libraries/EnumerableSet.sol\":7230:7345  function length(AddressSet storage set) internal view returns (uint256) {... */\n    tag_203:\n        /* \"ethereum-crosschain-contract/contracts/libraries/EnumerableSet.sol\":7293:7300  uint256 */\n      0x00\n        /* \"ethereum-crosschain-contract/contracts/libraries/EnumerableSet.sol\":7319:7338  _length(set._inner) */\n      tag_265\n        /* \"ethereum-crosschain-contract/contracts/libraries/EnumerableSet.sol\":7327:7330  set */\n      dup3\n        /* \"ethereum-crosschain-contract/contracts/libraries/EnumerableSet.sol\":7327:7337  set._inner */\n      0x00\n      add\n        /* \"ethereum-crosschain-contract/contracts/libraries/EnumerableSet.sol\":7319:7326  _length */\n      tag_266\n        /* \"ethereum-crosschain-contract/contracts/libraries/EnumerableSet.sol\":7319:7338  _length(set._inner) */\n      jump\t// in\n    tag_265:\n        /* \"ethereum-crosschain-contract/contracts/libraries/EnumerableSet.sol\":7312:7338  return _length(set._inner) */\n      swap1\n      pop\n        /* \"ethereum-crosschain-contract/contracts/libraries/EnumerableSet.sol\":7230:7345  function length(AddressSet storage set) internal view returns (uint256) {... */\n      swap2\n      swap1\n      pop\n      jump\t// out\n        /* \"ethereum-crosschain-contract/contracts/ExampleToken.sol\":2614:2795  function _beforeTokenTransfer(address from, address to, uint256 amount) internal virtual override(ERC20, ERC20Pausable) {... */\n    tag_218:\n        /* \"ethereum-crosschain-contract/contracts/ExampleToken.sol\":2744:2788  super._beforeTokenTransfer(from, to, amount) */\n      tag_268\n        /* \"ethereum-crosschain-contract/contracts/ExampleToken.sol\":2771:2775  from */\n      dup4\n        /* \"ethereum-crosschain-contract/contracts/ExampleToken.sol\":2777:2779  to */\n      dup4\n        /* \"ethereum-crosschain-contract/contracts/ExampleToken.sol\":2781:2787  amount */\n      dup4\n        /* \"ethereum-crosschain-contract/contracts/ExampleToken.sol\":2744:2770  super._beforeTokenTransfer */\n      tag_269\n        /* \"ethereum-crosschain-contract/contracts/ExampleToken.sol\":2744:2788  super._beforeTokenTransfer(from, to, amount) */\n      jump\t// in\n    tag_268:\n        /* \"ethereum-crosschain-contract/contracts/ExampleToken.sol\":2614:2795  function _beforeTokenTransfer(address from, address to, uint256 amount) internal virtual override(ERC20, ERC20Pausable) {... */\n      pop\n      pop\n      pop\n      jump\t// out\n        /* \"ethereum-crosschain-contract/contracts/libraries/EnumerableSet.sol\":6429:6579  function add(AddressSet storage set, address value) internal returns (bool) {... */\n    tag_229:\n        /* \"ethereum-crosschain-contract/contracts/libraries/EnumerableSet.sol\":6499:6503  bool */\n      0x00\n        /* \"ethereum-crosschain-contract/contracts/libraries/EnumerableSet.sol\":6522:6572  _add(set._inner, bytes32(uint256(uint160(value)))) */\n      tag_271\n        /* \"ethereum-crosschain-contract/contracts/libraries/EnumerableSet.sol\":6527:6530  set */\n      dup4\n        /* \"ethereum-crosschain-contract/contracts/libraries/EnumerableSet.sol\":6527:6537  set._inner */\n      0x00\n      add\n        /* \"ethereum-crosschain-contract/contracts/libraries/EnumerableSet.sol\":6563:6568  value */\n      dup4\n        /* \"ethereum-crosschain-contract/contracts/libraries/EnumerableSet.sol\":6547:6570  uint256(uint160(value)) */\n      0xffffffffffffffffffffffffffffffffffffffff\n      and\n        /* \"ethereum-crosschain-contract/contracts/libraries/EnumerableSet.sol\":6539:6571  bytes32(uint256(uint160(value))) */\n      0x00\n      shl\n        /* \"ethereum-crosschain-contract/contracts/libraries/EnumerableSet.sol\":6522:6526  _add */\n      tag_272\n        /* \"ethereum-crosschain-contract/contracts/libraries/EnumerableSet.sol\":6522:6572  _add(set._inner, bytes32(uint256(uint160(value)))) */\n      jump\t// in\n    tag_271:\n        /* \"ethereum-crosschain-contract/contracts/libraries/EnumerableSet.sol\":6515:6572  return _add(set._inner, bytes32(uint256(uint160(value)))) */\n      swap1\n      pop\n        /* \"ethereum-crosschain-contract/contracts/libraries/EnumerableSet.sol\":6429:6579  function add(AddressSet storage set, address value) internal returns (bool) {... */\n      swap3\n      swap2\n      pop\n      pop\n      jump\t// out\n        /* \"ethereum-crosschain-contract/contracts/libraries/EnumerableSet.sol\":6747:6903  function remove(AddressSet storage set, address value) internal returns (bool) {... */\n    tag_234:\n        /* \"ethereum-crosschain-contract/contracts/libraries/EnumerableSet.sol\":6820:6824  bool */\n      0x00\n        /* \"ethereum-crosschain-contract/contracts/libraries/EnumerableSet.sol\":6843:6896  _remove(set._inner, bytes32(uint256(uint160(value)))) */\n      tag_274\n        /* \"ethereum-crosschain-contract/contracts/libraries/EnumerableSet.sol\":6851:6854  set */\n      dup4\n        /* \"ethereum-crosschain-contract/contracts/libraries/EnumerableSet.sol\":6851:6861  set._inner */\n      0x00\n      add\n        /* \"ethereum-crosschain-contract/contracts/libraries/EnumerableSet.sol\":6887:6892  value */\n      dup4\n        /* \"ethereum-crosschain-contract/contracts/libraries/EnumerableSet.sol\":6871:6894  uint256(uint160(value)) */\n      0xffffffffffffffffffffffffffffffffffffffff\n      and\n        /* \"ethereum-crosschain-contract/contracts/libraries/EnumerableSet.sol\":6863:6895  bytes32(uint256(uint160(value))) */\n      0x00\n      shl\n        /* \"ethereum-crosschain-contract/contracts/libraries/EnumerableSet.sol\":6843:6850  _remove */\n      tag_275\n        /* \"ethereum-crosschain-contract/contracts/libraries/EnumerableSet.sol\":6843:6896  _remove(set._inner, bytes32(uint256(uint160(value)))) */\n      jump\t// in\n    tag_274:\n        /* \"ethereum-crosschain-contract/contracts/libraries/EnumerableSet.sol\":6836:6896  return _remove(set._inner, bytes32(uint256(uint160(value)))) */\n      swap1\n      pop\n        /* \"ethereum-crosschain-contract/contracts/libraries/EnumerableSet.sol\":6747:6903  function remove(AddressSet storage set, address value) internal returns (bool) {... */\n      swap3\n      swap2\n      pop\n      pop\n      jump\t// out\n        /* \"ethereum-crosschain-contract/contracts/utils/Pausable.sol\":1440:1533  function _whenPaused() private view {... */\n    tag_241:\n        /* \"ethereum-crosschain-contract/contracts/utils/Pausable.sol\":1494:1501  _paused */\n      0x06\n      0x01\n      swap1\n      sload\n      swap1\n      0x0100\n      exp\n      swap1\n      div\n      0xff\n      and\n        /* \"ethereum-crosschain-contract/contracts/utils/Pausable.sol\":1486:1526  require(_paused, \"Pausable: not paused\") */\n      tag_277\n      jumpi\n      mload(0x40)\n      0x08c379a000000000000000000000000000000000000000000000000000000000\n      dup2\n      mstore\n      0x04\n      add\n      dup1\n      dup1\n      0x20\n      add\n      dup3\n      dup2\n      sub\n      dup3\n      mstore\n      0x14\n      dup2\n      mstore\n      0x20\n      add\n      dup1\n      0x5061757361626c653a206e6f7420706175736564000000000000000000000000\n      dup2\n      mstore\n      pop\n      0x20\n      add\n      swap2\n      pop\n      pop\n      mload(0x40)\n      dup1\n      swap2\n      sub\n      swap1\n      revert\n    tag_277:\n        /* \"ethereum-crosschain-contract/contracts/utils/Pausable.sol\":1440:1533  function _whenPaused() private view {... */\n      jump\t// out\n        /* \"ethereum-crosschain-contract/contracts/libraries/SafeMath.sol\":3136:3291  function sub(uint256 a, uint256 b) internal pure returns (uint256) {... */\n    tag_253:\n        /* \"ethereum-crosschain-contract/contracts/libraries/SafeMath.sol\":3194:3201  uint256 */\n      0x00\n        /* \"ethereum-crosschain-contract/contracts/libraries/SafeMath.sol\":3226:3227  a */\n      dup3\n        /* \"ethereum-crosschain-contract/contracts/libraries/SafeMath.sol\":3221:3222  b */\n      dup3\n        /* \"ethereum-crosschain-contract/contracts/libraries/SafeMath.sol\":3221:3227  b <= a */\n      gt\n      iszero\n        /* \"ethereum-crosschain-contract/contracts/libraries/SafeMath.sol\":3213:3262  require(b <= a, \"SafeMath: subtraction overflow\") */\n      tag_279\n      jumpi\n      mload(0x40)\n      0x08c379a000000000000000000000000000000000000000000000000000000000\n      dup2\n      mstore\n      0x04\n      add\n      dup1\n      dup1\n      0x20\n      add\n      dup3\n      dup2\n      sub\n      dup3\n      mstore\n      0x1e\n      dup2\n      mstore\n      0x20\n      add\n      dup1\n      0x536166654d6174683a207375627472616374696f6e206f766572666c6f770000\n      dup2\n      mstore\n      pop\n      0x20\n      add\n      swap2\n      pop\n      pop\n      mload(0x40)\n      dup1\n      swap2\n      sub\n      swap1\n      revert\n    tag_279:\n        /* \"ethereum-crosschain-contract/contracts/libraries/SafeMath.sol\":3283:3284  b */\n      dup2\n        /* \"ethereum-crosschain-contract/contracts/libraries/SafeMath.sol\":3279:3280  a */\n      dup4\n        /* \"ethereum-crosschain-contract/contracts/libraries/SafeMath.sol\":3279:3284  a - b */\n      sub\n        /* \"ethereum-crosschain-contract/contracts/libraries/SafeMath.sol\":3272:3284  return a - b */\n      swap1\n      pop\n        /* \"ethereum-crosschain-contract/contracts/libraries/SafeMath.sol\":3136:3291  function sub(uint256 a, uint256 b) internal pure returns (uint256) {... */\n      swap3\n      swap2\n      pop\n      pop\n      jump\t// out\n        /* \"ethereum-crosschain-contract/contracts/utils/Pausable.sol\":1092:1185  function _whenNotPaused() private view {... */\n    tag_256:\n        /* \"ethereum-crosschain-contract/contracts/utils/Pausable.sol\":1150:1157  _paused */\n      0x06\n      0x01\n      swap1\n      sload\n      swap1\n      0x0100\n      exp\n      swap1\n      div\n      0xff\n      and\n        /* \"ethereum-crosschain-contract/contracts/utils/Pausable.sol\":1149:1157  !_paused */\n      iszero\n        /* \"ethereum-crosschain-contract/contracts/utils/Pausable.sol\":1141:1178  require(!_paused, \"Pausable: paused\") */\n      tag_281\n      jumpi\n      mload(0x40)\n      0x08c379a000000000000000000000000000000000000000000000000000000000\n      dup2\n      mstore\n      0x04\n      add\n      dup1\n      dup1\n      0x20\n      add\n      dup3\n      dup2\n      sub\n      dup3\n      mstore\n      0x10\n      dup2\n      mstore\n      0x20\n      add\n      dup1\n      0x5061757361626c653a2070617573656400000000000000000000000000000000\n      dup2\n      mstore\n      pop\n      0x20\n      add\n      swap2\n      pop\n      pop\n      mload(0x40)\n      dup1\n      swap2\n      sub\n      swap1\n      revert\n    tag_281:\n        /* \"ethereum-crosschain-contract/contracts/utils/Pausable.sol\":1092:1185  function _whenNotPaused() private view {... */\n      jump\t// out\n        /* \"ethereum-crosschain-contract/contracts/libraries/EnumerableSet.sol\":4452:4653  function _at(Set storage set, uint256 index) private view returns (bytes32) {... */\n    tag_260:\n        /* \"ethereum-crosschain-contract/contracts/libraries/EnumerableSet.sol\":4519:4526  bytes32 */\n      0x00\n        /* \"ethereum-crosschain-contract/contracts/libraries/EnumerableSet.sol\":4567:4572  index */\n      dup2\n        /* \"ethereum-crosschain-contract/contracts/libraries/EnumerableSet.sol\":4546:4549  set */\n      dup4\n        /* \"ethereum-crosschain-contract/contracts/libraries/EnumerableSet.sol\":4546:4557  set._values */\n      0x00\n      add\n        /* \"ethereum-crosschain-contract/contracts/libraries/EnumerableSet.sol\":4546:4564  set._values.length */\n      dup1\n      sload\n      swap1\n      pop\n        /* \"ethereum-crosschain-contract/contracts/libraries/EnumerableSet.sol\":4546:4572  set._values.length > index */\n      gt\n        /* \"ethereum-crosschain-contract/contracts/libraries/EnumerableSet.sol\":4538:4611  require(set._values.length > index, \"EnumerableSet: index out of bounds\") */\n      tag_283\n      jumpi\n      mload(0x40)\n      0x08c379a000000000000000000000000000000000000000000000000000000000\n      dup2\n      mstore\n      0x04\n      add\n      dup1\n      dup1\n      0x20\n      add\n      dup3\n      dup2\n      sub\n      dup3\n      mstore\n      0x22\n      dup2\n      mstore\n      0x20\n      add\n      dup1\n      data_045d6834e6193a687012a3ad777f612279e549b6945364d9d2324f48610d3cbb\n      0x22\n      swap2\n      codecopy\n      0x40\n      add\n      swap2\n      pop\n      pop\n      mload(0x40)\n      dup1\n      swap2\n      sub\n      swap1\n      revert\n    tag_283:\n        /* \"ethereum-crosschain-contract/contracts/libraries/EnumerableSet.sol\":4628:4631  set */\n      dup3\n        /* \"ethereum-crosschain-contract/contracts/libraries/EnumerableSet.sol\":4628:4639  set._values */\n      0x00\n      add\n        /* \"ethereum-crosschain-contract/contracts/libraries/EnumerableSet.sol\":4640:4645  index */\n      dup3\n        /* \"ethereum-crosschain-contract/contracts/libraries/EnumerableSet.sol\":4628:4646  set._values[index] */\n      dup2\n      sload\n      dup2\n      lt\n      tag_284\n      jumpi\n      invalid\n    tag_284:\n      swap1\n      0x00\n      mstore\n      keccak256(0x00, 0x20)\n      add\n      sload\n        /* \"ethereum-crosschain-contract/contracts/libraries/EnumerableSet.sol\":4621:4646  return set._values[index] */\n      swap1\n      pop\n        /* \"ethereum-crosschain-contract/contracts/libraries/EnumerableSet.sol\":4452:4653  function _at(Set storage set, uint256 index) private view returns (bytes32) {... */\n      swap3\n      swap2\n      pop\n      pop\n      jump\t// out\n        /* \"ethereum-crosschain-contract/contracts/libraries/EnumerableSet.sol\":3805:3932  function _contains(Set storage set, bytes32 value) private view returns (bool) {... */\n    tag_263:\n        /* \"ethereum-crosschain-contract/contracts/libraries/EnumerableSet.sol\":3878:3882  bool */\n      0x00\n        /* \"ethereum-crosschain-contract/contracts/libraries/EnumerableSet.sol\":3924:3925  0 */\n      dup1\n        /* \"ethereum-crosschain-contract/contracts/libraries/EnumerableSet.sol\":3901:3904  set */\n      dup4\n        /* \"ethereum-crosschain-contract/contracts/libraries/EnumerableSet.sol\":3901:3913  set._indexes */\n      0x01\n      add\n        /* \"ethereum-crosschain-contract/contracts/libraries/EnumerableSet.sol\":3901:3920  set._indexes[value] */\n      0x00\n        /* \"ethereum-crosschain-contract/contracts/libraries/EnumerableSet.sol\":3914:3919  value */\n      dup5\n        /* \"ethereum-crosschain-contract/contracts/libraries/EnumerableSet.sol\":3901:3920  set._indexes[value] */\n      dup2\n      mstore\n      0x20\n      add\n      swap1\n      dup2\n      mstore\n      0x20\n      add\n      0x00\n      keccak256\n      sload\n        /* \"ethereum-crosschain-contract/contracts/libraries/EnumerableSet.sol\":3901:3925  set._indexes[value] != 0 */\n      eq\n      iszero\n        /* \"ethereum-crosschain-contract/contracts/libraries/EnumerableSet.sol\":3894:3925  return set._indexes[value] != 0 */\n      swap1\n      pop\n        /* \"ethereum-crosschain-contract/contracts/libraries/EnumerableSet.sol\":3805:3932  function _contains(Set storage set, bytes32 value) private view returns (bool) {... */\n      swap3\n      swap2\n      pop\n      pop\n      jump\t// out\n        /* \"ethereum-crosschain-contract/contracts/libraries/EnumerableSet.sol\":4013:4120  function _length(Set storage set) private view returns (uint256) {... */\n    tag_266:\n        /* \"ethereum-crosschain-contract/contracts/libraries/EnumerableSet.sol\":4069:4076  uint256 */\n      0x00\n        /* \"ethereum-crosschain-contract/contracts/libraries/EnumerableSet.sol\":4095:4098  set */\n      dup2\n        /* \"ethereum-crosschain-contract/contracts/libraries/EnumerableSet.sol\":4095:4106  set._values */\n      0x00\n      add\n        /* \"ethereum-crosschain-contract/contracts/libraries/EnumerableSet.sol\":4095:4113  set._values.length */\n      dup1\n      sload\n      swap1\n      pop\n        /* \"ethereum-crosschain-contract/contracts/libraries/EnumerableSet.sol\":4088:4113  return set._values.length */\n      swap1\n      pop\n        /* \"ethereum-crosschain-contract/contracts/libraries/EnumerableSet.sol\":4013:4120  function _length(Set storage set) private view returns (uint256) {... */\n      swap2\n      swap1\n      pop\n      jump\t// out\n        /* \"ethereum-crosschain-contract/contracts/utils/ERC20Pausable.sol\":580:814  function _beforeTokenTransfer(address from, address to, uint256 amount) internal virtual override {... */\n    tag_269:\n        /* \"ethereum-crosschain-contract/contracts/utils/ERC20Pausable.sol\":688:732  super._beforeTokenTransfer(from, to, amount) */\n      tag_289\n        /* \"ethereum-crosschain-contract/contracts/utils/ERC20Pausable.sol\":715:719  from */\n      dup4\n        /* \"ethereum-crosschain-contract/contracts/utils/ERC20Pausable.sol\":721:723  to */\n      dup4\n        /* \"ethereum-crosschain-contract/contracts/utils/ERC20Pausable.sol\":725:731  amount */\n      dup4\n        /* \"ethereum-crosschain-contract/contracts/utils/ERC20Pausable.sol\":688:714  super._beforeTokenTransfer */\n      tag_290\n        /* \"ethereum-crosschain-contract/contracts/utils/ERC20Pausable.sol\":688:732  super._beforeTokenTransfer(from, to, amount) */\n      jump\t// in\n    tag_289:\n        /* \"ethereum-crosschain-contract/contracts/utils/ERC20Pausable.sol\":752:760  paused() */\n      tag_291\n        /* \"ethereum-crosschain-contract/contracts/utils/ERC20Pausable.sol\":752:758  paused */\n      tag_73\n        /* \"ethereum-crosschain-contract/contracts/utils/ERC20Pausable.sol\":752:760  paused() */\n      jump\t// in\n    tag_291:\n        /* \"ethereum-crosschain-contract/contracts/utils/ERC20Pausable.sol\":751:760  !paused() */\n      iszero\n        /* \"ethereum-crosschain-contract/contracts/utils/ERC20Pausable.sol\":743:807  require(!paused(), \"ERC20Pausable: token transfer while paused\") */\n      tag_292\n      jumpi\n      mload(0x40)\n      0x08c379a000000000000000000000000000000000000000000000000000000000\n      dup2\n      mstore\n      0x04\n      add\n      dup1\n      dup1\n      0x20\n      add\n      dup3\n      dup2\n      sub\n      dup3\n      mstore\n      0x2a\n      dup2\n      mstore\n      0x20\n      add\n      dup1\n      data_fcb1fc9f3615fd38ab90d28b50a608758c295eeacbd5840421a4ee3b0df2f1f4\n      0x2a\n      swap2\n      codecopy\n      0x40\n      add\n      swap2\n      pop\n      pop\n      mload(0x40)\n      dup1\n      swap2\n      sub\n      swap1\n      revert\n    tag_292:\n        /* \"ethereum-crosschain-contract/contracts/utils/ERC20Pausable.sol\":580:814  function _beforeTokenTransfer(address from, address to, uint256 amount) internal virtual override {... */\n      pop\n      pop\n      pop\n      jump\t// out\n        /* \"ethereum-crosschain-contract/contracts/libraries/EnumerableSet.sol\":1640:2044  function _add(Set storage set, bytes32 value) private returns (bool) {... */\n    tag_272:\n        /* \"ethereum-crosschain-contract/contracts/libraries/EnumerableSet.sol\":1703:1707  bool */\n      0x00\n        /* \"ethereum-crosschain-contract/contracts/libraries/EnumerableSet.sol\":1724:1745  _contains(set, value) */\n      tag_294\n        /* \"ethereum-crosschain-contract/contracts/libraries/EnumerableSet.sol\":1734:1737  set */\n      dup4\n        /* \"ethereum-crosschain-contract/contracts/libraries/EnumerableSet.sol\":1739:1744  value */\n      dup4\n        /* \"ethereum-crosschain-contract/contracts/libraries/EnumerableSet.sol\":1724:1733  _contains */\n      tag_263\n        /* \"ethereum-crosschain-contract/contracts/libraries/EnumerableSet.sol\":1724:1745  _contains(set, value) */\n      jump\t// in\n    tag_294:\n        /* \"ethereum-crosschain-contract/contracts/libraries/EnumerableSet.sol\":1719:2038  if (!_contains(set, value)) {... */\n      tag_295\n      jumpi\n        /* \"ethereum-crosschain-contract/contracts/libraries/EnumerableSet.sol\":1761:1764  set */\n      dup3\n        /* \"ethereum-crosschain-contract/contracts/libraries/EnumerableSet.sol\":1761:1772  set._values */\n      0x00\n      add\n        /* \"ethereum-crosschain-contract/contracts/libraries/EnumerableSet.sol\":1778:1783  value */\n      dup3\n        /* \"ethereum-crosschain-contract/contracts/libraries/EnumerableSet.sol\":1761:1784  set._values.push(value) */\n      swap1\n      dup1\n        /* \"--CODEGEN--\":39:40   */\n      0x01\n        /* \"--CODEGEN--\":33:36   */\n      dup2\n        /* \"--CODEGEN--\":27:37   */\n      sload\n        /* \"--CODEGEN--\":23:41   */\n      add\n        /* \"--CODEGEN--\":57:67   */\n      dup1\n        /* \"--CODEGEN--\":52:55   */\n      dup3\n        /* \"--CODEGEN--\":45:68   */\n      sstore\n        /* \"--CODEGEN--\":79:89   */\n      dup1\n        /* \"--CODEGEN--\":72:89   */\n      swap2\n      pop\n        /* \"--CODEGEN--\":0:93   */\n      pop\n        /* \"ethereum-crosschain-contract/contracts/libraries/EnumerableSet.sol\":1761:1784  set._values.push(value) */\n      0x01\n      swap1\n      sub\n      swap1\n      0x00\n      mstore\n      keccak256(0x00, 0x20)\n      add\n      0x00\n      swap1\n      swap2\n      swap1\n      swap2\n      swap1\n      swap2\n      pop\n      sstore\n        /* \"ethereum-crosschain-contract/contracts/libraries/EnumerableSet.sol\":1941:1944  set */\n      dup3\n        /* \"ethereum-crosschain-contract/contracts/libraries/EnumerableSet.sol\":1941:1952  set._values */\n      0x00\n      add\n        /* \"ethereum-crosschain-contract/contracts/libraries/EnumerableSet.sol\":1941:1959  set._values.length */\n      dup1\n      sload\n      swap1\n      pop\n        /* \"ethereum-crosschain-contract/contracts/libraries/EnumerableSet.sol\":1919:1922  set */\n      dup4\n        /* \"ethereum-crosschain-contract/contracts/libraries/EnumerableSet.sol\":1919:1931  set._indexes */\n      0x01\n      add\n        /* \"ethereum-crosschain-contract/contracts/libraries/EnumerableSet.sol\":1919:1938  set._indexes[value] */\n      0x00\n        /* \"ethereum-crosschain-contract/contracts/libraries/EnumerableSet.sol\":1932:1937  value */\n      dup5\n        /* \"ethereum-crosschain-contract/contracts/libraries/EnumerableSet.sol\":1919:1938  set._indexes[value] */\n      dup2\n      mstore\n      0x20\n      add\n      swap1\n      dup2\n      mstore\n      0x20\n      add\n      0x00\n      keccak256\n        /* \"ethereum-crosschain-contract/contracts/libraries/EnumerableSet.sol\":1919:1959  set._indexes[value] = set._values.length */\n      dup2\n      swap1\n      sstore\n      pop\n        /* \"ethereum-crosschain-contract/contracts/libraries/EnumerableSet.sol\":1980:1984  true */\n      0x01\n        /* \"ethereum-crosschain-contract/contracts/libraries/EnumerableSet.sol\":1973:1984  return true */\n      swap1\n      pop\n      jump(tag_293)\n        /* \"ethereum-crosschain-contract/contracts/libraries/EnumerableSet.sol\":1719:2038  if (!_contains(set, value)) {... */\n    tag_295:\n        /* \"ethereum-crosschain-contract/contracts/libraries/EnumerableSet.sol\":2022:2027  false */\n      0x00\n        /* \"ethereum-crosschain-contract/contracts/libraries/EnumerableSet.sol\":2015:2027  return false */\n      swap1\n      pop\n        /* \"ethereum-crosschain-contract/contracts/libraries/EnumerableSet.sol\":1640:2044  function _add(Set storage set, bytes32 value) private returns (bool) {... */\n    tag_293:\n      swap3\n      swap2\n      pop\n      pop\n      jump\t// out\n        /* \"ethereum-crosschain-contract/contracts/libraries/EnumerableSet.sol\":2212:3724  function _remove(Set storage set, bytes32 value) private returns (bool) {... */\n    tag_275:\n        /* \"ethereum-crosschain-contract/contracts/libraries/EnumerableSet.sol\":2278:2282  bool */\n      0x00\n        /* \"ethereum-crosschain-contract/contracts/libraries/EnumerableSet.sol\":2394:2412  uint256 valueIndex */\n      dup1\n        /* \"ethereum-crosschain-contract/contracts/libraries/EnumerableSet.sol\":2415:2418  set */\n      dup4\n        /* \"ethereum-crosschain-contract/contracts/libraries/EnumerableSet.sol\":2415:2427  set._indexes */\n      0x01\n      add\n        /* \"ethereum-crosschain-contract/contracts/libraries/EnumerableSet.sol\":2415:2434  set._indexes[value] */\n      0x00\n        /* \"ethereum-crosschain-contract/contracts/libraries/EnumerableSet.sol\":2428:2433  value */\n      dup5\n        /* \"ethereum-crosschain-contract/contracts/libraries/EnumerableSet.sol\":2415:2434  set._indexes[value] */\n      dup2\n      mstore\n      0x20\n      add\n      swap1\n      dup2\n      mstore\n      0x20\n      add\n      0x00\n      keccak256\n      sload\n        /* \"ethereum-crosschain-contract/contracts/libraries/EnumerableSet.sol\":2394:2434  uint256 valueIndex = set._indexes[value] */\n      swap1\n      pop\n        /* \"ethereum-crosschain-contract/contracts/libraries/EnumerableSet.sol\":2463:2464  0 */\n      0x00\n        /* \"ethereum-crosschain-contract/contracts/libraries/EnumerableSet.sol\":2449:2459  valueIndex */\n      dup2\n        /* \"ethereum-crosschain-contract/contracts/libraries/EnumerableSet.sol\":2449:2464  valueIndex != 0 */\n      eq\n        /* \"ethereum-crosschain-contract/contracts/libraries/EnumerableSet.sol\":2445:3718  if (valueIndex != 0) { // Equivalent to contains(set, value)... */\n      tag_299\n      jumpi\n        /* \"ethereum-crosschain-contract/contracts/libraries/EnumerableSet.sol\":2806:2827  uint256 toDeleteIndex */\n      0x00\n        /* \"ethereum-crosschain-contract/contracts/libraries/EnumerableSet.sol\":2843:2844  1 */\n      0x01\n        /* \"ethereum-crosschain-contract/contracts/libraries/EnumerableSet.sol\":2830:2840  valueIndex */\n      dup3\n        /* \"ethereum-crosschain-contract/contracts/libraries/EnumerableSet.sol\":2830:2844  valueIndex - 1 */\n      sub\n        /* \"ethereum-crosschain-contract/contracts/libraries/EnumerableSet.sol\":2806:2844  uint256 toDeleteIndex = valueIndex - 1 */\n      swap1\n      pop\n        /* \"ethereum-crosschain-contract/contracts/libraries/EnumerableSet.sol\":2858:2875  uint256 lastIndex */\n      0x00\n        /* \"ethereum-crosschain-contract/contracts/libraries/EnumerableSet.sol\":2899:2900  1 */\n      0x01\n        /* \"ethereum-crosschain-contract/contracts/libraries/EnumerableSet.sol\":2878:2881  set */\n      dup7\n        /* \"ethereum-crosschain-contract/contracts/libraries/EnumerableSet.sol\":2878:2889  set._values */\n      0x00\n      add\n        /* \"ethereum-crosschain-contract/contracts/libraries/EnumerableSet.sol\":2878:2896  set._values.length */\n      dup1\n      sload\n      swap1\n      pop\n        /* \"ethereum-crosschain-contract/contracts/libraries/EnumerableSet.sol\":2878:2900  set._values.length - 1 */\n      sub\n        /* \"ethereum-crosschain-contract/contracts/libraries/EnumerableSet.sol\":2858:2900  uint256 lastIndex = set._values.length - 1 */\n      swap1\n      pop\n        /* \"ethereum-crosschain-contract/contracts/libraries/EnumerableSet.sol\":3140:3157  bytes32 lastvalue */\n      0x00\n        /* \"ethereum-crosschain-contract/contracts/libraries/EnumerableSet.sol\":3160:3163  set */\n      dup7\n        /* \"ethereum-crosschain-contract/contracts/libraries/EnumerableSet.sol\":3160:3171  set._values */\n      0x00\n      add\n        /* \"ethereum-crosschain-contract/contracts/libraries/EnumerableSet.sol\":3172:3181  lastIndex */\n      dup3\n        /* \"ethereum-crosschain-contract/contracts/libraries/EnumerableSet.sol\":3160:3182  set._values[lastIndex] */\n      dup2\n      sload\n      dup2\n      lt\n      tag_300\n      jumpi\n      invalid\n    tag_300:\n      swap1\n      0x00\n      mstore\n      keccak256(0x00, 0x20)\n      add\n      sload\n        /* \"ethereum-crosschain-contract/contracts/libraries/EnumerableSet.sol\":3140:3182  bytes32 lastvalue = set._values[lastIndex] */\n      swap1\n      pop\n        /* \"ethereum-crosschain-contract/contracts/libraries/EnumerableSet.sol\":3303:3312  lastvalue */\n      dup1\n        /* \"ethereum-crosschain-contract/contracts/libraries/EnumerableSet.sol\":3274:3277  set */\n      dup8\n        /* \"ethereum-crosschain-contract/contracts/libraries/EnumerableSet.sol\":3274:3285  set._values */\n      0x00\n      add\n        /* \"ethereum-crosschain-contract/contracts/libraries/EnumerableSet.sol\":3286:3299  toDeleteIndex */\n      dup5\n        /* \"ethereum-crosschain-contract/contracts/libraries/EnumerableSet.sol\":3274:3300  set._values[toDeleteIndex] */\n      dup2\n      sload\n      dup2\n      lt\n      tag_302\n      jumpi\n      invalid\n    tag_302:\n      swap1\n      0x00\n      mstore\n      keccak256(0x00, 0x20)\n      add\n        /* \"ethereum-crosschain-contract/contracts/libraries/EnumerableSet.sol\":3274:3312  set._values[toDeleteIndex] = lastvalue */\n      dup2\n      swap1\n      sstore\n      pop\n        /* \"ethereum-crosschain-contract/contracts/libraries/EnumerableSet.sol\":3420:3421  1 */\n      0x01\n        /* \"ethereum-crosschain-contract/contracts/libraries/EnumerableSet.sol\":3404:3417  toDeleteIndex */\n      dup4\n        /* \"ethereum-crosschain-contract/contracts/libraries/EnumerableSet.sol\":3404:3421  toDeleteIndex + 1 */\n      add\n        /* \"ethereum-crosschain-contract/contracts/libraries/EnumerableSet.sol\":3378:3381  set */\n      dup8\n        /* \"ethereum-crosschain-contract/contracts/libraries/EnumerableSet.sol\":3378:3390  set._indexes */\n      0x01\n      add\n        /* \"ethereum-crosschain-contract/contracts/libraries/EnumerableSet.sol\":3378:3401  set._indexes[lastvalue] */\n      0x00\n        /* \"ethereum-crosschain-contract/contracts/libraries/EnumerableSet.sol\":3391:3400  lastvalue */\n      dup4\n        /* \"ethereum-crosschain-contract/contracts/libraries/EnumerableSet.sol\":3378:3401  set._indexes[lastvalue] */\n      dup2\n      mstore\n      0x20\n      add\n      swap1\n      dup2\n      mstore\n      0x20\n      add\n      0x00\n      keccak256\n        /* \"ethereum-crosschain-contract/contracts/libraries/EnumerableSet.sol\":3378:3421  set._indexes[lastvalue] = toDeleteIndex + 1 */\n      dup2\n      swap1\n      sstore\n      pop\n        /* \"ethereum-crosschain-contract/contracts/libraries/EnumerableSet.sol\":3527:3530  set */\n      dup7\n        /* \"ethereum-crosschain-contract/contracts/libraries/EnumerableSet.sol\":3527:3538  set._values */\n      0x00\n      add\n        /* \"ethereum-crosschain-contract/contracts/libraries/EnumerableSet.sol\":3527:3544  set._values.pop() */\n      dup1\n      sload\n      dup1\n      tag_304\n      jumpi\n      invalid\n    tag_304:\n      0x01\n      swap1\n      sub\n      dup2\n      dup2\n      swap1\n      0x00\n      mstore\n      keccak256(0x00, 0x20)\n      add\n      0x00\n      swap1\n      sstore\n      swap1\n      sstore\n        /* \"ethereum-crosschain-contract/contracts/libraries/EnumerableSet.sol\":3619:3622  set */\n      dup7\n        /* \"ethereum-crosschain-contract/contracts/libraries/EnumerableSet.sol\":3619:3631  set._indexes */\n      0x01\n      add\n        /* \"ethereum-crosschain-contract/contracts/libraries/EnumerableSet.sol\":3619:3638  set._indexes[value] */\n      0x00\n        /* \"ethereum-crosschain-contract/contracts/libraries/EnumerableSet.sol\":3632:3637  value */\n      dup8\n        /* \"ethereum-crosschain-contract/contracts/libraries/EnumerableSet.sol\":3619:3638  set._indexes[value] */\n      dup2\n      mstore\n      0x20\n      add\n      swap1\n      dup2\n      mstore\n      0x20\n      add\n      0x00\n      keccak256\n        /* \"ethereum-crosschain-contract/contracts/libraries/EnumerableSet.sol\":3612:3638  delete set._indexes[value] */\n      0x00\n      swap1\n      sstore\n        /* \"ethereum-crosschain-contract/contracts/libraries/EnumerableSet.sol\":3660:3664  true */\n      0x01\n        /* \"ethereum-crosschain-contract/contracts/libraries/EnumerableSet.sol\":3653:3664  return true */\n      swap5\n      pop\n      pop\n      pop\n      pop\n      pop\n      jump(tag_298)\n        /* \"ethereum-crosschain-contract/contracts/libraries/EnumerableSet.sol\":2445:3718  if (valueIndex != 0) { // Equivalent to contains(set, value)... */\n    tag_299:\n        /* \"ethereum-crosschain-contract/contracts/libraries/EnumerableSet.sol\":3702:3707  false */\n      0x00\n        /* \"ethereum-crosschain-contract/contracts/libraries/EnumerableSet.sol\":3695:3707  return false */\n      swap2\n      pop\n      pop\n        /* \"ethereum-crosschain-contract/contracts/libraries/EnumerableSet.sol\":2212:3724  function _remove(Set storage set, bytes32 value) private returns (bool) {... */\n    tag_298:\n      swap3\n      swap2\n      pop\n      pop\n      jump\t// out\n        /* \"ethereum-crosschain-contract/contracts/utils/ERC20.sol\":11336:11457  function _beforeTokenTransfer(... */\n    tag_290:\n      pop\n      pop\n      pop\n      jump\t// out\n    stop\n    data_045d6834e6193a687012a3ad777f612279e549b6945364d9d2324f48610d3cbb 456e756d657261626c655365743a20696e646578206f7574206f6620626f756e6473\n    data_0557e210f7a69a685100a7e4e3d0a7024c546085cee28910fd17d0b081d9516f 45524332303a207472616e7366657220746f20746865207a65726f2061646472657373\n    data_0ba7116025f1ef6b158a2bd2238e617f30e17c9e456917d901086ca4f8ad2811 416363657373436f6e74726f6c3a2073656e646572206d75737420626520616e2061646d696e20746f206772616e74\n    data_149b126e7125232b4200af45303d04fba8b74653b1a295a6a561a528c33fefdd 45524332303a206275726e20616d6f756e7420657863656564732062616c616e6365\n    data_176e32c23b35bed3cd8ee309232e2364823f6f66078e0cf4f5b5e41eee016186 45524332305072657365744d696e7465725061757365723a206d75737420686176652070617573657220726f6c6520746f20756e7061757365\n    data_24883cc5fe64ace9d0df1893501ecb93c77180f0ff69cca79affb3c316dc8029 45524332303a20617070726f766520746f20746865207a65726f2061646472657373\n    data_4107e8a8b9e94bf8ff83080ddec1c0bffe897ebc2241b89d44f66b3d274088b6 45524332303a207472616e7366657220616d6f756e7420657863656564732062616c616e6365\n    data_64344570eab7406ca49d34d38bf2b2496dfda914405390c5057c8b0aabf798a3 416363657373436f6e74726f6c3a2073656e646572206d75737420626520616e2061646d696e20746f207265766f6b65\n    data_974d1b4421da69cc60b481194f0dad36a5bb4e23da810da7a7fb30cdba178330 45524332303a207472616e7366657220616d6f756e74206578636565647320616c6c6f77616e6365\n    data_9efa111136b49cf2058ce33f60fa04a5749fd87012d74cadc251e21e1db53342 45524332305072657365744d696e7465725061757365723a206d7573742068617665206d696e74657220726f6c6520746f206d696e74\n    data_a287c363786607a1457a2d9d12fa61c0073358e02d76b4035fc2c2d86a19c0db 45524332303a206275726e20616d6f756e74206578636565647320616c6c6f77616e6365\n    data_b16788493b576042bb52c50ed56189e0b250db113c7bfb1c3897d25cf9632d7f 45524332303a206275726e2066726f6d20746865207a65726f2061646472657373\n    data_baecc556b46f4ed0f2b4cb599d60785ac8563dd2dc0a5bf12edea1c39e5e1fea 45524332303a207472616e736665722066726f6d20746865207a65726f2061646472657373\n    data_c953f4879035ed60e766b34720f656aab5c697b141d924c283124ecedb91c208 45524332303a20617070726f76652066726f6d20746865207a65726f2061646472657373\n    data_d581fb23a6d539f3015b3485052424734f4b05014d1d5211f35a049cff57e330 45524332305072657365744d696e7465725061757365723a206d75737420686176652070617573657220726f6c6520746f207061757365\n    data_f8b476f7d28209d77d4a4ac1fe36b9f8259aa1bb6bddfa6e89de7e51615cf8a8 45524332303a2064656372656173656420616c6c6f77616e63652062656c6f77207a65726f\n    data_fb06fa8ff2141e8ed74502f6792273793f25f0e9d3cf15344f3f5a0d4948fd4b 416363657373436f6e74726f6c3a2063616e206f6e6c792072656e6f756e636520726f6c657320666f722073656c66\n    data_fcb1fc9f3615fd38ab90d28b50a608758c295eeacbd5840421a4ee3b0df2f1f4 45524332305061757361626c653a20746f6b656e207472616e73666572207768696c6520706175736564\n\n    auxdata: 0xa2646970667358221220061f737d9caa777f106e5effbd2048e8f82e5b89eb3501fe45f1aa0e73d2353c64736f6c63430006040033\n}\n",
				"bytecode": {
					"linkReferences": {},
					"object": "60806040523480156200001157600080fd5b5060405162002ca838038062002ca8833981810160405260608110156200003757600080fd5b81019080805160405193929190846401000000008211156200005857600080fd5b838201915060208201858111156200006f57600080fd5b82518660018202830111640100000000821117156200008d57600080fd5b8083526020830192505050908051906020019080838360005b83811015620000c3578082015181840152602081019050620000a6565b50505050905090810190601f168015620000f15780820380516001836020036101000a031916815260200191505b50604052602001805160405193929190846401000000008211156200011557600080fd5b838201915060208201858111156200012c57600080fd5b82518660018202830111640100000000821117156200014a57600080fd5b8083526020830192505050908051906020019080838360005b838110156200018057808201518184015260208101905062000163565b50505050905090810190601f168015620001ae5780820380516001836020036101000a031916815260200191505b50604052602001805190602001909291905050508282828260049080519060200190620001dd92919062000484565b508160059080519060200190620001f692919062000484565b5080600660006101000a81548160ff021916908360ff160217905550505050620002396000801b6200022d620002ee60201b60201c565b620002f660201b60201c565b6200028f60405180807f4d494e5445525f524f4c45000000000000000000000000000000000000000000815250600b019050604051809103902062000283620002ee60201b60201c565b620002f660201b60201c565b620002e560405180807f5041555345525f524f4c45000000000000000000000000000000000000000000815250600b0190506040518091039020620002d9620002ee60201b60201c565b620002f660201b60201c565b50505062000533565b600033905090565b6200030882826200030c60201b60201c565b5050565b6200033a81600080858152602001908152602001600020600001620003af60201b62001fd91790919060201c565b15620003ab5762000350620002ee60201b60201c565b73ffffffffffffffffffffffffffffffffffffffff168173ffffffffffffffffffffffffffffffffffffffff16837f2f8788117e7eff1d82e926ec794901d17c78024a50270940304540a733656f0d60405160405180910390a45b5050565b6000620003df836000018373ffffffffffffffffffffffffffffffffffffffff1660001b620003e760201b60201c565b905092915050565b6000620003fb83836200046160201b60201c565b620004565782600001829080600181540180825580915050600190039060005260206000200160009091909190915055826000018054905083600101600084815260200190815260200160002081905550600190506200045b565b600090505b92915050565b600080836001016000848152602001908152602001600020541415905092915050565b828054600181600116156101000203166002900490600052602060002090601f016020900481019282601f10620004c757805160ff1916838001178555620004f8565b82800160010185558215620004f8579182015b82811115620004f7578251825591602001919060010190620004da565b5b5090506200050791906200050b565b5090565b6200053091905b808211156200052c57600081600090555060010162000512565b5090565b90565b61276580620005436000396000f3fe608060405234801561001057600080fd5b50600436106101a95760003560e01c806370a08231116100f9578063a457c2d711610097578063d539139311610071578063d539139314610888578063d547741f146108a6578063dd62ed3e146108f4578063e63ab1e91461096c576101a9565b8063a457c2d71461077a578063a9059cbb146107e0578063ca15c87314610846576101a9565b80639010d07c116100d35780639010d07c146105fb57806391d148541461067357806395d89b41146106d9578063a217fddf1461075c576101a9565b806370a082311461054b57806379cc6790146105a35780638456cb59146105f1576101a9565b8063313ce567116101665780633f4ba83a116101405780633f4ba83a146104a357806340c10f19146104ad57806342966c68146104fb5780635c975abb14610529576101a9565b8063313ce567146103cb57806336568abe146103ef578063395093511461043d576101a9565b806306fdde03146101ae578063095ea7b31461023157806318160ddd1461029757806323b872dd146102b5578063248a9ca31461033b5780632f2ff15d1461037d575b600080fd5b6101b661098a565b6040518080602001828103825283818151815260200191508051906020019080838360005b838110156101f65780820151818401526020810190506101db565b50505050905090810190601f1680156102235780820380516001836020036101000a031916815260200191505b509250505060405180910390f35b61027d6004803603604081101561024757600080fd5b81019080803573ffffffffffffffffffffffffffffffffffffffff16906020019092919080359060200190929190505050610a2c565b604051808215151515815260200191505060405180910390f35b61029f610a4a565b6040518082815260200191505060405180910390f35b610321600480360360608110156102cb57600080fd5b81019080803573ffffffffffffffffffffffffffffffffffffffff169060200190929190803573ffffffffffffffffffffffffffffffffffffffff16906020019092919080359060200190929190505050610a54565b604051808215151515815260200191505060405180910390f35b6103676004803603602081101561035157600080fd5b8101908080359060200190929190505050610b2d565b6040518082815260200191505060405180910390f35b6103c96004803603604081101561039357600080fd5b8101908080359060200190929190803573ffffffffffffffffffffffffffffffffffffffff169060200190929190505050610b4c565b005b6103d3610bd5565b604051808260ff1660ff16815260200191505060405180910390f35b61043b6004803603604081101561040557600080fd5b8101908080359060200190929190803573ffffffffffffffffffffffffffffffffffffffff169060200190929190505050610bec565b005b6104896004803603604081101561045357600080fd5b81019080803573ffffffffffffffffffffffffffffffffffffffff16906020019092919080359060200190929190505050610c85565b604051808215151515815260200191505060405180910390f35b6104ab610d38565b005b6104f9600480360360408110156104c357600080fd5b81019080803573ffffffffffffffffffffffffffffffffffffffff16906020019092919080359060200190929190505050610ddd565b005b6105276004803603602081101561051157600080fd5b8101908080359060200190929190505050610e86565b005b610531610e9a565b604051808215151515815260200191505060405180910390f35b61058d6004803603602081101561056157600080fd5b81019080803573ffffffffffffffffffffffffffffffffffffffff169060200190929190505050610eb1565b6040518082815260200191505060405180910390f35b6105ef600480360360408110156105b957600080fd5b81019080803573ffffffffffffffffffffffffffffffffffffffff16906020019092919080359060200190929190505050610efa565b005b6105f9610f5c565b005b6106316004803603604081101561061157600080fd5b810190808035906020019092919080359060200190929190505050611001565b604051808273ffffffffffffffffffffffffffffffffffffffff1673ffffffffffffffffffffffffffffffffffffffff16815260200191505060405180910390f35b6106bf6004803603604081101561068957600080fd5b8101908080359060200190929190803573ffffffffffffffffffffffffffffffffffffffff169060200190929190505050611032565b604051808215151515815260200191505060405180910390f35b6106e1611063565b6040518080602001828103825283818151815260200191508051906020019080838360005b83811015610721578082015181840152602081019050610706565b50505050905090810190601f16801561074e5780820380516001836020036101000a031916815260200191505b509250505060405180910390f35b610764611105565b6040518082815260200191505060405180910390f35b6107c66004803603604081101561079057600080fd5b81019080803573ffffffffffffffffffffffffffffffffffffffff1690602001909291908035906020019092919050505061110c565b604051808215151515815260200191505060405180910390f35b61082c600480360360408110156107f657600080fd5b81019080803573ffffffffffffffffffffffffffffffffffffffff169060200190929190803590602001909291905050506111d9565b604051808215151515815260200191505060405180910390f35b6108726004803603602081101561085c57600080fd5b81019080803590602001909291905050506111f7565b6040518082815260200191505060405180910390f35b61089061121d565b6040518082815260200191505060405180910390f35b6108f2600480360360408110156108bc57600080fd5b8101908080359060200190929190803573ffffffffffffffffffffffffffffffffffffffff169060200190929190505050611256565b005b6109566004803603604081101561090a57600080fd5b81019080803573ffffffffffffffffffffffffffffffffffffffff169060200190929190803573ffffffffffffffffffffffffffffffffffffffff1690602001909291905050506112df565b6040518082815260200191505060405180910390f35b610974611366565b6040518082815260200191505060405180910390f35b606060048054600181600116156101000203166002900480601f016020809104026020016040519081016040528092919081815260200182805460018160011615610100020316600290048015610a225780601f106109f757610100808354040283529160200191610a22565b820191906000526020600020905b815481529060010190602001808311610a0557829003601f168201915b5050505050905090565b6000610a40610a3961139f565b84846113a7565b6001905092915050565b6000600354905090565b6000610a6184848461159e565b610b2284610a6d61139f565b610b1d8560405180606001604052806028815260200161258f60289139600260008b73ffffffffffffffffffffffffffffffffffffffff1673ffffffffffffffffffffffffffffffffffffffff1681526020019081526020016000206000610ad361139f565b73ffffffffffffffffffffffffffffffffffffffff1673ffffffffffffffffffffffffffffffffffffffff168152602001908152602001600020546118639092919063ffffffff16565b6113a7565b600190509392505050565b6000806000838152602001908152602001600020600201549050919050565b610b7260008084815260200190815260200160002060020154610b6d61139f565b611032565b610bc7576040517f08c379a000000000000000000000000000000000000000000000000000000000815260040180806020018281038252602f81526020018061248d602f913960400191505060405180910390fd5b610bd1828261191d565b5050565b6000600660009054906101000a900460ff16905090565b610bf461139f565b73ffffffffffffffffffffffffffffffffffffffff168173ffffffffffffffffffffffffffffffffffffffff1614610c77576040517f08c379a000000000000000000000000000000000000000000000000000000000815260040180806020018281038252602f8152602001806126d7602f913960400191505060405180910390fd5b610c8182826119b0565b5050565b6000610d2e610c9261139f565b84610d298560026000610ca361139f565b73ffffffffffffffffffffffffffffffffffffffff1673ffffffffffffffffffffffffffffffffffffffff16815260200190815260200160002060008973ffffffffffffffffffffffffffffffffffffffff1673ffffffffffffffffffffffffffffffffffffffff16815260200190815260200160002054611a4390919063ffffffff16565b6113a7565b6001905092915050565b610d7e60405180807f5041555345525f524f4c45000000000000000000000000000000000000000000815250600b0190506040518091039020610d7961139f565b611032565b610dd3576040517f08c379a00000000000000000000000000000000000000000000000000000000081526004018080602001828103825260398152602001806124de6039913960400191505060405180910390fd5b610ddb611acb565b565b610e2360405180807f4d494e5445525f524f4c45000000000000000000000000000000000000000000815250600b0190506040518091039020610e1e61139f565b611032565b610e78576040517f08c379a00000000000000000000000000000000000000000000000000000000081526004018080602001828103825260368152602001806125b76036913960400191505060405180910390fd5b610e828282611b53565b5050565b610e97610e9161139f565b82611d1c565b50565b6000600660019054906101000a900460ff16905090565b6000600160008373ffffffffffffffffffffffffffffffffffffffff1673ffffffffffffffffffffffffffffffffffffffff168152602001908152602001600020549050919050565b6000610f39826040518060600160405280602481526020016125ed60249139610f2a86610f2561139f565b6112df565b6118639092919063ffffffff16565b9050610f4d83610f4761139f565b836113a7565b610f578383611d1c565b505050565b610fa260405180807f5041555345525f524f4c45000000000000000000000000000000000000000000815250600b0190506040518091039020610f9d61139f565b611032565b610ff7576040517f08c379a000000000000000000000000000000000000000000000000000000000815260040180806020018281038252603781526020018061267b6037913960400191505060405180910390fd5b610fff611ee2565b565b600061102a82600080868152602001908152602001600020600001611f6a90919063ffffffff16565b905092915050565b600061105b82600080868152602001908152602001600020600001611f8490919063ffffffff16565b905092915050565b606060058054600181600116156101000203166002900480601f0160208091040260200160405190810160405280929190818152602001828054600181600116156101000203166002900480156110fb5780601f106110d0576101008083540402835291602001916110fb565b820191906000526020600020905b8154815290600101906020018083116110de57829003601f168201915b5050505050905090565b6000801b81565b60006111cf61111961139f565b846111ca856040518060600160405280602581526020016126b2602591396002600061114361139f565b73ffffffffffffffffffffffffffffffffffffffff1673ffffffffffffffffffffffffffffffffffffffff16815260200190815260200160002060008a73ffffffffffffffffffffffffffffffffffffffff1673ffffffffffffffffffffffffffffffffffffffff168152602001908152602001600020546118639092919063ffffffff16565b6113a7565b6001905092915050565b60006111ed6111e661139f565b848461159e565b6001905092915050565b6000611216600080848152602001908152602001600020600001611fb4565b9050919050565b60405180807f4d494e5445525f524f4c45000000000000000000000000000000000000000000815250600b019050604051809103902081565b61127c6000808481526020019081526020016000206002015461127761139f565b611032565b6112d1576040517f08c379a000000000000000000000000000000000000000000000000000000000815260040180806020018281038252603081526020018061255f6030913960400191505060405180910390fd5b6112db82826119b0565b5050565b6000600260008473ffffffffffffffffffffffffffffffffffffffff1673ffffffffffffffffffffffffffffffffffffffff16815260200190815260200160002060008373ffffffffffffffffffffffffffffffffffffffff1673ffffffffffffffffffffffffffffffffffffffff16815260200190815260200160002054905092915050565b60405180807f5041555345525f524f4c45000000000000000000000000000000000000000000815250600b019050604051809103902081565b600033905090565b600073ffffffffffffffffffffffffffffffffffffffff168373ffffffffffffffffffffffffffffffffffffffff16141561142d576040517f08c379a00000000000000000000000000000000000000000000000000000000081526004018080602001828103825260248152602001806126576024913960400191505060405180910390fd5b600073ffffffffffffffffffffffffffffffffffffffff168273ffffffffffffffffffffffffffffffffffffffff1614156114b3576040517f08c379a00000000000000000000000000000000000000000000000000000000081526004018080602001828103825260228152602001806125176022913960400191505060405180910390fd5b80600260008573ffffffffffffffffffffffffffffffffffffffff1673ffffffffffffffffffffffffffffffffffffffff16815260200190815260200160002060008473ffffffffffffffffffffffffffffffffffffffff1673ffffffffffffffffffffffffffffffffffffffff168152602001908152602001600020819055508173ffffffffffffffffffffffffffffffffffffffff168373ffffffffffffffffffffffffffffffffffffffff167f8c5be1e5ebec7d5bd14f71427d1e84f3dd0314c0f7b2291e5b200ac8c7c3b925836040518082815260200191505060405180910390a3505050565b600073ffffffffffffffffffffffffffffffffffffffff168373ffffffffffffffffffffffffffffffffffffffff161415611624576040517f08c379a00000000000000000000000000000000000000000000000000000000081526004018080602001828103825260258152602001806126326025913960400191505060405180910390fd5b600073ffffffffffffffffffffffffffffffffffffffff168273ffffffffffffffffffffffffffffffffffffffff1614156116aa576040517f08c379a000000000000000000000000000000000000000000000000000000000815260040180806020018281038252602381526020018061246a6023913960400191505060405180910390fd5b6116b5838383611fc9565b6117218160405180606001604052806026815260200161253960269139600160008773ffffffffffffffffffffffffffffffffffffffff1673ffffffffffffffffffffffffffffffffffffffff168152602001908152602001600020546118639092919063ffffffff16565b600160008573ffffffffffffffffffffffffffffffffffffffff1673ffffffffffffffffffffffffffffffffffffffff168152602001908152602001600020819055506117b681600160008573ffffffffffffffffffffffffffffffffffffffff1673ffffffffffffffffffffffffffffffffffffffff16815260200190815260200160002054611a4390919063ffffffff16565b600160008473ffffffffffffffffffffffffffffffffffffffff1673ffffffffffffffffffffffffffffffffffffffff168152602001908152602001600020819055508173ffffffffffffffffffffffffffffffffffffffff168373ffffffffffffffffffffffffffffffffffffffff167fddf252ad1be2c89b69c2b068fc378daa952ba7f163c4a11628f55a4df523b3ef836040518082815260200191505060405180910390a3505050565b6000838311158290611910576040517f08c379a00000000000000000000000000000000000000000000000000000000081526004018080602001828103825283818151815260200191508051906020019080838360005b838110156118d55780820151818401526020810190506118ba565b50505050905090810190601f1680156119025780820380516001836020036101000a031916815260200191505b509250505060405180910390fd5b5082840390509392505050565b61194481600080858152602001908152602001600020600001611fd990919063ffffffff16565b156119ac5761195161139f565b73ffffffffffffffffffffffffffffffffffffffff168173ffffffffffffffffffffffffffffffffffffffff16837f2f8788117e7eff1d82e926ec794901d17c78024a50270940304540a733656f0d60405160405180910390a45b5050565b6119d78160008085815260200190815260200160002060000161200990919063ffffffff16565b15611a3f576119e461139f565b73ffffffffffffffffffffffffffffffffffffffff168173ffffffffffffffffffffffffffffffffffffffff16837ff6391f5c32d9c69d2a47ea670b442974b53935d1edc7fd64eb21e047a839171b60405160405180910390a45b5050565b600080828401905083811015611ac1576040517f08c379a000000000000000000000000000000000000000000000000000000000815260040180806020018281038252601b8152602001807f536166654d6174683a206164646974696f6e206f766572666c6f77000000000081525060200191505060405180910390fd5b8091505092915050565b611ad3612039565b6000600660016101000a81548160ff0219169083151502179055507f5db9ee0a495bf2e6ff9c91a7834c1ba4fdd244a5e8aa4e537bd38aeae4b073aa33604051808273ffffffffffffffffffffffffffffffffffffffff1673ffffffffffffffffffffffffffffffffffffffff16815260200191505060405180910390a1565b600073ffffffffffffffffffffffffffffffffffffffff168273ffffffffffffffffffffffffffffffffffffffff161415611bf6576040517f08c379a000000000000000000000000000000000000000000000000000000000815260040180806020018281038252601f8152602001807f45524332303a206d696e7420746f20746865207a65726f20616464726573730081525060200191505060405180910390fd5b611c0260008383611fc9565b611c1781600354611a4390919063ffffffff16565b600381905550611c6f81600160008573ffffffffffffffffffffffffffffffffffffffff1673ffffffffffffffffffffffffffffffffffffffff16815260200190815260200160002054611a4390919063ffffffff16565b600160008473ffffffffffffffffffffffffffffffffffffffff1673ffffffffffffffffffffffffffffffffffffffff168152602001908152602001600020819055508173ffffffffffffffffffffffffffffffffffffffff16600073ffffffffffffffffffffffffffffffffffffffff167fddf252ad1be2c89b69c2b068fc378daa952ba7f163c4a11628f55a4df523b3ef836040518082815260200191505060405180910390a35050565b600073ffffffffffffffffffffffffffffffffffffffff168273ffffffffffffffffffffffffffffffffffffffff161415611da2576040517f08c379a00000000000000000000000000000000000000000000000000000000081526004018080602001828103825260218152602001806126116021913960400191505060405180910390fd5b611dae82600083611fc9565b611e1a816040518060600160405280602281526020016124bc60229139600160008673ffffffffffffffffffffffffffffffffffffffff1673ffffffffffffffffffffffffffffffffffffffff168152602001908152602001600020546118639092919063ffffffff16565b600160008473ffffffffffffffffffffffffffffffffffffffff1673ffffffffffffffffffffffffffffffffffffffff16815260200190815260200160002081905550611e72816003546120bd90919063ffffffff16565b600381905550600073ffffffffffffffffffffffffffffffffffffffff168273ffffffffffffffffffffffffffffffffffffffff167fddf252ad1be2c89b69c2b068fc378daa952ba7f163c4a11628f55a4df523b3ef836040518082815260200191505060405180910390a35050565b611eea612140565b6001600660016101000a81548160ff0219169083151502179055507f62e78cea01bee320cd4e420270b5ea74000d11b0c9f74754ebdbfc544b05a25833604051808273ffffffffffffffffffffffffffffffffffffffff1673ffffffffffffffffffffffffffffffffffffffff16815260200191505060405180910390a1565b6000611f7983600001836121c5565b60001c905092915050565b6000611fac836000018373ffffffffffffffffffffffffffffffffffffffff1660001b612248565b905092915050565b6000611fc28260000161226b565b9050919050565b611fd483838361227c565b505050565b6000612001836000018373ffffffffffffffffffffffffffffffffffffffff1660001b6122ea565b905092915050565b6000612031836000018373ffffffffffffffffffffffffffffffffffffffff1660001b61235a565b905092915050565b600660019054906101000a900460ff166120bb576040517f08c379a00000000000000000000000000000000000000000000000000000000081526004018080602001828103825260148152602001807f5061757361626c653a206e6f742070617573656400000000000000000000000081525060200191505060405180910390fd5b565b600082821115612135576040517f08c379a000000000000000000000000000000000000000000000000000000000815260040180806020018281038252601e8152602001807f536166654d6174683a207375627472616374696f6e206f766572666c6f77000081525060200191505060405180910390fd5b818303905092915050565b600660019054906101000a900460ff16156121c3576040517f08c379a00000000000000000000000000000000000000000000000000000000081526004018080602001828103825260108152602001807f5061757361626c653a207061757365640000000000000000000000000000000081525060200191505060405180910390fd5b565b600081836000018054905011612226576040517f08c379a00000000000000000000000000000000000000000000000000000000081526004018080602001828103825260228152602001806124486022913960400191505060405180910390fd5b82600001828154811061223557fe5b9060005260206000200154905092915050565b600080836001016000848152602001908152602001600020541415905092915050565b600081600001805490509050919050565b612287838383612442565b61228f610e9a565b156122e5576040517f08c379a000000000000000000000000000000000000000000000000000000000815260040180806020018281038252602a815260200180612706602a913960400191505060405180910390fd5b505050565b60006122f68383612248565b61234f578260000182908060018154018082558091505060019003906000526020600020016000909190919091505582600001805490508360010160008481526020019081526020016000208190555060019050612354565b600090505b92915050565b6000808360010160008481526020019081526020016000205490506000811461243657600060018203905060006001866000018054905003905060008660000182815481106123a557fe5b90600052602060002001549050808760000184815481106123c257fe5b90600052602060002001819055506001830187600101600083815260200190815260200160002081905550866000018054806123fa57fe5b6001900381819060005260206000200160009055905586600101600087815260200190815260200160002060009055600194505050505061243c565b60009150505b92915050565b50505056fe456e756d657261626c655365743a20696e646578206f7574206f6620626f756e647345524332303a207472616e7366657220746f20746865207a65726f2061646472657373416363657373436f6e74726f6c3a2073656e646572206d75737420626520616e2061646d696e20746f206772616e7445524332303a206275726e20616d6f756e7420657863656564732062616c616e636545524332305072657365744d696e7465725061757365723a206d75737420686176652070617573657220726f6c6520746f20756e706175736545524332303a20617070726f766520746f20746865207a65726f206164647265737345524332303a207472616e7366657220616d6f756e7420657863656564732062616c616e6365416363657373436f6e74726f6c3a2073656e646572206d75737420626520616e2061646d696e20746f207265766f6b6545524332303a207472616e7366657220616d6f756e74206578636565647320616c6c6f77616e636545524332305072657365744d696e7465725061757365723a206d7573742068617665206d696e74657220726f6c6520746f206d696e7445524332303a206275726e20616d6f756e74206578636565647320616c6c6f77616e636545524332303a206275726e2066726f6d20746865207a65726f206164647265737345524332303a207472616e736665722066726f6d20746865207a65726f206164647265737345524332303a20617070726f76652066726f6d20746865207a65726f206164647265737345524332305072657365744d696e7465725061757365723a206d75737420686176652070617573657220726f6c6520746f20706175736545524332303a2064656372656173656420616c6c6f77616e63652062656c6f77207a65726f416363657373436f6e74726f6c3a2063616e206f6e6c792072656e6f756e636520726f6c657320666f722073656c6645524332305061757361626c653a20746f6b656e207472616e73666572207768696c6520706175736564a2646970667358221220061f737d9caa777f106e5effbd2048e8f82e5b89eb3501fe45f1aa0e73d2353c64736f6c63430006040033",
					"opcodes": "PUSH1 0x80 PUSH1 0x40 MSTORE CALLVALUE DUP1 ISZERO PUSH3 0x11 JUMPI PUSH1 0x0 DUP1 REVERT JUMPDEST POP PUSH1 0x40 MLOAD PUSH3 0x2CA8 CODESIZE SUB DUP1 PUSH3 0x2CA8 DUP4 CODECOPY DUP2 DUP2 ADD PUSH1 0x40 MSTORE PUSH1 0x60 DUP2 LT ISZERO PUSH3 0x37 JUMPI PUSH1 0x0 DUP1 REVERT JUMPDEST DUP2 ADD SWAP1 DUP1 DUP1 MLOAD PUSH1 0x40 MLOAD SWAP4 SWAP3 SWAP2 SWAP1 DUP5 PUSH5 0x100000000 DUP3 GT ISZERO PUSH3 0x58 JUMPI PUSH1 0x0 DUP1 REVERT JUMPDEST DUP4 DUP3 ADD SWAP2 POP PUSH1 0x20 DUP3 ADD DUP6 DUP2 GT ISZERO PUSH3 0x6F JUMPI PUSH1 0x0 DUP1 REVERT JUMPDEST DUP3 MLOAD DUP7 PUSH1 0x1 DUP3 MUL DUP4 ADD GT PUSH5 0x100000000 DUP3 GT OR ISZERO PUSH3 0x8D JUMPI PUSH1 0x0 DUP1 REVERT JUMPDEST DUP1 DUP4 MSTORE PUSH1 0x20 DUP4 ADD SWAP3 POP POP POP SWAP1 DUP1 MLOAD SWAP1 PUSH1 0x20 ADD SWAP1 DUP1 DUP4 DUP4 PUSH1 0x0 JUMPDEST DUP4 DUP2 LT ISZERO PUSH3 0xC3 JUMPI DUP1 DUP3 ADD MLOAD DUP2 DUP5 ADD MSTORE PUSH1 0x20 DUP2 ADD SWAP1 POP PUSH3 0xA6 JUMP JUMPDEST POP POP POP POP SWAP1 POP SWAP1 DUP2 ADD SWAP1 PUSH1 0x1F AND DUP1 ISZERO PUSH3 0xF1 JUMPI DUP1 DUP3 SUB DUP1 MLOAD PUSH1 0x1 DUP4 PUSH1 0x20 SUB PUSH2 0x100 EXP SUB NOT AND DUP2 MSTORE PUSH1 0x20 ADD SWAP2 POP JUMPDEST POP PUSH1 0x40 MSTORE PUSH1 0x20 ADD DUP1 MLOAD PUSH1 0x40 MLOAD SWAP4 SWAP3 SWAP2 SWAP1 DUP5 PUSH5 0x100000000 DUP3 GT ISZERO PUSH3 0x115 JUMPI PUSH1 0x0 DUP1 REVERT JUMPDEST DUP4 DUP3 ADD SWAP2 POP PUSH1 0x20 DUP3 ADD DUP6 DUP2 GT ISZERO PUSH3 0x12C JUMPI PUSH1 0x0 DUP1 REVERT JUMPDEST DUP3 MLOAD DUP7 PUSH1 0x1 DUP3 MUL DUP4 ADD GT PUSH5 0x100000000 DUP3 GT OR ISZERO PUSH3 0x14A JUMPI PUSH1 0x0 DUP1 REVERT JUMPDEST DUP1 DUP4 MSTORE PUSH1 0x20 DUP4 ADD SWAP3 POP POP POP SWAP1 DUP1 MLOAD SWAP1 PUSH1 0x20 ADD SWAP1 DUP1 DUP4 DUP4 PUSH1 0x0 JUMPDEST DUP4 DUP2 LT ISZERO PUSH3 0x180 JUMPI DUP1 DUP3 ADD MLOAD DUP2 DUP5 ADD MSTORE PUSH1 0x20 DUP2 ADD SWAP1 POP PUSH3 0x163 JUMP JUMPDEST POP POP POP POP SWAP1 POP SWAP1 DUP2 ADD SWAP1 PUSH1 0x1F AND DUP1 ISZERO PUSH3 0x1AE JUMPI DUP1 DUP3 SUB DUP1 MLOAD PUSH1 0x1 DUP4 PUSH1 0x20 SUB PUSH2 0x100 EXP SUB NOT AND DUP2 MSTORE PUSH1 0x20 ADD SWAP2 POP JUMPDEST POP PUSH1 0x40 MSTORE PUSH1 0x20 ADD DUP1 MLOAD SWAP1 PUSH1 0x20 ADD SWAP1 SWAP3 SWAP2 SWAP1 POP POP POP DUP3 DUP3 DUP3 DUP3 PUSH1 0x4 SWAP1 DUP1 MLOAD SWAP1 PUSH1 0x20 ADD SWAP1 PUSH3 0x1DD SWAP3 SWAP2 SWAP1 PUSH3 0x484 JUMP JUMPDEST POP DUP2 PUSH1 0x5 SWAP1 DUP1 MLOAD SWAP1 PUSH1 0x20 ADD SWAP1 PUSH3 0x1F6 SWAP3 SWAP2 SWAP1 PUSH3 0x484 JUMP JUMPDEST POP DUP1 PUSH1 0x6 PUSH1 0x0 PUSH2 0x100 EXP DUP2 SLOAD DUP2 PUSH1 0xFF MUL NOT AND SWAP1 DUP4 PUSH1 0xFF AND MUL OR SWAP1 SSTORE POP POP POP POP PUSH3 0x239 PUSH1 0x0 DUP1 SHL PUSH3 0x22D PUSH3 0x2EE PUSH1 0x20 SHL PUSH1 0x20 SHR JUMP JUMPDEST PUSH3 0x2F6 PUSH1 0x20 SHL PUSH1 0x20 SHR JUMP JUMPDEST PUSH3 0x28F PUSH1 0x40 MLOAD DUP1 DUP1 PUSH32 0x4D494E5445525F524F4C45000000000000000000000000000000000000000000 DUP2 MSTORE POP PUSH1 0xB ADD SWAP1 POP PUSH1 0x40 MLOAD DUP1 SWAP2 SUB SWAP1 KECCAK256 PUSH3 0x283 PUSH3 0x2EE PUSH1 0x20 SHL PUSH1 0x20 SHR JUMP JUMPDEST PUSH3 0x2F6 PUSH1 0x20 SHL PUSH1 0x20 SHR JUMP JUMPDEST PUSH3 0x2E5 PUSH1 0x40 MLOAD DUP1 DUP1 PUSH32 0x5041555345525F524F4C45000000000000000000000000000000000000000000 DUP2 MSTORE POP PUSH1 0xB ADD SWAP1 POP PUSH1 0x40 MLOAD DUP1 SWAP2 SUB SWAP1 KECCAK256 PUSH3 0x2D9 PUSH3 0x2EE PUSH1 0x20 SHL PUSH1 0x20 SHR JUMP JUMPDEST PUSH3 0x2F6 PUSH1 0x20 SHL PUSH1 0x20 SHR JUMP JUMPDEST POP POP POP PUSH3 0x533 JUMP JUMPDEST PUSH1 0x0 CALLER SWAP1 POP SWAP1 JUMP JUMPDEST PUSH3 0x308 DUP3 DUP3 PUSH3 0x30C PUSH1 0x20 SHL PUSH1 0x20 SHR JUMP JUMPDEST POP POP JUMP JUMPDEST PUSH3 0x33A DUP2 PUSH1 0x0 DUP1 DUP6 DUP2 MSTORE PUSH1 0x20 ADD SWAP1 DUP2 MSTORE PUSH1 0x20 ADD PUSH1 0x0 KECCAK256 PUSH1 0x0 ADD PUSH3 0x3AF PUSH1 0x20 SHL PUSH3 0x1FD9 OR SWAP1 SWAP2 SWAP1 PUSH1 0x20 SHR JUMP JUMPDEST ISZERO PUSH3 0x3AB JUMPI PUSH3 0x350 PUSH3 0x2EE PUSH1 0x20 SHL PUSH1 0x20 SHR JUMP JUMPDEST PUSH20 0xFFFFFFFFFFFFFFFFFFFFFFFFFFFFFFFFFFFFFFFF AND DUP2 PUSH20 0xFFFFFFFFFFFFFFFFFFFFFFFFFFFFFFFFFFFFFFFF AND DUP4 PUSH32 0x2F8788117E7EFF1D82E926EC794901D17C78024A50270940304540A733656F0D PUSH1 0x40 MLOAD PUSH1 0x40 MLOAD DUP1 SWAP2 SUB SWAP1 LOG4 JUMPDEST POP POP JUMP JUMPDEST PUSH1 0x0 PUSH3 0x3DF DUP4 PUSH1 0x0 ADD DUP4 PUSH20 0xFFFFFFFFFFFFFFFFFFFFFFFFFFFFFFFFFFFFFFFF AND PUSH1 0x0 SHL PUSH3 0x3E7 PUSH1 0x20 SHL PUSH1 0x20 SHR JUMP JUMPDEST SWAP1 POP SWAP3 SWAP2 POP POP JUMP JUMPDEST PUSH1 0x0 PUSH3 0x3FB DUP4 DUP4 PUSH3 0x461 PUSH1 0x20 SHL PUSH1 0x20 SHR JUMP JUMPDEST PUSH3 0x456 JUMPI DUP3 PUSH1 0x0 ADD DUP3 SWAP1 DUP1 PUSH1 0x1 DUP2 SLOAD ADD DUP1 DUP3 SSTORE DUP1 SWAP2 POP POP PUSH1 0x1 SWAP1 SUB SWAP1 PUSH1 0x0 MSTORE PUSH1 0x20 PUSH1 0x0 KECCAK256 ADD PUSH1 0x0 SWAP1 SWAP2 SWAP1 SWAP2 SWAP1 SWAP2 POP SSTORE DUP3 PUSH1 0x0 ADD DUP1 SLOAD SWAP1 POP DUP4 PUSH1 0x1 ADD PUSH1 0x0 DUP5 DUP2 MSTORE PUSH1 0x20 ADD SWAP1 DUP2 MSTORE PUSH1 0x20 ADD PUSH1 0x0 KECCAK256 DUP2 SWAP1 SSTORE POP PUSH1 0x1 SWAP1 POP PUSH3 0x45B JUMP JUMPDEST PUSH1 0x0 SWAP1 POP JUMPDEST SWAP3 SWAP2 POP POP JUMP JUMPDEST PUSH1 0x0 DUP1 DUP4 PUSH1 0x1 ADD PUSH1 0x0 DUP5 DUP2 MSTORE PUSH1 0x20 ADD SWAP1 DUP2 MSTORE PUSH1 0x20 ADD PUSH1 0x0 KECCAK256 SLOAD EQ ISZERO SWAP1 POP SWAP3 SWAP2 POP POP JUMP JUMPDEST DUP3 DUP1 SLOAD PUSH1 0x1 DUP2 PUSH1 0x1 AND ISZERO PUSH2 0x100 MUL SUB AND PUSH1 0x2 SWAP1 DIV SWAP1 PUSH1 0x0 MSTORE PUSH1 0x20 PUSH1 0x0 KECCAK256 SWAP1 PUSH1 0x1F ADD PUSH1 0x20 SWAP1 DIV DUP2 ADD SWAP3 DUP3 PUSH1 0x1F LT PUSH3 0x4C7 JUMPI DUP1 MLOAD PUSH1 0xFF NOT AND DUP4 DUP1 ADD OR DUP6 SSTORE PUSH3 0x4F8 JUMP JUMPDEST DUP3 DUP1 ADD PUSH1 0x1 ADD DUP6 SSTORE DUP3 ISZERO PUSH3 0x4F8 JUMPI SWAP2 DUP3 ADD JUMPDEST DUP3 DUP2 GT ISZERO PUSH3 0x4F7 JUMPI DUP3 MLOAD DUP3 SSTORE SWAP2 PUSH1 0x20 ADD SWAP2 SWAP1 PUSH1 0x1 ADD SWAP1 PUSH3 0x4DA JUMP JUMPDEST JUMPDEST POP SWAP1 POP PUSH3 0x507 SWAP2 SWAP1 PUSH3 0x50B JUMP JUMPDEST POP SWAP1 JUMP JUMPDEST PUSH3 0x530 SWAP2 SWAP1 JUMPDEST DUP1 DUP3 GT ISZERO PUSH3 0x52C JUMPI PUSH1 0x0 DUP2 PUSH1 0x0 SWAP1 SSTORE POP PUSH1 0x1 ADD PUSH3 0x512 JUMP JUMPDEST POP SWAP1 JUMP JUMPDEST SWAP1 JUMP JUMPDEST PUSH2 0x2765 DUP1 PUSH3 0x543 PUSH1 0x0 CODECOPY PUSH1 0x0 RETURN INVALID PUSH1 0x80 PUSH1 0x40 MSTORE CALLVALUE DUP1 ISZERO PUSH2 0x10 JUMPI PUSH1 0x0 DUP1 REVERT JUMPDEST POP PUSH1 0x4 CALLDATASIZE LT PUSH2 0x1A9 JUMPI PUSH1 0x0 CALLDATALOAD PUSH1 0xE0 SHR DUP1 PUSH4 0x70A08231 GT PUSH2 0xF9 JUMPI DUP1 PUSH4 0xA457C2D7 GT PUSH2 0x97 JUMPI DUP1 PUSH4 0xD5391393 GT PUSH2 0x71 JUMPI DUP1 PUSH4 0xD5391393 EQ PUSH2 0x888 JUMPI DUP1 PUSH4 0xD547741F EQ PUSH2 0x8A6 JUMPI DUP1 PUSH4 0xDD62ED3E EQ PUSH2 0x8F4 JUMPI DUP1 PUSH4 0xE63AB1E9 EQ PUSH2 0x96C JUMPI PUSH2 0x1A9 JUMP JUMPDEST DUP1 PUSH4 0xA457C2D7 EQ PUSH2 0x77A JUMPI DUP1 PUSH4 0xA9059CBB EQ PUSH2 0x7E0 JUMPI DUP1 PUSH4 0xCA15C873 EQ PUSH2 0x846 JUMPI PUSH2 0x1A9 JUMP JUMPDEST DUP1 PUSH4 0x9010D07C GT PUSH2 0xD3 JUMPI DUP1 PUSH4 0x9010D07C EQ PUSH2 0x5FB JUMPI DUP1 PUSH4 0x91D14854 EQ PUSH2 0x673 JUMPI DUP1 PUSH4 0x95D89B41 EQ PUSH2 0x6D9 JUMPI DUP1 PUSH4 0xA217FDDF EQ PUSH2 0x75C JUMPI PUSH2 0x1A9 JUMP JUMPDEST DUP1 PUSH4 0x70A08231 EQ PUSH2 0x54B JUMPI DUP1 PUSH4 0x79CC6790 EQ PUSH2 0x5A3 JUMPI DUP1 PUSH4 0x8456CB59 EQ PUSH2 0x5F1 JUMPI PUSH2 0x1A9 JUMP JUMPDEST DUP1 PUSH4 0x313CE567 GT PUSH2 0x166 JUMPI DUP1 PUSH4 0x3F4BA83A GT PUSH2 0x140 JUMPI DUP1 PUSH4 0x3F4BA83A EQ PUSH2 0x4A3 JUMPI DUP1 PUSH4 0x40C10F19 EQ PUSH2 0x4AD JUMPI DUP1 PUSH4 0x42966C68 EQ PUSH2 0x4FB JUMPI DUP1 PUSH4 0x5C975ABB EQ PUSH2 0x529 JUMPI PUSH2 0x1A9 JUMP JUMPDEST DUP1 PUSH4 0x313CE567 EQ PUSH2 0x3CB JUMPI DUP1 PUSH4 0x36568ABE EQ PUSH2 0x3EF JUMPI DUP1 PUSH4 0x39509351 EQ PUSH2 0x43D JUMPI PUSH2 0x1A9 JUMP JUMPDEST DUP1 PUSH4 0x6FDDE03 EQ PUSH2 0x1AE JUMPI DUP1 PUSH4 0x95EA7B3 EQ PUSH2 0x231 JUMPI DUP1 PUSH4 0x18160DDD EQ PUSH2 0x297 JUMPI DUP1 PUSH4 0x23B872DD EQ PUSH2 0x2B5 JUMPI DUP1 PUSH4 0x248A9CA3 EQ PUSH2 0x33B JUMPI DUP1 PUSH4 0x2F2FF15D EQ PUSH2 0x37D JUMPI JUMPDEST PUSH1 0x0 DUP1 REVERT JUMPDEST PUSH2 0x1B6 PUSH2 0x98A JUMP JUMPDEST PUSH1 0x40 MLOAD DUP1 DUP1 PUSH1 0x20 ADD DUP3 DUP2 SUB DUP3 MSTORE DUP4 DUP2 DUP2 MLOAD DUP2 MSTORE PUSH1 0x20 ADD SWAP2 POP DUP1 MLOAD SWAP1 PUSH1 0x20 ADD SWAP1 DUP1 DUP4 DUP4 PUSH1 0x0 JUMPDEST DUP4 DUP2 LT ISZERO PUSH2 0x1F6 JUMPI DUP1 DUP3 ADD MLOAD DUP2 DUP5 ADD MSTORE PUSH1 0x20 DUP2 ADD SWAP1 POP PUSH2 0x1DB JUMP JUMPDEST POP POP POP POP SWAP1 POP SWAP1 DUP2 ADD SWAP1 PUSH1 0x1F AND DUP1 ISZERO PUSH2 0x223 JUMPI DUP1 DUP3 SUB DUP1 MLOAD PUSH1 0x1 DUP4 PUSH1 0x20 SUB PUSH2 0x100 EXP SUB NOT AND DUP2 MSTORE PUSH1 0x20 ADD SWAP2 POP JUMPDEST POP SWAP3 POP POP POP PUSH1 0x40 MLOAD DUP1 SWAP2 SUB SWAP1 RETURN JUMPDEST PUSH2 0x27D PUSH1 0x4 DUP1 CALLDATASIZE SUB PUSH1 0x40 DUP2 LT ISZERO PUSH2 0x247 JUMPI PUSH1 0x0 DUP1 REVERT JUMPDEST DUP2 ADD SWAP1 DUP1 DUP1 CALLDATALOAD PUSH20 0xFFFFFFFFFFFFFFFFFFFFFFFFFFFFFFFFFFFFFFFF AND SWAP1 PUSH1 0x20 ADD SWAP1 SWAP3 SWAP2 SWAP1 DUP1 CALLDATALOAD SWAP1 PUSH1 0x20 ADD SWAP1 SWAP3 SWAP2 SWAP1 POP POP POP PUSH2 0xA2C JUMP JUMPDEST PUSH1 0x40 MLOAD DUP1 DUP3 ISZERO ISZERO ISZERO ISZERO DUP2 MSTORE PUSH1 0x20 ADD SWAP2 POP POP PUSH1 0x40 MLOAD DUP1 SWAP2 SUB SWAP1 RETURN JUMPDEST PUSH2 0x29F PUSH2 0xA4A JUMP JUMPDEST PUSH1 0x40 MLOAD DUP1 DUP3 DUP2 MSTORE PUSH1 0x20 ADD SWAP2 POP POP PUSH1 0x40 MLOAD DUP1 SWAP2 SUB SWAP1 RETURN JUMPDEST PUSH2 0x321 PUSH1 0x4 DUP1 CALLDATASIZE SUB PUSH1 0x60 DUP2 LT ISZERO PUSH2 0x2CB JUMPI PUSH1 0x0 DUP1 REVERT JUMPDEST DUP2 ADD SWAP1 DUP1 DUP1 CALLDATALOAD PUSH20 0xFFFFFFFFFFFFFFFFFFFFFFFFFFFFFFFFFFFFFFFF AND SWAP1 PUSH1 0x20 ADD SWAP1 SWAP3 SWAP2 SWAP1 DUP1 CALLDATALOAD PUSH20 0xFFFFFFFFFFFFFFFFFFFFFFFFFFFFFFFFFFFFFFFF AND SWAP1 PUSH1 0x20 ADD SWAP1 SWAP3 SWAP2 SWAP1 DUP1 CALLDATALOAD SWAP1 PUSH1 0x20 ADD SWAP1 SWAP3 SWAP2 SWAP1 POP POP POP PUSH2 0xA54 JUMP JUMPDEST PUSH1 0x40 MLOAD DUP1 DUP3 ISZERO ISZERO ISZERO ISZERO DUP2 MSTORE PUSH1 0x20 ADD SWAP2 POP POP PUSH1 0x40 MLOAD DUP1 SWAP2 SUB SWAP1 RETURN JUMPDEST PUSH2 0x367 PUSH1 0x4 DUP1 CALLDATASIZE SUB PUSH1 0x20 DUP2 LT ISZERO PUSH2 0x351 JUMPI PUSH1 0x0 DUP1 REVERT JUMPDEST DUP2 ADD SWAP1 DUP1 DUP1 CALLDATALOAD SWAP1 PUSH1 0x20 ADD SWAP1 SWAP3 SWAP2 SWAP1 POP POP POP PUSH2 0xB2D JUMP JUMPDEST PUSH1 0x40 MLOAD DUP1 DUP3 DUP2 MSTORE PUSH1 0x20 ADD SWAP2 POP POP PUSH1 0x40 MLOAD DUP1 SWAP2 SUB SWAP1 RETURN JUMPDEST PUSH2 0x3C9 PUSH1 0x4 DUP1 CALLDATASIZE SUB PUSH1 0x40 DUP2 LT ISZERO PUSH2 0x393 JUMPI PUSH1 0x0 DUP1 REVERT JUMPDEST DUP2 ADD SWAP1 DUP1 DUP1 CALLDATALOAD SWAP1 PUSH1 0x20 ADD SWAP1 SWAP3 SWAP2 SWAP1 DUP1 CALLDATALOAD PUSH20 0xFFFFFFFFFFFFFFFFFFFFFFFFFFFFFFFFFFFFFFFF AND SWAP1 PUSH1 0x20 ADD SWAP1 SWAP3 SWAP2 SWAP1 POP POP POP PUSH2 0xB4C JUMP JUMPDEST STOP JUMPDEST PUSH2 0x3D3 PUSH2 0xBD5 JUMP JUMPDEST PUSH1 0x40 MLOAD DUP1 DUP3 PUSH1 0xFF AND PUSH1 0xFF AND DUP2 MSTORE PUSH1 0x20 ADD SWAP2 POP POP PUSH1 0x40 MLOAD DUP1 SWAP2 SUB SWAP1 RETURN JUMPDEST PUSH2 0x43B PUSH1 0x4 DUP1 CALLDATASIZE SUB PUSH1 0x40 DUP2 LT ISZERO PUSH2 0x405 JUMPI PUSH1 0x0 DUP1 REVERT JUMPDEST DUP2 ADD SWAP1 DUP1 DUP1 CALLDATALOAD SWAP1 PUSH1 0x20 ADD SWAP1 SWAP3 SWAP2 SWAP1 DUP1 CALLDATALOAD PUSH20 0xFFFFFFFFFFFFFFFFFFFFFFFFFFFFFFFFFFFFFFFF AND SWAP1 PUSH1 0x20 ADD SWAP1 SWAP3 SWAP2 SWAP1 POP POP POP PUSH2 0xBEC JUMP JUMPDEST STOP JUMPDEST PUSH2 0x489 PUSH1 0x4 DUP1 CALLDATASIZE SUB PUSH1 0x40 DUP2 LT ISZERO PUSH2 0x453 JUMPI PUSH1 0x0 DUP1 REVERT JUMPDEST DUP2 ADD SWAP1 DUP1 DUP1 CALLDATALOAD PUSH20 0xFFFFFFFFFFFFFFFFFFFFFFFFFFFFFFFFFFFFFFFF AND SWAP1 PUSH1 0x20 ADD SWAP1 SWAP3 SWAP2 SWAP1 DUP1 CALLDATALOAD SWAP1 PUSH1 0x20 ADD SWAP1 SWAP3 SWAP2 SWAP1 POP POP POP PUSH2 0xC85 JUMP JUMPDEST PUSH1 0x40 MLOAD DUP1 DUP3 ISZERO ISZERO ISZERO ISZERO DUP2 MSTORE PUSH1 0x20 ADD SWAP2 POP POP PUSH1 0x40 MLOAD DUP1 SWAP2 SUB SWAP1 RETURN JUMPDEST PUSH2 0x4AB PUSH2 0xD38 JUMP JUMPDEST STOP JUMPDEST PUSH2 0x4F9 PUSH1 0x4 DUP1 CALLDATASIZE SUB PUSH1 0x40 DUP2 LT ISZERO PUSH2 0x4C3 JUMPI PUSH1 0x0 DUP1 REVERT JUMPDEST DUP2 ADD SWAP1 DUP1 DUP1 CALLDATALOAD PUSH20 0xFFFFFFFFFFFFFFFFFFFFFFFFFFFFFFFFFFFFFFFF AND SWAP1 PUSH1 0x20 ADD SWAP1 SWAP3 SWAP2 SWAP1 DUP1 CALLDATALOAD SWAP1 PUSH1 0x20 ADD SWAP1 SWAP3 SWAP2 SWAP1 POP POP POP PUSH2 0xDDD JUMP JUMPDEST STOP JUMPDEST PUSH2 0x527 PUSH1 0x4 DUP1 CALLDATASIZE SUB PUSH1 0x20 DUP2 LT ISZERO PUSH2 0x511 JUMPI PUSH1 0x0 DUP1 REVERT JUMPDEST DUP2 ADD SWAP1 DUP1 DUP1 CALLDATALOAD SWAP1 PUSH1 0x20 ADD SWAP1 SWAP3 SWAP2 SWAP1 POP POP POP PUSH2 0xE86 JUMP JUMPDEST STOP JUMPDEST PUSH2 0x531 PUSH2 0xE9A JUMP JUMPDEST PUSH1 0x40 MLOAD DUP1 DUP3 ISZERO ISZERO ISZERO ISZERO DUP2 MSTORE PUSH1 0x20 ADD SWAP2 POP POP PUSH1 0x40 MLOAD DUP1 SWAP2 SUB SWAP1 RETURN JUMPDEST PUSH2 0x58D PUSH1 0x4 DUP1 CALLDATASIZE SUB PUSH1 0x20 DUP2 LT ISZERO PUSH2 0x561 JUMPI PUSH1 0x0 DUP1 REVERT JUMPDEST DUP2 ADD SWAP1 DUP1 DUP1 CALLDATALOAD PUSH20 0xFFFFFFFFFFFFFFFFFFFFFFFFFFFFFFFFFFFFFFFF AND SWAP1 PUSH1 0x20 ADD SWAP1 SWAP3 SWAP2 SWAP1 POP POP POP PUSH2 0xEB1 JUMP JUMPDEST PUSH1 0x40 MLOAD DUP1 DUP3 DUP2 MSTORE PUSH1 0x20 ADD SWAP2 POP POP PUSH1 0x40 MLOAD DUP1 SWAP2 SUB SWAP1 RETURN JUMPDEST PUSH2 0x5EF PUSH1 0x4 DUP1 CALLDATASIZE SUB PUSH1 0x40 DUP2 LT ISZERO PUSH2 0x5B9 JUMPI PUSH1 0x0 DUP1 REVERT JUMPDEST DUP2 ADD SWAP1 DUP1 DUP1 CALLDATALOAD PUSH20 0xFFFFFFFFFFFFFFFFFFFFFFFFFFFFFFFFFFFFFFFF AND SWAP1 PUSH1 0x20 ADD SWAP1 SWAP3 SWAP2 SWAP1 DUP1 CALLDATALOAD SWAP1 PUSH1 0x20 ADD SWAP1 SWAP3 SWAP2 SWAP1 POP POP POP PUSH2 0xEFA JUMP JUMPDEST STOP JUMPDEST PUSH2 0x5F9 PUSH2 0xF5C JUMP JUMPDEST STOP JUMPDEST PUSH2 0x631 PUSH1 0x4 DUP1 CALLDATASIZE SUB PUSH1 0x40 DUP2 LT ISZERO PUSH2 0x611 JUMPI PUSH1 0x0 DUP1 REVERT JUMPDEST DUP2 ADD SWAP1 DUP1 DUP1 CALLDATALOAD SWAP1 PUSH1 0x20 ADD SWAP1 SWAP3 SWAP2 SWAP1 DUP1 CALLDATALOAD SWAP1 PUSH1 0x20 ADD SWAP1 SWAP3 SWAP2 SWAP1 POP POP POP PUSH2 0x1001 JUMP JUMPDEST PUSH1 0x40 MLOAD DUP1 DUP3 PUSH20 0xFFFFFFFFFFFFFFFFFFFFFFFFFFFFFFFFFFFFFFFF AND PUSH20 0xFFFFFFFFFFFFFFFFFFFFFFFFFFFFFFFFFFFFFFFF AND DUP2 MSTORE PUSH1 0x20 ADD SWAP2 POP POP PUSH1 0x40 MLOAD DUP1 SWAP2 SUB SWAP1 RETURN JUMPDEST PUSH2 0x6BF PUSH1 0x4 DUP1 CALLDATASIZE SUB PUSH1 0x40 DUP2 LT ISZERO PUSH2 0x689 JUMPI PUSH1 0x0 DUP1 REVERT JUMPDEST DUP2 ADD SWAP1 DUP1 DUP1 CALLDATALOAD SWAP1 PUSH1 0x20 ADD SWAP1 SWAP3 SWAP2 SWAP1 DUP1 CALLDATALOAD PUSH20 0xFFFFFFFFFFFFFFFFFFFFFFFFFFFFFFFFFFFFFFFF AND SWAP1 PUSH1 0x20 ADD SWAP1 SWAP3 SWAP2 SWAP1 POP POP POP PUSH2 0x1032 JUMP JUMPDEST PUSH1 0x40 MLOAD DUP1 DUP3 ISZERO ISZERO ISZERO ISZERO DUP2 MSTORE PUSH1 0x20 ADD SWAP2 POP POP PUSH1 0x40 MLOAD DUP1 SWAP2 SUB SWAP1 RETURN JUMPDEST PUSH2 0x6E1 PUSH2 0x1063 JUMP JUMPDEST PUSH1 0x40 MLOAD DUP1 DUP1 PUSH1 0x20 ADD DUP3 DUP2 SUB DUP3 MSTORE DUP4 DUP2 DUP2 MLOAD DUP2 MSTORE PUSH1 0x20 ADD SWAP2 POP DUP1 MLOAD SWAP1 PUSH1 0x20 ADD SWAP1 DUP1 DUP4 DUP4 PUSH1 0x0 JUMPDEST DUP4 DUP2 LT ISZERO PUSH2 0x721 JUMPI DUP1 DUP3 ADD MLOAD DUP2 DUP5 ADD MSTORE PUSH1 0x20 DUP2 ADD SWAP1 POP PUSH2 0x706 JUMP JUMPDEST POP POP POP POP SWAP1 POP SWAP1 DUP2 ADD SWAP1 PUSH1 0x1F AND DUP1 ISZERO PUSH2 0x74E JUMPI DUP1 DUP3 SUB DUP1 MLOAD PUSH1 0x1 DUP4 PUSH1 0x20 SUB PUSH2 0x100 EXP SUB NOT AND DUP2 MSTORE PUSH1 0x20 ADD SWAP2 POP JUMPDEST POP SWAP3 POP POP POP PUSH1 0x40 MLOAD DUP1 SWAP2 SUB SWAP1 RETURN JUMPDEST PUSH2 0x764 PUSH2 0x1105 JUMP JUMPDEST PUSH1 0x40 MLOAD DUP1 DUP3 DUP2 MSTORE PUSH1 0x20 ADD SWAP2 POP POP PUSH1 0x40 MLOAD DUP1 SWAP2 SUB SWAP1 RETURN JUMPDEST PUSH2 0x7C6 PUSH1 0x4 DUP1 CALLDATASIZE SUB PUSH1 0x40 DUP2 LT ISZERO PUSH2 0x790 JUMPI PUSH1 0x0 DUP1 REVERT JUMPDEST DUP2 ADD SWAP1 DUP1 DUP1 CALLDATALOAD PUSH20 0xFFFFFFFFFFFFFFFFFFFFFFFFFFFFFFFFFFFFFFFF AND SWAP1 PUSH1 0x20 ADD SWAP1 SWAP3 SWAP2 SWAP1 DUP1 CALLDATALOAD SWAP1 PUSH1 0x20 ADD SWAP1 SWAP3 SWAP2 SWAP1 POP POP POP PUSH2 0x110C JUMP JUMPDEST PUSH1 0x40 MLOAD DUP1 DUP3 ISZERO ISZERO ISZERO ISZERO DUP2 MSTORE PUSH1 0x20 ADD SWAP2 POP POP PUSH1 0x40 MLOAD DUP1 SWAP2 SUB SWAP1 RETURN JUMPDEST PUSH2 0x82C PUSH1 0x4 DUP1 CALLDATASIZE SUB PUSH1 0x40 DUP2 LT ISZERO PUSH2 0x7F6 JUMPI PUSH1 0x0 DUP1 REVERT JUMPDEST DUP2 ADD SWAP1 DUP1 DUP1 CALLDATALOAD PUSH20 0xFFFFFFFFFFFFFFFFFFFFFFFFFFFFFFFFFFFFFFFF AND SWAP1 PUSH1 0x20 ADD SWAP1 SWAP3 SWAP2 SWAP1 DUP1 CALLDATALOAD SWAP1 PUSH1 0x20 ADD SWAP1 SWAP3 SWAP2 SWAP1 POP POP POP PUSH2 0x11D9 JUMP JUMPDEST PUSH1 0x40 MLOAD DUP1 DUP3 ISZERO ISZERO ISZERO ISZERO DUP2 MSTORE PUSH1 0x20 ADD SWAP2 POP POP PUSH1 0x40 MLOAD DUP1 SWAP2 SUB SWAP1 RETURN JUMPDEST PUSH2 0x872 PUSH1 0x4 DUP1 CALLDATASIZE SUB PUSH1 0x20 DUP2 LT ISZERO PUSH2 0x85C JUMPI PUSH1 0x0 DUP1 REVERT JUMPDEST DUP2 ADD SWAP1 DUP1 DUP1 CALLDATALOAD SWAP1 PUSH1 0x20 ADD SWAP1 SWAP3 SWAP2 SWAP1 POP POP POP PUSH2 0x11F7 JUMP JUMPDEST PUSH1 0x40 MLOAD DUP1 DUP3 DUP2 MSTORE PUSH1 0x20 ADD SWAP2 POP POP PUSH1 0x40 MLOAD DUP1 SWAP2 SUB SWAP1 RETURN JUMPDEST PUSH2 0x890 PUSH2 0x121D JUMP JUMPDEST PUSH1 0x40 MLOAD DUP1 DUP3 DUP2 MSTORE PUSH1 0x20 ADD SWAP2 POP POP PUSH1 0x40 MLOAD DUP1 SWAP2 SUB SWAP1 RETURN JUMPDEST PUSH2 0x8F2 PUSH1 0x4 DUP1 CALLDATASIZE SUB PUSH1 0x40 DUP2 LT ISZERO PUSH2 0x8BC JUMPI PUSH1 0x0 DUP1 REVERT JUMPDEST DUP2 ADD SWAP1 DUP1 DUP1 CALLDATALOAD SWAP1 PUSH1 0x20 ADD SWAP1 SWAP3 SWAP2 SWAP1 DUP1 CALLDATALOAD PUSH20 0xFFFFFFFFFFFFFFFFFFFFFFFFFFFFFFFFFFFFFFFF AND SWAP1 PUSH1 0x20 ADD SWAP1 SWAP3 SWAP2 SWAP1 POP POP POP PUSH2 0x1256 JUMP JUMPDEST STOP JUMPDEST PUSH2 0x956 PUSH1 0x4 DUP1 CALLDATASIZE SUB PUSH1 0x40 DUP2 LT ISZERO PUSH2 0x90A JUMPI PUSH1 0x0 DUP1 REVERT JUMPDEST DUP2 ADD SWAP1 DUP1 DUP1 CALLDATALOAD PUSH20 0xFFFFFFFFFFFFFFFFFFFFFFFFFFFFFFFFFFFFFFFF AND SWAP1 PUSH1 0x20 ADD SWAP1 SWAP3 SWAP2 SWAP1 DUP1 CALLDATALOAD PUSH20 0xFFFFFFFFFFFFFFFFFFFFFFFFFFFFFFFFFFFFFFFF AND SWAP1 PUSH1 0x20 ADD SWAP1 SWAP3 SWAP2 SWAP1 POP POP POP PUSH2 0x12DF JUMP JUMPDEST PUSH1 0x40 MLOAD DUP1 DUP3 DUP2 MSTORE PUSH1 0x20 ADD SWAP2 POP POP PUSH1 0x40 MLOAD DUP1 SWAP2 SUB SWAP1 RETURN JUMPDEST PUSH2 0x974 PUSH2 0x1366 JUMP JUMPDEST PUSH1 0x40 MLOAD DUP1 DUP3 DUP2 MSTORE PUSH1 0x20 ADD SWAP2 POP POP PUSH1 0x40 MLOAD DUP1 SWAP2 SUB SWAP1 RETURN JUMPDEST PUSH1 0x60 PUSH1 0x4 DUP1 SLOAD PUSH1 0x1 DUP2 PUSH1 0x1 AND ISZERO PUSH2 0x100 MUL SUB AND PUSH1 0x2 SWAP1 DIV DUP1 PUSH1 0x1F ADD PUSH1 0x20 DUP1 SWAP2 DIV MUL PUSH1 0x20 ADD PUSH1 0x40 MLOAD SWAP1 DUP2 ADD PUSH1 0x40 MSTORE DUP1 SWAP3 SWAP2 SWAP1 DUP2 DUP2 MSTORE PUSH1 0x20 ADD DUP3 DUP1 SLOAD PUSH1 0x1 DUP2 PUSH1 0x1 AND ISZERO PUSH2 0x100 MUL SUB AND PUSH1 0x2 SWAP1 DIV DUP1 ISZERO PUSH2 0xA22 JUMPI DUP1 PUSH1 0x1F LT PUSH2 0x9F7 JUMPI PUSH2 0x100 DUP1 DUP4 SLOAD DIV MUL DUP4 MSTORE SWAP2 PUSH1 0x20 ADD SWAP2 PUSH2 0xA22 JUMP JUMPDEST DUP3 ADD SWAP2 SWAP1 PUSH1 0x0 MSTORE PUSH1 0x20 PUSH1 0x0 KECCAK256 SWAP1 JUMPDEST DUP2 SLOAD DUP2 MSTORE SWAP1 PUSH1 0x1 ADD SWAP1 PUSH1 0x20 ADD DUP1 DUP4 GT PUSH2 0xA05 JUMPI DUP3 SWAP1 SUB PUSH1 0x1F AND DUP3 ADD SWAP2 JUMPDEST POP POP POP POP POP SWAP1 POP SWAP1 JUMP JUMPDEST PUSH1 0x0 PUSH2 0xA40 PUSH2 0xA39 PUSH2 0x139F JUMP JUMPDEST DUP5 DUP5 PUSH2 0x13A7 JUMP JUMPDEST PUSH1 0x1 SWAP1 POP SWAP3 SWAP2 POP POP JUMP JUMPDEST PUSH1 0x0 PUSH1 0x3 SLOAD SWAP1 POP SWAP1 JUMP JUMPDEST PUSH1 0x0 PUSH2 0xA61 DUP5 DUP5 DUP5 PUSH2 0x159E JUMP JUMPDEST PUSH2 0xB22 DUP5 PUSH2 0xA6D PUSH2 0x139F JUMP JUMPDEST PUSH2 0xB1D DUP6 PUSH1 0x40 MLOAD DUP1 PUSH1 0x60 ADD PUSH1 0x40 MSTORE DUP1 PUSH1 0x28 DUP2 MSTORE PUSH1 0x20 ADD PUSH2 0x258F PUSH1 0x28 SWAP2 CODECOPY PUSH1 0x2 PUSH1 0x0 DUP12 PUSH20 0xFFFFFFFFFFFFFFFFFFFFFFFFFFFFFFFFFFFFFFFF AND PUSH20 0xFFFFFFFFFFFFFFFFFFFFFFFFFFFFFFFFFFFFFFFF AND DUP2 MSTORE PUSH1 0x20 ADD SWAP1 DUP2 MSTORE PUSH1 0x20 ADD PUSH1 0x0 KECCAK256 PUSH1 0x0 PUSH2 0xAD3 PUSH2 0x139F JUMP JUMPDEST PUSH20 0xFFFFFFFFFFFFFFFFFFFFFFFFFFFFFFFFFFFFFFFF AND PUSH20 0xFFFFFFFFFFFFFFFFFFFFFFFFFFFFFFFFFFFFFFFF AND DUP2 MSTORE PUSH1 0x20 ADD SWAP1 DUP2 MSTORE PUSH1 0x20 ADD PUSH1 0x0 KECCAK256 SLOAD PUSH2 0x1863 SWAP1 SWAP3 SWAP2 SWAP1 PUSH4 0xFFFFFFFF AND JUMP JUMPDEST PUSH2 0x13A7 JUMP JUMPDEST PUSH1 0x1 SWAP1 POP SWAP4 SWAP3 POP POP POP JUMP JUMPDEST PUSH1 0x0 DUP1 PUSH1 0x0 DUP4 DUP2 MSTORE PUSH1 0x20 ADD SWAP1 DUP2 MSTORE PUSH1 0x20 ADD PUSH1 0x0 KECCAK256 PUSH1 0x2 ADD SLOAD SWAP1 POP SWAP2 SWAP1 POP JUMP JUMPDEST PUSH2 0xB72 PUSH1 0x0 DUP1 DUP5 DUP2 MSTORE PUSH1 0x20 ADD SWAP1 DUP2 MSTORE PUSH1 0x20 ADD PUSH1 0x0 KECCAK256 PUSH1 0x2 ADD SLOAD PUSH2 0xB6D PUSH2 0x139F JUMP JUMPDEST PUSH2 0x1032 JUMP JUMPDEST PUSH2 0xBC7 JUMPI PUSH1 0x40 MLOAD PUSH32 0x8C379A000000000000000000000000000000000000000000000000000000000 DUP2 MSTORE PUSH1 0x4 ADD DUP1 DUP1 PUSH1 0x20 ADD DUP3 DUP2 SUB DUP3 MSTORE PUSH1 0x2F DUP2 MSTORE PUSH1 0x20 ADD DUP1 PUSH2 0x248D PUSH1 0x2F SWAP2 CODECOPY PUSH1 0x40 ADD SWAP2 POP POP PUSH1 0x40 MLOAD DUP1 SWAP2 SUB SWAP1 REVERT JUMPDEST PUSH2 0xBD1 DUP3 DUP3 PUSH2 0x191D JUMP JUMPDEST POP POP JUMP JUMPDEST PUSH1 0x0 PUSH1 0x6 PUSH1 0x0 SWAP1 SLOAD SWAP1 PUSH2 0x100 EXP SWAP1 DIV PUSH1 0xFF AND SWAP1 POP SWAP1 JUMP JUMPDEST PUSH2 0xBF4 PUSH2 0x139F JUMP JUMPDEST PUSH20 0xFFFFFFFFFFFFFFFFFFFFFFFFFFFFFFFFFFFFFFFF AND DUP2 PUSH20 0xFFFFFFFFFFFFFFFFFFFFFFFFFFFFFFFFFFFFFFFF AND EQ PUSH2 0xC77 JUMPI PUSH1 0x40 MLOAD PUSH32 0x8C379A000000000000000000000000000000000000000000000000000000000 DUP2 MSTORE PUSH1 0x4 ADD DUP1 DUP1 PUSH1 0x20 ADD DUP3 DUP2 SUB DUP3 MSTORE PUSH1 0x2F DUP2 MSTORE PUSH1 0x20 ADD DUP1 PUSH2 0x26D7 PUSH1 0x2F SWAP2 CODECOPY PUSH1 0x40 ADD SWAP2 POP POP PUSH1 0x40 MLOAD DUP1 SWAP2 SUB SWAP1 REVERT JUMPDEST PUSH2 0xC81 DUP3 DUP3 PUSH2 0x19B0 JUMP JUMPDEST POP POP JUMP JUMPDEST PUSH1 0x0 PUSH2 0xD2E PUSH2 0xC92 PUSH2 0x139F JUMP JUMPDEST DUP5 PUSH2 0xD29 DUP6 PUSH1 0x2 PUSH1 0x0 PUSH2 0xCA3 PUSH2 0x139F JUMP JUMPDEST PUSH20 0xFFFFFFFFFFFFFFFFFFFFFFFFFFFFFFFFFFFFFFFF AND PUSH20 0xFFFFFFFFFFFFFFFFFFFFFFFFFFFFFFFFFFFFFFFF AND DUP2 MSTORE PUSH1 0x20 ADD SWAP1 DUP2 MSTORE PUSH1 0x20 ADD PUSH1 0x0 KECCAK256 PUSH1 0x0 DUP10 PUSH20 0xFFFFFFFFFFFFFFFFFFFFFFFFFFFFFFFFFFFFFFFF AND PUSH20 0xFFFFFFFFFFFFFFFFFFFFFFFFFFFFFFFFFFFFFFFF AND DUP2 MSTORE PUSH1 0x20 ADD SWAP1 DUP2 MSTORE PUSH1 0x20 ADD PUSH1 0x0 KECCAK256 SLOAD PUSH2 0x1A43 SWAP1 SWAP2 SWAP1 PUSH4 0xFFFFFFFF AND JUMP JUMPDEST PUSH2 0x13A7 JUMP JUMPDEST PUSH1 0x1 SWAP1 POP SWAP3 SWAP2 POP POP JUMP JUMPDEST PUSH2 0xD7E PUSH1 0x40 MLOAD DUP1 DUP1 PUSH32 0x5041555345525F524F4C45000000000000000000000000000000000000000000 DUP2 MSTORE POP PUSH1 0xB ADD SWAP1 POP PUSH1 0x40 MLOAD DUP1 SWAP2 SUB SWAP1 KECCAK256 PUSH2 0xD79 PUSH2 0x139F JUMP JUMPDEST PUSH2 0x1032 JUMP JUMPDEST PUSH2 0xDD3 JUMPI PUSH1 0x40 MLOAD PUSH32 0x8C379A000000000000000000000000000000000000000000000000000000000 DUP2 MSTORE PUSH1 0x4 ADD DUP1 DUP1 PUSH1 0x20 ADD DUP3 DUP2 SUB DUP3 MSTORE PUSH1 0x39 DUP2 MSTORE PUSH1 0x20 ADD DUP1 PUSH2 0x24DE PUSH1 0x39 SWAP2 CODECOPY PUSH1 0x40 ADD SWAP2 POP POP PUSH1 0x40 MLOAD DUP1 SWAP2 SUB SWAP1 REVERT JUMPDEST PUSH2 0xDDB PUSH2 0x1ACB JUMP JUMPDEST JUMP JUMPDEST PUSH2 0xE23 PUSH1 0x40 MLOAD DUP1 DUP1 PUSH32 0x4D494E5445525F524F4C45000000000000000000000000000000000000000000 DUP2 MSTORE POP PUSH1 0xB ADD SWAP1 POP PUSH1 0x40 MLOAD DUP1 SWAP2 SUB SWAP1 KECCAK256 PUSH2 0xE1E PUSH2 0x139F JUMP JUMPDEST PUSH2 0x1032 JUMP JUMPDEST PUSH2 0xE78 JUMPI PUSH1 0x40 MLOAD PUSH32 0x8C379A000000000000000000000000000000000000000000000000000000000 DUP2 MSTORE PUSH1 0x4 ADD DUP1 DUP1 PUSH1 0x20 ADD DUP3 DUP2 SUB DUP3 MSTORE PUSH1 0x36 DUP2 MSTORE PUSH1 0x20 ADD DUP1 PUSH2 0x25B7 PUSH1 0x36 SWAP2 CODECOPY PUSH1 0x40 ADD SWAP2 POP POP PUSH1 0x40 MLOAD DUP1 SWAP2 SUB SWAP1 REVERT JUMPDEST PUSH2 0xE82 DUP3 DUP3 PUSH2 0x1B53 JUMP JUMPDEST POP POP JUMP JUMPDEST PUSH2 0xE97 PUSH2 0xE91 PUSH2 0x139F JUMP JUMPDEST DUP3 PUSH2 0x1D1C JUMP JUMPDEST POP JUMP JUMPDEST PUSH1 0x0 PUSH1 0x6 PUSH1 0x1 SWAP1 SLOAD SWAP1 PUSH2 0x100 EXP SWAP1 DIV PUSH1 0xFF AND SWAP1 POP SWAP1 JUMP JUMPDEST PUSH1 0x0 PUSH1 0x1 PUSH1 0x0 DUP4 PUSH20 0xFFFFFFFFFFFFFFFFFFFFFFFFFFFFFFFFFFFFFFFF AND PUSH20 0xFFFFFFFFFFFFFFFFFFFFFFFFFFFFFFFFFFFFFFFF AND DUP2 MSTORE PUSH1 0x20 ADD SWAP1 DUP2 MSTORE PUSH1 0x20 ADD PUSH1 0x0 KECCAK256 SLOAD SWAP1 POP SWAP2 SWAP1 POP JUMP JUMPDEST PUSH1 0x0 PUSH2 0xF39 DUP3 PUSH1 0x40 MLOAD DUP1 PUSH1 0x60 ADD PUSH1 0x40 MSTORE DUP1 PUSH1 0x24 DUP2 MSTORE PUSH1 0x20 ADD PUSH2 0x25ED PUSH1 0x24 SWAP2 CODECOPY PUSH2 0xF2A DUP7 PUSH2 0xF25 PUSH2 0x139F JUMP JUMPDEST PUSH2 0x12DF JUMP JUMPDEST PUSH2 0x1863 SWAP1 SWAP3 SWAP2 SWAP1 PUSH4 0xFFFFFFFF AND JUMP JUMPDEST SWAP1 POP PUSH2 0xF4D DUP4 PUSH2 0xF47 PUSH2 0x139F JUMP JUMPDEST DUP4 PUSH2 0x13A7 JUMP JUMPDEST PUSH2 0xF57 DUP4 DUP4 PUSH2 0x1D1C JUMP JUMPDEST POP POP POP JUMP JUMPDEST PUSH2 0xFA2 PUSH1 0x40 MLOAD DUP1 DUP1 PUSH32 0x5041555345525F524F4C45000000000000000000000000000000000000000000 DUP2 MSTORE POP PUSH1 0xB ADD SWAP1 POP PUSH1 0x40 MLOAD DUP1 SWAP2 SUB SWAP1 KECCAK256 PUSH2 0xF9D PUSH2 0x139F JUMP JUMPDEST PUSH2 0x1032 JUMP JUMPDEST PUSH2 0xFF7 JUMPI PUSH1 0x40 MLOAD PUSH32 0x8C379A000000000000000000000000000000000000000000000000000000000 DUP2 MSTORE PUSH1 0x4 ADD DUP1 DUP1 PUSH1 0x20 ADD DUP3 DUP2 SUB DUP3 MSTORE PUSH1 0x37 DUP2 MSTORE PUSH1 0x20 ADD DUP1 PUSH2 0x267B PUSH1 0x37 SWAP2 CODECOPY PUSH1 0x40 ADD SWAP2 POP POP PUSH1 0x40 MLOAD DUP1 SWAP2 SUB SWAP1 REVERT JUMPDEST PUSH2 0xFFF PUSH2 0x1EE2 JUMP JUMPDEST JUMP JUMPDEST PUSH1 0x0 PUSH2 0x102A DUP3 PUSH1 0x0 DUP1 DUP7 DUP2 MSTORE PUSH1 0x20 ADD SWAP1 DUP2 MSTORE PUSH1 0x20 ADD PUSH1 0x0 KECCAK256 PUSH1 0x0 ADD PUSH2 0x1F6A SWAP1 SWAP2 SWAP1 PUSH4 0xFFFFFFFF AND JUMP JUMPDEST SWAP1 POP SWAP3 SWAP2 POP POP JUMP JUMPDEST PUSH1 0x0 PUSH2 0x105B DUP3 PUSH1 0x0 DUP1 DUP7 DUP2 MSTORE PUSH1 0x20 ADD SWAP1 DUP2 MSTORE PUSH1 0x20 ADD PUSH1 0x0 KECCAK256 PUSH1 0x0 ADD PUSH2 0x1F84 SWAP1 SWAP2 SWAP1 PUSH4 0xFFFFFFFF AND JUMP JUMPDEST SWAP1 POP SWAP3 SWAP2 POP POP JUMP JUMPDEST PUSH1 0x60 PUSH1 0x5 DUP1 SLOAD PUSH1 0x1 DUP2 PUSH1 0x1 AND ISZERO PUSH2 0x100 MUL SUB AND PUSH1 0x2 SWAP1 DIV DUP1 PUSH1 0x1F ADD PUSH1 0x20 DUP1 SWAP2 DIV MUL PUSH1 0x20 ADD PUSH1 0x40 MLOAD SWAP1 DUP2 ADD PUSH1 0x40 MSTORE DUP1 SWAP3 SWAP2 SWAP1 DUP2 DUP2 MSTORE PUSH1 0x20 ADD DUP3 DUP1 SLOAD PUSH1 0x1 DUP2 PUSH1 0x1 AND ISZERO PUSH2 0x100 MUL SUB AND PUSH1 0x2 SWAP1 DIV DUP1 ISZERO PUSH2 0x10FB JUMPI DUP1 PUSH1 0x1F LT PUSH2 0x10D0 JUMPI PUSH2 0x100 DUP1 DUP4 SLOAD DIV MUL DUP4 MSTORE SWAP2 PUSH1 0x20 ADD SWAP2 PUSH2 0x10FB JUMP JUMPDEST DUP3 ADD SWAP2 SWAP1 PUSH1 0x0 MSTORE PUSH1 0x20 PUSH1 0x0 KECCAK256 SWAP1 JUMPDEST DUP2 SLOAD DUP2 MSTORE SWAP1 PUSH1 0x1 ADD SWAP1 PUSH1 0x20 ADD DUP1 DUP4 GT PUSH2 0x10DE JUMPI DUP3 SWAP1 SUB PUSH1 0x1F AND DUP3 ADD SWAP2 JUMPDEST POP POP POP POP POP SWAP1 POP SWAP1 JUMP JUMPDEST PUSH1 0x0 DUP1 SHL DUP2 JUMP JUMPDEST PUSH1 0x0 PUSH2 0x11CF PUSH2 0x1119 PUSH2 0x139F JUMP JUMPDEST DUP5 PUSH2 0x11CA DUP6 PUSH1 0x40 MLOAD DUP1 PUSH1 0x60 ADD PUSH1 0x40 MSTORE DUP1 PUSH1 0x25 DUP2 MSTORE PUSH1 0x20 ADD PUSH2 0x26B2 PUSH1 0x25 SWAP2 CODECOPY PUSH1 0x2 PUSH1 0x0 PUSH2 0x1143 PUSH2 0x139F JUMP JUMPDEST PUSH20 0xFFFFFFFFFFFFFFFFFFFFFFFFFFFFFFFFFFFFFFFF AND PUSH20 0xFFFFFFFFFFFFFFFFFFFFFFFFFFFFFFFFFFFFFFFF AND DUP2 MSTORE PUSH1 0x20 ADD SWAP1 DUP2 MSTORE PUSH1 0x20 ADD PUSH1 0x0 KECCAK256 PUSH1 0x0 DUP11 PUSH20 0xFFFFFFFFFFFFFFFFFFFFFFFFFFFFFFFFFFFFFFFF AND PUSH20 0xFFFFFFFFFFFFFFFFFFFFFFFFFFFFFFFFFFFFFFFF AND DUP2 MSTORE PUSH1 0x20 ADD SWAP1 DUP2 MSTORE PUSH1 0x20 ADD PUSH1 0x0 KECCAK256 SLOAD PUSH2 0x1863 SWAP1 SWAP3 SWAP2 SWAP1 PUSH4 0xFFFFFFFF AND JUMP JUMPDEST PUSH2 0x13A7 JUMP JUMPDEST PUSH1 0x1 SWAP1 POP SWAP3 SWAP2 POP POP JUMP JUMPDEST PUSH1 0x0 PUSH2 0x11ED PUSH2 0x11E6 PUSH2 0x139F JUMP JUMPDEST DUP5 DUP5 PUSH2 0x159E JUMP JUMPDEST PUSH1 0x1 SWAP1 POP SWAP3 SWAP2 POP POP JUMP JUMPDEST PUSH1 0x0 PUSH2 0x1216 PUSH1 0x0 DUP1 DUP5 DUP2 MSTORE PUSH1 0x20 ADD SWAP1 DUP2 MSTORE PUSH1 0x20 ADD PUSH1 0x0 KECCAK256 PUSH1 0x0 ADD PUSH2 0x1FB4 JUMP JUMPDEST SWAP1 POP SWAP2 SWAP1 POP JUMP JUMPDEST PUSH1 0x40 MLOAD DUP1 DUP1 PUSH32 0x4D494E5445525F524F4C45000000000000000000000000000000000000000000 DUP2 MSTORE POP PUSH1 0xB ADD SWAP1 POP PUSH1 0x40 MLOAD DUP1 SWAP2 SUB SWAP1 KECCAK256 DUP2 JUMP JUMPDEST PUSH2 0x127C PUSH1 0x0 DUP1 DUP5 DUP2 MSTORE PUSH1 0x20 ADD SWAP1 DUP2 MSTORE PUSH1 0x20 ADD PUSH1 0x0 KECCAK256 PUSH1 0x2 ADD SLOAD PUSH2 0x1277 PUSH2 0x139F JUMP JUMPDEST PUSH2 0x1032 JUMP JUMPDEST PUSH2 0x12D1 JUMPI PUSH1 0x40 MLOAD PUSH32 0x8C379A000000000000000000000000000000000000000000000000000000000 DUP2 MSTORE PUSH1 0x4 ADD DUP1 DUP1 PUSH1 0x20 ADD DUP3 DUP2 SUB DUP3 MSTORE PUSH1 0x30 DUP2 MSTORE PUSH1 0x20 ADD DUP1 PUSH2 0x255F PUSH1 0x30 SWAP2 CODECOPY PUSH1 0x40 ADD SWAP2 POP POP PUSH1 0x40 MLOAD DUP1 SWAP2 SUB SWAP1 REVERT JUMPDEST PUSH2 0x12DB DUP3 DUP3 PUSH2 0x19B0 JUMP JUMPDEST POP POP JUMP JUMPDEST PUSH1 0x0 PUSH1 0x2 PUSH1 0x0 DUP5 PUSH20 0xFFFFFFFFFFFFFFFFFFFFFFFFFFFFFFFFFFFFFFFF AND PUSH20 0xFFFFFFFFFFFFFFFFFFFFFFFFFFFFFFFFFFFFFFFF AND DUP2 MSTORE PUSH1 0x20 ADD SWAP1 DUP2 MSTORE PUSH1 0x20 ADD PUSH1 0x0 KECCAK256 PUSH1 0x0 DUP4 PUSH20 0xFFFFFFFFFFFFFFFFFFFFFFFFFFFFFFFFFFFFFFFF AND PUSH20 0xFFFFFFFFFFFFFFFFFFFFFFFFFFFFFFFFFFFFFFFF AND DUP2 MSTORE PUSH1 0x20 ADD SWAP1 DUP2 MSTORE PUSH1 0x20 ADD PUSH1 0x0 KECCAK256 SLOAD SWAP1 POP SWAP3 SWAP2 POP POP JUMP JUMPDEST PUSH1 0x40 MLOAD DUP1 DUP1 PUSH32 0x5041555345525F524F4C45000000000000000000000000000000000000000000 DUP2 MSTORE POP PUSH1 0xB ADD SWAP1 POP PUSH1 0x40 MLOAD DUP1 SWAP2 SUB SWAP1 KECCAK256 DUP2 JUMP JUMPDEST PUSH1 0x0 CALLER SWAP1 POP SWAP1 JUMP JUMPDEST PUSH1 0x0 PUSH20 0xFFFFFFFFFFFFFFFFFFFFFFFFFFFFFFFFFFFFFFFF AND DUP4 PUSH20 0xFFFFFFFFFFFFFFFFFFFFFFFFFFFFFFFFFFFFFFFF AND EQ ISZERO PUSH2 0x142D JUMPI PUSH1 0x40 MLOAD PUSH32 0x8C379A000000000000000000000000000000000000000000000000000000000 DUP2 MSTORE PUSH1 0x4 ADD DUP1 DUP1 PUSH1 0x20 ADD DUP3 DUP2 SUB DUP3 MSTORE PUSH1 0x24 DUP2 MSTORE PUSH1 0x20 ADD DUP1 PUSH2 0x2657 PUSH1 0x24 SWAP2 CODECOPY PUSH1 0x40 ADD SWAP2 POP POP PUSH1 0x40 MLOAD DUP1 SWAP2 SUB SWAP1 REVERT JUMPDEST PUSH1 0x0 PUSH20 0xFFFFFFFFFFFFFFFFFFFFFFFFFFFFFFFFFFFFFFFF AND DUP3 PUSH20 0xFFFFFFFFFFFFFFFFFFFFFFFFFFFFFFFFFFFFFFFF AND EQ ISZERO PUSH2 0x14B3 JUMPI PUSH1 0x40 MLOAD PUSH32 0x8C379A000000000000000000000000000000000000000000000000000000000 DUP2 MSTORE PUSH1 0x4 ADD DUP1 DUP1 PUSH1 0x20 ADD DUP3 DUP2 SUB DUP3 MSTORE PUSH1 0x22 DUP2 MSTORE PUSH1 0x20 ADD DUP1 PUSH2 0x2517 PUSH1 0x22 SWAP2 CODECOPY PUSH1 0x40 ADD SWAP2 POP POP PUSH1 0x40 MLOAD DUP1 SWAP2 SUB SWAP1 REVERT JUMPDEST DUP1 PUSH1 0x2 PUSH1 0x0 DUP6 PUSH20 0xFFFFFFFFFFFFFFFFFFFFFFFFFFFFFFFFFFFFFFFF AND PUSH20 0xFFFFFFFFFFFFFFFFFFFFFFFFFFFFFFFFFFFFFFFF AND DUP2 MSTORE PUSH1 0x20 ADD SWAP1 DUP2 MSTORE PUSH1 0x20 ADD PUSH1 0x0 KECCAK256 PUSH1 0x0 DUP5 PUSH20 0xFFFFFFFFFFFFFFFFFFFFFFFFFFFFFFFFFFFFFFFF AND PUSH20 0xFFFFFFFFFFFFFFFFFFFFFFFFFFFFFFFFFFFFFFFF AND DUP2 MSTORE PUSH1 0x20 ADD SWAP1 DUP2 MSTORE PUSH1 0x20 ADD PUSH1 0x0 KECCAK256 DUP2 SWAP1 SSTORE POP DUP2 PUSH20 0xFFFFFFFFFFFFFFFFFFFFFFFFFFFFFFFFFFFFFFFF AND DUP4 PUSH20 0xFFFFFFFFFFFFFFFFFFFFFFFFFFFFFFFFFFFFFFFF AND PUSH32 0x8C5BE1E5EBEC7D5BD14F71427D1E84F3DD0314C0F7B2291E5B200AC8C7C3B925 DUP4 PUSH1 0x40 MLOAD DUP1 DUP3 DUP2 MSTORE PUSH1 0x20 ADD SWAP2 POP POP PUSH1 0x40 MLOAD DUP1 SWAP2 SUB SWAP1 LOG3 POP POP POP JUMP JUMPDEST PUSH1 0x0 PUSH20 0xFFFFFFFFFFFFFFFFFFFFFFFFFFFFFFFFFFFFFFFF AND DUP4 PUSH20 0xFFFFFFFFFFFFFFFFFFFFFFFFFFFFFFFFFFFFFFFF AND EQ ISZERO PUSH2 0x1624 JUMPI PUSH1 0x40 MLOAD PUSH32 0x8C379A000000000000000000000000000000000000000000000000000000000 DUP2 MSTORE PUSH1 0x4 ADD DUP1 DUP1 PUSH1 0x20 ADD DUP3 DUP2 SUB DUP3 MSTORE PUSH1 0x25 DUP2 MSTORE PUSH1 0x20 ADD DUP1 PUSH2 0x2632 PUSH1 0x25 SWAP2 CODECOPY PUSH1 0x40 ADD SWAP2 POP POP PUSH1 0x40 MLOAD DUP1 SWAP2 SUB SWAP1 REVERT JUMPDEST PUSH1 0x0 PUSH20 0xFFFFFFFFFFFFFFFFFFFFFFFFFFFFFFFFFFFFFFFF AND DUP3 PUSH20 0xFFFFFFFFFFFFFFFFFFFFFFFFFFFFFFFFFFFFFFFF AND EQ ISZERO PUSH2 0x16AA JUMPI PUSH1 0x40 MLOAD PUSH32 0x8C379A000000000000000000000000000000000000000000000000000000000 DUP2 MSTORE PUSH1 0x4 ADD DUP1 DUP1 PUSH1 0x20 ADD DUP3 DUP2 SUB DUP3 MSTORE PUSH1 0x23 DUP2 MSTORE PUSH1 0x20 ADD DUP1 PUSH2 0x246A PUSH1 0x23 SWAP2 CODECOPY PUSH1 0x40 ADD SWAP2 POP POP PUSH1 0x40 MLOAD DUP1 SWAP2 SUB SWAP1 REVERT JUMPDEST PUSH2 0x16B5 DUP4 DUP4 DUP4 PUSH2 0x1FC9 JUMP JUMPDEST PUSH2 0x1721 DUP2 PUSH1 0x40 MLOAD DUP1 PUSH1 0x60 ADD PUSH1 0x40 MSTORE DUP1 PUSH1 0x26 DUP2 MSTORE PUSH1 0x20 ADD PUSH2 0x2539 PUSH1 0x26 SWAP2 CODECOPY PUSH1 0x1 PUSH1 0x0 DUP8 PUSH20 0xFFFFFFFFFFFFFFFFFFFFFFFFFFFFFFFFFFFFFFFF AND PUSH20 0xFFFFFFFFFFFFFFFFFFFFFFFFFFFFFFFFFFFFFFFF AND DUP2 MSTORE PUSH1 0x20 ADD SWAP1 DUP2 MSTORE PUSH1 0x20 ADD PUSH1 0x0 KECCAK256 SLOAD PUSH2 0x1863 SWAP1 SWAP3 SWAP2 SWAP1 PUSH4 0xFFFFFFFF AND JUMP JUMPDEST PUSH1 0x1 PUSH1 0x0 DUP6 PUSH20 0xFFFFFFFFFFFFFFFFFFFFFFFFFFFFFFFFFFFFFFFF AND PUSH20 0xFFFFFFFFFFFFFFFFFFFFFFFFFFFFFFFFFFFFFFFF AND DUP2 MSTORE PUSH1 0x20 ADD SWAP1 DUP2 MSTORE PUSH1 0x20 ADD PUSH1 0x0 KECCAK256 DUP2 SWAP1 SSTORE POP PUSH2 0x17B6 DUP2 PUSH1 0x1 PUSH1 0x0 DUP6 PUSH20 0xFFFFFFFFFFFFFFFFFFFFFFFFFFFFFFFFFFFFFFFF AND PUSH20 0xFFFFFFFFFFFFFFFFFFFFFFFFFFFFFFFFFFFFFFFF AND DUP2 MSTORE PUSH1 0x20 ADD SWAP1 DUP2 MSTORE PUSH1 0x20 ADD PUSH1 0x0 KECCAK256 SLOAD PUSH2 0x1A43 SWAP1 SWAP2 SWAP1 PUSH4 0xFFFFFFFF AND JUMP JUMPDEST PUSH1 0x1 PUSH1 0x0 DUP5 PUSH20 0xFFFFFFFFFFFFFFFFFFFFFFFFFFFFFFFFFFFFFFFF AND PUSH20 0xFFFFFFFFFFFFFFFFFFFFFFFFFFFFFFFFFFFFFFFF AND DUP2 MSTORE PUSH1 0x20 ADD SWAP1 DUP2 MSTORE PUSH1 0x20 ADD PUSH1 0x0 KECCAK256 DUP2 SWAP1 SSTORE POP DUP2 PUSH20 0xFFFFFFFFFFFFFFFFFFFFFFFFFFFFFFFFFFFFFFFF AND DUP4 PUSH20 0xFFFFFFFFFFFFFFFFFFFFFFFFFFFFFFFFFFFFFFFF AND PUSH32 0xDDF252AD1BE2C89B69C2B068FC378DAA952BA7F163C4A11628F55A4DF523B3EF DUP4 PUSH1 0x40 MLOAD DUP1 DUP3 DUP2 MSTORE PUSH1 0x20 ADD SWAP2 POP POP PUSH1 0x40 MLOAD DUP1 SWAP2 SUB SWAP1 LOG3 POP POP POP JUMP JUMPDEST PUSH1 0x0 DUP4 DUP4 GT ISZERO DUP3 SWAP1 PUSH2 0x1910 JUMPI PUSH1 0x40 MLOAD PUSH32 0x8C379A000000000000000000000000000000000000000000000000000000000 DUP2 MSTORE PUSH1 0x4 ADD DUP1 DUP1 PUSH1 0x20 ADD DUP3 DUP2 SUB DUP3 MSTORE DUP4 DUP2 DUP2 MLOAD DUP2 MSTORE PUSH1 0x20 ADD SWAP2 POP DUP1 MLOAD SWAP1 PUSH1 0x20 ADD SWAP1 DUP1 DUP4 DUP4 PUSH1 0x0 JUMPDEST DUP4 DUP2 LT ISZERO PUSH2 0x18D5 JUMPI DUP1 DUP3 ADD MLOAD DUP2 DUP5 ADD MSTORE PUSH1 0x20 DUP2 ADD SWAP1 POP PUSH2 0x18BA JUMP JUMPDEST POP POP POP POP SWAP1 POP SWAP1 DUP2 ADD SWAP1 PUSH1 0x1F AND DUP1 ISZERO PUSH2 0x1902 JUMPI DUP1 DUP3 SUB DUP1 MLOAD PUSH1 0x1 DUP4 PUSH1 0x20 SUB PUSH2 0x100 EXP SUB NOT AND DUP2 MSTORE PUSH1 0x20 ADD SWAP2 POP JUMPDEST POP SWAP3 POP POP POP PUSH1 0x40 MLOAD DUP1 SWAP2 SUB SWAP1 REVERT JUMPDEST POP DUP3 DUP5 SUB SWAP1 POP SWAP4 SWAP3 POP POP POP JUMP JUMPDEST PUSH2 0x1944 DUP2 PUSH1 0x0 DUP1 DUP6 DUP2 MSTORE PUSH1 0x20 ADD SWAP1 DUP2 MSTORE PUSH1 0x20 ADD PUSH1 0x0 KECCAK256 PUSH1 0x0 ADD PUSH2 0x1FD9 SWAP1 SWAP2 SWAP1 PUSH4 0xFFFFFFFF AND JUMP JUMPDEST ISZERO PUSH2 0x19AC JUMPI PUSH2 0x1951 PUSH2 0x139F JUMP JUMPDEST PUSH20 0xFFFFFFFFFFFFFFFFFFFFFFFFFFFFFFFFFFFFFFFF AND DUP2 PUSH20 0xFFFFFFFFFFFFFFFFFFFFFFFFFFFFFFFFFFFFFFFF AND DUP4 PUSH32 0x2F8788117E7EFF1D82E926EC794901D17C78024A50270940304540A733656F0D PUSH1 0x40 MLOAD PUSH1 0x40 MLOAD DUP1 SWAP2 SUB SWAP1 LOG4 JUMPDEST POP POP JUMP JUMPDEST PUSH2 0x19D7 DUP2 PUSH1 0x0 DUP1 DUP6 DUP2 MSTORE PUSH1 0x20 ADD SWAP1 DUP2 MSTORE PUSH1 0x20 ADD PUSH1 0x0 KECCAK256 PUSH1 0x0 ADD PUSH2 0x2009 SWAP1 SWAP2 SWAP1 PUSH4 0xFFFFFFFF AND JUMP JUMPDEST ISZERO PUSH2 0x1A3F JUMPI PUSH2 0x19E4 PUSH2 0x139F JUMP JUMPDEST PUSH20 0xFFFFFFFFFFFFFFFFFFFFFFFFFFFFFFFFFFFFFFFF AND DUP2 PUSH20 0xFFFFFFFFFFFFFFFFFFFFFFFFFFFFFFFFFFFFFFFF AND DUP4 PUSH32 0xF6391F5C32D9C69D2A47EA670B442974B53935D1EDC7FD64EB21E047A839171B PUSH1 0x40 MLOAD PUSH1 0x40 MLOAD DUP1 SWAP2 SUB SWAP1 LOG4 JUMPDEST POP POP JUMP JUMPDEST PUSH1 0x0 DUP1 DUP3 DUP5 ADD SWAP1 POP DUP4 DUP2 LT ISZERO PUSH2 0x1AC1 JUMPI PUSH1 0x40 MLOAD PUSH32 0x8C379A000000000000000000000000000000000000000000000000000000000 DUP2 MSTORE PUSH1 0x4 ADD DUP1 DUP1 PUSH1 0x20 ADD DUP3 DUP2 SUB DUP3 MSTORE PUSH1 0x1B DUP2 MSTORE PUSH1 0x20 ADD DUP1 PUSH32 0x536166654D6174683A206164646974696F6E206F766572666C6F770000000000 DUP2 MSTORE POP PUSH1 0x20 ADD SWAP2 POP POP PUSH1 0x40 MLOAD DUP1 SWAP2 SUB SWAP1 REVERT JUMPDEST DUP1 SWAP2 POP POP SWAP3 SWAP2 POP POP JUMP JUMPDEST PUSH2 0x1AD3 PUSH2 0x2039 JUMP JUMPDEST PUSH1 0x0 PUSH1 0x6 PUSH1 0x1 PUSH2 0x100 EXP DUP2 SLOAD DUP2 PUSH1 0xFF MUL NOT AND SWAP1 DUP4 ISZERO ISZERO MUL OR SWAP1 SSTORE POP PUSH32 0x5DB9EE0A495BF2E6FF9C91A7834C1BA4FDD244A5E8AA4E537BD38AEAE4B073AA CALLER PUSH1 0x40 MLOAD DUP1 DUP3 PUSH20 0xFFFFFFFFFFFFFFFFFFFFFFFFFFFFFFFFFFFFFFFF AND PUSH20 0xFFFFFFFFFFFFFFFFFFFFFFFFFFFFFFFFFFFFFFFF AND DUP2 MSTORE PUSH1 0x20 ADD SWAP2 POP POP PUSH1 0x40 MLOAD DUP1 SWAP2 SUB SWAP1 LOG1 JUMP JUMPDEST PUSH1 0x0 PUSH20 0xFFFFFFFFFFFFFFFFFFFFFFFFFFFFFFFFFFFFFFFF AND DUP3 PUSH20 0xFFFFFFFFFFFFFFFFFFFFFFFFFFFFFFFFFFFFFFFF AND EQ ISZERO PUSH2 0x1BF6 JUMPI PUSH1 0x40 MLOAD PUSH32 0x8C379A000000000000000000000000000000000000000000000000000000000 DUP2 MSTORE PUSH1 0x4 ADD DUP1 DUP1 PUSH1 0x20 ADD DUP3 DUP2 SUB DUP3 MSTORE PUSH1 0x1F DUP2 MSTORE PUSH1 0x20 ADD DUP1 PUSH32 0x45524332303A206D696E7420746F20746865207A65726F206164647265737300 DUP2 MSTORE POP PUSH1 0x20 ADD SWAP2 POP POP PUSH1 0x40 MLOAD DUP1 SWAP2 SUB SWAP1 REVERT JUMPDEST PUSH2 0x1C02 PUSH1 0x0 DUP4 DUP4 PUSH2 0x1FC9 JUMP JUMPDEST PUSH2 0x1C17 DUP2 PUSH1 0x3 SLOAD PUSH2 0x1A43 SWAP1 SWAP2 SWAP1 PUSH4 0xFFFFFFFF AND JUMP JUMPDEST PUSH1 0x3 DUP2 SWAP1 SSTORE POP PUSH2 0x1C6F DUP2 PUSH1 0x1 PUSH1 0x0 DUP6 PUSH20 0xFFFFFFFFFFFFFFFFFFFFFFFFFFFFFFFFFFFFFFFF AND PUSH20 0xFFFFFFFFFFFFFFFFFFFFFFFFFFFFFFFFFFFFFFFF AND DUP2 MSTORE PUSH1 0x20 ADD SWAP1 DUP2 MSTORE PUSH1 0x20 ADD PUSH1 0x0 KECCAK256 SLOAD PUSH2 0x1A43 SWAP1 SWAP2 SWAP1 PUSH4 0xFFFFFFFF AND JUMP JUMPDEST PUSH1 0x1 PUSH1 0x0 DUP5 PUSH20 0xFFFFFFFFFFFFFFFFFFFFFFFFFFFFFFFFFFFFFFFF AND PUSH20 0xFFFFFFFFFFFFFFFFFFFFFFFFFFFFFFFFFFFFFFFF AND DUP2 MSTORE PUSH1 0x20 ADD SWAP1 DUP2 MSTORE PUSH1 0x20 ADD PUSH1 0x0 KECCAK256 DUP2 SWAP1 SSTORE POP DUP2 PUSH20 0xFFFFFFFFFFFFFFFFFFFFFFFFFFFFFFFFFFFFFFFF AND PUSH1 0x0 PUSH20 0xFFFFFFFFFFFFFFFFFFFFFFFFFFFFFFFFFFFFFFFF AND PUSH32 0xDDF252AD1BE2C89B69C2B068FC378DAA952BA7F163C4A11628F55A4DF523B3EF DUP4 PUSH1 0x40 MLOAD DUP1 DUP3 DUP2 MSTORE PUSH1 0x20 ADD SWAP2 POP POP PUSH1 0x40 MLOAD DUP1 SWAP2 SUB SWAP1 LOG3 POP POP JUMP JUMPDEST PUSH1 0x0 PUSH20 0xFFFFFFFFFFFFFFFFFFFFFFFFFFFFFFFFFFFFFFFF AND DUP3 PUSH20 0xFFFFFFFFFFFFFFFFFFFFFFFFFFFFFFFFFFFFFFFF AND EQ ISZERO PUSH2 0x1DA2 JUMPI PUSH1 0x40 MLOAD PUSH32 0x8C379A000000000000000000000000000000000000000000000000000000000 DUP2 MSTORE PUSH1 0x4 ADD DUP1 DUP1 PUSH1 0x20 ADD DUP3 DUP2 SUB DUP3 MSTORE PUSH1 0x21 DUP2 MSTORE PUSH1 0x20 ADD DUP1 PUSH2 0x2611 PUSH1 0x21 SWAP2 CODECOPY PUSH1 0x40 ADD SWAP2 POP POP PUSH1 0x40 MLOAD DUP1 SWAP2 SUB SWAP1 REVERT JUMPDEST PUSH2 0x1DAE DUP3 PUSH1 0x0 DUP4 PUSH2 0x1FC9 JUMP JUMPDEST PUSH2 0x1E1A DUP2 PUSH1 0x40 MLOAD DUP1 PUSH1 0x60 ADD PUSH1 0x40 MSTORE DUP1 PUSH1 0x22 DUP2 MSTORE PUSH1 0x20 ADD PUSH2 0x24BC PUSH1 0x22 SWAP2 CODECOPY PUSH1 0x1 PUSH1 0x0 DUP7 PUSH20 0xFFFFFFFFFFFFFFFFFFFFFFFFFFFFFFFFFFFFFFFF AND PUSH20 0xFFFFFFFFFFFFFFFFFFFFFFFFFFFFFFFFFFFFFFFF AND DUP2 MSTORE PUSH1 0x20 ADD SWAP1 DUP2 MSTORE PUSH1 0x20 ADD PUSH1 0x0 KECCAK256 SLOAD PUSH2 0x1863 SWAP1 SWAP3 SWAP2 SWAP1 PUSH4 0xFFFFFFFF AND JUMP JUMPDEST PUSH1 0x1 PUSH1 0x0 DUP5 PUSH20 0xFFFFFFFFFFFFFFFFFFFFFFFFFFFFFFFFFFFFFFFF AND PUSH20 0xFFFFFFFFFFFFFFFFFFFFFFFFFFFFFFFFFFFFFFFF AND DUP2 MSTORE PUSH1 0x20 ADD SWAP1 DUP2 MSTORE PUSH1 0x20 ADD PUSH1 0x0 KECCAK256 DUP2 SWAP1 SSTORE POP PUSH2 0x1E72 DUP2 PUSH1 0x3 SLOAD PUSH2 0x20BD SWAP1 SWAP2 SWAP1 PUSH4 0xFFFFFFFF AND JUMP JUMPDEST PUSH1 0x3 DUP2 SWAP1 SSTORE POP PUSH1 0x0 PUSH20 0xFFFFFFFFFFFFFFFFFFFFFFFFFFFFFFFFFFFFFFFF AND DUP3 PUSH20 0xFFFFFFFFFFFFFFFFFFFFFFFFFFFFFFFFFFFFFFFF AND PUSH32 0xDDF252AD1BE2C89B69C2B068FC378DAA952BA7F163C4A11628F55A4DF523B3EF DUP4 PUSH1 0x40 MLOAD DUP1 DUP3 DUP2 MSTORE PUSH1 0x20 ADD SWAP2 POP POP PUSH1 0x40 MLOAD DUP1 SWAP2 SUB SWAP1 LOG3 POP POP JUMP JUMPDEST PUSH2 0x1EEA PUSH2 0x2140 JUMP JUMPDEST PUSH1 0x1 PUSH1 0x6 PUSH1 0x1 PUSH2 0x100 EXP DUP2 SLOAD DUP2 PUSH1 0xFF MUL NOT AND SWAP1 DUP4 ISZERO ISZERO MUL OR SWAP1 SSTORE POP PUSH32 0x62E78CEA01BEE320CD4E420270B5EA74000D11B0C9F74754EBDBFC544B05A258 CALLER PUSH1 0x40 MLOAD DUP1 DUP3 PUSH20 0xFFFFFFFFFFFFFFFFFFFFFFFFFFFFFFFFFFFFFFFF AND PUSH20 0xFFFFFFFFFFFFFFFFFFFFFFFFFFFFFFFFFFFFFFFF AND DUP2 MSTORE PUSH1 0x20 ADD SWAP2 POP POP PUSH1 0x40 MLOAD DUP1 SWAP2 SUB SWAP1 LOG1 JUMP JUMPDEST PUSH1 0x0 PUSH2 0x1F79 DUP4 PUSH1 0x0 ADD DUP4 PUSH2 0x21C5 JUMP JUMPDEST PUSH1 0x0 SHR SWAP1 POP SWAP3 SWAP2 POP POP JUMP JUMPDEST PUSH1 0x0 PUSH2 0x1FAC DUP4 PUSH1 0x0 ADD DUP4 PUSH20 0xFFFFFFFFFFFFFFFFFFFFFFFFFFFFFFFFFFFFFFFF AND PUSH1 0x0 SHL PUSH2 0x2248 JUMP JUMPDEST SWAP1 POP SWAP3 SWAP2 POP POP JUMP JUMPDEST PUSH1 0x0 PUSH2 0x1FC2 DUP3 PUSH1 0x0 ADD PUSH2 0x226B JUMP JUMPDEST SWAP1 POP SWAP2 SWAP1 POP JUMP JUMPDEST PUSH2 0x1FD4 DUP4 DUP4 DUP4 PUSH2 0x227C JUMP JUMPDEST POP POP POP JUMP JUMPDEST PUSH1 0x0 PUSH2 0x2001 DUP4 PUSH1 0x0 ADD DUP4 PUSH20 0xFFFFFFFFFFFFFFFFFFFFFFFFFFFFFFFFFFFFFFFF AND PUSH1 0x0 SHL PUSH2 0x22EA JUMP JUMPDEST SWAP1 POP SWAP3 SWAP2 POP POP JUMP JUMPDEST PUSH1 0x0 PUSH2 0x2031 DUP4 PUSH1 0x0 ADD DUP4 PUSH20 0xFFFFFFFFFFFFFFFFFFFFFFFFFFFFFFFFFFFFFFFF AND PUSH1 0x0 SHL PUSH2 0x235A JUMP JUMPDEST SWAP1 POP SWAP3 SWAP2 POP POP JUMP JUMPDEST PUSH1 0x6 PUSH1 0x1 SWAP1 SLOAD SWAP1 PUSH2 0x100 EXP SWAP1 DIV PUSH1 0xFF AND PUSH2 0x20BB JUMPI PUSH1 0x40 MLOAD PUSH32 0x8C379A000000000000000000000000000000000000000000000000000000000 DUP2 MSTORE PUSH1 0x4 ADD DUP1 DUP1 PUSH1 0x20 ADD DUP3 DUP2 SUB DUP3 MSTORE PUSH1 0x14 DUP2 MSTORE PUSH1 0x20 ADD DUP1 PUSH32 0x5061757361626C653A206E6F7420706175736564000000000000000000000000 DUP2 MSTORE POP PUSH1 0x20 ADD SWAP2 POP POP PUSH1 0x40 MLOAD DUP1 SWAP2 SUB SWAP1 REVERT JUMPDEST JUMP JUMPDEST PUSH1 0x0 DUP3 DUP3 GT ISZERO PUSH2 0x2135 JUMPI PUSH1 0x40 MLOAD PUSH32 0x8C379A000000000000000000000000000000000000000000000000000000000 DUP2 MSTORE PUSH1 0x4 ADD DUP1 DUP1 PUSH1 0x20 ADD DUP3 DUP2 SUB DUP3 MSTORE PUSH1 0x1E DUP2 MSTORE PUSH1 0x20 ADD DUP1 PUSH32 0x536166654D6174683A207375627472616374696F6E206F766572666C6F770000 DUP2 MSTORE POP PUSH1 0x20 ADD SWAP2 POP POP PUSH1 0x40 MLOAD DUP1 SWAP2 SUB SWAP1 REVERT JUMPDEST DUP2 DUP4 SUB SWAP1 POP SWAP3 SWAP2 POP POP JUMP JUMPDEST PUSH1 0x6 PUSH1 0x1 SWAP1 SLOAD SWAP1 PUSH2 0x100 EXP SWAP1 DIV PUSH1 0xFF AND ISZERO PUSH2 0x21C3 JUMPI PUSH1 0x40 MLOAD PUSH32 0x8C379A000000000000000000000000000000000000000000000000000000000 DUP2 MSTORE PUSH1 0x4 ADD DUP1 DUP1 PUSH1 0x20 ADD DUP3 DUP2 SUB DUP3 MSTORE PUSH1 0x10 DUP2 MSTORE PUSH1 0x20 ADD DUP1 PUSH32 0x5061757361626C653A2070617573656400000000000000000000000000000000 DUP2 MSTORE POP PUSH1 0x20 ADD SWAP2 POP POP PUSH1 0x40 MLOAD DUP1 SWAP2 SUB SWAP1 REVERT JUMPDEST JUMP JUMPDEST PUSH1 0x0 DUP2 DUP4 PUSH1 0x0 ADD DUP1 SLOAD SWAP1 POP GT PUSH2 0x2226 JUMPI PUSH1 0x40 MLOAD PUSH32 0x8C379A000000000000000000000000000000000000000000000000000000000 DUP2 MSTORE PUSH1 0x4 ADD DUP1 DUP1 PUSH1 0x20 ADD DUP3 DUP2 SUB DUP3 MSTORE PUSH1 0x22 DUP2 MSTORE PUSH1 0x20 ADD DUP1 PUSH2 0x2448 PUSH1 0x22 SWAP2 CODECOPY PUSH1 0x40 ADD SWAP2 POP POP PUSH1 0x40 MLOAD DUP1 SWAP2 SUB SWAP1 REVERT JUMPDEST DUP3 PUSH1 0x0 ADD DUP3 DUP2 SLOAD DUP2 LT PUSH2 0x2235 JUMPI INVALID JUMPDEST SWAP1 PUSH1 0x0 MSTORE PUSH1 0x20 PUSH1 0x0 KECCAK256 ADD SLOAD SWAP1 POP SWAP3 SWAP2 POP POP JUMP JUMPDEST PUSH1 0x0 DUP1 DUP4 PUSH1 0x1 ADD PUSH1 0x0 DUP5 DUP2 MSTORE PUSH1 0x20 ADD SWAP1 DUP2 MSTORE PUSH1 0x20 ADD PUSH1 0x0 KECCAK256 SLOAD EQ ISZERO SWAP1 POP SWAP3 SWAP2 POP POP JUMP JUMPDEST PUSH1 0x0 DUP2 PUSH1 0x0 ADD DUP1 SLOAD SWAP1 POP SWAP1 POP SWAP2 SWAP1 POP JUMP JUMPDEST PUSH2 0x2287 DUP4 DUP4 DUP4 PUSH2 0x2442 JUMP JUMPDEST PUSH2 0x228F PUSH2 0xE9A JUMP JUMPDEST ISZERO PUSH2 0x22E5 JUMPI PUSH1 0x40 MLOAD PUSH32 0x8C379A000000000000000000000000000000000000000000000000000000000 DUP2 MSTORE PUSH1 0x4 ADD DUP1 DUP1 PUSH1 0x20 ADD DUP3 DUP2 SUB DUP3 MSTORE PUSH1 0x2A DUP2 MSTORE PUSH1 0x20 ADD DUP1 PUSH2 0x2706 PUSH1 0x2A SWAP2 CODECOPY PUSH1 0x40 ADD SWAP2 POP POP PUSH1 0x40 MLOAD DUP1 SWAP2 SUB SWAP1 REVERT JUMPDEST POP POP POP JUMP JUMPDEST PUSH1 0x0 PUSH2 0x22F6 DUP4 DUP4 PUSH2 0x2248 JUMP JUMPDEST PUSH2 0x234F JUMPI DUP3 PUSH1 0x0 ADD DUP3 SWAP1 DUP1 PUSH1 0x1 DUP2 SLOAD ADD DUP1 DUP3 SSTORE DUP1 SWAP2 POP POP PUSH1 0x1 SWAP1 SUB SWAP1 PUSH1 0x0 MSTORE PUSH1 0x20 PUSH1 0x0 KECCAK256 ADD PUSH1 0x0 SWAP1 SWAP2 SWAP1 SWAP2 SWAP1 SWAP2 POP SSTORE DUP3 PUSH1 0x0 ADD DUP1 SLOAD SWAP1 POP DUP4 PUSH1 0x1 ADD PUSH1 0x0 DUP5 DUP2 MSTORE PUSH1 0x20 ADD SWAP1 DUP2 MSTORE PUSH1 0x20 ADD PUSH1 0x0 KECCAK256 DUP2 SWAP1 SSTORE POP PUSH1 0x1 SWAP1 POP PUSH2 0x2354 JUMP JUMPDEST PUSH1 0x0 SWAP1 POP JUMPDEST SWAP3 SWAP2 POP POP JUMP JUMPDEST PUSH1 0x0 DUP1 DUP4 PUSH1 0x1 ADD PUSH1 0x0 DUP5 DUP2 MSTORE PUSH1 0x20 ADD SWAP1 DUP2 MSTORE PUSH1 0x20 ADD PUSH1 0x0 KECCAK256 SLOAD SWAP1 POP PUSH1 0x0 DUP2 EQ PUSH2 0x2436 JUMPI PUSH1 0x0 PUSH1 0x1 DUP3 SUB SWAP1 POP PUSH1 0x0 PUSH1 0x1 DUP7 PUSH1 0x0 ADD DUP1 SLOAD SWAP1 POP SUB SWAP1 POP PUSH1 0x0 DUP7 PUSH1 0x0 ADD DUP3 DUP2 SLOAD DUP2 LT PUSH2 0x23A5 JUMPI INVALID JUMPDEST SWAP1 PUSH1 0x0 MSTORE PUSH1 0x20 PUSH1 0x0 KECCAK256 ADD SLOAD SWAP1 POP DUP1 DUP8 PUSH1 0x0 ADD DUP5 DUP2 SLOAD DUP2 LT PUSH2 0x23C2 JUMPI INVALID JUMPDEST SWAP1 PUSH1 0x0 MSTORE PUSH1 0x20 PUSH1 0x0 KECCAK256 ADD DUP2 SWAP1 SSTORE POP PUSH1 0x1 DUP4 ADD DUP8 PUSH1 0x1 ADD PUSH1 0x0 DUP4 DUP2 MSTORE PUSH1 0x20 ADD SWAP1 DUP2 MSTORE PUSH1 0x20 ADD PUSH1 0x0 KECCAK256 DUP2 SWAP1 SSTORE POP DUP7 PUSH1 0x0 ADD DUP1 SLOAD DUP1 PUSH2 0x23FA JUMPI INVALID JUMPDEST PUSH1 0x1 SWAP1 SUB DUP2 DUP2 SWAP1 PUSH1 0x0 MSTORE PUSH1 0x20 PUSH1 0x0 KECCAK256 ADD PUSH1 0x0 SWAP1 SSTORE SWAP1 SSTORE DUP7 PUSH1 0x1 ADD PUSH1 0x0 DUP8 DUP2 MSTORE PUSH1 0x20 ADD SWAP1 DUP2 MSTORE PUSH1 0x20 ADD PUSH1 0x0 KECCAK256 PUSH1 0x0 SWAP1 SSTORE PUSH1 0x1 SWAP5 POP POP POP POP POP PUSH2 0x243C JUMP JUMPDEST PUSH1 0x0 SWAP2 POP POP JUMPDEST SWAP3 SWAP2 POP POP JUMP JUMPDEST POP POP POP JUMP INVALID GASLIMIT PUSH15 0x756D657261626C655365743A20696E PUSH5 0x6578206F75 PUSH21 0x206F6620626F756E647345524332303A207472616E PUSH20 0x66657220746F20746865207A65726F2061646472 PUSH6 0x737341636365 PUSH20 0x73436F6E74726F6C3A2073656E646572206D7573 PUSH21 0x20626520616E2061646D696E20746F206772616E74 GASLIMIT MSTORE NUMBER ORIGIN ADDRESS GASPRICE KECCAK256 PUSH3 0x75726E KECCAK256 PUSH2 0x6D6F PUSH22 0x6E7420657863656564732062616C616E636545524332 ADDRESS POP PUSH19 0x657365744D696E7465725061757365723A206D PUSH22 0x737420686176652070617573657220726F6C6520746F KECCAK256 PUSH22 0x6E706175736545524332303A20617070726F76652074 PUSH16 0x20746865207A65726F20616464726573 PUSH20 0x45524332303A207472616E7366657220616D6F75 PUSH15 0x7420657863656564732062616C616E PUSH4 0x65416363 PUSH6 0x7373436F6E74 PUSH19 0x6F6C3A2073656E646572206D75737420626520 PUSH2 0x6E20 PUSH2 0x646D PUSH10 0x6E20746F207265766F6B PUSH6 0x45524332303A KECCAK256 PUSH21 0x72616E7366657220616D6F756E7420657863656564 PUSH20 0x20616C6C6F77616E636545524332305072657365 PUSH21 0x4D696E7465725061757365723A206D757374206861 PUSH23 0x65206D696E74657220726F6C6520746F206D696E744552 NUMBER ORIGIN ADDRESS GASPRICE KECCAK256 PUSH3 0x75726E KECCAK256 PUSH2 0x6D6F PUSH22 0x6E74206578636565647320616C6C6F77616E63654552 NUMBER ORIGIN ADDRESS GASPRICE KECCAK256 PUSH3 0x75726E KECCAK256 PUSH7 0x726F6D20746865 KECCAK256 PUSH27 0x65726F206164647265737345524332303A207472616E7366657220 PUSH7 0x726F6D20746865 KECCAK256 PUSH27 0x65726F206164647265737345524332303A20617070726F76652066 PUSH19 0x6F6D20746865207A65726F2061646472657373 GASLIMIT MSTORE NUMBER ORIGIN ADDRESS POP PUSH19 0x657365744D696E7465725061757365723A206D PUSH22 0x737420686176652070617573657220726F6C6520746F KECCAK256 PUSH17 0x6175736545524332303A20646563726561 PUSH20 0x656420616C6C6F77616E63652062656C6F77207A PUSH6 0x726F41636365 PUSH20 0x73436F6E74726F6C3A2063616E206F6E6C792072 PUSH6 0x6E6F756E6365 KECCAK256 PUSH19 0x6F6C657320666F722073656C66455243323050 PUSH2 0x7573 PUSH2 0x626C PUSH6 0x3A20746F6B65 PUSH15 0x207472616E73666572207768696C65 KECCAK256 PUSH17 0x6175736564A2646970667358221220061F PUSH20 0x7D9CAA777F106E5EFFBD2048E8F82E5B89EB3501 INVALID GASLIMIT CALL 0xAA 0xE PUSH20 0xD2353C64736F6C63430006040033000000000000 "
				},
				"gasEstimates": {
					"creation": {
						"codeDepositCost": "2017000",
						"executionCost": "infinite",
						"totalCost": "infinite"
					},
					"external": {
						"DEFAULT_ADMIN_ROLE()": "322",
						"MINTER_ROLE()": "334",
						"PAUSER_ROLE()": "400",
						"allowance(address,address)": "1409",
						"approve(address,uint256)": "infinite",
						"balanceOf(address)": "1242",
						"burn(uint256)": "infinite",
						"burnFrom(address,uint256)": "infinite",
						"decimals()": "1107",
						"decreaseAllowance(address,uint256)": "infinite",
						"getRoleAdmin(bytes32)": "1296",
						"getRoleMember(bytes32,uint256)": "infinite",
						"getRoleMemberCount(bytes32)": "1379",
						"grantRole(bytes32,address)": "infinite",
						"hasRole(bytes32,address)": "infinite",
						"increaseAllowance(address,uint256)": "infinite",
						"mint(address,uint256)": "infinite",
						"name()": "infinite",
						"pause()": "infinite",
						"paused()": "1222",
						"renounceRole(bytes32,address)": "infinite",
						"revokeRole(bytes32,address)": "infinite",
						"symbol()": "infinite",
						"totalSupply()": "1081",
						"transfer(address,uint256)": "infinite",
						"transferFrom(address,address,uint256)": "infinite",
						"unpause()": "infinite"
					},
					"internal": {
						"_beforeTokenTransfer(address,address,uint256)": "infinite"
					}
				},
				"methodIdentifiers": {
					"DEFAULT_ADMIN_ROLE()": "a217fddf",
					"MINTER_ROLE()": "d5391393",
					"PAUSER_ROLE()": "e63ab1e9",
					"allowance(address,address)": "dd62ed3e",
					"approve(address,uint256)": "095ea7b3",
					"balanceOf(address)": "70a08231",
					"burn(uint256)": "42966c68",
					"burnFrom(address,uint256)": "79cc6790",
					"decimals()": "313ce567",
					"decreaseAllowance(address,uint256)": "a457c2d7",
					"getRoleAdmin(bytes32)": "248a9ca3",
					"getRoleMember(bytes32,uint256)": "9010d07c",
					"getRoleMemberCount(bytes32)": "ca15c873",
					"grantRole(bytes32,address)": "2f2ff15d",
					"hasRole(bytes32,address)": "91d14854",
					"increaseAllowance(address,uint256)": "39509351",
					"mint(address,uint256)": "40c10f19",
					"name()": "06fdde03",
					"pause()": "8456cb59",
					"paused()": "5c975abb",
					"renounceRole(bytes32,address)": "36568abe",
					"revokeRole(bytes32,address)": "d547741f",
					"symbol()": "95d89b41",
					"totalSupply()": "18160ddd",
					"transfer(address,uint256)": "a9059cbb",
					"transferFrom(address,address,uint256)": "23b872dd",
					"unpause()": "3f4ba83a"
				}
			},
			"storageLayout": {
				"storage": [
					{
						"astId": 1082,
						"contract": "ethereum-crosschain-contract/contracts/ExampleToken.sol:ExampleToken",
						"label": "_roles",
						"offset": 0,
						"slot": "0",
						"type": "t_mapping(t_bytes32,t_struct(RoleData)1078_storage)"
					},
					{
						"astId": 1382,
						"contract": "ethereum-crosschain-contract/contracts/ExampleToken.sol:ExampleToken",
						"label": "_balances",
						"offset": 0,
						"slot": "1",
						"type": "t_mapping(t_address,t_uint256)"
					},
					{
						"astId": 1388,
						"contract": "ethereum-crosschain-contract/contracts/ExampleToken.sol:ExampleToken",
						"label": "_allowances",
						"offset": 0,
						"slot": "2",
						"type": "t_mapping(t_address,t_mapping(t_address,t_uint256))"
					},
					{
						"astId": 1390,
						"contract": "ethereum-crosschain-contract/contracts/ExampleToken.sol:ExampleToken",
						"label": "_totalSupply",
						"offset": 0,
						"slot": "3",
						"type": "t_uint256"
					},
					{
						"astId": 1392,
						"contract": "ethereum-crosschain-contract/contracts/ExampleToken.sol:ExampleToken",
						"label": "_name",
						"offset": 0,
						"slot": "4",
						"type": "t_string_storage"
					},
					{
						"astId": 1394,
						"contract": "ethereum-crosschain-contract/contracts/ExampleToken.sol:ExampleToken",
						"label": "_symbol",
						"offset": 0,
						"slot": "5",
						"type": "t_string_storage"
					},
					{
						"astId": 1396,
						"contract": "ethereum-crosschain-contract/contracts/ExampleToken.sol:ExampleToken",
						"label": "_decimals",
						"offset": 0,
						"slot": "6",
						"type": "t_uint8"
					},
					{
						"astId": 1981,
						"contract": "ethereum-crosschain-contract/contracts/ExampleToken.sol:ExampleToken",
						"label": "_paused",
						"offset": 1,
						"slot": "6",
						"type": "t_bool"
					}
				],
				"types": {
					"t_address": {
						"encoding": "inplace",
						"label": "address",
						"numberOfBytes": "20"
					},
					"t_array(t_bytes32)dyn_storage": {
						"base": "t_bytes32",
						"encoding": "dynamic_array",
						"label": "bytes32[]",
						"numberOfBytes": "32"
					},
					"t_bool": {
						"encoding": "inplace",
						"label": "bool",
						"numberOfBytes": "1"
					},
					"t_bytes32": {
						"encoding": "inplace",
						"label": "bytes32",
						"numberOfBytes": "32"
					},
					"t_mapping(t_address,t_mapping(t_address,t_uint256))": {
						"encoding": "mapping",
						"key": "t_address",
						"label": "mapping(address => mapping(address => uint256))",
						"numberOfBytes": "32",
						"value": "t_mapping(t_address,t_uint256)"
					},
					"t_mapping(t_address,t_uint256)": {
						"encoding": "mapping",
						"key": "t_address",
						"label": "mapping(address => uint256)",
						"numberOfBytes": "32",
						"value": "t_uint256"
					},
					"t_mapping(t_bytes32,t_struct(RoleData)1078_storage)": {
						"encoding": "mapping",
						"key": "t_bytes32",
						"label": "mapping(bytes32 => struct AccessControl.RoleData)",
						"numberOfBytes": "32",
						"value": "t_struct(RoleData)1078_storage"
					},
					"t_mapping(t_bytes32,t_uint256)": {
						"encoding": "mapping",
						"key": "t_bytes32",
						"label": "mapping(bytes32 => uint256)",
						"numberOfBytes": "32",
						"value": "t_uint256"
					},
					"t_string_storage": {
						"encoding": "bytes",
						"label": "string",
						"numberOfBytes": "32"
					},
					"t_struct(AddressSet)492_storage": {
						"encoding": "inplace",
						"label": "struct EnumerableSet.AddressSet",
						"members": [
							{
								"astId": 491,
								"contract": "ethereum-crosschain-contract/contracts/ExampleToken.sol:ExampleToken",
								"label": "_inner",
								"offset": 0,
								"slot": "0",
								"type": "t_struct(Set)227_storage"
							}
						],
						"numberOfBytes": "64"
					},
					"t_struct(RoleData)1078_storage": {
						"encoding": "inplace",
						"label": "struct AccessControl.RoleData",
						"members": [
							{
								"astId": 1075,
								"contract": "ethereum-crosschain-contract/contracts/ExampleToken.sol:ExampleToken",
								"label": "members",
								"offset": 0,
								"slot": "0",
								"type": "t_struct(AddressSet)492_storage"
							},
							{
								"astId": 1077,
								"contract": "ethereum-crosschain-contract/contracts/ExampleToken.sol:ExampleToken",
								"label": "adminRole",
								"offset": 0,
								"slot": "2",
								"type": "t_bytes32"
							}
						],
						"numberOfBytes": "96"
					},
					"t_struct(Set)227_storage": {
						"encoding": "inplace",
						"label": "struct EnumerableSet.Set",
						"members": [
							{
								"astId": 222,
								"contract": "ethereum-crosschain-contract/contracts/ExampleToken.sol:ExampleToken",
								"label": "_values",
								"offset": 0,
								"slot": "0",
								"type": "t_array(t_bytes32)dyn_storage"
							},
							{
								"astId": 226,
								"contract": "ethereum-crosschain-contract/contracts/ExampleToken.sol:ExampleToken",
								"label": "_indexes",
								"offset": 0,
								"slot": "1",
								"type": "t_mapping(t_bytes32,t_uint256)"
							}
						],
						"numberOfBytes": "64"
					},
					"t_uint256": {
						"encoding": "inplace",
						"label": "uint256",
						"numberOfBytes": "32"
					},
					"t_uint8": {
						"encoding": "inplace",
						"label": "uint8",
						"numberOfBytes": "1"
					}
				}
			},
			"userdoc": {
				"methods": {}
			}
		}
	}
}