{
  "contractName": "AaveHandler",
  "abi": [
    {
      "anonymous": false,
      "inputs": [
        {
          "indexed": true,
          "internalType": "address",
          "name": "recipientAddress",
          "type": "address"
        },
        {
          "indexed": false,
          "internalType": "uint256",
          "name": "amount",
          "type": "uint256"
        },
        {
          "indexed": true,
          "internalType": "bytes32",
          "name": "resourceID",
          "type": "bytes32"
        }
      ],
      "name": "AAVEDepositDone",
      "type": "event"
    },
    {
      "anonymous": false,
      "inputs": [
        {
          "indexed": true,
          "internalType": "address",
          "name": "previousOwner",
          "type": "address"
        },
        {
          "indexed": true,
          "internalType": "address",
          "name": "newOwner",
          "type": "address"
        }
      ],
      "name": "OwnershipTransferred",
      "type": "event"
    },
    {
      "inputs": [],
      "name": "AAVE_AVAX_LP_ADDR",
      "outputs": [
        {
          "internalType": "address",
          "name": "",
          "type": "address"
        }
      ],
      "stateMutability": "view",
      "type": "function"
    },
    {
      "inputs": [],
      "name": "AAVE_FUJI_LP_ADDR",
      "outputs": [
        {
          "internalType": "address",
          "name": "",
          "type": "address"
        }
      ],
      "stateMutability": "view",
      "type": "function"
    },
    {
      "inputs": [],
      "name": "LACHAIN_ID",
      "outputs": [
        {
          "internalType": "bytes8",
          "name": "",
          "type": "bytes8"
        }
      ],
      "stateMutability": "view",
      "type": "function"
    },
    {
      "inputs": [],
      "name": "_bridgeAddress",
      "outputs": [
        {
          "internalType": "address",
          "name": "",
          "type": "address"
        }
      ],
      "stateMutability": "view",
      "type": "function"
    },
    {
      "inputs": [
        {
          "internalType": "address",
          "name": "",
          "type": "address"
        }
      ],
      "name": "_burnList",
      "outputs": [
        {
          "internalType": "bool",
          "name": "",
          "type": "bool"
        }
      ],
      "stateMutability": "view",
      "type": "function"
    },
    {
      "inputs": [
        {
          "internalType": "address",
          "name": "",
          "type": "address"
        }
      ],
      "name": "_contractWhitelist",
      "outputs": [
        {
          "internalType": "bool",
          "name": "",
          "type": "bool"
        }
      ],
      "stateMutability": "view",
      "type": "function"
    },
    {
      "inputs": [
        {
          "internalType": "bytes8",
          "name": "",
          "type": "bytes8"
        },
        {
          "internalType": "uint64",
          "name": "",
          "type": "uint64"
        }
      ],
      "name": "_depositRecords",
      "outputs": [
        {
          "internalType": "address",
          "name": "_tokenAddress",
          "type": "address"
        },
        {
          "internalType": "bytes8",
          "name": "_destinationChainID",
          "type": "bytes8"
        },
        {
          "internalType": "bytes32",
          "name": "_resourceID",
          "type": "bytes32"
        },
        {
          "internalType": "address",
          "name": "_destinationRecipientAddress",
          "type": "address"
        },
        {
          "internalType": "address",
          "name": "_depositer",
          "type": "address"
        },
        {
          "internalType": "uint256",
          "name": "_amount",
          "type": "uint256"
        }
      ],
      "stateMutability": "view",
      "type": "function"
    },
    {
      "inputs": [],
      "name": "_isInitialised",
      "outputs": [
        {
          "internalType": "bool",
          "name": "",
          "type": "bool"
        }
      ],
      "stateMutability": "view",
      "type": "function"
    },
    {
      "inputs": [
        {
          "internalType": "bytes32",
          "name": "",
          "type": "bytes32"
        }
      ],
      "name": "_resourceIDToTokenContractAddress",
      "outputs": [
        {
          "internalType": "address",
          "name": "",
          "type": "address"
        }
      ],
      "stateMutability": "view",
      "type": "function"
    },
    {
      "inputs": [
        {
          "internalType": "address",
          "name": "",
          "type": "address"
        }
      ],
      "name": "_tokenContractAddressToResourceID",
      "outputs": [
        {
          "internalType": "bytes32",
          "name": "",
          "type": "bytes32"
        }
      ],
      "stateMutability": "view",
      "type": "function"
    },
    {
      "inputs": [
        {
          "internalType": "bytes32",
          "name": "",
          "type": "bytes32"
        }
      ],
      "name": "aaveTokenResources",
      "outputs": [
        {
          "internalType": "bytes32",
          "name": "",
          "type": "bytes32"
        }
      ],
      "stateMutability": "view",
      "type": "function"
    },
    {
      "inputs": [],
      "name": "amTokenHandler",
      "outputs": [
        {
          "internalType": "address",
          "name": "",
          "type": "address"
        }
      ],
      "stateMutability": "view",
      "type": "function"
    },
    {
      "inputs": [
        {
          "internalType": "bytes32",
          "name": "resourceID",
          "type": "bytes32"
        },
        {
          "internalType": "address",
          "name": "spender",
          "type": "address"
        },
        {
          "internalType": "uint256",
          "name": "amountOrTokenID",
          "type": "uint256"
        }
      ],
      "name": "approve",
      "outputs": [],
      "stateMutability": "nonpayable",
      "type": "function"
    },
    {
      "inputs": [],
      "name": "erc20Handler",
      "outputs": [
        {
          "internalType": "address",
          "name": "",
          "type": "address"
        }
      ],
      "stateMutability": "view",
      "type": "function"
    },
    {
      "inputs": [
        {
          "internalType": "address",
          "name": "tokenAddress",
          "type": "address"
        },
        {
          "internalType": "address",
          "name": "owner",
          "type": "address"
        },
        {
          "internalType": "uint256",
          "name": "amount",
          "type": "uint256"
        }
      ],
      "name": "fundERC20",
      "outputs": [],
      "stateMutability": "nonpayable",
      "type": "function"
    },
    {
      "inputs": [
        {
          "internalType": "address",
          "name": "owner",
          "type": "address"
        }
      ],
      "name": "ownableInit",
      "outputs": [],
      "stateMutability": "nonpayable",
      "type": "function"
    },
    {
      "inputs": [],
      "name": "owner",
      "outputs": [
        {
          "internalType": "address",
          "name": "",
          "type": "address"
        }
      ],
      "stateMutability": "view",
      "type": "function"
    },
    {
      "inputs": [],
      "name": "renounceOwnership",
      "outputs": [],
      "stateMutability": "nonpayable",
      "type": "function"
    },
    {
      "inputs": [
        {
          "internalType": "address",
          "name": "contractAddress",
          "type": "address"
        }
      ],
      "name": "setBurnable",
      "outputs": [],
      "stateMutability": "nonpayable",
      "type": "function"
    },
    {
      "inputs": [
        {
          "internalType": "bytes32",
          "name": "resourceID",
          "type": "bytes32"
        },
        {
          "internalType": "address",
          "name": "contractAddress",
          "type": "address"
        }
      ],
      "name": "setResource",
      "outputs": [],
      "stateMutability": "nonpayable",
      "type": "function"
    },
    {
      "inputs": [
        {
          "internalType": "address",
          "name": "newOwner",
          "type": "address"
        }
      ],
      "name": "transferOwnership",
      "outputs": [],
      "stateMutability": "nonpayable",
      "type": "function"
    },
    {
      "inputs": [
        {
          "internalType": "address",
          "name": "bridgeAddress",
          "type": "address"
        }
      ],
      "name": "initialize",
      "outputs": [],
      "stateMutability": "nonpayable",
      "type": "function"
    },
    {
      "inputs": [
        {
          "internalType": "bytes8",
          "name": "_LACHAIN_ID",
          "type": "bytes8"
        }
      ],
      "name": "setLachainId",
      "outputs": [],
      "stateMutability": "nonpayable",
      "type": "function"
    },
    {
      "inputs": [
        {
          "internalType": "address",
          "name": "_erc20Handler",
          "type": "address"
        }
      ],
      "name": "setErc20Handler",
      "outputs": [],
      "stateMutability": "nonpayable",
      "type": "function"
    },
    {
      "inputs": [
        {
          "internalType": "address",
          "name": "_amTokenHandler",
          "type": "address"
        }
      ],
      "name": "setAmTokenHandler",
      "outputs": [],
      "stateMutability": "nonpayable",
      "type": "function"
    },
    {
      "inputs": [
        {
          "internalType": "bytes32",
          "name": "aaveTokenResourceId",
          "type": "bytes32"
        },
        {
          "internalType": "bytes32",
          "name": "amTokenResourceId",
          "type": "bytes32"
        }
      ],
      "name": "setAaveTokenResources",
      "outputs": [],
      "stateMutability": "nonpayable",
      "type": "function"
    },
    {
      "inputs": [
        {
          "internalType": "address",
          "name": "newBridgeAddress",
          "type": "address"
        }
      ],
      "name": "adminChangeBridgeAddress",
      "outputs": [],
      "stateMutability": "nonpayable",
      "type": "function"
    },
    {
      "inputs": [
        {
          "internalType": "uint64",
          "name": "depositNonce",
          "type": "uint64"
        },
        {
          "internalType": "bytes8",
          "name": "destId",
          "type": "bytes8"
        }
      ],
      "name": "getDepositRecord",
      "outputs": [
        {
          "components": [
            {
              "internalType": "address",
              "name": "_tokenAddress",
              "type": "address"
            },
            {
              "internalType": "bytes8",
              "name": "_destinationChainID",
              "type": "bytes8"
            },
            {
              "internalType": "bytes32",
              "name": "_resourceID",
              "type": "bytes32"
            },
            {
              "internalType": "address",
              "name": "_destinationRecipientAddress",
              "type": "address"
            },
            {
              "internalType": "address",
              "name": "_depositer",
              "type": "address"
            },
            {
              "internalType": "uint256",
              "name": "_amount",
              "type": "uint256"
            }
          ],
          "internalType": "struct AaveHandler.DepositRecord",
          "name": "",
          "type": "tuple"
        }
      ],
      "stateMutability": "view",
      "type": "function"
    },
    {
      "inputs": [
        {
          "internalType": "bytes32",
          "name": "resourceID",
          "type": "bytes32"
        },
        {
          "internalType": "bytes8",
          "name": "destinationChainID",
          "type": "bytes8"
        },
        {
          "internalType": "uint64",
          "name": "depositNonce",
          "type": "uint64"
        },
        {
          "internalType": "address",
          "name": "depositer",
          "type": "address"
        },
        {
          "internalType": "address",
          "name": "recipientAddress",
          "type": "address"
        },
        {
          "internalType": "uint256",
          "name": "amount",
          "type": "uint256"
        },
        {
          "internalType": "bytes",
          "name": "params",
          "type": "bytes"
        }
      ],
      "name": "deposit",
      "outputs": [
        {
          "internalType": "address",
          "name": "",
          "type": "address"
        }
      ],
      "stateMutability": "nonpayable",
      "type": "function"
    },
    {
      "inputs": [
        {
          "internalType": "bytes32",
          "name": "resourceID",
          "type": "bytes32"
        },
        {
          "internalType": "address",
          "name": "recipientAddress",
          "type": "address"
        },
        {
          "internalType": "uint256",
          "name": "amount",
          "type": "uint256"
        },
        {
          "internalType": "bytes",
          "name": "params",
          "type": "bytes"
        }
      ],
      "name": "executeProposal",
      "outputs": [],
      "stateMutability": "nonpayable",
      "type": "function"
    },
    {
      "inputs": [
        {
          "internalType": "address",
          "name": "tokenAddress",
          "type": "address"
        },
        {
          "internalType": "address",
          "name": "recipient",
          "type": "address"
        },
        {
          "internalType": "uint256",
          "name": "amount",
          "type": "uint256"
        }
      ],
      "name": "withdraw",
      "outputs": [],
      "stateMutability": "nonpayable",
      "type": "function"
    },
    {
      "inputs": [
        {
          "internalType": "bytes32",
          "name": "resourceID",
          "type": "bytes32"
        }
      ],
      "name": "getAddressFromResourceId",
      "outputs": [
        {
          "internalType": "address",
          "name": "",
          "type": "address"
        }
      ],
      "stateMutability": "view",
      "type": "function"
    }
  ],
  "bytecode": "0x608060405234801561001057600080fd5b50612f0c806100206000396000f3fe608060405234801561001057600080fd5b50600436106101f05760003560e01c806385aaf11a1161010f578063c8ba6c87116100a2578063e7077de011610071578063e7077de0146105bc578063ea439b2b146105d8578063ec87b6c3146105f4578063f2fde38b14610610576101f0565b8063c8ba6c8714610534578063d1192c9514610564578063d9caed1214610582578063dd2e8ec31461059e576101f0565b8063a7a3fb40116100de578063a7a3fb40146104b0578063b8fa3736146104e0578063bf1ed1eb146104fc578063c4d66de814610518576101f0565b806385aaf11a146104285780638da5cb5b1461045857806395601f0914610476578063996c9c2314610492576101f0565b80633c7c661111610187578063728e218f11610156578063728e218f1461037757806375cd9cce1461039357806378f6a94c146103c35780637f79bea8146103f8576101f0565b80633c7c66111461030357806361af68841461031f5780636a70d0811461033d578063715018a61461036d576101f0565b8063292f3a68116101c3578063292f3a681461027b578063297d7c8a14610297578063318c136e146102b557806334143cd7146102d3576101f0565b806307b7ed99146101f55780630a6d55d814610211578063138bbc1a146102415780631cb9e2621461025d575b600080fd5b61020f600480360381019061020a9190612303565b61062c565b005b61022b600480360381019061022691906123a4565b610640565b60405161023891906129e7565b60405180910390f35b61025b600480360381019061025691906125ce565b610673565b005b610265610714565b60405161027291906129e7565b60405180910390f35b61029560048036038101906102909190612303565b61073a565b005b61029f6107f9565b6040516102ac91906129e7565b60405180910390f35b6102bd61081f565b6040516102ca91906129e7565b60405180910390f35b6102ed60048036038101906102e89190612686565b610844565b6040516102fa9190612c5e565b60405180910390f35b61031d60048036038101906103189190612303565b610a30565b005b610327610af0565b6040516103349190612b3e565b60405180910390f35b61035760048036038101906103529190612303565b610b03565b6040516103649190612b08565b60405180910390f35b610375610b23565b005b610391600480360381019061038c9190612458565b610c60565b005b6103ad60048036038101906103a89190612514565b6110a8565b6040516103ba91906129e7565b60405180910390f35b6103dd60048036038101906103d891906125f7565b611401565b6040516103ef96959493929190612a39565b60405180910390f35b610412600480360381019061040d9190612303565b6114b7565b60405161041f9190612b08565b60405180910390f35b610442600480360381019061043d91906123a4565b6114d7565b60405161044f9190612b23565b60405180910390f35b6104606114ef565b60405161046d91906129e7565b60405180910390f35b610490600480360381019061048b919061232c565b611519565b005b61049a611530565b6040516104a791906129e7565b60405180910390f35b6104ca60048036038101906104c591906123a4565b611548565b6040516104d791906129e7565b60405180910390f35b6104fa60048036038101906104f591906123cd565b611585565b005b61051660048036038101906105119190612409565b61159b565b005b610532600480360381019061052d9190612303565b6115a0565b005b61054e60048036038101906105499190612303565b611612565b60405161055b9190612b23565b60405180910390f35b61056c61162a565b60405161057991906129e7565b60405180910390f35b61059c6004803603810190610597919061232c565b611642565b005b6105a661165a565b6040516105b39190612b08565b60405180910390f35b6105d660048036038101906105d19190612303565b61166d565b005b6105f260048036038101906105ed9190612303565b61172d565b005b61060e600480360381019061060991906124d8565b611801565b005b61062a60048036038101906106259190612303565b611899565b005b610634611a0f565b61063d81611aa0565b50565b60016020528060005260406000206000915054906101000a900473ffffffffffffffffffffffffffffffffffffffff1681565b61067b611b87565b73ffffffffffffffffffffffffffffffffffffffff166106996114ef565b73ffffffffffffffffffffffffffffffffffffffff16146106ef576040517f08c379a00000000000000000000000000000000000000000000000000000000081526004016106e690612c1e565b60405180910390fd5b80600560156101000a81548167ffffffffffffffff021916908360c01c021790555050565b600760009054906101000a900473ffffffffffffffffffffffffffffffffffffffff1681565b610742611b87565b73ffffffffffffffffffffffffffffffffffffffff166107606114ef565b73ffffffffffffffffffffffffffffffffffffffff16146107b6576040517f08c379a00000000000000000000000000000000000000000000000000000000081526004016107ad90612c1e565b60405180910390fd5b806000806101000a81548173ffffffffffffffffffffffffffffffffffffffff021916908373ffffffffffffffffffffffffffffffffffffffff16021790555050565b600660009054906101000a900473ffffffffffffffffffffffffffffffffffffffff1681565b6000809054906101000a900473ffffffffffffffffffffffffffffffffffffffff1681565b61084c611fe6565b600860008377ffffffffffffffffffffffffffffffffffffffffffffffff191677ffffffffffffffffffffffffffffffffffffffffffffffff1916815260200190815260200160002060008467ffffffffffffffff1667ffffffffffffffff1681526020019081526020016000206040518060c00160405290816000820160009054906101000a900473ffffffffffffffffffffffffffffffffffffffff1673ffffffffffffffffffffffffffffffffffffffff1673ffffffffffffffffffffffffffffffffffffffff1681526020016000820160149054906101000a900460c01b77ffffffffffffffffffffffffffffffffffffffffffffffff191677ffffffffffffffffffffffffffffffffffffffffffffffff19168152602001600182015481526020016002820160009054906101000a900473ffffffffffffffffffffffffffffffffffffffff1673ffffffffffffffffffffffffffffffffffffffff1673ffffffffffffffffffffffffffffffffffffffff1681526020016003820160009054906101000a900473ffffffffffffffffffffffffffffffffffffffff1673ffffffffffffffffffffffffffffffffffffffff1673ffffffffffffffffffffffffffffffffffffffff168152602001600482015481525050905092915050565b610a38611b87565b73ffffffffffffffffffffffffffffffffffffffff16610a566114ef565b73ffffffffffffffffffffffffffffffffffffffff1614610aac576040517f08c379a0000000000000000000000000000000000000000000000000000000008152600401610aa390612c1e565b60405180910390fd5b80600660006101000a81548173ffffffffffffffffffffffffffffffffffffffff021916908373ffffffffffffffffffffffffffffffffffffffff16021790555050565b600560159054906101000a900460c01b81565b60046020528060005260406000206000915054906101000a900460ff1681565b610b2b611b87565b73ffffffffffffffffffffffffffffffffffffffff16610b496114ef565b73ffffffffffffffffffffffffffffffffffffffff1614610b9f576040517f08c379a0000000000000000000000000000000000000000000000000000000008152600401610b9690612c1e565b60405180910390fd5b600073ffffffffffffffffffffffffffffffffffffffff16600560009054906101000a900473ffffffffffffffffffffffffffffffffffffffff1673ffffffffffffffffffffffffffffffffffffffff167f8be0079c531659141344cd1fd0a4f28419497f9722a3daafe3b4186f6b6457e060405160405180910390a36000600560006101000a81548173ffffffffffffffffffffffffffffffffffffffff021916908373ffffffffffffffffffffffffffffffffffffffff160217905550565b610c68611a0f565b60006001600087815260200190815260200160002060009054906101000a900473ffffffffffffffffffffffffffffffffffffffff169050610ccd81600760009054906101000a900473ffffffffffffffffffffffffffffffffffffffff1686611519565b610cec81734f01aed16d97e3ab5ab2b501154dc9bb0f1a5a2c86611b8f565b6000734f01aed16d97e3ab5ab2b501154dc9bb0f1a5a2c73ffffffffffffffffffffffffffffffffffffffff166335ea6a75836040518263ffffffff1660e01b8152600401610d3b91906129e7565b6101806040518083038186803b158015610d5457600080fd5b505afa158015610d68573d6000803e3d6000fd5b505050506040513d601f19601f82011682018060405250810190610d8c9190612633565b60e00151905060008173ffffffffffffffffffffffffffffffffffffffff16631da24f3e600660009054906101000a900473ffffffffffffffffffffffffffffffffffffffff166040518263ffffffff1660e01b8152600401610def91906129e7565b60206040518083038186803b158015610e0757600080fd5b505afa158015610e1b573d6000803e3d6000fd5b505050506040513d601f19601f82011682018060405250810190610e3f919061265d565b9050734f01aed16d97e3ab5ab2b501154dc9bb0f1a5a2c73ffffffffffffffffffffffffffffffffffffffff1663e8eda9df8488600660009054906101000a900473ffffffffffffffffffffffffffffffffffffffff1660006040518563ffffffff1660e01b8152600401610eb79493929190612ac3565b600060405180830381600087803b158015610ed157600080fd5b505af1158015610ee5573d6000803e3d6000fd5b505050506000818373ffffffffffffffffffffffffffffffffffffffff16631da24f3e600660009054906101000a900473ffffffffffffffffffffffffffffffffffffffff166040518263ffffffff1660e01b8152600401610f4791906129e7565b60206040518083038186803b158015610f5f57600080fd5b505afa158015610f73573d6000803e3d6000fd5b505050506040513d601f19601f82011682018060405250810190610f97919061265d565b0390506000809054906101000a900473ffffffffffffffffffffffffffffffffffffffff1673ffffffffffffffffffffffffffffffffffffffff16638ece6f27600560159054906101000a900460c01b600960008d815260200190815260200160002054848c6040518563ffffffff1660e01b815260040161101c9493929190612b59565b600060405180830381600087803b15801561103657600080fd5b505af115801561104a573d6000803e3d6000fd5b50505050888873ffffffffffffffffffffffffffffffffffffffff167f698a295ff36ec63d21f46f551e6d36a1a9c019a6b0e0e6aa706ac0c739631ab3896040516110959190612c79565b60405180910390a3505050505050505050565b60006110b2611a0f565b6000600160008b815260200190815260200160002060009054906101000a900473ffffffffffffffffffffffffffffffffffffffff169050600360008273ffffffffffffffffffffffffffffffffffffffff1673ffffffffffffffffffffffffffffffffffffffff16815260200190815260200160002060009054906101000a900460ff16611176576040517f08c379a000000000000000000000000000000000000000000000000000000000815260040161116d90612c3e565b60405180910390fd5b600460008273ffffffffffffffffffffffffffffffffffffffff1673ffffffffffffffffffffffffffffffffffffffff16815260200190815260200160002060009054906101000a900460ff16156111d8576111d3818887611ba5565b6111e5565b6111e481883088611c1d565b5b6040518060c001604052808273ffffffffffffffffffffffffffffffffffffffff1681526020018a77ffffffffffffffffffffffffffffffffffffffffffffffff191681526020018b81526020018773ffffffffffffffffffffffffffffffffffffffff1681526020018873ffffffffffffffffffffffffffffffffffffffff16815260200186815250600860008b77ffffffffffffffffffffffffffffffffffffffffffffffff191677ffffffffffffffffffffffffffffffffffffffffffffffff1916815260200190815260200160002060008a67ffffffffffffffff1667ffffffffffffffff16815260200190815260200160002060008201518160000160006101000a81548173ffffffffffffffffffffffffffffffffffffffff021916908373ffffffffffffffffffffffffffffffffffffffff16021790555060208201518160000160146101000a81548167ffffffffffffffff021916908360c01c02179055506040820151816001015560608201518160020160006101000a81548173ffffffffffffffffffffffffffffffffffffffff021916908373ffffffffffffffffffffffffffffffffffffffff16021790555060808201518160030160006101000a81548173ffffffffffffffffffffffffffffffffffffffff021916908373ffffffffffffffffffffffffffffffffffffffff16021790555060a082015181600401559050508091505098975050505050505050565b6008602052816000526040600020602052806000526040600020600091509150508060000160009054906101000a900473ffffffffffffffffffffffffffffffffffffffff16908060000160149054906101000a900460c01b908060010154908060020160009054906101000a900473ffffffffffffffffffffffffffffffffffffffff16908060030160009054906101000a900473ffffffffffffffffffffffffffffffffffffffff16908060040154905086565b60036020528060005260406000206000915054906101000a900460ff1681565b60096020528060005260406000206000915090505481565b6000600560009054906101000a900473ffffffffffffffffffffffffffffffffffffffff16905090565b600083905061152a81843085611c35565b50505050565b734f01aed16d97e3ab5ab2b501154dc9bb0f1a5a2c81565b60006001600083815260200190815260200160002060009054906101000a900473ffffffffffffffffffffffffffffffffffffffff169050919050565b61158d611a0f565b6115978282611cbe565b5050565b505050565b806000806101000a81548173ffffffffffffffffffffffffffffffffffffffff021916908373ffffffffffffffffffffffffffffffffffffffff160217905550601960c01b600560156101000a81548167ffffffffffffffff021916908360c01c021790555061160f3361172d565b50565b60026020528060005260406000206000915090505481565b7376cc67ff2cc77821a70ed14321111ce381c2594d81565b61164a611a0f565b611655838383611db0565b505050565b600560149054906101000a900460ff1681565b611675611b87565b73ffffffffffffffffffffffffffffffffffffffff166116936114ef565b73ffffffffffffffffffffffffffffffffffffffff16146116e9576040517f08c379a00000000000000000000000000000000000000000000000000000000081526004016116e090612c1e565b60405180910390fd5b80600760006101000a81548173ffffffffffffffffffffffffffffffffffffffff021916908373ffffffffffffffffffffffffffffffffffffffff16021790555050565b600560149054906101000a900460ff161561174757600080fd5b80600560006101000a81548173ffffffffffffffffffffffffffffffffffffffff021916908373ffffffffffffffffffffffffffffffffffffffff1602179055506001600560146101000a81548160ff0219169083151502179055508073ffffffffffffffffffffffffffffffffffffffff16600073ffffffffffffffffffffffffffffffffffffffff167f8be0079c531659141344cd1fd0a4f28419497f9722a3daafe3b4186f6b6457e060405160405180910390a350565b611809611b87565b73ffffffffffffffffffffffffffffffffffffffff166118276114ef565b73ffffffffffffffffffffffffffffffffffffffff161461187d576040517f08c379a000000000000000000000000000000000000000000000000000000000815260040161187490612c1e565b60405180910390fd5b8060096000848152602001908152602001600020819055505050565b6118a1611b87565b73ffffffffffffffffffffffffffffffffffffffff166118bf6114ef565b73ffffffffffffffffffffffffffffffffffffffff1614611915576040517f08c379a000000000000000000000000000000000000000000000000000000000815260040161190c90612c1e565b60405180910390fd5b600073ffffffffffffffffffffffffffffffffffffffff168173ffffffffffffffffffffffffffffffffffffffff16141561194f57600080fd5b8073ffffffffffffffffffffffffffffffffffffffff16600560009054906101000a900473ffffffffffffffffffffffffffffffffffffffff1673ffffffffffffffffffffffffffffffffffffffff167f8be0079c531659141344cd1fd0a4f28419497f9722a3daafe3b4186f6b6457e060405160405180910390a380600560006101000a81548173ffffffffffffffffffffffffffffffffffffffff021916908373ffffffffffffffffffffffffffffffffffffffff16021790555050565b6000809054906101000a900473ffffffffffffffffffffffffffffffffffffffff1673ffffffffffffffffffffffffffffffffffffffff163373ffffffffffffffffffffffffffffffffffffffff1614611a9e576040517f08c379a0000000000000000000000000000000000000000000000000000000008152600401611a9590612bbe565b60405180910390fd5b565b600360008273ffffffffffffffffffffffffffffffffffffffff1673ffffffffffffffffffffffffffffffffffffffff16815260200190815260200160002060009054906101000a900460ff16611b2c576040517f08c379a0000000000000000000000000000000000000000000000000000000008152600401611b2390612bde565b60405180910390fd5b6001600460008373ffffffffffffffffffffffffffffffffffffffff1673ffffffffffffffffffffffffffffffffffffffff16815260200190815260200160002060006101000a81548160ff02191690831515021790555050565b600033905090565b6000839050611b9f818484611dc6565b50505050565b60008390508073ffffffffffffffffffffffffffffffffffffffff166379cc679084846040518363ffffffff1660e01b8152600401611be5929190612a9a565b600060405180830381600087803b158015611bff57600080fd5b505af1158015611c13573d6000803e3d6000fd5b5050505050505050565b6000849050611c2e81858585611c35565b5050505050565b611cb8846323b872dd60e01b858585604051602401611c5693929190612a02565b604051602081830303815290604052907bffffffffffffffffffffffffffffffffffffffffffffffffffffffff19166020820180517bffffffffffffffffffffffffffffffffffffffffffffffffffffffff8381831617835250505050611e4c565b50505050565b806001600084815260200190815260200160002060006101000a81548173ffffffffffffffffffffffffffffffffffffffff021916908373ffffffffffffffffffffffffffffffffffffffff16021790555081600260008373ffffffffffffffffffffffffffffffffffffffff1673ffffffffffffffffffffffffffffffffffffffff168152602001908152602001600020819055506001600360008373ffffffffffffffffffffffffffffffffffffffff1673ffffffffffffffffffffffffffffffffffffffff16815260200190815260200160002060006101000a81548160ff0219169083151502179055505050565b6000839050611dc0818484611f60565b50505050565b611e478363095ea7b360e01b8484604051602401611de5929190612a9a565b604051602081830303815290604052907bffffffffffffffffffffffffffffffffffffffffffffffffffffffff19166020820180517bffffffffffffffffffffffffffffffffffffffffffffffffffffffff8381831617835250505050611e4c565b505050565b600060608373ffffffffffffffffffffffffffffffffffffffff1683604051611e7591906129d0565b6000604051808303816000865af19150503d8060008114611eb2576040519150601f19603f3d011682016040523d82523d6000602084013e611eb7565b606091505b509150915081611efc576040517f08c379a0000000000000000000000000000000000000000000000000000000008152600401611ef390612bfe565b60405180910390fd5b600081511115611f5a5780806020019051810190611f1a919061237b565b611f59576040517f08c379a0000000000000000000000000000000000000000000000000000000008152600401611f5090612b9e565b60405180910390fd5b5b50505050565b611fe18363a9059cbb60e01b8484604051602401611f7f929190612a9a565b604051602081830303815290604052907bffffffffffffffffffffffffffffffffffffffffffffffffffffffff19166020820180517bffffffffffffffffffffffffffffffffffffffffffffffffffffffff8381831617835250505050611e4c565b505050565b6040518060c00160405280600073ffffffffffffffffffffffffffffffffffffffff168152602001600077ffffffffffffffffffffffffffffffffffffffffffffffff1916815260200160008019168152602001600073ffffffffffffffffffffffffffffffffffffffff168152602001600073ffffffffffffffffffffffffffffffffffffffff168152602001600081525090565b60008135905061208b81612e07565b92915050565b6000815190506120a081612e07565b92915050565b6000815190506120b581612e1e565b92915050565b6000813590506120ca81612e35565b92915050565b6000813590506120df81612e4c565b92915050565b60008083601f8401126120f757600080fd5b8235905067ffffffffffffffff81111561211057600080fd5b60208301915083600182028301111561212857600080fd5b9250929050565b60006020828403121561214157600080fd5b61214b6020612c94565b9050600061215b848285016122af565b60008301525092915050565b6000610180828403121561217a57600080fd5b612185610180612c94565b905060006121958482850161212f565b60008301525060206121a984828501612285565b60208301525060406121bd84828501612285565b60408301525060606121d184828501612285565b60608301525060806121e584828501612285565b60808301525060a06121f984828501612285565b60a08301525060c061220d848285016122c4565b60c08301525060e061222184828501612091565b60e08301525061010061223684828501612091565b6101008301525061012061224c84828501612091565b6101208301525061014061226284828501612091565b61014083015250610160612278848285016122ee565b6101608301525092915050565b60008151905061229481612e63565b92915050565b6000813590506122a981612e7a565b92915050565b6000815190506122be81612e7a565b92915050565b6000815190506122d381612e91565b92915050565b6000813590506122e881612ea8565b92915050565b6000815190506122fd81612ebf565b92915050565b60006020828403121561231557600080fd5b60006123238482850161207c565b91505092915050565b60008060006060848603121561234157600080fd5b600061234f8682870161207c565b93505060206123608682870161207c565b92505060406123718682870161229a565b9150509250925092565b60006020828403121561238d57600080fd5b600061239b848285016120a6565b91505092915050565b6000602082840312156123b657600080fd5b60006123c4848285016120bb565b91505092915050565b600080604083850312156123e057600080fd5b60006123ee858286016120bb565b92505060206123ff8582860161207c565b9150509250929050565b60008060006060848603121561241e57600080fd5b600061242c868287016120bb565b935050602061243d8682870161207c565b925050604061244e8682870161229a565b9150509250925092565b60008060008060006080868803121561247057600080fd5b600061247e888289016120bb565b955050602061248f8882890161207c565b94505060406124a08882890161229a565b935050606086013567ffffffffffffffff8111156124bd57600080fd5b6124c9888289016120e5565b92509250509295509295909350565b600080604083850312156124eb57600080fd5b60006124f9858286016120bb565b925050602061250a858286016120bb565b9150509250929050565b60008060008060008060008060e0898b03121561253057600080fd5b600061253e8b828c016120bb565b985050602061254f8b828c016120d0565b97505060406125608b828c016122d9565b96505060606125718b828c0161207c565b95505060806125828b828c0161207c565b94505060a06125938b828c0161229a565b93505060c089013567ffffffffffffffff8111156125b057600080fd5b6125bc8b828c016120e5565b92509250509295985092959890939650565b6000602082840312156125e057600080fd5b60006125ee848285016120d0565b91505092915050565b6000806040838503121561260a57600080fd5b6000612618858286016120d0565b9250506020612629858286016122d9565b9150509250929050565b6000610180828403121561264657600080fd5b600061265484828501612167565b91505092915050565b60006020828403121561266f57600080fd5b600061267d848285016122af565b91505092915050565b6000806040838503121561269957600080fd5b60006126a7858286016122d9565b92505060206126b8858286016120d0565b9150509250929050565b6126cb81612ce8565b82525050565b6126da81612ce8565b82525050565b6126e981612cfa565b82525050565b6126f881612d06565b82525050565b61270781612d06565b82525050565b61271681612d10565b82525050565b61272581612d10565b82525050565b600061273682612cc1565b6127408185612ccc565b9350612750818560208601612dd4565b80840191505092915050565b61276581612dc2565b82525050565b6000612778602083612cd7565b91507f45524332303a206f7065726174696f6e20646964206e6f7420737563636565646000830152602082019050919050565b60006127b8601e83612cd7565b91507f73656e646572206d7573742062652062726964676520636f6e747261637400006000830152602082019050919050565b60006127f8602483612cd7565b91507f70726f766964656420636f6e7472616374206973206e6f742077686974656c6960008301527f73746564000000000000000000000000000000000000000000000000000000006020830152604082019050919050565b600061285e601283612cd7565b91507f45524332303a2063616c6c206661696c656400000000000000000000000000006000830152602082019050919050565b600061289e601683612cd7565b91507f73656e6465722073686f756c64206265206f776e6572000000000000000000006000830152602082019050919050565b60006128de602883612cd7565b91507f70726f766964656420746f6b656e41646472657373206973206e6f742077686960008301527f74656c69737465640000000000000000000000000000000000000000000000006020830152604082019050919050565b60c08201600082015161294d60008501826126c2565b506020820151612960602085018261270d565b50604082015161297360408501826126ef565b50606082015161298660608501826126c2565b50608082015161299960808501826126c2565b5060a08201516129ac60a08501826129b2565b50505050565b6129bb81612d86565b82525050565b6129ca81612d86565b82525050565b60006129dc828461272b565b915081905092915050565b60006020820190506129fc60008301846126d1565b92915050565b6000606082019050612a1760008301866126d1565b612a2460208301856126d1565b612a3160408301846129c1565b949350505050565b600060c082019050612a4e60008301896126d1565b612a5b602083018861271c565b612a6860408301876126fe565b612a7560608301866126d1565b612a8260808301856126d1565b612a8f60a08301846129c1565b979650505050505050565b6000604082019050612aaf60008301856126d1565b612abc60208301846129c1565b9392505050565b6000608082019050612ad860008301876126d1565b612ae560208301866129c1565b612af260408301856126d1565b612aff606083018461275c565b95945050505050565b6000602082019050612b1d60008301846126e0565b92915050565b6000602082019050612b3860008301846126fe565b92915050565b6000602082019050612b53600083018461271c565b92915050565b6000608082019050612b6e600083018761271c565b612b7b60208301866126fe565b612b8860408301856129c1565b612b9560608301846126d1565b95945050505050565b60006020820190508181036000830152612bb78161276b565b9050919050565b60006020820190508181036000830152612bd7816127ab565b9050919050565b60006020820190508181036000830152612bf7816127eb565b9050919050565b60006020820190508181036000830152612c1781612851565b9050919050565b60006020820190508181036000830152612c3781612891565b9050919050565b60006020820190508181036000830152612c57816128d1565b9050919050565b600060c082019050612c736000830184612937565b92915050565b6000602082019050612c8e60008301846129c1565b92915050565b6000604051905081810181811067ffffffffffffffff82111715612cb757600080fd5b8060405250919050565b600081519050919050565b600081905092915050565b600082825260208201905092915050565b6000612cf382612d66565b9050919050565b60008115159050919050565b6000819050919050565b60007fffffffffffffffff00000000000000000000000000000000000000000000000082169050919050565b60006fffffffffffffffffffffffffffffffff82169050919050565b600061ffff82169050919050565b600073ffffffffffffffffffffffffffffffffffffffff82169050919050565b6000819050919050565b600064ffffffffff82169050919050565b600067ffffffffffffffff82169050919050565b600060ff82169050919050565b6000612dcd82612d58565b9050919050565b60005b83811015612df2578082015181840152602081019050612dd7565b83811115612e01576000848401525b50505050565b612e1081612ce8565b8114612e1b57600080fd5b50565b612e2781612cfa565b8114612e3257600080fd5b50565b612e3e81612d06565b8114612e4957600080fd5b50565b612e5581612d10565b8114612e6057600080fd5b50565b612e6c81612d3c565b8114612e7757600080fd5b50565b612e8381612d86565b8114612e8e57600080fd5b50565b612e9a81612d90565b8114612ea557600080fd5b50565b612eb181612da1565b8114612ebc57600080fd5b50565b612ec881612db5565b8114612ed357600080fd5b5056fea264697066735822122027af862589f16afb828d26a9b8ea2d1626aad0f4282fa41be675a5cf3075a42064736f6c63430006040033",
  "source": "pragma solidity 0.6.4;\r\npragma experimental ABIEncoderV2;\r\n\r\nimport \"../interfaces/IDepositExecute.sol\";\r\nimport \"../interfaces/IERC20.sol\";\r\nimport \"../interfaces/ILendingPool.sol\";\r\nimport \"../interfaces/IAToken.sol\";\r\nimport \"../interfaces/IBridge.sol\";\r\nimport \"./HandlerHelpers.sol\";\r\nimport \"../ERC20Safe.sol\";\r\nimport \"../ExampleToken.sol\";\r\nimport \"../utils/UpgradableOwnable.sol\";\r\n\r\n/**\r\n    @title Handles ERC20 deposits and deposit executions.\r\n    @notice This contract is intended to be used with the Bridge contract.\r\n */\r\ncontract AaveHandler is\r\n    IDepositExecute,\r\n    HandlerHelpers,\r\n    UpgradableOwnable,\r\n    ERC20Safe\r\n{\r\n    address public constant AAVE_AVAX_LP_ADDR =\r\n        0x4F01AeD16D97E3aB5ab2B501154DC9bb0F1A5A2C;\r\n    address public constant AAVE_FUJI_LP_ADDR =\r\n        0x76cc67FF2CC77821A70ED14321111Ce381C2594D;\r\n    bytes8 public LACHAIN_ID;\r\n    address public amTokenHandler;\r\n    address public erc20Handler;\r\n\r\n    struct DepositRecord {\r\n        address _tokenAddress;\r\n        bytes8 _destinationChainID;\r\n        bytes32 _resourceID;\r\n        address _destinationRecipientAddress;\r\n        address _depositer;\r\n        uint256 _amount;\r\n    }\r\n\r\n    mapping(bytes8 => mapping(uint64 => DepositRecord)) public _depositRecords;\r\n\r\n    mapping(bytes32 => bytes32) public aaveTokenResources;\r\n\r\n    event AAVEDepositDone(\r\n        address indexed recipientAddress,\r\n        uint256 amount,\r\n        bytes32 indexed resourceID\r\n    );\r\n\r\n    /**\r\n        @param bridgeAddress Contract address of previously deployed Bridge.\r\n     */\r\n    function initialize(address bridgeAddress) public {\r\n        _bridgeAddress = bridgeAddress;\r\n        LACHAIN_ID = 0x0000000000000019;\r\n        ownableInit(msg.sender);\r\n    }\r\n\r\n    function setLachainId(bytes8 _LACHAIN_ID) external onlyOwner {\r\n        LACHAIN_ID = _LACHAIN_ID;\r\n    }\r\n\r\n    function setErc20Handler(address _erc20Handler) external onlyOwner {\r\n        erc20Handler = _erc20Handler;\r\n    }\r\n\r\n    function setAmTokenHandler(address _amTokenHandler) external onlyOwner {\r\n        amTokenHandler = _amTokenHandler;\r\n    }\r\n\r\n    function setAaveTokenResources(\r\n        bytes32 aaveTokenResourceId,\r\n        bytes32 amTokenResourceId\r\n    ) external onlyOwner {\r\n        aaveTokenResources[aaveTokenResourceId] = amTokenResourceId;\r\n    }\r\n\r\n    function adminChangeBridgeAddress(address newBridgeAddress)\r\n        external\r\n        onlyOwner\r\n    {\r\n        _bridgeAddress = newBridgeAddress;\r\n    }\r\n\r\n    function getDepositRecord(uint64 depositNonce, bytes8 destId)\r\n        external\r\n        view\r\n        returns (DepositRecord memory)\r\n    {\r\n        return _depositRecords[destId][depositNonce];\r\n    }\r\n\r\n    function deposit(\r\n        bytes32 resourceID,\r\n        bytes8 destinationChainID,\r\n        uint64 depositNonce,\r\n        address depositer,\r\n        address recipientAddress,\r\n        uint256 amount,\r\n        bytes calldata params\r\n    ) external override onlyBridge returns (address) {\r\n        address tokenAddress = _resourceIDToTokenContractAddress[resourceID];\r\n        require(\r\n            _contractWhitelist[tokenAddress],\r\n            \"provided tokenAddress is not whitelisted\"\r\n        );\r\n\r\n        if (_burnList[tokenAddress]) {\r\n            burnERC20(tokenAddress, depositer, amount);\r\n        } else {\r\n            lockERC20(tokenAddress, depositer, address(this), amount);\r\n        }\r\n\r\n        _depositRecords[destinationChainID][depositNonce] = DepositRecord(\r\n            tokenAddress,\r\n            destinationChainID,\r\n            resourceID,\r\n            recipientAddress,\r\n            depositer,\r\n            amount\r\n        );\r\n        return (tokenAddress);\r\n    }\r\n\r\n    function executeProposal(\r\n        bytes32 resourceID,\r\n        address recipientAddress,\r\n        uint256 amount,\r\n        bytes calldata params\r\n    ) external override onlyBridge {\r\n        address tokenAddress = _resourceIDToTokenContractAddress[resourceID];\r\n\r\n        fundERC20(tokenAddress, erc20Handler, amount);\r\n        approveERC20(tokenAddress, AAVE_AVAX_LP_ADDR, amount);\r\n        address aTokenAddress = ILendingPool(AAVE_AVAX_LP_ADDR)\r\n            .getReserveData(tokenAddress)\r\n            .aTokenAddress;\r\n        uint256 oldBalance = IAToken(aTokenAddress).scaledBalanceOf(\r\n            amTokenHandler\r\n        );\r\n        ILendingPool(AAVE_AVAX_LP_ADDR).deposit(\r\n            tokenAddress,\r\n            amount,\r\n            amTokenHandler,\r\n            0x0\r\n        );\r\n        uint256 newAmount = IAToken(aTokenAddress).scaledBalanceOf(\r\n            amTokenHandler\r\n        ) - oldBalance;\r\n\r\n        IBridge(_bridgeAddress).internalDeposit(\r\n            LACHAIN_ID,\r\n            aaveTokenResources[resourceID],\r\n            newAmount,\r\n            recipientAddress\r\n        );\r\n\r\n        emit AAVEDepositDone(recipientAddress, amount, resourceID);\r\n    }\r\n\r\n    /**\r\n        @notice Used to manually release ERC20 tokens from ERC20Safe.\r\n        @param tokenAddress Address of token contract to release.\r\n        @param recipient Address to release tokens to.\r\n        @param amount The amount of ERC20 tokens to release.\r\n     */\r\n    function withdraw(\r\n        address tokenAddress,\r\n        address recipient,\r\n        uint256 amount\r\n    ) external override onlyBridge {\r\n        releaseERC20(tokenAddress, recipient, amount);\r\n    }\r\n\r\n    function getAddressFromResourceId(bytes32 resourceID)\r\n        external\r\n        view\r\n        override\r\n        returns (address)\r\n    {\r\n        return _resourceIDToTokenContractAddress[resourceID];\r\n    }\r\n}\r\n",
  "sourcePath": "/Users/9to5mac/Desktop/code/latoken/ethereum-crosschain-contract/contracts/handlers/AaveHandler.sol",
  "compiler": {
    "name": "solc",
    "version": "0.6.4+commit.1dca32f3.Emscripten.clang"
  },
  "schemaVersion": "3.4.9",
  "updatedAt": "2022-10-10T12:49:27.229Z",
  "networkType": "ethereum",
  "devdoc": {
    "methods": {
      "approve(bytes32,address,uint256)": {
        "params": {
          "amountOrTokenID": "Either the amount of ERC20 tokens or the ERC721 token ID to approve.",
          "resourceID": "ResourceID to be used for approval.",
          "spender": "Spender address."
        }
      },
      "fundERC20(address,address,uint256)": {
        "params": {
          "amount": "Amount of tokens to transfer.",
          "owner": "Address of current token owner.",
          "tokenAddress": "Address of ERC20 to transfer."
        }
      },
      "initialize(address)": {
        "params": {
          "bridgeAddress": "Contract address of previously deployed Bridge."
        }
      },
      "ownableInit(address)": {
        "details": "Initializes the contract setting the deployer as the initial owner."
      },
      "owner()": {
        "details": "Returns the address of the current owner."
      },
      "renounceOwnership()": {
        "details": "Leaves the contract without owner. It will not be possible to call `onlyOwner` functions anymore. Can only be called by the current owner.     * NOTE: Renouncing ownership will leave the contract without an owner, thereby removing any functionality that is only available to the owner."
      },
      "setBurnable(address)": {
        "params": {
          "contractAddress": "Address of contract to be used when making or executing deposits."
        }
      },
      "setResource(bytes32,address)": {
        "params": {
          "contractAddress": "Address of contract to be called when a deposit is made and a deposited is executed.",
          "resourceID": "ResourceID to be used when making deposits."
        }
      },
      "transferOwnership(address)": {
        "details": "Transfers ownership of the contract to a new account (`newOwner`). Can only be called by the current owner."
      },
      "withdraw(address,address,uint256)": {
        "params": {
          "amount": "The amount of ERC20 tokens to release.",
          "recipient": "Address to release tokens to.",
          "tokenAddress": "Address of token contract to release."
        }
      }
    },
    "title": "Handles ERC20 deposits and deposit executions."
  },
  "userdoc": {
    "methods": {
      "approve(bytes32,address,uint256)": {
        "notice": "Used to approve spending tokens."
      },
      "fundERC20(address,address,uint256)": {
        "notice": "Used to transfer tokens into the safe to fund proposals."
      },
      "setBurnable(address)": {
        "notice": "First verifies {contractAddress} is whitelisted, then sets {_burnList}[{contractAddress}] to true."
      },
      "setResource(bytes32,address)": {
        "notice": "First verifies {_resourceIDToContractAddress}[{resourceID}] and {_contractAddressToResourceID}[{contractAddress}] are not already set, then sets {_resourceIDToContractAddress} with {contractAddress}, {_contractAddressToResourceID} with {resourceID}, and {_contractWhitelist} to true for {contractAddress}."
      },
      "withdraw(address,address,uint256)": {
        "notice": "Used to manually release ERC20 tokens from ERC20Safe."
      }
    },
    "notice": "This contract is intended to be used with the Bridge contract."
  }
}