{
  "contractName": "AmTokenHandler",
  "abi": [
    {
      "anonymous": false,
      "inputs": [
        {
          "indexed": true,
          "internalType": "address",
          "name": "recipientAddress",
          "type": "address"
        },
        {
          "indexed": false,
          "internalType": "uint256",
          "name": "amount",
          "type": "uint256"
        },
        {
          "indexed": true,
          "internalType": "bytes32",
          "name": "resourceID",
          "type": "bytes32"
        }
      ],
      "name": "AAVEWithdrawDone",
      "type": "event"
    },
    {
      "anonymous": false,
      "inputs": [
        {
          "indexed": true,
          "internalType": "address",
          "name": "previousOwner",
          "type": "address"
        },
        {
          "indexed": true,
          "internalType": "address",
          "name": "newOwner",
          "type": "address"
        }
      ],
      "name": "OwnershipTransferred",
      "type": "event"
    },
    {
      "inputs": [],
      "name": "AAVE_AVAX_LP_ADDR",
      "outputs": [
        {
          "internalType": "address",
          "name": "",
          "type": "address"
        }
      ],
      "stateMutability": "view",
      "type": "function"
    },
    {
      "inputs": [],
      "name": "AAVE_FUJI_LP_ADDR",
      "outputs": [
        {
          "internalType": "address",
          "name": "",
          "type": "address"
        }
      ],
      "stateMutability": "view",
      "type": "function"
    },
    {
      "inputs": [],
      "name": "LACHAIN_ID",
      "outputs": [
        {
          "internalType": "bytes8",
          "name": "",
          "type": "bytes8"
        }
      ],
      "stateMutability": "view",
      "type": "function"
    },
    {
      "inputs": [],
      "name": "_bridgeAddress",
      "outputs": [
        {
          "internalType": "address",
          "name": "",
          "type": "address"
        }
      ],
      "stateMutability": "view",
      "type": "function"
    },
    {
      "inputs": [
        {
          "internalType": "address",
          "name": "",
          "type": "address"
        }
      ],
      "name": "_burnList",
      "outputs": [
        {
          "internalType": "bool",
          "name": "",
          "type": "bool"
        }
      ],
      "stateMutability": "view",
      "type": "function"
    },
    {
      "inputs": [
        {
          "internalType": "address",
          "name": "",
          "type": "address"
        }
      ],
      "name": "_contractWhitelist",
      "outputs": [
        {
          "internalType": "bool",
          "name": "",
          "type": "bool"
        }
      ],
      "stateMutability": "view",
      "type": "function"
    },
    {
      "inputs": [
        {
          "internalType": "bytes8",
          "name": "",
          "type": "bytes8"
        },
        {
          "internalType": "uint64",
          "name": "",
          "type": "uint64"
        }
      ],
      "name": "_depositRecords",
      "outputs": [
        {
          "internalType": "address",
          "name": "_tokenAddress",
          "type": "address"
        },
        {
          "internalType": "bytes8",
          "name": "_destinationChainID",
          "type": "bytes8"
        },
        {
          "internalType": "bytes32",
          "name": "_resourceID",
          "type": "bytes32"
        },
        {
          "internalType": "address",
          "name": "_destinationRecipientAddress",
          "type": "address"
        },
        {
          "internalType": "address",
          "name": "_depositer",
          "type": "address"
        },
        {
          "internalType": "uint256",
          "name": "_amount",
          "type": "uint256"
        }
      ],
      "stateMutability": "view",
      "type": "function"
    },
    {
      "inputs": [],
      "name": "_isInitialised",
      "outputs": [
        {
          "internalType": "bool",
          "name": "",
          "type": "bool"
        }
      ],
      "stateMutability": "view",
      "type": "function"
    },
    {
      "inputs": [
        {
          "internalType": "bytes32",
          "name": "",
          "type": "bytes32"
        }
      ],
      "name": "_resourceIDToTokenContractAddress",
      "outputs": [
        {
          "internalType": "address",
          "name": "",
          "type": "address"
        }
      ],
      "stateMutability": "view",
      "type": "function"
    },
    {
      "inputs": [
        {
          "internalType": "address",
          "name": "",
          "type": "address"
        }
      ],
      "name": "_tokenContractAddressToResourceID",
      "outputs": [
        {
          "internalType": "bytes32",
          "name": "",
          "type": "bytes32"
        }
      ],
      "stateMutability": "view",
      "type": "function"
    },
    {
      "inputs": [],
      "name": "aaveHandler",
      "outputs": [
        {
          "internalType": "address",
          "name": "",
          "type": "address"
        }
      ],
      "stateMutability": "view",
      "type": "function"
    },
    {
      "inputs": [
        {
          "internalType": "bytes32",
          "name": "",
          "type": "bytes32"
        }
      ],
      "name": "amTokenResources",
      "outputs": [
        {
          "internalType": "bytes32",
          "name": "",
          "type": "bytes32"
        }
      ],
      "stateMutability": "view",
      "type": "function"
    },
    {
      "inputs": [
        {
          "internalType": "bytes32",
          "name": "resourceID",
          "type": "bytes32"
        },
        {
          "internalType": "address",
          "name": "spender",
          "type": "address"
        },
        {
          "internalType": "uint256",
          "name": "amountOrTokenID",
          "type": "uint256"
        }
      ],
      "name": "approve",
      "outputs": [],
      "stateMutability": "nonpayable",
      "type": "function"
    },
    {
      "inputs": [],
      "name": "erc20Handler",
      "outputs": [
        {
          "internalType": "address",
          "name": "",
          "type": "address"
        }
      ],
      "stateMutability": "view",
      "type": "function"
    },
    {
      "inputs": [
        {
          "internalType": "address",
          "name": "tokenAddress",
          "type": "address"
        },
        {
          "internalType": "address",
          "name": "owner",
          "type": "address"
        },
        {
          "internalType": "uint256",
          "name": "amount",
          "type": "uint256"
        }
      ],
      "name": "fundERC20",
      "outputs": [],
      "stateMutability": "nonpayable",
      "type": "function"
    },
    {
      "inputs": [
        {
          "internalType": "address",
          "name": "owner",
          "type": "address"
        }
      ],
      "name": "ownableInit",
      "outputs": [],
      "stateMutability": "nonpayable",
      "type": "function"
    },
    {
      "inputs": [],
      "name": "owner",
      "outputs": [
        {
          "internalType": "address",
          "name": "",
          "type": "address"
        }
      ],
      "stateMutability": "view",
      "type": "function"
    },
    {
      "inputs": [],
      "name": "renounceOwnership",
      "outputs": [],
      "stateMutability": "nonpayable",
      "type": "function"
    },
    {
      "inputs": [
        {
          "internalType": "address",
          "name": "contractAddress",
          "type": "address"
        }
      ],
      "name": "setBurnable",
      "outputs": [],
      "stateMutability": "nonpayable",
      "type": "function"
    },
    {
      "inputs": [
        {
          "internalType": "bytes32",
          "name": "resourceID",
          "type": "bytes32"
        },
        {
          "internalType": "address",
          "name": "contractAddress",
          "type": "address"
        }
      ],
      "name": "setResource",
      "outputs": [],
      "stateMutability": "nonpayable",
      "type": "function"
    },
    {
      "inputs": [
        {
          "internalType": "address",
          "name": "newOwner",
          "type": "address"
        }
      ],
      "name": "transferOwnership",
      "outputs": [],
      "stateMutability": "nonpayable",
      "type": "function"
    },
    {
      "inputs": [
        {
          "internalType": "address",
          "name": "bridgeAddress",
          "type": "address"
        }
      ],
      "name": "initialize",
      "outputs": [],
      "stateMutability": "nonpayable",
      "type": "function"
    },
    {
      "inputs": [
        {
          "internalType": "bytes8",
          "name": "_LACHAIN_ID",
          "type": "bytes8"
        }
      ],
      "name": "setLachainId",
      "outputs": [],
      "stateMutability": "nonpayable",
      "type": "function"
    },
    {
      "inputs": [
        {
          "internalType": "address",
          "name": "_aaveHandler",
          "type": "address"
        }
      ],
      "name": "setAaveHandler",
      "outputs": [],
      "stateMutability": "nonpayable",
      "type": "function"
    },
    {
      "inputs": [
        {
          "internalType": "address",
          "name": "_erc20Handler",
          "type": "address"
        }
      ],
      "name": "setErc20Handler",
      "outputs": [],
      "stateMutability": "nonpayable",
      "type": "function"
    },
    {
      "inputs": [
        {
          "internalType": "bytes32",
          "name": "amTokenResourceId",
          "type": "bytes32"
        },
        {
          "internalType": "bytes32",
          "name": "aaveTokenResourceId",
          "type": "bytes32"
        }
      ],
      "name": "setAmTokenResources",
      "outputs": [],
      "stateMutability": "nonpayable",
      "type": "function"
    },
    {
      "inputs": [
        {
          "internalType": "address",
          "name": "newBridgeAddress",
          "type": "address"
        }
      ],
      "name": "adminChangeBridgeAddress",
      "outputs": [],
      "stateMutability": "nonpayable",
      "type": "function"
    },
    {
      "inputs": [
        {
          "internalType": "uint64",
          "name": "depositNonce",
          "type": "uint64"
        },
        {
          "internalType": "bytes8",
          "name": "destId",
          "type": "bytes8"
        }
      ],
      "name": "getDepositRecord",
      "outputs": [
        {
          "components": [
            {
              "internalType": "address",
              "name": "_tokenAddress",
              "type": "address"
            },
            {
              "internalType": "bytes8",
              "name": "_destinationChainID",
              "type": "bytes8"
            },
            {
              "internalType": "bytes32",
              "name": "_resourceID",
              "type": "bytes32"
            },
            {
              "internalType": "address",
              "name": "_destinationRecipientAddress",
              "type": "address"
            },
            {
              "internalType": "address",
              "name": "_depositer",
              "type": "address"
            },
            {
              "internalType": "uint256",
              "name": "_amount",
              "type": "uint256"
            }
          ],
          "internalType": "struct AmTokenHandler.DepositRecord",
          "name": "",
          "type": "tuple"
        }
      ],
      "stateMutability": "view",
      "type": "function"
    },
    {
      "inputs": [
        {
          "internalType": "bytes32",
          "name": "resourceID",
          "type": "bytes32"
        },
        {
          "internalType": "bytes8",
          "name": "destinationChainID",
          "type": "bytes8"
        },
        {
          "internalType": "uint64",
          "name": "depositNonce",
          "type": "uint64"
        },
        {
          "internalType": "address",
          "name": "depositer",
          "type": "address"
        },
        {
          "internalType": "address",
          "name": "recipientAddress",
          "type": "address"
        },
        {
          "internalType": "uint256",
          "name": "amount",
          "type": "uint256"
        },
        {
          "internalType": "bytes",
          "name": "params",
          "type": "bytes"
        }
      ],
      "name": "deposit",
      "outputs": [
        {
          "internalType": "address",
          "name": "",
          "type": "address"
        }
      ],
      "stateMutability": "nonpayable",
      "type": "function"
    },
    {
      "inputs": [
        {
          "internalType": "bytes32",
          "name": "resourceID",
          "type": "bytes32"
        },
        {
          "internalType": "address",
          "name": "recipientAddress",
          "type": "address"
        },
        {
          "internalType": "uint256",
          "name": "amount",
          "type": "uint256"
        },
        {
          "internalType": "bytes",
          "name": "params",
          "type": "bytes"
        }
      ],
      "name": "executeProposal",
      "outputs": [],
      "stateMutability": "nonpayable",
      "type": "function"
    },
    {
      "inputs": [
        {
          "internalType": "address",
          "name": "tokenAddress",
          "type": "address"
        },
        {
          "internalType": "address",
          "name": "recipient",
          "type": "address"
        },
        {
          "internalType": "uint256",
          "name": "amount",
          "type": "uint256"
        }
      ],
      "name": "withdraw",
      "outputs": [],
      "stateMutability": "nonpayable",
      "type": "function"
    },
    {
      "inputs": [
        {
          "internalType": "bytes32",
          "name": "resourceID",
          "type": "bytes32"
        }
      ],
      "name": "getAddressFromResourceId",
      "outputs": [
        {
          "internalType": "address",
          "name": "",
          "type": "address"
        }
      ],
      "stateMutability": "view",
      "type": "function"
    }
  ],
  "bytecode": "0x608060405234801561001057600080fd5b50612993806100206000396000f3fe608060405234801561001057600080fd5b50600436106101f05760003560e01c80638da5cb5b1161010f578063cd4187e1116100a2578063e7077de011610071578063e7077de0146105a8578063ea439b2b146105c4578063f10d9101146105e0578063f2fde38b14610610576101f0565b8063cd4187e114610534578063d1192c9514610550578063d9caed121461056e578063dd2e8ec31461058a576101f0565b8063b8fa3736116100de578063b8fa3736146104b0578063bf1ed1eb146104cc578063c4d66de8146104e8578063c8ba6c8714610504576101f0565b80638da5cb5b1461042857806395601f0914610446578063996c9c2314610462578063a7a3fb4014610480576101f0565b80634ea2814311610187578063728e218f11610156578063728e218f1461037757806375cd9cce1461039357806378f6a94c146103c35780637f79bea8146103f8576101f0565b80634ea281431461030357806361af68841461031f5780636a70d0811461033d578063715018a61461036d576101f0565b8063292f3a68116101c3578063292f3a681461027b578063318c136e1461029757806334143cd7146102b5578063433f68cc146102e5576101f0565b806307b7ed99146101f55780630a6d55d814610211578063138bbc1a146102415780631cb9e2621461025d575b600080fd5b61020f600480360381019061020a9190611e9d565b61062c565b005b61022b60048036038101906102269190611f3e565b610640565b6040516102389190612548565b60405180910390f35b61025b60048036038101906102569190612168565b610673565b005b610265610714565b6040516102729190612548565b60405180910390f35b61029560048036038101906102909190611e9d565b61073a565b005b61029f6107f9565b6040516102ac9190612548565b60405180910390f35b6102cf60048036038101906102ca91906121f6565b61081e565b6040516102dc91906127b1565b60405180910390f35b6102ed610a0a565b6040516102fa9190612548565b60405180910390f35b61031d60048036038101906103189190611e9d565b610a30565b005b610327610af0565b6040516103349190612691565b60405180910390f35b61035760048036038101906103529190611e9d565b610b03565b604051610364919061265b565b60405180910390f35b610375610b23565b005b610391600480360381019061038c9190611ff2565b610c60565b005b6103ad60048036038101906103a891906120ae565b610e88565b6040516103ba9190612548565b60405180910390f35b6103dd60048036038101906103d89190612191565b6111e1565b6040516103ef9695949392919061259a565b60405180910390f35b610412600480360381019061040d9190611e9d565b611297565b60405161041f919061265b565b60405180910390f35b6104306112b7565b60405161043d9190612548565b60405180910390f35b610460600480360381019061045b9190611ec6565b6112e1565b005b61046a6112f8565b6040516104779190612548565b60405180910390f35b61049a60048036038101906104959190611f3e565b611310565b6040516104a79190612548565b60405180910390f35b6104ca60048036038101906104c59190611f67565b61134d565b005b6104e660048036038101906104e19190611fa3565b611363565b005b61050260048036038101906104fd9190611e9d565b611368565b005b61051e60048036038101906105199190611e9d565b6113da565b60405161052b9190612676565b60405180910390f35b61054e60048036038101906105499190612072565b6113f2565b005b61055861148a565b6040516105659190612548565b60405180910390f35b61058860048036038101906105839190611ec6565b6114a2565b005b6105926114ba565b60405161059f919061265b565b60405180910390f35b6105c260048036038101906105bd9190611e9d565b6114cd565b005b6105de60048036038101906105d99190611e9d565b61158d565b005b6105fa60048036038101906105f59190611f3e565b611661565b6040516106079190612676565b60405180910390f35b61062a60048036038101906106259190611e9d565b611679565b005b6106346117ef565b61063d81611880565b50565b60016020528060005260406000206000915054906101000a900473ffffffffffffffffffffffffffffffffffffffff1681565b61067b611967565b73ffffffffffffffffffffffffffffffffffffffff166106996112b7565b73ffffffffffffffffffffffffffffffffffffffff16146106ef576040517f08c379a00000000000000000000000000000000000000000000000000000000081526004016106e690612771565b60405180910390fd5b80600560156101000a81548167ffffffffffffffff021916908360c01c021790555050565b600760009054906101000a900473ffffffffffffffffffffffffffffffffffffffff1681565b610742611967565b73ffffffffffffffffffffffffffffffffffffffff166107606112b7565b73ffffffffffffffffffffffffffffffffffffffff16146107b6576040517f08c379a00000000000000000000000000000000000000000000000000000000081526004016107ad90612771565b60405180910390fd5b806000806101000a81548173ffffffffffffffffffffffffffffffffffffffff021916908373ffffffffffffffffffffffffffffffffffffffff16021790555050565b6000809054906101000a900473ffffffffffffffffffffffffffffffffffffffff1681565b610826611d2a565b600860008377ffffffffffffffffffffffffffffffffffffffffffffffff191677ffffffffffffffffffffffffffffffffffffffffffffffff1916815260200190815260200160002060008467ffffffffffffffff1667ffffffffffffffff1681526020019081526020016000206040518060c00160405290816000820160009054906101000a900473ffffffffffffffffffffffffffffffffffffffff1673ffffffffffffffffffffffffffffffffffffffff1673ffffffffffffffffffffffffffffffffffffffff1681526020016000820160149054906101000a900460c01b77ffffffffffffffffffffffffffffffffffffffffffffffff191677ffffffffffffffffffffffffffffffffffffffffffffffff19168152602001600182015481526020016002820160009054906101000a900473ffffffffffffffffffffffffffffffffffffffff1673ffffffffffffffffffffffffffffffffffffffff1673ffffffffffffffffffffffffffffffffffffffff1681526020016003820160009054906101000a900473ffffffffffffffffffffffffffffffffffffffff1673ffffffffffffffffffffffffffffffffffffffff1673ffffffffffffffffffffffffffffffffffffffff168152602001600482015481525050905092915050565b600660009054906101000a900473ffffffffffffffffffffffffffffffffffffffff1681565b610a38611967565b73ffffffffffffffffffffffffffffffffffffffff16610a566112b7565b73ffffffffffffffffffffffffffffffffffffffff1614610aac576040517f08c379a0000000000000000000000000000000000000000000000000000000008152600401610aa390612771565b60405180910390fd5b80600660006101000a81548173ffffffffffffffffffffffffffffffffffffffff021916908373ffffffffffffffffffffffffffffffffffffffff16021790555050565b600560159054906101000a900460c01b81565b60046020528060005260406000206000915054906101000a900460ff1681565b610b2b611967565b73ffffffffffffffffffffffffffffffffffffffff16610b496112b7565b73ffffffffffffffffffffffffffffffffffffffff1614610b9f576040517f08c379a0000000000000000000000000000000000000000000000000000000008152600401610b9690612771565b60405180910390fd5b600073ffffffffffffffffffffffffffffffffffffffff16600560009054906101000a900473ffffffffffffffffffffffffffffffffffffffff1673ffffffffffffffffffffffffffffffffffffffff167f8be0079c531659141344cd1fd0a4f28419497f9722a3daafe3b4186f6b6457e060405160405180910390a36000600560006101000a81548173ffffffffffffffffffffffffffffffffffffffff021916908373ffffffffffffffffffffffffffffffffffffffff160217905550565b610c686117ef565b6000600160006009600089815260200190815260200160002054815260200190815260200160002060009054906101000a900473ffffffffffffffffffffffffffffffffffffffff1690506000734f01aed16d97e3ab5ab2b501154dc9bb0f1a5a2c73ffffffffffffffffffffffffffffffffffffffff166369328dec8387600760009054906101000a900473ffffffffffffffffffffffffffffffffffffffff166040518463ffffffff1660e01b8152600401610d2893929190612624565b602060405180830381600087803b158015610d4257600080fd5b505af1158015610d56573d6000803e3d6000fd5b505050506040513d601f19601f82011682018060405250810190610d7a91906121cd565b90506000809054906101000a900473ffffffffffffffffffffffffffffffffffffffff1673ffffffffffffffffffffffffffffffffffffffff16638ece6f27600560159054906101000a900460c01b600960008b815260200190815260200160002054848a6040518563ffffffff1660e01b8152600401610dfe94939291906126ac565b600060405180830381600087803b158015610e1857600080fd5b505af1158015610e2c573d6000803e3d6000fd5b50505050868673ffffffffffffffffffffffffffffffffffffffff167f04145427a3ba453ebcbe30a1dd826d3f5286b4a30ab93fb1a5b77b755a3229f883604051610e7791906127cc565b60405180910390a350505050505050565b6000610e926117ef565b6000600160008b815260200190815260200160002060009054906101000a900473ffffffffffffffffffffffffffffffffffffffff169050600360008273ffffffffffffffffffffffffffffffffffffffff1673ffffffffffffffffffffffffffffffffffffffff16815260200190815260200160002060009054906101000a900460ff16610f56576040517f08c379a0000000000000000000000000000000000000000000000000000000008152600401610f4d90612791565b60405180910390fd5b600460008273ffffffffffffffffffffffffffffffffffffffff1673ffffffffffffffffffffffffffffffffffffffff16815260200190815260200160002060009054906101000a900460ff1615610fb857610fb381888761196f565b610fc5565b610fc4818830886119e7565b5b6040518060c001604052808273ffffffffffffffffffffffffffffffffffffffff1681526020018a77ffffffffffffffffffffffffffffffffffffffffffffffff191681526020018b81526020018773ffffffffffffffffffffffffffffffffffffffff1681526020018873ffffffffffffffffffffffffffffffffffffffff16815260200186815250600860008b77ffffffffffffffffffffffffffffffffffffffffffffffff191677ffffffffffffffffffffffffffffffffffffffffffffffff1916815260200190815260200160002060008a67ffffffffffffffff1667ffffffffffffffff16815260200190815260200160002060008201518160000160006101000a81548173ffffffffffffffffffffffffffffffffffffffff021916908373ffffffffffffffffffffffffffffffffffffffff16021790555060208201518160000160146101000a81548167ffffffffffffffff021916908360c01c02179055506040820151816001015560608201518160020160006101000a81548173ffffffffffffffffffffffffffffffffffffffff021916908373ffffffffffffffffffffffffffffffffffffffff16021790555060808201518160030160006101000a81548173ffffffffffffffffffffffffffffffffffffffff021916908373ffffffffffffffffffffffffffffffffffffffff16021790555060a082015181600401559050508091505098975050505050505050565b6008602052816000526040600020602052806000526040600020600091509150508060000160009054906101000a900473ffffffffffffffffffffffffffffffffffffffff16908060000160149054906101000a900460c01b908060010154908060020160009054906101000a900473ffffffffffffffffffffffffffffffffffffffff16908060030160009054906101000a900473ffffffffffffffffffffffffffffffffffffffff16908060040154905086565b60036020528060005260406000206000915054906101000a900460ff1681565b6000600560009054906101000a900473ffffffffffffffffffffffffffffffffffffffff16905090565b60008390506112f2818430856119ff565b50505050565b734f01aed16d97e3ab5ab2b501154dc9bb0f1a5a2c81565b60006001600083815260200190815260200160002060009054906101000a900473ffffffffffffffffffffffffffffffffffffffff169050919050565b6113556117ef565b61135f8282611a88565b5050565b505050565b806000806101000a81548173ffffffffffffffffffffffffffffffffffffffff021916908373ffffffffffffffffffffffffffffffffffffffff160217905550601960c01b600560156101000a81548167ffffffffffffffff021916908360c01c02179055506113d73361158d565b50565b60026020528060005260406000206000915090505481565b6113fa611967565b73ffffffffffffffffffffffffffffffffffffffff166114186112b7565b73ffffffffffffffffffffffffffffffffffffffff161461146e576040517f08c379a000000000000000000000000000000000000000000000000000000000815260040161146590612771565b60405180910390fd5b8060096000848152602001908152602001600020819055505050565b7376cc67ff2cc77821a70ed14321111ce381c2594d81565b6114aa6117ef565b6114b5838383611b7a565b505050565b600560149054906101000a900460ff1681565b6114d5611967565b73ffffffffffffffffffffffffffffffffffffffff166114f36112b7565b73ffffffffffffffffffffffffffffffffffffffff1614611549576040517f08c379a000000000000000000000000000000000000000000000000000000000815260040161154090612771565b60405180910390fd5b80600760006101000a81548173ffffffffffffffffffffffffffffffffffffffff021916908373ffffffffffffffffffffffffffffffffffffffff16021790555050565b600560149054906101000a900460ff16156115a757600080fd5b80600560006101000a81548173ffffffffffffffffffffffffffffffffffffffff021916908373ffffffffffffffffffffffffffffffffffffffff1602179055506001600560146101000a81548160ff0219169083151502179055508073ffffffffffffffffffffffffffffffffffffffff16600073ffffffffffffffffffffffffffffffffffffffff167f8be0079c531659141344cd1fd0a4f28419497f9722a3daafe3b4186f6b6457e060405160405180910390a350565b60096020528060005260406000206000915090505481565b611681611967565b73ffffffffffffffffffffffffffffffffffffffff1661169f6112b7565b73ffffffffffffffffffffffffffffffffffffffff16146116f5576040517f08c379a00000000000000000000000000000000000000000000000000000000081526004016116ec90612771565b60405180910390fd5b600073ffffffffffffffffffffffffffffffffffffffff168173ffffffffffffffffffffffffffffffffffffffff16141561172f57600080fd5b8073ffffffffffffffffffffffffffffffffffffffff16600560009054906101000a900473ffffffffffffffffffffffffffffffffffffffff1673ffffffffffffffffffffffffffffffffffffffff167f8be0079c531659141344cd1fd0a4f28419497f9722a3daafe3b4186f6b6457e060405160405180910390a380600560006101000a81548173ffffffffffffffffffffffffffffffffffffffff021916908373ffffffffffffffffffffffffffffffffffffffff16021790555050565b6000809054906101000a900473ffffffffffffffffffffffffffffffffffffffff1673ffffffffffffffffffffffffffffffffffffffff163373ffffffffffffffffffffffffffffffffffffffff161461187e576040517f08c379a000000000000000000000000000000000000000000000000000000000815260040161187590612711565b60405180910390fd5b565b600360008273ffffffffffffffffffffffffffffffffffffffff1673ffffffffffffffffffffffffffffffffffffffff16815260200190815260200160002060009054906101000a900460ff1661190c576040517f08c379a000000000000000000000000000000000000000000000000000000000815260040161190390612731565b60405180910390fd5b6001600460008373ffffffffffffffffffffffffffffffffffffffff1673ffffffffffffffffffffffffffffffffffffffff16815260200190815260200160002060006101000a81548160ff02191690831515021790555050565b600033905090565b60008390508073ffffffffffffffffffffffffffffffffffffffff166379cc679084846040518363ffffffff1660e01b81526004016119af9291906125fb565b600060405180830381600087803b1580156119c957600080fd5b505af11580156119dd573d6000803e3d6000fd5b5050505050505050565b60008490506119f8818585856119ff565b5050505050565b611a82846323b872dd60e01b858585604051602401611a2093929190612563565b604051602081830303815290604052907bffffffffffffffffffffffffffffffffffffffffffffffffffffffff19166020820180517bffffffffffffffffffffffffffffffffffffffffffffffffffffffff8381831617835250505050611b90565b50505050565b806001600084815260200190815260200160002060006101000a81548173ffffffffffffffffffffffffffffffffffffffff021916908373ffffffffffffffffffffffffffffffffffffffff16021790555081600260008373ffffffffffffffffffffffffffffffffffffffff1673ffffffffffffffffffffffffffffffffffffffff168152602001908152602001600020819055506001600360008373ffffffffffffffffffffffffffffffffffffffff1673ffffffffffffffffffffffffffffffffffffffff16815260200190815260200160002060006101000a81548160ff0219169083151502179055505050565b6000839050611b8a818484611ca4565b50505050565b600060608373ffffffffffffffffffffffffffffffffffffffff1683604051611bb99190612531565b6000604051808303816000865af19150503d8060008114611bf6576040519150601f19603f3d011682016040523d82523d6000602084013e611bfb565b606091505b509150915081611c40576040517f08c379a0000000000000000000000000000000000000000000000000000000008152600401611c3790612751565b60405180910390fd5b600081511115611c9e5780806020019051810190611c5e9190611f15565b611c9d576040517f08c379a0000000000000000000000000000000000000000000000000000000008152600401611c94906126f1565b60405180910390fd5b5b50505050565b611d258363a9059cbb60e01b8484604051602401611cc39291906125fb565b604051602081830303815290604052907bffffffffffffffffffffffffffffffffffffffffffffffffffffffff19166020820180517bffffffffffffffffffffffffffffffffffffffffffffffffffffffff8381831617835250505050611b90565b505050565b6040518060c00160405280600073ffffffffffffffffffffffffffffffffffffffff168152602001600077ffffffffffffffffffffffffffffffffffffffffffffffff1916815260200160008019168152602001600073ffffffffffffffffffffffffffffffffffffffff168152602001600073ffffffffffffffffffffffffffffffffffffffff168152602001600081525090565b600081359050611dcf816128d3565b92915050565b600081519050611de4816128ea565b92915050565b600081359050611df981612901565b92915050565b600081359050611e0e81612918565b92915050565b60008083601f840112611e2657600080fd5b8235905067ffffffffffffffff811115611e3f57600080fd5b602083019150836001820283011115611e5757600080fd5b9250929050565b600081359050611e6d8161292f565b92915050565b600081519050611e828161292f565b92915050565b600081359050611e9781612946565b92915050565b600060208284031215611eaf57600080fd5b6000611ebd84828501611dc0565b91505092915050565b600080600060608486031215611edb57600080fd5b6000611ee986828701611dc0565b9350506020611efa86828701611dc0565b9250506040611f0b86828701611e5e565b9150509250925092565b600060208284031215611f2757600080fd5b6000611f3584828501611dd5565b91505092915050565b600060208284031215611f5057600080fd5b6000611f5e84828501611dea565b91505092915050565b60008060408385031215611f7a57600080fd5b6000611f8885828601611dea565b9250506020611f9985828601611dc0565b9150509250929050565b600080600060608486031215611fb857600080fd5b6000611fc686828701611dea565b9350506020611fd786828701611dc0565b9250506040611fe886828701611e5e565b9150509250925092565b60008060008060006080868803121561200a57600080fd5b600061201888828901611dea565b955050602061202988828901611dc0565b945050604061203a88828901611e5e565b935050606086013567ffffffffffffffff81111561205757600080fd5b61206388828901611e14565b92509250509295509295909350565b6000806040838503121561208557600080fd5b600061209385828601611dea565b92505060206120a485828601611dea565b9150509250929050565b60008060008060008060008060e0898b0312156120ca57600080fd5b60006120d88b828c01611dea565b98505060206120e98b828c01611dff565b97505060406120fa8b828c01611e88565b965050606061210b8b828c01611dc0565b955050608061211c8b828c01611dc0565b94505060a061212d8b828c01611e5e565b93505060c089013567ffffffffffffffff81111561214a57600080fd5b6121568b828c01611e14565b92509250509295985092959890939650565b60006020828403121561217a57600080fd5b600061218884828501611dff565b91505092915050565b600080604083850312156121a457600080fd5b60006121b285828601611dff565b92505060206121c385828601611e88565b9150509250929050565b6000602082840312156121df57600080fd5b60006121ed84828501611e73565b91505092915050565b6000806040838503121561220957600080fd5b600061221785828601611e88565b925050602061222885828601611dff565b9150509250929050565b61223b8161280e565b82525050565b61224a8161280e565b82525050565b61225981612820565b82525050565b6122688161282c565b82525050565b6122778161282c565b82525050565b61228681612836565b82525050565b61229581612836565b82525050565b60006122a6826127e7565b6122b081856127f2565b93506122c08185602086016128a0565b80840191505092915050565b60006122d96020836127fd565b91507f45524332303a206f7065726174696f6e20646964206e6f7420737563636565646000830152602082019050919050565b6000612319601e836127fd565b91507f73656e646572206d7573742062652062726964676520636f6e747261637400006000830152602082019050919050565b60006123596024836127fd565b91507f70726f766964656420636f6e7472616374206973206e6f742077686974656c6960008301527f73746564000000000000000000000000000000000000000000000000000000006020830152604082019050919050565b60006123bf6012836127fd565b91507f45524332303a2063616c6c206661696c656400000000000000000000000000006000830152602082019050919050565b60006123ff6016836127fd565b91507f73656e6465722073686f756c64206265206f776e6572000000000000000000006000830152602082019050919050565b600061243f6028836127fd565b91507f70726f766964656420746f6b656e41646472657373206973206e6f742077686960008301527f74656c69737465640000000000000000000000000000000000000000000000006020830152604082019050919050565b60c0820160008201516124ae6000850182612232565b5060208201516124c1602085018261227d565b5060408201516124d4604085018261225f565b5060608201516124e76060850182612232565b5060808201516124fa6080850182612232565b5060a082015161250d60a0850182612513565b50505050565b61251c81612882565b82525050565b61252b81612882565b82525050565b600061253d828461229b565b915081905092915050565b600060208201905061255d6000830184612241565b92915050565b60006060820190506125786000830186612241565b6125856020830185612241565b6125926040830184612522565b949350505050565b600060c0820190506125af6000830189612241565b6125bc602083018861228c565b6125c9604083018761226e565b6125d66060830186612241565b6125e36080830185612241565b6125f060a0830184612522565b979650505050505050565b60006040820190506126106000830185612241565b61261d6020830184612522565b9392505050565b60006060820190506126396000830186612241565b6126466020830185612522565b6126536040830184612241565b949350505050565b60006020820190506126706000830184612250565b92915050565b600060208201905061268b600083018461226e565b92915050565b60006020820190506126a6600083018461228c565b92915050565b60006080820190506126c1600083018761228c565b6126ce602083018661226e565b6126db6040830185612522565b6126e86060830184612241565b95945050505050565b6000602082019050818103600083015261270a816122cc565b9050919050565b6000602082019050818103600083015261272a8161230c565b9050919050565b6000602082019050818103600083015261274a8161234c565b9050919050565b6000602082019050818103600083015261276a816123b2565b9050919050565b6000602082019050818103600083015261278a816123f2565b9050919050565b600060208201905081810360008301526127aa81612432565b9050919050565b600060c0820190506127c66000830184612498565b92915050565b60006020820190506127e16000830184612522565b92915050565b600081519050919050565b600081905092915050565b600082825260208201905092915050565b600061281982612862565b9050919050565b60008115159050919050565b6000819050919050565b60007fffffffffffffffff00000000000000000000000000000000000000000000000082169050919050565b600073ffffffffffffffffffffffffffffffffffffffff82169050919050565b6000819050919050565b600067ffffffffffffffff82169050919050565b60005b838110156128be5780820151818401526020810190506128a3565b838111156128cd576000848401525b50505050565b6128dc8161280e565b81146128e757600080fd5b50565b6128f381612820565b81146128fe57600080fd5b50565b61290a8161282c565b811461291557600080fd5b50565b61292181612836565b811461292c57600080fd5b50565b61293881612882565b811461294357600080fd5b50565b61294f8161288c565b811461295a57600080fd5b5056fea2646970667358221220e0b4058bb149f28dce1955826bd323a4beabe0c20a0400d9e0092fc7b8923e2e64736f6c63430006040033",
  "source": "pragma solidity 0.6.4;\r\npragma experimental ABIEncoderV2;\r\n\r\nimport \"../interfaces/IDepositExecute.sol\";\r\nimport \"../interfaces/IERC20.sol\";\r\nimport \"../interfaces/ILendingPool.sol\";\r\nimport \"../interfaces/IBridge.sol\";\r\nimport \"./HandlerHelpers.sol\";\r\nimport \"../ERC20Safe.sol\";\r\nimport \"../ExampleToken.sol\";\r\nimport \"../utils/UpgradableOwnable.sol\";\r\n\r\n/**\r\n    @title Handles ERC20 deposits and deposit executions.\r\n    @notice This contract is intended to be used with the Bridge contract.\r\n */\r\ncontract AmTokenHandler is\r\n    IDepositExecute,\r\n    HandlerHelpers,\r\n    UpgradableOwnable,\r\n    ERC20Safe\r\n{\r\n    address public constant AAVE_AVAX_LP_ADDR =\r\n        0x4F01AeD16D97E3aB5ab2B501154DC9bb0F1A5A2C;\r\n    address public constant AAVE_FUJI_LP_ADDR =\r\n        0x76cc67FF2CC77821A70ED14321111Ce381C2594D;\r\n    bytes8 public LACHAIN_ID;\r\n    address public aaveHandler;\r\n    address public erc20Handler;\r\n\r\n    struct DepositRecord {\r\n        address _tokenAddress;\r\n        bytes8 _destinationChainID;\r\n        bytes32 _resourceID;\r\n        address _destinationRecipientAddress;\r\n        address _depositer;\r\n        uint256 _amount;\r\n    }\r\n\r\n    mapping(bytes8 => mapping(uint64 => DepositRecord)) public _depositRecords;\r\n\r\n    mapping(bytes32 => bytes32) public amTokenResources;\r\n\r\n    event AAVEWithdrawDone(\r\n        address indexed recipientAddress,\r\n        uint256 amount,\r\n        bytes32 indexed resourceID\r\n    );\r\n\r\n    /**\r\n        @param bridgeAddress Contract address of previously deployed Bridge.\r\n     */\r\n    function initialize(address bridgeAddress) public {\r\n        _bridgeAddress = bridgeAddress;\r\n        LACHAIN_ID = 0x0000000000000019;\r\n        ownableInit(msg.sender);\r\n    }\r\n\r\n    function setLachainId(bytes8 _LACHAIN_ID) external onlyOwner {\r\n        LACHAIN_ID = _LACHAIN_ID;\r\n    }\r\n\r\n    function setAaveHandler(address _aaveHandler) external onlyOwner {\r\n        aaveHandler = _aaveHandler;\r\n    }\r\n\r\n    function setErc20Handler(address _erc20Handler) external onlyOwner {\r\n        erc20Handler = _erc20Handler;\r\n    }\r\n\r\n    function setAmTokenResources(\r\n        bytes32 amTokenResourceId,\r\n        bytes32 aaveTokenResourceId\r\n    ) external onlyOwner {\r\n        amTokenResources[amTokenResourceId] = aaveTokenResourceId;\r\n    }\r\n\r\n    function adminChangeBridgeAddress(address newBridgeAddress)\r\n        external\r\n        onlyOwner\r\n    {\r\n        _bridgeAddress = newBridgeAddress;\r\n    }\r\n\r\n    function getDepositRecord(uint64 depositNonce, bytes8 destId)\r\n        external\r\n        view\r\n        returns (DepositRecord memory)\r\n    {\r\n        return _depositRecords[destId][depositNonce];\r\n    }\r\n\r\n    function deposit(\r\n        bytes32 resourceID,\r\n        bytes8 destinationChainID,\r\n        uint64 depositNonce,\r\n        address depositer,\r\n        address recipientAddress,\r\n        uint256 amount,\r\n        bytes calldata params\r\n    ) external override onlyBridge returns (address) {\r\n        address tokenAddress = _resourceIDToTokenContractAddress[resourceID];\r\n        require(\r\n            _contractWhitelist[tokenAddress],\r\n            \"provided tokenAddress is not whitelisted\"\r\n        );\r\n\r\n        if (_burnList[tokenAddress]) {\r\n            burnERC20(tokenAddress, depositer, amount);\r\n        } else {\r\n            lockERC20(tokenAddress, depositer, address(this), amount);\r\n        }\r\n\r\n        _depositRecords[destinationChainID][depositNonce] = DepositRecord(\r\n            tokenAddress,\r\n            destinationChainID,\r\n            resourceID,\r\n            recipientAddress,\r\n            depositer,\r\n            amount\r\n        );\r\n        return (tokenAddress);\r\n    }\r\n\r\n    function executeProposal(\r\n        bytes32 resourceID,\r\n        address recipientAddress,\r\n        uint256 amount,\r\n        bytes calldata params\r\n    ) external override onlyBridge {\r\n        address tokenAddress = _resourceIDToTokenContractAddress[\r\n            amTokenResources[resourceID]\r\n        ];\r\n\r\n        uint256 amountToWithdraw = ILendingPool(AAVE_AVAX_LP_ADDR).withdraw(\r\n            tokenAddress,\r\n            amount,\r\n            erc20Handler\r\n        );\r\n\r\n        IBridge(_bridgeAddress).internalDeposit(\r\n            LACHAIN_ID,\r\n            amTokenResources[resourceID],\r\n            amountToWithdraw,\r\n            recipientAddress\r\n        );\r\n\r\n        emit AAVEWithdrawDone(recipientAddress, amountToWithdraw, resourceID);\r\n    }\r\n\r\n    /**\r\n        @notice Used to manually release ERC20 tokens from ERC20Safe.\r\n        @param tokenAddress Address of token contract to release.\r\n        @param recipient Address to release tokens to.\r\n        @param amount The amount of ERC20 tokens to release.\r\n     */\r\n    function withdraw(\r\n        address tokenAddress,\r\n        address recipient,\r\n        uint256 amount\r\n    ) external override onlyBridge {\r\n        releaseERC20(tokenAddress, recipient, amount);\r\n    }\r\n\r\n    function getAddressFromResourceId(bytes32 resourceID)\r\n        external\r\n        view\r\n        override\r\n        returns (address)\r\n    {\r\n        return _resourceIDToTokenContractAddress[resourceID];\r\n    }\r\n}\r\n",
  "sourcePath": "/Users/9to5mac/Desktop/code/latoken/ethereum-crosschain-contract/contracts/handlers/AmTokenHandler.sol",
  "compiler": {
    "name": "solc",
    "version": "0.6.4+commit.1dca32f3.Emscripten.clang"
  },
  "schemaVersion": "3.4.9",
  "updatedAt": "2022-10-10T12:49:27.219Z",
  "networkType": "ethereum",
  "devdoc": {
    "methods": {
      "approve(bytes32,address,uint256)": {
        "params": {
          "amountOrTokenID": "Either the amount of ERC20 tokens or the ERC721 token ID to approve.",
          "resourceID": "ResourceID to be used for approval.",
          "spender": "Spender address."
        }
      },
      "fundERC20(address,address,uint256)": {
        "params": {
          "amount": "Amount of tokens to transfer.",
          "owner": "Address of current token owner.",
          "tokenAddress": "Address of ERC20 to transfer."
        }
      },
      "initialize(address)": {
        "params": {
          "bridgeAddress": "Contract address of previously deployed Bridge."
        }
      },
      "ownableInit(address)": {
        "details": "Initializes the contract setting the deployer as the initial owner."
      },
      "owner()": {
        "details": "Returns the address of the current owner."
      },
      "renounceOwnership()": {
        "details": "Leaves the contract without owner. It will not be possible to call `onlyOwner` functions anymore. Can only be called by the current owner.     * NOTE: Renouncing ownership will leave the contract without an owner, thereby removing any functionality that is only available to the owner."
      },
      "setBurnable(address)": {
        "params": {
          "contractAddress": "Address of contract to be used when making or executing deposits."
        }
      },
      "setResource(bytes32,address)": {
        "params": {
          "contractAddress": "Address of contract to be called when a deposit is made and a deposited is executed.",
          "resourceID": "ResourceID to be used when making deposits."
        }
      },
      "transferOwnership(address)": {
        "details": "Transfers ownership of the contract to a new account (`newOwner`). Can only be called by the current owner."
      },
      "withdraw(address,address,uint256)": {
        "params": {
          "amount": "The amount of ERC20 tokens to release.",
          "recipient": "Address to release tokens to.",
          "tokenAddress": "Address of token contract to release."
        }
      }
    },
    "title": "Handles ERC20 deposits and deposit executions."
  },
  "userdoc": {
    "methods": {
      "approve(bytes32,address,uint256)": {
        "notice": "Used to approve spending tokens."
      },
      "fundERC20(address,address,uint256)": {
        "notice": "Used to transfer tokens into the safe to fund proposals."
      },
      "setBurnable(address)": {
        "notice": "First verifies {contractAddress} is whitelisted, then sets {_burnList}[{contractAddress}] to true."
      },
      "setResource(bytes32,address)": {
        "notice": "First verifies {_resourceIDToContractAddress}[{resourceID}] and {_contractAddressToResourceID}[{contractAddress}] are not already set, then sets {_resourceIDToContractAddress} with {contractAddress}, {_contractAddressToResourceID} with {resourceID}, and {_contractWhitelist} to true for {contractAddress}."
      },
      "withdraw(address,address,uint256)": {
        "notice": "Used to manually release ERC20 tokens from ERC20Safe."
      }
    },
    "notice": "This contract is intended to be used with the Bridge contract."
  }
}