{
  "contractName": "BeefyHandler",
  "abi": [
    {
      "anonymous": false,
      "inputs": [
        {
          "indexed": true,
          "internalType": "address",
          "name": "previousOwner",
          "type": "address"
        },
        {
          "indexed": true,
          "internalType": "address",
          "name": "newOwner",
          "type": "address"
        }
      ],
      "name": "OwnershipTransferred",
      "type": "event"
    },
    {
      "inputs": [],
      "name": "WETH",
      "outputs": [
        {
          "internalType": "address",
          "name": "",
          "type": "address"
        }
      ],
      "stateMutability": "view",
      "type": "function"
    },
    {
      "inputs": [],
      "name": "_bridgeAddress",
      "outputs": [
        {
          "internalType": "address",
          "name": "",
          "type": "address"
        }
      ],
      "stateMutability": "view",
      "type": "function"
    },
    {
      "inputs": [
        {
          "internalType": "address",
          "name": "",
          "type": "address"
        }
      ],
      "name": "_burnList",
      "outputs": [
        {
          "internalType": "bool",
          "name": "",
          "type": "bool"
        }
      ],
      "stateMutability": "view",
      "type": "function"
    },
    {
      "inputs": [
        {
          "internalType": "address",
          "name": "",
          "type": "address"
        }
      ],
      "name": "_contractWhitelist",
      "outputs": [
        {
          "internalType": "bool",
          "name": "",
          "type": "bool"
        }
      ],
      "stateMutability": "view",
      "type": "function"
    },
    {
      "inputs": [],
      "name": "_isInitialised",
      "outputs": [
        {
          "internalType": "bool",
          "name": "",
          "type": "bool"
        }
      ],
      "stateMutability": "view",
      "type": "function"
    },
    {
      "inputs": [
        {
          "internalType": "bytes32",
          "name": "",
          "type": "bytes32"
        }
      ],
      "name": "_resourceIDToTokenContractAddress",
      "outputs": [
        {
          "internalType": "address",
          "name": "",
          "type": "address"
        }
      ],
      "stateMutability": "view",
      "type": "function"
    },
    {
      "inputs": [
        {
          "internalType": "address",
          "name": "",
          "type": "address"
        }
      ],
      "name": "_tokenContractAddressToResourceID",
      "outputs": [
        {
          "internalType": "bytes32",
          "name": "",
          "type": "bytes32"
        }
      ],
      "stateMutability": "view",
      "type": "function"
    },
    {
      "inputs": [
        {
          "internalType": "address",
          "name": "tokenAddress",
          "type": "address"
        },
        {
          "internalType": "address",
          "name": "owner",
          "type": "address"
        },
        {
          "internalType": "uint256",
          "name": "amount",
          "type": "uint256"
        }
      ],
      "name": "fundERC20",
      "outputs": [],
      "stateMutability": "nonpayable",
      "type": "function"
    },
    {
      "inputs": [],
      "name": "lachainChainID",
      "outputs": [
        {
          "internalType": "bytes8",
          "name": "",
          "type": "bytes8"
        }
      ],
      "stateMutability": "view",
      "type": "function"
    },
    {
      "inputs": [],
      "name": "minimumAmount",
      "outputs": [
        {
          "internalType": "uint256",
          "name": "",
          "type": "uint256"
        }
      ],
      "stateMutability": "view",
      "type": "function"
    },
    {
      "inputs": [
        {
          "internalType": "address",
          "name": "owner",
          "type": "address"
        }
      ],
      "name": "ownableInit",
      "outputs": [],
      "stateMutability": "nonpayable",
      "type": "function"
    },
    {
      "inputs": [],
      "name": "owner",
      "outputs": [
        {
          "internalType": "address",
          "name": "",
          "type": "address"
        }
      ],
      "stateMutability": "view",
      "type": "function"
    },
    {
      "inputs": [],
      "name": "renounceOwnership",
      "outputs": [],
      "stateMutability": "nonpayable",
      "type": "function"
    },
    {
      "inputs": [],
      "name": "routerWrapper",
      "outputs": [
        {
          "internalType": "address",
          "name": "",
          "type": "address"
        }
      ],
      "stateMutability": "view",
      "type": "function"
    },
    {
      "inputs": [
        {
          "internalType": "address",
          "name": "",
          "type": "address"
        }
      ],
      "name": "routers",
      "outputs": [
        {
          "internalType": "contract IUniswapV2Router",
          "name": "",
          "type": "address"
        }
      ],
      "stateMutability": "view",
      "type": "function"
    },
    {
      "inputs": [
        {
          "internalType": "address",
          "name": "contractAddress",
          "type": "address"
        }
      ],
      "name": "setBurnable",
      "outputs": [],
      "stateMutability": "nonpayable",
      "type": "function"
    },
    {
      "inputs": [
        {
          "internalType": "bytes32",
          "name": "resourceID",
          "type": "bytes32"
        },
        {
          "internalType": "address",
          "name": "contractAddress",
          "type": "address"
        }
      ],
      "name": "setResource",
      "outputs": [],
      "stateMutability": "nonpayable",
      "type": "function"
    },
    {
      "inputs": [
        {
          "internalType": "address",
          "name": "",
          "type": "address"
        }
      ],
      "name": "tokenHandlers",
      "outputs": [
        {
          "internalType": "address",
          "name": "",
          "type": "address"
        }
      ],
      "stateMutability": "view",
      "type": "function"
    },
    {
      "inputs": [
        {
          "internalType": "address",
          "name": "newOwner",
          "type": "address"
        }
      ],
      "name": "transferOwnership",
      "outputs": [],
      "stateMutability": "nonpayable",
      "type": "function"
    },
    {
      "inputs": [],
      "name": "wrappedTokensUnwrapper",
      "outputs": [
        {
          "internalType": "address",
          "name": "",
          "type": "address"
        }
      ],
      "stateMutability": "view",
      "type": "function"
    },
    {
      "stateMutability": "payable",
      "type": "receive"
    },
    {
      "inputs": [
        {
          "internalType": "bytes8",
          "name": "_lachainChainID",
          "type": "bytes8"
        },
        {
          "internalType": "address",
          "name": "_WETH",
          "type": "address"
        },
        {
          "internalType": "address",
          "name": "bridgeAddress",
          "type": "address"
        }
      ],
      "name": "initialize",
      "outputs": [],
      "stateMutability": "nonpayable",
      "type": "function"
    },
    {
      "inputs": [
        {
          "internalType": "address",
          "name": "bridgeAddress",
          "type": "address"
        }
      ],
      "name": "setBridgeAddress",
      "outputs": [],
      "stateMutability": "nonpayable",
      "type": "function"
    },
    {
      "inputs": [
        {
          "internalType": "bytes8",
          "name": "_lachainChainID",
          "type": "bytes8"
        }
      ],
      "name": "setLachainID",
      "outputs": [],
      "stateMutability": "nonpayable",
      "type": "function"
    },
    {
      "inputs": [
        {
          "internalType": "address",
          "name": "_routerWrapper",
          "type": "address"
        }
      ],
      "name": "setRouterWrapper",
      "outputs": [],
      "stateMutability": "nonpayable",
      "type": "function"
    },
    {
      "inputs": [
        {
          "internalType": "address",
          "name": "_token",
          "type": "address"
        },
        {
          "internalType": "address",
          "name": "_tokenHandler",
          "type": "address"
        }
      ],
      "name": "setTokenHandler",
      "outputs": [],
      "stateMutability": "nonpayable",
      "type": "function"
    },
    {
      "inputs": [
        {
          "internalType": "address",
          "name": "_factory",
          "type": "address"
        },
        {
          "internalType": "address",
          "name": "_router",
          "type": "address"
        }
      ],
      "name": "setRouter",
      "outputs": [],
      "stateMutability": "nonpayable",
      "type": "function"
    },
    {
      "inputs": [
        {
          "internalType": "address",
          "name": "_wrappedTokensUnwrapper",
          "type": "address"
        }
      ],
      "name": "setWrappedTokensUnwrapper",
      "outputs": [],
      "stateMutability": "nonpayable",
      "type": "function"
    },
    {
      "inputs": [
        {
          "internalType": "bytes32",
          "name": "resourceID",
          "type": "bytes32"
        },
        {
          "internalType": "bytes8",
          "name": "destinationChainID",
          "type": "bytes8"
        },
        {
          "internalType": "uint64",
          "name": "depositNonce",
          "type": "uint64"
        },
        {
          "internalType": "address",
          "name": "depositer",
          "type": "address"
        },
        {
          "internalType": "address",
          "name": "recipientAddress",
          "type": "address"
        },
        {
          "internalType": "uint256",
          "name": "amount",
          "type": "uint256"
        },
        {
          "internalType": "bytes",
          "name": "params",
          "type": "bytes"
        }
      ],
      "name": "deposit",
      "outputs": [
        {
          "internalType": "address",
          "name": "",
          "type": "address"
        }
      ],
      "stateMutability": "nonpayable",
      "type": "function"
    },
    {
      "inputs": [
        {
          "internalType": "bytes32",
          "name": "resourceID",
          "type": "bytes32"
        },
        {
          "internalType": "address",
          "name": "recipientAddress",
          "type": "address"
        },
        {
          "internalType": "uint256",
          "name": "amount",
          "type": "uint256"
        },
        {
          "internalType": "bytes",
          "name": "params",
          "type": "bytes"
        }
      ],
      "name": "executeProposal",
      "outputs": [],
      "stateMutability": "nonpayable",
      "type": "function"
    },
    {
      "inputs": [
        {
          "internalType": "address",
          "name": "tokenAddress",
          "type": "address"
        },
        {
          "internalType": "address",
          "name": "recipient",
          "type": "address"
        },
        {
          "internalType": "uint256",
          "name": "amount",
          "type": "uint256"
        }
      ],
      "name": "withdraw",
      "outputs": [],
      "stateMutability": "nonpayable",
      "type": "function"
    },
    {
      "inputs": [
        {
          "internalType": "bytes32",
          "name": "resourceID",
          "type": "bytes32"
        }
      ],
      "name": "getAddressFromResourceId",
      "outputs": [
        {
          "internalType": "address",
          "name": "",
          "type": "address"
        }
      ],
      "stateMutability": "view",
      "type": "function"
    },
    {
      "inputs": [
        {
          "internalType": "bytes32",
          "name": "resourceID",
          "type": "bytes32"
        },
        {
          "internalType": "address",
          "name": "spender",
          "type": "address"
        },
        {
          "internalType": "uint256",
          "name": "amount",
          "type": "uint256"
        }
      ],
      "name": "approve",
      "outputs": [],
      "stateMutability": "nonpayable",
      "type": "function"
    }
  ],
  "bytecode": "0x608060405234801561001057600080fd5b50615023806100206000396000f3fe6080604052600436106101e75760003560e01c806391e93e5311610102578063c8ba6c8711610095578063dd7093df11610064578063dd7093df14610816578063e47b929614610841578063ea439b2b1461086a578063f2fde38b14610893576102f9565b8063c8ba6c8714610748578063ca8590e714610785578063d9caed12146107c2578063dd2e8ec3146107eb576102f9565b8063ad5c4648116100d1578063ad5c4648146106a0578063b8fa3736146106cb578063bb0c8298146106f4578063bf1ed1eb1461071f576102f9565b806391e93e53146105e657806395601f09146106115780639cfa029e1461063a578063a7a3fb4014610663576102f9565b806370b7c60b1161017a5780637f5a22f9116101495780637f5a22f9146105185780637f79bea81461054157806380dd9a1f1461057e5780638da5cb5b146105bb576102f9565b806370b7c60b14610472578063715018a61461049b578063728e218f146104b257806375cd9cce146104db576102f9565b8063318c136e116101b6578063318c136e146103b657806341d68b8f146103e157806356113d551461040a5780636a70d08114610435576102f9565b806307b7ed99146102fe5780630a6d55d8146103275780631348b21c1461036457806323c8bab51461038d576102f9565b366102f957600073ffffffffffffffffffffffffffffffffffffffff16600a60009054906101000a900473ffffffffffffffffffffffffffffffffffffffff1673ffffffffffffffffffffffffffffffffffffffff16141561029f57600660009054906101000a900473ffffffffffffffffffffffffffffffffffffffff1673ffffffffffffffffffffffffffffffffffffffff163373ffffffffffffffffffffffffffffffffffffffff161461029a57fe5b6102f7565b600a60009054906101000a900473ffffffffffffffffffffffffffffffffffffffff1673ffffffffffffffffffffffffffffffffffffffff163373ffffffffffffffffffffffffffffffffffffffff16146102f657fe5b5b005b600080fd5b34801561030a57600080fd5b5061032560048036038101906103209190613e37565b6108bc565b005b34801561033357600080fd5b5061034e60048036038101906103499190613f7e565b6108d0565b60405161035b919061481e565b60405180910390f35b34801561037057600080fd5b5061038b60048036038101906103869190613e37565b610903565b005b34801561039957600080fd5b506103b460048036038101906103af9190614195565b6109dc565b005b3480156103c257600080fd5b506103cb610acf565b6040516103d8919061481e565b60405180910390f35b3480156103ed57600080fd5b5061040860048036038101906104039190613e89565b610af4565b005b34801561041657600080fd5b5061041f610bf2565b60405161042c919061481e565b60405180910390f35b34801561044157600080fd5b5061045c60048036038101906104579190613e37565b610c18565b604051610469919061499a565b60405180910390f35b34801561047e57600080fd5b5061049960048036038101906104949190613e37565b610c38565b005b3480156104a757600080fd5b506104b0610cf8565b005b3480156104be57600080fd5b506104d960048036038101906104d49190614032565b610e35565b005b3480156104e757600080fd5b5061050260048036038101906104fd91906140b2565b610ea9565b60405161050f919061481e565b60405180910390f35b34801561052457600080fd5b5061053f600480360381019061053a9190613e37565b610ed1565b005b34801561054d57600080fd5b5061056860048036038101906105639190613e37565b610fa9565b604051610575919061499a565b60405180910390f35b34801561058a57600080fd5b506105a560048036038101906105a09190613e37565b610fc9565b6040516105b29190614a59565b60405180910390f35b3480156105c757600080fd5b506105d0610ffc565b6040516105dd919061481e565b60405180910390f35b3480156105f257600080fd5b506105fb611026565b60405161060891906149f9565b60405180910390f35b34801561061d57600080fd5b5061063860048036038101906106339190613ec5565b611039565b005b34801561064657600080fd5b50610661600480360381019061065c919061416c565b611050565b005b34801561066f57600080fd5b5061068a60048036038101906106859190613f7e565b61110a565b604051610697919061481e565b60405180910390f35b3480156106ac57600080fd5b506106b5611147565b6040516106c2919061481e565b60405180910390f35b3480156106d757600080fd5b506106f260048036038101906106ed9190613fa7565b61116d565b005b34801561070057600080fd5b50610709611183565b6040516107169190614c34565b60405180910390f35b34801561072b57600080fd5b5061074660048036038101906107419190613fe3565b611189565b005b34801561075457600080fd5b5061076f600480360381019061076a9190613e37565b61127f565b60405161077c91906149b5565b60405180910390f35b34801561079157600080fd5b506107ac60048036038101906107a79190613e37565b611297565b6040516107b9919061481e565b60405180910390f35b3480156107ce57600080fd5b506107e960048036038101906107e49190613ec5565b6112ca565b005b3480156107f757600080fd5b506108006112fb565b60405161080d919061499a565b60405180910390f35b34801561082257600080fd5b5061082b61130e565b604051610838919061481e565b60405180910390f35b34801561084d57600080fd5b5061086860048036038101906108639190613e89565b611334565b005b34801561087657600080fd5b50610891600480360381019061088c9190613e37565b61144b565b005b34801561089f57600080fd5b506108ba60048036038101906108b59190613e37565b61151f565b005b6108c4611695565b6108cd81611726565b50565b60016020528060005260406000206000915054906101000a900473ffffffffffffffffffffffffffffffffffffffff1681565b61090b61180d565b73ffffffffffffffffffffffffffffffffffffffff16610929610ffc565b73ffffffffffffffffffffffffffffffffffffffff161461097f576040517f08c379a000000000000000000000000000000000000000000000000000000000815260040161097690614bb4565b60405180910390fd5b600560149054906101000a900460ff1661099857600080fd5b80600760006101000a81548173ffffffffffffffffffffffffffffffffffffffff021916908373ffffffffffffffffffffffffffffffffffffffff16021790555050565b81600660006101000a81548173ffffffffffffffffffffffffffffffffffffffff021916908373ffffffffffffffffffffffffffffffffffffffff160217905550806000806101000a81548173ffffffffffffffffffffffffffffffffffffffff021916908373ffffffffffffffffffffffffffffffffffffffff16021790555082600660146101000a81548167ffffffffffffffff021916908360c01c02179055506000600760006101000a81548173ffffffffffffffffffffffffffffffffffffffff021916908373ffffffffffffffffffffffffffffffffffffffff160217905550610aca3361144b565b505050565b6000809054906101000a900473ffffffffffffffffffffffffffffffffffffffff1681565b610afc61180d565b73ffffffffffffffffffffffffffffffffffffffff16610b1a610ffc565b73ffffffffffffffffffffffffffffffffffffffff1614610b70576040517f08c379a0000000000000000000000000000000000000000000000000000000008152600401610b6790614bb4565b60405180910390fd5b80600960008473ffffffffffffffffffffffffffffffffffffffff1673ffffffffffffffffffffffffffffffffffffffff16815260200190815260200160002060006101000a81548173ffffffffffffffffffffffffffffffffffffffff021916908373ffffffffffffffffffffffffffffffffffffffff1602179055505050565b600a60009054906101000a900473ffffffffffffffffffffffffffffffffffffffff1681565b60046020528060005260406000206000915054906101000a900460ff1681565b610c4061180d565b73ffffffffffffffffffffffffffffffffffffffff16610c5e610ffc565b73ffffffffffffffffffffffffffffffffffffffff1614610cb4576040517f08c379a0000000000000000000000000000000000000000000000000000000008152600401610cab90614bb4565b60405180910390fd5b80600a60006101000a81548173ffffffffffffffffffffffffffffffffffffffff021916908373ffffffffffffffffffffffffffffffffffffffff16021790555050565b610d0061180d565b73ffffffffffffffffffffffffffffffffffffffff16610d1e610ffc565b73ffffffffffffffffffffffffffffffffffffffff1614610d74576040517f08c379a0000000000000000000000000000000000000000000000000000000008152600401610d6b90614bb4565b60405180910390fd5b600073ffffffffffffffffffffffffffffffffffffffff16600560009054906101000a900473ffffffffffffffffffffffffffffffffffffffff1673ffffffffffffffffffffffffffffffffffffffff167f8be0079c531659141344cd1fd0a4f28419497f9722a3daafe3b4186f6b6457e060405160405180910390a36000600560006101000a81548173ffffffffffffffffffffffffffffffffffffffff021916908373ffffffffffffffffffffffffffffffffffffffff160217905550565b610e3d611695565b600560149054906101000a900460ff16610e5657600080fd5b60008060028760001c81610e6657fe5b0614905060008082610e825760018860001c0360001b88610e8e565b8760018960001c0160001b5b91509150610e9f8282898987611815565b5050505050505050565b6000610eb3611695565b600560149054906101000a900460ff16610ecc57600080fd5b600080fd5b610ed961180d565b73ffffffffffffffffffffffffffffffffffffffff16610ef7610ffc565b73ffffffffffffffffffffffffffffffffffffffff1614610f4d576040517f08c379a0000000000000000000000000000000000000000000000000000000008152600401610f4490614bb4565b60405180910390fd5b600560149054906101000a900460ff16610f6657600080fd5b806000806101000a81548173ffffffffffffffffffffffffffffffffffffffff021916908373ffffffffffffffffffffffffffffffffffffffff16021790555050565b60036020528060005260406000206000915054906101000a900460ff1681565b60096020528060005260406000206000915054906101000a900473ffffffffffffffffffffffffffffffffffffffff1681565b6000600560009054906101000a900473ffffffffffffffffffffffffffffffffffffffff16905090565b600660149054906101000a900460c01b81565b600083905061104a81843085611dd3565b50505050565b61105861180d565b73ffffffffffffffffffffffffffffffffffffffff16611076610ffc565b73ffffffffffffffffffffffffffffffffffffffff16146110cc576040517f08c379a00000000000000000000000000000000000000000000000000000000081526004016110c390614bb4565b60405180910390fd5b600560149054906101000a900460ff166110e557600080fd5b80600660146101000a81548167ffffffffffffffff021916908360c01c021790555050565b60006001600083815260200190815260200160002060009054906101000a900473ffffffffffffffffffffffffffffffffffffffff169050919050565b600660009054906101000a900473ffffffffffffffffffffffffffffffffffffffff1681565b611175611695565b61117f8282611e5c565b5050565b6103e881565b611191611695565b600560149054906101000a900460ff166111aa57600080fd5b60006001600085815260200190815260200160002060009054906101000a900473ffffffffffffffffffffffffffffffffffffffff169050600360008273ffffffffffffffffffffffffffffffffffffffff1673ffffffffffffffffffffffffffffffffffffffff16815260200190815260200160002060009054906101000a900460ff1661126e576040517f08c379a000000000000000000000000000000000000000000000000000000000815260040161126590614bf4565b60405180910390fd5b611279818484611f4e565b50505050565b60026020528060005260406000206000915090505481565b60086020528060005260406000206000915054906101000a900473ffffffffffffffffffffffffffffffffffffffff1681565b6112d2611695565b600560149054906101000a900460ff166112eb57600080fd5b6112f6838383611f64565b505050565b600560149054906101000a900460ff1681565b600760009054906101000a900473ffffffffffffffffffffffffffffffffffffffff1681565b61133c61180d565b73ffffffffffffffffffffffffffffffffffffffff1661135a610ffc565b73ffffffffffffffffffffffffffffffffffffffff16146113b0576040517f08c379a00000000000000000000000000000000000000000000000000000000081526004016113a790614bb4565b60405180910390fd5b600560149054906101000a900460ff166113c957600080fd5b80600860008473ffffffffffffffffffffffffffffffffffffffff1673ffffffffffffffffffffffffffffffffffffffff16815260200190815260200160002060006101000a81548173ffffffffffffffffffffffffffffffffffffffff021916908373ffffffffffffffffffffffffffffffffffffffff1602179055505050565b600560149054906101000a900460ff161561146557600080fd5b80600560006101000a81548173ffffffffffffffffffffffffffffffffffffffff021916908373ffffffffffffffffffffffffffffffffffffffff1602179055506001600560146101000a81548160ff0219169083151502179055508073ffffffffffffffffffffffffffffffffffffffff16600073ffffffffffffffffffffffffffffffffffffffff167f8be0079c531659141344cd1fd0a4f28419497f9722a3daafe3b4186f6b6457e060405160405180910390a350565b61152761180d565b73ffffffffffffffffffffffffffffffffffffffff16611545610ffc565b73ffffffffffffffffffffffffffffffffffffffff161461159b576040517f08c379a000000000000000000000000000000000000000000000000000000000815260040161159290614bb4565b60405180910390fd5b600073ffffffffffffffffffffffffffffffffffffffff168173ffffffffffffffffffffffffffffffffffffffff1614156115d557600080fd5b8073ffffffffffffffffffffffffffffffffffffffff16600560009054906101000a900473ffffffffffffffffffffffffffffffffffffffff1673ffffffffffffffffffffffffffffffffffffffff167f8be0079c531659141344cd1fd0a4f28419497f9722a3daafe3b4186f6b6457e060405160405180910390a380600560006101000a81548173ffffffffffffffffffffffffffffffffffffffff021916908373ffffffffffffffffffffffffffffffffffffffff16021790555050565b6000809054906101000a900473ffffffffffffffffffffffffffffffffffffffff1673ffffffffffffffffffffffffffffffffffffffff163373ffffffffffffffffffffffffffffffffffffffff1614611724576040517f08c379a000000000000000000000000000000000000000000000000000000000815260040161171b90614a94565b60405180910390fd5b565b600360008273ffffffffffffffffffffffffffffffffffffffff1673ffffffffffffffffffffffffffffffffffffffff16815260200190815260200160002060009054906101000a900460ff166117b2576040517f08c379a00000000000000000000000000000000000000000000000000000000081526004016117a990614ad4565b60405180910390fd5b6001600460008373ffffffffffffffffffffffffffffffffffffffff1673ffffffffffffffffffffffffffffffffffffffff16815260200190815260200160002060006101000a81548160ff02191690831515021790555050565b600033905090565b60006001600087815260200190815260200160002060009054906101000a900473ffffffffffffffffffffffffffffffffffffffff16905060006001600087815260200190815260200160002060009054906101000a900473ffffffffffffffffffffffffffffffffffffffff16905060008060009054906101000a900473ffffffffffffffffffffffffffffffffffffffff16905060008290506000808615611b1a57600660009054906101000a900473ffffffffffffffffffffffffffffffffffffffff1673ffffffffffffffffffffffffffffffffffffffff168673ffffffffffffffffffffffffffffffffffffffff161415611981578373ffffffffffffffffffffffffffffffffffffffff16636717ec728c8a6040518363ffffffff1660e01b815260040161194a9291906149d0565b600060405180830381600087803b15801561196457600080fd5b505af1158015611978573d6000803e3d6000fd5b505050506119ed565b6119ec86600860008973ffffffffffffffffffffffffffffffffffffffff1673ffffffffffffffffffffffffffffffffffffffff16815260200190815260200160002060009054906101000a900473ffffffffffffffffffffffffffffffffffffffff16308b611f7a565b5b611a88888773ffffffffffffffffffffffffffffffffffffffff166370a08231306040518263ffffffff1660e01b8152600401611a2a9190614839565b60206040518083038186803b158015611a4257600080fd5b505afa158015611a56573d6000803e3d6000fd5b505050506040513d601f19601f82011682018060405250810190611a7a9190614233565b611f9290919063ffffffff16565b91508273ffffffffffffffffffffffffffffffffffffffff166370a08231306040518263ffffffff1660e01b8152600401611ac39190614839565b60206040518083038186803b158015611adb57600080fd5b505afa158015611aef573d6000803e3d6000fd5b505050506040513d601f19601f82011682018060405250810190611b139190614233565b9050611ba6565b8573ffffffffffffffffffffffffffffffffffffffff166370a08231306040518263ffffffff1660e01b8152600401611b539190614839565b60206040518083038186803b158015611b6b57600080fd5b505afa158015611b7f573d6000803e3d6000fd5b505050506040513d601f19601f82011682018060405250810190611ba39190614233565b91505b611baf83611fe2565b73ffffffffffffffffffffffffffffffffffffffff168673ffffffffffffffffffffffffffffffffffffffff161415611bf357611bee86868a8a612202565b611c00565b611bff86868a8a6122fb565b5b611ca586611c9f848973ffffffffffffffffffffffffffffffffffffffff166370a08231306040518263ffffffff1660e01b8152600401611c419190614839565b60206040518083038186803b158015611c5957600080fd5b505afa158015611c6d573d6000803e3d6000fd5b505050506040513d601f19601f82011682018060405250810190611c919190614233565b611f9290919063ffffffff16565b8b612a6d565b8615611dc6578373ffffffffffffffffffffffffffffffffffffffff16638ece6f27600660149054906101000a900460c01b8c611d73858873ffffffffffffffffffffffffffffffffffffffff166370a08231306040518263ffffffff1660e01b8152600401611d159190614839565b60206040518083038186803b158015611d2d57600080fd5b505afa158015611d41573d6000803e3d6000fd5b505050506040513d601f19601f82011682018060405250810190611d659190614233565b611f9290919063ffffffff16565b8d6040518563ffffffff1660e01b8152600401611d939493929190614a14565b600060405180830381600087803b158015611dad57600080fd5b505af1158015611dc1573d6000803e3d6000fd5b505050505b5050505050505050505050565b611e56846323b872dd60e01b858585604051602401611df493929190614854565b604051602081830303815290604052907bffffffffffffffffffffffffffffffffffffffffffffffffffffffff19166020820180517bffffffffffffffffffffffffffffffffffffffffffffffffffffffff8381831617835250505050612f07565b50505050565b806001600084815260200190815260200160002060006101000a81548173ffffffffffffffffffffffffffffffffffffffff021916908373ffffffffffffffffffffffffffffffffffffffff16021790555081600260008373ffffffffffffffffffffffffffffffffffffffff1673ffffffffffffffffffffffffffffffffffffffff168152602001908152602001600020819055506001600360008373ffffffffffffffffffffffffffffffffffffffff1673ffffffffffffffffffffffffffffffffffffffff16815260200190815260200160002060006101000a81548160ff0219169083151502179055505050565b6000839050611f5e81848461301b565b50505050565b6000839050611f748184846130a1565b50505050565b6000849050611f8b81858585611dd3565b5050505050565b600082821115611fd7576040517f08c379a0000000000000000000000000000000000000000000000000000000008152600401611fce90614b54565b60405180910390fd5b818303905092915050565b60008173ffffffffffffffffffffffffffffffffffffffff166311b0b42d6040518163ffffffff1660e01b815260040160206040518083038186803b15801561202a57600080fd5b505afa92505050801561205b57506040513d601f19601f820116820180604052508101906120589190613e60565b60015b612168578173ffffffffffffffffffffffffffffffffffffffff16631f1fcd516040518163ffffffff1660e01b815260040160206040518083038186803b1580156120a557600080fd5b505afa9250505080156120d657506040513d601f19601f820116820180604052508101906120d39190613e60565b60015b61215f578173ffffffffffffffffffffffffffffffffffffffff1663fc0c546a6040518163ffffffff1660e01b815260040160206040518083038186803b15801561212057600080fd5b505afa158015612134573d6000803e3d6000fd5b505050506040513d601f19601f820116820180604052508101906121589190613e60565b90506121fd565b809150506121fd565b600660009054906101000a900473ffffffffffffffffffffffffffffffffffffffff1673ffffffffffffffffffffffffffffffffffffffff168173ffffffffffffffffffffffffffffffffffffffff16146121f8576040517f08c379a00000000000000000000000000000000000000000000000000000000081526004016121ef90614ab4565b60405180910390fd5b809150505b919050565b6000839050811561228857612218858585611f4e565b8073ffffffffffffffffffffffffffffffffffffffff1663b6b55f25846040518263ffffffff1660e01b81526004016122519190614c34565b600060405180830381600087803b15801561226b57600080fd5b505af115801561227f573d6000803e3d6000fd5b505050506122f4565b8073ffffffffffffffffffffffffffffffffffffffff16632e1a7d4d846040518263ffffffff1660e01b81526004016122c19190614c34565b600060405180830381600087803b1580156122db57600080fd5b505af11580156122ef573d6000803e3d6000fd5b505050505b5050505050565b600080600061230986613127565b92509250925060008773ffffffffffffffffffffffffffffffffffffffff168373ffffffffffffffffffffffffffffffffffffffff16630dfe16816040518163ffffffff1660e01b815260040160206040518083038186803b15801561236e57600080fd5b505afa158015612382573d6000803e3d6000fd5b505050506040513d601f19601f820116820180604052508101906123a69190613e60565b73ffffffffffffffffffffffffffffffffffffffff16149050808061247357508773ffffffffffffffffffffffffffffffffffffffff168373ffffffffffffffffffffffffffffffffffffffff1663d21220a76040518163ffffffff1660e01b815260040160206040518083038186803b15801561242357600080fd5b505afa158015612437573d6000803e3d6000fd5b505050506040513d601f19601f8201168201806040525081019061245b9190613e60565b73ffffffffffffffffffffffffffffffffffffffff16145b6124b2576040517f08c379a00000000000000000000000000000000000000000000000000000000081526004016124a990614c14565b60405180910390fd5b606060026040519080825280602002602001820160405280156124e45781602001602082028036833780820191505090505b509050851561270c578882612576578473ffffffffffffffffffffffffffffffffffffffff16630dfe16816040518163ffffffff1660e01b815260040160206040518083038186803b15801561253957600080fd5b505afa15801561254d573d6000803e3d6000fd5b505050506040513d601f19601f820116820180604052508101906125719190613e60565b6125f5565b8473ffffffffffffffffffffffffffffffffffffffff1663d21220a76040518163ffffffff1660e01b815260040160206040518083038186803b1580156125bc57600080fd5b505afa1580156125d0573d6000803e3d6000fd5b505050506040513d601f19601f820116820180604052508101906125f49190613e60565b5b8260008151811061260257fe5b602002602001018360018151811061261657fe5b602002602001018273ffffffffffffffffffffffffffffffffffffffff1673ffffffffffffffffffffffffffffffffffffffff168152508273ffffffffffffffffffffffffffffffffffffffff1673ffffffffffffffffffffffffffffffffffffffff168152505050600061268e8585848b87613290565b905061269b858a83611f4e565b8573ffffffffffffffffffffffffffffffffffffffff1663b6b55f25826040518263ffffffff1660e01b81526004016126d49190614c34565b600060405180830381600087803b1580156126ee57600080fd5b505af1158015612702573d6000803e3d6000fd5b5050505050612a62565b81612794578373ffffffffffffffffffffffffffffffffffffffff16630dfe16816040518163ffffffff1660e01b815260040160206040518083038186803b15801561275757600080fd5b505afa15801561276b573d6000803e3d6000fd5b505050506040513d601f19601f8201168201806040525081019061278f9190613e60565b612813565b8373ffffffffffffffffffffffffffffffffffffffff1663d21220a76040518163ffffffff1660e01b815260040160206040518083038186803b1580156127da57600080fd5b505afa1580156127ee573d6000803e3d6000fd5b505050506040513d601f19601f820116820180604052508101906128129190613e60565b5b898260008151811061282157fe5b602002602001018360018151811061283557fe5b602002602001018273ffffffffffffffffffffffffffffffffffffffff1673ffffffffffffffffffffffffffffffffffffffff168152508273ffffffffffffffffffffffffffffffffffffffff1673ffffffffffffffffffffffffffffffffffffffff16815250505060008473ffffffffffffffffffffffffffffffffffffffff166370a08231306040518263ffffffff1660e01b81526004016128d99190614839565b60206040518083038186803b1580156128f157600080fd5b505afa158015612905573d6000803e3d6000fd5b505050506040513d601f19601f820116820180604052508101906129299190614233565b90508573ffffffffffffffffffffffffffffffffffffffff16632e1a7d4d896040518263ffffffff1660e01b81526004016129649190614c34565b600060405180830381600087803b15801561297e57600080fd5b505af1158015612992573d6000803e3d6000fd5b50505050600080612a3e87612a38858a73ffffffffffffffffffffffffffffffffffffffff166370a08231306040518263ffffffff1660e01b81526004016129da9190614839565b60206040518083038186803b1580156129f257600080fd5b505afa158015612a06573d6000803e3d6000fd5b505050506040513d601f19601f82011682018060405250810190612a2a9190614233565b611f9290919063ffffffff16565b30613551565b91509150612a5d8686612a515783612a53565b825b6001873042613683565b505050505b505050505050505050565b60008060009054906101000a900473ffffffffffffffffffffffffffffffffffffffff1690506000831115612f01576000600260008673ffffffffffffffffffffffffffffffffffffffff1673ffffffffffffffffffffffffffffffffffffffff168152602001908152602001600020549050600660009054906101000a900473ffffffffffffffffffffffffffffffffffffffff1673ffffffffffffffffffffffffffffffffffffffff168573ffffffffffffffffffffffffffffffffffffffff161415612e1457600073ffffffffffffffffffffffffffffffffffffffff16600a60009054906101000a900473ffffffffffffffffffffffffffffffffffffffff1673ffffffffffffffffffffffffffffffffffffffff161415612c1f57600660009054906101000a900473ffffffffffffffffffffffffffffffffffffffff1673ffffffffffffffffffffffffffffffffffffffff16632e1a7d4d856040518263ffffffff1660e01b8152600401612be89190614c34565b600060405180830381600087803b158015612c0257600080fd5b505af1158015612c16573d6000803e3d6000fd5b50505050612da1565b600660009054906101000a900473ffffffffffffffffffffffffffffffffffffffff1673ffffffffffffffffffffffffffffffffffffffff1663a9059cbb600a60009054906101000a900473ffffffffffffffffffffffffffffffffffffffff16866040518363ffffffff1660e01b8152600401612c9e929190614909565b602060405180830381600087803b158015612cb857600080fd5b505af1158015612ccc573d6000803e3d6000fd5b505050506040513d601f19601f82011682018060405250810190612cf09190613f55565b50600a60009054906101000a900473ffffffffffffffffffffffffffffffffffffffff1673ffffffffffffffffffffffffffffffffffffffff166375f26e63600660009054906101000a900473ffffffffffffffffffffffffffffffffffffffff166040518263ffffffff1660e01b8152600401612d6e919061481e565b600060405180830381600087803b158015612d8857600080fd5b505af1158015612d9c573d6000803e3d6000fd5b505050505b8173ffffffffffffffffffffffffffffffffffffffff16636717ec728583876040518463ffffffff1660e01b8152600401612ddd9291906149d0565b6000604051808303818588803b158015612df657600080fd5b505af1158015612e0a573d6000803e3d6000fd5b5050505050612e7f565b612e7e85600860008873ffffffffffffffffffffffffffffffffffffffff1673ffffffffffffffffffffffffffffffffffffffff16815260200190815260200160002060009054906101000a900473ffffffffffffffffffffffffffffffffffffffff1686611f64565b5b8173ffffffffffffffffffffffffffffffffffffffff16638ece6f27600660149054906101000a900460c01b8387876040518563ffffffff1660e01b8152600401612ecd9493929190614a14565b600060405180830381600087803b158015612ee757600080fd5b505af1158015612efb573d6000803e3d6000fd5b50505050505b50505050565b600060608373ffffffffffffffffffffffffffffffffffffffff1683604051612f309190614807565b6000604051808303816000865af19150503d8060008114612f6d576040519150601f19603f3d011682016040523d82523d6000602084013e612f72565b606091505b509150915081612fb7576040517f08c379a0000000000000000000000000000000000000000000000000000000008152600401612fae90614b14565b60405180910390fd5b6000815111156130155780806020019051810190612fd59190613f55565b613014576040517f08c379a000000000000000000000000000000000000000000000000000000000815260040161300b90614a74565b60405180910390fd5b5b50505050565b61309c8363095ea7b360e01b848460405160240161303a929190614909565b604051602081830303815290604052907bffffffffffffffffffffffffffffffffffffffffffffffffffffffff19166020820180517bffffffffffffffffffffffffffffffffffffffffffffffffffffffff8381831617835250505050612f07565b505050565b6131228363a9059cbb60e01b84846040516024016130c0929190614909565b604051602081830303815290604052907bffffffffffffffffffffffffffffffffffffffffffffffffffffffff19166020820180517bffffffffffffffffffffffffffffffffffffffffffffffffffffffff8381831617835250505050612f07565b505050565b600080600083925061313883611fe2565b9150600960008373ffffffffffffffffffffffffffffffffffffffff1663c45a01556040518163ffffffff1660e01b815260040160206040518083038186803b15801561318457600080fd5b505afa158015613198573d6000803e3d6000fd5b505050506040513d601f19601f820116820180604052508101906131bc9190613e60565b73ffffffffffffffffffffffffffffffffffffffff1673ffffffffffffffffffffffffffffffffffffffff16815260200190815260200160002060009054906101000a900473ffffffffffffffffffffffffffffffffffffffff169050600073ffffffffffffffffffffffffffffffffffffffff168173ffffffffffffffffffffffffffffffffffffffff161415613289576040517f08c379a000000000000000000000000000000000000000000000000000000000815260040161328090614b34565b60405180910390fd5b9193909250565b60008060008773ffffffffffffffffffffffffffffffffffffffff16630902f1ac6040518163ffffffff1660e01b815260040160606040518083038186803b1580156132db57600080fd5b505afa1580156132ef573d6000803e3d6000fd5b505050506040513d601f19601f8201168201806040525081019061331391906141e4565b506dffffffffffffffffffffffffffff1691506dffffffffffffffffffffffffffff1691506103e88211801561334a57506103e881115b613389576040517f08c379a000000000000000000000000000000000000000000000000000000000815260040161338090614bd4565b60405180910390fd5b600084156133a45761339d888785856138a4565b90506133b3565b6133b0888784866138a4565b90505b60606133c4898360018b3042613683565b905061340b886000815181106133d657fe5b60200260200101518a613406846000815181106133ef57fe5b60200260200101518b611f9290919063ffffffff16565b611f4e565b61343e8860018151811061341b57fe5b60200260200101518a8360018151811061343157fe5b6020026020010151611f4e565b60008973ffffffffffffffffffffffffffffffffffffffff1663e8e337008a60008151811061346957fe5b60200260200101518b60018151811061347e57fe5b60200260200101516134ad8660008151811061349657fe5b60200260200101518d611f9290919063ffffffff16565b866001815181106134ba57fe5b602002602001015160018030426040518963ffffffff1660e01b81526004016134ea98979695949392919061488b565b606060405180830381600087803b15801561350457600080fd5b505af1158015613518573d6000803e3d6000fd5b505050506040513d601f19601f8201168201806040525081019061353c9190614298565b92505050809550505050505095945050505050565b60008061355f858686611f64565b8473ffffffffffffffffffffffffffffffffffffffff166389afcb44846040518263ffffffff1660e01b8152600401613598919061481e565b6040805180830381600087803b1580156135b157600080fd5b505af11580156135c5573d6000803e3d6000fd5b505050506040513d601f19601f820116820180604052508101906135e9919061425c565b80925081935050506103e8821015613636576040517f08c379a000000000000000000000000000000000000000000000000000000000815260040161362d90614b74565b60405180910390fd5b6103e881101561367b576040517f08c379a000000000000000000000000000000000000000000000000000000000815260040161367290614b94565b60405180910390fd5b935093915050565b6060600073ffffffffffffffffffffffffffffffffffffffff16600760009054906101000a900473ffffffffffffffffffffffffffffffffffffffff1673ffffffffffffffffffffffffffffffffffffffff16141561379a576136fb846000815181106136ec57fe5b60200260200101518888611f4e565b8673ffffffffffffffffffffffffffffffffffffffff166338ed173987878787876040518663ffffffff1660e01b815260040161373c959493929190614c4f565b600060405180830381600087803b15801561375657600080fd5b505af115801561376a573d6000803e3d6000fd5b505050506040513d6000823e3d601f19601f820116820180604052508101906137939190613f14565b905061389a565b6137db846000815181106137aa57fe5b6020026020010151600760009054906101000a900473ffffffffffffffffffffffffffffffffffffffff1688611f4e565b600760009054906101000a900473ffffffffffffffffffffffffffffffffffffffff1673ffffffffffffffffffffffffffffffffffffffff166365e8a7898888888888886040518763ffffffff1660e01b815260040161384096959493929190614932565b600060405180830381600087803b15801561385a57600080fd5b505af115801561386e573d6000803e3d6000fd5b505050506040513d6000823e3d601f19601f820116820180604052508101906138979190613f14565b90505b9695505050505050565b600080600285816138b157fe5b04905060008673ffffffffffffffffffffffffffffffffffffffff1663054d50d48387876040518463ffffffff1660e01b81526004016138f393929190614ca9565b60206040518083038186803b15801561390b57600080fd5b505afa92505050801561393c57506040513d601f19601f820116820180604052508101906139399190614233565b60015b6139d7578673ffffffffffffffffffffffffffffffffffffffff166352707d8c83878760016040518563ffffffff1660e01b81526004016139809493929190614ce0565b60206040518083038186803b15801561399857600080fd5b505afa1580156139ac573d6000803e3d6000fd5b505050506040513d601f19601f820116820180604052508101906139d09190614233565b90506139dc565b809150505b60008773ffffffffffffffffffffffffffffffffffffffff1663ad615dec84613a0e868a613ac690919063ffffffff16565b613a21868a611f9290919063ffffffff16565b6040518463ffffffff1660e01b8152600401613a3f93929190614ca9565b60206040518083038186803b158015613a5757600080fd5b505afa158015613a6b573d6000803e3d6000fd5b505050506040513d601f19601f82011682018060405250810190613a8f9190614233565b9050613ab9613aaa82848687020281613aa457fe5b04613b1b565b88611f9290919063ffffffff16565b9350505050949350505050565b600080828401905083811015613b11576040517f08c379a0000000000000000000000000000000000000000000000000000000008152600401613b0890614af4565b60405180910390fd5b8091505092915050565b600080821415613b2e5760009050613c93565b60008290506000600190507001000000000000000000000000000000008210613b6057608082901c9150604081901b90505b680100000000000000008210613b7f57604082901c9150602081901b90505b6401000000008210613b9a57602082901c9150601081901b90505b620100008210613bb357601082901c9150600881901b90505b6101008210613bcb57600882901c9150600481901b90505b60108210613be257600482901c9150600281901b90505b60088210613bf257600181901b90505b6001818581613bfd57fe5b048201901c90506001818581613c0f57fe5b048201901c90506001818581613c2157fe5b048201901c90506001818581613c3357fe5b048201901c90506001818581613c4557fe5b048201901c90506001818581613c5757fe5b048201901c90506001818581613c6957fe5b048201901c90506000818581613c7b57fe5b049050808210613c8b5780613c8d565b815b93505050505b919050565b600081359050613ca781614f35565b92915050565b600081519050613cbc81614f35565b92915050565b600082601f830112613cd357600080fd5b8151613ce6613ce182614d52565b614d25565b91508181835260208401935060208101905083856020840282011115613d0b57600080fd5b60005b83811015613d3b5781613d218882613df8565b845260208401935060208301925050600181019050613d0e565b5050505092915050565b600081519050613d5481614f4c565b92915050565b600081359050613d6981614f63565b92915050565b600081359050613d7e81614f7a565b92915050565b60008083601f840112613d9657600080fd5b8235905067ffffffffffffffff811115613daf57600080fd5b602083019150836001820283011115613dc757600080fd5b9250929050565b600081519050613ddd81614f91565b92915050565b600081359050613df281614fa8565b92915050565b600081519050613e0781614fa8565b92915050565b600081519050613e1c81614fbf565b92915050565b600081359050613e3181614fd6565b92915050565b600060208284031215613e4957600080fd5b6000613e5784828501613c98565b91505092915050565b600060208284031215613e7257600080fd5b6000613e8084828501613cad565b91505092915050565b60008060408385031215613e9c57600080fd5b6000613eaa85828601613c98565b9250506020613ebb85828601613c98565b9150509250929050565b600080600060608486031215613eda57600080fd5b6000613ee886828701613c98565b9350506020613ef986828701613c98565b9250506040613f0a86828701613de3565b9150509250925092565b600060208284031215613f2657600080fd5b600082015167ffffffffffffffff811115613f4057600080fd5b613f4c84828501613cc2565b91505092915050565b600060208284031215613f6757600080fd5b6000613f7584828501613d45565b91505092915050565b600060208284031215613f9057600080fd5b6000613f9e84828501613d5a565b91505092915050565b60008060408385031215613fba57600080fd5b6000613fc885828601613d5a565b9250506020613fd985828601613c98565b9150509250929050565b600080600060608486031215613ff857600080fd5b600061400686828701613d5a565b935050602061401786828701613c98565b925050604061402886828701613de3565b9150509250925092565b60008060008060006080868803121561404a57600080fd5b600061405888828901613d5a565b955050602061406988828901613c98565b945050604061407a88828901613de3565b935050606086013567ffffffffffffffff81111561409757600080fd5b6140a388828901613d84565b92509250509295509295909350565b60008060008060008060008060e0898b0312156140ce57600080fd5b60006140dc8b828c01613d5a565b98505060206140ed8b828c01613d6f565b97505060406140fe8b828c01613e22565b965050606061410f8b828c01613c98565b95505060806141208b828c01613c98565b94505060a06141318b828c01613de3565b93505060c089013567ffffffffffffffff81111561414e57600080fd5b61415a8b828c01613d84565b92509250509295985092959890939650565b60006020828403121561417e57600080fd5b600061418c84828501613d6f565b91505092915050565b6000806000606084860312156141aa57600080fd5b60006141b886828701613d6f565b93505060206141c986828701613c98565b92505060406141da86828701613c98565b9150509250925092565b6000806000606084860312156141f957600080fd5b600061420786828701613dce565b935050602061421886828701613dce565b925050604061422986828701613e0d565b9150509250925092565b60006020828403121561424557600080fd5b600061425384828501613df8565b91505092915050565b6000806040838503121561426f57600080fd5b600061427d85828601613df8565b925050602061428e85828601613df8565b9150509250929050565b6000806000606084860312156142ad57600080fd5b60006142bb86828701613df8565b93505060206142cc86828701613df8565b92505060406142dd86828701613df8565b9150509250925092565b60006142f3838361430e565b60208301905092915050565b61430881614e96565b82525050565b61431781614dda565b82525050565b61432681614dda565b82525050565b600061433782614d8a565b6143418185614dad565b935061434c83614d7a565b8060005b8381101561437d57815161436488826142e7565b975061436f83614da0565b925050600181019050614350565b5085935050505092915050565b61439381614dec565b82525050565b6143a281614df8565b82525050565b6143b181614e02565b82525050565b60006143c282614d95565b6143cc8185614dbe565b93506143dc818560208601614f02565b80840191505092915050565b6143f181614ea8565b82525050565b61440081614ecc565b82525050565b6000614413602083614dc9565b91507f45524332303a206f7065726174696f6e20646964206e6f7420737563636565646000830152602082019050919050565b6000614453601e83614dc9565b91507f73656e646572206d7573742062652062726964676520636f6e747261637400006000830152602082019050919050565b6000614493601c83614dc9565b91507f556e6b6e6f776e206e617469766520746f6b656e2077726170706572000000006000830152602082019050919050565b60006144d3602483614dc9565b91507f70726f766964656420636f6e7472616374206973206e6f742077686974656c6960008301527f73746564000000000000000000000000000000000000000000000000000000006020830152604082019050919050565b6000614539601b83614dc9565b91507f536166654d6174683a206164646974696f6e206f766572666c6f7700000000006000830152602082019050919050565b6000614579601283614dc9565b91507f45524332303a2063616c6c206661696c656400000000000000000000000000006000830152602082019050919050565b60006145b9601d83614dc9565b91507f556e6b6e6f776e206c6971756964697479207061697220726f757465720000006000830152602082019050919050565b60006145f9601e83614dc9565b91507f536166654d6174683a207375627472616374696f6e206f766572666c6f7700006000830152602082019050919050565b6000614639601583614dc9565b91507f494e53554646494349454e545f415f414d4f554e5400000000000000000000006000830152602082019050919050565b6000614679601583614dc9565b91507f494e53554646494349454e545f425f414d4f554e5400000000000000000000006000830152602082019050919050565b60006146b9601683614dc9565b91507f73656e6465722073686f756c64206265206f776e6572000000000000000000006000830152602082019050919050565b60006146f9601f83614dc9565b91507f4c6971756964697479207061697220726573657276657320746f6f206c6f77006000830152602082019050919050565b6000614739602883614dc9565b91507f70726f766964656420746f6b656e41646472657373206973206e6f742077686960008301527f74656c69737465640000000000000000000000000000000000000000000000006020830152604082019050919050565b600061479f602b83614dc9565b91507f4465736972656420746f6b656e206e6f742070726573656e7420696e206c697160008301527f75696469747920706169720000000000000000000000000000000000000000006020830152604082019050919050565b61480181614e68565b82525050565b600061481382846143b7565b915081905092915050565b6000602082019050614833600083018461431d565b92915050565b600060208201905061484e60008301846142ff565b92915050565b6000606082019050614869600083018661431d565b614876602083018561431d565b61488360408301846147f8565b949350505050565b6000610100820190506148a1600083018b61431d565b6148ae602083018a61431d565b6148bb60408301896147f8565b6148c860608301886147f8565b6148d560808301876143f7565b6148e260a08301866143f7565b6148ef60c08301856142ff565b6148fc60e08301846147f8565b9998505050505050505050565b600060408201905061491e600083018561431d565b61492b60208301846147f8565b9392505050565b600060c082019050614947600083018961431d565b61495460208301886147f8565b61496160408301876147f8565b8181036060830152614973818661432c565b9050614982608083018561431d565b61498f60a08301846147f8565b979650505050505050565b60006020820190506149af600083018461438a565b92915050565b60006020820190506149ca6000830184614399565b92915050565b60006040820190506149e56000830185614399565b6149f260208301846147f8565b9392505050565b6000602082019050614a0e60008301846143a8565b92915050565b6000608082019050614a2960008301876143a8565b614a366020830186614399565b614a4360408301856147f8565b614a50606083018461431d565b95945050505050565b6000602082019050614a6e60008301846143e8565b92915050565b60006020820190508181036000830152614a8d81614406565b9050919050565b60006020820190508181036000830152614aad81614446565b9050919050565b60006020820190508181036000830152614acd81614486565b9050919050565b60006020820190508181036000830152614aed816144c6565b9050919050565b60006020820190508181036000830152614b0d8161452c565b9050919050565b60006020820190508181036000830152614b2d8161456c565b9050919050565b60006020820190508181036000830152614b4d816145ac565b9050919050565b60006020820190508181036000830152614b6d816145ec565b9050919050565b60006020820190508181036000830152614b8d8161462c565b9050919050565b60006020820190508181036000830152614bad8161466c565b9050919050565b60006020820190508181036000830152614bcd816146ac565b9050919050565b60006020820190508181036000830152614bed816146ec565b9050919050565b60006020820190508181036000830152614c0d8161472c565b9050919050565b60006020820190508181036000830152614c2d81614792565b9050919050565b6000602082019050614c4960008301846147f8565b92915050565b600060a082019050614c6460008301886147f8565b614c7160208301876147f8565b8181036040830152614c83818661432c565b9050614c92606083018561431d565b614c9f60808301846147f8565b9695505050505050565b6000606082019050614cbe60008301866147f8565b614ccb60208301856147f8565b614cd860408301846147f8565b949350505050565b6000608082019050614cf560008301876147f8565b614d0260208301866147f8565b614d0f60408301856147f8565b614d1c60608301846143f7565b95945050505050565b6000604051905081810181811067ffffffffffffffff82111715614d4857600080fd5b8060405250919050565b600067ffffffffffffffff821115614d6957600080fd5b602082029050602081019050919050565b6000819050602082019050919050565b600081519050919050565b600081519050919050565b6000602082019050919050565b600082825260208201905092915050565b600081905092915050565b600082825260208201905092915050565b6000614de582614e48565b9050919050565b60008115159050919050565b6000819050919050565b60007fffffffffffffffff00000000000000000000000000000000000000000000000082169050919050565b60006dffffffffffffffffffffffffffff82169050919050565b600073ffffffffffffffffffffffffffffffffffffffff82169050919050565b6000819050919050565b600063ffffffff82169050919050565b600067ffffffffffffffff82169050919050565b6000614ea182614ede565b9050919050565b6000614eb382614eba565b9050919050565b6000614ec582614e48565b9050919050565b6000614ed782614e68565b9050919050565b6000614ee982614ef0565b9050919050565b6000614efb82614e48565b9050919050565b60005b83811015614f20578082015181840152602081019050614f05565b83811115614f2f576000848401525b50505050565b614f3e81614dda565b8114614f4957600080fd5b50565b614f5581614dec565b8114614f6057600080fd5b50565b614f6c81614df8565b8114614f7757600080fd5b50565b614f8381614e02565b8114614f8e57600080fd5b50565b614f9a81614e2e565b8114614fa557600080fd5b50565b614fb181614e68565b8114614fbc57600080fd5b50565b614fc881614e72565b8114614fd357600080fd5b50565b614fdf81614e82565b8114614fea57600080fd5b5056fea2646970667358221220c8929f700940b4ecefba1c3da05518fbf3ede3dc16ccbce71cc6dd0e5e6c17d164736f6c63430006040033",
  "source": "pragma solidity 0.6.4;\npragma experimental ABIEncoderV2;\n\nimport \"../libraries/Babylonian.sol\";\nimport \"../interfaces/IDepositExecute.sol\";\nimport \"../interfaces/IERC20.sol\";\nimport \"../interfaces/IUniswapV2Pair.sol\";\nimport \"../interfaces/IUniswapV2Router.sol\";\nimport \"../interfaces/IUniswapV2RouterWrapper.sol\";\nimport \"../interfaces/IWrappedTokensUnwrapper.sol\";\nimport \"../interfaces/IBridge.sol\";\nimport \"./HandlerHelpers.sol\";\nimport \"../ERC20Safe.sol\";\nimport \"../utils/UpgradableOwnable.sol\";\n\ninterface IBeefyVault is IERC20 {\n    function deposit(uint256 amount) external;\n    function withdraw(uint256 shares) external;\n    function want() external pure returns (address); // Beefy Vault V6\n    function token() external pure returns (address); // Beefy Vault V5\n    function native() external pure returns (address); // Beefy Vault Native\n}\n\n/**\n    @title Handles Beefy deposits and withdrawals.\n    @notice This contract is intended to be used with the Bridge contract.\n */\ncontract BeefyHandler is\n    IDepositExecute,\n    HandlerHelpers,\n    UpgradableOwnable,\n    ERC20Safe\n{\n    using SafeMath for uint256;\n\n    address public WETH;\n    uint256 public constant minimumAmount = 1000;\n\n    bytes8 public lachainChainID;\n    address public routerWrapper;\n\n    // token => tokenHandler\n    mapping(address => address) public tokenHandlers;\n\n    // factory => router\n    mapping(address => IUniswapV2Router) public routers;\n\n    // unwrapper for WBNB\n    address public wrappedTokensUnwrapper;\n\n    /**\n        @param bridgeAddress Contract address of previously deployed Bridge.\n     */\n    function initialize(bytes8 _lachainChainID, address _WETH, address bridgeAddress) public {\n        WETH = _WETH;\n        \n        _bridgeAddress = bridgeAddress;\n        lachainChainID = _lachainChainID;\n        routerWrapper = address(0);\n\n        ownableInit(msg.sender);\n    }\n\n    receive() external payable {\n        if (wrappedTokensUnwrapper == address(0)) {\n            assert(msg.sender == WETH);\n        } else {\n            assert(msg.sender == wrappedTokensUnwrapper);\n        }\n    }\n\n    function setBridgeAddress(address bridgeAddress) external onlyOwner isInitisalised {\n        _bridgeAddress = bridgeAddress;\n    }\n\n    function setLachainID(bytes8 _lachainChainID) external onlyOwner isInitisalised {\n        lachainChainID = _lachainChainID;\n    }\n\n    function setRouterWrapper(address _routerWrapper) external onlyOwner isInitisalised {\n        routerWrapper = _routerWrapper;\n    }\n\n    function setTokenHandler(address _token, address _tokenHandler) external onlyOwner isInitisalised {\n        tokenHandlers[_token] = _tokenHandler;\n    }\n\n    function setRouter(address _factory, address _router) external onlyOwner {\n        routers[_factory] = IUniswapV2Router(_router);\n    }\n\n    function setWrappedTokensUnwrapper(address _wrappedTokensUnwrapper) external onlyOwner {\n        wrappedTokensUnwrapper = _wrappedTokensUnwrapper;\n    }\n\n    /**\n        @notice A deposit is initiatied by making a deposit in the Bridge contract.\n        @param destinationChainID Chain ID of chain tokens are expected to be bridged to.\n        @param depositNonce This value is generated as an ID by the Bridge contract.\n        @param depositer Address of account making the deposit in the Bridge contract.\n        @notice Data passed into the function should be constructed as follows:\n        amount                      uint256     bytes   0 - 32\n        recipientAddress length     uint256     bytes  32 - 64\n        recipientAddress            bytes       bytes  64 - END\n        @dev Depending if the corresponding {tokenAddress} for the parsed {resourceID} is\n        marked true in {_burnList}, deposited tokens will be burned, if not, they will be locked.\n     */\n    function deposit(\n        bytes32 resourceID,\n        bytes8 destinationChainID,\n        uint64 depositNonce,\n        address depositer,\n        address recipientAddress,\n        uint256 amount,\n        bytes calldata params\n    ) external override onlyBridge isInitisalised returns (address) {\n        revert();\n    }\n\n    /**\n        @notice Proposal execution should be initiated when a proposal is finalized in the Bridge contract.\n        by a relayer on the deposit's destination chain.\n        @notice Data passed into the function should be constructed as follows:\n        amount                                 uint256     bytes  0 - 32\n        destinationRecipientAddress length     uint256     bytes  32 - 64\n        destinationRecipientAddress            bytes       bytes  64 - END\n     */\n    function executeProposal(\n        bytes32 resourceID,\n        address recipientAddress,\n        uint256 amount,\n        bytes calldata params\n    ) external override onlyBridge isInitisalised {\n        // ends with 0 => deposit\n        // ends with 1 => withdrawal\n        bool isDeposit = (uint256(resourceID) % 2 == 0);\n\n        (bytes32 wantResourceID, bytes32 vaultResourceID) = isDeposit ? \n            (resourceID, bytes32(uint256(resourceID) + 1)) :\n            (bytes32(uint256(resourceID) - 1), resourceID)\n        ;\n\n        _handleBeefy(wantResourceID, vaultResourceID, recipientAddress, amount, isDeposit);\n    }\n\n    function _handleBeefy(\n        bytes32 wantResourceID,\n        bytes32 vaultResourceID,\n        address recipientAddress,\n        uint256 amount,\n        bool isDeposit\n    ) private {\n        address wantAddress = _resourceIDToTokenContractAddress[wantResourceID];\n        address vaultAddress = _resourceIDToTokenContractAddress[vaultResourceID];\n\n        IBridge bridge = IBridge(_bridgeAddress);\n        IBeefyVault vault = IBeefyVault(vaultAddress);\n\n        // handle deposit/withdraw\n        uint256 beforeWantBalance;\n        uint256 beforeVaultBalance;\n        if (isDeposit) {\n            if (wantAddress == WETH) {\n                // get wrapped native tokens from bridge\n                bridge.depositNativeToken(wantResourceID, amount);\n            } else {\n                // get erc20 tokens from erc20handler\n                lockERC20(wantAddress, tokenHandlers[wantAddress], address(this), amount);\n            }\n\n            beforeWantBalance = IERC20(wantAddress).balanceOf(address(this)).sub(amount);\n            beforeVaultBalance = vault.balanceOf(address(this));\n        } else {\n            beforeWantBalance = IERC20(wantAddress).balanceOf(address(this));\n        }\n\n        // if vault doesn't accept want token, swapping and adding liquidity is needed\n        if (wantAddress == _getVaultWant(vault)) {\n            _handleDirectBeefy(wantAddress, vaultAddress, amount, isDeposit);\n        } else {\n            _handleZapBeefy(wantAddress, vaultAddress, amount, isDeposit);\n        }\n\n        // return leftover want token back to user\n        _returnAsset(wantAddress, IERC20(wantAddress).balanceOf(address(this)).sub(beforeWantBalance), recipientAddress);\n\n        if (isDeposit) {\n            bridge.internalDeposit(\n                lachainChainID,\n                vaultResourceID,\n                vault.balanceOf(address(this)).sub(beforeVaultBalance),\n                recipientAddress\n            );\n        }\n    }\n\n    function _handleDirectBeefy(\n        address wantAddress,\n        address vaultAddress,\n        uint256 amount,\n        bool isDeposit\n    ) private {\n        IBeefyVault vault = IBeefyVault(vaultAddress);\n\n        if (isDeposit) {\n            approveERC20(wantAddress, vaultAddress, amount);\n            vault.deposit(amount);\n        } else {\n            vault.withdraw(amount);\n        }\n    }\n\n    function _handleZapBeefy(\n        address wantAddress,\n        address vaultAddress,\n        uint256 amount,\n        bool isDeposit\n    ) private {\n        (IBeefyVault vault, IUniswapV2Pair pair, IUniswapV2Router router) = _getVaultPair(vaultAddress);\n        bool isWant0 = pair.token0() == wantAddress;\n        require(isWant0 || pair.token1() == wantAddress, 'Desired token not present in liquidity pair');\n\n        address[] memory path = new address[](2);\n\n        if (isDeposit) {\n            (path[0], path[1]) = (wantAddress, isWant0 ? pair.token1() : pair.token0());\n            \n            // swap the want token for the second token and add liquidity\n            uint256 amountLiquidity = _swapAndAddLiquidity(pair, router, path, amount, isWant0);\n\n            // deposit LP tokens into the vault\n            approveERC20(address(pair), vaultAddress, amountLiquidity);\n            vault.deposit(amountLiquidity);\n        } else {\n            (path[0], path[1]) = (isWant0 ? pair.token1() : pair.token0(), wantAddress);\n\n            // withdraw LP tokens from the vault\n            uint256 beforeLpBalance = IERC20(address(pair)).balanceOf(address(this));\n            vault.withdraw(amount);\n\n            // burn LP tokens\n            (uint256 amount0, uint256 amount1) = _removeLiquidity(\n                address(pair),\n                IERC20(address(pair)).balanceOf(address(this)).sub(beforeLpBalance),\n                address(this)\n            );\n\n            // swap the second pair token for the want token\n            _swapExactTokensForTokens(router, isWant0 ? amount1 : amount0, 1, path, address(this), block.timestamp);\n        }\n    }\n\n    function _swapAndAddLiquidity(\n        IUniswapV2Pair pair,\n        IUniswapV2Router router,\n        address[] memory path,\n        uint256 amount,\n        bool isWant0\n    ) private returns (uint256) {\n        (uint256 reserveA, uint256 reserveB,) = pair.getReserves();\n        require(reserveA > minimumAmount && reserveB > minimumAmount, 'Liquidity pair reserves too low');\n\n        uint256 swapAmountIn;\n        if (isWant0) {\n            swapAmountIn = _getSwapAmount(router, amount, reserveA, reserveB);\n        } else {\n            swapAmountIn = _getSwapAmount(router, amount, reserveB, reserveA);\n        }\n\n        // swap the want token for the second pair token\n        uint256[] memory swappedAmounts = _swapExactTokensForTokens(router, swapAmountIn, 1, path, address(this), block.timestamp);\n\n        // get LP tokens\n        approveERC20(path[0], address(router), amount.sub(swappedAmounts[0]));\n        approveERC20(path[1], address(router), swappedAmounts[1]);\n        (,, uint256 amountLiquidity) = router\n            .addLiquidity(path[0], path[1], amount.sub(swappedAmounts[0]), swappedAmounts[1], 1, 1, address(this), block.timestamp);\n\n        return amountLiquidity;\n    }\n\n    function _swapExactTokensForTokens(\n        IUniswapV2Router router,\n        uint amountIn,\n        uint amountOutMin,\n        address[] memory path,\n        address to,\n        uint deadline\n    ) private returns (uint[] memory amounts) {\n        if (routerWrapper == address(0)) {\n            approveERC20(path[0], address(router), amountIn);\n            return router.swapExactTokensForTokens(amountIn, amountOutMin, path, to, deadline);   \n        }\n\n        approveERC20(path[0], routerWrapper, amountIn);\n        return IUniswapV2RouterWrapper(routerWrapper)\n            .wrappedSwapExactTokensForTokens(address(router), amountIn, amountOutMin, path, to, deadline);\n    }\n\n    function _removeLiquidity(address pair, uint256 amount, address to) private returns (uint256 amount0, uint256 amount1) {\n        releaseERC20(pair, pair, amount);\n        (amount0, amount1) = IUniswapV2Pair(pair).burn(to);\n\n        require(amount0 >= minimumAmount, 'INSUFFICIENT_A_AMOUNT');\n        require(amount1 >= minimumAmount, 'INSUFFICIENT_B_AMOUNT');\n    }\n\n    function _returnAsset(address token, uint256 amount, address recipientAddress) private {\n        IBridge bridge = IBridge(_bridgeAddress);\n\n        if (amount > 0) {\n            bytes32 tokenResourceID = _tokenContractAddressToResourceID[token];\n\n            if (token == WETH) {\n                // send native tokens to bridge\n                if (wrappedTokensUnwrapper == address(0)) {\n                    IWETH(WETH).withdraw(amount);\n                } else {\n                    IWETH(WETH).transfer(wrappedTokensUnwrapper, amount);\n                    IWrappedTokensUnwrapper(wrappedTokensUnwrapper).unwrap(WETH);\n                }\n                bridge.depositNativeToken{value: amount}(tokenResourceID, amount);\n            } else {\n                // send erc20 tokens to erc20handler\n                releaseERC20(token, tokenHandlers[token], amount);\n            }\n\n            // bridge tokens to Lachain\n            bridge.internalDeposit(lachainChainID, tokenResourceID, amount, recipientAddress);\n        }\n    }\n\n    function _getVaultPair (\n        address beefyVault\n    ) private view returns (\n        IBeefyVault vault,\n        IUniswapV2Pair pair,\n        IUniswapV2Router router\n    ) {\n        vault = IBeefyVault(beefyVault);\n        pair = IUniswapV2Pair(_getVaultWant(vault));\n        router = routers[pair.factory()];\n\n        require(address(router) != address(0), 'Unknown liquidity pair router');\n    }\n\n    function _getVaultWant(IBeefyVault vault) private view returns (address) {\n        try vault.native() returns (address native) {\n            require(native == WETH, \"Unknown native token wrapper\");\n            // Vault Native\n            return native;\n        } catch {\n            try vault.want() returns (address want) {\n                // Vault V6\n                return want;\n            } catch {\n                // Vault V5\n                return vault.token();\n            }\n        }\n    }\n\n    function _getSwapAmount(\n        IUniswapV2Router router,\n        uint256 investmentA,\n        uint256 reserveA,\n        uint256 reserveB\n    ) private view returns (uint256 swapAmount) {\n        uint256 halfInvestment = investmentA / 2;\n\n        uint256 nominator;\n        try router.getAmountOut(halfInvestment, reserveA, reserveB) returns (uint256 amountOut) {\n            nominator = amountOut;    \n        } catch {\n            nominator = router.getAmountOut(halfInvestment, reserveA, reserveB, 1);\n        }\n        \n        uint256 denominator = router.quote(halfInvestment, reserveA.add(halfInvestment), reserveB.sub(nominator));\n        swapAmount = investmentA.sub(Babylonian.sqrt(halfInvestment * halfInvestment * nominator / denominator));\n    }\n\n    /**\n        @notice Used to manually release ERC20 tokens from ERC20Safe.\n        @param tokenAddress Address of token contract to release.\n        @param recipient Address to release tokens to.\n        @param amount The amount of ERC20 tokens to release.\n     */\n    function withdraw(\n        address tokenAddress,\n        address recipient,\n        uint256 amount\n    ) external override onlyBridge isInitisalised {\n        releaseERC20(tokenAddress, recipient, amount);\n    }\n\n    function getAddressFromResourceId(bytes32 resourceID)\n        external\n        view\n        override\n        returns (address)\n    {\n        return _resourceIDToTokenContractAddress[resourceID];\n    }\n\n    /**\n        @notice Used to approve spending tokens.\n        @param resourceID ResourceID to be used for approval.\n        @param spender Spender address.\n        @param amount Amount to approve.\n     */\n    function approve(\n        bytes32 resourceID,\n        address spender,\n        uint256 amount\n    ) external override onlyBridge isInitisalised {\n        address tokenAddress = _resourceIDToTokenContractAddress[resourceID];\n        require(\n            _contractWhitelist[tokenAddress],\n            \"provided tokenAddress is not whitelisted\"\n        );\n\n        approveERC20(tokenAddress, spender, amount);\n    }\n}\n",
  "sourcePath": "/Users/9to5mac/Desktop/code/latoken/ethereum-crosschain-contract/contracts/handlers/BeefyHandler.sol",
  "compiler": {
    "name": "solc",
    "version": "0.6.4+commit.1dca32f3.Emscripten.clang"
  },
  "schemaVersion": "3.4.9",
  "updatedAt": "2022-10-10T09:22:18.137Z",
  "devdoc": {
    "methods": {
      "approve(bytes32,address,uint256)": {
        "params": {
          "amount": "Amount to approve.",
          "resourceID": "ResourceID to be used for approval.",
          "spender": "Spender address."
        }
      },
      "deposit(bytes32,bytes8,uint64,address,address,uint256,bytes)": {
        "details": "Depending if the corresponding {tokenAddress} for the parsed {resourceID} is marked true in {_burnList}, deposited tokens will be burned, if not, they will be locked.",
        "params": {
          "depositNonce": "This value is generated as an ID by the Bridge contract.",
          "depositer": "Address of account making the deposit in the Bridge contract.",
          "destinationChainID": "Chain ID of chain tokens are expected to be bridged to."
        }
      },
      "fundERC20(address,address,uint256)": {
        "params": {
          "amount": "Amount of tokens to transfer.",
          "owner": "Address of current token owner.",
          "tokenAddress": "Address of ERC20 to transfer."
        }
      },
      "initialize(bytes8,address,address)": {
        "params": {
          "bridgeAddress": "Contract address of previously deployed Bridge."
        }
      },
      "ownableInit(address)": {
        "details": "Initializes the contract setting the deployer as the initial owner."
      },
      "owner()": {
        "details": "Returns the address of the current owner."
      },
      "renounceOwnership()": {
        "details": "Leaves the contract without owner. It will not be possible to call `onlyOwner` functions anymore. Can only be called by the current owner.     * NOTE: Renouncing ownership will leave the contract without an owner, thereby removing any functionality that is only available to the owner."
      },
      "setBurnable(address)": {
        "params": {
          "contractAddress": "Address of contract to be used when making or executing deposits."
        }
      },
      "setResource(bytes32,address)": {
        "params": {
          "contractAddress": "Address of contract to be called when a deposit is made and a deposited is executed.",
          "resourceID": "ResourceID to be used when making deposits."
        }
      },
      "transferOwnership(address)": {
        "details": "Transfers ownership of the contract to a new account (`newOwner`). Can only be called by the current owner."
      },
      "withdraw(address,address,uint256)": {
        "params": {
          "amount": "The amount of ERC20 tokens to release.",
          "recipient": "Address to release tokens to.",
          "tokenAddress": "Address of token contract to release."
        }
      }
    },
    "title": "Handles Beefy deposits and withdrawals."
  },
  "userdoc": {
    "methods": {
      "approve(bytes32,address,uint256)": {
        "notice": "Used to approve spending tokens."
      },
      "deposit(bytes32,bytes8,uint64,address,address,uint256,bytes)": {
        "notice": "A deposit is initiatied by making a deposit in the Bridge contract.Data passed into the function should be constructed as follows: amount                      uint256     bytes   0 - 32 recipientAddress length     uint256     bytes  32 - 64 recipientAddress            bytes       bytes  64 - END"
      },
      "executeProposal(bytes32,address,uint256,bytes)": {
        "notice": "Proposal execution should be initiated when a proposal is finalized in the Bridge contract. by a relayer on the deposit's destination chain.Data passed into the function should be constructed as follows: amount                                 uint256     bytes  0 - 32 destinationRecipientAddress length     uint256     bytes  32 - 64 destinationRecipientAddress            bytes       bytes  64 - END"
      },
      "fundERC20(address,address,uint256)": {
        "notice": "Used to transfer tokens into the safe to fund proposals."
      },
      "setBurnable(address)": {
        "notice": "First verifies {contractAddress} is whitelisted, then sets {_burnList}[{contractAddress}] to true."
      },
      "setResource(bytes32,address)": {
        "notice": "First verifies {_resourceIDToContractAddress}[{resourceID}] and {_contractAddressToResourceID}[{contractAddress}] are not already set, then sets {_resourceIDToContractAddress} with {contractAddress}, {_contractAddressToResourceID} with {resourceID}, and {_contractWhitelist} to true for {contractAddress}."
      },
      "withdraw(address,address,uint256)": {
        "notice": "Used to manually release ERC20 tokens from ERC20Safe."
      }
    },
    "notice": "This contract is intended to be used with the Bridge contract."
  }
}