{
  "contractName": "Bridge",
  "abi": [
    {
      "anonymous": false,
      "inputs": [
        {
          "indexed": false,
          "internalType": "bytes8",
          "name": "originChainID",
          "type": "bytes8"
        },
        {
          "indexed": true,
          "internalType": "bytes8",
          "name": "destinationChainID",
          "type": "bytes8"
        },
        {
          "indexed": true,
          "internalType": "bytes32",
          "name": "resourceID",
          "type": "bytes32"
        },
        {
          "indexed": true,
          "internalType": "uint64",
          "name": "depositNonce",
          "type": "uint64"
        },
        {
          "indexed": false,
          "internalType": "address",
          "name": "depositor",
          "type": "address"
        },
        {
          "indexed": false,
          "internalType": "address",
          "name": "recipientAddress",
          "type": "address"
        },
        {
          "indexed": false,
          "internalType": "address",
          "name": "tokenAddress",
          "type": "address"
        },
        {
          "indexed": false,
          "internalType": "uint256",
          "name": "amount",
          "type": "uint256"
        },
        {
          "indexed": false,
          "internalType": "bytes32",
          "name": "dataHash",
          "type": "bytes32"
        }
      ],
      "name": "Deposit",
      "type": "event"
    },
    {
      "anonymous": false,
      "inputs": [
        {
          "indexed": false,
          "internalType": "bytes8",
          "name": "originChainID",
          "type": "bytes8"
        },
        {
          "indexed": false,
          "internalType": "bytes8",
          "name": "destinationChainID",
          "type": "bytes8"
        },
        {
          "indexed": false,
          "internalType": "uint64",
          "name": "depositNonce",
          "type": "uint64"
        },
        {
          "indexed": false,
          "internalType": "bytes32",
          "name": "resourceID",
          "type": "bytes32"
        },
        {
          "indexed": false,
          "internalType": "address",
          "name": "recipientAddress",
          "type": "address"
        },
        {
          "indexed": false,
          "internalType": "uint256",
          "name": "amount",
          "type": "uint256"
        }
      ],
      "name": "ExtraFeeSupplied",
      "type": "event"
    },
    {
      "anonymous": false,
      "inputs": [
        {
          "indexed": true,
          "internalType": "address",
          "name": "previousOwner",
          "type": "address"
        },
        {
          "indexed": true,
          "internalType": "address",
          "name": "newOwner",
          "type": "address"
        }
      ],
      "name": "OwnershipTransferred",
      "type": "event"
    },
    {
      "anonymous": false,
      "inputs": [
        {
          "indexed": false,
          "internalType": "address",
          "name": "account",
          "type": "address"
        }
      ],
      "name": "Paused",
      "type": "event"
    },
    {
      "anonymous": false,
      "inputs": [
        {
          "indexed": true,
          "internalType": "bytes8",
          "name": "originChainID",
          "type": "bytes8"
        },
        {
          "indexed": true,
          "internalType": "bytes8",
          "name": "destinationChainID",
          "type": "bytes8"
        },
        {
          "indexed": true,
          "internalType": "address",
          "name": "recipientAddress",
          "type": "address"
        },
        {
          "indexed": false,
          "internalType": "uint256",
          "name": "amount",
          "type": "uint256"
        },
        {
          "indexed": false,
          "internalType": "uint64",
          "name": "depositNonce",
          "type": "uint64"
        },
        {
          "indexed": false,
          "internalType": "enum Bridge.ProposalStatus",
          "name": "status",
          "type": "uint8"
        },
        {
          "indexed": false,
          "internalType": "bytes32",
          "name": "resourceID",
          "type": "bytes32"
        },
        {
          "indexed": false,
          "internalType": "bytes32",
          "name": "dataHash",
          "type": "bytes32"
        }
      ],
      "name": "ProposalEvent",
      "type": "event"
    },
    {
      "anonymous": false,
      "inputs": [
        {
          "indexed": false,
          "internalType": "address",
          "name": "account",
          "type": "address"
        }
      ],
      "name": "Unpaused",
      "type": "event"
    },
    {
      "inputs": [],
      "name": "_backendSrvAddress",
      "outputs": [
        {
          "internalType": "address",
          "name": "",
          "type": "address"
        }
      ],
      "stateMutability": "view",
      "type": "function",
      "constant": true
    },
    {
      "inputs": [],
      "name": "_balancerAddress",
      "outputs": [
        {
          "internalType": "address",
          "name": "",
          "type": "address"
        }
      ],
      "stateMutability": "view",
      "type": "function",
      "constant": true
    },
    {
      "inputs": [],
      "name": "_chainID",
      "outputs": [
        {
          "internalType": "bytes8",
          "name": "",
          "type": "bytes8"
        }
      ],
      "stateMutability": "view",
      "type": "function",
      "constant": true
    },
    {
      "inputs": [
        {
          "internalType": "bytes8",
          "name": "",
          "type": "bytes8"
        }
      ],
      "name": "_depositCounts",
      "outputs": [
        {
          "internalType": "uint64",
          "name": "",
          "type": "uint64"
        }
      ],
      "stateMutability": "view",
      "type": "function",
      "constant": true
    },
    {
      "inputs": [
        {
          "internalType": "uint64",
          "name": "",
          "type": "uint64"
        },
        {
          "internalType": "bytes8",
          "name": "",
          "type": "bytes8"
        }
      ],
      "name": "_depositRecords",
      "outputs": [
        {
          "internalType": "bytes",
          "name": "",
          "type": "bytes"
        }
      ],
      "stateMutability": "view",
      "type": "function",
      "constant": true
    },
    {
      "inputs": [
        {
          "internalType": "bytes32",
          "name": "",
          "type": "bytes32"
        },
        {
          "internalType": "bytes32",
          "name": "",
          "type": "bytes32"
        }
      ],
      "name": "_executedProposals",
      "outputs": [
        {
          "internalType": "bool",
          "name": "",
          "type": "bool"
        }
      ],
      "stateMutability": "view",
      "type": "function",
      "constant": true
    },
    {
      "inputs": [],
      "name": "_fee",
      "outputs": [
        {
          "internalType": "uint256",
          "name": "",
          "type": "uint256"
        }
      ],
      "stateMutability": "view",
      "type": "function",
      "constant": true
    },
    {
      "inputs": [],
      "name": "_isInitialised",
      "outputs": [
        {
          "internalType": "bool",
          "name": "",
          "type": "bool"
        }
      ],
      "stateMutability": "view",
      "type": "function",
      "constant": true
    },
    {
      "inputs": [],
      "name": "_nativeResourceID",
      "outputs": [
        {
          "internalType": "bytes32",
          "name": "",
          "type": "bytes32"
        }
      ],
      "stateMutability": "view",
      "type": "function",
      "constant": true
    },
    {
      "inputs": [
        {
          "internalType": "bytes32",
          "name": "",
          "type": "bytes32"
        }
      ],
      "name": "_resourceIDToHandlerAddress",
      "outputs": [
        {
          "internalType": "address",
          "name": "",
          "type": "address"
        }
      ],
      "stateMutability": "view",
      "type": "function",
      "constant": true
    },
    {
      "inputs": [
        {
          "internalType": "uint256",
          "name": "amount",
          "type": "uint256"
        },
        {
          "internalType": "address",
          "name": "recipient",
          "type": "address"
        },
        {
          "internalType": "bytes8",
          "name": "chainId",
          "type": "bytes8"
        }
      ],
      "name": "createMesssageHash",
      "outputs": [
        {
          "internalType": "bytes32",
          "name": "",
          "type": "bytes32"
        }
      ],
      "stateMutability": "pure",
      "type": "function",
      "constant": true
    },
    {
      "inputs": [
        {
          "internalType": "bytes32",
          "name": "_messageHash",
          "type": "bytes32"
        }
      ],
      "name": "getEthSignedMessageHash",
      "outputs": [
        {
          "internalType": "bytes32",
          "name": "",
          "type": "bytes32"
        }
      ],
      "stateMutability": "pure",
      "type": "function",
      "constant": true
    },
    {
      "inputs": [
        {
          "internalType": "bytes32",
          "name": "messageHash",
          "type": "bytes32"
        },
        {
          "internalType": "bytes",
          "name": "signature",
          "type": "bytes"
        }
      ],
      "name": "getSigner",
      "outputs": [
        {
          "internalType": "address",
          "name": "",
          "type": "address"
        }
      ],
      "stateMutability": "pure",
      "type": "function",
      "constant": true
    },
    {
      "inputs": [
        {
          "internalType": "address",
          "name": "",
          "type": "address"
        }
      ],
      "name": "handlers",
      "outputs": [
        {
          "internalType": "bool",
          "name": "",
          "type": "bool"
        }
      ],
      "stateMutability": "view",
      "type": "function",
      "constant": true
    },
    {
      "inputs": [
        {
          "internalType": "address",
          "name": "owner",
          "type": "address"
        }
      ],
      "name": "ownableInit",
      "outputs": [],
      "stateMutability": "nonpayable",
      "type": "function"
    },
    {
      "inputs": [],
      "name": "owner",
      "outputs": [
        {
          "internalType": "address",
          "name": "",
          "type": "address"
        }
      ],
      "stateMutability": "view",
      "type": "function",
      "constant": true
    },
    {
      "inputs": [],
      "name": "paused",
      "outputs": [
        {
          "internalType": "bool",
          "name": "",
          "type": "bool"
        }
      ],
      "stateMutability": "view",
      "type": "function",
      "constant": true
    },
    {
      "inputs": [],
      "name": "renounceOwnership",
      "outputs": [],
      "stateMutability": "nonpayable",
      "type": "function"
    },
    {
      "inputs": [
        {
          "internalType": "uint256",
          "name": "a",
          "type": "uint256"
        },
        {
          "internalType": "uint256",
          "name": "b",
          "type": "uint256"
        }
      ],
      "name": "sub",
      "outputs": [
        {
          "internalType": "uint256",
          "name": "",
          "type": "uint256"
        }
      ],
      "stateMutability": "pure",
      "type": "function",
      "constant": true
    },
    {
      "inputs": [
        {
          "internalType": "address",
          "name": "newOwner",
          "type": "address"
        }
      ],
      "name": "transferOwnership",
      "outputs": [],
      "stateMutability": "nonpayable",
      "type": "function"
    },
    {
      "inputs": [
        {
          "internalType": "bytes32",
          "name": "_ethSignedMessageHash",
          "type": "bytes32"
        },
        {
          "internalType": "address",
          "name": "_signer",
          "type": "address"
        },
        {
          "internalType": "bytes",
          "name": "_signature",
          "type": "bytes"
        }
      ],
      "name": "verify",
      "outputs": [
        {
          "internalType": "bool",
          "name": "",
          "type": "bool"
        }
      ],
      "stateMutability": "pure",
      "type": "function",
      "constant": true
    },
    {
      "inputs": [
        {
          "internalType": "address",
          "name": "_handler",
          "type": "address"
        },
        {
          "internalType": "bool",
          "name": "value",
          "type": "bool"
        }
      ],
      "name": "setHandler",
      "outputs": [],
      "stateMutability": "nonpayable",
      "type": "function"
    },
    {
      "inputs": [
        {
          "internalType": "bytes8",
          "name": "chainID",
          "type": "bytes8"
        },
        {
          "internalType": "uint256",
          "name": "fee",
          "type": "uint256"
        },
        {
          "internalType": "address",
          "name": "initBackendSrvAddress",
          "type": "address"
        },
        {
          "internalType": "address",
          "name": "initBalancerAddress_",
          "type": "address"
        }
      ],
      "name": "initialize",
      "outputs": [],
      "stateMutability": "nonpayable",
      "type": "function"
    },
    {
      "inputs": [
        {
          "internalType": "address",
          "name": "newBackendSrv",
          "type": "address"
        }
      ],
      "name": "setBackendSrv",
      "outputs": [],
      "stateMutability": "nonpayable",
      "type": "function"
    },
    {
      "inputs": [],
      "name": "adminPauseTransfers",
      "outputs": [],
      "stateMutability": "nonpayable",
      "type": "function"
    },
    {
      "inputs": [],
      "name": "adminUnpauseTransfers",
      "outputs": [],
      "stateMutability": "nonpayable",
      "type": "function"
    },
    {
      "inputs": [
        {
          "internalType": "address",
          "name": "handlerAddress",
          "type": "address"
        },
        {
          "internalType": "bytes32",
          "name": "resourceID",
          "type": "bytes32"
        },
        {
          "internalType": "address",
          "name": "tokenAddress",
          "type": "address"
        }
      ],
      "name": "setResource",
      "outputs": [],
      "stateMutability": "nonpayable",
      "type": "function"
    },
    {
      "inputs": [
        {
          "internalType": "bytes32",
          "name": "resourceID",
          "type": "bytes32"
        }
      ],
      "name": "setNativeResourceID",
      "outputs": [],
      "stateMutability": "nonpayable",
      "type": "function"
    },
    {
      "inputs": [
        {
          "internalType": "address",
          "name": "handlerAddress",
          "type": "address"
        },
        {
          "internalType": "address",
          "name": "tokenAddress",
          "type": "address"
        }
      ],
      "name": "setBurnable",
      "outputs": [],
      "stateMutability": "nonpayable",
      "type": "function"
    },
    {
      "inputs": [
        {
          "internalType": "uint256",
          "name": "newFee",
          "type": "uint256"
        }
      ],
      "name": "changeFee",
      "outputs": [],
      "stateMutability": "nonpayable",
      "type": "function"
    },
    {
      "inputs": [
        {
          "internalType": "address",
          "name": "newBalancer",
          "type": "address"
        }
      ],
      "name": "setBalancerAddress",
      "outputs": [],
      "stateMutability": "nonpayable",
      "type": "function"
    },
    {
      "inputs": [
        {
          "internalType": "address",
          "name": "handlerAddress",
          "type": "address"
        },
        {
          "internalType": "address",
          "name": "tokenAddress",
          "type": "address"
        },
        {
          "internalType": "address",
          "name": "recipient",
          "type": "address"
        },
        {
          "internalType": "uint256",
          "name": "amountOrTokenID",
          "type": "uint256"
        }
      ],
      "name": "adminWithdraw",
      "outputs": [],
      "stateMutability": "nonpayable",
      "type": "function"
    },
    {
      "inputs": [
        {
          "internalType": "bytes32",
          "name": "resourceIDOwner",
          "type": "bytes32"
        },
        {
          "internalType": "bytes32",
          "name": "resourceIDSpender",
          "type": "bytes32"
        },
        {
          "internalType": "uint256",
          "name": "amountOrTokenID",
          "type": "uint256"
        }
      ],
      "name": "approveSpending",
      "outputs": [],
      "stateMutability": "nonpayable",
      "type": "function"
    },
    {
      "inputs": [
        {
          "internalType": "bytes8",
          "name": "destinationChainID",
          "type": "bytes8"
        },
        {
          "internalType": "bytes32",
          "name": "resourceID",
          "type": "bytes32"
        },
        {
          "internalType": "uint256",
          "name": "amount",
          "type": "uint256"
        },
        {
          "internalType": "address",
          "name": "recipientAddress",
          "type": "address"
        },
        {
          "internalType": "uint256",
          "name": "amountToLA",
          "type": "uint256"
        },
        {
          "internalType": "bytes",
          "name": "signature",
          "type": "bytes"
        },
        {
          "internalType": "bytes",
          "name": "params",
          "type": "bytes"
        }
      ],
      "name": "deposit",
      "outputs": [],
      "stateMutability": "payable",
      "type": "function",
      "payable": true
    },
    {
      "inputs": [
        {
          "internalType": "bytes8",
          "name": "destinationChainID",
          "type": "bytes8"
        },
        {
          "internalType": "bytes32",
          "name": "resourceID",
          "type": "bytes32"
        },
        {
          "internalType": "uint256",
          "name": "amount",
          "type": "uint256"
        },
        {
          "internalType": "address",
          "name": "recipientAddress",
          "type": "address"
        }
      ],
      "name": "internalDeposit",
      "outputs": [],
      "stateMutability": "nonpayable",
      "type": "function"
    },
    {
      "inputs": [
        {
          "internalType": "bytes32",
          "name": "resourceID",
          "type": "bytes32"
        },
        {
          "internalType": "uint256",
          "name": "amount",
          "type": "uint256"
        }
      ],
      "name": "depositNativeToken",
      "outputs": [],
      "stateMutability": "payable",
      "type": "function",
      "payable": true
    },
    {
      "inputs": [
        {
          "internalType": "bytes8",
          "name": "originChainID",
          "type": "bytes8"
        },
        {
          "internalType": "bytes8",
          "name": "destinationChainID",
          "type": "bytes8"
        },
        {
          "internalType": "uint64",
          "name": "depositNonce",
          "type": "uint64"
        },
        {
          "internalType": "bytes32",
          "name": "resourceID",
          "type": "bytes32"
        },
        {
          "internalType": "address payable",
          "name": "recipientAddress",
          "type": "address"
        },
        {
          "internalType": "uint256",
          "name": "amount",
          "type": "uint256"
        },
        {
          "internalType": "bytes",
          "name": "params",
          "type": "bytes"
        }
      ],
      "name": "executeProposal",
      "outputs": [],
      "stateMutability": "nonpayable",
      "type": "function"
    },
    {
      "inputs": [
        {
          "internalType": "address payable",
          "name": "recipient",
          "type": "address"
        },
        {
          "internalType": "uint256",
          "name": "amount",
          "type": "uint256"
        }
      ],
      "name": "adminCollectFees",
      "outputs": [],
      "stateMutability": "nonpayable",
      "type": "function"
    },
    {
      "inputs": [],
      "name": "depositFunds",
      "outputs": [],
      "stateMutability": "payable",
      "type": "function",
      "payable": true
    }
  ],
  "bytecode": "0x608060405234801561001057600080fd5b50614480806100206000396000f3fe6080604052600436106102305760003560e01c80639c1650e01161012e578063dd2e8ec3116100ab578063f2fde38b1161006f578063f2fde38b146107e6578063f5cf2ce11461080f578063f7b2ec0d1461084c578063fa54080114610889578063ffaac0eb146108c657610230565b8063dd2e8ec314610736578063de771b3114610761578063df0fc1331461078a578063e2c41dbc146107b3578063ea439b2b146107bd57610230565b8063b4019dee116100f2578063b4019dee1461063d578063b67d77c514610666578063beab7131146106a3578063c5b37c22146106ce578063c79564f1146106f957610230565b80639c1650e0146105465780639cb7de4b14610583578063a21b952e146105ac578063a48ace38146105d7578063a737be4f1461061457610230565b8063715018a6116101bc57806384db809f1161018057806384db809f146104615780638c682bbf1461049e5780638d225943146104c95780638da5cb5b146104f25780638ece6f271461051d57610230565b8063715018a6146103b6578063780cf004146103cd5780637a7eed77146103f65780637f5d6a5e1461041f57806380ae1c281461044a57610230565b80632c392157116102035780632c392157146103015780635c975abb1461031d5780636717ec72146103485780636a1db1bf14610364578063711f4a411461038d57610230565b80630bf6096f14610235578063174e300b1461025e5780631a21c0bc1461029b57806321016ed8146102d8575b600080fd5b34801561024157600080fd5b5061025c60048036038101906102579190612e4b565b6108dd565b005b34801561026a57600080fd5b50610285600480360381019061028091906131d7565b610929565b604051610292919061413a565b60405180910390f35b3480156102a757600080fd5b506102c260048036038101906102bd9190612e4b565b610950565b6040516102cf9190613b93565b60405180910390f35b3480156102e457600080fd5b506102ff60048036038101906102fa919061302c565b610970565b005b61031b60048036038101906103169190613263565b610982565b005b34801561032957600080fd5b50610332610d4d565b60405161033f9190613b93565b60405180910390f35b610362600480360381019061035d919061319b565b610d63565b005b34801561037057600080fd5b5061038b60048036038101906103869190613456565b610fbb565b005b34801561039957600080fd5b506103b460048036038101906103af91906133f3565b611012565b005b3480156103c257600080fd5b506103cb6110cc565b005b3480156103d957600080fd5b506103f460048036038101906103ef9190612f15565b611208565b005b34801561040257600080fd5b5061041d60048036038101906104189190612e9d565b6112ff565b005b34801561042b57600080fd5b506104346113da565b6040516104419190613afd565b60405180910390f35b34801561045657600080fd5b5061045f611400565b005b34801561046d57600080fd5b506104886004803603810190610483919061302c565b611486565b6040516104959190613afd565b60405180910390f35b3480156104aa57600080fd5b506104b36114b9565b6040516104c09190613afd565b60405180910390f35b3480156104d557600080fd5b506104f060048036038101906104eb9190613339565b6114df565b005b3480156104fe57600080fd5b5061050761191b565b6040516105149190613afd565b60405180910390f35b34801561052957600080fd5b50610544600480360381019061053f9190613200565b611944565b005b34801561055257600080fd5b5061056d600480360381019061056891906130bc565b611c82565b60405161057a9190613b93565b60405180910390f35b34801561058f57600080fd5b506105aa60048036038101906105a59190612f78565b611cb1565b005b3480156105b857600080fd5b506105c1611d14565b6040516105ce9190613bae565b60405180910390f35b3480156105e357600080fd5b506105fe60048036038101906105f9919061350a565b611d1a565b60405161060b9190613e3f565b60405180910390f35b34801561062057600080fd5b5061063b60048036038101906106369190612fb4565b611dd7565b005b34801561064957600080fd5b50610664600480360381019061065f9190612e4b565b611f01565b005b34801561067257600080fd5b5061068d600480360381019061068891906134ce565b611f4d565b60405161069a9190614043565b60405180910390f35b3480156106af57600080fd5b506106b8611f97565b6040516106c59190613d62565b60405180910390f35b3480156106da57600080fd5b506106e3611faa565b6040516106f09190614043565b60405180910390f35b34801561070557600080fd5b50610720600480360381019061071b919061347f565b611fb0565b60405161072d9190613bae565b60405180910390f35b34801561074257600080fd5b5061074b611fd9565b6040516107589190613b93565b60405180910390f35b34801561076d57600080fd5b50610788600480360381019061078391906130f8565b611fec565b005b34801561079657600080fd5b506107b160048036038101906107ac9190612ed9565b6121c0565b005b6107bb61223d565b005b3480156107c957600080fd5b506107e460048036038101906107df9190612e4b565b6122bb565b005b3480156107f257600080fd5b5061080d60048036038101906108089190612e4b565b61238f565b005b34801561081b57600080fd5b5061083660048036038101906108319190613055565b612505565b6040516108439190613b93565b60405180910390f35b34801561085857600080fd5b50610873600480360381019061086e9190613147565b612548565b6040516108809190613afd565b60405180910390f35b34801561089557600080fd5b506108b060048036038101906108ab919061302c565b612565565b6040516108bd9190613bae565b60405180910390f35b3480156108d257600080fd5b506108db612577565b005b6108e56125fd565b80600260006101000a81548173ffffffffffffffffffffffffffffffffffffffff021916908373ffffffffffffffffffffffffffffffffffffffff16021790555050565b60046020528060005260406000206000915054906101000a900467ffffffffffffffff1681565b60086020528060005260406000206000915054906101000a900460ff1681565b6109786125fd565b8060038190555050565b61098a61268f565b6000600460008b77ffffffffffffffffffffffffffffffffffffffffffffffff191677ffffffffffffffffffffffffffffffffffffffffffffffff19168152602001908152602001600020600081819054906101000a900467ffffffffffffffff1660010191906101000a81548167ffffffffffffffff021916908367ffffffffffffffff160217905590506000898989604051602001610a2c92919061405e565b604051602081830303815290604052604051602001610a4c929190613ced565b6040516020818303038152906040528051906020012090508888604051602001610a7792919061405e565b604051602081830303815290604052600660008467ffffffffffffffff1667ffffffffffffffff16815260200190815260200160002060008d77ffffffffffffffffffffffffffffffffffffffffffffffff191677ffffffffffffffffffffffffffffffffffffffffffffffff191681526020019081526020016000209080519060200190610b07929190612c29565b50897bffffffffffffffffffffffffffffffffffffffffffffffffffffffff1916637377617060e01b7bffffffffffffffffffffffffffffffffffffffffffffffffffffffff19161415610c1057610bd0610b638a8a8e611fb0565b600960009054906101000a900473ffffffffffffffffffffffffffffffffffffffff1688888080601f016020809104026020016040519081016040528093929190818152602001838380828437600081840152601f19601f82011690508083019250505050505050612505565b610c0f576040517f08c379a0000000000000000000000000000000000000000000000000000000008152600401610c0690613ee3565b60405180910390fd5b5b6000610c658c8c8c8c8c888b8b8080601f016020809104026020016040519081016040528093929190818152602001838380828437600081840152601f19601f820116905080830192505050505050506126e0565b90506000881115610cc1577f525223e7c9e63747e47dd4558940766054da3d0378f4006848d2a201545f55a4600060169054906101000a900460c01b8d858e8d8d604051610cb896959493929190613dde565b60405180910390a15b60008a90508367ffffffffffffffff168c8e77ffffffffffffffffffffffffffffffffffffffffffffffff19167f370525803ffa9a7c0e6adb3868e393dca45d8b42b2f62fd1f23ecfe99f6ce8fc600060169054906101000a900460c01b338f88888b604051610d3696959493929190613d7d565b60405180910390a450505050505050505050505050565b60008060009054906101000a900460ff16905090565b610d6b61268f565b600860003373ffffffffffffffffffffffffffffffffffffffff1673ffffffffffffffffffffffffffffffffffffffff16815260200190815260200160002060009054906101000a900460ff16610df7576040517f08c379a0000000000000000000000000000000000000000000000000000000008152600401610dee90613f43565b60405180910390fd5b6000341415610fb75760006005600084815260200190815260200160002060009054906101000a900473ffffffffffffffffffffffffffffffffffffffff16905060008173ffffffffffffffffffffffffffffffffffffffff1663a7a3fb40856040518263ffffffff1660e01b8152600401610e739190613bae565b60206040518083038186803b158015610e8b57600080fd5b505afa158015610e9f573d6000803e3d6000fd5b505050506040513d601f19601f82011682018060405250810190610ec39190612e74565b90508073ffffffffffffffffffffffffffffffffffffffff1663d0e30db0846040518263ffffffff1660e01b81526004016000604051808303818588803b158015610f0d57600080fd5b505af1158015610f21573d6000803e3d6000fd5b50505050508073ffffffffffffffffffffffffffffffffffffffff1663a9059cbb83856040518363ffffffff1660e01b8152600401610f61929190613b6a565b602060405180830381600087803b158015610f7b57600080fd5b505af1158015610f8f573d6000803e3d6000fd5b505050506040513d601f19601f82011682018060405250810190610fb39190613003565b5050505b5050565b610fc36125fd565b806001541415611008576040517f08c379a0000000000000000000000000000000000000000000000000000000008152600401610fff90613fe3565b60405180910390fd5b8060018190555050565b83600060166101000a81548167ffffffffffffffff021916908360c01c02179055508260018190555081600260006101000a81548173ffffffffffffffffffffffffffffffffffffffff021916908373ffffffffffffffffffffffffffffffffffffffff16021790555080600960006101000a81548173ffffffffffffffffffffffffffffffffffffffff021916908373ffffffffffffffffffffffffffffffffffffffff1602179055506110c6336122bb565b50505050565b6110d4612935565b73ffffffffffffffffffffffffffffffffffffffff166110f261191b565b73ffffffffffffffffffffffffffffffffffffffff1614611148576040517f08c379a000000000000000000000000000000000000000000000000000000000815260040161113f90613fc3565b60405180910390fd5b600073ffffffffffffffffffffffffffffffffffffffff16600060019054906101000a900473ffffffffffffffffffffffffffffffffffffffff1673ffffffffffffffffffffffffffffffffffffffff167f8be0079c531659141344cd1fd0a4f28419497f9722a3daafe3b4186f6b6457e060405160405180910390a360008060016101000a81548173ffffffffffffffffffffffffffffffffffffffff021916908373ffffffffffffffffffffffffffffffffffffffff160217905550565b611210612935565b73ffffffffffffffffffffffffffffffffffffffff1661122e61191b565b73ffffffffffffffffffffffffffffffffffffffff1614611284576040517f08c379a000000000000000000000000000000000000000000000000000000000815260040161127b90613fc3565b60405180910390fd5b60008490508073ffffffffffffffffffffffffffffffffffffffff1663d9caed128585856040518463ffffffff1660e01b81526004016112c693929190613b33565b600060405180830381600087803b1580156112e057600080fd5b505af11580156112f4573d6000803e3d6000fd5b505050505050505050565b611307612935565b73ffffffffffffffffffffffffffffffffffffffff1661132561191b565b73ffffffffffffffffffffffffffffffffffffffff161461137b576040517f08c379a000000000000000000000000000000000000000000000000000000000815260040161137290613fc3565b60405180910390fd5b600047821061138a574761138c565b815b90508273ffffffffffffffffffffffffffffffffffffffff166108fc829081150290604051600060405180830381858888f193505050501580156113d4573d6000803e3d6000fd5b50505050565b600260009054906101000a900473ffffffffffffffffffffffffffffffffffffffff1681565b611408612935565b73ffffffffffffffffffffffffffffffffffffffff1661142661191b565b73ffffffffffffffffffffffffffffffffffffffff161461147c576040517f08c379a000000000000000000000000000000000000000000000000000000000815260040161147390613fc3565b60405180910390fd5b61148461293d565b565b60056020528060005260406000206000915054906101000a900473ffffffffffffffffffffffffffffffffffffffff1681565b600960009054906101000a900473ffffffffffffffffffffffffffffffffffffffff1681565b6114e76125fd565b6114ef61268f565b60608385604051602001611504929190614087565b60405160208183030381529060405290506000878a8a60405160200161152c93929190614155565b60405160208183030381529060405280519060200120905060008783604051602001611559929190613ced565b60405160208183030381529060405280519060200120905060076000838152602001908152602001600020600082815260200190815260200160002060009054906101000a900460ff16156115e3576040517f08c379a00000000000000000000000000000000000000000000000000000000081526004016115da90614023565b60405180910390fd5b600060169054906101000a900460c01b77ffffffffffffffffffffffffffffffffffffffffffffffff19168a77ffffffffffffffffffffffffffffffffffffffffffffffff19161461166a576040517f08c379a000000000000000000000000000000000000000000000000000000000815260040161166190614003565b60405180910390fd5b600160076000848152602001908152602001600020600083815260200190815260200160002060006101000a81548160ff0219169083151502179055506000889050887bffffffffffffffffffffffffffffffffffffffffffffffffffffffff1916637377617060e01b7bffffffffffffffffffffffffffffffffffffffffffffffffffffffff191614156117055761170289612998565b90505b60035481141561175b578773ffffffffffffffffffffffffffffffffffffffff166108fc889081150290604051600060405180830381858888f19350505050158015611755573d6000803e3d6000fd5b5061187e565b6000600560008b815260200190815260200160002060009054906101000a900473ffffffffffffffffffffffffffffffffffffffff169050600073ffffffffffffffffffffffffffffffffffffffff168173ffffffffffffffffffffffffffffffffffffffff161415611803576040517f08c379a00000000000000000000000000000000000000000000000000000000081526004016117fa90613f23565b60405180910390fd5b60008190508073ffffffffffffffffffffffffffffffffffffffff1663728e218f8c8c8c8c8c6040518663ffffffff1660e01b8152600401611849959493929190613bf2565b600060405180830381600087803b15801561186357600080fd5b505af1158015611877573d6000803e3d6000fd5b5050505050505b8773ffffffffffffffffffffffffffffffffffffffff168b77ffffffffffffffffffffffffffffffffffffffffffffffff19168d77ffffffffffffffffffffffffffffffffffffffffffffffff19167f9686dcabd0450cad86a88df15a9d35b08b35d1b08a19008df37cf8538c4675168a8e60038f896040516119059594939291906140e7565b60405180910390a4505050505050505050505050565b60008060019054906101000a900473ffffffffffffffffffffffffffffffffffffffff16905090565b61194c61268f565b600860003373ffffffffffffffffffffffffffffffffffffffff1673ffffffffffffffffffffffffffffffffffffffff16815260200190815260200160002060009054906101000a900460ff166119d8576040517f08c379a00000000000000000000000000000000000000000000000000000000081526004016119cf90613f43565b60405180910390fd5b6000600460008677ffffffffffffffffffffffffffffffffffffffffffffffff191677ffffffffffffffffffffffffffffffffffffffffffffffff19168152602001908152602001600020600081819054906101000a900467ffffffffffffffff1660010191906101000a81548167ffffffffffffffff021916908367ffffffffffffffff1602179055905060608383604051602001611a7992919061405e565b604051602081830303815290604052905060008582604051602001611a9f929190613ced565b60405160208183030381529060405280519060200120905081600660008567ffffffffffffffff1667ffffffffffffffff16815260200190815260200160002060008977ffffffffffffffffffffffffffffffffffffffffffffffff191677ffffffffffffffffffffffffffffffffffffffffffffffff191681526020019081526020016000209080519060200190611b39929190612c29565b5060006005600088815260200190815260200160002060009054906101000a900473ffffffffffffffffffffffffffffffffffffffff16905060008173ffffffffffffffffffffffffffffffffffffffff1663a7a3fb40896040518263ffffffff1660e01b8152600401611bad9190613bae565b60206040518083038186803b158015611bc557600080fd5b505afa158015611bd9573d6000803e3d6000fd5b505050506040513d601f19601f82011682018060405250810190611bfd9190612e74565b90508467ffffffffffffffff16888a77ffffffffffffffffffffffffffffffffffffffffffffffff19167f370525803ffa9a7c0e6adb3868e393dca45d8b42b2f62fd1f23ecfe99f6ce8fc600060169054906101000a900460c01b338b878e8b604051611c6f96959493929190613d7d565b60405180910390a4505050505050505050565b60076020528160005260406000206020528060005260406000206000915091509054906101000a900460ff1681565b611cb96125fd565b80600860008473ffffffffffffffffffffffffffffffffffffffff1673ffffffffffffffffffffffffffffffffffffffff16815260200190815260200160002060006101000a81548160ff0219169083151502179055505050565b60035481565b6006602052816000526040600020602052806000526040600020600091509150508054600181600116156101000203166002900480601f016020809104026020016040519081016040528092919081815260200182805460018160011615610100020316600290048015611dcf5780601f10611da457610100808354040283529160200191611dcf565b820191906000526020600020905b815481529060010190602001808311611db257829003601f168201915b505050505081565b611ddf6125fd565b826005600084815260200190815260200160002060006101000a81548173ffffffffffffffffffffffffffffffffffffffff021916908373ffffffffffffffffffffffffffffffffffffffff16021790555060008390508073ffffffffffffffffffffffffffffffffffffffff1663b8fa373684846040518363ffffffff1660e01b8152600401611e71929190613bc9565b600060405180830381600087803b158015611e8b57600080fd5b505af1158015611e9f573d6000803e3d6000fd5b505050506001600860008673ffffffffffffffffffffffffffffffffffffffff1673ffffffffffffffffffffffffffffffffffffffff16815260200190815260200160002060006101000a81548160ff02191690831515021790555050505050565b611f096125fd565b80600960006101000a81548173ffffffffffffffffffffffffffffffffffffffff021916908373ffffffffffffffffffffffffffffffffffffffff16021790555050565b6000611f8f83836040518060400160405280601e81526020017f536166654d6174683a207375627472616374696f6e206f766572666c6f7700008152506129f5565b905092915050565b600060169054906101000a900460c01b81565b60015481565b60006060611fbf858585612a50565b905060008180519060200120905080925050509392505050565b600060159054906101000a900460ff1681565b611ff46125fd565b60006005600085815260200190815260200160002060009054906101000a900473ffffffffffffffffffffffffffffffffffffffff169050600073ffffffffffffffffffffffffffffffffffffffff168173ffffffffffffffffffffffffffffffffffffffff16141561209c576040517f08c379a000000000000000000000000000000000000000000000000000000000815260040161209390613f83565b60405180910390fd5b60006005600085815260200190815260200160002060009054906101000a900473ffffffffffffffffffffffffffffffffffffffff169050600073ffffffffffffffffffffffffffffffffffffffff168173ffffffffffffffffffffffffffffffffffffffff161415612144576040517f08c379a000000000000000000000000000000000000000000000000000000000815260040161213b90613ec3565b60405180910390fd5b60008290508073ffffffffffffffffffffffffffffffffffffffff1663bf1ed1eb8784876040518463ffffffff1660e01b815260040161218693929190613c40565b600060405180830381600087803b1580156121a057600080fd5b505af11580156121b4573d6000803e3d6000fd5b50505050505050505050565b6121c86125fd565b60008290508073ffffffffffffffffffffffffffffffffffffffff166307b7ed99836040518263ffffffff1660e01b81526004016122069190613afd565b600060405180830381600087803b15801561222057600080fd5b505af1158015612234573d6000803e3d6000fd5b50505050505050565b612245612935565b73ffffffffffffffffffffffffffffffffffffffff1661226361191b565b73ffffffffffffffffffffffffffffffffffffffff16146122b9576040517f08c379a00000000000000000000000000000000000000000000000000000000081526004016122b090613fc3565b60405180910390fd5b565b600060159054906101000a900460ff16156122d557600080fd5b80600060016101000a81548173ffffffffffffffffffffffffffffffffffffffff021916908373ffffffffffffffffffffffffffffffffffffffff1602179055506001600060156101000a81548160ff0219169083151502179055508073ffffffffffffffffffffffffffffffffffffffff16600073ffffffffffffffffffffffffffffffffffffffff167f8be0079c531659141344cd1fd0a4f28419497f9722a3daafe3b4186f6b6457e060405160405180910390a350565b612397612935565b73ffffffffffffffffffffffffffffffffffffffff166123b561191b565b73ffffffffffffffffffffffffffffffffffffffff161461240b576040517f08c379a000000000000000000000000000000000000000000000000000000000815260040161240290613fc3565b60405180910390fd5b600073ffffffffffffffffffffffffffffffffffffffff168173ffffffffffffffffffffffffffffffffffffffff16141561244557600080fd5b8073ffffffffffffffffffffffffffffffffffffffff16600060019054906101000a900473ffffffffffffffffffffffffffffffffffffffff1673ffffffffffffffffffffffffffffffffffffffff167f8be0079c531659141344cd1fd0a4f28419497f9722a3daafe3b4186f6b6457e060405160405180910390a380600060016101000a81548173ffffffffffffffffffffffffffffffffffffffff021916908373ffffffffffffffffffffffffffffffffffffffff16021790555050565b60008273ffffffffffffffffffffffffffffffffffffffff166125288584612548565b73ffffffffffffffffffffffffffffffffffffffff161490509392505050565b600061255d8284612a8490919063ffffffff16565b905092915050565b600061257082612b4e565b9050919050565b61257f612935565b73ffffffffffffffffffffffffffffffffffffffff1661259d61191b565b73ffffffffffffffffffffffffffffffffffffffff16146125f3576040517f08c379a00000000000000000000000000000000000000000000000000000000081526004016125ea90613fc3565b60405180910390fd5b6125fb612b7e565b565b3373ffffffffffffffffffffffffffffffffffffffff16600260009054906101000a900473ffffffffffffffffffffffffffffffffffffffff1673ffffffffffffffffffffffffffffffffffffffff161461268d576040517f08c379a000000000000000000000000000000000000000000000000000000000815260040161268490613f03565b60405180910390fd5b565b6000809054906101000a900460ff16156126de576040517f08c379a00000000000000000000000000000000000000000000000000000000081526004016126d590613f63565b60405180910390fd5b565b60008084870190506000889050887bffffffffffffffffffffffffffffffffffffffffffffffffffffffff1916637377617060e01b7bffffffffffffffffffffffffffffffffffffffffffffffffffffffff191614156127465761274389612998565b90505b6003548114156127a0576001548201341015612797576040517f08c379a000000000000000000000000000000000000000000000000000000000815260040161278e90613fa3565b60405180910390fd5b60009250612928565b6001543410156127e5576040517f08c379a00000000000000000000000000000000000000000000000000000000081526004016127dc90613ea3565b60405180910390fd5b6000600560008b815260200190815260200160002060009054906101000a900473ffffffffffffffffffffffffffffffffffffffff169050600073ffffffffffffffffffffffffffffffffffffffff168173ffffffffffffffffffffffffffffffffffffffff16141561288d576040517f08c379a000000000000000000000000000000000000000000000000000000000815260040161288490613f23565b60405180910390fd5b8073ffffffffffffffffffffffffffffffffffffffff166375cd9cce8b8d89338d898c6040518863ffffffff1660e01b81526004016128d29796959493929190613c77565b602060405180830381600087803b1580156128ec57600080fd5b505af1158015612900573d6000803e3d6000fd5b505050506040513d601f19601f820116820180604052508101906129249190612e74565b9350505b5050979650505050505050565b600033905090565b61294561268f565b60016000806101000a81548160ff0219169083151502179055507f62e78cea01bee320cd4e420270b5ea74000d11b0c9f74754ebdbfc544b05a2583360405161298e9190613b18565b60405180910390a1565b60008060008060008593508560201b92508560401b91508560a01b90506129bd612ca9565b60405180602001604052806000801b8152509050816014820152806000600181106129e457fe5b602002015195505050505050919050565b6000838311158290612a3d576040517f08c379a0000000000000000000000000000000000000000000000000000000008152600401612a349190613e61565b60405180910390fd5b5060008385039050809150509392505050565b606080848484604051602001612a68939291906140b0565b6040516020818303038152906040529050809150509392505050565b6000806000806041855114612a9f5760009350505050612b48565b6020850151925060408501519150606085015160001a9050601b8160ff161015612aca57601b810190505b601b8160ff1614158015612ae25750601c8160ff1614155b15612af35760009350505050612b48565b60018682858560405160008152602001604052604051612b169493929190613d1d565b6020604051602081039080840390855afa158015612b38573d6000803e3d6000fd5b5050506020604051035193505050505b92915050565b600081604051602001612b619190613ad7565b604051602081830303815290604052805190602001209050919050565b612b86612bd9565b60008060006101000a81548160ff0219169083151502179055507f5db9ee0a495bf2e6ff9c91a7834c1ba4fdd244a5e8aa4e537bd38aeae4b073aa33604051612bcf9190613b18565b60405180910390a1565b6000809054906101000a900460ff16612c27576040517f08c379a0000000000000000000000000000000000000000000000000000000008152600401612c1e90613e83565b60405180910390fd5b565b828054600181600116156101000203166002900490600052602060002090601f016020900481019282601f10612c6a57805160ff1916838001178555612c98565b82800160010185558215612c98579182015b82811115612c97578251825591602001919060010190612c7c565b5b509050612ca59190612ccb565b5090565b6040518060200160405280600190602082028036833780820191505090505090565b612ced91905b80821115612ce9576000816000905550600101612cd1565b5090565b90565b600081359050612cff816143a9565b92915050565b600081519050612d14816143a9565b92915050565b600081359050612d29816143c0565b92915050565b600081359050612d3e816143d7565b92915050565b600081519050612d53816143d7565b92915050565b600081359050612d68816143ee565b92915050565b600081359050612d7d81614405565b92915050565b60008083601f840112612d9557600080fd5b8235905067ffffffffffffffff811115612dae57600080fd5b602083019150836001820283011115612dc657600080fd5b9250929050565b600082601f830112612dde57600080fd5b8135612df1612dec826141b9565b61418c565b91508082526020830160208301858383011115612e0d57600080fd5b612e1883828461433f565b50505092915050565b600081359050612e308161441c565b92915050565b600081359050612e4581614433565b92915050565b600060208284031215612e5d57600080fd5b6000612e6b84828501612cf0565b91505092915050565b600060208284031215612e8657600080fd5b6000612e9484828501612d05565b91505092915050565b60008060408385031215612eb057600080fd5b6000612ebe85828601612d1a565b9250506020612ecf85828601612e21565b9150509250929050565b60008060408385031215612eec57600080fd5b6000612efa85828601612cf0565b9250506020612f0b85828601612cf0565b9150509250929050565b60008060008060808587031215612f2b57600080fd5b6000612f3987828801612cf0565b9450506020612f4a87828801612cf0565b9350506040612f5b87828801612cf0565b9250506060612f6c87828801612e21565b91505092959194509250565b60008060408385031215612f8b57600080fd5b6000612f9985828601612cf0565b9250506020612faa85828601612d2f565b9150509250929050565b600080600060608486031215612fc957600080fd5b6000612fd786828701612cf0565b9350506020612fe886828701612d59565b9250506040612ff986828701612cf0565b9150509250925092565b60006020828403121561301557600080fd5b600061302384828501612d44565b91505092915050565b60006020828403121561303e57600080fd5b600061304c84828501612d59565b91505092915050565b60008060006060848603121561306a57600080fd5b600061307886828701612d59565b935050602061308986828701612cf0565b925050604084013567ffffffffffffffff8111156130a657600080fd5b6130b286828701612dcd565b9150509250925092565b600080604083850312156130cf57600080fd5b60006130dd85828601612d59565b92505060206130ee85828601612d59565b9150509250929050565b60008060006060848603121561310d57600080fd5b600061311b86828701612d59565b935050602061312c86828701612d59565b925050604061313d86828701612e21565b9150509250925092565b6000806040838503121561315a57600080fd5b600061316885828601612d59565b925050602083013567ffffffffffffffff81111561318557600080fd5b61319185828601612dcd565b9150509250929050565b600080604083850312156131ae57600080fd5b60006131bc85828601612d59565b92505060206131cd85828601612e21565b9150509250929050565b6000602082840312156131e957600080fd5b60006131f784828501612d6e565b91505092915050565b6000806000806080858703121561321657600080fd5b600061322487828801612d6e565b945050602061323587828801612d59565b935050604061324687828801612e21565b925050606061325787828801612cf0565b91505092959194509250565b600080600080600080600080600060e08a8c03121561328157600080fd5b600061328f8c828d01612d6e565b99505060206132a08c828d01612d59565b98505060406132b18c828d01612e21565b97505060606132c28c828d01612cf0565b96505060806132d38c828d01612e21565b95505060a08a013567ffffffffffffffff8111156132f057600080fd5b6132fc8c828d01612d83565b945094505060c08a013567ffffffffffffffff81111561331b57600080fd5b6133278c828d01612d83565b92509250509295985092959850929598565b60008060008060008060008060e0898b03121561335557600080fd5b60006133638b828c01612d6e565b98505060206133748b828c01612d6e565b97505060406133858b828c01612e36565b96505060606133968b828c01612d59565b95505060806133a78b828c01612d1a565b94505060a06133b88b828c01612e21565b93505060c089013567ffffffffffffffff8111156133d557600080fd5b6133e18b828c01612d83565b92509250509295985092959890939650565b6000806000806080858703121561340957600080fd5b600061341787828801612d6e565b945050602061342887828801612e21565b935050604061343987828801612cf0565b925050606061344a87828801612cf0565b91505092959194509250565b60006020828403121561346857600080fd5b600061347684828501612e21565b91505092915050565b60008060006060848603121561349457600080fd5b60006134a286828701612e21565b93505060206134b386828701612cf0565b92505060406134c486828701612d6e565b9150509250925092565b600080604083850312156134e157600080fd5b60006134ef85828601612e21565b925050602061350085828601612e21565b9150509250929050565b6000806040838503121561351d57600080fd5b600061352b85828601612e36565b925050602061353c85828601612d6e565b9150509250929050565b61354f816142f7565b82525050565b61355e81614245565b82525050565b61356d81614233565b82525050565b61357c81614257565b82525050565b61358b81614263565b82525050565b6135a261359d82614263565b614381565b82525050565b6135b18161426d565b82525050565b60006135c38385614206565b93506135d083858461433f565b6135d98361438b565b840190509392505050565b60006135ef826141f0565b6135f98185614206565b935061360981856020860161434e565b6136128161438b565b840191505092915050565b6000613628826141e5565b6136328185614206565b935061364281856020860161434e565b61364b8161438b565b840191505092915050565b61365f81614309565b82525050565b6000613670826141fb565b61367a8185614217565b935061368a81856020860161434e565b6136938161438b565b840191505092915050565b60006136ab601483614217565b91507f5061757361626c653a206e6f74207061757365640000000000000000000000006000830152602082019050919050565b60006136eb601c83614228565b91507f19457468657265756d205369676e6564204d6573736167653a0a3332000000006000830152601c82019050919050565b600061372b601683614217565b91507f496e636f72726563742066656520737570706c696564000000000000000000006000830152602082019050919050565b600061376b602783614217565b91507f7265736f7572636549445370656e646572206e6f74206d617070656420746f2060008301527f68616e646c6572000000000000000000000000000000000000000000000000006020830152604082019050919050565b60006137d1601183614217565b91507f496e76616c6964207369676e61747572650000000000000000000000000000006000830152602082019050919050565b6000613811601f83614217565b91507f73656e646572206973206e6f742061206261636b656e642073657276696365006000830152602082019050919050565b6000613851602083614217565b91507f7265736f757263654944206e6f74206d617070656420746f2068616e646c65726000830152602082019050919050565b6000613891601783614217565b91507f73656e646572206973206e6f7420612068616e646c65720000000000000000006000830152602082019050919050565b60006138d1601083614217565b91507f5061757361626c653a20706175736564000000000000000000000000000000006000830152602082019050919050565b6000613911602583614217565b91507f7265736f7572636549444f776e6572206e6f74206d617070656420746f20686160008301527f6e646c65720000000000000000000000000000000000000000000000000000006020830152604082019050919050565b6000613977601d83614217565b91507f496e636f7272656374206665652f616d6f756e7420737570706c6965640000006000830152602082019050919050565b60006139b7601683614217565b91507f73656e6465722073686f756c64206265206f776e6572000000000000000000006000830152602082019050919050565b60006139f7601f83614217565b91507f43757272656e742066656520697320657175616c20746f206e657720666565006000830152602082019050919050565b6000613a37601183614217565b91507f436861696e494420496e636f72726563740000000000000000000000000000006000830152602082019050919050565b6000613a77601983614217565b91507f70726f706f73616c20616c7265616479206578656375746564000000000000006000830152602082019050919050565b613ab3816142cc565b82525050565b613ac2816142d6565b82525050565b613ad1816142ea565b82525050565b6000613ae2826136de565b9150613aee8284613591565b60208201915081905092915050565b6000602082019050613b126000830184613564565b92915050565b6000602082019050613b2d6000830184613546565b92915050565b6000606082019050613b486000830186613564565b613b556020830185613564565b613b626040830184613aaa565b949350505050565b6000604082019050613b7f6000830185613564565b613b8c6020830184613aaa565b9392505050565b6000602082019050613ba86000830184613573565b92915050565b6000602082019050613bc36000830184613582565b92915050565b6000604082019050613bde6000830185613582565b613beb6020830184613564565b9392505050565b6000608082019050613c076000830188613582565b613c146020830187613546565b613c216040830186613aaa565b8181036060830152613c348184866135b7565b90509695505050505050565b6000606082019050613c556000830186613582565b613c626020830185613564565b613c6f6040830184613aaa565b949350505050565b600060e082019050613c8c600083018a613582565b613c9960208301896135a8565b613ca66040830188613ab9565b613cb36060830187613546565b613cc06080830186613564565b613ccd60a0830185613aaa565b81810360c0830152613cdf81846135e4565b905098975050505050505050565b6000604082019050613d026000830185613582565b8181036020830152613d1481846135e4565b90509392505050565b6000608082019050613d326000830187613582565b613d3f6020830186613ac8565b613d4c6040830185613582565b613d596060830184613582565b95945050505050565b6000602082019050613d7760008301846135a8565b92915050565b600060c082019050613d9260008301896135a8565b613d9f6020830188613546565b613dac6040830187613564565b613db96060830186613564565b613dc66080830185613aaa565b613dd360a0830184613582565b979650505050505050565b600060c082019050613df360008301896135a8565b613e0060208301886135a8565b613e0d6040830187613ab9565b613e1a6060830186613582565b613e276080830185613564565b613e3460a0830184613aaa565b979650505050505050565b60006020820190508181036000830152613e59818461361d565b905092915050565b60006020820190508181036000830152613e7b8184613665565b905092915050565b60006020820190508181036000830152613e9c8161369e565b9050919050565b60006020820190508181036000830152613ebc8161371e565b9050919050565b60006020820190508181036000830152613edc8161375e565b9050919050565b60006020820190508181036000830152613efc816137c4565b9050919050565b60006020820190508181036000830152613f1c81613804565b9050919050565b60006020820190508181036000830152613f3c81613844565b9050919050565b60006020820190508181036000830152613f5c81613884565b9050919050565b60006020820190508181036000830152613f7c816138c4565b9050919050565b60006020820190508181036000830152613f9c81613904565b9050919050565b60006020820190508181036000830152613fbc8161396a565b9050919050565b60006020820190508181036000830152613fdc816139aa565b9050919050565b60006020820190508181036000830152613ffc816139ea565b9050919050565b6000602082019050818103600083015261401c81613a2a565b9050919050565b6000602082019050818103600083015261403c81613a6a565b9050919050565b60006020820190506140586000830184613aaa565b92915050565b60006040820190506140736000830185613aaa565b6140806020830184613564565b9392505050565b600060408201905061409c6000830185613aaa565b6140a96020830184613555565b9392505050565b60006060820190506140c56000830186613aaa565b6140d26020830185613564565b6140df60408301846135a8565b949350505050565b600060a0820190506140fc6000830188613aaa565b6141096020830187613ab9565b6141166040830186613656565b6141236060830185613582565b6141306080830184613582565b9695505050505050565b600060208201905061414f6000830184613ab9565b92915050565b600060608201905061416a6000830186613ab9565b61417760208301856135a8565b61418460408301846135a8565b949350505050565b6000604051905081810181811067ffffffffffffffff821117156141af57600080fd5b8060405250919050565b600067ffffffffffffffff8211156141d057600080fd5b601f19601f8301169050602081019050919050565b600081519050919050565b600081519050919050565b600081519050919050565b600082825260208201905092915050565b600082825260208201905092915050565b600081905092915050565b600061423e826142ac565b9050919050565b6000614250826142ac565b9050919050565b60008115159050919050565b6000819050919050565b60007fffffffffffffffff00000000000000000000000000000000000000000000000082169050919050565b60008190506142a78261439c565b919050565b600073ffffffffffffffffffffffffffffffffffffffff82169050919050565b6000819050919050565b600067ffffffffffffffff82169050919050565b600060ff82169050919050565b60006143028261431b565b9050919050565b600061431482614299565b9050919050565b60006143268261432d565b9050919050565b6000614338826142ac565b9050919050565b82818337600083830152505050565b60005b8381101561436c578082015181840152602081019050614351565b8381111561437b576000848401525b50505050565b6000819050919050565b6000601f19601f8301169050919050565b600581106143a657fe5b50565b6143b281614233565b81146143bd57600080fd5b50565b6143c981614245565b81146143d457600080fd5b50565b6143e081614257565b81146143eb57600080fd5b50565b6143f781614263565b811461440257600080fd5b50565b61440e8161426d565b811461441957600080fd5b50565b614425816142cc565b811461443057600080fd5b50565b61443c816142d6565b811461444757600080fd5b5056fea2646970667358221220795c03b0105f144e566fac11937f4a9bf61b502b14c594ee76db08b018a9341d64736f6c63430006040033",
  "source": "pragma solidity 0.6.4;\npragma experimental ABIEncoderV2;\n\nimport \"./utils/Pausable.sol\";\nimport \"./utils/SafeMath.sol\";\nimport \"./utils/UpgradableOwnable.sol\";\nimport \"./interfaces/IDepositExecute.sol\";\nimport \"./interfaces/IBridge.sol\";\nimport \"./interfaces/IERC20.sol\";\nimport \"./interfaces/IERCHandler.sol\";\nimport \"./utils/VerifySignature.sol\";\n\n/**\n    @title Facilitates deposits, creation and votiing of deposit proposals, and deposit executions.\n */\ncontract Bridge is\n    Pausable,\n    SafeMathContract,\n    VerifySignature,\n    UpgradableOwnable\n{\n    bytes8 public _chainID;\n    uint256 public _fee;\n    address public _backendSrvAddress;\n\n    enum ProposalStatus {\n        Inactive,\n        Active,\n        Passed,\n        Executed,\n        Cancelled\n    }\n\n    bytes32 public _nativeResourceID;\n\n    // destinationChainID => number of deposits\n    mapping(bytes8 => uint64) public _depositCounts;\n    // resourceID => handler address\n    mapping(bytes32 => address) public _resourceIDToHandlerAddress;\n    // depositNonce => destinationChainID => bytes\n    mapping(uint64 => mapping(bytes8 => bytes)) public _depositRecords;\n    // destinationChainID + depositNonce => dataHash => bool\n    mapping(bytes32 => mapping(bytes32 => bool)) public _executedProposals;\n\n    mapping(address => bool) public handlers;\n\n    address public _balancerAddress;\n\n    event Deposit(\n        bytes8 originChainID,\n        bytes8 indexed destinationChainID,\n        bytes32 indexed resourceID,\n        uint64 indexed depositNonce,\n        address depositor,\n        address recipientAddress,\n        address tokenAddress,\n        uint256 amount,\n        bytes32 dataHash\n    );\n    event ProposalEvent(\n        bytes8 indexed originChainID,\n        bytes8 indexed destinationChainID,\n        address indexed recipientAddress,\n        uint256 amount,\n        uint64 depositNonce,\n        ProposalStatus status,\n        bytes32 resourceID,\n        bytes32 dataHash\n    );\n    event ExtraFeeSupplied(\n        bytes8 originChainID,\n        bytes8 destinationChainID,\n        uint64 depositNonce,\n        bytes32 resourceID,\n        address recipientAddress,\n        uint256 amount\n    );\n\n    modifier onlyBackendSrv() {\n        _onlyBackendSrv();\n        _;\n    }\n\n    function _onlyBackendSrv() private view {\n        require(\n            _backendSrvAddress == msg.sender,\n            \"sender is not a backend service\"\n        );\n    }\n\n    modifier onlyHandler() {\n        require(handlers[msg.sender], \"sender is not a handler\");\n        _;\n    }\n\n    function setHandler(address _handler, bool value) external onlyBackendSrv {\n        handlers[_handler] = value;\n    }\n\n    /**\n        @notice Initializes Bridge, creates and grants {msg.sender} the admin role,\n        Sets deposit fee\n        @param chainID ID of chain the Bridge contract exists on.\n     */\n    function initialize(\n        bytes8 chainID,\n        uint256 fee,\n        address initBackendSrvAddress,\n        address initBalancerAddress_\n    ) public {\n        _chainID = chainID;\n        _fee = fee;\n        _backendSrvAddress = initBackendSrvAddress;\n        _balancerAddress = initBalancerAddress_;\n        ownableInit(msg.sender);\n    }\n\n    /**\n        @notice sets new backend srv.\n        @notice Only callable by an address that currently has the admin role.\n        @param newBackendSrv Address of new backend srv.\n     */\n    function setBackendSrv(address newBackendSrv) external onlyBackendSrv {\n        _backendSrvAddress = newBackendSrv;\n    }\n\n    /**\n        @notice Pauses deposits, proposal creation and voting, and deposit executions.\n        @notice Only callable by an address that currently has the admin role.\n     */\n    function adminPauseTransfers() external onlyOwner {\n        _pause();\n    }\n\n    /**\n        @notice Unpauses deposits, proposal creation and voting, and deposit executions.\n        @notice Only callable by an address that currently has the admin role.\n     */\n    function adminUnpauseTransfers() external onlyOwner {\n        _unpause();\n    }\n\n    /**\n        @notice Sets a new resource for handler contracts that use the IERCHandler interface,\n        and maps the {handlerAddress} to {resourceID} in {_resourceIDToHandlerAddress}.\n        @notice Only callable by an address that currently has the admin role.\n        @param handlerAddress Address of handler resource will be set for.\n        @param resourceID ResourceID to be used when making deposits.\n        @param tokenAddress Address of contract to be called when a deposit is made and a deposited is executed.\n     */\n    function setResource(\n        address handlerAddress,\n        bytes32 resourceID,\n        address tokenAddress\n    ) external onlyBackendSrv {\n        _resourceIDToHandlerAddress[resourceID] = handlerAddress;\n        IERCHandler handler = IERCHandler(handlerAddress);\n        handler.setResource(resourceID, tokenAddress);\n        handlers[handlerAddress] = true;\n    }\n\n    /**\n        @notice sets resourceID for native token\n        @dev can only be called through admin address\n        @param resourceID resourceID for native token\n     */\n    function setNativeResourceID(bytes32 resourceID) external onlyBackendSrv {\n        _nativeResourceID = resourceID;\n    }\n\n    /**\n        @notice Sets a resource as burnable for handler contracts that use the IERCHandler interface.\n        @notice Only callable by an address that currently has the admin role.\n        @param handlerAddress Address of handler resource will be set for.\n        @param tokenAddress Address of contract to be called when a deposit is made and a deposited is executed.\n     */\n    function setBurnable(address handlerAddress, address tokenAddress)\n        external\n        onlyBackendSrv\n    {\n        IERCHandler handler = IERCHandler(handlerAddress);\n        handler.setBurnable(tokenAddress);\n    }\n\n    /**\n        @notice Changes deposit fee.\n        @notice Only callable by admin.\n        @param newFee Value {_fee} will be updated to.\n     */\n    function changeFee(uint256 newFee) external onlyBackendSrv {\n        require(_fee != newFee, \"Current fee is equal to new fee\");\n        _fee = newFee;\n    }\n\n    function setBalancerAddress(address newBalancer) external onlyBackendSrv {\n        _balancerAddress = newBalancer;\n    }\n\n    /**\n        @notice Used to manually withdraw funds from ERC safes.\n        @param handlerAddress Address of handler to withdraw from.\n        @param tokenAddress Address of token to withdraw.\n        @param recipient Address to withdraw tokens to.\n        @param amountOrTokenID Either the amount of ERC20 tokens or the ERC721 token ID to withdraw.\n     */\n    function adminWithdraw(\n        address handlerAddress,\n        address tokenAddress,\n        address recipient,\n        uint256 amountOrTokenID\n    ) external onlyOwner {\n        IERCHandler handler = IERCHandler(handlerAddress);\n        handler.withdraw(tokenAddress, recipient, amountOrTokenID);\n    }\n\n    /**\n        @notice Used to approve spending tokens by another handler.\n        @param resourceIDOwner ID of owner handler.\n        @param resourceIDSpender ID of spender handler.\n        @param amountOrTokenID Either the amount of ERC20 tokens or the ERC721 token ID to approve.\n     */\n    function approveSpending(\n        bytes32 resourceIDOwner,\n        bytes32 resourceIDSpender,\n        uint256 amountOrTokenID\n    ) external onlyBackendSrv {\n        address handlerOwner = _resourceIDToHandlerAddress[resourceIDOwner];\n        require(\n            handlerOwner != address(0),\n            \"resourceIDOwner not mapped to handler\"\n        );\n\n        address handlerSpender = _resourceIDToHandlerAddress[resourceIDSpender];\n        require(\n            handlerSpender != address(0),\n            \"resourceIDSpender not mapped to handler\"\n        );\n\n        IERCHandler handler = IERCHandler(handlerOwner);\n        handler.approve(resourceIDOwner, handlerSpender, amountOrTokenID);\n    }\n\n    /**\n        @notice Initiates a transfer using a specified handler contract.\n        @notice Only callable when Bridge is not paused.\n        @param destinationChainID ID of chain deposit will be bridged to.\n        @param resourceID ResourceID used to find address of handler to be used for deposit.\n        @param amountToLA to be converted to LA with bridge swap.\n        @notice Emits {Deposit} event.\n     */\n    function deposit(\n        bytes8 destinationChainID,\n        bytes32 resourceID,\n        uint256 amount,\n        address recipientAddress,\n        uint256 amountToLA,\n        bytes calldata signature,\n        bytes calldata params\n    ) external payable whenNotPaused {\n        uint64 depositNonce = ++_depositCounts[destinationChainID];\n        // bytes memory data =\n        bytes32 dataHash = keccak256(\n            abi.encode(resourceID, abi.encode(amount, recipientAddress))\n        );\n        _depositRecords[depositNonce][destinationChainID] = abi.encode(\n            amount,\n            recipientAddress\n        );\n        if (bytes4(0x73776170) == bytes4(resourceID)) {\n            require(\n                verify(\n                    createMesssageHash(\n                        amount,\n                        recipientAddress,\n                        destinationChainID\n                    ),\n                    _balancerAddress,\n                    signature\n                ),\n                \"Invalid signature\"\n            );\n        }\n        address tokenAddress = completeDeposit(\n            destinationChainID,\n            resourceID,\n            amount,\n            recipientAddress,\n            amountToLA,\n            depositNonce,\n            params\n        );\n\n        if (amountToLA > 0) {\n            emit ExtraFeeSupplied(\n                _chainID,\n                destinationChainID,\n                depositNonce,\n                resourceID,\n                recipientAddress,\n                amountToLA\n            );\n        }\n\n        uint256 stackAmount = amount;\n\n        emit Deposit(\n            _chainID,\n            destinationChainID,\n            resourceID,\n            depositNonce,\n            msg.sender,\n            recipientAddress,\n            tokenAddress,\n            stackAmount,\n            dataHash\n        );\n    }\n\n    function completeDeposit(\n        bytes8 destinationChainID,\n        bytes32 resourceID,\n        uint256 amount,\n        address recipientAddress,\n        uint256 amountToLA,\n        uint64 depositNonce,\n        bytes memory params\n    ) internal returns (address tokenAddress) {\n        uint256 totalAmount = amount + amountToLA;\n        bytes32 srcResourceId = resourceID;\n        if (bytes4(0x73776170) == bytes4(resourceID)) {\n            srcResourceId = getSourceResourceId(resourceID);\n        }\n        if (srcResourceId == _nativeResourceID) {\n            require(\n                msg.value >= (totalAmount + _fee),\n                \"Incorrect fee/amount supplied\"\n            );\n\n            tokenAddress = address(0);\n        } else {\n            require(msg.value >= _fee, \"Incorrect fee supplied\");\n\n            address handler = _resourceIDToHandlerAddress[resourceID];\n            require(handler != address(0), \"resourceID not mapped to handler\");\n\n            tokenAddress = IDepositExecute(handler).deposit(\n                resourceID,\n                destinationChainID,\n                depositNonce,\n                msg.sender,\n                recipientAddress,\n                totalAmount,\n                params\n            );\n        }\n    }\n\n    // Deposit for AAVE amTokens\n    function internalDeposit(\n        bytes8 destinationChainID,\n        bytes32 resourceID,\n        uint256 amount,\n        address recipientAddress\n    ) public whenNotPaused onlyHandler {\n        uint64 depositNonce = ++_depositCounts[destinationChainID];\n        bytes memory data = abi.encode(amount, recipientAddress);\n        bytes32 dataHash = keccak256(abi.encode(resourceID, data));\n        _depositRecords[depositNonce][destinationChainID] = data;\n\n        address handler = _resourceIDToHandlerAddress[resourceID];\n        address tokenAddress = IDepositExecute(handler)\n            .getAddressFromResourceId(resourceID);\n\n        emit Deposit(\n            _chainID,\n            destinationChainID,\n            resourceID,\n            depositNonce,\n            msg.sender,\n            recipientAddress,\n            tokenAddress,\n            amount,\n            dataHash\n        );\n    }\n\n    function depositNativeToken(bytes32 resourceID, uint256 amount)\n        public\n        payable\n        whenNotPaused\n        onlyHandler\n    {\n        if (msg.value == 0) {\n            // send wrapped native tokens to handler\n            address handler = _resourceIDToHandlerAddress[resourceID];\n            address wTokenAddress = IDepositExecute(handler)\n                .getAddressFromResourceId(resourceID);\n\n            IWETH(wTokenAddress).deposit{value: amount}();\n            IWETH(wTokenAddress).transfer(handler, amount);\n        }\n        // recieve funds\n    }\n\n    /**\n        @notice Executes a deposit proposal that is considered passed using a specified handler contract.\n        @notice Only callable by relayers when Bridge is not paused.\n        @param destinationChainID ID of chain where proposal is executed.\n        @param resourceID ResourceID to be used when making deposits.\n        @param depositNonce ID of deposited generated by origin Bridge contract.\n        @notice Proposal must not have executed before.\n        @notice Emits {ProposalEvent} event with status {Executed}.\n     */\n    function executeProposal(\n        bytes8 originChainID,\n        bytes8 destinationChainID,\n        uint64 depositNonce,\n        bytes32 resourceID,\n        address payable recipientAddress,\n        uint256 amount,\n        bytes calldata params\n    ) external onlyBackendSrv whenNotPaused {\n        bytes memory data = abi.encode(amount, recipientAddress);\n        bytes32 nonceAndID = keccak256(\n            abi.encode(depositNonce, originChainID, destinationChainID)\n        );\n        bytes32 dataHash = keccak256(abi.encode(resourceID, data));\n\n        require(\n            !_executedProposals[nonceAndID][dataHash],\n            \"proposal already executed\"\n        );\n        require(destinationChainID == _chainID, \"ChainID Incorrect\");\n\n        _executedProposals[nonceAndID][dataHash] = true;\n        bytes32 srcResourceId = resourceID;\n        if (bytes4(0x73776170) == bytes4(resourceID)) {\n            srcResourceId = getSourceResourceId(resourceID);\n        }\n        if (srcResourceId == _nativeResourceID) {\n            recipientAddress.transfer(amount);\n        } else {\n            address handler = _resourceIDToHandlerAddress[resourceID];\n            require(handler != address(0), \"resourceID not mapped to handler\");\n\n            IDepositExecute depositHandler = IDepositExecute(handler);\n            depositHandler.executeProposal(\n                resourceID,\n                recipientAddress,\n                amount,\n                params\n            );\n        }\n\n        emit ProposalEvent(\n            originChainID,\n            destinationChainID,\n            recipientAddress,\n            amount,\n            depositNonce,\n            ProposalStatus.Executed,\n            resourceID,\n            dataHash\n        );\n    }\n\n    /**\n        @notice to be called if owner wants to collect fees\n        @dev can only be called by owner\n        @param amount will be trasnfered to owner if contract balace is higher or equal to amount\n    */\n    function adminCollectFees(address payable recipient, uint256 amount)\n        external\n        onlyOwner\n    {\n        uint256 amountToTransfer = amount < address(this).balance\n            ? amount\n            : address(this).balance;\n        recipient.transfer(amountToTransfer);\n    }\n\n    /** \n        @notice to deposit native token to the contract\n        @dev to be called by admin\n    */\n    function depositFunds() external payable onlyOwner {}\n\n    function getSourceResourceId(bytes32 resourceID)\n        internal\n        returns (bytes32)\n    {\n        bytes4 swapIdentifier;\n        bytes4 chainId;\n        bytes12 destinationResourceId;\n        bytes12 srcResourceId;\n\n        assembly {\n            swapIdentifier := resourceID\n            chainId := shl(32, resourceID)\n            destinationResourceId := shl(64, resourceID)\n            srcResourceId := shl(160, resourceID)\n        }\n        bytes32[1] memory result = [bytes32(0)];\n        assembly {\n            mstore(add(result, 20), srcResourceId)\n        }\n        return result[0];\n    }\n}\n",
  "sourcePath": "/Users/9to5mac/Desktop/code/latoken/ethereum-crosschain-contract/contracts/Bridge.sol",
  "compiler": {
    "name": "solc",
    "version": "0.6.4+commit.1dca32f3.Emscripten.clang"
  },
  "schemaVersion": "3.4.9",
  "updatedAt": "2022-10-10T12:49:27.236Z",
  "networkType": "ethereum",
  "devdoc": {
    "methods": {
      "adminCollectFees(address,uint256)": {
        "details": "can only be called by owner",
        "params": {
          "amount": "will be trasnfered to owner if contract balace is higher or equal to amount"
        }
      },
      "adminWithdraw(address,address,address,uint256)": {
        "params": {
          "amountOrTokenID": "Either the amount of ERC20 tokens or the ERC721 token ID to withdraw.",
          "handlerAddress": "Address of handler to withdraw from.",
          "recipient": "Address to withdraw tokens to.",
          "tokenAddress": "Address of token to withdraw."
        }
      },
      "approveSpending(bytes32,bytes32,uint256)": {
        "params": {
          "amountOrTokenID": "Either the amount of ERC20 tokens or the ERC721 token ID to approve.",
          "resourceIDOwner": "ID of owner handler.",
          "resourceIDSpender": "ID of spender handler."
        }
      },
      "changeFee(uint256)": {
        "params": {
          "newFee": "Value {_fee} will be updated to."
        }
      },
      "deposit(bytes8,bytes32,uint256,address,uint256,bytes,bytes)": {
        "params": {
          "amountToLA": "to be converted to LA with bridge swap.",
          "destinationChainID": "ID of chain deposit will be bridged to.",
          "resourceID": "ResourceID used to find address of handler to be used for deposit."
        }
      },
      "depositFunds()": {
        "details": "to be called by admin"
      },
      "executeProposal(bytes8,bytes8,uint64,bytes32,address,uint256,bytes)": {
        "params": {
          "depositNonce": "ID of deposited generated by origin Bridge contract.",
          "destinationChainID": "ID of chain where proposal is executed.",
          "resourceID": "ResourceID to be used when making deposits."
        }
      },
      "initialize(bytes8,uint256,address,address)": {
        "params": {
          "chainID": "ID of chain the Bridge contract exists on."
        }
      },
      "ownableInit(address)": {
        "details": "Initializes the contract setting the deployer as the initial owner."
      },
      "owner()": {
        "details": "Returns the address of the current owner."
      },
      "paused()": {
        "details": "Returns true if the contract is paused, and false otherwise."
      },
      "renounceOwnership()": {
        "details": "Leaves the contract without owner. It will not be possible to call `onlyOwner` functions anymore. Can only be called by the current owner.     * NOTE: Renouncing ownership will leave the contract without an owner, thereby removing any functionality that is only available to the owner."
      },
      "setBackendSrv(address)": {
        "params": {
          "newBackendSrv": "Address of new backend srv."
        }
      },
      "setBurnable(address,address)": {
        "params": {
          "handlerAddress": "Address of handler resource will be set for.",
          "tokenAddress": "Address of contract to be called when a deposit is made and a deposited is executed."
        }
      },
      "setNativeResourceID(bytes32)": {
        "details": "can only be called through admin address",
        "params": {
          "resourceID": "resourceID for native token"
        }
      },
      "setResource(address,bytes32,address)": {
        "params": {
          "handlerAddress": "Address of handler resource will be set for.",
          "resourceID": "ResourceID to be used when making deposits.",
          "tokenAddress": "Address of contract to be called when a deposit is made and a deposited is executed."
        }
      },
      "sub(uint256,uint256)": {
        "details": "Returns the subtraction of two unsigned integers, reverting on overflow (when the result is negative).     * Counterpart to Solidity's `-` operator.     * Requirements: - Subtraction cannot overflow."
      },
      "transferOwnership(address)": {
        "details": "Transfers ownership of the contract to a new account (`newOwner`). Can only be called by the current owner."
      }
    },
    "title": "Facilitates deposits, creation and votiing of deposit proposals, and deposit executions."
  },
  "userdoc": {
    "methods": {
      "adminCollectFees(address,uint256)": {
        "notice": "to be called if owner wants to collect fees"
      },
      "adminPauseTransfers()": {
        "notice": "Pauses deposits, proposal creation and voting, and deposit executions.Only callable by an address that currently has the admin role."
      },
      "adminUnpauseTransfers()": {
        "notice": "Unpauses deposits, proposal creation and voting, and deposit executions.Only callable by an address that currently has the admin role."
      },
      "adminWithdraw(address,address,address,uint256)": {
        "notice": "Used to manually withdraw funds from ERC safes."
      },
      "approveSpending(bytes32,bytes32,uint256)": {
        "notice": "Used to approve spending tokens by another handler."
      },
      "changeFee(uint256)": {
        "notice": "Changes deposit fee.Only callable by admin."
      },
      "deposit(bytes8,bytes32,uint256,address,uint256,bytes,bytes)": {
        "notice": "Initiates a transfer using a specified handler contract.Only callable when Bridge is not paused.Emits {Deposit} event."
      },
      "depositFunds()": {
        "notice": "to deposit native token to the contract"
      },
      "executeProposal(bytes8,bytes8,uint64,bytes32,address,uint256,bytes)": {
        "notice": "Executes a deposit proposal that is considered passed using a specified handler contract.Only callable by relayers when Bridge is not paused.Proposal must not have executed before.Emits {ProposalEvent} event with status {Executed}."
      },
      "initialize(bytes8,uint256,address,address)": {
        "notice": "Initializes Bridge, creates and grants {msg.sender} the admin role, Sets deposit fee"
      },
      "setBackendSrv(address)": {
        "notice": "sets new backend srv.Only callable by an address that currently has the admin role."
      },
      "setBurnable(address,address)": {
        "notice": "Sets a resource as burnable for handler contracts that use the IERCHandler interface.Only callable by an address that currently has the admin role."
      },
      "setNativeResourceID(bytes32)": {
        "notice": "sets resourceID for native token"
      },
      "setResource(address,bytes32,address)": {
        "notice": "Sets a new resource for handler contracts that use the IERCHandler interface, and maps the {handlerAddress} to {resourceID} in {_resourceIDToHandlerAddress}.Only callable by an address that currently has the admin role."
      }
    }
  }
}