{
  "contractName": "ERC20Handler",
  "abi": [
    {
      "anonymous": false,
      "inputs": [
        {
          "indexed": true,
          "internalType": "address",
          "name": "previousOwner",
          "type": "address"
        },
        {
          "indexed": true,
          "internalType": "address",
          "name": "newOwner",
          "type": "address"
        }
      ],
      "name": "OwnershipTransferred",
      "type": "event"
    },
    {
      "inputs": [],
      "name": "_bridgeAddress",
      "outputs": [
        {
          "internalType": "address",
          "name": "",
          "type": "address"
        }
      ],
      "stateMutability": "view",
      "type": "function"
    },
    {
      "inputs": [
        {
          "internalType": "address",
          "name": "",
          "type": "address"
        }
      ],
      "name": "_burnList",
      "outputs": [
        {
          "internalType": "bool",
          "name": "",
          "type": "bool"
        }
      ],
      "stateMutability": "view",
      "type": "function"
    },
    {
      "inputs": [
        {
          "internalType": "address",
          "name": "",
          "type": "address"
        }
      ],
      "name": "_contractWhitelist",
      "outputs": [
        {
          "internalType": "bool",
          "name": "",
          "type": "bool"
        }
      ],
      "stateMutability": "view",
      "type": "function"
    },
    {
      "inputs": [
        {
          "internalType": "bytes8",
          "name": "",
          "type": "bytes8"
        },
        {
          "internalType": "uint64",
          "name": "",
          "type": "uint64"
        }
      ],
      "name": "_depositRecords",
      "outputs": [
        {
          "internalType": "address",
          "name": "_tokenAddress",
          "type": "address"
        },
        {
          "internalType": "bytes8",
          "name": "_destinationChainID",
          "type": "bytes8"
        },
        {
          "internalType": "bytes32",
          "name": "_resourceID",
          "type": "bytes32"
        },
        {
          "internalType": "address",
          "name": "_destinationRecipientAddress",
          "type": "address"
        },
        {
          "internalType": "address",
          "name": "_depositer",
          "type": "address"
        },
        {
          "internalType": "uint256",
          "name": "_amount",
          "type": "uint256"
        }
      ],
      "stateMutability": "view",
      "type": "function"
    },
    {
      "inputs": [],
      "name": "_isInitialised",
      "outputs": [
        {
          "internalType": "bool",
          "name": "",
          "type": "bool"
        }
      ],
      "stateMutability": "view",
      "type": "function"
    },
    {
      "inputs": [
        {
          "internalType": "bytes32",
          "name": "",
          "type": "bytes32"
        }
      ],
      "name": "_minDeposits",
      "outputs": [
        {
          "internalType": "uint256",
          "name": "",
          "type": "uint256"
        }
      ],
      "stateMutability": "view",
      "type": "function"
    },
    {
      "inputs": [
        {
          "internalType": "bytes32",
          "name": "",
          "type": "bytes32"
        }
      ],
      "name": "_resourceIDToTokenContractAddress",
      "outputs": [
        {
          "internalType": "address",
          "name": "",
          "type": "address"
        }
      ],
      "stateMutability": "view",
      "type": "function"
    },
    {
      "inputs": [
        {
          "internalType": "address",
          "name": "",
          "type": "address"
        }
      ],
      "name": "_tokenContractAddressToResourceID",
      "outputs": [
        {
          "internalType": "bytes32",
          "name": "",
          "type": "bytes32"
        }
      ],
      "stateMutability": "view",
      "type": "function"
    },
    {
      "inputs": [
        {
          "internalType": "address",
          "name": "tokenAddress",
          "type": "address"
        },
        {
          "internalType": "address",
          "name": "owner",
          "type": "address"
        },
        {
          "internalType": "uint256",
          "name": "amount",
          "type": "uint256"
        }
      ],
      "name": "fundERC20",
      "outputs": [],
      "stateMutability": "nonpayable",
      "type": "function"
    },
    {
      "inputs": [
        {
          "internalType": "address",
          "name": "owner",
          "type": "address"
        }
      ],
      "name": "ownableInit",
      "outputs": [],
      "stateMutability": "nonpayable",
      "type": "function"
    },
    {
      "inputs": [],
      "name": "owner",
      "outputs": [
        {
          "internalType": "address",
          "name": "",
          "type": "address"
        }
      ],
      "stateMutability": "view",
      "type": "function"
    },
    {
      "inputs": [],
      "name": "renounceOwnership",
      "outputs": [],
      "stateMutability": "nonpayable",
      "type": "function"
    },
    {
      "inputs": [
        {
          "internalType": "address",
          "name": "contractAddress",
          "type": "address"
        }
      ],
      "name": "setBurnable",
      "outputs": [],
      "stateMutability": "nonpayable",
      "type": "function"
    },
    {
      "inputs": [
        {
          "internalType": "bytes32",
          "name": "resourceID",
          "type": "bytes32"
        },
        {
          "internalType": "address",
          "name": "contractAddress",
          "type": "address"
        }
      ],
      "name": "setResource",
      "outputs": [],
      "stateMutability": "nonpayable",
      "type": "function"
    },
    {
      "inputs": [
        {
          "internalType": "address",
          "name": "newOwner",
          "type": "address"
        }
      ],
      "name": "transferOwnership",
      "outputs": [],
      "stateMutability": "nonpayable",
      "type": "function"
    },
    {
      "inputs": [
        {
          "internalType": "address",
          "name": "bridgeAddress",
          "type": "address"
        }
      ],
      "name": "initialize",
      "outputs": [],
      "stateMutability": "nonpayable",
      "type": "function"
    },
    {
      "inputs": [
        {
          "internalType": "address",
          "name": "newBridgeAddress",
          "type": "address"
        }
      ],
      "name": "adminChangeBridgeAddress",
      "outputs": [],
      "stateMutability": "nonpayable",
      "type": "function"
    },
    {
      "inputs": [
        {
          "internalType": "uint64",
          "name": "depositNonce",
          "type": "uint64"
        },
        {
          "internalType": "bytes8",
          "name": "destId",
          "type": "bytes8"
        }
      ],
      "name": "getDepositRecord",
      "outputs": [
        {
          "components": [
            {
              "internalType": "address",
              "name": "_tokenAddress",
              "type": "address"
            },
            {
              "internalType": "bytes8",
              "name": "_destinationChainID",
              "type": "bytes8"
            },
            {
              "internalType": "bytes32",
              "name": "_resourceID",
              "type": "bytes32"
            },
            {
              "internalType": "address",
              "name": "_destinationRecipientAddress",
              "type": "address"
            },
            {
              "internalType": "address",
              "name": "_depositer",
              "type": "address"
            },
            {
              "internalType": "uint256",
              "name": "_amount",
              "type": "uint256"
            }
          ],
          "internalType": "struct ERC20Handler.DepositRecord",
          "name": "",
          "type": "tuple"
        }
      ],
      "stateMutability": "view",
      "type": "function"
    },
    {
      "inputs": [
        {
          "internalType": "bytes32",
          "name": "resourceID",
          "type": "bytes32"
        }
      ],
      "name": "getMinDeposits",
      "outputs": [
        {
          "internalType": "uint256",
          "name": "",
          "type": "uint256"
        }
      ],
      "stateMutability": "view",
      "type": "function"
    },
    {
      "inputs": [
        {
          "internalType": "bytes32",
          "name": "resourceID",
          "type": "bytes32"
        },
        {
          "internalType": "uint256",
          "name": "minAmount",
          "type": "uint256"
        }
      ],
      "name": "setMinDeposits",
      "outputs": [],
      "stateMutability": "nonpayable",
      "type": "function"
    },
    {
      "inputs": [
        {
          "internalType": "bytes32",
          "name": "resourceID",
          "type": "bytes32"
        },
        {
          "internalType": "bytes8",
          "name": "destinationChainID",
          "type": "bytes8"
        },
        {
          "internalType": "uint64",
          "name": "depositNonce",
          "type": "uint64"
        },
        {
          "internalType": "address",
          "name": "depositer",
          "type": "address"
        },
        {
          "internalType": "address",
          "name": "recipientAddress",
          "type": "address"
        },
        {
          "internalType": "uint256",
          "name": "amount",
          "type": "uint256"
        },
        {
          "internalType": "bytes",
          "name": "params",
          "type": "bytes"
        }
      ],
      "name": "deposit",
      "outputs": [
        {
          "internalType": "address",
          "name": "",
          "type": "address"
        }
      ],
      "stateMutability": "nonpayable",
      "type": "function"
    },
    {
      "inputs": [
        {
          "internalType": "bytes32",
          "name": "resourceID",
          "type": "bytes32"
        },
        {
          "internalType": "address",
          "name": "recipientAddress",
          "type": "address"
        },
        {
          "internalType": "uint256",
          "name": "amount",
          "type": "uint256"
        },
        {
          "internalType": "bytes",
          "name": "params",
          "type": "bytes"
        }
      ],
      "name": "executeProposal",
      "outputs": [],
      "stateMutability": "nonpayable",
      "type": "function"
    },
    {
      "inputs": [
        {
          "internalType": "address",
          "name": "tokenAddress",
          "type": "address"
        },
        {
          "internalType": "address",
          "name": "recipient",
          "type": "address"
        },
        {
          "internalType": "uint256",
          "name": "amount",
          "type": "uint256"
        }
      ],
      "name": "withdraw",
      "outputs": [],
      "stateMutability": "nonpayable",
      "type": "function"
    },
    {
      "inputs": [
        {
          "internalType": "bytes32",
          "name": "resourceID",
          "type": "bytes32"
        }
      ],
      "name": "getAddressFromResourceId",
      "outputs": [
        {
          "internalType": "address",
          "name": "",
          "type": "address"
        }
      ],
      "stateMutability": "view",
      "type": "function"
    },
    {
      "inputs": [
        {
          "internalType": "bytes32",
          "name": "resourceID",
          "type": "bytes32"
        },
        {
          "internalType": "address",
          "name": "spender",
          "type": "address"
        },
        {
          "internalType": "uint256",
          "name": "amount",
          "type": "uint256"
        }
      ],
      "name": "approve",
      "outputs": [],
      "stateMutability": "nonpayable",
      "type": "function"
    }
  ],
  "bytecode": "0x608060405234801561001057600080fd5b5061273b806100206000396000f3fe608060405234801561001057600080fd5b50600436106101735760003560e01c80637f79bea8116100de578063c4d66de811610097578063d9caed1211610071578063d9caed1214610483578063dd2e8ec31461049f578063ea439b2b146104bd578063f2fde38b146104d957610173565b8063c4d66de814610407578063c8ba6c8714610423578063d90445ca1461045357610173565b80637f79bea8146103355780638da5cb5b1461036557806395601f0914610383578063a7a3fb401461039f578063b8fa3736146103cf578063bf1ed1eb146103eb57610173565b806334143cd71161013057806334143cd71461024a5780636a70d0811461027a578063715018a6146102aa578063728e218f146102b457806375cd9cce146102d057806378f6a94c1461030057610173565b806306a6906c1461017857806307b7ed99146101945780630a6d55d8146101b057806327e4b2f7146101e0578063292f3a6814610210578063318c136e1461022c575b600080fd5b610192600480360381019061018d9190611f37565b6104f5565b005b6101ae60048036038101906101a99190611ca8565b61058d565b005b6101ca60048036038101906101c59190611d49565b6105a1565b6040516101d79190612367565b60405180910390f35b6101fa60048036038101906101f59190611d49565b6105d4565b6040516102079190612574565b60405180910390f35b61022a60048036038101906102259190611ca8565b6105f1565b005b6102346106c9565b6040516102419190612367565b60405180910390f35b610264600480360381019061025f9190611faf565b6106ee565b6040516102719190612559565b60405180910390f35b610294600480360381019061028f9190611ca8565b6108f3565b6040516102a19190612443565b60405180910390f35b6102b2610913565b005b6102ce60048036038101906102c99190611dfd565b610a50565b005b6102ea60048036038101906102e59190611e7d565b610bab565b6040516102f79190612367565b60405180910390f35b61031a60048036038101906103159190611f73565b610f91565b60405161032c969594939291906123b9565b60405180910390f35b61034f600480360381019061034a9190611ca8565b611047565b60405161035c9190612443565b60405180910390f35b61036d611067565b60405161037a9190612367565b60405180910390f35b61039d60048036038101906103989190611cd1565b611091565b005b6103b960048036038101906103b49190611d49565b6110a8565b6040516103c69190612367565b60405180910390f35b6103e960048036038101906103e49190611d72565b6110e5565b005b61040560048036038101906104009190611dae565b6110fb565b005b610421600480360381019061041c9190611ca8565b6111f1565b005b61043d60048036038101906104389190611ca8565b61123d565b60405161044a919061245e565b60405180910390f35b61046d60048036038101906104689190611d49565b611255565b60405161047a9190612574565b60405180910390f35b61049d60048036038101906104989190611cd1565b61126d565b005b6104a761129e565b6040516104b49190612443565b60405180910390f35b6104d760048036038101906104d29190611ca8565b6112b1565b005b6104f360048036038101906104ee9190611ca8565b611385565b005b6104fd6114fb565b73ffffffffffffffffffffffffffffffffffffffff1661051b611067565b73ffffffffffffffffffffffffffffffffffffffff1614610571576040517f08c379a000000000000000000000000000000000000000000000000000000000815260040161056890612519565b60405180910390fd5b8060076000848152602001908152602001600020819055505050565b610595611503565b61059e81611594565b50565b60016020528060005260406000206000915054906101000a900473ffffffffffffffffffffffffffffffffffffffff1681565b600060076000838152602001908152602001600020549050919050565b6105f96114fb565b73ffffffffffffffffffffffffffffffffffffffff16610617611067565b73ffffffffffffffffffffffffffffffffffffffff161461066d576040517f08c379a000000000000000000000000000000000000000000000000000000000815260040161066490612519565b60405180910390fd5b600560149054906101000a900460ff1661068657600080fd5b806000806101000a81548173ffffffffffffffffffffffffffffffffffffffff021916908373ffffffffffffffffffffffffffffffffffffffff16021790555050565b6000809054906101000a900473ffffffffffffffffffffffffffffffffffffffff1681565b6106f6611b4a565b600560149054906101000a900460ff1661070f57600080fd5b600660008377ffffffffffffffffffffffffffffffffffffffffffffffff191677ffffffffffffffffffffffffffffffffffffffffffffffff1916815260200190815260200160002060008467ffffffffffffffff1667ffffffffffffffff1681526020019081526020016000206040518060c00160405290816000820160009054906101000a900473ffffffffffffffffffffffffffffffffffffffff1673ffffffffffffffffffffffffffffffffffffffff1673ffffffffffffffffffffffffffffffffffffffff1681526020016000820160149054906101000a900460c01b77ffffffffffffffffffffffffffffffffffffffffffffffff191677ffffffffffffffffffffffffffffffffffffffffffffffff19168152602001600182015481526020016002820160009054906101000a900473ffffffffffffffffffffffffffffffffffffffff1673ffffffffffffffffffffffffffffffffffffffff1673ffffffffffffffffffffffffffffffffffffffff1681526020016003820160009054906101000a900473ffffffffffffffffffffffffffffffffffffffff1673ffffffffffffffffffffffffffffffffffffffff1673ffffffffffffffffffffffffffffffffffffffff168152602001600482015481525050905092915050565b60046020528060005260406000206000915054906101000a900460ff1681565b61091b6114fb565b73ffffffffffffffffffffffffffffffffffffffff16610939611067565b73ffffffffffffffffffffffffffffffffffffffff161461098f576040517f08c379a000000000000000000000000000000000000000000000000000000000815260040161098690612519565b60405180910390fd5b600073ffffffffffffffffffffffffffffffffffffffff16600560009054906101000a900473ffffffffffffffffffffffffffffffffffffffff1673ffffffffffffffffffffffffffffffffffffffff167f8be0079c531659141344cd1fd0a4f28419497f9722a3daafe3b4186f6b6457e060405160405180910390a36000600560006101000a81548173ffffffffffffffffffffffffffffffffffffffff021916908373ffffffffffffffffffffffffffffffffffffffff160217905550565b610a58611503565b600560149054906101000a900460ff16610a7157600080fd5b60006001600087815260200190815260200160002060009054906101000a900473ffffffffffffffffffffffffffffffffffffffff169050600360008273ffffffffffffffffffffffffffffffffffffffff1673ffffffffffffffffffffffffffffffffffffffff16815260200190815260200160002060009054906101000a900460ff16610b35576040517f08c379a0000000000000000000000000000000000000000000000000000000008152600401610b2c90612539565b60405180910390fd5b600460008273ffffffffffffffffffffffffffffffffffffffff1673ffffffffffffffffffffffffffffffffffffffff16815260200190815260200160002060009054906101000a900460ff1615610b9757610b9281868661167b565b610ba3565b610ba28186866116f3565b5b505050505050565b6000610bb5611503565b600560149054906101000a900460ff16610bce57600080fd5b6000600160008b815260200190815260200160002060009054906101000a900473ffffffffffffffffffffffffffffffffffffffff169050600360008273ffffffffffffffffffffffffffffffffffffffff1673ffffffffffffffffffffffffffffffffffffffff16815260200190815260200160002060009054906101000a900460ff16610c92576040517f08c379a0000000000000000000000000000000000000000000000000000000008152600401610c8990612539565b60405180910390fd5b6000600760008c8152602001908152602001600020541480610cc75750600760008b8152602001908152602001600020548511155b610d06576040517f08c379a0000000000000000000000000000000000000000000000000000000008152600401610cfd906124f9565b60405180910390fd5b600460008273ffffffffffffffffffffffffffffffffffffffff1673ffffffffffffffffffffffffffffffffffffffff16815260200190815260200160002060009054906101000a900460ff1615610d6857610d63818887611709565b610d75565b610d7481883088611781565b5b6040518060c001604052808273ffffffffffffffffffffffffffffffffffffffff1681526020018a77ffffffffffffffffffffffffffffffffffffffffffffffff191681526020018b81526020018773ffffffffffffffffffffffffffffffffffffffff1681526020018873ffffffffffffffffffffffffffffffffffffffff16815260200186815250600660008b77ffffffffffffffffffffffffffffffffffffffffffffffff191677ffffffffffffffffffffffffffffffffffffffffffffffff1916815260200190815260200160002060008a67ffffffffffffffff1667ffffffffffffffff16815260200190815260200160002060008201518160000160006101000a81548173ffffffffffffffffffffffffffffffffffffffff021916908373ffffffffffffffffffffffffffffffffffffffff16021790555060208201518160000160146101000a81548167ffffffffffffffff021916908360c01c02179055506040820151816001015560608201518160020160006101000a81548173ffffffffffffffffffffffffffffffffffffffff021916908373ffffffffffffffffffffffffffffffffffffffff16021790555060808201518160030160006101000a81548173ffffffffffffffffffffffffffffffffffffffff021916908373ffffffffffffffffffffffffffffffffffffffff16021790555060a082015181600401559050508091505098975050505050505050565b6006602052816000526040600020602052806000526040600020600091509150508060000160009054906101000a900473ffffffffffffffffffffffffffffffffffffffff16908060000160149054906101000a900460c01b908060010154908060020160009054906101000a900473ffffffffffffffffffffffffffffffffffffffff16908060030160009054906101000a900473ffffffffffffffffffffffffffffffffffffffff16908060040154905086565b60036020528060005260406000206000915054906101000a900460ff1681565b6000600560009054906101000a900473ffffffffffffffffffffffffffffffffffffffff16905090565b60008390506110a281843085611799565b50505050565b60006001600083815260200190815260200160002060009054906101000a900473ffffffffffffffffffffffffffffffffffffffff169050919050565b6110ed611503565b6110f78282611822565b5050565b611103611503565b600560149054906101000a900460ff1661111c57600080fd5b60006001600085815260200190815260200160002060009054906101000a900473ffffffffffffffffffffffffffffffffffffffff169050600360008273ffffffffffffffffffffffffffffffffffffffff1673ffffffffffffffffffffffffffffffffffffffff16815260200190815260200160002060009054906101000a900460ff166111e0576040517f08c379a00000000000000000000000000000000000000000000000000000000081526004016111d790612539565b60405180910390fd5b6111eb818484611914565b50505050565b806000806101000a81548173ffffffffffffffffffffffffffffffffffffffff021916908373ffffffffffffffffffffffffffffffffffffffff16021790555061123a336112b1565b50565b60026020528060005260406000206000915090505481565b60076020528060005260406000206000915090505481565b611275611503565b600560149054906101000a900460ff1661128e57600080fd5b6112998383836116f3565b505050565b600560149054906101000a900460ff1681565b600560149054906101000a900460ff16156112cb57600080fd5b80600560006101000a81548173ffffffffffffffffffffffffffffffffffffffff021916908373ffffffffffffffffffffffffffffffffffffffff1602179055506001600560146101000a81548160ff0219169083151502179055508073ffffffffffffffffffffffffffffffffffffffff16600073ffffffffffffffffffffffffffffffffffffffff167f8be0079c531659141344cd1fd0a4f28419497f9722a3daafe3b4186f6b6457e060405160405180910390a350565b61138d6114fb565b73ffffffffffffffffffffffffffffffffffffffff166113ab611067565b73ffffffffffffffffffffffffffffffffffffffff1614611401576040517f08c379a00000000000000000000000000000000000000000000000000000000081526004016113f890612519565b60405180910390fd5b600073ffffffffffffffffffffffffffffffffffffffff168173ffffffffffffffffffffffffffffffffffffffff16141561143b57600080fd5b8073ffffffffffffffffffffffffffffffffffffffff16600560009054906101000a900473ffffffffffffffffffffffffffffffffffffffff1673ffffffffffffffffffffffffffffffffffffffff167f8be0079c531659141344cd1fd0a4f28419497f9722a3daafe3b4186f6b6457e060405160405180910390a380600560006101000a81548173ffffffffffffffffffffffffffffffffffffffff021916908373ffffffffffffffffffffffffffffffffffffffff16021790555050565b600033905090565b6000809054906101000a900473ffffffffffffffffffffffffffffffffffffffff1673ffffffffffffffffffffffffffffffffffffffff163373ffffffffffffffffffffffffffffffffffffffff1614611592576040517f08c379a000000000000000000000000000000000000000000000000000000000815260040161158990612499565b60405180910390fd5b565b600360008273ffffffffffffffffffffffffffffffffffffffff1673ffffffffffffffffffffffffffffffffffffffff16815260200190815260200160002060009054906101000a900460ff16611620576040517f08c379a0000000000000000000000000000000000000000000000000000000008152600401611617906124b9565b60405180910390fd5b6001600460008373ffffffffffffffffffffffffffffffffffffffff1673ffffffffffffffffffffffffffffffffffffffff16815260200190815260200160002060006101000a81548160ff02191690831515021790555050565b60008390508073ffffffffffffffffffffffffffffffffffffffff166340c10f1984846040518363ffffffff1660e01b81526004016116bb92919061241a565b600060405180830381600087803b1580156116d557600080fd5b505af11580156116e9573d6000803e3d6000fd5b5050505050505050565b600083905061170381848461192a565b50505050565b60008390508073ffffffffffffffffffffffffffffffffffffffff166379cc679084846040518363ffffffff1660e01b815260040161174992919061241a565b600060405180830381600087803b15801561176357600080fd5b505af1158015611777573d6000803e3d6000fd5b5050505050505050565b600084905061179281858585611799565b5050505050565b61181c846323b872dd60e01b8585856040516024016117ba93929190612382565b604051602081830303815290604052907bffffffffffffffffffffffffffffffffffffffffffffffffffffffff19166020820180517bffffffffffffffffffffffffffffffffffffffffffffffffffffffff83818316178352505050506119b0565b50505050565b806001600084815260200190815260200160002060006101000a81548173ffffffffffffffffffffffffffffffffffffffff021916908373ffffffffffffffffffffffffffffffffffffffff16021790555081600260008373ffffffffffffffffffffffffffffffffffffffff1673ffffffffffffffffffffffffffffffffffffffff168152602001908152602001600020819055506001600360008373ffffffffffffffffffffffffffffffffffffffff1673ffffffffffffffffffffffffffffffffffffffff16815260200190815260200160002060006101000a81548160ff0219169083151502179055505050565b6000839050611924818484611ac4565b50505050565b6119ab8363a9059cbb60e01b848460405160240161194992919061241a565b604051602081830303815290604052907bffffffffffffffffffffffffffffffffffffffffffffffffffffffff19166020820180517bffffffffffffffffffffffffffffffffffffffffffffffffffffffff83818316178352505050506119b0565b505050565b600060608373ffffffffffffffffffffffffffffffffffffffff16836040516119d99190612350565b6000604051808303816000865af19150503d8060008114611a16576040519150601f19603f3d011682016040523d82523d6000602084013e611a1b565b606091505b509150915081611a60576040517f08c379a0000000000000000000000000000000000000000000000000000000008152600401611a57906124d9565b60405180910390fd5b600081511115611abe5780806020019051810190611a7e9190611d20565b611abd576040517f08c379a0000000000000000000000000000000000000000000000000000000008152600401611ab490612479565b60405180910390fd5b5b50505050565b611b458363095ea7b360e01b8484604051602401611ae392919061241a565b604051602081830303815290604052907bffffffffffffffffffffffffffffffffffffffffffffffffffffffff19166020820180517bffffffffffffffffffffffffffffffffffffffffffffffffffffffff83818316178352505050506119b0565b505050565b6040518060c00160405280600073ffffffffffffffffffffffffffffffffffffffff168152602001600077ffffffffffffffffffffffffffffffffffffffffffffffff1916815260200160008019168152602001600073ffffffffffffffffffffffffffffffffffffffff168152602001600073ffffffffffffffffffffffffffffffffffffffff168152602001600081525090565b600081359050611bef8161267b565b92915050565b600081519050611c0481612692565b92915050565b600081359050611c19816126a9565b92915050565b600081359050611c2e816126c0565b92915050565b60008083601f840112611c4657600080fd5b8235905067ffffffffffffffff811115611c5f57600080fd5b602083019150836001820283011115611c7757600080fd5b9250929050565b600081359050611c8d816126d7565b92915050565b600081359050611ca2816126ee565b92915050565b600060208284031215611cba57600080fd5b6000611cc884828501611be0565b91505092915050565b600080600060608486031215611ce657600080fd5b6000611cf486828701611be0565b9350506020611d0586828701611be0565b9250506040611d1686828701611c7e565b9150509250925092565b600060208284031215611d3257600080fd5b6000611d4084828501611bf5565b91505092915050565b600060208284031215611d5b57600080fd5b6000611d6984828501611c0a565b91505092915050565b60008060408385031215611d8557600080fd5b6000611d9385828601611c0a565b9250506020611da485828601611be0565b9150509250929050565b600080600060608486031215611dc357600080fd5b6000611dd186828701611c0a565b9350506020611de286828701611be0565b9250506040611df386828701611c7e565b9150509250925092565b600080600080600060808688031215611e1557600080fd5b6000611e2388828901611c0a565b9550506020611e3488828901611be0565b9450506040611e4588828901611c7e565b935050606086013567ffffffffffffffff811115611e6257600080fd5b611e6e88828901611c34565b92509250509295509295909350565b60008060008060008060008060e0898b031215611e9957600080fd5b6000611ea78b828c01611c0a565b9850506020611eb88b828c01611c1f565b9750506040611ec98b828c01611c93565b9650506060611eda8b828c01611be0565b9550506080611eeb8b828c01611be0565b94505060a0611efc8b828c01611c7e565b93505060c089013567ffffffffffffffff811115611f1957600080fd5b611f258b828c01611c34565b92509250509295985092959890939650565b60008060408385031215611f4a57600080fd5b6000611f5885828601611c0a565b9250506020611f6985828601611c7e565b9150509250929050565b60008060408385031215611f8657600080fd5b6000611f9485828601611c1f565b9250506020611fa585828601611c93565b9150509250929050565b60008060408385031215611fc257600080fd5b6000611fd085828601611c93565b9250506020611fe185828601611c1f565b9150509250929050565b611ff4816125b6565b82525050565b612003816125b6565b82525050565b612012816125c8565b82525050565b612021816125d4565b82525050565b612030816125d4565b82525050565b61203f816125de565b82525050565b61204e816125de565b82525050565b600061205f8261258f565b612069818561259a565b9350612079818560208601612648565b80840191505092915050565b60006120926020836125a5565b91507f45524332303a206f7065726174696f6e20646964206e6f7420737563636565646000830152602082019050919050565b60006120d2601e836125a5565b91507f73656e646572206d7573742062652062726964676520636f6e747261637400006000830152602082019050919050565b60006121126024836125a5565b91507f70726f766964656420636f6e7472616374206973206e6f742077686974656c6960008301527f73746564000000000000000000000000000000000000000000000000000000006020830152604082019050919050565b60006121786012836125a5565b91507f45524332303a2063616c6c206661696c656400000000000000000000000000006000830152602082019050919050565b60006121b86027836125a5565b91507f616d6f756e742067726561746572207468616e206d696e206465706f7369742060008301527f616c6c6f776564000000000000000000000000000000000000000000000000006020830152604082019050919050565b600061221e6016836125a5565b91507f73656e6465722073686f756c64206265206f776e6572000000000000000000006000830152602082019050919050565b600061225e6028836125a5565b91507f70726f766964656420746f6b656e41646472657373206973206e6f742077686960008301527f74656c69737465640000000000000000000000000000000000000000000000006020830152604082019050919050565b60c0820160008201516122cd6000850182611feb565b5060208201516122e06020850182612036565b5060408201516122f36040850182612018565b5060608201516123066060850182611feb565b5060808201516123196080850182611feb565b5060a082015161232c60a0850182612332565b50505050565b61233b8161262a565b82525050565b61234a8161262a565b82525050565b600061235c8284612054565b915081905092915050565b600060208201905061237c6000830184611ffa565b92915050565b60006060820190506123976000830186611ffa565b6123a46020830185611ffa565b6123b16040830184612341565b949350505050565b600060c0820190506123ce6000830189611ffa565b6123db6020830188612045565b6123e86040830187612027565b6123f56060830186611ffa565b6124026080830185611ffa565b61240f60a0830184612341565b979650505050505050565b600060408201905061242f6000830185611ffa565b61243c6020830184612341565b9392505050565b60006020820190506124586000830184612009565b92915050565b60006020820190506124736000830184612027565b92915050565b6000602082019050818103600083015261249281612085565b9050919050565b600060208201905081810360008301526124b2816120c5565b9050919050565b600060208201905081810360008301526124d281612105565b9050919050565b600060208201905081810360008301526124f28161216b565b9050919050565b60006020820190508181036000830152612512816121ab565b9050919050565b6000602082019050818103600083015261253281612211565b9050919050565b6000602082019050818103600083015261255281612251565b9050919050565b600060c08201905061256e60008301846122b7565b92915050565b60006020820190506125896000830184612341565b92915050565b600081519050919050565b600081905092915050565b600082825260208201905092915050565b60006125c18261260a565b9050919050565b60008115159050919050565b6000819050919050565b60007fffffffffffffffff00000000000000000000000000000000000000000000000082169050919050565b600073ffffffffffffffffffffffffffffffffffffffff82169050919050565b6000819050919050565b600067ffffffffffffffff82169050919050565b60005b8381101561266657808201518184015260208101905061264b565b83811115612675576000848401525b50505050565b612684816125b6565b811461268f57600080fd5b50565b61269b816125c8565b81146126a657600080fd5b50565b6126b2816125d4565b81146126bd57600080fd5b50565b6126c9816125de565b81146126d457600080fd5b50565b6126e08161262a565b81146126eb57600080fd5b50565b6126f781612634565b811461270257600080fd5b5056fea2646970667358221220bbe24e65308576f536f129fe2f6eb3a31417581898e77cb8c60d8ec2f232dde464736f6c63430006040033",
  "source": "pragma solidity 0.6.4;\npragma experimental ABIEncoderV2;\n\nimport \"../interfaces/IDepositExecute.sol\";\nimport \"../interfaces/IERC20.sol\";\nimport \"./HandlerHelpers.sol\";\nimport \"../ERC20Safe.sol\";\nimport \"../ExampleToken.sol\";\nimport \"../utils/UpgradableOwnable.sol\";\n\n/**\n    @title Handles ERC20 deposits and deposit executions.\n    @notice This contract is intended to be used with the Bridge contract.\n */\ncontract ERC20Handler is\n    IDepositExecute,\n    HandlerHelpers,\n    UpgradableOwnable,\n    ERC20Safe\n{\n    struct DepositRecord {\n        address _tokenAddress;\n        bytes8 _destinationChainID;\n        bytes32 _resourceID;\n        address _destinationRecipientAddress;\n        address _depositer;\n        uint256 _amount;\n    }\n\n    // depositNonce => Deposit Record\n    mapping(bytes8 => mapping(uint64 => DepositRecord)) public _depositRecords;\n    //resourceID => min amount of token allowed\n    mapping(bytes32 => uint256) public _minDeposits;\n\n    /**\n        @param bridgeAddress Contract address of previously deployed Bridge.\n     */\n    function initialize(address bridgeAddress) public {\n        _bridgeAddress = bridgeAddress;\n        ownableInit(msg.sender);\n    }\n\n    function adminChangeBridgeAddress(address newBridgeAddress)\n        external\n        onlyOwner\n        isInitisalised\n    {\n        _bridgeAddress = newBridgeAddress;\n    }\n\n    /**\n        @param depositNonce This ID will have been generated by the Bridge contract.\n        @param destId ID of chain deposit will be bridged to.\n        @return DepositRecord which consists of:\n        - _tokenAddress Address used when {deposit} was executed.\n        - _destinationChainID ChainID deposited tokens are intended to end up on.\n        - _resourceID ResourceID used when {deposit} was executed.\n        - _destinationRecipientAddress Address tokens are intended to be deposited to on desitnation chain.\n        - _depositer Address that initially called {deposit} in the Bridge contract.\n        - _amount Amount of tokens that were deposited.\n    */\n    function getDepositRecord(uint64 depositNonce, bytes8 destId)\n        external\n        view\n        isInitisalised\n        returns (DepositRecord memory)\n    {\n        return _depositRecords[destId][depositNonce];\n    }\n\n    function getMinDeposits(bytes32 resourceID) external view returns(uint256) {\n        return _minDeposits[resourceID];\n    }\n\n    function setMinDeposits(bytes32 resourceID, uint256 minAmount) external onlyOwner{\n        _minDeposits[resourceID] = minAmount;\n    }\n\n    /**\n        @notice A deposit is initiatied by making a deposit in the Bridge contract.\n        @param destinationChainID Chain ID of chain tokens are expected to be bridged to.\n        @param depositNonce This value is generated as an ID by the Bridge contract.\n        @param depositer Address of account making the deposit in the Bridge contract.\n        @notice Data passed into the function should be constructed as follows:\n        amount                      uint256     bytes   0 - 32\n        recipientAddress length     uint256     bytes  32 - 64\n        recipientAddress            bytes       bytes  64 - END\n        @dev Depending if the corresponding {tokenAddress} for the parsed {resourceID} is\n        marked true in {_burnList}, deposited tokens will be burned, if not, they will be locked.\n     */\n    function deposit(\n        bytes32 resourceID,\n        bytes8 destinationChainID,\n        uint64 depositNonce,\n        address depositer,\n        address recipientAddress,\n        uint256 amount,\n        bytes calldata params\n    ) external override onlyBridge isInitisalised returns (address) {\n        // bytes memory recipientAddress;\n        // uint256 amount;\n        // uint256 lenRecipientAddress;\n\n        // assembly {\n        //     amount := calldataload(0xC4)\n\n        //     recipientAddress := mload(0x40)\n        //     lenRecipientAddress := calldataload(0xE4)\n        //     mstore(0x40, add(0x20, add(recipientAddress, lenRecipientAddress)))\n\n        //     calldatacopy(\n        //         recipientAddress, // copy to destinationRecipientAddress\n        //         0xE4, // copy from calldata @ 0x104\n        //         sub(calldatasize(), 0xE) // copy size (calldatasize - 0x104)\n        //     )\n        // }\n\n        address tokenAddress = _resourceIDToTokenContractAddress[resourceID];\n        require(\n            _contractWhitelist[tokenAddress],\n            \"provided tokenAddress is not whitelisted\"\n        );\n        require(_minDeposits[resourceID] == 0 || amount <= _minDeposits[resourceID], \"amount greater than min deposit allowed\");\n\n        if (_burnList[tokenAddress]) {\n            burnERC20(tokenAddress, depositer, amount);\n        } else {\n            lockERC20(tokenAddress, depositer, address(this), amount);\n        }\n\n        _depositRecords[destinationChainID][depositNonce] = DepositRecord(\n            tokenAddress,\n            destinationChainID,\n            resourceID,\n            recipientAddress,\n            depositer,\n            amount\n        );\n        return (tokenAddress);\n    }\n\n    /**\n        @notice Proposal execution should be initiated when a proposal is finalized in the Bridge contract.\n        by a relayer on the deposit's destination chain.\n        @notice Data passed into the function should be constructed as follows:\n        amount                                 uint256     bytes  0 - 32\n        destinationRecipientAddress length     uint256     bytes  32 - 64\n        destinationRecipientAddress            bytes       bytes  64 - END\n     */\n    function executeProposal(\n        bytes32 resourceID,\n        address recipientAddress,\n        uint256 amount,\n        bytes calldata params\n    ) external override onlyBridge isInitisalised {\n        // uint256 amount;\n        // bytes memory destinationRecipientAddress;\n\n        // assembly {\n        //     amount := calldataload(0x64)\n\n        //     destinationRecipientAddress := mload(0x40)\n        //     let lenDestinationRecipientAddress := calldataload(0x84)\n        //     mstore(\n        //         0x40,\n        //         add(\n        //             0x20,\n        //             add(\n        //                 destinationRecipientAddress,\n        //                 lenDestinationRecipientAddress\n        //             )\n        //         )\n        //     )\n\n        //     // in the calldata the destinationRecipientAddress is stored at 0xC4 after accounting for the function signature and length declaration\n        //     calldatacopy(\n        //         destinationRecipientAddress, // copy to destinationRecipientAddress\n        //         0x84, // copy from calldata @ 0x84\n        //         sub(calldatasize(), 0x84) // copy size to the end of calldata\n        //     )\n        // }\n\n        // bytes20 recipientAddress;\n        address tokenAddress = _resourceIDToTokenContractAddress[resourceID];\n\n        // assembly {\n        //     recipientAddress := mload(add(destinationRecipientAddress, 0x20))\n        // }\n\n        require(\n            _contractWhitelist[tokenAddress],\n            \"provided tokenAddress is not whitelisted\"\n        );\n\n        if (_burnList[tokenAddress]) {\n            mintERC20(tokenAddress, recipientAddress, amount);\n        } else {\n            releaseERC20(tokenAddress, recipientAddress, amount);\n        }\n    }\n\n    /**\n        @notice Used to manually release ERC20 tokens from ERC20Safe.\n        @param tokenAddress Address of token contract to release.\n        @param recipient Address to release tokens to.\n        @param amount The amount of ERC20 tokens to release.\n     */\n    function withdraw(\n        address tokenAddress,\n        address recipient,\n        uint256 amount\n    ) external override onlyBridge isInitisalised {\n        releaseERC20(tokenAddress, recipient, amount);\n    }\n\n    function getAddressFromResourceId(bytes32 resourceID)\n        external\n        view\n        override\n        returns (address)\n    {\n        return _resourceIDToTokenContractAddress[resourceID];\n    }\n\n    /**\n        @notice Used to approve spending tokens.\n        @param resourceID ResourceID to be used for approval.\n        @param spender Spender address.\n        @param amount Amount to approve.\n     */\n    function approve(\n        bytes32 resourceID,\n        address spender,\n        uint256 amount\n    ) external override onlyBridge isInitisalised {\n        address tokenAddress = _resourceIDToTokenContractAddress[resourceID];\n        require(\n            _contractWhitelist[tokenAddress],\n            \"provided tokenAddress is not whitelisted\"\n        );\n\n        approveERC20(tokenAddress, spender, amount);\n    }\n}\n",
  "sourcePath": "/Users/9to5mac/Desktop/code/latoken/ethereum-crosschain-contract/contracts/handlers/ERC20Handler.sol",
  "compiler": {
    "name": "solc",
    "version": "0.6.4+commit.1dca32f3.Emscripten.clang"
  },
  "schemaVersion": "3.4.9",
  "updatedAt": "2022-10-10T12:49:27.223Z",
  "networkType": "ethereum",
  "devdoc": {
    "methods": {
      "approve(bytes32,address,uint256)": {
        "params": {
          "amount": "Amount to approve.",
          "resourceID": "ResourceID to be used for approval.",
          "spender": "Spender address."
        }
      },
      "deposit(bytes32,bytes8,uint64,address,address,uint256,bytes)": {
        "details": "Depending if the corresponding {tokenAddress} for the parsed {resourceID} is marked true in {_burnList}, deposited tokens will be burned, if not, they will be locked.",
        "params": {
          "depositNonce": "This value is generated as an ID by the Bridge contract.",
          "depositer": "Address of account making the deposit in the Bridge contract.",
          "destinationChainID": "Chain ID of chain tokens are expected to be bridged to."
        }
      },
      "fundERC20(address,address,uint256)": {
        "params": {
          "amount": "Amount of tokens to transfer.",
          "owner": "Address of current token owner.",
          "tokenAddress": "Address of ERC20 to transfer."
        }
      },
      "getDepositRecord(uint64,bytes8)": {
        "params": {
          "depositNonce": "This ID will have been generated by the Bridge contract.",
          "destId": "ID of chain deposit will be bridged to."
        },
        "returns": {
          "_0": "DepositRecord which consists of: - _tokenAddress Address used when {deposit} was executed. - _destinationChainID ChainID deposited tokens are intended to end up on. - _resourceID ResourceID used when {deposit} was executed. - _destinationRecipientAddress Address tokens are intended to be deposited to on desitnation chain. - _depositer Address that initially called {deposit} in the Bridge contract. - _amount Amount of tokens that were deposited."
        }
      },
      "initialize(address)": {
        "params": {
          "bridgeAddress": "Contract address of previously deployed Bridge."
        }
      },
      "ownableInit(address)": {
        "details": "Initializes the contract setting the deployer as the initial owner."
      },
      "owner()": {
        "details": "Returns the address of the current owner."
      },
      "renounceOwnership()": {
        "details": "Leaves the contract without owner. It will not be possible to call `onlyOwner` functions anymore. Can only be called by the current owner.     * NOTE: Renouncing ownership will leave the contract without an owner, thereby removing any functionality that is only available to the owner."
      },
      "setBurnable(address)": {
        "params": {
          "contractAddress": "Address of contract to be used when making or executing deposits."
        }
      },
      "setResource(bytes32,address)": {
        "params": {
          "contractAddress": "Address of contract to be called when a deposit is made and a deposited is executed.",
          "resourceID": "ResourceID to be used when making deposits."
        }
      },
      "transferOwnership(address)": {
        "details": "Transfers ownership of the contract to a new account (`newOwner`). Can only be called by the current owner."
      },
      "withdraw(address,address,uint256)": {
        "params": {
          "amount": "The amount of ERC20 tokens to release.",
          "recipient": "Address to release tokens to.",
          "tokenAddress": "Address of token contract to release."
        }
      }
    },
    "title": "Handles ERC20 deposits and deposit executions."
  },
  "userdoc": {
    "methods": {
      "approve(bytes32,address,uint256)": {
        "notice": "Used to approve spending tokens."
      },
      "deposit(bytes32,bytes8,uint64,address,address,uint256,bytes)": {
        "notice": "A deposit is initiatied by making a deposit in the Bridge contract.Data passed into the function should be constructed as follows: amount                      uint256     bytes   0 - 32 recipientAddress length     uint256     bytes  32 - 64 recipientAddress            bytes       bytes  64 - END"
      },
      "executeProposal(bytes32,address,uint256,bytes)": {
        "notice": "Proposal execution should be initiated when a proposal is finalized in the Bridge contract. by a relayer on the deposit's destination chain.Data passed into the function should be constructed as follows: amount                                 uint256     bytes  0 - 32 destinationRecipientAddress length     uint256     bytes  32 - 64 destinationRecipientAddress            bytes       bytes  64 - END"
      },
      "fundERC20(address,address,uint256)": {
        "notice": "Used to transfer tokens into the safe to fund proposals."
      },
      "setBurnable(address)": {
        "notice": "First verifies {contractAddress} is whitelisted, then sets {_burnList}[{contractAddress}] to true."
      },
      "setResource(bytes32,address)": {
        "notice": "First verifies {_resourceIDToContractAddress}[{resourceID}] and {_contractAddressToResourceID}[{contractAddress}] are not already set, then sets {_resourceIDToContractAddress} with {contractAddress}, {_contractAddressToResourceID} with {resourceID}, and {_contractWhitelist} to true for {contractAddress}."
      },
      "withdraw(address,address,uint256)": {
        "notice": "Used to manually release ERC20 tokens from ERC20Safe."
      }
    },
    "notice": "This contract is intended to be used with the Bridge contract."
  }
}