{
  "contractName": "ERC20Safe",
  "abi": [
    {
      "inputs": [
        {
          "internalType": "address",
          "name": "tokenAddress",
          "type": "address"
        },
        {
          "internalType": "address",
          "name": "owner",
          "type": "address"
        },
        {
          "internalType": "uint256",
          "name": "amount",
          "type": "uint256"
        }
      ],
      "name": "fundERC20",
      "outputs": [],
      "stateMutability": "nonpayable",
      "type": "function"
    }
  ],
  "bytecode": "0x608060405234801561001057600080fd5b506103af806100206000396000f3fe608060405234801561001057600080fd5b506004361061002b5760003560e01c806395601f0914610030575b600080fd5b61009c6004803603606081101561004657600080fd5b81019080803573ffffffffffffffffffffffffffffffffffffffff169060200190929190803573ffffffffffffffffffffffffffffffffffffffff1690602001909291908035906020019092919050505061009e565b005b60008390506100af818430856100b5565b50505050565b61019c846323b872dd60e01b858585604051602401808473ffffffffffffffffffffffffffffffffffffffff1673ffffffffffffffffffffffffffffffffffffffff1681526020018373ffffffffffffffffffffffffffffffffffffffff1673ffffffffffffffffffffffffffffffffffffffff1681526020018281526020019350505050604051602081830303815290604052907bffffffffffffffffffffffffffffffffffffffffffffffffffffffff19166020820180517bffffffffffffffffffffffffffffffffffffffffffffffffffffffff83818316178352505050506101a2565b50505050565b600060608373ffffffffffffffffffffffffffffffffffffffff16836040518082805190602001908083835b602083106101f157805182526020820191506020810190506020830392506101ce565b6001836020036101000a0380198251168184511680821785525050505050509050019150506000604051808303816000865af19150503d8060008114610253576040519150601f19603f3d011682016040523d82523d6000602084013e610258565b606091505b5091509150816102d0576040517f08c379a00000000000000000000000000000000000000000000000000000000081526004018080602001828103825260128152602001807f45524332303a2063616c6c206661696c6564000000000000000000000000000081525060200191505060405180910390fd5b600081511115610373578080602001905160208110156102ef57600080fd5b8101908080519060200190929190505050610372576040517f08c379a00000000000000000000000000000000000000000000000000000000081526004018080602001828103825260208152602001807f45524332303a206f7065726174696f6e20646964206e6f74207375636365656481525060200191505060405180910390fd5b5b5050505056fea26469706673582212201c8f7d99736e6f17d1d51f45c07790c6d07feed25a1a1fee5f27f13907ce706164736f6c63430006040033",
  "source": "pragma solidity 0.6.4;\n\nimport \"./libraries/SafeMath.sol\";\nimport \"./interfaces/IERC20.sol\";\nimport \"./ExampleToken.sol\";\nimport \"./utils/ERC20Pausable.sol\";\n\n/**\n    @title Manages deposited ERC20s.\n    @notice This contract is intended to be used with ERC20Handler contract.\n */\ncontract ERC20Safe {\n    using SafeMath for uint256;\n\n    /**\n        @notice Used to transfer tokens into the safe to fund proposals.\n        @param tokenAddress Address of ERC20 to transfer.\n        @param owner Address of current token owner.\n        @param amount Amount of tokens to transfer.\n     */\n    function fundERC20(address tokenAddress, address owner, uint256 amount) public {\n        IERC20 erc20 = IERC20(tokenAddress);\n        _safeTransferFrom(erc20, owner, address(this), amount);\n    }\n\n    /**\n        @notice Used to gain custody of deposited token.\n        @param tokenAddress Address of ERC20 to transfer.\n        @param owner Address of current token owner.\n        @param recipient Address to transfer tokens to.\n        @param amount Amount of tokens to transfer.\n     */\n    function lockERC20(address tokenAddress, address owner, address recipient, uint256 amount) internal {\n        IERC20 erc20 = IERC20(tokenAddress);\n        _safeTransferFrom(erc20, owner, recipient, amount);\n    }\n\n    /**\n        @notice Transfers custody of token to recipient.\n        @param tokenAddress Address of ERC20 to transfer.\n        @param recipient Address to transfer tokens to.\n        @param amount Amount of tokens to transfer.\n     */\n    function releaseERC20(address tokenAddress, address recipient, uint256 amount) internal {\n        IERC20 erc20 = IERC20(tokenAddress);\n        _safeTransfer(erc20, recipient, amount);\n    }\n\n    /**\n        @notice Used to create new ERC20s.\n        @param tokenAddress Address of ERC20 to transfer.\n        @param recipient Address to mint token to.\n        @param amount Amount of token to mint.\n     */\n    function mintERC20(address tokenAddress, address recipient, uint256 amount) internal {\n        ExampleToken erc20 = ExampleToken(tokenAddress);\n        erc20.mint(recipient, amount);\n        \n    }\n\n    /**\n        @notice Used to burn ERC20s.\n        @param tokenAddress Address of ERC20 to burn.\n        @param owner Current owner of tokens.\n        @param amount Amount of tokens to burn.\n     */\n    function burnERC20(address tokenAddress, address owner, uint256 amount) internal {\n        ERC20Burnable erc20 = ERC20Burnable(tokenAddress);\n        erc20.burnFrom(owner, amount);\n    }\n\n    /**\n        @notice Used to approve ERC20s.\n        @param tokenAddress Address of ERC20 to approve.\n        @param spender Spender of tokens.\n        @param amount Amount of tokens to approve.\n     */\n    function approveERC20(address tokenAddress, address spender, uint256 amount) internal {\n        IERC20 erc20 = IERC20(tokenAddress);\n        _safeApprove(erc20, spender, amount);\n    }\n\n    /**\n        @notice used to transfer ERC20s safely\n        @param token Token instance to transfer\n        @param to Address to transfer token to\n        @param value Amount of token to transfer\n     */\n    function _safeApprove(IERC20 token, address to, uint256 value) private {\n        _safeCall(token, abi.encodeWithSelector(token.approve.selector, to, value));\n    }\n\n    /**\n        @notice used to transfer ERC20s safely\n        @param token Token instance to transfer\n        @param to Address to transfer token to\n        @param value Amount of token to transfer\n     */\n    function _safeTransfer(IERC20 token, address to, uint256 value) private {\n        _safeCall(token, abi.encodeWithSelector(token.transfer.selector, to, value));\n    }\n\n\n    /**\n        @notice used to transfer ERC20s safely\n        @param token Token instance to transfer\n        @param from Address to transfer token from\n        @param to Address to transfer token to\n        @param value Amount of token to transfer\n     */\n    function _safeTransferFrom(IERC20 token, address from, address to, uint256 value) private {\n        _safeCall(token, abi.encodeWithSelector(token.transferFrom.selector, from, to, value));\n    }\n\n    /**\n        @notice used to make calls to ERC20s safely\n        @param token Token instance call targets\n        @param data encoded call data\n     */\n    function _safeCall(IERC20 token, bytes memory data) private {        \n        (bool success, bytes memory returndata) = address(token).call(data);\n        require(success, \"ERC20: call failed\");\n\n        if (returndata.length > 0) {\n\n            require(abi.decode(returndata, (bool)), \"ERC20: operation did not succeed\");\n        }\n    }\n\n}\n",
  "sourcePath": "/Users/9to5mac/Desktop/code/latoken/ethereum-crosschain-contract/contracts/ERC20Safe.sol",
  "compiler": {
    "name": "solc",
    "version": "0.6.4+commit.1dca32f3.Emscripten.clang"
  },
  "schemaVersion": "3.4.9",
  "updatedAt": "2022-10-10T09:22:18.122Z",
  "devdoc": {
    "methods": {
      "fundERC20(address,address,uint256)": {
        "params": {
          "amount": "Amount of tokens to transfer.",
          "owner": "Address of current token owner.",
          "tokenAddress": "Address of ERC20 to transfer."
        }
      }
    },
    "title": "Manages deposited ERC20s."
  },
  "userdoc": {
    "methods": {
      "fundERC20(address,address,uint256)": {
        "notice": "Used to transfer tokens into the safe to fund proposals."
      }
    },
    "notice": "This contract is intended to be used with ERC20Handler contract."
  }
}