{
  "contractName": "ERC721Safe",
  "abi": [
    {
      "inputs": [
        {
          "internalType": "address",
          "name": "tokenAddress",
          "type": "address"
        },
        {
          "internalType": "address",
          "name": "owner",
          "type": "address"
        },
        {
          "internalType": "uint256",
          "name": "tokenID",
          "type": "uint256"
        }
      ],
      "name": "fundERC721",
      "outputs": [],
      "stateMutability": "nonpayable",
      "type": "function"
    }
  ],
  "bytecode": "0x608060405234801561001057600080fd5b506101b2806100206000396000f3fe608060405234801561001057600080fd5b506004361061002b5760003560e01c80637354298014610030575b600080fd5b61009c6004803603606081101561004657600080fd5b81019080803573ffffffffffffffffffffffffffffffffffffffff169060200190929190803573ffffffffffffffffffffffffffffffffffffffff1690602001909291908035906020019092919050505061009e565b005b60008390508073ffffffffffffffffffffffffffffffffffffffff166323b872dd8430856040518463ffffffff1660e01b8152600401808473ffffffffffffffffffffffffffffffffffffffff1673ffffffffffffffffffffffffffffffffffffffff1681526020018373ffffffffffffffffffffffffffffffffffffffff1673ffffffffffffffffffffffffffffffffffffffff1681526020018281526020019350505050600060405180830381600087803b15801561015e57600080fd5b505af1158015610172573d6000803e3d6000fd5b505050505050505056fea2646970667358221220a3cef0c20a8f64f1180a3a6f7b33bcd67c153c5c71420627d59d6b410332a7bc64736f6c63430006040033",
  "source": "pragma solidity 0.6.4;\n\nimport \"./libraries/SafeMath.sol\";\nimport \"./interfaces/IERC721.sol\";\n\n/**\n    @title Manages deposited ERC721s.\n    @notice This contract is intended to be used with ERC721Handler contract.\n */\ncontract ERC721Safe {\n    using SafeMath for uint256;\n\n    /**\n        @notice Used to transfer tokens into the safe to fund proposals.\n        @param tokenAddress Address of ERC721 to transfer.\n        @param owner Address of current token owner.\n        @param tokenID ID of token to transfer.\n     */\n    function fundERC721(address tokenAddress, address owner, uint tokenID) public {\n        IERC721 erc721 = IERC721(tokenAddress);\n        erc721.transferFrom(owner, address(this), tokenID);\n    }\n\n    /**\n        @notice Used to gain custoday of deposited token.\n        @param tokenAddress Address of ERC721 to transfer.\n        @param owner Address of current token owner.\n        @param recipient Address to transfer token to.\n        @param tokenID ID of token to transfer.\n     */\n    function lockERC721(address tokenAddress, address owner, address recipient, uint tokenID) internal {\n        IERC721 erc721 = IERC721(tokenAddress);\n        erc721.transferFrom(owner, recipient, tokenID);\n\n    }\n\n    /**\n        @notice Transfers custody of token to recipient.\n        @param tokenAddress Address of ERC721 to transfer.\n        @param owner Address of current token owner.\n        @param recipient Address to transfer token to.\n        @param tokenID ID of token to transfer.\n     */\n    function releaseERC721(address tokenAddress, address owner, address recipient, uint256 tokenID) internal {\n        IERC721 erc721 = IERC721(tokenAddress);\n        erc721.transferFrom(owner, recipient, tokenID);\n    }\n\n    /**\n        @notice Used to approve ERC721s.\n        @param tokenAddress Address of ERC721 to approve.\n        @param spender Spender of token.\n        @param tokenID ID of token to approve.\n     */\n    function approveERC721(address tokenAddress, address spender, uint256 tokenID) internal {\n        IERC721 erc721 = IERC721(tokenAddress);\n        erc721.approve(spender, tokenID);\n    }\n}\n",
  "sourcePath": "/Users/9to5mac/Desktop/code/latoken/ethereum-crosschain-contract/contracts/ERC721Safe.sol",
  "compiler": {
    "name": "solc",
    "version": "0.6.4+commit.1dca32f3.Emscripten.clang"
  },
  "schemaVersion": "3.4.9",
  "updatedAt": "2022-08-25T11:25:21.607Z",
  "devdoc": {
    "methods": {
      "fundERC721(address,address,uint256)": {
        "params": {
          "owner": "Address of current token owner.",
          "tokenAddress": "Address of ERC721 to transfer.",
          "tokenID": "ID of token to transfer."
        }
      }
    },
    "title": "Manages deposited ERC721s."
  },
  "userdoc": {
    "methods": {
      "fundERC721(address,address,uint256)": {
        "notice": "Used to transfer tokens into the safe to fund proposals."
      }
    },
    "notice": "This contract is intended to be used with ERC721Handler contract."
  }
}