{
  "contractName": "ERC721Handler",
  "abi": [
    {
      "inputs": [
        {
          "internalType": "address",
          "name": "bridgeAddress",
          "type": "address"
        }
      ],
      "stateMutability": "nonpayable",
      "type": "constructor"
    },
    {
      "inputs": [],
      "name": "_bridgeAddress",
      "outputs": [
        {
          "internalType": "address",
          "name": "",
          "type": "address"
        }
      ],
      "stateMutability": "view",
      "type": "function"
    },
    {
      "inputs": [
        {
          "internalType": "address",
          "name": "",
          "type": "address"
        }
      ],
      "name": "_burnList",
      "outputs": [
        {
          "internalType": "bool",
          "name": "",
          "type": "bool"
        }
      ],
      "stateMutability": "view",
      "type": "function"
    },
    {
      "inputs": [
        {
          "internalType": "address",
          "name": "",
          "type": "address"
        }
      ],
      "name": "_contractWhitelist",
      "outputs": [
        {
          "internalType": "bool",
          "name": "",
          "type": "bool"
        }
      ],
      "stateMutability": "view",
      "type": "function"
    },
    {
      "inputs": [
        {
          "internalType": "bytes8",
          "name": "",
          "type": "bytes8"
        },
        {
          "internalType": "uint64",
          "name": "",
          "type": "uint64"
        }
      ],
      "name": "_depositRecords",
      "outputs": [
        {
          "internalType": "address",
          "name": "_tokenAddress",
          "type": "address"
        },
        {
          "internalType": "bytes8",
          "name": "_destinationChainID",
          "type": "bytes8"
        },
        {
          "internalType": "bytes32",
          "name": "_resourceID",
          "type": "bytes32"
        },
        {
          "internalType": "address",
          "name": "_destinationRecipientAddress",
          "type": "address"
        },
        {
          "internalType": "address",
          "name": "_depositer",
          "type": "address"
        },
        {
          "internalType": "uint256",
          "name": "_tokenID",
          "type": "uint256"
        }
      ],
      "stateMutability": "view",
      "type": "function"
    },
    {
      "inputs": [
        {
          "internalType": "bytes32",
          "name": "",
          "type": "bytes32"
        }
      ],
      "name": "_resourceIDToTokenContractAddress",
      "outputs": [
        {
          "internalType": "address",
          "name": "",
          "type": "address"
        }
      ],
      "stateMutability": "view",
      "type": "function"
    },
    {
      "inputs": [
        {
          "internalType": "address",
          "name": "",
          "type": "address"
        }
      ],
      "name": "_tokenContractAddressToResourceID",
      "outputs": [
        {
          "internalType": "bytes32",
          "name": "",
          "type": "bytes32"
        }
      ],
      "stateMutability": "view",
      "type": "function"
    },
    {
      "inputs": [
        {
          "internalType": "address",
          "name": "tokenAddress",
          "type": "address"
        },
        {
          "internalType": "address",
          "name": "owner",
          "type": "address"
        },
        {
          "internalType": "uint256",
          "name": "tokenID",
          "type": "uint256"
        }
      ],
      "name": "fundERC721",
      "outputs": [],
      "stateMutability": "nonpayable",
      "type": "function"
    },
    {
      "inputs": [
        {
          "internalType": "address",
          "name": "contractAddress",
          "type": "address"
        }
      ],
      "name": "setBurnable",
      "outputs": [],
      "stateMutability": "nonpayable",
      "type": "function"
    },
    {
      "inputs": [
        {
          "internalType": "bytes32",
          "name": "resourceID",
          "type": "bytes32"
        },
        {
          "internalType": "address",
          "name": "contractAddress",
          "type": "address"
        }
      ],
      "name": "setResource",
      "outputs": [],
      "stateMutability": "nonpayable",
      "type": "function"
    },
    {
      "inputs": [
        {
          "internalType": "uint64",
          "name": "depositNonce",
          "type": "uint64"
        },
        {
          "internalType": "bytes8",
          "name": "destId",
          "type": "bytes8"
        }
      ],
      "name": "getDepositRecord",
      "outputs": [
        {
          "components": [
            {
              "internalType": "address",
              "name": "_tokenAddress",
              "type": "address"
            },
            {
              "internalType": "bytes8",
              "name": "_destinationChainID",
              "type": "bytes8"
            },
            {
              "internalType": "bytes32",
              "name": "_resourceID",
              "type": "bytes32"
            },
            {
              "internalType": "address",
              "name": "_destinationRecipientAddress",
              "type": "address"
            },
            {
              "internalType": "address",
              "name": "_depositer",
              "type": "address"
            },
            {
              "internalType": "uint256",
              "name": "_tokenID",
              "type": "uint256"
            }
          ],
          "internalType": "struct ERC721Handler.DepositRecord",
          "name": "",
          "type": "tuple"
        }
      ],
      "stateMutability": "view",
      "type": "function"
    },
    {
      "inputs": [
        {
          "internalType": "bytes32",
          "name": "resourceID",
          "type": "bytes32"
        },
        {
          "internalType": "bytes8",
          "name": "destinationChainID",
          "type": "bytes8"
        },
        {
          "internalType": "uint64",
          "name": "depositNonce",
          "type": "uint64"
        },
        {
          "internalType": "address",
          "name": "depositer",
          "type": "address"
        },
        {
          "internalType": "address",
          "name": "recipientAddress",
          "type": "address"
        },
        {
          "internalType": "uint256",
          "name": "tokenID",
          "type": "uint256"
        },
        {
          "internalType": "bytes",
          "name": "params",
          "type": "bytes"
        }
      ],
      "name": "deposit",
      "outputs": [
        {
          "internalType": "address",
          "name": "",
          "type": "address"
        }
      ],
      "stateMutability": "nonpayable",
      "type": "function"
    },
    {
      "inputs": [
        {
          "internalType": "bytes32",
          "name": "resourceID",
          "type": "bytes32"
        },
        {
          "internalType": "address",
          "name": "recipientAddress",
          "type": "address"
        },
        {
          "internalType": "uint256",
          "name": "tokenID",
          "type": "uint256"
        },
        {
          "internalType": "bytes",
          "name": "params",
          "type": "bytes"
        }
      ],
      "name": "executeProposal",
      "outputs": [],
      "stateMutability": "nonpayable",
      "type": "function"
    },
    {
      "inputs": [
        {
          "internalType": "address",
          "name": "tokenAddress",
          "type": "address"
        },
        {
          "internalType": "address",
          "name": "recipient",
          "type": "address"
        },
        {
          "internalType": "uint256",
          "name": "tokenID",
          "type": "uint256"
        }
      ],
      "name": "withdraw",
      "outputs": [],
      "stateMutability": "nonpayable",
      "type": "function"
    },
    {
      "inputs": [
        {
          "internalType": "bytes32",
          "name": "resourceID",
          "type": "bytes32"
        }
      ],
      "name": "getAddressFromResourceId",
      "outputs": [
        {
          "internalType": "address",
          "name": "",
          "type": "address"
        }
      ],
      "stateMutability": "view",
      "type": "function"
    },
    {
      "inputs": [
        {
          "internalType": "bytes32",
          "name": "resourceID",
          "type": "bytes32"
        },
        {
          "internalType": "address",
          "name": "spender",
          "type": "address"
        },
        {
          "internalType": "uint256",
          "name": "tokenID",
          "type": "uint256"
        }
      ],
      "name": "approve",
      "outputs": [],
      "stateMutability": "nonpayable",
      "type": "function"
    }
  ],
  "bytecode": "0x60806040523480156200001157600080fd5b5060405162001a4938038062001a49833981810160405281019062000037919062000095565b806000806101000a81548173ffffffffffffffffffffffffffffffffffffffff021916908373ffffffffffffffffffffffffffffffffffffffff160217905550506200010f565b6000815190506200008f81620000f5565b92915050565b600060208284031215620000a857600080fd5b6000620000b8848285016200007e565b91505092915050565b6000620000ce82620000d5565b9050919050565b600073ffffffffffffffffffffffffffffffffffffffff82169050919050565b6200010081620000c1565b81146200010c57600080fd5b50565b61192a806200011f6000396000f3fe608060405234801561001057600080fd5b50600436106100f55760003560e01c806375cd9cce11610097578063b8fa373611610066578063b8fa3736146102c1578063bf1ed1eb146102dd578063c8ba6c87146102f9578063d9caed1214610329576100f5565b806375cd9cce146101fc57806378f6a94c1461022c5780637f79bea814610261578063a7a3fb4014610291576100f5565b806334143cd7116100d357806334143cd7146101645780636a70d08114610194578063728e218f146101c457806373542980146101e0576100f5565b806307b7ed99146100fa5780630a6d55d814610116578063318c136e14610146575b600080fd5b610114600480360381019061010f9190611165565b610345565b005b610130600480360381019061012b91906111dd565b610359565b60405161013d9190611651565b60405180910390f35b61014e61038c565b60405161015b9190611651565b60405180910390f35b61017e60048036038101906101799190611407565b6103b1565b60405161018b91906117c3565b60405180910390f35b6101ae60048036038101906101a99190611165565b61059d565b6040516101bb919061172d565b60405180910390f35b6101de60048036038101906101d99190611291565b6105bd565b005b6101fa60048036038101906101f5919061118e565b61069d565b005b61021660048036038101906102119190611311565b610717565b6040516102239190611651565b60405180910390f35b610246600480360381019061024191906113cb565b610a0d565b604051610258969594939291906116a3565b60405180910390f35b61027b60048036038101906102769190611165565b610ac3565b604051610288919061172d565b60405180910390f35b6102ab60048036038101906102a691906111dd565b610ae3565b6040516102b89190611651565b60405180910390f35b6102db60048036038101906102d69190611206565b610b20565b005b6102f760048036038101906102f29190611242565b610b36565b005b610313600480360381019061030e9190611165565b610c13565b6040516103209190611748565b60405180910390f35b610343600480360381019061033e919061118e565b610c2b565b005b61034d610c44565b61035681610cd5565b50565b60016020528060005260406000206000915054906101000a900473ffffffffffffffffffffffffffffffffffffffff1681565b6000809054906101000a900473ffffffffffffffffffffffffffffffffffffffff1681565b6103b961101c565b600560008377ffffffffffffffffffffffffffffffffffffffffffffffff191677ffffffffffffffffffffffffffffffffffffffffffffffff1916815260200190815260200160002060008467ffffffffffffffff1667ffffffffffffffff1681526020019081526020016000206040518060c00160405290816000820160009054906101000a900473ffffffffffffffffffffffffffffffffffffffff1673ffffffffffffffffffffffffffffffffffffffff1673ffffffffffffffffffffffffffffffffffffffff1681526020016000820160149054906101000a900460c01b77ffffffffffffffffffffffffffffffffffffffffffffffff191677ffffffffffffffffffffffffffffffffffffffffffffffff19168152602001600182015481526020016002820160009054906101000a900473ffffffffffffffffffffffffffffffffffffffff1673ffffffffffffffffffffffffffffffffffffffff1673ffffffffffffffffffffffffffffffffffffffff1681526020016003820160009054906101000a900473ffffffffffffffffffffffffffffffffffffffff1673ffffffffffffffffffffffffffffffffffffffff1673ffffffffffffffffffffffffffffffffffffffff168152602001600482015481525050905092915050565b60046020528060005260406000206000915054906101000a900460ff1681565b6105c5610c44565b60006001600087815260200190815260200160002060009054906101000a900473ffffffffffffffffffffffffffffffffffffffff169050600360008273ffffffffffffffffffffffffffffffffffffffff1673ffffffffffffffffffffffffffffffffffffffff16815260200190815260200160002060009054906101000a900460ff16610689576040517f08c379a0000000000000000000000000000000000000000000000000000000008152600401610680906117a3565b60405180910390fd5b61069581308787610dbc565b505050505050565b60008390508073ffffffffffffffffffffffffffffffffffffffff166323b872dd8430856040518463ffffffff1660e01b81526004016106df9392919061166c565b600060405180830381600087803b1580156106f957600080fd5b505af115801561070d573d6000803e3d6000fd5b5050505050505050565b6000610721610c44565b6000600160008b815260200190815260200160002060009054906101000a900473ffffffffffffffffffffffffffffffffffffffff169050600360008273ffffffffffffffffffffffffffffffffffffffff1673ffffffffffffffffffffffffffffffffffffffff16815260200190815260200160002060009054906101000a900460ff166107e5576040517f08c379a00000000000000000000000000000000000000000000000000000000081526004016107dc906117a3565b60405180910390fd5b6107f181883088610e37565b6040518060c001604052808273ffffffffffffffffffffffffffffffffffffffff1681526020018a77ffffffffffffffffffffffffffffffffffffffffffffffff191681526020018b81526020018773ffffffffffffffffffffffffffffffffffffffff1681526020018873ffffffffffffffffffffffffffffffffffffffff16815260200186815250600560008b77ffffffffffffffffffffffffffffffffffffffffffffffff191677ffffffffffffffffffffffffffffffffffffffffffffffff1916815260200190815260200160002060008a67ffffffffffffffff1667ffffffffffffffff16815260200190815260200160002060008201518160000160006101000a81548173ffffffffffffffffffffffffffffffffffffffff021916908373ffffffffffffffffffffffffffffffffffffffff16021790555060208201518160000160146101000a81548167ffffffffffffffff021916908360c01c02179055506040820151816001015560608201518160020160006101000a81548173ffffffffffffffffffffffffffffffffffffffff021916908373ffffffffffffffffffffffffffffffffffffffff16021790555060808201518160030160006101000a81548173ffffffffffffffffffffffffffffffffffffffff021916908373ffffffffffffffffffffffffffffffffffffffff16021790555060a082015181600401559050508091505098975050505050505050565b6005602052816000526040600020602052806000526040600020600091509150508060000160009054906101000a900473ffffffffffffffffffffffffffffffffffffffff16908060000160149054906101000a900460c01b908060010154908060020160009054906101000a900473ffffffffffffffffffffffffffffffffffffffff16908060030160009054906101000a900473ffffffffffffffffffffffffffffffffffffffff16908060040154905086565b60036020528060005260406000206000915054906101000a900460ff1681565b60006001600083815260200190815260200160002060009054906101000a900473ffffffffffffffffffffffffffffffffffffffff169050919050565b610b28610c44565b610b328282610eb2565b5050565b610b3e610c44565b60006001600085815260200190815260200160002060009054906101000a900473ffffffffffffffffffffffffffffffffffffffff169050600360008273ffffffffffffffffffffffffffffffffffffffff1673ffffffffffffffffffffffffffffffffffffffff16815260200190815260200160002060009054906101000a900460ff16610c02576040517f08c379a0000000000000000000000000000000000000000000000000000000008152600401610bf9906117a3565b60405180910390fd5b610c0d818484610fa4565b50505050565b60026020528060005260406000206000915090505481565b610c33610c44565b610c3f83308484610dbc565b505050565b6000809054906101000a900473ffffffffffffffffffffffffffffffffffffffff1673ffffffffffffffffffffffffffffffffffffffff163373ffffffffffffffffffffffffffffffffffffffff1614610cd3576040517f08c379a0000000000000000000000000000000000000000000000000000000008152600401610cca90611763565b60405180910390fd5b565b600360008273ffffffffffffffffffffffffffffffffffffffff1673ffffffffffffffffffffffffffffffffffffffff16815260200190815260200160002060009054906101000a900460ff16610d61576040517f08c379a0000000000000000000000000000000000000000000000000000000008152600401610d5890611783565b60405180910390fd5b6001600460008373ffffffffffffffffffffffffffffffffffffffff1673ffffffffffffffffffffffffffffffffffffffff16815260200190815260200160002060006101000a81548160ff02191690831515021790555050565b60008490508073ffffffffffffffffffffffffffffffffffffffff166323b872dd8585856040518463ffffffff1660e01b8152600401610dfe9392919061166c565b600060405180830381600087803b158015610e1857600080fd5b505af1158015610e2c573d6000803e3d6000fd5b505050505050505050565b60008490508073ffffffffffffffffffffffffffffffffffffffff166323b872dd8585856040518463ffffffff1660e01b8152600401610e799392919061166c565b600060405180830381600087803b158015610e9357600080fd5b505af1158015610ea7573d6000803e3d6000fd5b505050505050505050565b806001600084815260200190815260200160002060006101000a81548173ffffffffffffffffffffffffffffffffffffffff021916908373ffffffffffffffffffffffffffffffffffffffff16021790555081600260008373ffffffffffffffffffffffffffffffffffffffff1673ffffffffffffffffffffffffffffffffffffffff168152602001908152602001600020819055506001600360008373ffffffffffffffffffffffffffffffffffffffff1673ffffffffffffffffffffffffffffffffffffffff16815260200190815260200160002060006101000a81548160ff0219169083151502179055505050565b60008390508073ffffffffffffffffffffffffffffffffffffffff1663095ea7b384846040518363ffffffff1660e01b8152600401610fe4929190611704565b600060405180830381600087803b158015610ffe57600080fd5b505af1158015611012573d6000803e3d6000fd5b5050505050505050565b6040518060c00160405280600073ffffffffffffffffffffffffffffffffffffffff168152602001600077ffffffffffffffffffffffffffffffffffffffffffffffff1916815260200160008019168152602001600073ffffffffffffffffffffffffffffffffffffffff168152602001600073ffffffffffffffffffffffffffffffffffffffff168152602001600081525090565b6000813590506110c181611881565b92915050565b6000813590506110d681611898565b92915050565b6000813590506110eb816118af565b92915050565b60008083601f84011261110357600080fd5b8235905067ffffffffffffffff81111561111c57600080fd5b60208301915083600182028301111561113457600080fd5b9250929050565b60008135905061114a816118c6565b92915050565b60008135905061115f816118dd565b92915050565b60006020828403121561117757600080fd5b6000611185848285016110b2565b91505092915050565b6000806000606084860312156111a357600080fd5b60006111b1868287016110b2565b93505060206111c2868287016110b2565b92505060406111d38682870161113b565b9150509250925092565b6000602082840312156111ef57600080fd5b60006111fd848285016110c7565b91505092915050565b6000806040838503121561121957600080fd5b6000611227858286016110c7565b9250506020611238858286016110b2565b9150509250929050565b60008060006060848603121561125757600080fd5b6000611265868287016110c7565b9350506020611276868287016110b2565b92505060406112878682870161113b565b9150509250925092565b6000806000806000608086880312156112a957600080fd5b60006112b7888289016110c7565b95505060206112c8888289016110b2565b94505060406112d98882890161113b565b935050606086013567ffffffffffffffff8111156112f657600080fd5b611302888289016110f1565b92509250509295509295909350565b60008060008060008060008060e0898b03121561132d57600080fd5b600061133b8b828c016110c7565b985050602061134c8b828c016110dc565b975050604061135d8b828c01611150565b965050606061136e8b828c016110b2565b955050608061137f8b828c016110b2565b94505060a06113908b828c0161113b565b93505060c089013567ffffffffffffffff8111156113ad57600080fd5b6113b98b828c016110f1565b92509250509295985092959890939650565b600080604083850312156113de57600080fd5b60006113ec858286016110dc565b92505060206113fd85828601611150565b9150509250929050565b6000806040838503121561141a57600080fd5b600061142885828601611150565b9250506020611439858286016110dc565b9150509250929050565b61144c816117ef565b82525050565b61145b816117ef565b82525050565b61146a81611801565b82525050565b6114798161180d565b82525050565b6114888161180d565b82525050565b61149781611817565b82525050565b6114a681611817565b82525050565b60006114b9601e836117de565b91507f73656e646572206d7573742062652062726964676520636f6e747261637400006000830152602082019050919050565b60006114f96024836117de565b91507f70726f766964656420636f6e7472616374206973206e6f742077686974656c6960008301527f73746564000000000000000000000000000000000000000000000000000000006020830152604082019050919050565b600061155f6028836117de565b91507f70726f766964656420746f6b656e41646472657373206973206e6f742077686960008301527f74656c69737465640000000000000000000000000000000000000000000000006020830152604082019050919050565b60c0820160008201516115ce6000850182611443565b5060208201516115e1602085018261148e565b5060408201516115f46040850182611470565b5060608201516116076060850182611443565b50608082015161161a6080850182611443565b5060a082015161162d60a0850182611633565b50505050565b61163c81611863565b82525050565b61164b81611863565b82525050565b60006020820190506116666000830184611452565b92915050565b60006060820190506116816000830186611452565b61168e6020830185611452565b61169b6040830184611642565b949350505050565b600060c0820190506116b86000830189611452565b6116c5602083018861149d565b6116d2604083018761147f565b6116df6060830186611452565b6116ec6080830185611452565b6116f960a0830184611642565b979650505050505050565b60006040820190506117196000830185611452565b6117266020830184611642565b9392505050565b60006020820190506117426000830184611461565b92915050565b600060208201905061175d600083018461147f565b92915050565b6000602082019050818103600083015261177c816114ac565b9050919050565b6000602082019050818103600083015261179c816114ec565b9050919050565b600060208201905081810360008301526117bc81611552565b9050919050565b600060c0820190506117d860008301846115b8565b92915050565b600082825260208201905092915050565b60006117fa82611843565b9050919050565b60008115159050919050565b6000819050919050565b60007fffffffffffffffff00000000000000000000000000000000000000000000000082169050919050565b600073ffffffffffffffffffffffffffffffffffffffff82169050919050565b6000819050919050565b600067ffffffffffffffff82169050919050565b61188a816117ef565b811461189557600080fd5b50565b6118a18161180d565b81146118ac57600080fd5b50565b6118b881611817565b81146118c357600080fd5b50565b6118cf81611863565b81146118da57600080fd5b50565b6118e68161186d565b81146118f157600080fd5b5056fea2646970667358221220731f4157c0a0ff7e616201421514d0872f4066dcfdc086f688af0c0e306ebab064736f6c63430006040033",
  "source": "pragma solidity 0.6.4;\npragma experimental ABIEncoderV2;\n\nimport \"../interfaces/IDepositExecute.sol\";\nimport \"./HandlerHelpers.sol\";\nimport \"../ERC721Safe.sol\";\n\n/**\n    @title Handles ERC721 deposits and deposit executions.\n    @author ChainSafe Systems.\n    @notice This contract is intended to be used with the Bridge contract.\n */\ncontract ERC721Handler is IDepositExecute, HandlerHelpers, ERC721Safe {\n    struct DepositRecord {\n        address _tokenAddress;\n        bytes8 _destinationChainID;\n        bytes32 _resourceID;\n        address _destinationRecipientAddress;\n        address _depositer;\n        uint256 _tokenID;\n    }\n\n    // DepositNonce => Deposit Record\n    mapping(bytes8 => mapping(uint64 => DepositRecord)) public _depositRecords;\n\n    /**\n        @param bridgeAddress Contract address of previously deployed Bridge.\n     */\n    constructor(address bridgeAddress) public {\n        _bridgeAddress = bridgeAddress;\n    }\n\n    /**\n        @param depositNonce This ID will have been generated by the Bridge contract.\n        @param destId ID of chain deposit will be bridged to.\n        @return DepositRecord which consists of:\n        - _tokenAddress Address used when {deposit} was executed.\n        - _destinationChainID ChainID deposited tokens are intended to end up on.\n        - _resourceID ResourceID used when {deposit} was executed.\n        - _lenDestinationRecipientAddress Used to parse recipient's address from {_destinationRecipientAddress}\n        - _destinationRecipientAddress Address tokens are intended to be deposited to on desitnation chain.\n        - _depositer Address that initially called {deposit} in the Bridge contract.\n        - _tokenID ID of ERC721.\n        - _metaData Optional ERC721 metadata.\n    */\n    function getDepositRecord(uint64 depositNonce, bytes8 destId)\n        external\n        view\n        returns (DepositRecord memory)\n    {\n        return _depositRecords[destId][depositNonce];\n    }\n\n    /**\n        @notice A deposit is initiatied by making a deposit in the Bridge contract.\n        @param destinationChainID Chain ID of chain token is expected to be bridged to.\n        @param depositNonce This value is generated as an ID by the Bridge contract.\n        @param depositer Address of account making the deposit in the Bridge contract.\n        @notice If the corresponding {tokenAddress} for the parsed {resourceID} supports {_INTERFACE_ERC721_METADATA},\n        then {metaData} will be set according to the {tokenURI} method in the token contract.\n        @dev Depending if the corresponding {tokenAddress} for the parsed {resourceID} is\n        marked true in {_burnList}, deposited tokens will be burned, if not, they will be locked.\n     */\n    function deposit(\n        bytes32 resourceID,\n        bytes8 destinationChainID,\n        uint64 depositNonce,\n        address depositer,\n        address recipientAddress,\n        uint256 tokenID,\n        bytes calldata params\n    ) external override onlyBridge returns (address) {\n        address tokenAddress = _resourceIDToTokenContractAddress[resourceID];\n        require(\n            _contractWhitelist[tokenAddress],\n            \"provided tokenAddress is not whitelisted\"\n        );\n\n        lockERC721(tokenAddress, depositer, address(this), tokenID);\n\n        _depositRecords[destinationChainID][depositNonce] = DepositRecord(\n            tokenAddress,\n            destinationChainID,\n            resourceID,\n            recipientAddress,\n            depositer,\n            tokenID\n        );\n        return tokenAddress;\n    }\n\n    /**\n        @notice Proposal execution should be initiated when a proposal is finalized in the Bridge contract.\n        by a relayer on the deposit's destination chain.\n     */\n    function executeProposal(\n        bytes32 resourceID,\n        address recipientAddress,\n        uint256 tokenID,\n        bytes calldata params\n    ) external override onlyBridge {\n        address tokenAddress = _resourceIDToTokenContractAddress[resourceID];\n        require(\n            _contractWhitelist[address(tokenAddress)],\n            \"provided tokenAddress is not whitelisted\"\n        );\n\n        releaseERC721(\n            tokenAddress,\n            address(this),\n            address(recipientAddress),\n            tokenID\n        );\n    }\n\n    /**\n        @notice Used to manually release ERC721 tokens from ERC721Safe.\n        @param tokenAddress Address of token contract to release.\n        @param recipient Address to release token to.\n        @param tokenID The ERC721 token ID to release.\n     */\n    function withdraw(\n        address tokenAddress,\n        address recipient,\n        uint256 tokenID\n    ) external override onlyBridge {\n        releaseERC721(tokenAddress, address(this), recipient, tokenID);\n    }\n\n    function getAddressFromResourceId(bytes32 resourceID) external override view returns (address) {\n        return _resourceIDToTokenContractAddress[resourceID];\n    }\n\n    /**\n        @notice Used to approve spending tokens.\n        @param resourceID ResourceID to be used for approval.\n        @param spender Spender address.\n        @param tokenID Amount to approve.\n     */\n    function approve(\n        bytes32 resourceID,\n        address spender,\n        uint256 tokenID\n    ) external override onlyBridge {\n        address tokenAddress = _resourceIDToTokenContractAddress[resourceID];\n        require(\n            _contractWhitelist[tokenAddress],\n            \"provided tokenAddress is not whitelisted\"\n        );\n\n        approveERC721(tokenAddress, spender, tokenID);\n    }\n}\n",
  "sourcePath": "/Users/9to5mac/Desktop/code/latoken/ethereum-crosschain-contract/contracts/handlers/ERC721Handler.sol",
  "compiler": {
    "name": "solc",
    "version": "0.6.4+commit.1dca32f3.Emscripten.clang"
  },
  "schemaVersion": "3.4.9",
  "updatedAt": "2022-08-25T11:25:21.637Z",
  "devdoc": {
    "author": "ChainSafe Systems.",
    "methods": {
      "approve(bytes32,address,uint256)": {
        "params": {
          "resourceID": "ResourceID to be used for approval.",
          "spender": "Spender address.",
          "tokenID": "Amount to approve."
        }
      },
      "constructor": {
        "params": {
          "bridgeAddress": "Contract address of previously deployed Bridge."
        }
      },
      "deposit(bytes32,bytes8,uint64,address,address,uint256,bytes)": {
        "details": "Depending if the corresponding {tokenAddress} for the parsed {resourceID} is marked true in {_burnList}, deposited tokens will be burned, if not, they will be locked.",
        "params": {
          "depositNonce": "This value is generated as an ID by the Bridge contract.",
          "depositer": "Address of account making the deposit in the Bridge contract.",
          "destinationChainID": "Chain ID of chain token is expected to be bridged to."
        }
      },
      "fundERC721(address,address,uint256)": {
        "params": {
          "owner": "Address of current token owner.",
          "tokenAddress": "Address of ERC721 to transfer.",
          "tokenID": "ID of token to transfer."
        }
      },
      "getDepositRecord(uint64,bytes8)": {
        "params": {
          "depositNonce": "This ID will have been generated by the Bridge contract.",
          "destId": "ID of chain deposit will be bridged to."
        },
        "returns": {
          "_0": "DepositRecord which consists of: - _tokenAddress Address used when {deposit} was executed. - _destinationChainID ChainID deposited tokens are intended to end up on. - _resourceID ResourceID used when {deposit} was executed. - _lenDestinationRecipientAddress Used to parse recipient's address from {_destinationRecipientAddress} - _destinationRecipientAddress Address tokens are intended to be deposited to on desitnation chain. - _depositer Address that initially called {deposit} in the Bridge contract. - _tokenID ID of ERC721. - _metaData Optional ERC721 metadata."
        }
      },
      "setBurnable(address)": {
        "params": {
          "contractAddress": "Address of contract to be used when making or executing deposits."
        }
      },
      "setResource(bytes32,address)": {
        "params": {
          "contractAddress": "Address of contract to be called when a deposit is made and a deposited is executed.",
          "resourceID": "ResourceID to be used when making deposits."
        }
      },
      "withdraw(address,address,uint256)": {
        "params": {
          "recipient": "Address to release token to.",
          "tokenAddress": "Address of token contract to release.",
          "tokenID": "The ERC721 token ID to release."
        }
      }
    },
    "title": "Handles ERC721 deposits and deposit executions."
  },
  "userdoc": {
    "methods": {
      "approve(bytes32,address,uint256)": {
        "notice": "Used to approve spending tokens."
      },
      "deposit(bytes32,bytes8,uint64,address,address,uint256,bytes)": {
        "notice": "A deposit is initiatied by making a deposit in the Bridge contract.If the corresponding {tokenAddress} for the parsed {resourceID} supports {_INTERFACE_ERC721_METADATA}, then {metaData} will be set according to the {tokenURI} method in the token contract."
      },
      "executeProposal(bytes32,address,uint256,bytes)": {
        "notice": "Proposal execution should be initiated when a proposal is finalized in the Bridge contract. by a relayer on the deposit's destination chain."
      },
      "fundERC721(address,address,uint256)": {
        "notice": "Used to transfer tokens into the safe to fund proposals."
      },
      "setBurnable(address)": {
        "notice": "First verifies {contractAddress} is whitelisted, then sets {_burnList}[{contractAddress}] to true."
      },
      "setResource(bytes32,address)": {
        "notice": "First verifies {_resourceIDToContractAddress}[{resourceID}] and {_contractAddressToResourceID}[{contractAddress}] are not already set, then sets {_resourceIDToContractAddress} with {contractAddress}, {_contractAddressToResourceID} with {resourceID}, and {_contractWhitelist} to true for {contractAddress}."
      },
      "withdraw(address,address,uint256)": {
        "notice": "Used to manually release ERC721 tokens from ERC721Safe."
      }
    },
    "notice": "This contract is intended to be used with the Bridge contract."
  }
}