{
  "contractName": "VerifySignature",
  "abi": [
    {
      "inputs": [
        {
          "internalType": "bytes32",
          "name": "_messageHash",
          "type": "bytes32"
        }
      ],
      "name": "getEthSignedMessageHash",
      "outputs": [
        {
          "internalType": "bytes32",
          "name": "",
          "type": "bytes32"
        }
      ],
      "stateMutability": "pure",
      "type": "function"
    },
    {
      "inputs": [
        {
          "internalType": "bytes32",
          "name": "_ethSignedMessageHash",
          "type": "bytes32"
        },
        {
          "internalType": "address",
          "name": "_signer",
          "type": "address"
        },
        {
          "internalType": "bytes",
          "name": "_signature",
          "type": "bytes"
        }
      ],
      "name": "verify",
      "outputs": [
        {
          "internalType": "bool",
          "name": "",
          "type": "bool"
        }
      ],
      "stateMutability": "pure",
      "type": "function"
    },
    {
      "inputs": [
        {
          "internalType": "bytes32",
          "name": "messageHash",
          "type": "bytes32"
        },
        {
          "internalType": "bytes",
          "name": "signature",
          "type": "bytes"
        }
      ],
      "name": "getSigner",
      "outputs": [
        {
          "internalType": "address",
          "name": "",
          "type": "address"
        }
      ],
      "stateMutability": "pure",
      "type": "function"
    },
    {
      "inputs": [
        {
          "internalType": "uint256",
          "name": "amount",
          "type": "uint256"
        },
        {
          "internalType": "address",
          "name": "recipient",
          "type": "address"
        },
        {
          "internalType": "bytes8",
          "name": "chainId",
          "type": "bytes8"
        }
      ],
      "name": "createMesssageHash",
      "outputs": [
        {
          "internalType": "bytes32",
          "name": "",
          "type": "bytes32"
        }
      ],
      "stateMutability": "pure",
      "type": "function"
    }
  ],
  "bytecode": "0x608060405234801561001057600080fd5b506105c9806100206000396000f3fe608060405234801561001057600080fd5b506004361061004c5760003560e01c8063c79564f114610051578063f5cf2ce1146100d8578063f7b2ec0d146101d5578063fa540801146102da575b600080fd5b6100c26004803603606081101561006757600080fd5b8101908080359060200190929190803573ffffffffffffffffffffffffffffffffffffffff169060200190929190803577ffffffffffffffffffffffffffffffffffffffffffffffff1916906020019092919050505061031c565b6040518082815260200191505060405180910390f35b6101bb600480360360608110156100ee57600080fd5b8101908080359060200190929190803573ffffffffffffffffffffffffffffffffffffffff1690602001909291908035906020019064010000000081111561013557600080fd5b82018360208201111561014757600080fd5b8035906020019184600183028401116401000000008311171561016957600080fd5b91908080601f016020809104026020016040519081016040528093929190818152602001838380828437600081840152601f19601f820116905080830192505050505050509192919290505050610345565b604051808215151515815260200191505060405180910390f35b610298600480360360408110156101eb57600080fd5b81019080803590602001909291908035906020019064010000000081111561021257600080fd5b82018360208201111561022457600080fd5b8035906020019184600183028401116401000000008311171561024657600080fd5b91908080601f016020809104026020016040519081016040528093929190818152602001838380828437600081840152601f19601f820116905080830192505050505050509192919290505050610388565b604051808273ffffffffffffffffffffffffffffffffffffffff1673ffffffffffffffffffffffffffffffffffffffff16815260200191505060405180910390f35b610306600480360360208110156102f057600080fd5b81019080803590602001909291905050506103a5565b6040518082815260200191505060405180910390f35b6000606061032b8585856103b7565b905060008180519060200120905080925050509392505050565b60008273ffffffffffffffffffffffffffffffffffffffff166103688584610388565b73ffffffffffffffffffffffffffffffffffffffff161490509392505050565b600061039d828461045990919063ffffffff16565b905092915050565b60006103b08261053b565b9050919050565b606080848484604051602001808481526020018373ffffffffffffffffffffffffffffffffffffffff1673ffffffffffffffffffffffffffffffffffffffff1681526020018277ffffffffffffffffffffffffffffffffffffffffffffffff191677ffffffffffffffffffffffffffffffffffffffffffffffff1916815260200193505050506040516020818303038152906040529050809150509392505050565b60008060008060418551146104745760009350505050610535565b6020850151925060408501519150606085015160001a9050601b8160ff16101561049f57601b810190505b601b8160ff16141580156104b75750601c8160ff1614155b156104c85760009350505050610535565b60018682858560405160008152602001604052604051808581526020018460ff1660ff1681526020018381526020018281526020019450505050506020604051602081039080840390855afa158015610525573d6000803e3d6000fd5b5050506020604051035193505050505b92915050565b60008160405160200180807f19457468657265756d205369676e6564204d6573736167653a0a333200000000815250601c0182815260200191505060405160208183030381529060405280519060200120905091905056fea26469706673582212203d91aeaa41a48bd692240a27c13b1cf52ea751fa2c00825619a56f0ea47505bd64736f6c63430006040033",
  "source": "// SPDX-License-Identifier: MIT\npragma solidity 0.6.4;\n\nimport \"./ECDSA.sol\";\n\ncontract VerifySignature {\n    using ECDSA for bytes32;\n\n    function getEthSignedMessageHash(bytes32 _messageHash)\n        public\n        pure\n        returns (bytes32)\n    {\n        return _messageHash.toEthSignedMessageHash();\n    }\n\n    function verify(\n        bytes32 _ethSignedMessageHash,\n        address _signer,\n        bytes memory _signature\n    ) public pure returns (bool) {\n        return getSigner(_ethSignedMessageHash, _signature) == _signer;\n    }\n\n    function getSigner(bytes32 messageHash, bytes memory signature)\n        public\n        pure\n        returns (address)\n    {\n        return messageHash.recover(signature);\n    }\n\n    function createMesssageHash(\n        uint256 amount,\n        address recipient,\n        bytes8 chainId\n    ) public pure returns (bytes32) {\n        bytes memory _message = message(amount, recipient, chainId);\n        bytes32 msgHash = keccak256(_message);\n        return msgHash;\n    }\n\n    function message(\n        uint256 amount,\n        address recipient,\n        bytes8 chainId\n    ) internal pure returns (bytes memory) {\n        bytes memory _message = abi.encode(amount, recipient, chainId);\n        return _message;\n    }\n}\n",
  "sourcePath": "/Users/9to5mac/Desktop/code/latoken/ethereum-crosschain-contract/contracts/utils/VerifySignature.sol",
  "compiler": {
    "name": "solc",
    "version": "0.6.4+commit.1dca32f3.Emscripten.clang"
  },
  "schemaVersion": "3.4.9",
  "updatedAt": "2022-08-25T11:25:21.671Z",
  "devdoc": {
    "methods": {}
  },
  "userdoc": {
    "methods": {}
  }
}